{"abi":[{"type":"constructor","inputs":[],"stateMutability":"nonpayable"},{"type":"function","name":"NO_ERROR","inputs":[],"outputs":[{"name":"","type":"uint256","internalType":"uint256"}],"stateMutability":"view"},{"type":"function","name":"_acceptAdmin","inputs":[],"outputs":[{"name":"","type":"uint256","internalType":"uint256"}],"stateMutability":"nonpayable"},{"type":"function","name":"_addReserves","inputs":[{"name":"addAmount","type":"uint256","internalType":"uint256"}],"outputs":[{"name":"","type":"uint256","internalType":"uint256"}],"stateMutability":"nonpayable"},{"type":"function","name":"_becomeImplementation","inputs":[{"name":"data","type":"bytes","internalType":"bytes"}],"outputs":[],"stateMutability":"nonpayable"},{"type":"function","name":"_delegatePeridotLikeTo","inputs":[{"name":"peridotLikeDelegatee","type":"address","internalType":"address"}],"outputs":[],"stateMutability":"nonpayable"},{"type":"function","name":"_reduceReserves","inputs":[{"name":"reduceAmount","type":"uint256","internalType":"uint256"}],"outputs":[{"name":"","type":"uint256","internalType":"uint256"}],"stateMutability":"nonpayable"},{"type":"function","name":"_resignImplementation","inputs":[],"outputs":[],"stateMutability":"nonpayable"},{"type":"function","name":"_setFlashLoanFee","inputs":[{"name":"newFeeBps","type":"uint256","internalType":"uint256"}],"outputs":[{"name":"","type":"uint256","internalType":"uint256"}],"stateMutability":"nonpayable"},{"type":"function","name":"_setFlashLoansPaused","inputs":[{"name":"state","type":"bool","internalType":"bool"}],"outputs":[{"name":"","type":"bool","internalType":"bool"}],"stateMutability":"nonpayable"},{"type":"function","name":"_setInterestRateModel","inputs":[{"name":"newInterestRateModel","type":"address","internalType":"contract InterestRateModel"}],"outputs":[{"name":"","type":"uint256","internalType":"uint256"}],"stateMutability":"nonpayable"},{"type":"function","name":"_setMaxFlashLoanRatio","inputs":[{"name":"newMaxRatio","type":"uint256","internalType":"uint256"}],"outputs":[{"name":"","type":"uint256","internalType":"uint256"}],"stateMutability":"nonpayable"},{"type":"function","name":"_setPendingAdmin","inputs":[{"name":"newPendingAdmin","type":"address","internalType":"address payable"}],"outputs":[{"name":"","type":"uint256","internalType":"uint256"}],"stateMutability":"nonpayable"},{"type":"function","name":"_setPeridottroller","inputs":[{"name":"newPeridottroller","type":"address","internalType":"contract PeridottrollerInterface"}],"outputs":[{"name":"","type":"uint256","internalType":"uint256"}],"stateMutability":"nonpayable"},{"type":"function","name":"_setReserveFactor","inputs":[{"name":"newReserveFactorMantissa","type":"uint256","internalType":"uint256"}],"outputs":[{"name":"","type":"uint256","internalType":"uint256"}],"stateMutability":"nonpayable"},{"type":"function","name":"accrualBlockNumber","inputs":[],"outputs":[{"name":"","type":"uint256","internalType":"uint256"}],"stateMutability":"view"},{"type":"function","name":"accrueInterest","inputs":[],"outputs":[{"name":"","type":"uint256","internalType":"uint256"}],"stateMutability":"nonpayable"},{"type":"function","name":"admin","inputs":[],"outputs":[{"name":"","type":"address","internalType":"address payable"}],"stateMutability":"view"},{"type":"function","name":"allowance","inputs":[{"name":"owner","type":"address","internalType":"address"},{"name":"spender","type":"address","internalType":"address"}],"outputs":[{"name":"","type":"uint256","internalType":"uint256"}],"stateMutability":"view"},{"type":"function","name":"approve","inputs":[{"name":"spender","type":"address","internalType":"address"},{"name":"amount","type":"uint256","internalType":"uint256"}],"outputs":[{"name":"","type":"bool","internalType":"bool"}],"stateMutability":"nonpayable"},{"type":"function","name":"balanceOf","inputs":[{"name":"owner","type":"address","internalType":"address"}],"outputs":[{"name":"","type":"uint256","internalType":"uint256"}],"stateMutability":"view"},{"type":"function","name":"balanceOfUnderlying","inputs":[{"name":"owner","type":"address","internalType":"address"}],"outputs":[{"name":"","type":"uint256","internalType":"uint256"}],"stateMutability":"nonpayable"},{"type":"function","name":"borrow","inputs":[{"name":"borrowAmount","type":"uint256","internalType":"uint256"}],"outputs":[{"name":"","type":"uint256","internalType":"uint256"}],"stateMutability":"nonpayable"},{"type":"function","name":"borrowBalanceCurrent","inputs":[{"name":"account","type":"address","internalType":"address"}],"outputs":[{"name":"","type":"uint256","internalType":"uint256"}],"stateMutability":"nonpayable"},{"type":"function","name":"borrowBalanceStored","inputs":[{"name":"account","type":"address","internalType":"address"}],"outputs":[{"name":"","type":"uint256","internalType":"uint256"}],"stateMutability":"view"},{"type":"function","name":"borrowIndex","inputs":[],"outputs":[{"name":"","type":"uint256","internalType":"uint256"}],"stateMutability":"view"},{"type":"function","name":"borrowRatePerBlock","inputs":[],"outputs":[{"name":"","type":"uint256","internalType":"uint256"}],"stateMutability":"view"},{"type":"function","name":"decimals","inputs":[],"outputs":[{"name":"","type":"uint8","internalType":"uint8"}],"stateMutability":"view"},{"type":"function","name":"exchangeRateCurrent","inputs":[],"outputs":[{"name":"","type":"uint256","internalType":"uint256"}],"stateMutability":"nonpayable"},{"type":"function","name":"exchangeRateStored","inputs":[],"outputs":[{"name":"","type":"uint256","internalType":"uint256"}],"stateMutability":"view"},{"type":"function","name":"flashFee","inputs":[{"name":"token","type":"address","internalType":"address"},{"name":"amount","type":"uint256","internalType":"uint256"}],"outputs":[{"name":"","type":"uint256","internalType":"uint256"}],"stateMutability":"view"},{"type":"function","name":"flashLoan","inputs":[{"name":"receiver","type":"address","internalType":"contract IERC3156FlashBorrower"},{"name":"token","type":"address","internalType":"address"},{"name":"amount","type":"uint256","internalType":"uint256"},{"name":"data","type":"bytes","internalType":"bytes"}],"outputs":[{"name":"","type":"bool","internalType":"bool"}],"stateMutability":"nonpayable"},{"type":"function","name":"flashLoanFeeBps","inputs":[],"outputs":[{"name":"","type":"uint256","internalType":"uint256"}],"stateMutability":"view"},{"type":"function","name":"flashLoansPaused","inputs":[],"outputs":[{"name":"","type":"bool","internalType":"bool"}],"stateMutability":"view"},{"type":"function","name":"getAccountSnapshot","inputs":[{"name":"account","type":"address","internalType":"address"}],"outputs":[{"name":"","type":"uint256","internalType":"uint256"},{"name":"","type":"uint256","internalType":"uint256"},{"name":"","type":"uint256","internalType":"uint256"},{"name":"","type":"uint256","internalType":"uint256"}],"stateMutability":"view"},{"type":"function","name":"getCash","inputs":[],"outputs":[{"name":"","type":"uint256","internalType":"uint256"}],"stateMutability":"view"},{"type":"function","name":"implementation","inputs":[],"outputs":[{"name":"","type":"address","internalType":"address"}],"stateMutability":"view"},{"type":"function","name":"initialize","inputs":[{"name":"underlying_","type":"address","internalType":"address"},{"name":"peridottroller_","type":"address","internalType":"contract PeridottrollerInterface"},{"name":"interestRateModel_","type":"address","internalType":"contract InterestRateModel"},{"name":"initialExchangeRateMantissa_","type":"uint256","internalType":"uint256"},{"name":"name_","type":"string","internalType":"string"},{"name":"symbol_","type":"string","internalType":"string"},{"name":"decimals_","type":"uint8","internalType":"uint8"}],"outputs":[],"stateMutability":"nonpayable"},{"type":"function","name":"initialize","inputs":[{"name":"peridottroller_","type":"address","internalType":"contract PeridottrollerInterface"},{"name":"interestRateModel_","type":"address","internalType":"contract InterestRateModel"},{"name":"initialExchangeRateMantissa_","type":"uint256","internalType":"uint256"},{"name":"name_","type":"string","internalType":"string"},{"name":"symbol_","type":"string","internalType":"string"},{"name":"decimals_","type":"uint8","internalType":"uint8"}],"outputs":[],"stateMutability":"nonpayable"},{"type":"function","name":"interestRateModel","inputs":[],"outputs":[{"name":"","type":"address","internalType":"contract InterestRateModel"}],"stateMutability":"view"},{"type":"function","name":"isPToken","inputs":[],"outputs":[{"name":"","type":"bool","internalType":"bool"}],"stateMutability":"view"},{"type":"function","name":"liquidateBorrow","inputs":[{"name":"borrower","type":"address","internalType":"address"},{"name":"repayAmount","type":"uint256","internalType":"uint256"},{"name":"pTokenCollateral","type":"address","internalType":"contract PTokenInterface"}],"outputs":[{"name":"","type":"uint256","internalType":"uint256"}],"stateMutability":"nonpayable"},{"type":"function","name":"maxFlashLoan","inputs":[{"name":"token","type":"address","internalType":"address"}],"outputs":[{"name":"","type":"uint256","internalType":"uint256"}],"stateMutability":"view"},{"type":"function","name":"maxFlashLoanRatio","inputs":[],"outputs":[{"name":"","type":"uint256","internalType":"uint256"}],"stateMutability":"view"},{"type":"function","name":"mint","inputs":[{"name":"mintAmount","type":"uint256","internalType":"uint256"}],"outputs":[{"name":"","type":"uint256","internalType":"uint256"}],"stateMutability":"nonpayable"},{"type":"function","name":"name","inputs":[],"outputs":[{"name":"","type":"string","internalType":"string"}],"stateMutability":"view"},{"type":"function","name":"pendingAdmin","inputs":[],"outputs":[{"name":"","type":"address","internalType":"address payable"}],"stateMutability":"view"},{"type":"function","name":"peridottroller","inputs":[],"outputs":[{"name":"","type":"address","internalType":"contract PeridottrollerInterface"}],"stateMutability":"view"},{"type":"function","name":"protocolSeizeShareMantissa","inputs":[],"outputs":[{"name":"","type":"uint256","internalType":"uint256"}],"stateMutability":"view"},{"type":"function","name":"redeem","inputs":[{"name":"redeemTokens","type":"uint256","internalType":"uint256"}],"outputs":[{"name":"","type":"uint256","internalType":"uint256"}],"stateMutability":"nonpayable"},{"type":"function","name":"redeemUnderlying","inputs":[{"name":"redeemAmount","type":"uint256","internalType":"uint256"}],"outputs":[{"name":"","type":"uint256","internalType":"uint256"}],"stateMutability":"nonpayable"},{"type":"function","name":"repayBorrow","inputs":[{"name":"repayAmount","type":"uint256","internalType":"uint256"}],"outputs":[{"name":"","type":"uint256","internalType":"uint256"}],"stateMutability":"nonpayable"},{"type":"function","name":"repayBorrowBehalf","inputs":[{"name":"borrower","type":"address","internalType":"address"},{"name":"repayAmount","type":"uint256","internalType":"uint256"}],"outputs":[{"name":"","type":"uint256","internalType":"uint256"}],"stateMutability":"nonpayable"},{"type":"function","name":"reserveFactorMantissa","inputs":[],"outputs":[{"name":"","type":"uint256","internalType":"uint256"}],"stateMutability":"view"},{"type":"function","name":"seize","inputs":[{"name":"liquidator","type":"address","internalType":"address"},{"name":"borrower","type":"address","internalType":"address"},{"name":"seizeTokens","type":"uint256","internalType":"uint256"}],"outputs":[{"name":"","type":"uint256","internalType":"uint256"}],"stateMutability":"nonpayable"},{"type":"function","name":"supplyRatePerBlock","inputs":[],"outputs":[{"name":"","type":"uint256","internalType":"uint256"}],"stateMutability":"view"},{"type":"function","name":"sweepToken","inputs":[{"name":"token","type":"address","internalType":"contract EIP20NonStandardInterface"}],"outputs":[],"stateMutability":"nonpayable"},{"type":"function","name":"symbol","inputs":[],"outputs":[{"name":"","type":"string","internalType":"string"}],"stateMutability":"view"},{"type":"function","name":"totalBorrows","inputs":[],"outputs":[{"name":"","type":"uint256","internalType":"uint256"}],"stateMutability":"view"},{"type":"function","name":"totalBorrowsCurrent","inputs":[],"outputs":[{"name":"","type":"uint256","internalType":"uint256"}],"stateMutability":"nonpayable"},{"type":"function","name":"totalReserves","inputs":[],"outputs":[{"name":"","type":"uint256","internalType":"uint256"}],"stateMutability":"view"},{"type":"function","name":"totalSupply","inputs":[],"outputs":[{"name":"","type":"uint256","internalType":"uint256"}],"stateMutability":"view"},{"type":"function","name":"transfer","inputs":[{"name":"dst","type":"address","internalType":"address"},{"name":"amount","type":"uint256","internalType":"uint256"}],"outputs":[{"name":"","type":"bool","internalType":"bool"}],"stateMutability":"nonpayable"},{"type":"function","name":"transferFrom","inputs":[{"name":"src","type":"address","internalType":"address"},{"name":"dst","type":"address","internalType":"address"},{"name":"amount","type":"uint256","internalType":"uint256"}],"outputs":[{"name":"","type":"bool","internalType":"bool"}],"stateMutability":"nonpayable"},{"type":"function","name":"underlying","inputs":[],"outputs":[{"name":"","type":"address","internalType":"address"}],"stateMutability":"view"},{"type":"event","name":"AccrueInterest","inputs":[{"name":"cashPrior","type":"uint256","indexed":false,"internalType":"uint256"},{"name":"interestAccumulated","type":"uint256","indexed":false,"internalType":"uint256"},{"name":"borrowIndex","type":"uint256","indexed":false,"internalType":"uint256"},{"name":"totalBorrows","type":"uint256","indexed":false,"internalType":"uint256"}],"anonymous":false},{"type":"event","name":"Approval","inputs":[{"name":"owner","type":"address","indexed":true,"internalType":"address"},{"name":"spender","type":"address","indexed":true,"internalType":"address"},{"name":"amount","type":"uint256","indexed":false,"internalType":"uint256"}],"anonymous":false},{"type":"event","name":"Borrow","inputs":[{"name":"borrower","type":"address","indexed":false,"internalType":"address"},{"name":"borrowAmount","type":"uint256","indexed":false,"internalType":"uint256"},{"name":"accountBorrows","type":"uint256","indexed":false,"internalType":"uint256"},{"name":"totalBorrows","type":"uint256","indexed":false,"internalType":"uint256"}],"anonymous":false},{"type":"event","name":"FlashLoan","inputs":[{"name":"receiver","type":"address","indexed":true,"internalType":"address"},{"name":"token","type":"address","indexed":true,"internalType":"address"},{"name":"amount","type":"uint256","indexed":false,"internalType":"uint256"},{"name":"fee","type":"uint256","indexed":false,"internalType":"uint256"}],"anonymous":false},{"type":"event","name":"FlashLoansPaused","inputs":[{"name":"paused","type":"bool","indexed":false,"internalType":"bool"}],"anonymous":false},{"type":"event","name":"LiquidateBorrow","inputs":[{"name":"liquidator","type":"address","indexed":false,"internalType":"address"},{"name":"borrower","type":"address","indexed":false,"internalType":"address"},{"name":"repayAmount","type":"uint256","indexed":false,"internalType":"uint256"},{"name":"pTokenCollateral","type":"address","indexed":false,"internalType":"address"},{"name":"seizeTokens","type":"uint256","indexed":false,"internalType":"uint256"}],"anonymous":false},{"type":"event","name":"Mint","inputs":[{"name":"minter","type":"address","indexed":false,"internalType":"address"},{"name":"mintAmount","type":"uint256","indexed":false,"internalType":"uint256"},{"name":"mintTokens","type":"uint256","indexed":false,"internalType":"uint256"}],"anonymous":false},{"type":"event","name":"NewAdmin","inputs":[{"name":"oldAdmin","type":"address","indexed":false,"internalType":"address"},{"name":"newAdmin","type":"address","indexed":false,"internalType":"address"}],"anonymous":false},{"type":"event","name":"NewFlashLoanFee","inputs":[{"name":"oldFeeBps","type":"uint256","indexed":false,"internalType":"uint256"},{"name":"newFeeBps","type":"uint256","indexed":false,"internalType":"uint256"}],"anonymous":false},{"type":"event","name":"NewMarketInterestRateModel","inputs":[{"name":"oldInterestRateModel","type":"address","indexed":false,"internalType":"contract InterestRateModel"},{"name":"newInterestRateModel","type":"address","indexed":false,"internalType":"contract InterestRateModel"}],"anonymous":false},{"type":"event","name":"NewMaxFlashLoanRatio","inputs":[{"name":"oldMaxRatio","type":"uint256","indexed":false,"internalType":"uint256"},{"name":"newMaxRatio","type":"uint256","indexed":false,"internalType":"uint256"}],"anonymous":false},{"type":"event","name":"NewPendingAdmin","inputs":[{"name":"oldPendingAdmin","type":"address","indexed":false,"internalType":"address"},{"name":"newPendingAdmin","type":"address","indexed":false,"internalType":"address"}],"anonymous":false},{"type":"event","name":"NewPeridottroller","inputs":[{"name":"oldPeridottroller","type":"address","indexed":false,"internalType":"contract PeridottrollerInterface"},{"name":"newPeridottroller","type":"address","indexed":false,"internalType":"contract PeridottrollerInterface"}],"anonymous":false},{"type":"event","name":"NewReserveFactor","inputs":[{"name":"oldReserveFactorMantissa","type":"uint256","indexed":false,"internalType":"uint256"},{"name":"newReserveFactorMantissa","type":"uint256","indexed":false,"internalType":"uint256"}],"anonymous":false},{"type":"event","name":"Redeem","inputs":[{"name":"redeemer","type":"address","indexed":false,"internalType":"address"},{"name":"redeemAmount","type":"uint256","indexed":false,"internalType":"uint256"},{"name":"redeemTokens","type":"uint256","indexed":false,"internalType":"uint256"}],"anonymous":false},{"type":"event","name":"RepayBorrow","inputs":[{"name":"payer","type":"address","indexed":false,"internalType":"address"},{"name":"borrower","type":"address","indexed":false,"internalType":"address"},{"name":"repayAmount","type":"uint256","indexed":false,"internalType":"uint256"},{"name":"accountBorrows","type":"uint256","indexed":false,"internalType":"uint256"},{"name":"totalBorrows","type":"uint256","indexed":false,"internalType":"uint256"}],"anonymous":false},{"type":"event","name":"ReservesAdded","inputs":[{"name":"benefactor","type":"address","indexed":false,"internalType":"address"},{"name":"addAmount","type":"uint256","indexed":false,"internalType":"uint256"},{"name":"newTotalReserves","type":"uint256","indexed":false,"internalType":"uint256"}],"anonymous":false},{"type":"event","name":"ReservesReduced","inputs":[{"name":"admin","type":"address","indexed":false,"internalType":"address"},{"name":"reduceAmount","type":"uint256","indexed":false,"internalType":"uint256"},{"name":"newTotalReserves","type":"uint256","indexed":false,"internalType":"uint256"}],"anonymous":false},{"type":"event","name":"Transfer","inputs":[{"name":"from","type":"address","indexed":true,"internalType":"address"},{"name":"to","type":"address","indexed":true,"internalType":"address"},{"name":"amount","type":"uint256","indexed":false,"internalType":"uint256"}],"anonymous":false},{"type":"error","name":"AcceptAdminPendingAdminCheck","inputs":[]},{"type":"error","name":"AddReservesFactorFreshCheck","inputs":[{"name":"actualAddAmount","type":"uint256","internalType":"uint256"}]},{"type":"error","name":"BorrowCashNotAvailable","inputs":[]},{"type":"error","name":"BorrowFreshnessCheck","inputs":[]},{"type":"error","name":"BorrowPeridottrollerRejection","inputs":[{"name":"errorCode","type":"uint256","internalType":"uint256"}]},{"type":"error","name":"LiquidateAccrueBorrowInterestFailed","inputs":[{"name":"errorCode","type":"uint256","internalType":"uint256"}]},{"type":"error","name":"LiquidateAccrueCollateralInterestFailed","inputs":[{"name":"errorCode","type":"uint256","internalType":"uint256"}]},{"type":"error","name":"LiquidateCloseAmountIsUintMax","inputs":[]},{"type":"error","name":"LiquidateCloseAmountIsZero","inputs":[]},{"type":"error","name":"LiquidateCollateralFreshnessCheck","inputs":[]},{"type":"error","name":"LiquidateFreshnessCheck","inputs":[]},{"type":"error","name":"LiquidateLiquidatorIsBorrower","inputs":[]},{"type":"error","name":"LiquidatePeridottrollerRejection","inputs":[{"name":"errorCode","type":"uint256","internalType":"uint256"}]},{"type":"error","name":"LiquidateRepayBorrowFreshFailed","inputs":[{"name":"errorCode","type":"uint256","internalType":"uint256"}]},{"type":"error","name":"LiquidateSeizeLiquidatorIsBorrower","inputs":[]},{"type":"error","name":"LiquidateSeizePeridottrollerRejection","inputs":[{"name":"errorCode","type":"uint256","internalType":"uint256"}]},{"type":"error","name":"MintFreshnessCheck","inputs":[]},{"type":"error","name":"MintPeridottrollerRejection","inputs":[{"name":"errorCode","type":"uint256","internalType":"uint256"}]},{"type":"error","name":"RedeemFreshnessCheck","inputs":[]},{"type":"error","name":"RedeemPeridottrollerRejection","inputs":[{"name":"errorCode","type":"uint256","internalType":"uint256"}]},{"type":"error","name":"RedeemTransferOutNotPossible","inputs":[]},{"type":"error","name":"ReduceReservesAdminCheck","inputs":[]},{"type":"error","name":"ReduceReservesCashNotAvailable","inputs":[]},{"type":"error","name":"ReduceReservesCashValidation","inputs":[]},{"type":"error","name":"ReduceReservesFreshCheck","inputs":[]},{"type":"error","name":"RepayBorrowFreshnessCheck","inputs":[]},{"type":"error","name":"RepayBorrowPeridottrollerRejection","inputs":[{"name":"errorCode","type":"uint256","internalType":"uint256"}]},{"type":"error","name":"SetInterestRateModelFreshCheck","inputs":[]},{"type":"error","name":"SetInterestRateModelOwnerCheck","inputs":[]},{"type":"error","name":"SetPendingAdminOwnerCheck","inputs":[]},{"type":"error","name":"SetPeridottrollerOwnerCheck","inputs":[]},{"type":"error","name":"SetReserveFactorAdminCheck","inputs":[]},{"type":"error","name":"SetReserveFactorBoundsCheck","inputs":[]},{"type":"error","name":"SetReserveFactorFreshCheck","inputs":[]},{"type":"error","name":"TransferNotAllowed","inputs":[]},{"type":"error","name":"TransferNotEnough","inputs":[]},{"type":"error","name":"TransferPeridottrollerRejection","inputs":[{"name":"errorCode","type":"uint256","internalType":"uint256"}]},{"type":"error","name":"TransferTooMuch","inputs":[]}],"bytecode":{"object":"0x60808060405234601557614163908161001a8239f35b5f80fdfe60806040526004361015610011575f80fd5b5f3560e01c806306fdde0314610414578063095ea7b31461040f5780630e7527021461040a5780630ed14e6314610405578063153ab50514610400578063173b9904146103fb57806317bfdfbc146103f657806318160ddd146103f1578063182df0f5146103ec5780631a31d465146103e75780631be19560146103e257806323b872dd146103dd5780632608f818146103d857806326782247146103d3578063313ce567146103ce5780633af9e669146103c95780633b1d21a2146103c45780633e941010146103bf57806347bd3718146103ba57806356e67728146103b55780635a890c0e146103b05780635c60da1b146103ab5780635cffe9de146103a6578063601a0bf1146103a1578063613255ab1461039c5780636752e7021461039757806369ab3250146103925780636c540baf1461038d5780636f307dc31461038857806370a082311461038357806373acee981461037e578063852a12e3146103795780638f840ddd1461037457806395d89b411461036f57806395dd91931461036a57806399d8c1b4146103655780639b503bae14610360578063a0712d681461035b578063a252d8be14610356578063a6afed9514610351578063a9059cbb1461034c578063aa5af0fd14610347578063ae9d70b014610342578063b2a02ff11461033d578063b71d1a0c14610338578063bd6d894d14610333578063c0c7347e1461032e578063c37f68e214610329578063c3b6870014610324578063c423fe291461031f578063c53d59d91461031a578063c5ebeaec14610315578063d5c6d3bd14610310578063d9d98ce41461030b578063db006a7514610306578063dcef7fbd14610301578063dd62ed3e146102fc578063e9c714f2146102f7578063f2b3abbd146102f2578063f3fdb15a146102ed578063f5e3c462146102e8578063f851a440146102e3578063f8f9da28146102de5763fca7820b146102d9575f80fd5b612425565b6123c3565b612397565b611f93565b611f6b565b611f3b565b611e1a565b611dbb565b611d8a565b611cd6565b611c7c565b611c55565b611ad9565b611a26565b6119fe565b61192b565b6118c9565b6118ac565b611892565b6117ea565b6117a9565b611704565b6116e7565b611690565b611676565b6115f1565b611459565b611437565b6113b3565b61138c565b6112e7565b6112ca565b611093565b61104e565b611013565b610fe7565b610fca565b610fb0565b610f8f565b610f68565b610e3f565b610db0565b610d88565b610d6d565b610cb8565b610c9b565b610bd5565b610bbb565b610b52565b610b32565b610b0a565b610aab565b610a69565b61090f565b61087f565b6107d8565b6107bb565b610764565b610747565b6106c5565b6106a8565b610657565b6105cb565b6104e0565b5f91031261042357565b5f80fd5b90600182811c92168015610455575b602083101461044157565b634e487b7160e01b5f52602260045260245ffd5b91607f1691610436565b634e487b7160e01b5f52604160045260245ffd5b6020810190811067ffffffffffffffff82111761048f57604052565b61045f565b90601f8019910116810190811067ffffffffffffffff82111761048f57604052565b602060409281835280519182918282860152018484015e5f828201840152601f01601f1916010190565b34610423575f366003190112610423576040515f60015461050081610427565b80845290600181169081156105965750600114610538575b6105348361052881850382610494565b604051918291826104b6565b0390f35b60015f9081527fb10e2d527612073b26eecdfd717e6a320cf44b4afac2b0732d9fcbe2b7fa0cf6939250905b80821061057c57509091508101602001610528610518565b919260018160209254838588010152019101909291610564565b60ff191660208086019190915291151560051b840190910191506105289050610518565b6001600160a01b0381160361042357565b34610423576040366003190112610423576004356105e8816105ba565b60243590335f52600f602052816106128260405f209060018060a01b03165f5260205260405f2090565b556040519182526001600160a01b03169033907f8c5be1e5ebec7d5bd14f71427d1e84f3dd0314c0f7b2291e5b200ac8c7c3b92590602090a360405160018152602090f35b34610423576020366003190112610423576106926004355f5461067c60ff82166124f7565b60ff19165f5561068a6130b0565b503333613c13565b50600160ff195f5416175f5560206040515f8152f35b34610423575f366003190112610423576020601254604051908152f35b34610423575f3660031901126104235760035460081c6001600160a01b031633036106ec57005b60405162461bcd60e51b815260206004820152602d60248201527f6f6e6c79207468652061646d696e206d61792063616c6c205f72657369676e4960448201526c36b83632b6b2b73a30ba34b7b760991b6064820152608490fd5b34610423575f366003190112610423576020600854604051908152f35b346104235760203660031901126104235760206107a8600435610786816105ba565b5f5461079460ff82166124f7565b60ff19165f556107a26130b0565b506138ce565b600160ff195f5416175f55604051908152f35b34610423575f366003190112610423576020600d54604051908152f35b34610423575f3660031901126104235760206107f2613553565b604051908152f35b60405190610809602083610494565b565b92919267ffffffffffffffff821161048f5760405191610835601f8201601f191660200184610494565b829481845281830111610423578281602093845f960137010152565b9080601f830112156104235781602061086c9335910161080b565b90565b60c4359060ff8216820361042357565b346104235760e03660031901126104235760043561089c816105ba565b602435906108a9826105ba565b604435916108b6836105ba565b60643560843567ffffffffffffffff8111610423576108d9903690600401610851565b9060a4359467ffffffffffffffff8611610423576108fe61090d963690600401610851565b9361090761086f565b9561254a565b005b346104235760203660031901126104235760043561092c816105ba565b60035460081c6001600160a01b0316906109506001600160a01b03831633146125cf565b6013546001600160a01b0391821692916109849161097c9160089190911c165b6001600160a01b031690565b831415612633565b6040516370a0823160e01b8152306004820152602081602481865afa908115610a09575f91610a0e575b50823b156104235760405163a9059cbb60e01b81526001600160a01b0390921660048301526024820152905f908290818381604481015b03925af18015610a09576109f557005b80610a035f61090d93610494565b80610419565b61253f565b610a30915060203d602011610a36575b610a288183610494565b810190612530565b5f6109ae565b503d610a1e565b606090600319011261042357600435610a55816105ba565b90602435610a62816105ba565b9060443590565b34610423576020610a97610a7c36610a3d565b915f54610a8b60ff82166124f7565b60ff19165f55336135af565b15600160ff195f5416175f55604051908152f35b3461042357604036600319011261042357610af2600435610acb816105ba565b602435905f54610add60ff82166124f7565b60ff19165f55610aeb6130b0565b5033613c13565b505f805460ff19166001178155604051908152602090f35b34610423575f366003190112610423576004546040516001600160a01b039091168152602090f35b34610423575f36600319011261042357602060ff60035416604051908152f35b34610423576020366003190112610423576020670de0b6b3a7640000610bb1600435610b7d816105ba565b610b85613226565b9060405191610b9383610473565b82526001600160a01b03165f908152600e85526040902054906139d9565b5104604051908152f35b34610423575f3660031901126104235760206107f261378c565b34610423576020366003190112610423576004355f54610bf760ff82166124f7565b60ff19165f55610c056130b0565b506009544303610c8857610c199033613fad565b600c54818101809111610c8357600c8190556040805133815260208101939093528201527fa91e67c5ea634cd43a12c5a482724b03de01e85ca68702a53d0c2f45cb7c1dc59080606081015b0390a1610c78600160ff195f5416175f55565b6040515f8152602090f35b61299c565b6338acf79960e01b5f525f60045260245ffd5b34610423575f366003190112610423576020600b54604051908152f35b346104235760203660031901126104235760043567ffffffffffffffff8111610423573660238201121561042357610cfa90369060248160040135910161080b565b5060035460081c6001600160a01b03163303610d1257005b60405162461bcd60e51b815260206004820152602d60248201527f6f6e6c79207468652061646d696e206d61792063616c6c205f6265636f6d654960448201526c36b83632b6b2b73a30ba34b7b760991b6064820152608490fd5b34610423575f36600319011261042357602060405160018152f35b34610423575f366003190112610423576014546040516001600160a01b039091168152602090f35b3461042357608036600319011261042357600435610dcd816105ba565b60243590610dda826105ba565b6044356064359167ffffffffffffffff831161042357366023840112156104235782600401359167ffffffffffffffff831161042357366024848601011161042357610534946024610e2d95019261269a565b60405190151581529081906020820190565b34610423576020366003190112610423576004355f54610e6160ff82166124f7565b60ff19165f55610e6f6130b0565b50600354610e889060081c6001600160a01b0316610970565b3303610f59576009544303610f4a5780610ea061378c565b10610f3b57600c5490818111610f2c57610edb817f3bad0c59cf2f06e7314077049f48a93578cd16f5ef92329f1dab1420a99c177e936130a3565b610ee481600c55565b600354610efe90839060081c6001600160a01b0316613831565b6003546040805160089290921c6001600160a01b031682526020820193909352918201528060608101610c65565b6378d2980560e11b5f5260045ffd5b633345e99960e01b5f5260045ffd5b630dff50cb60e41b5f5260045ffd5b630f7e5e6d60e41b5f5260045ffd5b346104235760203660031901126104235760206107f2600435610f8a816105ba565b612b37565b34610423575f366003190112610423576020604051666379da05b600008152f35b34610423575f3660031901126104235760206040515f8152f35b34610423575f366003190112610423576020600954604051908152f35b34610423575f3660031901126104235760135460405160089190911c6001600160a01b03168152602090f35b3461042357602036600319011261042357600435611030816105ba565b60018060a01b03165f52600e602052602060405f2054604051908152f35b34610423575f366003190112610423575f5461106c60ff82166124f7565b60ff19165f5561107a6130b0565b506020600b54600160ff195f5416175f55604051908152f35b34610423576020366003190112610423576004355f546110b560ff82166124f7565b60ff19165f556110c36130b0565b506110ce6001613db4565b6110ea6110d9613553565b6110e16107fa565b908152826140e1565b600554909190611102906001600160a01b0316610970565b6020604051809263eabe7d9160e01b8252815f8161112589333060048501613e1d565b03925af1908115610a09575f916112ab575b50806112995750600954430361128a578061115061378c565b1061127b5761116961116483600d546130a3565b600d55565b335f908152600e602052604090206111849083905b546130a3565b335f908152600e602052604090205561119d8133613831565b604051828152309033905f51602061410e5f395f51905f5290602090a360408051338152602081018390529081018390527fe5b754fb1abb7f01b499791d0b820ae3b6af3424ac1c59768edb53f4ec31a92990606090a1600554611209906001600160a01b0316610970565b91823b15610423576040516351dff98960e01b815230600482015233602482015260448101929092526064820152905f908290608490829084905af18015610a0957611267575b5f805460ff19166001178155604051908152602090f35b80610a035f61127593610494565b5f611250565b6391240a1b60e01b5f5260045ffd5b6397b5cfcd60e01b5f5260045ffd5b635bd5f7ab60e11b5f5260045260245ffd5b6112c4915060203d602011610a3657610a288183610494565b5f611137565b34610423575f366003190112610423576020600c54604051908152f35b34610423575f366003190112610423576040515f60025461130781610427565b8084529060018116908115610596575060011461132e576105348361052881850382610494565b60025f9081527f405787fa12a823e0f2b7631cc41b3ba8828b3321ca811111fa75cd3aa3bb5ace939250905b80821061137257509091508101602001610528610518565b91926001816020925483858801015201910190929161135a565b346104235760203660031901126104235760206107f26004356113ae816105ba565b6138ce565b346104235760c0366003190112610423576004356113d0816105ba565b6024356113dc816105ba565b60443560643567ffffffffffffffff8111610423576113ff903690600401610851565b60843567ffffffffffffffff81116104235761141f903690600401610851565b9160a4359360ff851685036104235761090d95612ee7565b34610423575f36600319011261042357602060ff601354166040519015158152f35b34610423576020366003190112610423576004355f5461147b60ff82166124f7565b60ff19165f556114896130b0565b5060055461149f906001600160a01b0316610970565b60206040518092634ef4c3e160e01b8252815f816114c288333060048501613e1d565b03925af1908115610a09575f916115d2575b50806115c0575060095443036115b1577f4c209b5fc8ad50758f13e2e1088ba56a560dff690a1c6fef26394f4c03821c4f61152c611525611513613553565b9361151c6107fa565b94855233613fad565b92836140e1565b809261153d61116483600d54612ade565b335f908152600e602052604090206115589083905b54612ade565b335f908152600e602052604090205560408051338152602081019290925281019190915280606081010390a1604051908152339030905f51602061410e5f395f51905f5290602090a3610c78600160ff195f5416175f55565b6338d8859760e01b5f5260045ffd5b6303171a8760e61b5f5260045260245ffd5b6115eb915060203d602011610a3657610a288183610494565b5f6114d4565b346104235760203660031901126104235760043561160e816105ba565b6003546116289060081c6001600160a01b03163314612ff2565b601354611642906109709060081c6001600160a01b031681565b803b15610423576040516317066a5760e21b81526001600160a01b0383166004820152905f908290818381602481016109e5565b34610423575f3660031901126104235760206107f26130b0565b34610423576040366003190112610423576116cf6004356116b0816105ba565b602435905f546116c260ff82166124f7565b60ff19165f5533806135af565b5f805460ff1916600117905560405190158152602090f35b34610423575f366003190112610423576020600a54604051908152f35b34610423575f366003190112610423576006546001600160a01b0316602061172a61378c565b600b54600c54600854604051635c0b440b60e11b815260048101949094526024840192909252604483015260648201529182908180608481015b03915afa8015610a0957610534915f9161178a575b506040519081529081906020820190565b6117a3915060203d602011610a3657610a288183610494565b5f611779565b34610423576117d56117ba36610a3d565b915f546117c960ff82166124f7565b60ff19165f5533613a04565b600160ff195f5416175f5560206040515f8152f35b3461042357602036600319011261042357600435611807816105ba565b60035460081c6001600160a01b0316330361188357600480546001600160a01b039283166001600160a01b0319821681179092556040805193909116835260208301919091527fca4f2f25d0898edd99413412fb94012f9e54ec8142f9b093e7720646a95b16a99190819081015b0390a16040515f8152602090f35b635cb56c2b60e01b5f5260045ffd5b34610423575f3660031901126104235760206107f2613226565b34610423575f366003190112610423576020601154604051908152f35b346104235760203660031901126104235760806004356118e8816105ba565b6001600160a01b0381165f908152600e60205260409020549061190a906138ce565b611912613553565b90604051925f8452602084015260408301526060820152f35b346104235760203660031901126104235760043560035460081c6001600160a01b031633036119a957806119846127107f84e3f33c20d693ca1e98ee0ab87bf817997a96baa0819ed94c5b96f4a6663f13931115613259565b60125461199082601255565b6040805191825260208201929092529081908101611875565b60405162461bcd60e51b815260206004820152602760248201527f4f6e6c792061646d696e2063616e20736574206d617820666c617368206c6f616044820152666e20726174696f60c81b6064820152608490fd5b34610423575f366003190112610423576005546040516001600160a01b039091168152602090f35b346104235760203660031901126104235760043560035460081c6001600160a01b03163303611a8a5780611a7e60647f2cd87d6d243502fbf87bd7dd851659e05ac6a614994d7f04592e4f173f9397839311156132a5565b60115461199082601155565b60405162461bcd60e51b815260206004820152602160248201527f4f6e6c792061646d696e2063616e2073657420666c617368206c6f616e2066656044820152606560f81b6064820152608490fd5b34610423576020366003190112610423576004355f54611afb60ff82166124f7565b60ff19165f55611b096130b0565b50600554611b1f906001600160a01b0316610970565b6020604051809263368f515360e21b8252815f81611b4288333060048501613e1d565b03925af1908115610a09575f91611c36575b5080611c2457506009544303611c155780611b6d61378c565b10611c065780611ba67f13ed6866d4e1ee6da46f845c46d7e54120883d75c5ea9a2dacc1c4ca8984ab8092611ba1336138ce565b612ade565b90610c65611bb682600b54612ade565b335f908152601060205260409020848155600a54600190910155600b819055611bdf8333613831565b60408051338152602081019490945283019390935260608201929092529081906080820190565b6348c2588160e01b5f5260045ffd5b630e8d8c6160e21b5f5260045ffd5b635684deff60e11b5f5260045260245ffd5b611c4f915060203d602011610a3657610a288183610494565b5f611b54565b346104235760203660031901126104235760206107f2600435611c77816105ba565b613352565b3461042357604036600319011261042357612710611cc9600435611c9f816105ba565b60135460243591611cc09160081c6001600160a01b039081169116146128a4565b601154906129b0565b6040519190048152602090f35b34610423576020366003190112610423576004355f54611cf860ff82166124f7565b60ff19165f55611d066130b0565b5080159081159182611d78575b611d1c90613db4565b611d24613553565b91611d2d6107fa565b92835215611d6757611d4381611d5292936139d9565b670de0b6b3a764000090510490565b600554611102906001600160a01b0316610970565b50611d72905f6140e1565b5f611d52565b506001611d13565b8015150361042357565b34610423576020366003190112610423576020611db1600435611dac81611d80565b613469565b6040519015158152f35b34610423576040366003190112610423576020611e11600435611ddd816105ba565b60243590611dea826105ba565b60018060a01b03165f52600f835260405f209060018060a01b03165f5260205260405f2090565b54604051908152f35b34610423575f366003190112610423576004546001600160a01b031680338114801590611f33575b611f24576003547fca4f2f25d0898edd99413412fb94012f9e54ec8142f9b093e7720646a95b16a9927ff9ffabca9c8276e99321725bcb43fb076a6c66a54b7f21c4e8146d8519b417dc91611ecb90611ea69060081c6001600160a01b0316610970565b91600354610100600160a81b03191660089190911b610100600160a81b031617600355565b600480546001600160a01b0319169055600354604080516001600160a01b03938416815260089290921c9092166020820152a1600454604080516001600160a01b03938416815292909116602083015281908101611875565b631ba24f2960e21b5f5260045ffd5b503315611e42565b346104235760203660031901126104235760206107f2600435611f5d816105ba565b611f656130b0565b5061390e565b34610423575f366003190112610423576006546040516001600160a01b039091168152602090f35b3461042357606036600319011261042357600435611fb0816105ba565b60243590604435611fc0816105ba565b5f54611fce60ff82166124f7565b60ff19165f55611fdc6130b0565b5060405163a6afed9560e01b81526001600160a01b039190911692906020816004815f885af1908115610a09575f91612378575b5080612366575060055461202c906001600160a01b0316610970565b604051632fe3f38f60e11b81523060048201526001600160a01b038581166024830152336044830152841660648201526084810183905290602090829060a49082905f905af1908115610a09575f91612347575b50806123355750600954430361232657604051636c540baf60e01b8152602081600481875afa908115610a09575f91612307575b5043036122f8576001600160a01b03821633146122e95780156122da575f1981146122cb576120e4908233613c13565b6005549091906120fc906001600160a01b0316610970565b6040805163c488847b60e01b815294918590818061211f88873060048501613e1d565b03915afa938415610a09575f905f95612297575b5061213e9015613e6a565b6040516370a0823160e01b81526001600160a01b0383166004820152602081602481855afa908115610a095761217f9186915f91612278575b501015613ed2565b3081036121ef5783610c65916121b87f298637f684da70674f26509b10f07ec2fbc77a335ab1e7d6215a4b2484d8bb5296853330613a04565b604080513381526001600160a01b0395861660208201529081019590955290921660608401526080830191909152819060a0820190565b60405163b2a02ff160e01b8152936020858061221084873360048501613e1d565b03815f865af1918215610a0957612254610c65937f298637f684da70674f26509b10f07ec2fbc77a335ab1e7d6215a4b2484d8bb52975f91612259575b5015613f1e565b6121b8565b612272915060203d602011610a3657610a288183610494565b5f61224d565b612291915060203d602011610a3657610a288183610494565b5f612177565b61213e95506122be915060403d6040116122c4575b6122b68183610494565b810190613e54565b94612133565b503d6122ac565b635982c5bb60e11b5f5260045ffd5b63d29da7ef60e01b5f5260045ffd5b631bd1a62160e21b5f5260045ffd5b631046f38d60e31b5f5260045ffd5b612320915060203d602011610a3657610a288183610494565b5f6120b4565b6380965b1b60e01b5f5260045ffd5b632d33e4f360e21b5f5260045260245ffd5b612360915060203d602011610a3657610a288183610494565b5f612080565b633eea49b760e11b5f5260045260245ffd5b612391915060203d602011610a3657610a288183610494565b5f612010565b34610423575f3660031901126104235760035460405160089190911c6001600160a01b03168152602090f35b34610423575f36600319011261042357600654611764906020906001600160a01b03166123ee61378c565b600b54600c546040516315f2405360e01b815260048101939093526024830191909152604482015292839190829081906064820190565b34610423576020366003190112610423576004355f5461244760ff82166124f7565b60ff19165f556124556130b0565b5060035460081c6001600160a01b031633036124e85760095443036124d957670de0b6b3a764000081116124ca577faaa68312e2ea9d50e16af5068410ab56e1a1fd06037b1a35664812c30f821460906008546124b182600855565b6040805191825260208201929092529081908101610c65565b63717220f360e11b5f5260045ffd5b637dfca6b760e11b5f5260045ffd5b631205b57b60e11b5f5260045ffd5b156124fe57565b60405162461bcd60e51b815260206004820152600a6024820152691c994b595b9d195c995960b21b6044820152606490fd5b90816020910312610423575190565b6040513d5f823e3d90fd5b9294612582946020966125609460049994612ee7565b601354610100600160a81b03191660089190911b610100600160a81b03161790565b60138190556040516318160ddd60e01b8152928391829060081c6001600160a01b03165afa8015610a09576125b45750565b6125cc9060203d602011610a3657610a288183610494565b50565b156125d657565b60405162461bcd60e51b815260206004820152602f60248201527f5045726332303a3a7377656570546f6b656e3a206f6e6c792061646d696e206360448201526e616e20737765657020746f6b656e7360881b6064820152608490fd5b1561263a57565b60405162461bcd60e51b815260206004820152603260248201527f5045726332303a3a7377656570546f6b656e3a2063616e206e6f74207377656560448201527138103ab73232b9363cb4b733903a37b5b2b760711b6064820152608490fd5b915f546126a960ff82166124f7565b60ff19165f556013546126c79060081c6001600160a01b0316610970565b6001600160a01b03831695906126de9087146128a4565b6126f96126f46126f060135460ff1690565b1590565b6128f0565b60405163613255ab60e01b81526001600160a01b0384166004820152602081602481305afa8015610a09576127a89461274085926020945f91612887575b50831115612946565b61275761274f601154846129b0565b612710900490565b9586946127626130b0565b5061276b61378c565b98612778858b10156129e1565b6001600160a01b03169961278c858c613831565b6040516323e30c8b60e01b815296879586953360048801612a37565b03815f895af1938415610a095761280d7f439148f0bbc682ca079e46d6e2c2f0c1e3b820f1a291b069d8882abf8cf18dd97f0d7d75e01ab95780d3cd1c8ec0dd6c2ce19e3a20427eec8bf53283b6fb8e95f096612826945f91612868575b5014612a87565b61281f8461281961378c565b92612ade565b1115612aeb565b8161284f575b604080519182526020820192909252a3600190610809600160ff195f5416175f55565b61286361285e83600c54612ade565b600c55565b61282c565b612881915060203d602011610a3657610a288183610494565b5f612806565b61289e9150853d8711610a3657610a288183610494565b5f612737565b156128ab57565b60405162461bcd60e51b815260206004820152601e60248201527f466c6173684c6f616e3a20746f6b656e206e6f7420737570706f7274656400006044820152606490fd5b156128f757565b60405162461bcd60e51b815260206004820152602160248201527f466c6173684c6f616e3a20666c617368206c6f616e73206172652070617573656044820152601960fa1b6064820152608490fd5b1561294d57565b60405162461bcd60e51b815260206004820152602160248201527f466c6173684c6f616e3a20616d6f756e742065786365656473206d6178696d756044820152606d60f81b6064820152608490fd5b634e487b7160e01b5f52601160045260245ffd5b81810292918115918404141715610c8357565b81156129cd570490565b634e487b7160e01b5f52601260045260245ffd5b156129e857565b60405162461bcd60e51b815260206004820152602160248201527f466c6173684c6f616e3a20696e73756666696369656e74206c697175696469746044820152607960f81b6064820152608490fd5b6001600160a01b039182168152911660208201526040810191909152606081019190915260a060808201819052810183905260c09290918190848401375f828201840152601f01601f1916010190565b15612a8e57565b60405162461bcd60e51b815260206004820152602260248201527f466c6173684c6f616e3a20696e76616c69642063616c6c6261636b2072657475604482015261393760f11b6064820152608490fd5b91908201809211610c8357565b15612af257565b60405162461bcd60e51b815260206004820152601a60248201527f466c6173684c6f616e3a206c6f616e206e6f74207265706169640000000000006044820152606490fd5b601354906001600160a01b03600883901c8116911603612b775760ff16612b7357612710612b6f612b6661378c565b601254906129b0565b0490565b5f90565b505f90565b15612b8357565b60405162461bcd60e51b815260206004820152602360248201527f6d61726b6574206d6179206f6e6c7920626520696e697469616c697a6564206f6044820152626e636560e81b6064820152608490fd5b15612bdb57565b60405162461bcd60e51b815260206004820152603060248201527f696e697469616c2065786368616e67652072617465206d75737420626520677260448201526f32b0ba32b9103a3430b7103d32b9379760811b6064820152608490fd5b15612c4057565b60405162461bcd60e51b815260206004820152601d60248201527f73657474696e672070657269646f7474726f6c6c6572206661696c65640000006044820152606490fd5b15612c8c57565b60405162461bcd60e51b815260206004820152602260248201527f73657474696e6720696e7465726573742072617465206d6f64656c206661696c604482015261195960f21b6064820152608490fd5b601f8211612ce957505050565b5f5260205f20906020601f840160051c83019310612d21575b601f0160051c01905b818110612d16575050565b5f8155600101612d0b565b9091508190612d02565b90815167ffffffffffffffff811161048f57612d5381612d4c600154610427565b6001612cdc565b602092601f8211600114612d9357612d83929382915f92612d88575b50508160011b915f199060031b1c19161790565b600155565b015190505f80612d6f565b60015f52601f198216937fb10e2d527612073b26eecdfd717e6a320cf44b4afac2b0732d9fcbe2b7fa0cf6915f5b868110612df75750836001959610612ddf575b505050811b01600155565b01515f1960f88460031b161c191690555f8080612dd4565b91926020600181928685015181550194019201612dc1565b90815167ffffffffffffffff811161048f57612e3781612e30600254610427565b6002612cdc565b602092601f8211600114612e6b57612e66929382915f92612d885750508160011b915f199060031b1c19161790565b600255565b60025f52601f198216937f405787fa12a823e0f2b7631cc41b3ba8828b3321ca811111fa75cd3aa3bb5ace915f5b868110612ecf5750836001959610612eb7575b505050811b01600255565b01515f1960f88460031b161c191690555f8080612eac565b91926020600181928685015181550194019201612e99565b60035490959492939060081c6001600160a01b03163303612fa157612f6d612f67612f7293612f48612f42612f879a612f35612f779a6009541580612f97575b612f3090612b7c565b600755565b611c776007541515612bd4565b15612c39565b612f5143600955565b612f62670de0b6b3a7640000600a55565b61390e565b15612c85565b612d2b565b612e0f565b60ff1660ff196003541617600355565b610809600160ff195f5416175f55565b50600a5415612f27565b60405162461bcd60e51b8152602060048201526024808201527f6f6e6c792061646d696e206d617920696e697469616c697a6520746865206d616044820152631c9ad95d60e21b6064820152608490fd5b15612ff957565b60405162461bcd60e51b815260206004820152603060248201527f6f6e6c79207468652061646d696e206d6179207365742074686520706572696460448201526f6f742d6c696b652064656c656761746560801b6064820152608490fd5b1561305e57565b60405162461bcd60e51b815260206004820152601c60248201527f626f72726f772072617465206973206162737572646c792068696768000000006044820152606490fd5b91908203918211610c8357565b600954438114612b77576130c261378c565b600b5490600c5492600a54926130e261097060065460018060a01b031690565b6040516315f2405360e01b81526004810185905260248101839052604481018790529590602090879060649082905afa958615610a09576131bb86611ba1611d436131a9996131b561318c7f4dec04e750ca11537cabcd8a9eab06494de08da3735bc8871cd41250e190bc049d6131fa9b6131d7995f92613201575b5061317b9061317565048c27395000841115613057565b436130a3565b906131846107fa565b9081526139d9565b97611ba1611d436131a0611d438d8d6139d9565b9e8f9c8d612ade565b9b6008546131846107fa565b966139d9565b916131c543600955565b6131ce83600a55565b61285e84600b55565b604051948594859094939260609260808301968352602083015260408201520152565b0390a15f90565b61317b91925061321f9060203d602011610a3657610a288183610494565b919061315e565b5f5461323460ff82166124f7565b60ff19165f556132426130b0565b5061324b613553565b90600160ff195f5416175f55565b1561326057565b60405162461bcd60e51b815260206004820152601960248201527f466c617368206c6f616e20726174696f20746f6f2068696768000000000000006044820152606490fd5b156132ac57565b60405162461bcd60e51b815260206004820152601760248201527f466c617368206c6f616e2066656520746f6f20686967680000000000000000006044820152606490fd5b90816020910312610423575161086c81611d80565b1561330d57565b60405162461bcd60e51b815260206004820152601c60248201527f6d61726b6572206d6574686f642072657475726e65642066616c7365000000006044820152606490fd5b60035461336a9060081c6001600160a01b0316610970565b3303613445576005546001600160a01b031660405163fa707af960e01b815291906020836004816001600160a01b0386165afa928315610a09577ff911792cf103798503b6dab0992e023d45661865683c550a919b8c9ad07dbf7f936133d7915f91613416575b50613306565b600580546001600160a01b0319166001600160a01b0384161790555b604080516001600160a01b039283168152929091166020830152819081016131fa565b613438915060203d60201161343e575b6134308183610494565b8101906132f1565b5f6133d1565b503d613426565b634c2fa00360e01b5f5260045ffd5b90816020910312610423575161086c816105ba565b6003546134819060081c6001600160a01b0316610970565b331480156134d2575b15612b77576134ca81610e2d7f7958d1d41a26870ec9486cb4dc33830b446f038d00661e064b50719bdde7f42c9360ff8019601354169115151617601355565b0390a1600190565b50600460206134f161097061097061097060055460018060a01b031690565b604051631251eb1160e11b815292839182905afa908115610a09575f91613524575b506001600160a01b0316331461348a565b613546915060203d60201161354c575b61353e8183610494565b810190613454565b5f613513565b503d613534565b600d5480613562575060075490565b61356a61378c565b90600b548201809211610c8357600c549182810392818411610c8357670de0b6b3a76400008402938404670de0b6b3a76400001491141715610c835761086c916129c3565b6005546135c4906001600160a01b0316610970565b6040516317b9b84b60e31b81523060048201526001600160a01b038481166024830152851660448201526064810186905290602090829060849082905f905af1908115610a09575f9161376d575b508061375b57506001600160a01b03838116949083169384861461374c575f51602061410e5f395f51905f52936136e2936001600160a01b0381168703613724575f195b61366085826130a3565b936136c86136828761117e8760018060a01b03165f52600e60205260405f2090565b916136a1886115528360018060a01b03165f52600e60205260405f2090565b6001600160a01b038781165f908152600e6020526040808220969096559216825292902090565b55196136e9575b5050604051918252509081906020820190565b0390a35f90565b61370661371b9260018060a01b03165f52600f60205260405f2090565b9060018060a01b03165f5260205260405f2090565b555f80806136cf565b6001600160a01b0382165f908152600f60205260409020613746908290613706565b54613656565b638cd22d1960e01b5f5260045ffd5b630c93cb5b60e01b5f5260045260245ffd5b613786915060203d602011610a3657610a288183610494565b5f613612565b6013546040516370a0823160e01b8152306004820152906020908290602490829060081c6001600160a01b03165afa908115610a09575f916137cc575090565b61086c915060203d602011610a3657610a288183610494565b156137ec57565b60405162461bcd60e51b815260206004820152601960248201527f544f4b454e5f5452414e534645525f4f55545f4641494c4544000000000000006044820152606490fd5b6013546138499060081c6001600160a01b0316610970565b91823b156104235760405163a9059cbb60e01b81526001600160a01b039290921660048301526024820152905f908290604490829084905af18015610a09576138ba575b503d80156138af576020146138a0575f80fd5b60205f803e6108095f516137e5565b506108095f196137e5565b80610a035f6138c893610494565b5f61388d565b6001600160a01b03165f90815260106020526040902080549081156139085760016138ff61086c93600a54906129b0565b910154906129c3565b50505f90565b6003546139269060081c6001600160a01b0316610970565b33036139ca5760095443036139bb576006546001600160a01b03166040516310c8fc9560e11b815291906020836004816001600160a01b0386165afa928315610a09577fedffc32e068c7c95dfd4bdfd5c4d939a084d6b11c4199eac8436ed234d72f9269361399b915f916134165750613306565b600680546001600160a01b0319166001600160a01b0384161790556133f3565b630be2a5cb60e11b5f5260045ffd5b63407fded560e01b5f5260045ffd5b906139f2915f6040516139eb81610473565b52516129b0565b604051906139ff82610473565b815290565b92602083829395865f613a2161097060055460018060a01b031690565b60405163d02f735160e01b81523060048201526001600160a01b03948516602482015292841660448401529390921660648201526084810194909452839160a49183915af1908115610a09575f91613bf4575b5080613be257506001600160a01b0383811693908316808514613bd3577fa91e67c5ea634cd43a12c5a482724b03de01e85ca68702a53d0c2f45cb7c1dc594815f51602061410e5f395f51905f52613b9a613b2197613ae4613ad46107fa565b666379da05b60000815289613e3f565b96613aef888a6130a3565b91613b67613b4c613b0d611d438c613b05613553565b6131846107fa565b9b613b1a8d600c54612ade565b9d8e600c55565b613b306111648d600d546130a3565b6001600160a01b0384165f908152600e6020526040902061117e565b6001600160a01b039092165f908152600e6020526040902090565b55613b89613b4c836115528460018060a01b03165f52600e60205260405f2090565b556040519081529081906020820190565b0390a360405191825230915f51602061410e5f395f51905f5290602090a3604080513081526020810192909252810191909152606090a1565b633a94626760e11b5f5260045ffd5b6305a647b960e31b5f5260045260245ffd5b613c0d915060203d602011610a3657610a288183610494565b5f613a74565b600554909190613c2b906001600160a01b0316610970565b604051631200453160e11b81523060048201526001600160a01b038481166024830152831660448201526064810185905290602090829060849082905f905af1908115610a09575f91613d95575b5080613d8357506009544303613d74577f1a2a22cb034d26d1854bdc6666a5b91fe25efbbb5dcad3b0355478d6f5c362a191613cb4826138ce565b935f198103613d655750613d5f613cd6613ccf865b84613fad565b80966130a3565b613ce286600b546130a3565b9080613cfe8660018060a01b03165f52601060205260405f2090565b55600a546001600160a01b0386165f90815260106020526040902060010155613d2682600b55565b604080516001600160a01b03958616815295909416602086015292840186905260608401929092526080830191909152819060a0820190565b0390a190565b613cd6613ccf613d5f92613cc9565b63c9021e2f60e01b5f5260045ffd5b6335a6a70b60e21b5f5260045260245ffd5b613dae915060203d602011610a3657610a288183610494565b5f613c79565b15613dbb57565b60405162461bcd60e51b815260206004820152603460248201527f6f6e65206f662072656465656d546f6b656e73496e206f722072656465656d416044820152736d6f756e74496e206d757374206265207a65726f60601b6064820152608490fd5b6001600160a01b03918216815291166020820152604081019190915260600190565b612b6f90670de0b6b3a76400009251906129b0565b9190826040910312610423576020825192015190565b15613e7157565b60405162461bcd60e51b815260206004820152603360248201527f4c49515549444154455f434f4d5054524f4c4c45525f43414c43554c4154455f604482015272105353d5539517d4d152569157d19052531151606a1b6064820152608490fd5b15613ed957565b60405162461bcd60e51b815260206004820152601860248201527f4c49515549444154455f5345495a455f544f4f5f4d55434800000000000000006044820152606490fd5b15613f2557565b60405162461bcd60e51b81526020600482015260146024820152731d1bdad95b881cd95a5e9d5c994819985a5b195960621b6044820152606490fd5b15613f6857565b60405162461bcd60e51b815260206004820152601860248201527f544f4b454e5f5452414e534645525f494e5f4641494c454400000000000000006044820152606490fd5b6013546040516370a0823160e01b815230600482015260089190911c6001600160a01b0316929091602083602481875afa928315610a09575f936140c0575b50833b15610423576040516323b872dd60e01b8152915f91839182916140189190309060048501613e1d565b038183875af18015610a09576140ac575b503d80156140a15760201461403c575f80fd5b60205f803e61404b5f51613f61565b6040516370a0823160e01b815230600482015291602090839060249082905afa8015610a095761086c925f91614082575b506130a3565b61409b915060203d602011610a3657610a288183610494565b5f61407c565b5061404b5f19613f61565b80610a035f6140ba93610494565b5f614029565b6140da91935060203d602011610a3657610a288183610494565b915f613fec565b670de0b6b3a7640000810290808204670de0b6b3a76400001490151715610c835761086c9151906129c356feddf252ad1be2c89b69c2b068fc378daa952ba7f163c4a11628f55a4df523b3efa2646970667358221220b3f8e066b8a5a67a2b0b97c9969ba1cf9d2e677f3beae7ca1395af7f76f1606964736f6c634300081b0033","linkReferences":{}},"methodIdentifiers":{"NO_ERROR()":"69ab3250","_acceptAdmin()":"e9c714f2","_addReserves(uint256)":"3e941010","_becomeImplementation(bytes)":"56e67728","_delegatePeridotLikeTo(address)":"a252d8be","_reduceReserves(uint256)":"601a0bf1","_resignImplementation()":"153ab505","_setFlashLoanFee(uint256)":"c53d59d9","_setFlashLoansPaused(bool)":"dcef7fbd","_setInterestRateModel(address)":"f2b3abbd","_setMaxFlashLoanRatio(uint256)":"c3b68700","_setPendingAdmin(address)":"b71d1a0c","_setPeridottroller(address)":"d5c6d3bd","_setReserveFactor(uint256)":"fca7820b","accrualBlockNumber()":"6c540baf","accrueInterest()":"a6afed95","admin()":"f851a440","allowance(address,address)":"dd62ed3e","approve(address,uint256)":"095ea7b3","balanceOf(address)":"70a08231","balanceOfUnderlying(address)":"3af9e669","borrow(uint256)":"c5ebeaec","borrowBalanceCurrent(address)":"17bfdfbc","borrowBalanceStored(address)":"95dd9193","borrowIndex()":"aa5af0fd","borrowRatePerBlock()":"f8f9da28","decimals()":"313ce567","exchangeRateCurrent()":"bd6d894d","exchangeRateStored()":"182df0f5","flashFee(address,uint256)":"d9d98ce4","flashLoan(address,address,uint256,bytes)":"5cffe9de","flashLoanFeeBps()":"c0c7347e","flashLoansPaused()":"9b503bae","getAccountSnapshot(address)":"c37f68e2","getCash()":"3b1d21a2","implementation()":"5c60da1b","initialize(address,address,address,uint256,string,string,uint8)":"1a31d465","initialize(address,address,uint256,string,string,uint8)":"99d8c1b4","interestRateModel()":"f3fdb15a","isPToken()":"5a890c0e","liquidateBorrow(address,uint256,address)":"f5e3c462","maxFlashLoan(address)":"613255ab","maxFlashLoanRatio()":"0ed14e63","mint(uint256)":"a0712d68","name()":"06fdde03","pendingAdmin()":"26782247","peridottroller()":"c423fe29","protocolSeizeShareMantissa()":"6752e702","redeem(uint256)":"db006a75","redeemUnderlying(uint256)":"852a12e3","repayBorrow(uint256)":"0e752702","repayBorrowBehalf(address,uint256)":"2608f818","reserveFactorMantissa()":"173b9904","seize(address,address,uint256)":"b2a02ff1","supplyRatePerBlock()":"ae9d70b0","sweepToken(address)":"1be19560","symbol()":"95d89b41","totalBorrows()":"47bd3718","totalBorrowsCurrent()":"73acee98","totalReserves()":"8f840ddd","totalSupply()":"18160ddd","transfer(address,uint256)":"a9059cbb","transferFrom(address,address,uint256)":"23b872dd","underlying()":"6f307dc3"},"id":19}