{"abi":[{"type":"constructor","inputs":[{"name":"cEther_","type":"address","internalType":"contract PEther"}],"stateMutability":"nonpayable"},{"type":"function","name":"pEther","inputs":[],"outputs":[{"name":"","type":"address","internalType":"contract PEther"}],"stateMutability":"view"},{"type":"function","name":"repayBehalf","inputs":[{"name":"borrower","type":"address","internalType":"address"}],"outputs":[],"stateMutability":"payable"},{"type":"function","name":"repayBehalfExplicit","inputs":[{"name":"borrower","type":"address","internalType":"address"},{"name":"cEther_","type":"address","internalType":"contract PEther"}],"outputs":[],"stateMutability":"payable"}],"bytecode":{"object":"0x608034606f57601f61033f38819003918201601f19168301916001600160401b03831184841017607357808492602094604052833981010312606f57516001600160a01b03811690819003606f575f80546001600160a01b0319169190911790556040516102b790816100888239f35b5f80fd5b634e487b7160e01b5f52604160045260245ffdfe60806040526004361015610011575f80fd5b5f3560e01c8063367b7f051461008f5780637af42ed81461006857639f35c3d51461003a575f80fd5b6020366003190112610064576100626100516100bf565b5f546001600160a01b03169061010b565b005b5f80fd5b34610064575f366003190112610064575f546040516001600160a01b039091168152602090f35b6040366003190112610064576100a36100bf565b6024356001600160a01b0381168103610064576100629161010b565b600435906001600160a01b038216820361006457565b90601f8019910116810190811067ffffffffffffffff8211176100f757604052565b634e487b7160e01b5f52604160045260245ffd5b6040516305eff7ef60e21b81526001600160a01b03918216600482018190525f9391929091169060208360248187865af1928315610242575f9361024d575b508234115f1461020057813b156101fc57829160248592604051948593849263e597461960e01b845260048401525af180156101f1579083916101d8575b5050803403903482116101c457828080938193829034146101bb575b3390f1156101af5750565b604051903d90823e3d90fd5b506108fc6101a4565b634e487b7160e01b83526011600452602483fd5b816101e2916100d5565b6101ed57815f610188565b5080fd5b6040513d85823e3d90fd5b8380fd5b91508092503b15610064575f9060246040518094819363e597461960e01b8352600483015234905af18015610242576102365750565b5f610240916100d5565b565b6040513d5f823e3d90fd5b9092506020813d602011610279575b81610269602093836100d5565b810103126100645751915f61014a565b3d915061025c56fea2646970667358221220c92d4a300c81a5fa10c64207440f1535c0614768ad294731867b6b6f2d7ad48964736f6c634300081c0033","linkReferences":{}},"methodIdentifiers":{"pEther()":"7af42ed8","repayBehalf(address)":"9f35c3d5","repayBehalfExplicit(address,address)":"367b7f05"},"id":21}