{"abi":[{"type":"constructor","inputs":[{"name":"_COMP","type":"address","internalType":"address"}],"stateMutability":"nonpayable"},{"type":"function","name":"PERIDOT","inputs":[],"outputs":[{"name":"","type":"address","internalType":"address"}],"stateMutability":"view"},{"type":"function","name":"_become","inputs":[{"name":"unitroller","type":"address","internalType":"contract Unitroller"}],"outputs":[],"stateMutability":"nonpayable"},{"type":"function","name":"_borrowGuardianPaused","inputs":[],"outputs":[{"name":"","type":"bool","internalType":"bool"}],"stateMutability":"view"},{"type":"function","name":"_grantPeridot","inputs":[{"name":"recipient","type":"address","internalType":"address"},{"name":"amount","type":"uint256","internalType":"uint256"}],"outputs":[],"stateMutability":"nonpayable"},{"type":"function","name":"_mintGuardianPaused","inputs":[],"outputs":[{"name":"","type":"bool","internalType":"bool"}],"stateMutability":"view"},{"type":"function","name":"_setBorrowCapGuardian","inputs":[{"name":"newBorrowCapGuardian","type":"address","internalType":"address"}],"outputs":[],"stateMutability":"nonpayable"},{"type":"function","name":"_setBorrowPaused","inputs":[{"name":"pToken","type":"address","internalType":"contract PToken"},{"name":"state","type":"bool","internalType":"bool"}],"outputs":[{"name":"","type":"bool","internalType":"bool"}],"stateMutability":"nonpayable"},{"type":"function","name":"_setCloseFactor","inputs":[{"name":"newCloseFactorMantissa","type":"uint256","internalType":"uint256"}],"outputs":[{"name":"","type":"uint256","internalType":"uint256"}],"stateMutability":"nonpayable"},{"type":"function","name":"_setCollateralFactor","inputs":[{"name":"pToken","type":"address","internalType":"contract PToken"},{"name":"newCollateralFactorMantissa","type":"uint256","internalType":"uint256"}],"outputs":[{"name":"","type":"uint256","internalType":"uint256"}],"stateMutability":"nonpayable"},{"type":"function","name":"_setContributorPeridotSpeed","inputs":[{"name":"contributor","type":"address","internalType":"address"},{"name":"peridotSpeed","type":"uint256","internalType":"uint256"}],"outputs":[],"stateMutability":"nonpayable"},{"type":"function","name":"_setLiquidationIncentive","inputs":[{"name":"newLiquidationIncentiveMantissa","type":"uint256","internalType":"uint256"}],"outputs":[{"name":"","type":"uint256","internalType":"uint256"}],"stateMutability":"nonpayable"},{"type":"function","name":"_setMarketBorrowCaps","inputs":[{"name":"pTokens","type":"address[]","internalType":"contract PToken[]"},{"name":"newBorrowCaps","type":"uint256[]","internalType":"uint256[]"}],"outputs":[],"stateMutability":"nonpayable"},{"type":"function","name":"_setMintPaused","inputs":[{"name":"pToken","type":"address","internalType":"contract PToken"},{"name":"state","type":"bool","internalType":"bool"}],"outputs":[{"name":"","type":"bool","internalType":"bool"}],"stateMutability":"nonpayable"},{"type":"function","name":"_setPauseGuardian","inputs":[{"name":"newPauseGuardian","type":"address","internalType":"address"}],"outputs":[{"name":"","type":"uint256","internalType":"uint256"}],"stateMutability":"nonpayable"},{"type":"function","name":"_setPeridotAddress","inputs":[{"name":"newPeridotAddress","type":"address","internalType":"address"}],"outputs":[{"name":"","type":"uint256","internalType":"uint256"}],"stateMutability":"nonpayable"},{"type":"function","name":"_setPeridotSpeed","inputs":[{"name":"pToken","type":"address","internalType":"contract PToken"},{"name":"peridotSpeed","type":"uint256","internalType":"uint256"}],"outputs":[],"stateMutability":"nonpayable"},{"type":"function","name":"_setPriceOracle","inputs":[{"name":"newOracle","type":"address","internalType":"contract PriceOracle"}],"outputs":[{"name":"","type":"uint256","internalType":"uint256"}],"stateMutability":"nonpayable"},{"type":"function","name":"_setSeizePaused","inputs":[{"name":"state","type":"bool","internalType":"bool"}],"outputs":[{"name":"","type":"bool","internalType":"bool"}],"stateMutability":"nonpayable"},{"type":"function","name":"_setTransferPaused","inputs":[{"name":"state","type":"bool","internalType":"bool"}],"outputs":[{"name":"","type":"bool","internalType":"bool"}],"stateMutability":"nonpayable"},{"type":"function","name":"_supportMarket","inputs":[{"name":"pToken","type":"address","internalType":"contract PToken"}],"outputs":[{"name":"","type":"uint256","internalType":"uint256"}],"stateMutability":"nonpayable"},{"type":"function","name":"accountAssets","inputs":[{"name":"","type":"address","internalType":"address"},{"name":"","type":"uint256","internalType":"uint256"}],"outputs":[{"name":"","type":"address","internalType":"contract PToken"}],"stateMutability":"view"},{"type":"function","name":"admin","inputs":[],"outputs":[{"name":"","type":"address","internalType":"address"}],"stateMutability":"view"},{"type":"function","name":"allMarkets","inputs":[{"name":"","type":"uint256","internalType":"uint256"}],"outputs":[{"name":"","type":"address","internalType":"contract PToken"}],"stateMutability":"view"},{"type":"function","name":"borrowAllowed","inputs":[{"name":"pToken","type":"address","internalType":"address"},{"name":"borrower","type":"address","internalType":"address"},{"name":"borrowAmount","type":"uint256","internalType":"uint256"}],"outputs":[{"name":"","type":"uint256","internalType":"uint256"}],"stateMutability":"nonpayable"},{"type":"function","name":"borrowCapGuardian","inputs":[],"outputs":[{"name":"","type":"address","internalType":"address"}],"stateMutability":"view"},{"type":"function","name":"borrowCaps","inputs":[{"name":"","type":"address","internalType":"address"}],"outputs":[{"name":"","type":"uint256","internalType":"uint256"}],"stateMutability":"view"},{"type":"function","name":"borrowGuardianPaused","inputs":[{"name":"","type":"address","internalType":"address"}],"outputs":[{"name":"","type":"bool","internalType":"bool"}],"stateMutability":"view"},{"type":"function","name":"borrowVerify","inputs":[{"name":"pToken","type":"address","internalType":"address"},{"name":"borrower","type":"address","internalType":"address"},{"name":"borrowAmount","type":"uint256","internalType":"uint256"}],"outputs":[],"stateMutability":"nonpayable"},{"type":"function","name":"checkMembership","inputs":[{"name":"account","type":"address","internalType":"address"},{"name":"pToken","type":"address","internalType":"contract PToken"}],"outputs":[{"name":"","type":"bool","internalType":"bool"}],"stateMutability":"view"},{"type":"function","name":"claimPeridot","inputs":[{"name":"holders","type":"address[]","internalType":"address[]"},{"name":"pTokens","type":"address[]","internalType":"contract PToken[]"},{"name":"borrowers","type":"bool","internalType":"bool"},{"name":"suppliers","type":"bool","internalType":"bool"}],"outputs":[],"stateMutability":"nonpayable"},{"type":"function","name":"claimPeridot","inputs":[{"name":"holder","type":"address","internalType":"address"}],"outputs":[],"stateMutability":"nonpayable"},{"type":"function","name":"claimPeridot","inputs":[{"name":"holder","type":"address","internalType":"address"},{"name":"pTokens","type":"address[]","internalType":"contract PToken[]"}],"outputs":[],"stateMutability":"nonpayable"},{"type":"function","name":"closeFactorMantissa","inputs":[],"outputs":[{"name":"","type":"uint256","internalType":"uint256"}],"stateMutability":"view"},{"type":"function","name":"enterMarkets","inputs":[{"name":"pTokens","type":"address[]","internalType":"address[]"}],"outputs":[{"name":"","type":"uint256[]","internalType":"uint256[]"}],"stateMutability":"nonpayable"},{"type":"function","name":"exitMarket","inputs":[{"name":"pTokenAddress","type":"address","internalType":"address"}],"outputs":[{"name":"","type":"uint256","internalType":"uint256"}],"stateMutability":"nonpayable"},{"type":"function","name":"getAccountLiquidity","inputs":[{"name":"account","type":"address","internalType":"address"}],"outputs":[{"name":"","type":"uint256","internalType":"uint256"},{"name":"","type":"uint256","internalType":"uint256"},{"name":"","type":"uint256","internalType":"uint256"}],"stateMutability":"view"},{"type":"function","name":"getAllMarkets","inputs":[],"outputs":[{"name":"","type":"address[]","internalType":"contract PToken[]"}],"stateMutability":"view"},{"type":"function","name":"getAssetsIn","inputs":[{"name":"account","type":"address","internalType":"address"}],"outputs":[{"name":"","type":"address[]","internalType":"contract PToken[]"}],"stateMutability":"view"},{"type":"function","name":"getBlockNumber","inputs":[],"outputs":[{"name":"","type":"uint256","internalType":"uint256"}],"stateMutability":"view"},{"type":"function","name":"getHypotheticalAccountLiquidity","inputs":[{"name":"account","type":"address","internalType":"address"},{"name":"pTokenModify","type":"address","internalType":"address"},{"name":"redeemTokens","type":"uint256","internalType":"uint256"},{"name":"borrowAmount","type":"uint256","internalType":"uint256"}],"outputs":[{"name":"","type":"uint256","internalType":"uint256"},{"name":"","type":"uint256","internalType":"uint256"},{"name":"","type":"uint256","internalType":"uint256"}],"stateMutability":"view"},{"type":"function","name":"getPeridotAddress","inputs":[],"outputs":[{"name":"","type":"address","internalType":"address"}],"stateMutability":"view"},{"type":"function","name":"initializePERIDOT","inputs":[{"name":"_peridot","type":"address","internalType":"address"}],"outputs":[],"stateMutability":"nonpayable"},{"type":"function","name":"isPeridottroller","inputs":[],"outputs":[{"name":"","type":"bool","internalType":"bool"}],"stateMutability":"view"},{"type":"function","name":"lastContributorBlock","inputs":[{"name":"","type":"address","internalType":"address"}],"outputs":[{"name":"","type":"uint256","internalType":"uint256"}],"stateMutability":"view"},{"type":"function","name":"liquidateBorrowAllowed","inputs":[{"name":"pTokenBorrowed","type":"address","internalType":"address"},{"name":"pTokenCollateral","type":"address","internalType":"address"},{"name":"liquidator","type":"address","internalType":"address"},{"name":"borrower","type":"address","internalType":"address"},{"name":"repayAmount","type":"uint256","internalType":"uint256"}],"outputs":[{"name":"","type":"uint256","internalType":"uint256"}],"stateMutability":"nonpayable"},{"type":"function","name":"liquidateBorrowVerify","inputs":[{"name":"pTokenBorrowed","type":"address","internalType":"address"},{"name":"pTokenCollateral","type":"address","internalType":"address"},{"name":"liquidator","type":"address","internalType":"address"},{"name":"borrower","type":"address","internalType":"address"},{"name":"actualRepayAmount","type":"uint256","internalType":"uint256"},{"name":"seizeTokens","type":"uint256","internalType":"uint256"}],"outputs":[],"stateMutability":"nonpayable"},{"type":"function","name":"liquidateCalculateSeizeTokens","inputs":[{"name":"pTokenBorrowed","type":"address","internalType":"address"},{"name":"pTokenCollateral","type":"address","internalType":"address"},{"name":"actualRepayAmount","type":"uint256","internalType":"uint256"}],"outputs":[{"name":"","type":"uint256","internalType":"uint256"},{"name":"","type":"uint256","internalType":"uint256"}],"stateMutability":"view"},{"type":"function","name":"liquidationIncentiveMantissa","inputs":[],"outputs":[{"name":"","type":"uint256","internalType":"uint256"}],"stateMutability":"view"},{"type":"function","name":"markets","inputs":[{"name":"","type":"address","internalType":"address"}],"outputs":[{"name":"isListed","type":"bool","internalType":"bool"},{"name":"collateralFactorMantissa","type":"uint256","internalType":"uint256"},{"name":"isPeridoted","type":"bool","internalType":"bool"}],"stateMutability":"view"},{"type":"function","name":"maxAssets","inputs":[],"outputs":[{"name":"","type":"uint256","internalType":"uint256"}],"stateMutability":"view"},{"type":"function","name":"mintAllowed","inputs":[{"name":"pToken","type":"address","internalType":"address"},{"name":"minter","type":"address","internalType":"address"},{"name":"mintAmount","type":"uint256","internalType":"uint256"}],"outputs":[{"name":"","type":"uint256","internalType":"uint256"}],"stateMutability":"nonpayable"},{"type":"function","name":"mintGuardianPaused","inputs":[{"name":"","type":"address","internalType":"address"}],"outputs":[{"name":"","type":"bool","internalType":"bool"}],"stateMutability":"view"},{"type":"function","name":"mintVerify","inputs":[{"name":"pToken","type":"address","internalType":"address"},{"name":"minter","type":"address","internalType":"address"},{"name":"actualMintAmount","type":"uint256","internalType":"uint256"},{"name":"mintTokens","type":"uint256","internalType":"uint256"}],"outputs":[],"stateMutability":"nonpayable"},{"type":"function","name":"oracle","inputs":[],"outputs":[{"name":"","type":"address","internalType":"contract PriceOracle"}],"stateMutability":"view"},{"type":"function","name":"pauseGuardian","inputs":[],"outputs":[{"name":"","type":"address","internalType":"address"}],"stateMutability":"view"},{"type":"function","name":"pendingAdmin","inputs":[],"outputs":[{"name":"","type":"address","internalType":"address"}],"stateMutability":"view"},{"type":"function","name":"pendingPeridottrollerImplementation","inputs":[],"outputs":[{"name":"","type":"address","internalType":"address"}],"stateMutability":"view"},{"type":"function","name":"peridotAccrued","inputs":[{"name":"","type":"address","internalType":"address"}],"outputs":[{"name":"","type":"uint256","internalType":"uint256"}],"stateMutability":"view"},{"type":"function","name":"peridotBorrowState","inputs":[{"name":"","type":"address","internalType":"address"}],"outputs":[{"name":"index","type":"uint224","internalType":"uint224"},{"name":"block","type":"uint32","internalType":"uint32"}],"stateMutability":"view"},{"type":"function","name":"peridotBorrowerIndex","inputs":[{"name":"","type":"address","internalType":"address"},{"name":"","type":"address","internalType":"address"}],"outputs":[{"name":"","type":"uint256","internalType":"uint256"}],"stateMutability":"view"},{"type":"function","name":"peridotContributorSpeeds","inputs":[{"name":"","type":"address","internalType":"address"}],"outputs":[{"name":"","type":"uint256","internalType":"uint256"}],"stateMutability":"view"},{"type":"function","name":"peridotInitialIndex","inputs":[],"outputs":[{"name":"","type":"uint224","internalType":"uint224"}],"stateMutability":"view"},{"type":"function","name":"peridotRate","inputs":[],"outputs":[{"name":"","type":"uint256","internalType":"uint256"}],"stateMutability":"view"},{"type":"function","name":"peridotSpeeds","inputs":[{"name":"","type":"address","internalType":"address"}],"outputs":[{"name":"","type":"uint256","internalType":"uint256"}],"stateMutability":"view"},{"type":"function","name":"peridotSupplierIndex","inputs":[{"name":"","type":"address","internalType":"address"},{"name":"","type":"address","internalType":"address"}],"outputs":[{"name":"","type":"uint256","internalType":"uint256"}],"stateMutability":"view"},{"type":"function","name":"peridotSupplyState","inputs":[{"name":"","type":"address","internalType":"address"}],"outputs":[{"name":"index","type":"uint224","internalType":"uint224"},{"name":"block","type":"uint32","internalType":"uint32"}],"stateMutability":"view"},{"type":"function","name":"peridottrollerImplementation","inputs":[],"outputs":[{"name":"","type":"address","internalType":"address"}],"stateMutability":"view"},{"type":"function","name":"redeemAllowed","inputs":[{"name":"pToken","type":"address","internalType":"address"},{"name":"redeemer","type":"address","internalType":"address"},{"name":"redeemTokens","type":"uint256","internalType":"uint256"}],"outputs":[{"name":"","type":"uint256","internalType":"uint256"}],"stateMutability":"nonpayable"},{"type":"function","name":"redeemVerify","inputs":[{"name":"pToken","type":"address","internalType":"address"},{"name":"redeemer","type":"address","internalType":"address"},{"name":"redeemAmount","type":"uint256","internalType":"uint256"},{"name":"redeemTokens","type":"uint256","internalType":"uint256"}],"outputs":[],"stateMutability":"nonpayable"},{"type":"function","name":"repayBorrowAllowed","inputs":[{"name":"pToken","type":"address","internalType":"address"},{"name":"payer","type":"address","internalType":"address"},{"name":"borrower","type":"address","internalType":"address"},{"name":"repayAmount","type":"uint256","internalType":"uint256"}],"outputs":[{"name":"","type":"uint256","internalType":"uint256"}],"stateMutability":"nonpayable"},{"type":"function","name":"repayBorrowVerify","inputs":[{"name":"pToken","type":"address","internalType":"address"},{"name":"payer","type":"address","internalType":"address"},{"name":"borrower","type":"address","internalType":"address"},{"name":"actualRepayAmount","type":"uint256","internalType":"uint256"},{"name":"borrowerIndex","type":"uint256","internalType":"uint256"}],"outputs":[],"stateMutability":"nonpayable"},{"type":"function","name":"seizeAllowed","inputs":[{"name":"pTokenCollateral","type":"address","internalType":"address"},{"name":"pTokenBorrowed","type":"address","internalType":"address"},{"name":"liquidator","type":"address","internalType":"address"},{"name":"borrower","type":"address","internalType":"address"},{"name":"seizeTokens","type":"uint256","internalType":"uint256"}],"outputs":[{"name":"","type":"uint256","internalType":"uint256"}],"stateMutability":"nonpayable"},{"type":"function","name":"seizeGuardianPaused","inputs":[],"outputs":[{"name":"","type":"bool","internalType":"bool"}],"stateMutability":"view"},{"type":"function","name":"seizeVerify","inputs":[{"name":"pTokenCollateral","type":"address","internalType":"address"},{"name":"pTokenBorrowed","type":"address","internalType":"address"},{"name":"liquidator","type":"address","internalType":"address"},{"name":"borrower","type":"address","internalType":"address"},{"name":"seizeTokens","type":"uint256","internalType":"uint256"}],"outputs":[],"stateMutability":"nonpayable"},{"type":"function","name":"transferAllowed","inputs":[{"name":"pToken","type":"address","internalType":"address"},{"name":"src","type":"address","internalType":"address"},{"name":"dst","type":"address","internalType":"address"},{"name":"transferTokens","type":"uint256","internalType":"uint256"}],"outputs":[{"name":"","type":"uint256","internalType":"uint256"}],"stateMutability":"nonpayable"},{"type":"function","name":"transferGuardianPaused","inputs":[],"outputs":[{"name":"","type":"bool","internalType":"bool"}],"stateMutability":"view"},{"type":"function","name":"transferVerify","inputs":[{"name":"pToken","type":"address","internalType":"address"},{"name":"src","type":"address","internalType":"address"},{"name":"dst","type":"address","internalType":"address"},{"name":"transferTokens","type":"uint256","internalType":"uint256"}],"outputs":[],"stateMutability":"nonpayable"},{"type":"function","name":"updateContributorRewards","inputs":[{"name":"contributor","type":"address","internalType":"address"}],"outputs":[],"stateMutability":"nonpayable"},{"type":"event","name":"ActionPaused","inputs":[{"name":"action","type":"string","indexed":false,"internalType":"string"},{"name":"pauseState","type":"bool","indexed":false,"internalType":"bool"}],"anonymous":false},{"type":"event","name":"ActionPaused","inputs":[{"name":"pToken","type":"address","indexed":false,"internalType":"contract PToken"},{"name":"action","type":"string","indexed":false,"internalType":"string"},{"name":"pauseState","type":"bool","indexed":false,"internalType":"bool"}],"anonymous":false},{"type":"event","name":"ContributorPeridotSpeedUpdated","inputs":[{"name":"contributor","type":"address","indexed":true,"internalType":"address"},{"name":"newSpeed","type":"uint256","indexed":false,"internalType":"uint256"}],"anonymous":false},{"type":"event","name":"DistributedBorrowerPeridot","inputs":[{"name":"pToken","type":"address","indexed":true,"internalType":"contract PToken"},{"name":"borrower","type":"address","indexed":true,"internalType":"address"},{"name":"peridotDelta","type":"uint256","indexed":false,"internalType":"uint256"},{"name":"peridotBorrowIndex","type":"uint256","indexed":false,"internalType":"uint256"}],"anonymous":false},{"type":"event","name":"DistributedSupplierPeridot","inputs":[{"name":"pToken","type":"address","indexed":true,"internalType":"contract PToken"},{"name":"supplier","type":"address","indexed":true,"internalType":"address"},{"name":"peridotDelta","type":"uint256","indexed":false,"internalType":"uint256"},{"name":"peridotSupplyIndex","type":"uint256","indexed":false,"internalType":"uint256"}],"anonymous":false},{"type":"event","name":"Failure","inputs":[{"name":"error","type":"uint256","indexed":false,"internalType":"uint256"},{"name":"info","type":"uint256","indexed":false,"internalType":"uint256"},{"name":"detail","type":"uint256","indexed":false,"internalType":"uint256"}],"anonymous":false},{"type":"event","name":"MarketEntered","inputs":[{"name":"pToken","type":"address","indexed":false,"internalType":"contract PToken"},{"name":"account","type":"address","indexed":false,"internalType":"address"}],"anonymous":false},{"type":"event","name":"MarketExited","inputs":[{"name":"pToken","type":"address","indexed":false,"internalType":"contract PToken"},{"name":"account","type":"address","indexed":false,"internalType":"address"}],"anonymous":false},{"type":"event","name":"MarketListed","inputs":[{"name":"pToken","type":"address","indexed":false,"internalType":"contract PToken"}],"anonymous":false},{"type":"event","name":"NewBorrowCap","inputs":[{"name":"pToken","type":"address","indexed":true,"internalType":"contract PToken"},{"name":"newBorrowCap","type":"uint256","indexed":false,"internalType":"uint256"}],"anonymous":false},{"type":"event","name":"NewBorrowCapGuardian","inputs":[{"name":"oldBorrowCapGuardian","type":"address","indexed":false,"internalType":"address"},{"name":"newBorrowCapGuardian","type":"address","indexed":false,"internalType":"address"}],"anonymous":false},{"type":"event","name":"NewCloseFactor","inputs":[{"name":"oldCloseFactorMantissa","type":"uint256","indexed":false,"internalType":"uint256"},{"name":"newCloseFactorMantissa","type":"uint256","indexed":false,"internalType":"uint256"}],"anonymous":false},{"type":"event","name":"NewCollateralFactor","inputs":[{"name":"pToken","type":"address","indexed":false,"internalType":"contract PToken"},{"name":"oldCollateralFactorMantissa","type":"uint256","indexed":false,"internalType":"uint256"},{"name":"newCollateralFactorMantissa","type":"uint256","indexed":false,"internalType":"uint256"}],"anonymous":false},{"type":"event","name":"NewLiquidationIncentive","inputs":[{"name":"oldLiquidationIncentiveMantissa","type":"uint256","indexed":false,"internalType":"uint256"},{"name":"newLiquidationIncentiveMantissa","type":"uint256","indexed":false,"internalType":"uint256"}],"anonymous":false},{"type":"event","name":"NewPauseGuardian","inputs":[{"name":"oldPauseGuardian","type":"address","indexed":false,"internalType":"address"},{"name":"newPauseGuardian","type":"address","indexed":false,"internalType":"address"}],"anonymous":false},{"type":"event","name":"NewPeridotAddress","inputs":[{"name":"oldPeridotAddress","type":"address","indexed":false,"internalType":"address"},{"name":"newPeridotAddress","type":"address","indexed":false,"internalType":"address"}],"anonymous":false},{"type":"event","name":"NewPriceOracle","inputs":[{"name":"oldPriceOracle","type":"address","indexed":false,"internalType":"contract PriceOracle"},{"name":"newPriceOracle","type":"address","indexed":false,"internalType":"contract PriceOracle"}],"anonymous":false},{"type":"event","name":"PeridotGranted","inputs":[{"name":"recipient","type":"address","indexed":false,"internalType":"address"},{"name":"amount","type":"uint256","indexed":false,"internalType":"uint256"}],"anonymous":false},{"type":"event","name":"PeridotSpeedUpdated","inputs":[{"name":"pToken","type":"address","indexed":true,"internalType":"contract PToken"},{"name":"newSpeed","type":"uint256","indexed":false,"internalType":"uint256"}],"anonymous":false}],"bytecode":{"object":"0x608034607c57601f6153ce38819003918201601f19168301916001600160401b03831184841017608057808492602094604052833981010312607c57516001600160a01b03811690819003607c57601980546001600160a01b03199081169290921790555f80549091163317905560405161533990816100958239f35b5f80fd5b634e487b7160e01b5f52604160045260245ffdfe60806040526004361015610011575f80fd5b5f3560e01c80630aa4266f1461202857806318c882a514611f1557806318f1408d14611eed5780631d504dc614611d5f5780631ededc9114611d3457806321af456914611d0c57806324008a6214611cf057806324a3d62214611cc85780632582e0ec14611a315780632678224714611a095780632d70db781461192c578063317b0b7714611880578063328bb72b1461182f5780633506d47514611743578063363769251461171f578063391957d7146116445780633bcf7ec1146115335780633c94786f1461150e57806341c728b91461150057806342cbb15c146114e657806347ef3b3b146114b25780634a5844321461147a5780634ada90af1461145d5780634e79238f1461143a5780634ef4c3e1146114205780634fd42e171461140257806351dff9891461139f57806352d84d1e1461137657806355ee1fe1146113475780635c778605146113395780635ec88c79146112ec5780635f5af1aa146112c95780635fc7e71e146112ac578063607ef6c1146110ec5780636a56947e146110de5780636d154ea5146110a15780636d35bf9114611093578063731f0c2b14611056578063741b252514611035578063794595f514610ffd5780637c8f3a6714610fd55780637dc0d1d014610fad578063825d327f14610c9a57806387f7630314610c755780638b130fa01461088d5780638d10097e14610c525780638e8f294b14610bf95780638ebf636414610b19578063929fe9a114610abf578063935dbd2614610a6e57806394b2294b14610a515780639a8260d61461094a5780639d92e62f14610905578063a64db627146108b5578063a6b139551461088d578063a76b3fda1461086a578063abfceffc14610832578063ac0b0bb71461080d578063b0772d0b146107e2578063b0cbd6221461072c578063bdcdc25814610710578063bea6b8b8146106d8578063c2998238146105d8578063c488847b146105b3578063cd2489f01461058b578063ce27c01e14610553578063d002d9891461051b578063d02f7351146104fe578063d088864a146104e1578063da3d454c146104c8578063dce1544914610466578063e4028eee1461043f578063e6653f3d1461041a578063e8755446146103fd578063eabe7d91146103e4578063ede4edd0146103b9578063f851a440146103925763fa707af914610373575f80fd5b3461038e575f36600319011261038e57602060405160018152f35b5f80fd5b3461038e575f36600319011261038e575f546040516001600160a01b039091168152602090f35b3461038e57602036600319011261038e5760206103dc6103d7612078565b6138db565b604051908152f35b3461038e5760206103dc6103f736612296565b91613887565b3461038e575f36600319011261038e576020600554604051908152f35b3461038e575f36600319011261038e57602060ff600a5460a81c166040519015158152f35b3461038e57604036600319011261038e5760206103dc61045d612078565b602435906136a9565b3461038e57604036600319011261038e5761047f612078565b6001600160a01b03165f9081526008602052604090208054602435919082101561038e576020916104af916122fc565b905460405160039290921b1c6001600160a01b03168152f35b3461038e5760206103dc6104db36612296565b916133d5565b3461038e575f36600319011261038e576020600e54604051908152f35b3461038e5760206103dc61051136612311565b5092919091613248565b3461038e57602036600319011261038e576001600160a01b0361053c612078565b165f526014602052602060405f2054604051908152f35b3461038e57602036600319011261038e576001600160a01b03610574612078565b165f526017602052602060405f2054604051908152f35b3461038e575f36600319011261038e5760206040516a0c097ce7bc90715b34b9f160241b8152f35b3461038e5760406105cc6105c636612296565b91612ff2565b82519182526020820152f35b3461038e57602036600319011261038e5760043567ffffffffffffffff811161038e576106099036906004016121f3565b805190610615826121db565b9161062360405193846121b9565b80835261062f816121db565b602084019290601f19013684375f5b828110610689578385604051918291602083019060208452518091526040830191905f5b818110610670575050500390f35b8251845285945060209384019390920191600101610662565b6106a6336001600160a01b0361069f8486612592565b51166150a4565b9060128210156106c4576001916106bd8288612592565b520161063e565b634e487b7160e01b5f52602160045260245ffd5b3461038e57602036600319011261038e576001600160a01b036106f9612078565b165f526018602052602060405f2054604051908152f35b3461038e5760206103dc61072336612102565b92919091612f7b565b3461038e57604036600319011261038e57610745612078565b7f25c31f2aebcdd5690c478d6f15c5d081640120a66428323870ed17257e342c3a60206024359261077c610777614ffc565b612a1e565b6107858161299b565b836107c4576001600160a01b0381165f9081526018835260408120555b6001600160a01b03165f818152601783526040908190208590555193845292a2005b6001600160a01b0381165f90815260188352604090204390556107a2565b3461038e575f36600319011261038e576108096107fd6125a6565b604051918291826123a4565b0390f35b3461038e575f36600319011261038e57602060ff600a5460b81c166040519015158152f35b3461038e57602036600319011261038e576001600160a01b03610853612078565b165f5260086020526108096107fd60405f206125f9565b3461038e57602036600319011261038e5760206103dc610888612078565b612d94565b3461038e575f36600319011261038e576019546040516001600160a01b039091168152602090f35b3461038e57604036600319011261038e576108ce612078565b6108d661208e565b6001600160a01b039182165f908152601360209081526040808320949093168252928352819020549051908152f35b3461038e57604036600319011261038e5761091e612078565b6024359067ffffffffffffffff821161038e576109426109489236906004016121f3565b90612b2a565b005b3461038e57604036600319011261038e57610963612078565b60243561096e614ffc565b15610a0c5761097d8183613f14565b6109c757604080516001600160a01b03909316835260208301919091527f261934657a3c2333b8c49721bd1f22d7fa808b39ff56c88e0ed42daaff5e2c4e9190819081015b0390a1005b60405162461bcd60e51b815260206004820152601e60248201527f696e73756666696369656e742070657269646f7420666f72206772616e7400006044820152606490fd5b60405162461bcd60e51b815260206004820152601c60248201527f6f6e6c792061646d696e2063616e206772616e742070657269646f74000000006044820152606490fd5b3461038e575f36600319011261038e576020600754604051908152f35b3461038e57602036600319011261038e576001600160a01b03610a8f612078565b165f908152601060209081526040918290205482516001600160e01b038216815260e09190911c91810191909152f35b3461038e57604036600319011261038e57610ad8612078565b6001600160a01b03610ae861208e565b165f526009602052600260405f20019060018060a01b03165f52602052602060ff60405f2054166040519015158152f35b3461038e57602036600319011261038e576020610b346120f3565b600a5490336001600160a01b038316148015610be6575b610b5490612443565b5f546001600160a01b031633148015610bda575b610b719061249f565b15159060ff60b01b8260b01b169060ff60b01b191617600a557fef159d9a32b2472e32b098f954f3ce62d232939f1c207070b584df1814de2de060806040516040815260086040820152672a3930b739b332b960c11b60608201528385820152a1604051908152f35b50801515600114610b68565b505f546001600160a01b03163314610b4b565b3461038e57602036600319011261038e576001600160a01b03610c1a612078565b165f526009602052606060405f2060ff8154169060ff6003600183015492015416906040519215158352602083015215156040820152f35b3461038e57602036600319011261038e5760206103dc610c70612078565b612a69565b3461038e575f36600319011261038e57602060ff600a5460b01c166040519015158152f35b3461038e57604036600319011261038e57610cb3612078565b60243590610cc2610777614ffc565b6001600160a01b03165f818152600f6020526040902054909190818115610db0575060405163aa5af0fd60e01b815290602082600481875afa8015610da55783925f91610d6d575b50604051610d2c91610d1b82612180565b8152610d2686614000565b85613b76565b03610d3357005b60207f7192d234c68cd375a28075afb25d2e5ab2f48248c84841e104c1bd008785b98091835f52600f82528060405f2055604051908152a2005b9250506020823d602011610d9d575b81610d89602093836121b9565b8101031261038e57610d2c83925190610d0a565b3d9150610d7c565b6040513d5f823e3d90fd5b908115610d2c579050825f526009602052600160ff60405f205416151503610f68575f838152601060205260409020548291906001600160e01b03161580610f51575b610edd575b5f848152601160205260409020546001600160e01b03161580610ec6575b15610d2c57610e63604051610e2c6040826121b9565b601c81527f626c6f636b206e756d6265722065786365656473203332206269747300000000602082015264010000000043106151cd565b610ec1604051610e7281612150565b6a0c097ce7bc90715b34b9f160241b81524363ffffffff1660208083019182525f8881526011909152604090209151905160e01b6001600160e01b0319166001600160e01b0391909116179055565b610d2c565b50835f52601160205260405f205460e01c15610e16565b610eee604051610e2c6040826121b9565b610f4c604051610efd81612150565b6a0c097ce7bc90715b34b9f160241b81524363ffffffff1660208083019182525f8881526010909152604090209151905160e01b6001600160e01b0319166001600160e01b0391909116179055565b610df8565b50835f52601060205260405f205460e01c15610df3565b60405162461bcd60e51b815260206004820152601c60248201527f70657269646f74206d61726b6574206973206e6f74206c6973746564000000006044820152606490fd5b3461038e575f36600319011261038e576004546040516001600160a01b039091168152602090f35b3461038e575f36600319011261038e576003546040516001600160a01b039091168152602090f35b3461038e57602036600319011261038e576001600160a01b0361101e612078565b165f52600f602052602060405f2054604051908152f35b3461038e57602036600319011261038e57610948611051612078565b61299b565b3461038e57602036600319011261038e576001600160a01b03611077612078565b165f52600b602052602060ff60405f2054166040519015158152f35b3461038e5761094836612311565b3461038e57602036600319011261038e576001600160a01b036110c2612078565b165f52600c602052602060ff60405f2054166040519015158152f35b3461038e5761094836612102565b3461038e57604036600319011261038e5760043567ffffffffffffffff811161038e5761111d903690600401612373565b60243567ffffffffffffffff811161038e5761113d903690600401612373565b9160018060a01b035f541633148015611298575b15611235578015158061122c575b156111f7575f5b81811061116f57005b8061117d6001928686612977565b35828060a01b0361119761119284878b612977565b612987565b165f52601660205260405f20556111b2611192828589612977565b7f6f1951b2aad10f3fc81b86d91105b413a5b3f847a34bbc5ce1904201b14438f660206111e0848989612977565b3592604051938452858060a01b031692a201611166565b60405162461bcd60e51b815260206004820152600d60248201526c1a5b9d985b1a59081a5b9c1d5d609a1b6044820152606490fd5b5082811461115f565b60405162461bcd60e51b815260206004820152603560248201527f6f6e6c792061646d696e206f7220626f72726f772063617020677561726469616044820152746e2063616e2073657420626f72726f77206361707360581b6064820152608490fd5b506015546001600160a01b03163314611151565b3461038e5760206103dc6112bf36612311565b9390929150612857565b3461038e57602036600319011261038e5760206103dc6112e7612078565b6127bb565b3461038e57602036600319011261038e5761130d611308612078565b6142ec565b601283929310156106c45761080990604051938493846040919493926060820195825260208201520152565b3461038e5761094836612296565b3461038e57602036600319011261038e576004356001600160a01b038116810361038e576103dc602091612746565b3461038e57602036600319011261038e57600435600d5481101561038e576104af6020916122d0565b3461038e576113ad36612258565b1592509050816113f8575b506113bf57005b60405162461bcd60e51b815260206004820152601160248201527072656465656d546f6b656e73207a65726f60781b6044820152606490fd5b90501515816113b8565b3461038e57602036600319011261038e5760206103dc6004356126cf565b3461038e5760206103dc61143336612296565b509061264a565b3461038e5761130d61144b36612258565b9290916001600160a01b031690614c8d565b3461038e575f36600319011261038e576020600654604051908152f35b3461038e57602036600319011261038e576001600160a01b0361149b612078565b165f526016602052602060405f2054604051908152f35b3461038e5760c036600319011261038e576114cb612078565b506114d461208e565b506114dd6120a4565b506109486120ba565b3461038e575f36600319011261038e576020604051438152f35b3461038e5761094836612258565b3461038e575f36600319011261038e57602060ff600a5460a01c166040519015158152f35b3461038e57604036600319011261038e57602061154e612078565b7f71aec636243f9709bb0007ae15e9afb8150ab01716d75fd7573be5cc096e03b060a06115796120e4565b92600180831b031692835f526009855261159960ff60405f2054166123e6565b600180831b03600a54163314801561162e575b6115b590612443565b600180831b035f541633148015611622575b6115d09061249f565b835f52600b85526115f08160405f209060ff801983541691151516179055565b6040519384526060858501526004606085015263135a5b9d60e21b6080850152151592836040820152a1604051908152f35b508015156001146115c7565b506115b5600180841b035f5416331490506115ac565b3461038e57602036600319011261038e5761165d612078565b5f546001600160a01b031633036116cb57601580546001600160a01b039283166001600160a01b0319821681179092556040805193909116835260208301919091527feda98690e518e9a05f8ec6837663e188211b2da8f4906648b323f2c1d4434e299190819081016109c2565b60405162461bcd60e51b815260206004820152602660248201527f6f6e6c792061646d696e2063616e2073657420626f72726f772063617020677560448201526530b93234b0b760d11b6064820152608490fd5b3461038e57602036600319011261038e5761094861173b612078565b6109426125a6565b3461038e57602036600319011261038e5761175c612078565b5f546001600160a01b031633036117e057601954906001600160a01b03821661179b576001600160a01b03166001600160a01b03199190911617601955005b60405162461bcd60e51b815260206004820152601b60248201527f50455249444f5420616c726561647920696e697469616c697a656400000000006044820152606490fd5b60405162461bcd60e51b815260206004820152602160248201527f6f6e6c792061646d696e2063616e20696e697469616c697a652050455249444f6044820152601560fa1b6064820152608490fd5b3461038e57602036600319011261038e576001600160a01b03611850612078565b165f908152601160209081526040918290205482516001600160e01b038216815260e09190911c91810191909152f35b3461038e57602036600319011261038e575f54600435906001600160a01b031633036118e75760407f3b9670cf975d26958e754b57098eaa2ac914d8d2a31b83257997b9f346110fd991600554908060055582519182526020820152a160206040515f8152f35b60405162461bcd60e51b815260206004820152601f60248201527f6f6e6c792061646d696e2063616e2073657420636c6f736520666163746f72006044820152606490fd5b3461038e57602036600319011261038e5760206119476120f3565b600a5490336001600160a01b0383161480156119f6575b61196790612443565b5f546001600160a01b0316331480156119ea575b6119849061249f565b15159060ff60b81b8260b81b169060ff60b81b191617600a557fef159d9a32b2472e32b098f954f3ce62d232939f1c207070b584df1814de2de060806040516040815260056040820152645365697a6560d81b60608201528385820152a1604051908152f35b5080151560011461197b565b505f546001600160a01b0316331461195e565b3461038e575f36600319011261038e576001546040516001600160a01b039091168152602090f35b3461038e57608036600319011261038e5760043567ffffffffffffffff811161038e57611a629036906004016121f3565b60243567ffffffffffffffff811161038e57611a829036906004016121f3565b906044359081151580920361038e576064359283151580940361038e57916001805f92149414905b8351811015610948576001600160a01b03611ac58286612592565b5116805f52600960205260ff60405f20541615611c8b5785611b94575b82611af1575b50600101611aaa565b91949093611afe83614000565b5f5b8451811015611b8657600190611b296001600160a01b03611b218389612592565b511686614149565b611b62828060a01b03611b3c8389612592565b5116838060a01b03611b4e848a612592565b51165f52601460205260405f205490613f14565b828060a01b03611b728389612592565b51165f52601460205260405f205501611b00565b509360019195925090611ae8565b90604095929495519263aa5af0fd60e01b8452602084600481865afa938415610da5575f94611c58575b5060405193611bcc85612180565b8452611bd88484613b76565b5f5b8551811015611c4d57600190611c04866001600160a01b03611bfc848b612592565b511687613d81565b611c29828060a01b03611c17838a612592565b5116838060a01b03611b4e848b612592565b828060a01b03611c39838a612592565b51165f52601460205260405f205501611bda565b509594925090611ae2565b9093506020813d8211611c83575b81611c73602093836121b9565b8101031261038e57519287611bbe565b3d9150611c66565b60405162461bcd60e51b81526020600482015260156024820152741b585c9ad95d081b5d5cdd081899481b1a5cdd1959605a1b6044820152606490fd5b3461038e575f36600319011261038e57600a546040516001600160a01b039091168152602090f35b3461038e5760206103dc611d0336612102565b509190506124e4565b3461038e575f36600319011261038e576015546040516001600160a01b039091168152602090f35b3461038e5760a036600319011261038e57611d4d612078565b50611d5661208e565b506109486120a4565b3461038e57602036600319011261038e576004356001600160a01b0381169081900361038e576040516303e1469160e61b8152602081600481855afa908115610da5575f91611eab575b506001600160a01b03163303611e565760205f9160046040518094819363307a00cd60e21b83525af1908115610da5575f91611e24575b50611de757005b60405162461bcd60e51b815260206004820152601560248201527418da185b99d9481b9bdd08185d5d1a1bdc9a5e9959605a1b6044820152606490fd5b90506020813d602011611e4e575b81611e3f602093836121b9565b8101031261038e575181611de0565b3d9150611e32565b60405162461bcd60e51b815260206004820152602760248201527f6f6e6c7920756e6974726f6c6c65722061646d696e2063616e206368616e676560448201526620627261696e7360c81b6064820152608490fd5b90506020813d602011611ee5575b81611ec6602093836121b9565b8101031261038e57516001600160a01b038116810361038e5782611da9565b3d9150611eb9565b3461038e575f36600319011261038e576002546040516001600160a01b039091168152602090f35b3461038e57604036600319011261038e576020611f30612078565b7f71aec636243f9709bb0007ae15e9afb8150ab01716d75fd7573be5cc096e03b060a0611f5b6120e4565b92600180831b031692835f5260098552611f7b60ff60405f2054166123e6565b600180831b03600a541633148015612012575b611f9790612443565b600180831b035f541633148015612006575b611fb29061249f565b835f52600c8552611fd28160405f209060ff801983541691151516179055565b6040519384526060858501526006606085015265426f72726f7760d01b6080850152151592836040820152a1604051908152f35b50801515600114611fa9565b50611f97600180841b035f541633149050611f8e565b3461038e57604036600319011261038e57612041612078565b61204961208e565b6001600160a01b039182165f908152601260209081526040808320949093168252928352819020549051908152f35b600435906001600160a01b038216820361038e57565b602435906001600160a01b038216820361038e57565b604435906001600160a01b038216820361038e57565b606435906001600160a01b038216820361038e57565b35906001600160a01b038216820361038e57565b60243590811515820361038e57565b60043590811515820361038e57565b608090600319011261038e576004356001600160a01b038116810361038e57906024356001600160a01b038116810361038e57906044356001600160a01b038116810361038e579060643590565b6040810190811067ffffffffffffffff82111761216c57604052565b634e487b7160e01b5f52604160045260245ffd5b6020810190811067ffffffffffffffff82111761216c57604052565b610140810190811067ffffffffffffffff82111761216c57604052565b90601f8019910116810190811067ffffffffffffffff82111761216c57604052565b67ffffffffffffffff811161216c5760051b60200190565b9080601f8301121561038e57813561220a816121db565b9261221860405194856121b9565b81845260208085019260051b82010192831161038e57602001905b8282106122405750505090565b6020809161224d846120d0565b815201910190612233565b608090600319011261038e576004356001600160a01b038116810361038e57906024356001600160a01b038116810361038e57906044359060643590565b606090600319011261038e576004356001600160a01b038116810361038e57906024356001600160a01b038116810361038e579060443590565b600d548110156122e857600d5f5260205f2001905f90565b634e487b7160e01b5f52603260045260245ffd5b80548210156122e8575f5260205f2001905f90565b60a090600319011261038e576004356001600160a01b038116810361038e57906024356001600160a01b038116810361038e57906044356001600160a01b038116810361038e57906064356001600160a01b038116810361038e579060843590565b9181601f8401121561038e5782359167ffffffffffffffff831161038e576020808501948460051b01011161038e57565b60206040818301928281528451809452019201905f5b8181106123c75750505090565b82516001600160a01b03168452602093840193909201916001016123ba565b156123ed57565b60405162461bcd60e51b815260206004820152602860248201527f63616e6e6f742070617573652061206d61726b65742074686174206973206e6f6044820152671d081b1a5cdd195960c21b6064820152608490fd5b1561244a57565b60405162461bcd60e51b815260206004820152602760248201527f6f6e6c7920706175736520677561726469616e20616e642061646d696e2063616044820152666e20706175736560c81b6064820152608490fd5b156124a657565b60405162461bcd60e51b81526020600482015260166024820152756f6e6c792061646d696e2063616e20756e706175736560501b6044820152606490fd5b6001600160a01b0381165f8181526009602052604090205490929060ff161561258a5760206004936040519485809263aa5af0fd60e01b82525afa918215610da5575f92612554575b61255093506040519261253f84612180565b835261254b8382613b76565b613d81565b5f90565b91506020833d602011612582575b8161256f602093836121b9565b8101031261038e5761255092519161252d565b3d9150612562565b505050600990565b80518210156122e85760209160051b010190565b60405190600d548083528260208101600d5f5260205f20925f5b8181106125d75750506125d5925003836121b9565b565b84546001600160a01b03168352600194850194879450602090930192016125c0565b90604051918281549182825260208201905f5260205f20925f5b8181106126285750506125d5925003836121b9565b84546001600160a01b0316835260019485019487945060209093019201612613565b6001600160a01b0381165f818152600b602052604090205491929160ff16612699575f52600960205260ff60405f20541615612692578161268d61255093614000565b614149565b5050600990565b60405162461bcd60e51b815260206004820152600e60248201526d1b5a5b9d081a5cc81c185d5cd95960921b6044820152606490fd5b5f546001600160a01b0316330361271b5760407faeba5a6c40a8ac138134bff1aaa65debf25971188a58804bad717f82f0ec131691600654908060065582519182526020820152a15f90565b505f5160206152e45f395f51905f52606060405160018152600b60208201525f6040820152a1600190565b5f546001600160a01b031633036127af57600480546001600160a01b039283166001600160a01b0319821681179092556040805193909116835260208301919091527fd52b2b9b7e9ee655fcb95d2e5b9e0c9f69e7ef2b8e9d2d0ea78402d576d22e2291a15f90565b506127b8614fb2565b90565b5f546001600160a01b0316330361282c57600a80546001600160a01b039283166001600160a01b0319821681179092556040805193909116835260208301919091527f0613b6ee6a04f0d09f390e4d9318894b9f6ac7fd83897cd8d18896ba579c401e9190819081015b0390a15f90565b505f5160206152e45f395f51905f52606060405160018152601360208201525f6040820152a1600190565b6001600160a01b03165f8181526009602052604090205490929160ff90911615908115612955575b5061258a5761288d816142ec565b91905060128110156106c4578061294d575015612945576040516395dd919360e01b81526001600160a01b03909116600482015290602090829060249082905afa908115610da5575f91612911575b50612901670de0b6b3a764000091600554604051906128fa82612180565b81526152ca565b51041061290c575f90565b601190565b90506020813d60201161293d575b8161292c602093836121b9565b8101031261038e57516129016128dc565b3d915061291f565b505050600390565b935050505090565b6001600160a01b03165f9081526009602052604081205460ff1615915061287f565b91908110156122e85760051b0190565b356001600160a01b038116810361038e5790565b6001600160a01b03165f818152601760209081526040808320546018909252909120546129c890436138ce565b80151580612a15575b6129da57505050565b6129f9916129e791614fdc565b825f52601460205260405f2054614fef565b815f52601460205260405f20555f5260186020524360405f2055565b508115156129d1565b15612a2557565b606460405162461bcd60e51b815260206004820152602060248201527f6f6e6c792061646d696e2063616e207365742070657269646f742073706565646044820152fd5b5f546001600160a01b031633036127af576001600160a01b038116908115612ae557601980546001600160a01b031981169093179055604080516001600160a01b0393841681529290911660208301527ffb3fc9372d916ff638c9fd2f3c82723b644d63ec4847dd0c1d72342176f3916b919081908101612825565b60405162461bcd60e51b815260206004820152601e60248201527f50455249444f5420616464726573732063616e6e6f74206265207a65726f00006044820152606490fd5b919091604092835191612b3d85846121b9565b600183526020830190601f1986013683378351156122e8576001600160a01b0316905291925f925b8051841015612d76576001600160a01b03612b808583612592565b5116805f52600960205260ff835f20541615612d3a57825163aa5af0fd60e01b815291602083600481855afa928315612d30575f93612cfd575b50835192612bc784612180565b8352612bd38383613b76565b5f5b8551811015612c5a57600190612bff856001600160a01b03612bf7848b612592565b511686613d81565b612c37828060a01b03612c12838a612592565b5116838060a01b03612c24848b612592565b51165f526014602052875f205490613f14565b828060a01b03612c47838a612592565b51165f526014602052865f205501612bd5565b5095909150612c6882614000565b5f5b8451811015612cee57600190612c936001600160a01b03612c8b8389612592565b511685614149565b612ccb828060a01b03612ca68389612592565b5116838060a01b03612cb8848a612592565b51165f526014602052865f205490613f14565b828060a01b03612cdb8389612592565b51165f526014602052855f205501612c6a565b50946001909401939050612b65565b9092506020813d8211612d28575b81612d18602093836121b9565b8101031261038e5751915f612bba565b3d9150612d0b565b84513d5f823e3d90fd5b825162461bcd60e51b81526020600482015260156024820152741b585c9ad95d081b5d5cdd081899481b1a5cdd1959605a1b6044820152606490fd5b50505050565b9081602091031261038e5751801515810361038e5790565b5f546001600160a01b03163303612f50576001600160a01b03165f8181526009602052604090205460ff16612f2557604051632d44860760e11b8152602081600481855afa8015610da557612ef8575b50805f5260096020525f6001604082208160ff198254161781556003810160ff19815416905501555f600d54905b818110612e93575050600d54600160401b81101561216c5781612e887fcf583bb0c569eb967f806b11601c4cb93c10310485c67add5f8362c2f212321f93612e6484600160209601600d55600d6122fc565b81546001600160a01b0393841660039290921b91821b9390911b1916919091179055565b604051908152a15f90565b82612e9d826122d0565b905460039190911b1c6001600160a01b031614612ebc57600101612e12565b60405162461bcd60e51b81526020600482015260146024820152731b585c9ad95d08185b1c9958591e48185919195960621b6044820152606490fd5b612f199060203d602011612f1e575b612f1181836121b9565b810190612d7c565b612de4565b503d612f07565b505f5160206152e45f395f51905f526060604051600a8152601160208201525f6040820152a1600a90565b505f5160206152e45f395f51905f52606060405160018152601260208201525f6040820152a1600190565b909260ff600a5460b01c16612fb857612f95908483615024565b80612fb1575061268d61255093612fab83614000565b82614149565b9250505090565b60405162461bcd60e51b81526020600482015260126024820152711d1c985b9cd9995c881a5cc81c185d5cd95960721b6044820152606490fd5b6004805460405163fc57d4df60e01b81526001600160a01b0393841692810192909252909392911690602084602481855afa938415610da5575f946131f4575b5092602060249460018060a01b0316926040519586809263fc57d4df60e01b82528660048301525afa938415610da5575f946131c0575b50801580156131b8575b6131ad5760206004926040519384809263182df0f560e01b82525afa918215610da5575f92613177575b50906130f6613104925f6040516130b381612180565b525f6040516130c181612180565b525f6040516130cf81612180565b52600654604051906130e082612180565b8152604051916130ef83612180565b8252615195565b93604051906130e082612180565b915f60405161311281612180565b525190670de0b6b3a7640000820291808304670de0b6b3a764000014901517156131635761314e61315b92670de0b6b3a7640000945190615177565b604051906128fa82612180565b5104905f9190565b634e487b7160e01b5f52601160045260245ffd5b91506020823d6020116131a5575b81613192602093836121b9565b8101031261038e579051906130f661309d565b3d9150613185565b50505050600d905f90565b508315613073565b9093506020813d6020116131ec575b816131dc602093836121b9565b8101031261038e5751925f613069565b3d91506131cf565b93506020843d602011613221575b8161320f602093836121b9565b8101031261038e579251926020613032565b3d9150613202565b9081602091031261038e57516001600160a01b038116810361038e5790565b9060ff600a5460b81c16613383576001600160a01b0382165f8181526009602052604090205490919060ff16158015613361575b6133575760206004926040519384809263c423fe2960e01b82525afa918215610da5575f92613332575b5060405163c423fe2960e01b815290602090829060049082906001600160a01b03165afa908115610da5575f91613303575b506001600160a01b039081169116036132fb5761268d61255093612fab83614000565b505050600290565b613325915060203d60201161332b575b61331d81836121b9565b810190613229565b5f6132d8565b503d613313565b600491925061334f602091823d841161332b5761331d81836121b9565b9291506132a6565b5050505050600990565b506001600160a01b0381165f9081526009602052604090205460ff161561327c565b60405162461bcd60e51b815260206004820152600f60248201526e1cd95a5e99481a5cc81c185d5cd959608a1b6044820152606490fd5b156133c157565b634e487b7160e01b5f52600160045260245ffd5b9060018060a01b03821692835f52600c60205260ff60405f20541661367157835f52600960205260ff60405f2054161561366857835f526009602052600260405f200160018060a01b0383165f5260205260ff60405f205416156135d9575b6004805460405163fc57d4df60e01b8152918201869052602090829060249082906001600160a01b03165afa908115610da5575f916135a7575b501561359e57835f52601660205260405f2054806134e8575b5061349390848361465d565b91905060128110156106c4578061294d57506134e05760206004936040519485809263aa5af0fd60e01b82525afa918215610da5575f926125545761255093506040519261253f84612180565b505050600490565b6040516308f7a6e360e31b8152602081600481895afa8015610da55783905f90613568575b6135179250614fef565b1015613523575f613487565b60405162461bcd60e51b815260206004820152601960248201527f6d61726b657420626f72726f77206361702072656163686564000000000000006044820152606490fd5b50506020813d602011613596575b81613583602093836121b9565b8101031261038e5782613517915161350d565b3d9150613576565b50505050600d90565b90506020813d6020116135d1575b816135c2602093836121b9565b8101031261038e57515f61346e565b3d91506135b5565b83330361362b576135ea82336150a4565b60128110156106c4578061294d5750835f526009602052600260405f200160018060a01b0383165f5260205261362660ff60405f2054166133ba565b613434565b60405162461bcd60e51b815260206004820152601560248201527439b2b73232b91036bab9ba10313290382a37b5b2b760591b6044820152606490fd5b50505050600990565b60405162461bcd60e51b815260206004820152601060248201526f189bdc9c9bddc81a5cc81c185d5cd95960821b6044820152606490fd5b5f546001600160a01b0316330361385b576001600160a01b03165f818152600960205260409020805490919060ff161561382e576040516136e981612180565b838152670c7d713b49da000060405161370181612180565b5251670c7d713b49da000010613801578215158061378d575b613760577f70483e6592cd5182d45ac970e05bc62cdcc90e9d8ef2c2dbe686cf383bcd7fc592600160609301818154915560405192835260208301526040820152a15f90565b5050505f5160206152e45f395f51905f526060604051600d8152600960208201525f6040820152a1600d90565b506004805460405163fc57d4df60e01b8152918201839052602090829060249082906001600160a01b03165afa908115610da5575f916137cf575b501561371a565b90506020813d6020116137f9575b816137ea602093836121b9565b8101031261038e57515f6137c8565b3d91506137dd565b5050505f5160206152e45f395f51905f52606060405160068152600860208201525f6040820152a1600690565b5050505f5160206152e45f395f51905f52606060405160098152600760208201525f6040820152a1600990565b50505f5160206152e45f395f51905f52606060405160018152600660208201525f6040820152a1600190565b91613893908284615024565b91826138a757612550925061268d81614000565b505090565b919082608091031261038e578151916020810151916060604083015192015190565b9190820391821161316357565b6040516361bfb47160e11b81523360048201526001600160a01b0382169190608081602481865afa8015610da5575f5f925f92613b41575b50613aee57613ac157613927913390615024565b80613a9457505f818152600960209081526040808320338452600201918290529091205460ff1615613a8e57335f90815260209182526040808220805460ff19169055600890925220613979906125f9565b9081519182905f5b828110613a5f575b50506139969083106133ba565b335f52600860205260405f20918254905f19820191821161316357612e646139c16139da93866122fc565b905460039190911b1c6001600160a01b031691856122fc565b8154908115613a4b577fe699a64c18b07ac5b7301aa273f36a2287239eb9501d81950672794afba29a0d92612825925f190190613a1782826122fc565b81546001600160a01b0360039290921b82901b19169091559190556040805192909116825233602083015290918291820190565b634e487b7160e01b5f52603160045260245ffd5b836001600160a01b03613a728385612592565b511614613a8157600101613981565b935061399690505f613989565b50505f90565b5f5160206152e45f395f51905f52915060609060405190600e8252600360208301526040820152a1600e90565b5050505f5160206152e45f395f51905f526060604051600c8152600260208201525f6040820152a1600c90565b60405162461bcd60e51b815260206004820152602560248201527f657869744d61726b65743a206765744163636f756e74536e617073686f742066604482015264185a5b195960da1b6064820152608490fd5b915050613b66915060803d608011613b6f575b613b5e81836121b9565b8101906138ac565b5090915f613913565b503d613b54565b6001600160a01b03165f818152601160209081526040808320600f909252909120548154613ba79060e01c436138ce565b938415158080613d78575b15613d3857506040516308f7a6e360e31b8152602081600481885afa908115610da5575f91613cfa575b5094613bfe613c2e93613bf863ffffffff96946125d599615214565b92614fdc565b908015613ce357613c0e91615240565b905b54604051906001600160e01b0316613c2782612180565b8152615292565b5191613c77604051613c416040826121b9565b601a81527f6e657720696e64657820657863656564732032323420626974730000000000006020820152600160e01b85106151cd565b613c88604051610e2c6040826121b9565b60405192613c9584612150565b6001600160e01b03908116845243831660208086019182525f93845260119052604090922093518454925160e085811b94909416831691909216179216901b6001600160e01b031916179055565b5050604051613cf181612180565b5f815290613c10565b9293919590506020833d602011613d30575b81613d19602093836121b9565b8101031261038e5791519194909291613bfe613bdc565b3d9150613d0c565b935050509150613d455750565b6125d590613d5a604051610e2c6040826121b9565b80546001600160e01b03164360e01b6001600160e01b031916179055565b50821515613bb2565b6001600160a01b03165f81815260116020526040908190205490519293919291906001600160e01b0316613db483612180565b8252825f52601360205260405f2060018060a01b0385165f5260205260405f205460405190613de282612180565b81528251845f52601360205260405f2060018060a01b0387165f5260205260405f20558051613e13575b5050505050565b613e1d90836152ae565b6040516395dd919360e01b81526001600160a01b039095166004860181905294909190602081602481885afa908115610da5575f91613eda575b50613ea1604093613e997f1e5561ff39e796a5299c233e6fd3b11fe55a12e535266cc176f37334e6c7efb696946a0c097ce7bc90715b34b9f160241b94615214565b905190614fdc565b0490855f526014602052613eb882845f2054614fef565b865f526014602052835f20555182519182526020820152a35f80808080613e0c565b90506020939193813d602011613f0c575b81613ef8602093836121b9565b8101031261038e5751909290613ea1613e57565b3d9150613eeb565b6019546040516370a0823160e01b81523060048201526001600160a01b039091169190602081602481865afa908115610da5575f91613fce575b508315159081613fc3575b50613f6357505090565b60405163a9059cbb60e01b81526001600160a01b039190911660048201526024810192909252602090829060449082905f905af18015610da557613fa657505f90565b613fbe9060203d602011612f1e57612f1181836121b9565b505f90565b90508311155f613f59565b90506020813d602011613ff8575b81613fe9602093836121b9565b8101031261038e57515f613f4e565b3d9150613fdc565b60018060a01b0316805f52601060205260405f2090805f52600f60205260405f2054614030835460e01c436138ce565b908115158080614140575b1561413557506040516318160ddd60e01b815291602083600481875afa928315610da5575f936140fd575b509363ffffffff92613bfe61407e936125d597614fdc565b5191614091604051613c416040826121b9565b6140a2604051610e2c6040826121b9565b604051926140af84612150565b6001600160e01b03908116845243831660208086019182525f93845260109052604090922093518454925160e085811b94909416831691909216179216901b6001600160e01b031916179055565b9250936020833d60201161412d575b81614119602093836121b9565b8101031261038e57915191936125d5614066565b3d915061410c565b92505050613d455750565b5081151561403b565b6001600160a01b03165f8181526010602052604090819020549051906001600160e01b031661417782612180565b8152815f52601260205260405f2060018060a01b0384165f526020526141df60405f2054604051906141a882612180565b81528251845f52601260205260405f2060018060a01b0387165f5260205260405f2055805115806142e2575b6142cc575b826152ae565b6040516370a0823160e01b81526001600160a01b03909416600485018190529390602082602481875afa918215610da5575f92614288575b50916a0c097ce7bc90715b34b9f160241b6142576040937faf420590cb43d2e84351d8cd2a32149325e748efcd73152eacf2e54ecab59766955190614fdc565b0490855f52601460205261426e82845f2054614fef565b865f526014602052835f20555182519182526020820152a3565b9150916020823d6020116142c4575b816142a4602093836121b9565b8101031261038e57905190916a0c097ce7bc90715b34b9f160241b614217565b3d9150614297565b6a0c097ce7bc90715b34b9f160241b81526141d9565b50825115156141d4565b90604051916142fa8361219c565b5f83525f60208401525f60408401525f60608401525f60808401525f60a084015260405161432781612180565b5f815260c084015260405161433b81612180565b5f815260e084015260405161434f81612180565b5f815261010084015260405161436481612180565b5f815261012084015260018060a01b0381165f52600860205261438960405f206125f9565b6004549092906001600160a01b03165f5b845181101561461d576001600160a01b036143b58287612592565b516040516361bfb47160e11b81526001600160a01b0387166004820152911690608081602481855afa8015610da5575f915f915f915f916145fb575b5060808b015260608a015260408901526145ec57805f526009602052600160405f2001546040519061442282612180565b815260c088015260808701516040519061443b82612180565b815260e088015260405163fc57d4df60e01b815260048101829052602081602481875afa908115610da5575f916145bb575b508060a089015280156145ab576040519061448782612180565b81526101008801526144db6144b46144a860c08a015160e08b015190615195565b6101008a015190615195565b806101208a0152670de0b6b3a76400006144d460408b01518b51936152ca565b5104614fef565b8752614502610100880151670de0b6b3a76400006144d460608b015160208c0151936152ca565b9081602089015215614518575b5060010161439a565b6101208701515f60405161452b81612180565b52515f9190156001171561316357670de0b6b3a764000061455c926040519061455382612180565b81525104614fef565b908160208801526101008701515f60405161457681612180565b52515f90156001171561316357600192670de0b6b3a76400006145a0926040519061455382612180565b60208801529061450f565b50600d96505f9550859450505050565b90506020813d82116145e4575b816145d5602093836121b9565b8101031261038e57515f61446d565b3d91506145c8565b50600f95505f94508493505050565b92505050614617915060803d8111613b6f57613b5e81836121b9565b5f6143f1565b505092915050805160208201518082115f1461464c5750508060206146469251910151906138ce565b5f918290565b61465692506138ce565b5f915f9190565b909291926040519161466e8361219c565b5f83525f60208401525f60408401525f60608401525f60808401525f60a084015260405161469b81612180565b5f815260c08401526040516146af81612180565b5f815260e08401526040516146c381612180565b5f81526101008401526040516146d881612180565b5f815261012084015260018060a01b0381165f5260086020526146fd60405f206125f9565b6004549094906001600160a01b03165f5b8651811015614947576001600160a01b036147298289612592565b516040516361bfb47160e11b81526001600160a01b038716600482015291169190608081602481865afa8015610da5575f915f915f915f91614925575b5060808b015260608a0152604089015261491357815f526009602052600160405f2001546040519061479782612180565b815260c08801526080870151604051906147b082612180565b815260e088015260405163fc57d4df60e01b815260048101839052602081602481875afa908115610da5575f916148e2575b508060a089015280156148cf57604051906147fc82612180565b815261010088015261481d6144b46144a860c08a015160e08b015190615195565b8752614844610100880151670de0b6b3a76400006144d460608b015160208c0151936152ca565b60208801819052916001600160a01b03871614614866575b600191500161470e565b6101208701515f60405161487981612180565b52515f92901560011715613163576148a76148c591670de0b6b3a76400006001956040519061455382612180565b8060208a0152670de0b6b3a76400006144d48c6101008c01516152ca565b602088015261485c565b50505050945050505050600d905f905f90565b90506020813d821161490b575b816148fc602093836121b9565b8101031261038e57515f6147e2565b3d91506148ef565b505050945050505050600f905f905f90565b92505050614941915060803d8111613b6f57613b5e81836121b9565b5f614766565b5050945050509050805160208201518082115f1461464c5750508060206146469251910151906138ce565b9291604051936149818561219c565b5f85525f60208601525f60408601525f60608601525f60808601525f60a08601526040516149ae81612180565b5f815260c08601526040516149c281612180565b5f815260e08601526040516149d681612180565b5f81526101008601526040516149eb81612180565b5f815261012086015260018060a01b0381165f526008602052614a1060405f206125f9565b6004549094906001600160a01b03165f5b8651811015614c62576001600160a01b03614a3c8289612592565b516040516361bfb47160e11b81526001600160a01b0387166004820152911690608081602481855afa8015610da5575f915f915f915f91614c40575b5060808d015260608c015260408b015261491357805f526009602052600160405f20015460405190614aa982612180565b815260c08a0152608089015160405190614ac282612180565b815260e08a015260405163fc57d4df60e01b815260048101829052602081602481875afa908115610da5575f91614c0f575b508060a08b015280156148cf5760405190614b0e82612180565b81526101008a0152614b5b614b3b614b2f60c08c015160e08d015190615195565b6101008c015190615195565b806101208c0152670de0b6b3a76400006144d460408d01518d51936152ca565b8952614b836101008a0151670de0b6b3a76400006144d48c60206060820151910151936152ca565b60208a01819052906001600160a01b03881614614ba4575b50600101614a21565b614bc090670de0b6b3a76400006144d4886101208d01516152ca565b908160208a01526101008901515f604051614bda81612180565b52515f90156001171561316357600192670de0b6b3a7640000614c04926040519061455382612180565b60208a015290614b9b565b90506020813d8211614c38575b81614c29602093836121b9565b8101031261038e57515f614af4565b3d9150614c1c565b92505050614c5c915060803d8111613b6f57613b5e81836121b9565b5f614a78565b5050949350505050805160208201518082115f1461464c5750508060206146469251910151906138ce565b92919060405192614c9d8461219c565b5f84525f60208501525f60408501525f60608501525f60808501525f60a0850152604051614cca81612180565b5f815260c0850152604051614cde81612180565b5f815260e0850152604051614cf281612180565b5f8152610100850152604051614d0781612180565b5f815261012085015260018060a01b0385165f526008602052614d2c60405f206125f9565b6004549095906001600160a01b03165f5b8751811015614f87576001600160a01b03614d58828a612592565b516040516361bfb47160e11b81526001600160a01b038616600482015291169190608081602481865afa8015610da5575f915f915f915f91614f65575b5060808c015260608b015260408a0152614f5357815f526009602052600160405f20015460405190614dc682612180565b815260c0890152608088015160405190614ddf82612180565b815260e089015260405163fc57d4df60e01b81526004810183905291602083602481875afa928315610da5575f93614f20575b508260a08a01528215614f0d5788889160019460405190614e3282612180565b8152610100830152614e7f614e5f614e5360c085015160e086015190615195565b61010085015190615195565b80610120850152670de0b6b3a76400006144d460408601518651936152ca565b8252614ea6610100830151670de0b6b3a76400006144d460608601516020870151936152ca565b90816020840152858060a01b038a1614614ec4575b50505001614d3d565b670de0b6b3a76400006144d4614f0094610120614ee29501516152ca565b8060208b0152670de0b6b3a76400006144d4886101008d01516152ca565b602089015286885f614ebb565b50505050505050505050600d905f905f90565b9092506020813d8211614f4b575b81614f3b602093836121b9565b8101031261038e5751915f614e12565b3d9150614f2e565b505050505050505050600f905f905f90565b92505050614f81915060803d8111613b6f57613b5e81836121b9565b5f614d95565b5050505050509050805160208201518082115f1461464c5750508060206146469251910151906138ce565b5f5160206152e45f395f51905f52606060405160018152601060208201525f6040820152a1600190565b8181029291811591840414171561316357565b9190820180921161316357565b5f546001600160a01b0316331480156150125790565b506002546001600160a01b0316331490565b6001600160a01b03165f8181526009602052604090205491929160ff161561258a57805f526009602052600260405f200160018060a01b0384165f5260205260ff60405f2054161561509d5761507992614972565b91905060128110156106c457806150985750615093575f90565b600490565b905090565b5050505f90565b9060018060a01b0382165f52600960205260405f2060ff8154161561258a5760020160018060a01b0382165f5280602052600160ff60405f20541615151461509d576001600160a01b0382165f90815260209182526040808220805460ff1916600117905560089092522080549290600160401b84101561216c5781612e64856151549360017f3ab23ab0d51cccc0c3085aec51f99228625aa1a922b3a8ca89a26b0f2027a1a5980181556122fc565b604080516001600160a01b03928316815292909116602083015281908101612825565b8115615181570490565b634e487b7160e01b5f52601260045260245ffd5b670de0b6b3a7640000916151ba915f6040516151b081612180565b5251905190614fdc565b04604051906151c882612180565b815290565b156151d55750565b604460209160405192839162461bcd60e51b83528160048401528051918291826024860152018484015e5f828201840152601f01601f19168101030190fd5b670de0b6b3a7640000810290808204670de0b6b3a76400001490151715613163576127b8915190615177565b905f60405161524e81612180565b526a0c097ce7bc90715b34b9f160241b8202918083046a0c097ce7bc90715b34b9f160241b14901517156131635761528591615177565b604051906151c882612180565b90615285915f6040516152a481612180565b5251905190614fef565b90615285915f6040516152c081612180565b52519051906138ce565b90615285915f6040516152dc81612180565b5251614fdc56fe45b96fe442630264581b197e84bbada861235052c5a1aadfff9ea4e40a969aa0a264697066735822122028f9300dcfd04384136d1ef98091fcb524ed4ed1cf37d0a9c6d8a75503a1e9bc64736f6c634300081c0033","linkReferences":{}},"methodIdentifiers":{"PERIDOT()":"a6b13955","_become(address)":"1d504dc6","_borrowGuardianPaused()":"e6653f3d","_grantPeridot(address,uint256)":"9a8260d6","_mintGuardianPaused()":"3c94786f","_setBorrowCapGuardian(address)":"391957d7","_setBorrowPaused(address,bool)":"18c882a5","_setCloseFactor(uint256)":"317b0b77","_setCollateralFactor(address,uint256)":"e4028eee","_setContributorPeridotSpeed(address,uint256)":"b0cbd622","_setLiquidationIncentive(uint256)":"4fd42e17","_setMarketBorrowCaps(address[],uint256[])":"607ef6c1","_setMintPaused(address,bool)":"3bcf7ec1","_setPauseGuardian(address)":"5f5af1aa","_setPeridotAddress(address)":"8d10097e","_setPeridotSpeed(address,uint256)":"825d327f","_setPriceOracle(address)":"55ee1fe1","_setSeizePaused(bool)":"2d70db78","_setTransferPaused(bool)":"8ebf6364","_supportMarket(address)":"a76b3fda","accountAssets(address,uint256)":"dce15449","admin()":"f851a440","allMarkets(uint256)":"52d84d1e","borrowAllowed(address,address,uint256)":"da3d454c","borrowCapGuardian()":"21af4569","borrowCaps(address)":"4a584432","borrowGuardianPaused(address)":"6d154ea5","borrowVerify(address,address,uint256)":"5c778605","checkMembership(address,address)":"929fe9a1","claimPeridot(address)":"36376925","claimPeridot(address,address[])":"9d92e62f","claimPeridot(address[],address[],bool,bool)":"2582e0ec","closeFactorMantissa()":"e8755446","enterMarkets(address[])":"c2998238","exitMarket(address)":"ede4edd0","getAccountLiquidity(address)":"5ec88c79","getAllMarkets()":"b0772d0b","getAssetsIn(address)":"abfceffc","getBlockNumber()":"42cbb15c","getHypotheticalAccountLiquidity(address,address,uint256,uint256)":"4e79238f","getPeridotAddress()":"8b130fa0","initializePERIDOT(address)":"3506d475","isPeridottroller()":"fa707af9","lastContributorBlock(address)":"bea6b8b8","liquidateBorrowAllowed(address,address,address,address,uint256)":"5fc7e71e","liquidateBorrowVerify(address,address,address,address,uint256,uint256)":"47ef3b3b","liquidateCalculateSeizeTokens(address,address,uint256)":"c488847b","liquidationIncentiveMantissa()":"4ada90af","markets(address)":"8e8f294b","maxAssets()":"94b2294b","mintAllowed(address,address,uint256)":"4ef4c3e1","mintGuardianPaused(address)":"731f0c2b","mintVerify(address,address,uint256,uint256)":"41c728b9","oracle()":"7dc0d1d0","pauseGuardian()":"24a3d622","pendingAdmin()":"26782247","pendingPeridottrollerImplementation()":"7c8f3a67","peridotAccrued(address)":"d002d989","peridotBorrowState(address)":"328bb72b","peridotBorrowerIndex(address,address)":"a64db627","peridotContributorSpeeds(address)":"ce27c01e","peridotInitialIndex()":"cd2489f0","peridotRate()":"d088864a","peridotSpeeds(address)":"794595f5","peridotSupplierIndex(address,address)":"0aa4266f","peridotSupplyState(address)":"935dbd26","peridottrollerImplementation()":"18f1408d","redeemAllowed(address,address,uint256)":"eabe7d91","redeemVerify(address,address,uint256,uint256)":"51dff989","repayBorrowAllowed(address,address,address,uint256)":"24008a62","repayBorrowVerify(address,address,address,uint256,uint256)":"1ededc91","seizeAllowed(address,address,address,address,uint256)":"d02f7351","seizeGuardianPaused()":"ac0b0bb7","seizeVerify(address,address,address,address,uint256)":"6d35bf91","transferAllowed(address,address,address,uint256)":"bdcdc258","transferGuardianPaused()":"87f76303","transferVerify(address,address,address,uint256)":"6a56947e","updateContributorRewards(address)":"741b2525"},"id":30}