{"abi":[{"type":"constructor","inputs":[{"name":"_COMP","type":"address","internalType":"address"}],"stateMutability":"nonpayable"},{"type":"function","name":"PERIDOT","inputs":[],"outputs":[{"name":"","type":"address","internalType":"address"}],"stateMutability":"view"},{"type":"function","name":"_become","inputs":[{"name":"unitroller","type":"address","internalType":"contract Unitroller"}],"outputs":[],"stateMutability":"nonpayable"},{"type":"function","name":"_borrowGuardianPaused","inputs":[],"outputs":[{"name":"","type":"bool","internalType":"bool"}],"stateMutability":"view"},{"type":"function","name":"_grantPeridot","inputs":[{"name":"recipient","type":"address","internalType":"address"},{"name":"amount","type":"uint256","internalType":"uint256"}],"outputs":[],"stateMutability":"nonpayable"},{"type":"function","name":"_mintGuardianPaused","inputs":[],"outputs":[{"name":"","type":"bool","internalType":"bool"}],"stateMutability":"view"},{"type":"function","name":"_setBorrowCapGuardian","inputs":[{"name":"newBorrowCapGuardian","type":"address","internalType":"address"}],"outputs":[],"stateMutability":"nonpayable"},{"type":"function","name":"_setBorrowPaused","inputs":[{"name":"pToken","type":"address","internalType":"contract PToken"},{"name":"state","type":"bool","internalType":"bool"}],"outputs":[{"name":"","type":"bool","internalType":"bool"}],"stateMutability":"nonpayable"},{"type":"function","name":"_setCloseFactor","inputs":[{"name":"newCloseFactorMantissa","type":"uint256","internalType":"uint256"}],"outputs":[{"name":"","type":"uint256","internalType":"uint256"}],"stateMutability":"nonpayable"},{"type":"function","name":"_setCollateralFactor","inputs":[{"name":"pToken","type":"address","internalType":"contract PToken"},{"name":"newCollateralFactorMantissa","type":"uint256","internalType":"uint256"}],"outputs":[{"name":"","type":"uint256","internalType":"uint256"}],"stateMutability":"nonpayable"},{"type":"function","name":"_setContributorPeridotSpeed","inputs":[{"name":"contributor","type":"address","internalType":"address"},{"name":"peridotSpeed","type":"uint256","internalType":"uint256"}],"outputs":[],"stateMutability":"nonpayable"},{"type":"function","name":"_setLiquidationIncentive","inputs":[{"name":"newLiquidationIncentiveMantissa","type":"uint256","internalType":"uint256"}],"outputs":[{"name":"","type":"uint256","internalType":"uint256"}],"stateMutability":"nonpayable"},{"type":"function","name":"_setMarketBorrowCaps","inputs":[{"name":"pTokens","type":"address[]","internalType":"contract PToken[]"},{"name":"newBorrowCaps","type":"uint256[]","internalType":"uint256[]"}],"outputs":[],"stateMutability":"nonpayable"},{"type":"function","name":"_setMintPaused","inputs":[{"name":"pToken","type":"address","internalType":"contract PToken"},{"name":"state","type":"bool","internalType":"bool"}],"outputs":[{"name":"","type":"bool","internalType":"bool"}],"stateMutability":"nonpayable"},{"type":"function","name":"_setPauseGuardian","inputs":[{"name":"newPauseGuardian","type":"address","internalType":"address"}],"outputs":[{"name":"","type":"uint256","internalType":"uint256"}],"stateMutability":"nonpayable"},{"type":"function","name":"_setPeridotAddress","inputs":[{"name":"newPeridotAddress","type":"address","internalType":"address"}],"outputs":[{"name":"","type":"uint256","internalType":"uint256"}],"stateMutability":"nonpayable"},{"type":"function","name":"_setPeridotSpeed","inputs":[{"name":"pToken","type":"address","internalType":"contract PToken"},{"name":"peridotSpeed","type":"uint256","internalType":"uint256"}],"outputs":[],"stateMutability":"nonpayable"},{"type":"function","name":"_setPriceOracle","inputs":[{"name":"newOracle","type":"address","internalType":"contract PriceOracle"}],"outputs":[{"name":"","type":"uint256","internalType":"uint256"}],"stateMutability":"nonpayable"},{"type":"function","name":"_setSeizePaused","inputs":[{"name":"state","type":"bool","internalType":"bool"}],"outputs":[{"name":"","type":"bool","internalType":"bool"}],"stateMutability":"nonpayable"},{"type":"function","name":"_setTransferPaused","inputs":[{"name":"state","type":"bool","internalType":"bool"}],"outputs":[{"name":"","type":"bool","internalType":"bool"}],"stateMutability":"nonpayable"},{"type":"function","name":"_supportMarket","inputs":[{"name":"pToken","type":"address","internalType":"contract PToken"}],"outputs":[{"name":"","type":"uint256","internalType":"uint256"}],"stateMutability":"nonpayable"},{"type":"function","name":"accountAssets","inputs":[{"name":"","type":"address","internalType":"address"},{"name":"","type":"uint256","internalType":"uint256"}],"outputs":[{"name":"","type":"address","internalType":"contract PToken"}],"stateMutability":"view"},{"type":"function","name":"admin","inputs":[],"outputs":[{"name":"","type":"address","internalType":"address"}],"stateMutability":"view"},{"type":"function","name":"allMarkets","inputs":[{"name":"","type":"uint256","internalType":"uint256"}],"outputs":[{"name":"","type":"address","internalType":"contract PToken"}],"stateMutability":"view"},{"type":"function","name":"borrowAllowed","inputs":[{"name":"pToken","type":"address","internalType":"address"},{"name":"borrower","type":"address","internalType":"address"},{"name":"borrowAmount","type":"uint256","internalType":"uint256"}],"outputs":[{"name":"","type":"uint256","internalType":"uint256"}],"stateMutability":"nonpayable"},{"type":"function","name":"borrowCapGuardian","inputs":[],"outputs":[{"name":"","type":"address","internalType":"address"}],"stateMutability":"view"},{"type":"function","name":"borrowCaps","inputs":[{"name":"","type":"address","internalType":"address"}],"outputs":[{"name":"","type":"uint256","internalType":"uint256"}],"stateMutability":"view"},{"type":"function","name":"borrowGuardianPaused","inputs":[{"name":"","type":"address","internalType":"address"}],"outputs":[{"name":"","type":"bool","internalType":"bool"}],"stateMutability":"view"},{"type":"function","name":"borrowVerify","inputs":[{"name":"pToken","type":"address","internalType":"address"},{"name":"borrower","type":"address","internalType":"address"},{"name":"borrowAmount","type":"uint256","internalType":"uint256"}],"outputs":[],"stateMutability":"nonpayable"},{"type":"function","name":"checkMembership","inputs":[{"name":"account","type":"address","internalType":"address"},{"name":"pToken","type":"address","internalType":"contract PToken"}],"outputs":[{"name":"","type":"bool","internalType":"bool"}],"stateMutability":"view"},{"type":"function","name":"claimPeridot","inputs":[{"name":"holders","type":"address[]","internalType":"address[]"},{"name":"pTokens","type":"address[]","internalType":"contract PToken[]"},{"name":"borrowers","type":"bool","internalType":"bool"},{"name":"suppliers","type":"bool","internalType":"bool"}],"outputs":[],"stateMutability":"nonpayable"},{"type":"function","name":"claimPeridot","inputs":[{"name":"holder","type":"address","internalType":"address"}],"outputs":[],"stateMutability":"nonpayable"},{"type":"function","name":"claimPeridot","inputs":[{"name":"holder","type":"address","internalType":"address"},{"name":"pTokens","type":"address[]","internalType":"contract PToken[]"}],"outputs":[],"stateMutability":"nonpayable"},{"type":"function","name":"closeFactorMantissa","inputs":[],"outputs":[{"name":"","type":"uint256","internalType":"uint256"}],"stateMutability":"view"},{"type":"function","name":"enterMarkets","inputs":[{"name":"pTokens","type":"address[]","internalType":"address[]"}],"outputs":[{"name":"","type":"uint256[]","internalType":"uint256[]"}],"stateMutability":"nonpayable"},{"type":"function","name":"exitMarket","inputs":[{"name":"pTokenAddress","type":"address","internalType":"address"}],"outputs":[{"name":"","type":"uint256","internalType":"uint256"}],"stateMutability":"nonpayable"},{"type":"function","name":"getAccountLiquidity","inputs":[{"name":"account","type":"address","internalType":"address"}],"outputs":[{"name":"","type":"uint256","internalType":"uint256"},{"name":"","type":"uint256","internalType":"uint256"},{"name":"","type":"uint256","internalType":"uint256"}],"stateMutability":"view"},{"type":"function","name":"getAllMarkets","inputs":[],"outputs":[{"name":"","type":"address[]","internalType":"contract PToken[]"}],"stateMutability":"view"},{"type":"function","name":"getAssetsIn","inputs":[{"name":"account","type":"address","internalType":"address"}],"outputs":[{"name":"","type":"address[]","internalType":"contract PToken[]"}],"stateMutability":"view"},{"type":"function","name":"getBlockNumber","inputs":[],"outputs":[{"name":"","type":"uint256","internalType":"uint256"}],"stateMutability":"view"},{"type":"function","name":"getHypotheticalAccountLiquidity","inputs":[{"name":"account","type":"address","internalType":"address"},{"name":"pTokenModify","type":"address","internalType":"address"},{"name":"redeemTokens","type":"uint256","internalType":"uint256"},{"name":"borrowAmount","type":"uint256","internalType":"uint256"}],"outputs":[{"name":"","type":"uint256","internalType":"uint256"},{"name":"","type":"uint256","internalType":"uint256"},{"name":"","type":"uint256","internalType":"uint256"}],"stateMutability":"view"},{"type":"function","name":"getPeridotAddress","inputs":[],"outputs":[{"name":"","type":"address","internalType":"address"}],"stateMutability":"view"},{"type":"function","name":"isPeridottroller","inputs":[],"outputs":[{"name":"","type":"bool","internalType":"bool"}],"stateMutability":"view"},{"type":"function","name":"lastContributorBlock","inputs":[{"name":"","type":"address","internalType":"address"}],"outputs":[{"name":"","type":"uint256","internalType":"uint256"}],"stateMutability":"view"},{"type":"function","name":"liquidateBorrowAllowed","inputs":[{"name":"pTokenBorrowed","type":"address","internalType":"address"},{"name":"pTokenCollateral","type":"address","internalType":"address"},{"name":"liquidator","type":"address","internalType":"address"},{"name":"borrower","type":"address","internalType":"address"},{"name":"repayAmount","type":"uint256","internalType":"uint256"}],"outputs":[{"name":"","type":"uint256","internalType":"uint256"}],"stateMutability":"nonpayable"},{"type":"function","name":"liquidateBorrowVerify","inputs":[{"name":"pTokenBorrowed","type":"address","internalType":"address"},{"name":"pTokenCollateral","type":"address","internalType":"address"},{"name":"liquidator","type":"address","internalType":"address"},{"name":"borrower","type":"address","internalType":"address"},{"name":"actualRepayAmount","type":"uint256","internalType":"uint256"},{"name":"seizeTokens","type":"uint256","internalType":"uint256"}],"outputs":[],"stateMutability":"nonpayable"},{"type":"function","name":"liquidateCalculateSeizeTokens","inputs":[{"name":"pTokenBorrowed","type":"address","internalType":"address"},{"name":"pTokenCollateral","type":"address","internalType":"address"},{"name":"actualRepayAmount","type":"uint256","internalType":"uint256"}],"outputs":[{"name":"","type":"uint256","internalType":"uint256"},{"name":"","type":"uint256","internalType":"uint256"}],"stateMutability":"view"},{"type":"function","name":"liquidationIncentiveMantissa","inputs":[],"outputs":[{"name":"","type":"uint256","internalType":"uint256"}],"stateMutability":"view"},{"type":"function","name":"markets","inputs":[{"name":"","type":"address","internalType":"address"}],"outputs":[{"name":"isListed","type":"bool","internalType":"bool"},{"name":"collateralFactorMantissa","type":"uint256","internalType":"uint256"},{"name":"isPeridoted","type":"bool","internalType":"bool"}],"stateMutability":"view"},{"type":"function","name":"maxAssets","inputs":[],"outputs":[{"name":"","type":"uint256","internalType":"uint256"}],"stateMutability":"view"},{"type":"function","name":"mintAllowed","inputs":[{"name":"pToken","type":"address","internalType":"address"},{"name":"minter","type":"address","internalType":"address"},{"name":"mintAmount","type":"uint256","internalType":"uint256"}],"outputs":[{"name":"","type":"uint256","internalType":"uint256"}],"stateMutability":"nonpayable"},{"type":"function","name":"mintGuardianPaused","inputs":[{"name":"","type":"address","internalType":"address"}],"outputs":[{"name":"","type":"bool","internalType":"bool"}],"stateMutability":"view"},{"type":"function","name":"mintVerify","inputs":[{"name":"pToken","type":"address","internalType":"address"},{"name":"minter","type":"address","internalType":"address"},{"name":"actualMintAmount","type":"uint256","internalType":"uint256"},{"name":"mintTokens","type":"uint256","internalType":"uint256"}],"outputs":[],"stateMutability":"nonpayable"},{"type":"function","name":"oracle","inputs":[],"outputs":[{"name":"","type":"address","internalType":"contract PriceOracle"}],"stateMutability":"view"},{"type":"function","name":"pauseGuardian","inputs":[],"outputs":[{"name":"","type":"address","internalType":"address"}],"stateMutability":"view"},{"type":"function","name":"pendingAdmin","inputs":[],"outputs":[{"name":"","type":"address","internalType":"address"}],"stateMutability":"view"},{"type":"function","name":"pendingPeridottrollerImplementation","inputs":[],"outputs":[{"name":"","type":"address","internalType":"address"}],"stateMutability":"view"},{"type":"function","name":"peridotAccrued","inputs":[{"name":"","type":"address","internalType":"address"}],"outputs":[{"name":"","type":"uint256","internalType":"uint256"}],"stateMutability":"view"},{"type":"function","name":"peridotBorrowState","inputs":[{"name":"","type":"address","internalType":"address"}],"outputs":[{"name":"index","type":"uint224","internalType":"uint224"},{"name":"block","type":"uint32","internalType":"uint32"}],"stateMutability":"view"},{"type":"function","name":"peridotBorrowerIndex","inputs":[{"name":"","type":"address","internalType":"address"},{"name":"","type":"address","internalType":"address"}],"outputs":[{"name":"","type":"uint256","internalType":"uint256"}],"stateMutability":"view"},{"type":"function","name":"peridotContributorSpeeds","inputs":[{"name":"","type":"address","internalType":"address"}],"outputs":[{"name":"","type":"uint256","internalType":"uint256"}],"stateMutability":"view"},{"type":"function","name":"peridotInitialIndex","inputs":[],"outputs":[{"name":"","type":"uint224","internalType":"uint224"}],"stateMutability":"view"},{"type":"function","name":"peridotRate","inputs":[],"outputs":[{"name":"","type":"uint256","internalType":"uint256"}],"stateMutability":"view"},{"type":"function","name":"peridotSpeeds","inputs":[{"name":"","type":"address","internalType":"address"}],"outputs":[{"name":"","type":"uint256","internalType":"uint256"}],"stateMutability":"view"},{"type":"function","name":"peridotSupplierIndex","inputs":[{"name":"","type":"address","internalType":"address"},{"name":"","type":"address","internalType":"address"}],"outputs":[{"name":"","type":"uint256","internalType":"uint256"}],"stateMutability":"view"},{"type":"function","name":"peridotSupplyState","inputs":[{"name":"","type":"address","internalType":"address"}],"outputs":[{"name":"index","type":"uint224","internalType":"uint224"},{"name":"block","type":"uint32","internalType":"uint32"}],"stateMutability":"view"},{"type":"function","name":"peridottrollerImplementation","inputs":[],"outputs":[{"name":"","type":"address","internalType":"address"}],"stateMutability":"view"},{"type":"function","name":"redeemAllowed","inputs":[{"name":"pToken","type":"address","internalType":"address"},{"name":"redeemer","type":"address","internalType":"address"},{"name":"redeemTokens","type":"uint256","internalType":"uint256"}],"outputs":[{"name":"","type":"uint256","internalType":"uint256"}],"stateMutability":"nonpayable"},{"type":"function","name":"redeemVerify","inputs":[{"name":"pToken","type":"address","internalType":"address"},{"name":"redeemer","type":"address","internalType":"address"},{"name":"redeemAmount","type":"uint256","internalType":"uint256"},{"name":"redeemTokens","type":"uint256","internalType":"uint256"}],"outputs":[],"stateMutability":"nonpayable"},{"type":"function","name":"repayBorrowAllowed","inputs":[{"name":"pToken","type":"address","internalType":"address"},{"name":"payer","type":"address","internalType":"address"},{"name":"borrower","type":"address","internalType":"address"},{"name":"repayAmount","type":"uint256","internalType":"uint256"}],"outputs":[{"name":"","type":"uint256","internalType":"uint256"}],"stateMutability":"nonpayable"},{"type":"function","name":"repayBorrowVerify","inputs":[{"name":"pToken","type":"address","internalType":"address"},{"name":"payer","type":"address","internalType":"address"},{"name":"borrower","type":"address","internalType":"address"},{"name":"actualRepayAmount","type":"uint256","internalType":"uint256"},{"name":"borrowerIndex","type":"uint256","internalType":"uint256"}],"outputs":[],"stateMutability":"nonpayable"},{"type":"function","name":"seizeAllowed","inputs":[{"name":"pTokenCollateral","type":"address","internalType":"address"},{"name":"pTokenBorrowed","type":"address","internalType":"address"},{"name":"liquidator","type":"address","internalType":"address"},{"name":"borrower","type":"address","internalType":"address"},{"name":"seizeTokens","type":"uint256","internalType":"uint256"}],"outputs":[{"name":"","type":"uint256","internalType":"uint256"}],"stateMutability":"nonpayable"},{"type":"function","name":"seizeGuardianPaused","inputs":[],"outputs":[{"name":"","type":"bool","internalType":"bool"}],"stateMutability":"view"},{"type":"function","name":"seizeVerify","inputs":[{"name":"pTokenCollateral","type":"address","internalType":"address"},{"name":"pTokenBorrowed","type":"address","internalType":"address"},{"name":"liquidator","type":"address","internalType":"address"},{"name":"borrower","type":"address","internalType":"address"},{"name":"seizeTokens","type":"uint256","internalType":"uint256"}],"outputs":[],"stateMutability":"nonpayable"},{"type":"function","name":"transferAllowed","inputs":[{"name":"pToken","type":"address","internalType":"address"},{"name":"src","type":"address","internalType":"address"},{"name":"dst","type":"address","internalType":"address"},{"name":"transferTokens","type":"uint256","internalType":"uint256"}],"outputs":[{"name":"","type":"uint256","internalType":"uint256"}],"stateMutability":"nonpayable"},{"type":"function","name":"transferGuardianPaused","inputs":[],"outputs":[{"name":"","type":"bool","internalType":"bool"}],"stateMutability":"view"},{"type":"function","name":"transferVerify","inputs":[{"name":"pToken","type":"address","internalType":"address"},{"name":"src","type":"address","internalType":"address"},{"name":"dst","type":"address","internalType":"address"},{"name":"transferTokens","type":"uint256","internalType":"uint256"}],"outputs":[],"stateMutability":"nonpayable"},{"type":"function","name":"updateContributorRewards","inputs":[{"name":"contributor","type":"address","internalType":"address"}],"outputs":[],"stateMutability":"nonpayable"},{"type":"event","name":"ActionPaused","inputs":[{"name":"action","type":"string","indexed":false,"internalType":"string"},{"name":"pauseState","type":"bool","indexed":false,"internalType":"bool"}],"anonymous":false},{"type":"event","name":"ActionPaused","inputs":[{"name":"pToken","type":"address","indexed":false,"internalType":"contract PToken"},{"name":"action","type":"string","indexed":false,"internalType":"string"},{"name":"pauseState","type":"bool","indexed":false,"internalType":"bool"}],"anonymous":false},{"type":"event","name":"ContributorPeridotSpeedUpdated","inputs":[{"name":"contributor","type":"address","indexed":true,"internalType":"address"},{"name":"newSpeed","type":"uint256","indexed":false,"internalType":"uint256"}],"anonymous":false},{"type":"event","name":"DistributedBorrowerPeridot","inputs":[{"name":"pToken","type":"address","indexed":true,"internalType":"contract PToken"},{"name":"borrower","type":"address","indexed":true,"internalType":"address"},{"name":"peridotDelta","type":"uint256","indexed":false,"internalType":"uint256"},{"name":"peridotBorrowIndex","type":"uint256","indexed":false,"internalType":"uint256"}],"anonymous":false},{"type":"event","name":"DistributedSupplierPeridot","inputs":[{"name":"pToken","type":"address","indexed":true,"internalType":"contract PToken"},{"name":"supplier","type":"address","indexed":true,"internalType":"address"},{"name":"peridotDelta","type":"uint256","indexed":false,"internalType":"uint256"},{"name":"peridotSupplyIndex","type":"uint256","indexed":false,"internalType":"uint256"}],"anonymous":false},{"type":"event","name":"Failure","inputs":[{"name":"error","type":"uint256","indexed":false,"internalType":"uint256"},{"name":"info","type":"uint256","indexed":false,"internalType":"uint256"},{"name":"detail","type":"uint256","indexed":false,"internalType":"uint256"}],"anonymous":false},{"type":"event","name":"MarketEntered","inputs":[{"name":"pToken","type":"address","indexed":false,"internalType":"contract PToken"},{"name":"account","type":"address","indexed":false,"internalType":"address"}],"anonymous":false},{"type":"event","name":"MarketExited","inputs":[{"name":"pToken","type":"address","indexed":false,"internalType":"contract PToken"},{"name":"account","type":"address","indexed":false,"internalType":"address"}],"anonymous":false},{"type":"event","name":"MarketListed","inputs":[{"name":"pToken","type":"address","indexed":false,"internalType":"contract PToken"}],"anonymous":false},{"type":"event","name":"NewBorrowCap","inputs":[{"name":"pToken","type":"address","indexed":true,"internalType":"contract PToken"},{"name":"newBorrowCap","type":"uint256","indexed":false,"internalType":"uint256"}],"anonymous":false},{"type":"event","name":"NewBorrowCapGuardian","inputs":[{"name":"oldBorrowCapGuardian","type":"address","indexed":false,"internalType":"address"},{"name":"newBorrowCapGuardian","type":"address","indexed":false,"internalType":"address"}],"anonymous":false},{"type":"event","name":"NewCloseFactor","inputs":[{"name":"oldCloseFactorMantissa","type":"uint256","indexed":false,"internalType":"uint256"},{"name":"newCloseFactorMantissa","type":"uint256","indexed":false,"internalType":"uint256"}],"anonymous":false},{"type":"event","name":"NewCollateralFactor","inputs":[{"name":"pToken","type":"address","indexed":false,"internalType":"contract PToken"},{"name":"oldCollateralFactorMantissa","type":"uint256","indexed":false,"internalType":"uint256"},{"name":"newCollateralFactorMantissa","type":"uint256","indexed":false,"internalType":"uint256"}],"anonymous":false},{"type":"event","name":"NewLiquidationIncentive","inputs":[{"name":"oldLiquidationIncentiveMantissa","type":"uint256","indexed":false,"internalType":"uint256"},{"name":"newLiquidationIncentiveMantissa","type":"uint256","indexed":false,"internalType":"uint256"}],"anonymous":false},{"type":"event","name":"NewPauseGuardian","inputs":[{"name":"oldPauseGuardian","type":"address","indexed":false,"internalType":"address"},{"name":"newPauseGuardian","type":"address","indexed":false,"internalType":"address"}],"anonymous":false},{"type":"event","name":"NewPeridotAddress","inputs":[{"name":"oldPeridotAddress","type":"address","indexed":false,"internalType":"address"},{"name":"newPeridotAddress","type":"address","indexed":false,"internalType":"address"}],"anonymous":false},{"type":"event","name":"NewPriceOracle","inputs":[{"name":"oldPriceOracle","type":"address","indexed":false,"internalType":"contract PriceOracle"},{"name":"newPriceOracle","type":"address","indexed":false,"internalType":"contract PriceOracle"}],"anonymous":false},{"type":"event","name":"PeridotGranted","inputs":[{"name":"recipient","type":"address","indexed":false,"internalType":"address"},{"name":"amount","type":"uint256","indexed":false,"internalType":"uint256"}],"anonymous":false},{"type":"event","name":"PeridotSpeedUpdated","inputs":[{"name":"pToken","type":"address","indexed":true,"internalType":"contract PToken"},{"name":"newSpeed","type":"uint256","indexed":false,"internalType":"uint256"}],"anonymous":false}],"bytecode":{"object":"0x608034607c57601f6152d738819003918201601f19168301916001600160401b03831184841017608057808492602094604052833981010312607c57516001600160a01b03811690819003607c57601980546001600160a01b03199081169290921790555f80549091163317905560405161524290816100958239f35b5f80fd5b634e487b7160e01b5f52604160045260245ffdfe60806040526004361015610011575f80fd5b5f3560e01c80630aa4266f14611f3157806318c882a514611e1e57806318f1408d14611df65780631d504dc614611c685780631ededc9114611c3d57806321af456914611c1557806324008a6214611bf957806324a3d62214611bd15780632582e0ec1461193a57806326782247146119125780632d70db7814611835578063317b0b7714611789578063328bb72b146117385780633637692514611714578063391957d7146116395780633bcf7ec1146115285780633c94786f1461150357806341c728b9146114f557806342cbb15c146114db57806347ef3b3b146114a75780634a5844321461146f5780634ada90af146114525780634e79238f1461142f5780634ef4c3e1146114155780634fd42e17146113f757806351dff9891461139457806352d84d1e1461136b57806355ee1fe11461133c5780635c7786051461132e5780635ec88c79146112e15780635f5af1aa146112be5780635fc7e71e146112a1578063607ef6c1146110e15780636a56947e146110d35780636d154ea5146110965780636d35bf9114611088578063731f0c2b1461104b578063741b25251461102a578063794595f514610ff25780637c8f3a6714610fca5780637dc0d1d014610fa2578063825d327f14610c8f57806387f7630314610c6a5780638b130fa0146108825780638d10097e14610c475780638e8f294b14610bee5780638ebf636414610b0e578063929fe9a114610ab4578063935dbd2614610a6357806394b2294b14610a465780639a8260d61461093f5780639d92e62f146108fa578063a64db627146108aa578063a6b1395514610882578063a76b3fda1461085f578063abfceffc14610827578063ac0b0bb714610802578063b0772d0b146107d7578063b0cbd62214610721578063bdcdc25814610705578063bea6b8b8146106cd578063c2998238146105cd578063c488847b146105a8578063cd2489f014610580578063ce27c01e14610548578063d002d98914610510578063d02f7351146104f3578063d088864a146104d6578063da3d454c146104bd578063dce154491461045b578063e4028eee14610434578063e6653f3d1461040f578063e8755446146103f2578063eabe7d91146103d9578063ede4edd0146103ae578063f851a440146103875763fa707af914610368575f80fd5b34610383575f36600319011261038357602060405160018152f35b5f80fd5b34610383575f366003190112610383575f546040516001600160a01b039091168152602090f35b346103835760203660031901126103835760206103d16103cc611f81565b6137e4565b604051908152f35b346103835760206103d16103ec3661219f565b91613790565b34610383575f366003190112610383576020600554604051908152f35b34610383575f36600319011261038357602060ff600a5460a81c166040519015158152f35b346103835760403660031901126103835760206103d1610452611f81565b602435906135b2565b3461038357604036600319011261038357610474611f81565b6001600160a01b03165f90815260086020526040902080546024359190821015610383576020916104a491612205565b905460405160039290921b1c6001600160a01b03168152f35b346103835760206103d16104d03661219f565b916132de565b34610383575f366003190112610383576020600e54604051908152f35b346103835760206103d16105063661221a565b5092919091613151565b34610383576020366003190112610383576001600160a01b03610531611f81565b165f526014602052602060405f2054604051908152f35b34610383576020366003190112610383576001600160a01b03610569611f81565b165f526017602052602060405f2054604051908152f35b34610383575f3660031901126103835760206040516a0c097ce7bc90715b34b9f160241b8152f35b346103835760406105c16105bb3661219f565b91612efb565b82519182526020820152f35b346103835760203660031901126103835760043567ffffffffffffffff8111610383576105fe9036906004016120fc565b80519061060a826120e4565b9161061860405193846120c2565b808352610624816120e4565b602084019290601f19013684375f5b82811061067e578385604051918291602083019060208452518091526040830191905f5b818110610665575050500390f35b8251845285945060209384019390920191600101610657565b61069b336001600160a01b03610694848661249b565b5116614fad565b9060128210156106b9576001916106b2828861249b565b5201610633565b634e487b7160e01b5f52602160045260245ffd5b34610383576020366003190112610383576001600160a01b036106ee611f81565b165f526018602052602060405f2054604051908152f35b346103835760206103d16107183661200b565b92919091612e84565b346103835760403660031901126103835761073a611f81565b7f25c31f2aebcdd5690c478d6f15c5d081640120a66428323870ed17257e342c3a60206024359261077161076c614f05565b612927565b61077a816128a4565b836107b9576001600160a01b0381165f9081526018835260408120555b6001600160a01b03165f818152601783526040908190208590555193845292a2005b6001600160a01b0381165f9081526018835260409020439055610797565b34610383575f366003190112610383576107fe6107f26124af565b604051918291826122ad565b0390f35b34610383575f36600319011261038357602060ff600a5460b81c166040519015158152f35b34610383576020366003190112610383576001600160a01b03610848611f81565b165f5260086020526107fe6107f260405f20612502565b346103835760203660031901126103835760206103d161087d611f81565b612c9d565b34610383575f366003190112610383576019546040516001600160a01b039091168152602090f35b34610383576040366003190112610383576108c3611f81565b6108cb611f97565b6001600160a01b039182165f908152601360209081526040808320949093168252928352819020549051908152f35b3461038357604036600319011261038357610913611f81565b6024359067ffffffffffffffff82116103835761093761093d9236906004016120fc565b90612a33565b005b3461038357604036600319011261038357610958611f81565b602435610963614f05565b15610a01576109728183613e1d565b6109bc57604080516001600160a01b03909316835260208301919091527f261934657a3c2333b8c49721bd1f22d7fa808b39ff56c88e0ed42daaff5e2c4e9190819081015b0390a1005b60405162461bcd60e51b815260206004820152601e60248201527f696e73756666696369656e742070657269646f7420666f72206772616e7400006044820152606490fd5b60405162461bcd60e51b815260206004820152601c60248201527f6f6e6c792061646d696e2063616e206772616e742070657269646f74000000006044820152606490fd5b34610383575f366003190112610383576020600754604051908152f35b34610383576020366003190112610383576001600160a01b03610a84611f81565b165f908152601060209081526040918290205482516001600160e01b038216815260e09190911c91810191909152f35b3461038357604036600319011261038357610acd611f81565b6001600160a01b03610add611f97565b165f526009602052600260405f20019060018060a01b03165f52602052602060ff60405f2054166040519015158152f35b34610383576020366003190112610383576020610b29611ffc565b600a5490336001600160a01b038316148015610bdb575b610b499061234c565b5f546001600160a01b031633148015610bcf575b610b66906123a8565b15159060ff60b01b8260b01b169060ff60b01b191617600a557fef159d9a32b2472e32b098f954f3ce62d232939f1c207070b584df1814de2de060806040516040815260086040820152672a3930b739b332b960c11b60608201528385820152a1604051908152f35b50801515600114610b5d565b505f546001600160a01b03163314610b40565b34610383576020366003190112610383576001600160a01b03610c0f611f81565b165f526009602052606060405f2060ff8154169060ff6003600183015492015416906040519215158352602083015215156040820152f35b346103835760203660031901126103835760206103d1610c65611f81565b612972565b34610383575f36600319011261038357602060ff600a5460b01c166040519015158152f35b3461038357604036600319011261038357610ca8611f81565b60243590610cb761076c614f05565b6001600160a01b03165f818152600f6020526040902054909190818115610da5575060405163aa5af0fd60e01b815290602082600481875afa8015610d9a5783925f91610d62575b50604051610d2191610d1082612089565b8152610d1b86613f09565b85613a7f565b03610d2857005b60207f7192d234c68cd375a28075afb25d2e5ab2f48248c84841e104c1bd008785b98091835f52600f82528060405f2055604051908152a2005b9250506020823d602011610d92575b81610d7e602093836120c2565b8101031261038357610d2183925190610cff565b3d9150610d71565b6040513d5f823e3d90fd5b908115610d21579050825f526009602052600160ff60405f205416151503610f5d575f838152601060205260409020548291906001600160e01b03161580610f46575b610ed2575b5f848152601160205260409020546001600160e01b03161580610ebb575b15610d2157610e58604051610e216040826120c2565b601c81527f626c6f636b206e756d6265722065786365656473203332206269747300000000602082015264010000000043106150d6565b610eb6604051610e6781612059565b6a0c097ce7bc90715b34b9f160241b81524363ffffffff1660208083019182525f8881526011909152604090209151905160e01b6001600160e01b0319166001600160e01b0391909116179055565b610d21565b50835f52601160205260405f205460e01c15610e0b565b610ee3604051610e216040826120c2565b610f41604051610ef281612059565b6a0c097ce7bc90715b34b9f160241b81524363ffffffff1660208083019182525f8881526010909152604090209151905160e01b6001600160e01b0319166001600160e01b0391909116179055565b610ded565b50835f52601060205260405f205460e01c15610de8565b60405162461bcd60e51b815260206004820152601c60248201527f70657269646f74206d61726b6574206973206e6f74206c6973746564000000006044820152606490fd5b34610383575f366003190112610383576004546040516001600160a01b039091168152602090f35b34610383575f366003190112610383576003546040516001600160a01b039091168152602090f35b34610383576020366003190112610383576001600160a01b03611013611f81565b165f52600f602052602060405f2054604051908152f35b346103835760203660031901126103835761093d611046611f81565b6128a4565b34610383576020366003190112610383576001600160a01b0361106c611f81565b165f52600b602052602060ff60405f2054166040519015158152f35b346103835761093d3661221a565b34610383576020366003190112610383576001600160a01b036110b7611f81565b165f52600c602052602060ff60405f2054166040519015158152f35b346103835761093d3661200b565b346103835760403660031901126103835760043567ffffffffffffffff81116103835761111290369060040161227c565b60243567ffffffffffffffff81116103835761113290369060040161227c565b9160018060a01b035f54163314801561128d575b1561122a5780151580611221575b156111ec575f5b81811061116457005b806111726001928686612880565b35828060a01b0361118c61118784878b612880565b612890565b165f52601660205260405f20556111a7611187828589612880565b7f6f1951b2aad10f3fc81b86d91105b413a5b3f847a34bbc5ce1904201b14438f660206111d5848989612880565b3592604051938452858060a01b031692a20161115b565b60405162461bcd60e51b815260206004820152600d60248201526c1a5b9d985b1a59081a5b9c1d5d609a1b6044820152606490fd5b50828114611154565b60405162461bcd60e51b815260206004820152603560248201527f6f6e6c792061646d696e206f7220626f72726f772063617020677561726469616044820152746e2063616e2073657420626f72726f77206361707360581b6064820152608490fd5b506015546001600160a01b03163314611146565b346103835760206103d16112b43661221a565b9390929150612760565b346103835760203660031901126103835760206103d16112dc611f81565b6126c4565b34610383576020366003190112610383576113026112fd611f81565b6141f5565b601283929310156106b9576107fe90604051938493846040919493926060820195825260208201520152565b346103835761093d3661219f565b34610383576020366003190112610383576004356001600160a01b0381168103610383576103d160209161264f565b3461038357602036600319011261038357600435600d54811015610383576104a46020916121d9565b34610383576113a236612161565b1592509050816113ed575b506113b457005b60405162461bcd60e51b815260206004820152601160248201527072656465656d546f6b656e73207a65726f60781b6044820152606490fd5b90501515816113ad565b346103835760203660031901126103835760206103d16004356125d8565b346103835760206103d16114283661219f565b5090612553565b346103835761130261144036612161565b9290916001600160a01b031690614b96565b34610383575f366003190112610383576020600654604051908152f35b34610383576020366003190112610383576001600160a01b03611490611f81565b165f526016602052602060405f2054604051908152f35b346103835760c0366003190112610383576114c0611f81565b506114c9611f97565b506114d2611fad565b5061093d611fc3565b34610383575f366003190112610383576020604051438152f35b346103835761093d36612161565b34610383575f36600319011261038357602060ff600a5460a01c166040519015158152f35b34610383576040366003190112610383576020611543611f81565b7f71aec636243f9709bb0007ae15e9afb8150ab01716d75fd7573be5cc096e03b060a061156e611fed565b92600180831b031692835f526009855261158e60ff60405f2054166122ef565b600180831b03600a541633148015611623575b6115aa9061234c565b600180831b035f541633148015611617575b6115c5906123a8565b835f52600b85526115e58160405f209060ff801983541691151516179055565b6040519384526060858501526004606085015263135a5b9d60e21b6080850152151592836040820152a1604051908152f35b508015156001146115bc565b506115aa600180841b035f5416331490506115a1565b3461038357602036600319011261038357611652611f81565b5f546001600160a01b031633036116c057601580546001600160a01b039283166001600160a01b0319821681179092556040805193909116835260208301919091527feda98690e518e9a05f8ec6837663e188211b2da8f4906648b323f2c1d4434e299190819081016109b7565b60405162461bcd60e51b815260206004820152602660248201527f6f6e6c792061646d696e2063616e2073657420626f72726f772063617020677560448201526530b93234b0b760d11b6064820152608490fd5b346103835760203660031901126103835761093d611730611f81565b6109376124af565b34610383576020366003190112610383576001600160a01b03611759611f81565b165f908152601160209081526040918290205482516001600160e01b038216815260e09190911c91810191909152f35b34610383576020366003190112610383575f54600435906001600160a01b031633036117f05760407f3b9670cf975d26958e754b57098eaa2ac914d8d2a31b83257997b9f346110fd991600554908060055582519182526020820152a160206040515f8152f35b60405162461bcd60e51b815260206004820152601f60248201527f6f6e6c792061646d696e2063616e2073657420636c6f736520666163746f72006044820152606490fd5b34610383576020366003190112610383576020611850611ffc565b600a5490336001600160a01b0383161480156118ff575b6118709061234c565b5f546001600160a01b0316331480156118f3575b61188d906123a8565b15159060ff60b81b8260b81b169060ff60b81b191617600a557fef159d9a32b2472e32b098f954f3ce62d232939f1c207070b584df1814de2de060806040516040815260056040820152645365697a6560d81b60608201528385820152a1604051908152f35b50801515600114611884565b505f546001600160a01b03163314611867565b34610383575f366003190112610383576001546040516001600160a01b039091168152602090f35b346103835760803660031901126103835760043567ffffffffffffffff81116103835761196b9036906004016120fc565b60243567ffffffffffffffff81116103835761198b9036906004016120fc565b9060443590811515809203610383576064359283151580940361038357916001805f92149414905b835181101561093d576001600160a01b036119ce828661249b565b5116805f52600960205260ff60405f20541615611b945785611a9d575b826119fa575b506001016119b3565b91949093611a0783613f09565b5f5b8451811015611a8f57600190611a326001600160a01b03611a2a838961249b565b511686614052565b611a6b828060a01b03611a45838961249b565b5116838060a01b03611a57848a61249b565b51165f52601460205260405f205490613e1d565b828060a01b03611a7b838961249b565b51165f52601460205260405f205501611a09565b5093600191959250906119f1565b90604095929495519263aa5af0fd60e01b8452602084600481865afa938415610d9a575f94611b61575b5060405193611ad585612089565b8452611ae18484613a7f565b5f5b8551811015611b5657600190611b0d866001600160a01b03611b05848b61249b565b511687613c8a565b611b32828060a01b03611b20838a61249b565b5116838060a01b03611a57848b61249b565b828060a01b03611b42838a61249b565b51165f52601460205260405f205501611ae3565b5095949250906119eb565b9093506020813d8211611b8c575b81611b7c602093836120c2565b8101031261038357519287611ac7565b3d9150611b6f565b60405162461bcd60e51b81526020600482015260156024820152741b585c9ad95d081b5d5cdd081899481b1a5cdd1959605a1b6044820152606490fd5b34610383575f36600319011261038357600a546040516001600160a01b039091168152602090f35b346103835760206103d1611c0c3661200b565b509190506123ed565b34610383575f366003190112610383576015546040516001600160a01b039091168152602090f35b346103835760a036600319011261038357611c56611f81565b50611c5f611f97565b5061093d611fad565b34610383576020366003190112610383576004356001600160a01b03811690819003610383576040516303e1469160e61b8152602081600481855afa908115610d9a575f91611db4575b506001600160a01b03163303611d5f5760205f9160046040518094819363307a00cd60e21b83525af1908115610d9a575f91611d2d575b50611cf057005b60405162461bcd60e51b815260206004820152601560248201527418da185b99d9481b9bdd08185d5d1a1bdc9a5e9959605a1b6044820152606490fd5b90506020813d602011611d57575b81611d48602093836120c2565b81010312610383575181611ce9565b3d9150611d3b565b60405162461bcd60e51b815260206004820152602760248201527f6f6e6c7920756e6974726f6c6c65722061646d696e2063616e206368616e676560448201526620627261696e7360c81b6064820152608490fd5b90506020813d602011611dee575b81611dcf602093836120c2565b8101031261038357516001600160a01b03811681036103835782611cb2565b3d9150611dc2565b34610383575f366003190112610383576002546040516001600160a01b039091168152602090f35b34610383576040366003190112610383576020611e39611f81565b7f71aec636243f9709bb0007ae15e9afb8150ab01716d75fd7573be5cc096e03b060a0611e64611fed565b92600180831b031692835f5260098552611e8460ff60405f2054166122ef565b600180831b03600a541633148015611f1b575b611ea09061234c565b600180831b035f541633148015611f0f575b611ebb906123a8565b835f52600c8552611edb8160405f209060ff801983541691151516179055565b6040519384526060858501526006606085015265426f72726f7760d01b6080850152151592836040820152a1604051908152f35b50801515600114611eb2565b50611ea0600180841b035f541633149050611e97565b3461038357604036600319011261038357611f4a611f81565b611f52611f97565b6001600160a01b039182165f908152601260209081526040808320949093168252928352819020549051908152f35b600435906001600160a01b038216820361038357565b602435906001600160a01b038216820361038357565b604435906001600160a01b038216820361038357565b606435906001600160a01b038216820361038357565b35906001600160a01b038216820361038357565b60243590811515820361038357565b60043590811515820361038357565b6080906003190112610383576004356001600160a01b038116810361038357906024356001600160a01b038116810361038357906044356001600160a01b0381168103610383579060643590565b6040810190811067ffffffffffffffff82111761207557604052565b634e487b7160e01b5f52604160045260245ffd5b6020810190811067ffffffffffffffff82111761207557604052565b610140810190811067ffffffffffffffff82111761207557604052565b90601f8019910116810190811067ffffffffffffffff82111761207557604052565b67ffffffffffffffff81116120755760051b60200190565b9080601f83011215610383578135612113816120e4565b9261212160405194856120c2565b81845260208085019260051b82010192831161038357602001905b8282106121495750505090565b6020809161215684611fd9565b81520191019061213c565b6080906003190112610383576004356001600160a01b038116810361038357906024356001600160a01b038116810361038357906044359060643590565b6060906003190112610383576004356001600160a01b038116810361038357906024356001600160a01b0381168103610383579060443590565b600d548110156121f157600d5f5260205f2001905f90565b634e487b7160e01b5f52603260045260245ffd5b80548210156121f1575f5260205f2001905f90565b60a0906003190112610383576004356001600160a01b038116810361038357906024356001600160a01b038116810361038357906044356001600160a01b038116810361038357906064356001600160a01b0381168103610383579060843590565b9181601f840112156103835782359167ffffffffffffffff8311610383576020808501948460051b01011161038357565b60206040818301928281528451809452019201905f5b8181106122d05750505090565b82516001600160a01b03168452602093840193909201916001016122c3565b156122f657565b60405162461bcd60e51b815260206004820152602860248201527f63616e6e6f742070617573652061206d61726b65742074686174206973206e6f6044820152671d081b1a5cdd195960c21b6064820152608490fd5b1561235357565b60405162461bcd60e51b815260206004820152602760248201527f6f6e6c7920706175736520677561726469616e20616e642061646d696e2063616044820152666e20706175736560c81b6064820152608490fd5b156123af57565b60405162461bcd60e51b81526020600482015260166024820152756f6e6c792061646d696e2063616e20756e706175736560501b6044820152606490fd5b6001600160a01b0381165f8181526009602052604090205490929060ff16156124935760206004936040519485809263aa5af0fd60e01b82525afa918215610d9a575f9261245d575b61245993506040519261244884612089565b83526124548382613a7f565b613c8a565b5f90565b91506020833d60201161248b575b81612478602093836120c2565b8101031261038357612459925191612436565b3d915061246b565b505050600990565b80518210156121f15760209160051b010190565b60405190600d548083528260208101600d5f5260205f20925f5b8181106124e05750506124de925003836120c2565b565b84546001600160a01b03168352600194850194879450602090930192016124c9565b90604051918281549182825260208201905f5260205f20925f5b8181106125315750506124de925003836120c2565b84546001600160a01b031683526001948501948794506020909301920161251c565b6001600160a01b0381165f818152600b602052604090205491929160ff166125a2575f52600960205260ff60405f2054161561259b578161259661245993613f09565b614052565b5050600990565b60405162461bcd60e51b815260206004820152600e60248201526d1b5a5b9d081a5cc81c185d5cd95960921b6044820152606490fd5b5f546001600160a01b031633036126245760407faeba5a6c40a8ac138134bff1aaa65debf25971188a58804bad717f82f0ec131691600654908060065582519182526020820152a15f90565b505f5160206151ed5f395f51905f52606060405160018152600b60208201525f6040820152a1600190565b5f546001600160a01b031633036126b857600480546001600160a01b039283166001600160a01b0319821681179092556040805193909116835260208301919091527fd52b2b9b7e9ee655fcb95d2e5b9e0c9f69e7ef2b8e9d2d0ea78402d576d22e2291a15f90565b506126c1614ebb565b90565b5f546001600160a01b0316330361273557600a80546001600160a01b039283166001600160a01b0319821681179092556040805193909116835260208301919091527f0613b6ee6a04f0d09f390e4d9318894b9f6ac7fd83897cd8d18896ba579c401e9190819081015b0390a15f90565b505f5160206151ed5f395f51905f52606060405160018152601360208201525f6040820152a1600190565b6001600160a01b03165f8181526009602052604090205490929160ff9091161590811561285e575b5061249357612796816141f5565b91905060128110156106b9578061285657501561284e576040516395dd919360e01b81526001600160a01b03909116600482015290602090829060249082905afa908115610d9a575f9161281a575b5061280a670de0b6b3a7640000916005546040519061280382612089565b81526151d3565b510410612815575f90565b601190565b90506020813d602011612846575b81612835602093836120c2565b81010312610383575161280a6127e5565b3d9150612828565b505050600390565b935050505090565b6001600160a01b03165f9081526009602052604081205460ff16159150612788565b91908110156121f15760051b0190565b356001600160a01b03811681036103835790565b6001600160a01b03165f818152601760209081526040808320546018909252909120546128d190436137d7565b8015158061291e575b6128e357505050565b612902916128f091614ee5565b825f52601460205260405f2054614ef8565b815f52601460205260405f20555f5260186020524360405f2055565b508115156128da565b1561292e57565b606460405162461bcd60e51b815260206004820152602060248201527f6f6e6c792061646d696e2063616e207365742070657269646f742073706565646044820152fd5b5f546001600160a01b031633036126b8576001600160a01b0381169081156129ee57601980546001600160a01b031981169093179055604080516001600160a01b0393841681529290911660208301527ffb3fc9372d916ff638c9fd2f3c82723b644d63ec4847dd0c1d72342176f3916b91908190810161272e565b60405162461bcd60e51b815260206004820152601e60248201527f50455249444f5420616464726573732063616e6e6f74206265207a65726f00006044820152606490fd5b919091604092835191612a4685846120c2565b600183526020830190601f1986013683378351156121f1576001600160a01b0316905291925f925b8051841015612c7f576001600160a01b03612a89858361249b565b5116805f52600960205260ff835f20541615612c4357825163aa5af0fd60e01b815291602083600481855afa928315612c39575f93612c06575b50835192612ad084612089565b8352612adc8383613a7f565b5f5b8551811015612b6357600190612b08856001600160a01b03612b00848b61249b565b511686613c8a565b612b40828060a01b03612b1b838a61249b565b5116838060a01b03612b2d848b61249b565b51165f526014602052875f205490613e1d565b828060a01b03612b50838a61249b565b51165f526014602052865f205501612ade565b5095909150612b7182613f09565b5f5b8451811015612bf757600190612b9c6001600160a01b03612b94838961249b565b511685614052565b612bd4828060a01b03612baf838961249b565b5116838060a01b03612bc1848a61249b565b51165f526014602052865f205490613e1d565b828060a01b03612be4838961249b565b51165f526014602052855f205501612b73565b50946001909401939050612a6e565b9092506020813d8211612c31575b81612c21602093836120c2565b810103126103835751915f612ac3565b3d9150612c14565b84513d5f823e3d90fd5b825162461bcd60e51b81526020600482015260156024820152741b585c9ad95d081b5d5cdd081899481b1a5cdd1959605a1b6044820152606490fd5b50505050565b90816020910312610383575180151581036103835790565b5f546001600160a01b03163303612e59576001600160a01b03165f8181526009602052604090205460ff16612e2e57604051632d44860760e11b8152602081600481855afa8015610d9a57612e01575b50805f5260096020525f6001604082208160ff198254161781556003810160ff19815416905501555f600d54905b818110612d9c575050600d54600160401b8110156120755781612d917fcf583bb0c569eb967f806b11601c4cb93c10310485c67add5f8362c2f212321f93612d6d84600160209601600d55600d612205565b81546001600160a01b0393841660039290921b91821b9390911b1916919091179055565b604051908152a15f90565b82612da6826121d9565b905460039190911b1c6001600160a01b031614612dc557600101612d1b565b60405162461bcd60e51b81526020600482015260146024820152731b585c9ad95d08185b1c9958591e48185919195960621b6044820152606490fd5b612e229060203d602011612e27575b612e1a81836120c2565b810190612c85565b612ced565b503d612e10565b505f5160206151ed5f395f51905f526060604051600a8152601160208201525f6040820152a1600a90565b505f5160206151ed5f395f51905f52606060405160018152601260208201525f6040820152a1600190565b909260ff600a5460b01c16612ec157612e9e908483614f2d565b80612eba575061259661245993612eb483613f09565b82614052565b9250505090565b60405162461bcd60e51b81526020600482015260126024820152711d1c985b9cd9995c881a5cc81c185d5cd95960721b6044820152606490fd5b6004805460405163fc57d4df60e01b81526001600160a01b0393841692810192909252909392911690602084602481855afa938415610d9a575f946130fd575b5092602060249460018060a01b0316926040519586809263fc57d4df60e01b82528660048301525afa938415610d9a575f946130c9575b50801580156130c1575b6130b65760206004926040519384809263182df0f560e01b82525afa918215610d9a575f92613080575b5090612fff61300d925f604051612fbc81612089565b525f604051612fca81612089565b525f604051612fd881612089565b5260065460405190612fe982612089565b815260405191612ff883612089565b825261509e565b9360405190612fe982612089565b915f60405161301b81612089565b525190670de0b6b3a7640000820291808304670de0b6b3a7640000149015171561306c5761305761306492670de0b6b3a7640000945190615080565b6040519061280382612089565b5104905f9190565b634e487b7160e01b5f52601160045260245ffd5b91506020823d6020116130ae575b8161309b602093836120c2565b8101031261038357905190612fff612fa6565b3d915061308e565b50505050600d905f90565b508315612f7c565b9093506020813d6020116130f5575b816130e5602093836120c2565b810103126103835751925f612f72565b3d91506130d8565b93506020843d60201161312a575b81613118602093836120c2565b81010312610383579251926020612f3b565b3d915061310b565b9081602091031261038357516001600160a01b03811681036103835790565b9060ff600a5460b81c1661328c576001600160a01b0382165f8181526009602052604090205490919060ff1615801561326a575b6132605760206004926040519384809263c423fe2960e01b82525afa918215610d9a575f9261323b575b5060405163c423fe2960e01b815290602090829060049082906001600160a01b03165afa908115610d9a575f9161320c575b506001600160a01b039081169116036132045761259661245993612eb483613f09565b505050600290565b61322e915060203d602011613234575b61322681836120c2565b810190613132565b5f6131e1565b503d61321c565b6004919250613258602091823d84116132345761322681836120c2565b9291506131af565b5050505050600990565b506001600160a01b0381165f9081526009602052604090205460ff1615613185565b60405162461bcd60e51b815260206004820152600f60248201526e1cd95a5e99481a5cc81c185d5cd959608a1b6044820152606490fd5b156132ca57565b634e487b7160e01b5f52600160045260245ffd5b9060018060a01b03821692835f52600c60205260ff60405f20541661357a57835f52600960205260ff60405f2054161561357157835f526009602052600260405f200160018060a01b0383165f5260205260ff60405f205416156134e2575b6004805460405163fc57d4df60e01b8152918201869052602090829060249082906001600160a01b03165afa908115610d9a575f916134b0575b50156134a757835f52601660205260405f2054806133f1575b5061339c908483614566565b91905060128110156106b9578061285657506133e95760206004936040519485809263aa5af0fd60e01b82525afa918215610d9a575f9261245d5761245993506040519261244884612089565b505050600490565b6040516308f7a6e360e31b8152602081600481895afa8015610d9a5783905f90613471575b6134209250614ef8565b101561342c575f613390565b60405162461bcd60e51b815260206004820152601960248201527f6d61726b657420626f72726f77206361702072656163686564000000000000006044820152606490fd5b50506020813d60201161349f575b8161348c602093836120c2565b8101031261038357826134209151613416565b3d915061347f565b50505050600d90565b90506020813d6020116134da575b816134cb602093836120c2565b8101031261038357515f613377565b3d91506134be565b833303613534576134f38233614fad565b60128110156106b957806128565750835f526009602052600260405f200160018060a01b0383165f5260205261352f60ff60405f2054166132c3565b61333d565b60405162461bcd60e51b815260206004820152601560248201527439b2b73232b91036bab9ba10313290382a37b5b2b760591b6044820152606490fd5b50505050600990565b60405162461bcd60e51b815260206004820152601060248201526f189bdc9c9bddc81a5cc81c185d5cd95960821b6044820152606490fd5b5f546001600160a01b03163303613764576001600160a01b03165f818152600960205260409020805490919060ff1615613737576040516135f281612089565b838152670c7d713b49da000060405161360a81612089565b5251670c7d713b49da00001061370a5782151580613696575b613669577f70483e6592cd5182d45ac970e05bc62cdcc90e9d8ef2c2dbe686cf383bcd7fc592600160609301818154915560405192835260208301526040820152a15f90565b5050505f5160206151ed5f395f51905f526060604051600d8152600960208201525f6040820152a1600d90565b506004805460405163fc57d4df60e01b8152918201839052602090829060249082906001600160a01b03165afa908115610d9a575f916136d8575b5015613623565b90506020813d602011613702575b816136f3602093836120c2565b8101031261038357515f6136d1565b3d91506136e6565b5050505f5160206151ed5f395f51905f52606060405160068152600860208201525f6040820152a1600690565b5050505f5160206151ed5f395f51905f52606060405160098152600760208201525f6040820152a1600990565b50505f5160206151ed5f395f51905f52606060405160018152600660208201525f6040820152a1600190565b9161379c908284614f2d565b91826137b057612459925061259681613f09565b505090565b9190826080910312610383578151916020810151916060604083015192015190565b9190820391821161306c57565b6040516361bfb47160e11b81523360048201526001600160a01b0382169190608081602481865afa8015610d9a575f5f925f92613a4a575b506139f7576139ca57613830913390614f2d565b8061399d57505f818152600960209081526040808320338452600201918290529091205460ff161561399757335f90815260209182526040808220805460ff1916905560089092522061388290612502565b9081519182905f5b828110613968575b505061389f9083106132c3565b335f52600860205260405f20918254905f19820191821161306c57612d6d6138ca6138e39386612205565b905460039190911b1c6001600160a01b03169185612205565b8154908115613954577fe699a64c18b07ac5b7301aa273f36a2287239eb9501d81950672794afba29a0d9261272e925f1901906139208282612205565b81546001600160a01b0360039290921b82901b19169091559190556040805192909116825233602083015290918291820190565b634e487b7160e01b5f52603160045260245ffd5b836001600160a01b0361397b838561249b565b51161461398a5760010161388a565b935061389f90505f613892565b50505f90565b5f5160206151ed5f395f51905f52915060609060405190600e8252600360208301526040820152a1600e90565b5050505f5160206151ed5f395f51905f526060604051600c8152600260208201525f6040820152a1600c90565b60405162461bcd60e51b815260206004820152602560248201527f657869744d61726b65743a206765744163636f756e74536e617073686f742066604482015264185a5b195960da1b6064820152608490fd5b915050613a6f915060803d608011613a78575b613a6781836120c2565b8101906137b5565b5090915f61381c565b503d613a5d565b6001600160a01b03165f818152601160209081526040808320600f909252909120548154613ab09060e01c436137d7565b938415158080613c81575b15613c4157506040516308f7a6e360e31b8152602081600481885afa908115610d9a575f91613c03575b5094613b07613b3793613b0163ffffffff96946124de9961511d565b92614ee5565b908015613bec57613b1791615149565b905b54604051906001600160e01b0316613b3082612089565b815261519b565b5191613b80604051613b4a6040826120c2565b601a81527f6e657720696e64657820657863656564732032323420626974730000000000006020820152600160e01b85106150d6565b613b91604051610e216040826120c2565b60405192613b9e84612059565b6001600160e01b03908116845243831660208086019182525f93845260119052604090922093518454925160e085811b94909416831691909216179216901b6001600160e01b031916179055565b5050604051613bfa81612089565b5f815290613b19565b9293919590506020833d602011613c39575b81613c22602093836120c2565b810103126103835791519194909291613b07613ae5565b3d9150613c15565b935050509150613c4e5750565b6124de90613c63604051610e216040826120c2565b80546001600160e01b03164360e01b6001600160e01b031916179055565b50821515613abb565b6001600160a01b03165f81815260116020526040908190205490519293919291906001600160e01b0316613cbd83612089565b8252825f52601360205260405f2060018060a01b0385165f5260205260405f205460405190613ceb82612089565b81528251845f52601360205260405f2060018060a01b0387165f5260205260405f20558051613d1c575b5050505050565b613d2690836151b7565b6040516395dd919360e01b81526001600160a01b039095166004860181905294909190602081602481885afa908115610d9a575f91613de3575b50613daa604093613da27f1e5561ff39e796a5299c233e6fd3b11fe55a12e535266cc176f37334e6c7efb696946a0c097ce7bc90715b34b9f160241b9461511d565b905190614ee5565b0490855f526014602052613dc182845f2054614ef8565b865f526014602052835f20555182519182526020820152a35f80808080613d15565b90506020939193813d602011613e15575b81613e01602093836120c2565b810103126103835751909290613daa613d60565b3d9150613df4565b6019546040516370a0823160e01b81523060048201526001600160a01b039091169190602081602481865afa908115610d9a575f91613ed7575b508315159081613ecc575b50613e6c57505090565b60405163a9059cbb60e01b81526001600160a01b039190911660048201526024810192909252602090829060449082905f905af18015610d9a57613eaf57505f90565b613ec79060203d602011612e2757612e1a81836120c2565b505f90565b90508311155f613e62565b90506020813d602011613f01575b81613ef2602093836120c2565b8101031261038357515f613e57565b3d9150613ee5565b60018060a01b0316805f52601060205260405f2090805f52600f60205260405f2054613f39835460e01c436137d7565b908115158080614049575b1561403e57506040516318160ddd60e01b815291602083600481875afa928315610d9a575f93614006575b509363ffffffff92613b07613f87936124de97614ee5565b5191613f9a604051613b4a6040826120c2565b613fab604051610e216040826120c2565b60405192613fb884612059565b6001600160e01b03908116845243831660208086019182525f93845260109052604090922093518454925160e085811b94909416831691909216179216901b6001600160e01b031916179055565b9250936020833d602011614036575b81614022602093836120c2565b8101031261038357915191936124de613f6f565b3d9150614015565b92505050613c4e5750565b50811515613f44565b6001600160a01b03165f8181526010602052604090819020549051906001600160e01b031661408082612089565b8152815f52601260205260405f2060018060a01b0384165f526020526140e860405f2054604051906140b182612089565b81528251845f52601260205260405f2060018060a01b0387165f5260205260405f2055805115806141eb575b6141d5575b826151b7565b6040516370a0823160e01b81526001600160a01b03909416600485018190529390602082602481875afa918215610d9a575f92614191575b50916a0c097ce7bc90715b34b9f160241b6141606040937faf420590cb43d2e84351d8cd2a32149325e748efcd73152eacf2e54ecab59766955190614ee5565b0490855f52601460205261417782845f2054614ef8565b865f526014602052835f20555182519182526020820152a3565b9150916020823d6020116141cd575b816141ad602093836120c2565b8101031261038357905190916a0c097ce7bc90715b34b9f160241b614120565b3d91506141a0565b6a0c097ce7bc90715b34b9f160241b81526140e2565b50825115156140dd565b9060405191614203836120a5565b5f83525f60208401525f60408401525f60608401525f60808401525f60a084015260405161423081612089565b5f815260c084015260405161424481612089565b5f815260e084015260405161425881612089565b5f815261010084015260405161426d81612089565b5f815261012084015260018060a01b0381165f52600860205261429260405f20612502565b6004549092906001600160a01b03165f5b8451811015614526576001600160a01b036142be828761249b565b516040516361bfb47160e11b81526001600160a01b0387166004820152911690608081602481855afa8015610d9a575f915f915f915f91614504575b5060808b015260608a015260408901526144f557805f526009602052600160405f2001546040519061432b82612089565b815260c088015260808701516040519061434482612089565b815260e088015260405163fc57d4df60e01b815260048101829052602081602481875afa908115610d9a575f916144c4575b508060a089015280156144b4576040519061439082612089565b81526101008801526143e46143bd6143b160c08a015160e08b01519061509e565b6101008a01519061509e565b806101208a0152670de0b6b3a76400006143dd60408b01518b51936151d3565b5104614ef8565b875261440b610100880151670de0b6b3a76400006143dd60608b015160208c0151936151d3565b9081602089015215614421575b506001016142a3565b6101208701515f60405161443481612089565b52515f9190156001171561306c57670de0b6b3a7640000614465926040519061445c82612089565b81525104614ef8565b908160208801526101008701515f60405161447f81612089565b52515f90156001171561306c57600192670de0b6b3a76400006144a9926040519061445c82612089565b602088015290614418565b50600d96505f9550859450505050565b90506020813d82116144ed575b816144de602093836120c2565b8101031261038357515f614376565b3d91506144d1565b50600f95505f94508493505050565b92505050614520915060803d8111613a7857613a6781836120c2565b5f6142fa565b505092915050805160208201518082115f1461455557505080602061454f9251910151906137d7565b5f918290565b61455f92506137d7565b5f915f9190565b9092919260405191614577836120a5565b5f83525f60208401525f60408401525f60608401525f60808401525f60a08401526040516145a481612089565b5f815260c08401526040516145b881612089565b5f815260e08401526040516145cc81612089565b5f81526101008401526040516145e181612089565b5f815261012084015260018060a01b0381165f52600860205261460660405f20612502565b6004549094906001600160a01b03165f5b8651811015614850576001600160a01b03614632828961249b565b516040516361bfb47160e11b81526001600160a01b038716600482015291169190608081602481865afa8015610d9a575f915f915f915f9161482e575b5060808b015260608a0152604089015261481c57815f526009602052600160405f200154604051906146a082612089565b815260c08801526080870151604051906146b982612089565b815260e088015260405163fc57d4df60e01b815260048101839052602081602481875afa908115610d9a575f916147eb575b508060a089015280156147d8576040519061470582612089565b81526101008801526147266143bd6143b160c08a015160e08b01519061509e565b875261474d610100880151670de0b6b3a76400006143dd60608b015160208c0151936151d3565b60208801819052916001600160a01b0387161461476f575b6001915001614617565b6101208701515f60405161478281612089565b52515f9290156001171561306c576147b06147ce91670de0b6b3a76400006001956040519061445c82612089565b8060208a0152670de0b6b3a76400006143dd8c6101008c01516151d3565b6020880152614765565b50505050945050505050600d905f905f90565b90506020813d8211614814575b81614805602093836120c2565b8101031261038357515f6146eb565b3d91506147f8565b505050945050505050600f905f905f90565b9250505061484a915060803d8111613a7857613a6781836120c2565b5f61466f565b5050945050509050805160208201518082115f1461455557505080602061454f9251910151906137d7565b92916040519361488a856120a5565b5f85525f60208601525f60408601525f60608601525f60808601525f60a08601526040516148b781612089565b5f815260c08601526040516148cb81612089565b5f815260e08601526040516148df81612089565b5f81526101008601526040516148f481612089565b5f815261012086015260018060a01b0381165f52600860205261491960405f20612502565b6004549094906001600160a01b03165f5b8651811015614b6b576001600160a01b03614945828961249b565b516040516361bfb47160e11b81526001600160a01b0387166004820152911690608081602481855afa8015610d9a575f915f915f915f91614b49575b5060808d015260608c015260408b015261481c57805f526009602052600160405f200154604051906149b282612089565b815260c08a01526080890151604051906149cb82612089565b815260e08a015260405163fc57d4df60e01b815260048101829052602081602481875afa908115610d9a575f91614b18575b508060a08b015280156147d85760405190614a1782612089565b81526101008a0152614a64614a44614a3860c08c015160e08d01519061509e565b6101008c01519061509e565b806101208c0152670de0b6b3a76400006143dd60408d01518d51936151d3565b8952614a8c6101008a0151670de0b6b3a76400006143dd8c60206060820151910151936151d3565b60208a01819052906001600160a01b03881614614aad575b5060010161492a565b614ac990670de0b6b3a76400006143dd886101208d01516151d3565b908160208a01526101008901515f604051614ae381612089565b52515f90156001171561306c57600192670de0b6b3a7640000614b0d926040519061445c82612089565b60208a015290614aa4565b90506020813d8211614b41575b81614b32602093836120c2565b8101031261038357515f6149fd565b3d9150614b25565b92505050614b65915060803d8111613a7857613a6781836120c2565b5f614981565b5050949350505050805160208201518082115f1461455557505080602061454f9251910151906137d7565b92919060405192614ba6846120a5565b5f84525f60208501525f60408501525f60608501525f60808501525f60a0850152604051614bd381612089565b5f815260c0850152604051614be781612089565b5f815260e0850152604051614bfb81612089565b5f8152610100850152604051614c1081612089565b5f815261012085015260018060a01b0385165f526008602052614c3560405f20612502565b6004549095906001600160a01b03165f5b8751811015614e90576001600160a01b03614c61828a61249b565b516040516361bfb47160e11b81526001600160a01b038616600482015291169190608081602481865afa8015610d9a575f915f915f915f91614e6e575b5060808c015260608b015260408a0152614e5c57815f526009602052600160405f20015460405190614ccf82612089565b815260c0890152608088015160405190614ce882612089565b815260e089015260405163fc57d4df60e01b81526004810183905291602083602481875afa928315610d9a575f93614e29575b508260a08a01528215614e165788889160019460405190614d3b82612089565b8152610100830152614d88614d68614d5c60c085015160e08601519061509e565b6101008501519061509e565b80610120850152670de0b6b3a76400006143dd60408601518651936151d3565b8252614daf610100830151670de0b6b3a76400006143dd60608601516020870151936151d3565b90816020840152858060a01b038a1614614dcd575b50505001614c46565b670de0b6b3a76400006143dd614e0994610120614deb9501516151d3565b8060208b0152670de0b6b3a76400006143dd886101008d01516151d3565b602089015286885f614dc4565b50505050505050505050600d905f905f90565b9092506020813d8211614e54575b81614e44602093836120c2565b810103126103835751915f614d1b565b3d9150614e37565b505050505050505050600f905f905f90565b92505050614e8a915060803d8111613a7857613a6781836120c2565b5f614c9e565b5050505050509050805160208201518082115f1461455557505080602061454f9251910151906137d7565b5f5160206151ed5f395f51905f52606060405160018152601060208201525f6040820152a1600190565b8181029291811591840414171561306c57565b9190820180921161306c57565b5f546001600160a01b031633148015614f1b5790565b506002546001600160a01b0316331490565b6001600160a01b03165f8181526009602052604090205491929160ff161561249357805f526009602052600260405f200160018060a01b0384165f5260205260ff60405f20541615614fa657614f829261487b565b91905060128110156106b95780614fa15750614f9c575f90565b600490565b905090565b5050505f90565b9060018060a01b0382165f52600960205260405f2060ff815416156124935760020160018060a01b0382165f5280602052600160ff60405f205416151514614fa6576001600160a01b0382165f90815260209182526040808220805460ff1916600117905560089092522080549290600160401b8410156120755781612d6d8561505d9360017f3ab23ab0d51cccc0c3085aec51f99228625aa1a922b3a8ca89a26b0f2027a1a598018155612205565b604080516001600160a01b0392831681529290911660208301528190810161272e565b811561508a570490565b634e487b7160e01b5f52601260045260245ffd5b670de0b6b3a7640000916150c3915f6040516150b981612089565b5251905190614ee5565b04604051906150d182612089565b815290565b156150de5750565b604460209160405192839162461bcd60e51b83528160048401528051918291826024860152018484015e5f828201840152601f01601f19168101030190fd5b670de0b6b3a7640000810290808204670de0b6b3a7640000149015171561306c576126c1915190615080565b905f60405161515781612089565b526a0c097ce7bc90715b34b9f160241b8202918083046a0c097ce7bc90715b34b9f160241b149015171561306c5761518e91615080565b604051906150d182612089565b9061518e915f6040516151ad81612089565b5251905190614ef8565b9061518e915f6040516151c981612089565b52519051906137d7565b9061518e915f6040516151e581612089565b5251614ee556fe45b96fe442630264581b197e84bbada861235052c5a1aadfff9ea4e40a969aa0a26469706673582212201715c845378a98fae08c65c93ecc1e5cdfa1f1b487161c8b260c4dfcbfc87d7764736f6c634300081b0033","linkReferences":{}},"methodIdentifiers":{"PERIDOT()":"a6b13955","_become(address)":"1d504dc6","_borrowGuardianPaused()":"e6653f3d","_grantPeridot(address,uint256)":"9a8260d6","_mintGuardianPaused()":"3c94786f","_setBorrowCapGuardian(address)":"391957d7","_setBorrowPaused(address,bool)":"18c882a5","_setCloseFactor(uint256)":"317b0b77","_setCollateralFactor(address,uint256)":"e4028eee","_setContributorPeridotSpeed(address,uint256)":"b0cbd622","_setLiquidationIncentive(uint256)":"4fd42e17","_setMarketBorrowCaps(address[],uint256[])":"607ef6c1","_setMintPaused(address,bool)":"3bcf7ec1","_setPauseGuardian(address)":"5f5af1aa","_setPeridotAddress(address)":"8d10097e","_setPeridotSpeed(address,uint256)":"825d327f","_setPriceOracle(address)":"55ee1fe1","_setSeizePaused(bool)":"2d70db78","_setTransferPaused(bool)":"8ebf6364","_supportMarket(address)":"a76b3fda","accountAssets(address,uint256)":"dce15449","admin()":"f851a440","allMarkets(uint256)":"52d84d1e","borrowAllowed(address,address,uint256)":"da3d454c","borrowCapGuardian()":"21af4569","borrowCaps(address)":"4a584432","borrowGuardianPaused(address)":"6d154ea5","borrowVerify(address,address,uint256)":"5c778605","checkMembership(address,address)":"929fe9a1","claimPeridot(address)":"36376925","claimPeridot(address,address[])":"9d92e62f","claimPeridot(address[],address[],bool,bool)":"2582e0ec","closeFactorMantissa()":"e8755446","enterMarkets(address[])":"c2998238","exitMarket(address)":"ede4edd0","getAccountLiquidity(address)":"5ec88c79","getAllMarkets()":"b0772d0b","getAssetsIn(address)":"abfceffc","getBlockNumber()":"42cbb15c","getHypotheticalAccountLiquidity(address,address,uint256,uint256)":"4e79238f","getPeridotAddress()":"8b130fa0","isPeridottroller()":"fa707af9","lastContributorBlock(address)":"bea6b8b8","liquidateBorrowAllowed(address,address,address,address,uint256)":"5fc7e71e","liquidateBorrowVerify(address,address,address,address,uint256,uint256)":"47ef3b3b","liquidateCalculateSeizeTokens(address,address,uint256)":"c488847b","liquidationIncentiveMantissa()":"4ada90af","markets(address)":"8e8f294b","maxAssets()":"94b2294b","mintAllowed(address,address,uint256)":"4ef4c3e1","mintGuardianPaused(address)":"731f0c2b","mintVerify(address,address,uint256,uint256)":"41c728b9","oracle()":"7dc0d1d0","pauseGuardian()":"24a3d622","pendingAdmin()":"26782247","pendingPeridottrollerImplementation()":"7c8f3a67","peridotAccrued(address)":"d002d989","peridotBorrowState(address)":"328bb72b","peridotBorrowerIndex(address,address)":"a64db627","peridotContributorSpeeds(address)":"ce27c01e","peridotInitialIndex()":"cd2489f0","peridotRate()":"d088864a","peridotSpeeds(address)":"794595f5","peridotSupplierIndex(address,address)":"0aa4266f","peridotSupplyState(address)":"935dbd26","peridottrollerImplementation()":"18f1408d","redeemAllowed(address,address,uint256)":"eabe7d91","redeemVerify(address,address,uint256,uint256)":"51dff989","repayBorrowAllowed(address,address,address,uint256)":"24008a62","repayBorrowVerify(address,address,address,uint256,uint256)":"1ededc91","seizeAllowed(address,address,address,address,uint256)":"d02f7351","seizeGuardianPaused()":"ac0b0bb7","seizeVerify(address,address,address,address,uint256)":"6d35bf91","transferAllowed(address,address,address,uint256)":"bdcdc258","transferGuardianPaused()":"87f76303","transferVerify(address,address,address,uint256)":"6a56947e","updateContributorRewards(address)":"741b2525"},"id":27}