{"abi":[{"type":"constructor","inputs":[{"name":"_COMP","type":"address","internalType":"address"}],"stateMutability":"nonpayable"},{"type":"function","name":"PERIDOT","inputs":[],"outputs":[{"name":"","type":"address","internalType":"address"}],"stateMutability":"view"},{"type":"function","name":"_become","inputs":[{"name":"unitroller","type":"address","internalType":"contract Unitroller"}],"outputs":[],"stateMutability":"nonpayable"},{"type":"function","name":"_borrowGuardianPaused","inputs":[],"outputs":[{"name":"","type":"bool","internalType":"bool"}],"stateMutability":"view"},{"type":"function","name":"_grantPeridot","inputs":[{"name":"recipient","type":"address","internalType":"address"},{"name":"amount","type":"uint256","internalType":"uint256"}],"outputs":[],"stateMutability":"nonpayable"},{"type":"function","name":"_mintGuardianPaused","inputs":[],"outputs":[{"name":"","type":"bool","internalType":"bool"}],"stateMutability":"view"},{"type":"function","name":"_setBorrowCapGuardian","inputs":[{"name":"newBorrowCapGuardian","type":"address","internalType":"address"}],"outputs":[],"stateMutability":"nonpayable"},{"type":"function","name":"_setBorrowPaused","inputs":[{"name":"pToken","type":"address","internalType":"contract PToken"},{"name":"state","type":"bool","internalType":"bool"}],"outputs":[{"name":"","type":"bool","internalType":"bool"}],"stateMutability":"nonpayable"},{"type":"function","name":"_setCloseFactor","inputs":[{"name":"newCloseFactorMantissa","type":"uint256","internalType":"uint256"}],"outputs":[{"name":"","type":"uint256","internalType":"uint256"}],"stateMutability":"nonpayable"},{"type":"function","name":"_setCollateralFactor","inputs":[{"name":"pToken","type":"address","internalType":"contract PToken"},{"name":"newCollateralFactorMantissa","type":"uint256","internalType":"uint256"}],"outputs":[{"name":"","type":"uint256","internalType":"uint256"}],"stateMutability":"nonpayable"},{"type":"function","name":"_setContributorPeridotSpeed","inputs":[{"name":"contributor","type":"address","internalType":"address"},{"name":"peridotSpeed","type":"uint256","internalType":"uint256"}],"outputs":[],"stateMutability":"nonpayable"},{"type":"function","name":"_setLiquidationIncentive","inputs":[{"name":"newLiquidationIncentiveMantissa","type":"uint256","internalType":"uint256"}],"outputs":[{"name":"","type":"uint256","internalType":"uint256"}],"stateMutability":"nonpayable"},{"type":"function","name":"_setMarketBorrowCaps","inputs":[{"name":"pTokens","type":"address[]","internalType":"contract PToken[]"},{"name":"newBorrowCaps","type":"uint256[]","internalType":"uint256[]"}],"outputs":[],"stateMutability":"nonpayable"},{"type":"function","name":"_setMintPaused","inputs":[{"name":"pToken","type":"address","internalType":"contract PToken"},{"name":"state","type":"bool","internalType":"bool"}],"outputs":[{"name":"","type":"bool","internalType":"bool"}],"stateMutability":"nonpayable"},{"type":"function","name":"_setPauseGuardian","inputs":[{"name":"newPauseGuardian","type":"address","internalType":"address"}],"outputs":[{"name":"","type":"uint256","internalType":"uint256"}],"stateMutability":"nonpayable"},{"type":"function","name":"_setPeridotSpeed","inputs":[{"name":"pToken","type":"address","internalType":"contract PToken"},{"name":"peridotSpeed","type":"uint256","internalType":"uint256"}],"outputs":[],"stateMutability":"nonpayable"},{"type":"function","name":"_setPriceOracle","inputs":[{"name":"newOracle","type":"address","internalType":"contract PriceOracle"}],"outputs":[{"name":"","type":"uint256","internalType":"uint256"}],"stateMutability":"nonpayable"},{"type":"function","name":"_setSeizePaused","inputs":[{"name":"state","type":"bool","internalType":"bool"}],"outputs":[{"name":"","type":"bool","internalType":"bool"}],"stateMutability":"nonpayable"},{"type":"function","name":"_setTransferPaused","inputs":[{"name":"state","type":"bool","internalType":"bool"}],"outputs":[{"name":"","type":"bool","internalType":"bool"}],"stateMutability":"nonpayable"},{"type":"function","name":"_supportMarket","inputs":[{"name":"pToken","type":"address","internalType":"contract PToken"}],"outputs":[{"name":"","type":"uint256","internalType":"uint256"}],"stateMutability":"nonpayable"},{"type":"function","name":"accountAssets","inputs":[{"name":"","type":"address","internalType":"address"},{"name":"","type":"uint256","internalType":"uint256"}],"outputs":[{"name":"","type":"address","internalType":"contract PToken"}],"stateMutability":"view"},{"type":"function","name":"admin","inputs":[],"outputs":[{"name":"","type":"address","internalType":"address"}],"stateMutability":"view"},{"type":"function","name":"allMarkets","inputs":[{"name":"","type":"uint256","internalType":"uint256"}],"outputs":[{"name":"","type":"address","internalType":"contract PToken"}],"stateMutability":"view"},{"type":"function","name":"borrowAllowed","inputs":[{"name":"pToken","type":"address","internalType":"address"},{"name":"borrower","type":"address","internalType":"address"},{"name":"borrowAmount","type":"uint256","internalType":"uint256"}],"outputs":[{"name":"","type":"uint256","internalType":"uint256"}],"stateMutability":"nonpayable"},{"type":"function","name":"borrowCapGuardian","inputs":[],"outputs":[{"name":"","type":"address","internalType":"address"}],"stateMutability":"view"},{"type":"function","name":"borrowCaps","inputs":[{"name":"","type":"address","internalType":"address"}],"outputs":[{"name":"","type":"uint256","internalType":"uint256"}],"stateMutability":"view"},{"type":"function","name":"borrowGuardianPaused","inputs":[{"name":"","type":"address","internalType":"address"}],"outputs":[{"name":"","type":"bool","internalType":"bool"}],"stateMutability":"view"},{"type":"function","name":"borrowVerify","inputs":[{"name":"pToken","type":"address","internalType":"address"},{"name":"borrower","type":"address","internalType":"address"},{"name":"borrowAmount","type":"uint256","internalType":"uint256"}],"outputs":[],"stateMutability":"nonpayable"},{"type":"function","name":"checkMembership","inputs":[{"name":"account","type":"address","internalType":"address"},{"name":"pToken","type":"address","internalType":"contract PToken"}],"outputs":[{"name":"","type":"bool","internalType":"bool"}],"stateMutability":"view"},{"type":"function","name":"claimPeridot","inputs":[{"name":"holders","type":"address[]","internalType":"address[]"},{"name":"pTokens","type":"address[]","internalType":"contract PToken[]"},{"name":"borrowers","type":"bool","internalType":"bool"},{"name":"suppliers","type":"bool","internalType":"bool"}],"outputs":[],"stateMutability":"nonpayable"},{"type":"function","name":"claimPeridot","inputs":[{"name":"holder","type":"address","internalType":"address"}],"outputs":[],"stateMutability":"nonpayable"},{"type":"function","name":"claimPeridot","inputs":[{"name":"holder","type":"address","internalType":"address"},{"name":"pTokens","type":"address[]","internalType":"contract PToken[]"}],"outputs":[],"stateMutability":"nonpayable"},{"type":"function","name":"closeFactorMantissa","inputs":[],"outputs":[{"name":"","type":"uint256","internalType":"uint256"}],"stateMutability":"view"},{"type":"function","name":"enterMarkets","inputs":[{"name":"pTokens","type":"address[]","internalType":"address[]"}],"outputs":[{"name":"","type":"uint256[]","internalType":"uint256[]"}],"stateMutability":"nonpayable"},{"type":"function","name":"exitMarket","inputs":[{"name":"pTokenAddress","type":"address","internalType":"address"}],"outputs":[{"name":"","type":"uint256","internalType":"uint256"}],"stateMutability":"nonpayable"},{"type":"function","name":"getAccountLiquidity","inputs":[{"name":"account","type":"address","internalType":"address"}],"outputs":[{"name":"","type":"uint256","internalType":"uint256"},{"name":"","type":"uint256","internalType":"uint256"},{"name":"","type":"uint256","internalType":"uint256"}],"stateMutability":"view"},{"type":"function","name":"getAllMarkets","inputs":[],"outputs":[{"name":"","type":"address[]","internalType":"contract PToken[]"}],"stateMutability":"view"},{"type":"function","name":"getAssetsIn","inputs":[{"name":"account","type":"address","internalType":"address"}],"outputs":[{"name":"","type":"address[]","internalType":"contract PToken[]"}],"stateMutability":"view"},{"type":"function","name":"getBlockNumber","inputs":[],"outputs":[{"name":"","type":"uint256","internalType":"uint256"}],"stateMutability":"view"},{"type":"function","name":"getHypotheticalAccountLiquidity","inputs":[{"name":"account","type":"address","internalType":"address"},{"name":"pTokenModify","type":"address","internalType":"address"},{"name":"redeemTokens","type":"uint256","internalType":"uint256"},{"name":"borrowAmount","type":"uint256","internalType":"uint256"}],"outputs":[{"name":"","type":"uint256","internalType":"uint256"},{"name":"","type":"uint256","internalType":"uint256"},{"name":"","type":"uint256","internalType":"uint256"}],"stateMutability":"view"},{"type":"function","name":"getPeridotAddress","inputs":[],"outputs":[{"name":"","type":"address","internalType":"address"}],"stateMutability":"view"},{"type":"function","name":"isPeridottroller","inputs":[],"outputs":[{"name":"","type":"bool","internalType":"bool"}],"stateMutability":"view"},{"type":"function","name":"lastContributorBlock","inputs":[{"name":"","type":"address","internalType":"address"}],"outputs":[{"name":"","type":"uint256","internalType":"uint256"}],"stateMutability":"view"},{"type":"function","name":"liquidateBorrowAllowed","inputs":[{"name":"pTokenBorrowed","type":"address","internalType":"address"},{"name":"pTokenCollateral","type":"address","internalType":"address"},{"name":"liquidator","type":"address","internalType":"address"},{"name":"borrower","type":"address","internalType":"address"},{"name":"repayAmount","type":"uint256","internalType":"uint256"}],"outputs":[{"name":"","type":"uint256","internalType":"uint256"}],"stateMutability":"nonpayable"},{"type":"function","name":"liquidateBorrowVerify","inputs":[{"name":"pTokenBorrowed","type":"address","internalType":"address"},{"name":"pTokenCollateral","type":"address","internalType":"address"},{"name":"liquidator","type":"address","internalType":"address"},{"name":"borrower","type":"address","internalType":"address"},{"name":"actualRepayAmount","type":"uint256","internalType":"uint256"},{"name":"seizeTokens","type":"uint256","internalType":"uint256"}],"outputs":[],"stateMutability":"nonpayable"},{"type":"function","name":"liquidateCalculateSeizeTokens","inputs":[{"name":"pTokenBorrowed","type":"address","internalType":"address"},{"name":"pTokenCollateral","type":"address","internalType":"address"},{"name":"actualRepayAmount","type":"uint256","internalType":"uint256"}],"outputs":[{"name":"","type":"uint256","internalType":"uint256"},{"name":"","type":"uint256","internalType":"uint256"}],"stateMutability":"view"},{"type":"function","name":"liquidationIncentiveMantissa","inputs":[],"outputs":[{"name":"","type":"uint256","internalType":"uint256"}],"stateMutability":"view"},{"type":"function","name":"markets","inputs":[{"name":"","type":"address","internalType":"address"}],"outputs":[{"name":"isListed","type":"bool","internalType":"bool"},{"name":"collateralFactorMantissa","type":"uint256","internalType":"uint256"},{"name":"isPeridoted","type":"bool","internalType":"bool"}],"stateMutability":"view"},{"type":"function","name":"maxAssets","inputs":[],"outputs":[{"name":"","type":"uint256","internalType":"uint256"}],"stateMutability":"view"},{"type":"function","name":"mintAllowed","inputs":[{"name":"pToken","type":"address","internalType":"address"},{"name":"minter","type":"address","internalType":"address"},{"name":"mintAmount","type":"uint256","internalType":"uint256"}],"outputs":[{"name":"","type":"uint256","internalType":"uint256"}],"stateMutability":"nonpayable"},{"type":"function","name":"mintGuardianPaused","inputs":[{"name":"","type":"address","internalType":"address"}],"outputs":[{"name":"","type":"bool","internalType":"bool"}],"stateMutability":"view"},{"type":"function","name":"mintVerify","inputs":[{"name":"pToken","type":"address","internalType":"address"},{"name":"minter","type":"address","internalType":"address"},{"name":"actualMintAmount","type":"uint256","internalType":"uint256"},{"name":"mintTokens","type":"uint256","internalType":"uint256"}],"outputs":[],"stateMutability":"nonpayable"},{"type":"function","name":"oracle","inputs":[],"outputs":[{"name":"","type":"address","internalType":"contract PriceOracle"}],"stateMutability":"view"},{"type":"function","name":"pauseGuardian","inputs":[],"outputs":[{"name":"","type":"address","internalType":"address"}],"stateMutability":"view"},{"type":"function","name":"pendingAdmin","inputs":[],"outputs":[{"name":"","type":"address","internalType":"address"}],"stateMutability":"view"},{"type":"function","name":"pendingPeridottrollerImplementation","inputs":[],"outputs":[{"name":"","type":"address","internalType":"address"}],"stateMutability":"view"},{"type":"function","name":"peridotAccrued","inputs":[{"name":"","type":"address","internalType":"address"}],"outputs":[{"name":"","type":"uint256","internalType":"uint256"}],"stateMutability":"view"},{"type":"function","name":"peridotBorrowState","inputs":[{"name":"","type":"address","internalType":"address"}],"outputs":[{"name":"index","type":"uint224","internalType":"uint224"},{"name":"block","type":"uint32","internalType":"uint32"}],"stateMutability":"view"},{"type":"function","name":"peridotBorrowerIndex","inputs":[{"name":"","type":"address","internalType":"address"},{"name":"","type":"address","internalType":"address"}],"outputs":[{"name":"","type":"uint256","internalType":"uint256"}],"stateMutability":"view"},{"type":"function","name":"peridotContributorSpeeds","inputs":[{"name":"","type":"address","internalType":"address"}],"outputs":[{"name":"","type":"uint256","internalType":"uint256"}],"stateMutability":"view"},{"type":"function","name":"peridotInitialIndex","inputs":[],"outputs":[{"name":"","type":"uint224","internalType":"uint224"}],"stateMutability":"view"},{"type":"function","name":"peridotRate","inputs":[],"outputs":[{"name":"","type":"uint256","internalType":"uint256"}],"stateMutability":"view"},{"type":"function","name":"peridotSpeeds","inputs":[{"name":"","type":"address","internalType":"address"}],"outputs":[{"name":"","type":"uint256","internalType":"uint256"}],"stateMutability":"view"},{"type":"function","name":"peridotSupplierIndex","inputs":[{"name":"","type":"address","internalType":"address"},{"name":"","type":"address","internalType":"address"}],"outputs":[{"name":"","type":"uint256","internalType":"uint256"}],"stateMutability":"view"},{"type":"function","name":"peridotSupplyState","inputs":[{"name":"","type":"address","internalType":"address"}],"outputs":[{"name":"index","type":"uint224","internalType":"uint224"},{"name":"block","type":"uint32","internalType":"uint32"}],"stateMutability":"view"},{"type":"function","name":"peridottrollerImplementation","inputs":[],"outputs":[{"name":"","type":"address","internalType":"address"}],"stateMutability":"view"},{"type":"function","name":"redeemAllowed","inputs":[{"name":"pToken","type":"address","internalType":"address"},{"name":"redeemer","type":"address","internalType":"address"},{"name":"redeemTokens","type":"uint256","internalType":"uint256"}],"outputs":[{"name":"","type":"uint256","internalType":"uint256"}],"stateMutability":"nonpayable"},{"type":"function","name":"redeemVerify","inputs":[{"name":"pToken","type":"address","internalType":"address"},{"name":"redeemer","type":"address","internalType":"address"},{"name":"redeemAmount","type":"uint256","internalType":"uint256"},{"name":"redeemTokens","type":"uint256","internalType":"uint256"}],"outputs":[],"stateMutability":"nonpayable"},{"type":"function","name":"repayBorrowAllowed","inputs":[{"name":"pToken","type":"address","internalType":"address"},{"name":"payer","type":"address","internalType":"address"},{"name":"borrower","type":"address","internalType":"address"},{"name":"repayAmount","type":"uint256","internalType":"uint256"}],"outputs":[{"name":"","type":"uint256","internalType":"uint256"}],"stateMutability":"nonpayable"},{"type":"function","name":"repayBorrowVerify","inputs":[{"name":"pToken","type":"address","internalType":"address"},{"name":"payer","type":"address","internalType":"address"},{"name":"borrower","type":"address","internalType":"address"},{"name":"actualRepayAmount","type":"uint256","internalType":"uint256"},{"name":"borrowerIndex","type":"uint256","internalType":"uint256"}],"outputs":[],"stateMutability":"nonpayable"},{"type":"function","name":"seizeAllowed","inputs":[{"name":"pTokenCollateral","type":"address","internalType":"address"},{"name":"pTokenBorrowed","type":"address","internalType":"address"},{"name":"liquidator","type":"address","internalType":"address"},{"name":"borrower","type":"address","internalType":"address"},{"name":"seizeTokens","type":"uint256","internalType":"uint256"}],"outputs":[{"name":"","type":"uint256","internalType":"uint256"}],"stateMutability":"nonpayable"},{"type":"function","name":"seizeGuardianPaused","inputs":[],"outputs":[{"name":"","type":"bool","internalType":"bool"}],"stateMutability":"view"},{"type":"function","name":"seizeVerify","inputs":[{"name":"pTokenCollateral","type":"address","internalType":"address"},{"name":"pTokenBorrowed","type":"address","internalType":"address"},{"name":"liquidator","type":"address","internalType":"address"},{"name":"borrower","type":"address","internalType":"address"},{"name":"seizeTokens","type":"uint256","internalType":"uint256"}],"outputs":[],"stateMutability":"nonpayable"},{"type":"function","name":"transferAllowed","inputs":[{"name":"pToken","type":"address","internalType":"address"},{"name":"src","type":"address","internalType":"address"},{"name":"dst","type":"address","internalType":"address"},{"name":"transferTokens","type":"uint256","internalType":"uint256"}],"outputs":[{"name":"","type":"uint256","internalType":"uint256"}],"stateMutability":"nonpayable"},{"type":"function","name":"transferGuardianPaused","inputs":[],"outputs":[{"name":"","type":"bool","internalType":"bool"}],"stateMutability":"view"},{"type":"function","name":"transferVerify","inputs":[{"name":"pToken","type":"address","internalType":"address"},{"name":"src","type":"address","internalType":"address"},{"name":"dst","type":"address","internalType":"address"},{"name":"transferTokens","type":"uint256","internalType":"uint256"}],"outputs":[],"stateMutability":"nonpayable"},{"type":"function","name":"updateContributorRewards","inputs":[{"name":"contributor","type":"address","internalType":"address"}],"outputs":[],"stateMutability":"nonpayable"},{"type":"event","name":"ActionPaused","inputs":[{"name":"action","type":"string","indexed":false,"internalType":"string"},{"name":"pauseState","type":"bool","indexed":false,"internalType":"bool"}],"anonymous":false},{"type":"event","name":"ActionPaused","inputs":[{"name":"pToken","type":"address","indexed":false,"internalType":"contract PToken"},{"name":"action","type":"string","indexed":false,"internalType":"string"},{"name":"pauseState","type":"bool","indexed":false,"internalType":"bool"}],"anonymous":false},{"type":"event","name":"ContributorPeridotSpeedUpdated","inputs":[{"name":"contributor","type":"address","indexed":true,"internalType":"address"},{"name":"newSpeed","type":"uint256","indexed":false,"internalType":"uint256"}],"anonymous":false},{"type":"event","name":"DistributedBorrowerPeridot","inputs":[{"name":"pToken","type":"address","indexed":true,"internalType":"contract PToken"},{"name":"borrower","type":"address","indexed":true,"internalType":"address"},{"name":"peridotDelta","type":"uint256","indexed":false,"internalType":"uint256"},{"name":"peridotBorrowIndex","type":"uint256","indexed":false,"internalType":"uint256"}],"anonymous":false},{"type":"event","name":"DistributedSupplierPeridot","inputs":[{"name":"pToken","type":"address","indexed":true,"internalType":"contract PToken"},{"name":"supplier","type":"address","indexed":true,"internalType":"address"},{"name":"peridotDelta","type":"uint256","indexed":false,"internalType":"uint256"},{"name":"peridotSupplyIndex","type":"uint256","indexed":false,"internalType":"uint256"}],"anonymous":false},{"type":"event","name":"Failure","inputs":[{"name":"error","type":"uint256","indexed":false,"internalType":"uint256"},{"name":"info","type":"uint256","indexed":false,"internalType":"uint256"},{"name":"detail","type":"uint256","indexed":false,"internalType":"uint256"}],"anonymous":false},{"type":"event","name":"MarketEntered","inputs":[{"name":"pToken","type":"address","indexed":false,"internalType":"contract PToken"},{"name":"account","type":"address","indexed":false,"internalType":"address"}],"anonymous":false},{"type":"event","name":"MarketExited","inputs":[{"name":"pToken","type":"address","indexed":false,"internalType":"contract PToken"},{"name":"account","type":"address","indexed":false,"internalType":"address"}],"anonymous":false},{"type":"event","name":"MarketListed","inputs":[{"name":"pToken","type":"address","indexed":false,"internalType":"contract PToken"}],"anonymous":false},{"type":"event","name":"NewBorrowCap","inputs":[{"name":"pToken","type":"address","indexed":true,"internalType":"contract PToken"},{"name":"newBorrowCap","type":"uint256","indexed":false,"internalType":"uint256"}],"anonymous":false},{"type":"event","name":"NewBorrowCapGuardian","inputs":[{"name":"oldBorrowCapGuardian","type":"address","indexed":false,"internalType":"address"},{"name":"newBorrowCapGuardian","type":"address","indexed":false,"internalType":"address"}],"anonymous":false},{"type":"event","name":"NewCloseFactor","inputs":[{"name":"oldCloseFactorMantissa","type":"uint256","indexed":false,"internalType":"uint256"},{"name":"newCloseFactorMantissa","type":"uint256","indexed":false,"internalType":"uint256"}],"anonymous":false},{"type":"event","name":"NewCollateralFactor","inputs":[{"name":"pToken","type":"address","indexed":false,"internalType":"contract PToken"},{"name":"oldCollateralFactorMantissa","type":"uint256","indexed":false,"internalType":"uint256"},{"name":"newCollateralFactorMantissa","type":"uint256","indexed":false,"internalType":"uint256"}],"anonymous":false},{"type":"event","name":"NewLiquidationIncentive","inputs":[{"name":"oldLiquidationIncentiveMantissa","type":"uint256","indexed":false,"internalType":"uint256"},{"name":"newLiquidationIncentiveMantissa","type":"uint256","indexed":false,"internalType":"uint256"}],"anonymous":false},{"type":"event","name":"NewPauseGuardian","inputs":[{"name":"oldPauseGuardian","type":"address","indexed":false,"internalType":"address"},{"name":"newPauseGuardian","type":"address","indexed":false,"internalType":"address"}],"anonymous":false},{"type":"event","name":"NewPriceOracle","inputs":[{"name":"oldPriceOracle","type":"address","indexed":false,"internalType":"contract PriceOracle"},{"name":"newPriceOracle","type":"address","indexed":false,"internalType":"contract PriceOracle"}],"anonymous":false},{"type":"event","name":"PeridotGranted","inputs":[{"name":"recipient","type":"address","indexed":false,"internalType":"address"},{"name":"amount","type":"uint256","indexed":false,"internalType":"uint256"}],"anonymous":false},{"type":"event","name":"PeridotSpeedUpdated","inputs":[{"name":"pToken","type":"address","indexed":true,"internalType":"contract PToken"},{"name":"newSpeed","type":"uint256","indexed":false,"internalType":"uint256"}],"anonymous":false}],"bytecode":{"object":"0x608034607c57601f6151e038819003918201601f19168301916001600160401b03831184841017608057808492602094604052833981010312607c57516001600160a01b03811690819003607c57601980546001600160a01b03199081169290921790555f80549091163317905560405161514b90816100958239f35b5f80fd5b634e487b7160e01b5f52604160045260245ffdfe60806040526004361015610011575f80fd5b5f3560e01c80630aa4266f14611f0357806318c882a514611df057806318f1408d14611dc85780631d504dc614611c3a5780631ededc9114611c0f57806321af456914611be757806324008a6214611bcb57806324a3d62214611ba35780632582e0ec1461190c57806326782247146118e45780632d70db7814611807578063317b0b771461175b578063328bb72b1461170a57806336376925146116e6578063391957d71461160b5780633bcf7ec1146114fa5780633c94786f146114d557806341c728b9146114c757806342cbb15c146114ad57806347ef3b3b146114795780634a584432146114415780634ada90af146114245780634e79238f146114015780634ef4c3e1146113e75780634fd42e17146113c957806351dff9891461136657806352d84d1e1461133d57806355ee1fe11461130e5780635c778605146113005780635ec88c79146112b35780635f5af1aa146112905780635fc7e71e14611273578063607ef6c1146110b35780636a56947e146110a55780636d154ea5146110685780636d35bf911461105a578063731f0c2b1461101d578063741b252514610ffc578063794595f514610fc45780637c8f3a6714610f9c5780637dc0d1d014610f74578063825d327f14610c6157806387f7630314610c3c5780638b130fa0146108775780638e8f294b14610be35780638ebf636414610b03578063929fe9a114610aa9578063935dbd2614610a5857806394b2294b14610a3b5780639a8260d6146109345780639d92e62f146108ef578063a64db6271461089f578063a6b1395514610877578063a76b3fda14610854578063abfceffc1461081c578063ac0b0bb7146107f7578063b0772d0b146107cc578063b0cbd62214610716578063bdcdc258146106fa578063bea6b8b8146106c2578063c2998238146105c2578063c488847b1461059d578063cd2489f014610575578063ce27c01e1461053d578063d002d98914610505578063d02f7351146104e8578063d088864a146104cb578063da3d454c146104b2578063dce1544914610450578063e4028eee14610429578063e6653f3d14610404578063e8755446146103e7578063eabe7d91146103ce578063ede4edd0146103a3578063f851a4401461037c5763fa707af91461035d575f80fd5b34610378575f36600319011261037857602060405160018152f35b5f80fd5b34610378575f366003190112610378575f546040516001600160a01b039091168152602090f35b346103785760203660031901126103785760206103c66103c1611f53565b613714565b604051908152f35b346103785760206103c66103e136612171565b916136c0565b34610378575f366003190112610378576020600554604051908152f35b34610378575f36600319011261037857602060ff600a5460a81c166040519015158152f35b346103785760403660031901126103785760206103c6610447611f53565b602435906134e2565b3461037857604036600319011261037857610469611f53565b6001600160a01b03165f9081526008602052604090208054602435919082101561037857602091610499916121d7565b905460405160039290921b1c6001600160a01b03168152f35b346103785760206103c66104c536612171565b9161320e565b34610378575f366003190112610378576020600e54604051908152f35b346103785760206103c66104fb366121ec565b5092919091613081565b34610378576020366003190112610378576001600160a01b03610526611f53565b165f526014602052602060405f2054604051908152f35b34610378576020366003190112610378576001600160a01b0361055e611f53565b165f526017602052602060405f2054604051908152f35b34610378575f3660031901126103785760206040516a0c097ce7bc90715b34b9f160241b8152f35b346103785760406105b66105b036612171565b91612e2b565b82519182526020820152f35b346103785760203660031901126103785760043567ffffffffffffffff8111610378576105f39036906004016120ce565b8051906105ff826120b6565b9161060d6040519384612094565b808352610619816120b6565b602084019290601f19013684375f5b828110610673578385604051918291602083019060208452518091526040830191905f5b81811061065a575050500390f35b825184528594506020938401939092019160010161064c565b610690336001600160a01b03610689848661246d565b5116614eb3565b9060128210156106ae576001916106a7828861246d565b5201610628565b634e487b7160e01b5f52602160045260245ffd5b34610378576020366003190112610378576001600160a01b036106e3611f53565b165f526018602052602060405f2054604051908152f35b346103785760206103c661070d36611fdd565b92919091612db4565b346103785760403660031901126103785761072f611f53565b7f25c31f2aebcdd5690c478d6f15c5d081640120a66428323870ed17257e342c3a602060243592610766610761614e0b565b612918565b61076f81612895565b836107ae576001600160a01b0381165f9081526018835260408120555b6001600160a01b03165f818152601783526040908190208590555193845292a2005b6001600160a01b0381165f908152601883526040902043905561078c565b34610378575f366003190112610378576107f36107e7612481565b6040519182918261227f565b0390f35b34610378575f36600319011261037857602060ff600a5460b81c166040519015158152f35b34610378576020366003190112610378576001600160a01b0361083d611f53565b165f5260086020526107f36107e760405f206124d4565b346103785760203660031901126103785760206103c6610872611f53565b612bcd565b34610378575f366003190112610378576019546040516001600160a01b039091168152602090f35b34610378576040366003190112610378576108b8611f53565b6108c0611f69565b6001600160a01b039182165f908152601360209081526040808320949093168252928352819020549051908152f35b3461037857604036600319011261037857610908611f53565b6024359067ffffffffffffffff82116103785761092c6109329236906004016120ce565b90612963565b005b346103785760403660031901126103785761094d611f53565b602435610958614e0b565b156109f6576109678183613d4d565b6109b157604080516001600160a01b03909316835260208301919091527f261934657a3c2333b8c49721bd1f22d7fa808b39ff56c88e0ed42daaff5e2c4e9190819081015b0390a1005b60405162461bcd60e51b815260206004820152601e60248201527f696e73756666696369656e742070657269646f7420666f72206772616e7400006044820152606490fd5b60405162461bcd60e51b815260206004820152601c60248201527f6f6e6c792061646d696e2063616e206772616e742070657269646f74000000006044820152606490fd5b34610378575f366003190112610378576020600754604051908152f35b34610378576020366003190112610378576001600160a01b03610a79611f53565b165f908152601060209081526040918290205482516001600160e01b038216815260e09190911c91810191909152f35b3461037857604036600319011261037857610ac2611f53565b6001600160a01b03610ad2611f69565b165f526009602052600260405f20019060018060a01b03165f52602052602060ff60405f2054166040519015158152f35b34610378576020366003190112610378576020610b1e611fce565b600a5490336001600160a01b038316148015610bd0575b610b3e9061231e565b5f546001600160a01b031633148015610bc4575b610b5b9061237a565b15159060ff60b01b8260b01b169060ff60b01b191617600a557fef159d9a32b2472e32b098f954f3ce62d232939f1c207070b584df1814de2de060806040516040815260086040820152672a3930b739b332b960c11b60608201528385820152a1604051908152f35b50801515600114610b52565b505f546001600160a01b03163314610b35565b34610378576020366003190112610378576001600160a01b03610c04611f53565b165f526009602052606060405f2060ff8154169060ff6003600183015492015416906040519215158352602083015215156040820152f35b34610378575f36600319011261037857602060ff600a5460b01c166040519015158152f35b3461037857604036600319011261037857610c7a611f53565b60243590610c89610761614e0b565b6001600160a01b03165f818152600f6020526040902054909190818115610d77575060405163aa5af0fd60e01b815290602082600481875afa8015610d6c5783925f91610d34575b50604051610cf391610ce28261205b565b8152610ced86613e39565b856139af565b03610cfa57005b60207f7192d234c68cd375a28075afb25d2e5ab2f48248c84841e104c1bd008785b98091835f52600f82528060405f2055604051908152a2005b9250506020823d602011610d64575b81610d5060209383612094565b8101031261037857610cf383925190610cd1565b3d9150610d43565b6040513d5f823e3d90fd5b908115610cf3579050825f526009602052600160ff60405f205416151503610f2f575f838152601060205260409020548291906001600160e01b03161580610f18575b610ea4575b5f848152601160205260409020546001600160e01b03161580610e8d575b15610cf357610e2a604051610df3604082612094565b601c81527f626c6f636b206e756d626572206578636565647320333220626974730000000060208201526401000000004310614fdc565b610e88604051610e398161202b565b6a0c097ce7bc90715b34b9f160241b81524363ffffffff1660208083019182525f8881526011909152604090209151905160e01b6001600160e01b0319166001600160e01b0391909116179055565b610cf3565b50835f52601160205260405f205460e01c15610ddd565b610eb5604051610df3604082612094565b610f13604051610ec48161202b565b6a0c097ce7bc90715b34b9f160241b81524363ffffffff1660208083019182525f8881526010909152604090209151905160e01b6001600160e01b0319166001600160e01b0391909116179055565b610dbf565b50835f52601060205260405f205460e01c15610dba565b60405162461bcd60e51b815260206004820152601c60248201527f70657269646f74206d61726b6574206973206e6f74206c6973746564000000006044820152606490fd5b34610378575f366003190112610378576004546040516001600160a01b039091168152602090f35b34610378575f366003190112610378576003546040516001600160a01b039091168152602090f35b34610378576020366003190112610378576001600160a01b03610fe5611f53565b165f52600f602052602060405f2054604051908152f35b3461037857602036600319011261037857610932611018611f53565b612895565b34610378576020366003190112610378576001600160a01b0361103e611f53565b165f52600b602052602060ff60405f2054166040519015158152f35b3461037857610932366121ec565b34610378576020366003190112610378576001600160a01b03611089611f53565b165f52600c602052602060ff60405f2054166040519015158152f35b346103785761093236611fdd565b346103785760403660031901126103785760043567ffffffffffffffff8111610378576110e490369060040161224e565b60243567ffffffffffffffff81116103785761110490369060040161224e565b9160018060a01b035f54163314801561125f575b156111fc57801515806111f3575b156111be575f5b81811061113657005b806111446001928686612871565b35828060a01b0361115e61115984878b612871565b612881565b165f52601660205260405f2055611179611159828589612871565b7f6f1951b2aad10f3fc81b86d91105b413a5b3f847a34bbc5ce1904201b14438f660206111a7848989612871565b3592604051938452858060a01b031692a20161112d565b60405162461bcd60e51b815260206004820152600d60248201526c1a5b9d985b1a59081a5b9c1d5d609a1b6044820152606490fd5b50828114611126565b60405162461bcd60e51b815260206004820152603560248201527f6f6e6c792061646d696e206f7220626f72726f772063617020677561726469616044820152746e2063616e2073657420626f72726f77206361707360581b6064820152608490fd5b506015546001600160a01b03163314611118565b346103785760206103c6611286366121ec565b9390929150612751565b346103785760203660031901126103785760206103c66112ae611f53565b6126b5565b34610378576020366003190112610378576112d46112cf611f53565b614125565b601283929310156106ae576107f390604051938493846040919493926060820195825260208201520152565b346103785761093236612171565b34610378576020366003190112610378576004356001600160a01b0381168103610378576103c6602091612621565b3461037857602036600319011261037857600435600d54811015610378576104996020916121ab565b346103785761137436612133565b1592509050816113bf575b5061138657005b60405162461bcd60e51b815260206004820152601160248201527072656465656d546f6b656e73207a65726f60781b6044820152606490fd5b905015158161137f565b346103785760203660031901126103785760206103c66004356125aa565b346103785760206103c66113fa36612171565b5090612525565b34610378576112d461141236612133565b9290916001600160a01b031690614ac6565b34610378575f366003190112610378576020600654604051908152f35b34610378576020366003190112610378576001600160a01b03611462611f53565b165f526016602052602060405f2054604051908152f35b346103785760c036600319011261037857611492611f53565b5061149b611f69565b506114a4611f7f565b50610932611f95565b34610378575f366003190112610378576020604051438152f35b346103785761093236612133565b34610378575f36600319011261037857602060ff600a5460a01c166040519015158152f35b34610378576040366003190112610378576020611515611f53565b7f71aec636243f9709bb0007ae15e9afb8150ab01716d75fd7573be5cc096e03b060a0611540611fbf565b92600180831b031692835f526009855261156060ff60405f2054166122c1565b600180831b03600a5416331480156115f5575b61157c9061231e565b600180831b035f5416331480156115e9575b6115979061237a565b835f52600b85526115b78160405f209060ff801983541691151516179055565b6040519384526060858501526004606085015263135a5b9d60e21b6080850152151592836040820152a1604051908152f35b5080151560011461158e565b5061157c600180841b035f541633149050611573565b3461037857602036600319011261037857611624611f53565b5f546001600160a01b0316330361169257601580546001600160a01b039283166001600160a01b0319821681179092556040805193909116835260208301919091527feda98690e518e9a05f8ec6837663e188211b2da8f4906648b323f2c1d4434e299190819081016109ac565b60405162461bcd60e51b815260206004820152602660248201527f6f6e6c792061646d696e2063616e2073657420626f72726f772063617020677560448201526530b93234b0b760d11b6064820152608490fd5b3461037857602036600319011261037857610932611702611f53565b61092c612481565b34610378576020366003190112610378576001600160a01b0361172b611f53565b165f908152601160209081526040918290205482516001600160e01b038216815260e09190911c91810191909152f35b34610378576020366003190112610378575f54600435906001600160a01b031633036117c25760407f3b9670cf975d26958e754b57098eaa2ac914d8d2a31b83257997b9f346110fd991600554908060055582519182526020820152a160206040515f8152f35b60405162461bcd60e51b815260206004820152601f60248201527f6f6e6c792061646d696e2063616e2073657420636c6f736520666163746f72006044820152606490fd5b34610378576020366003190112610378576020611822611fce565b600a5490336001600160a01b0383161480156118d1575b6118429061231e565b5f546001600160a01b0316331480156118c5575b61185f9061237a565b15159060ff60b81b8260b81b169060ff60b81b191617600a557fef159d9a32b2472e32b098f954f3ce62d232939f1c207070b584df1814de2de060806040516040815260056040820152645365697a6560d81b60608201528385820152a1604051908152f35b50801515600114611856565b505f546001600160a01b03163314611839565b34610378575f366003190112610378576001546040516001600160a01b039091168152602090f35b346103785760803660031901126103785760043567ffffffffffffffff81116103785761193d9036906004016120ce565b60243567ffffffffffffffff81116103785761195d9036906004016120ce565b9060443590811515809203610378576064359283151580940361037857916001805f92149414905b8351811015610932576001600160a01b036119a0828661246d565b5116805f52600960205260ff60405f20541615611b665785611a6f575b826119cc575b50600101611985565b919490936119d983613e39565b5f5b8451811015611a6157600190611a046001600160a01b036119fc838961246d565b511686613f82565b611a3d828060a01b03611a17838961246d565b5116838060a01b03611a29848a61246d565b51165f52601460205260405f205490613d4d565b828060a01b03611a4d838961246d565b51165f52601460205260405f2055016119db565b5093600191959250906119c3565b90604095929495519263aa5af0fd60e01b8452602084600481865afa938415610d6c575f94611b33575b5060405193611aa78561205b565b8452611ab384846139af565b5f5b8551811015611b2857600190611adf866001600160a01b03611ad7848b61246d565b511687613bba565b611b04828060a01b03611af2838a61246d565b5116838060a01b03611a29848b61246d565b828060a01b03611b14838a61246d565b51165f52601460205260405f205501611ab5565b5095949250906119bd565b9093506020813d8211611b5e575b81611b4e60209383612094565b8101031261037857519287611a99565b3d9150611b41565b60405162461bcd60e51b81526020600482015260156024820152741b585c9ad95d081b5d5cdd081899481b1a5cdd1959605a1b6044820152606490fd5b34610378575f36600319011261037857600a546040516001600160a01b039091168152602090f35b346103785760206103c6611bde36611fdd565b509190506123bf565b34610378575f366003190112610378576015546040516001600160a01b039091168152602090f35b346103785760a036600319011261037857611c28611f53565b50611c31611f69565b50610932611f7f565b34610378576020366003190112610378576004356001600160a01b03811690819003610378576040516303e1469160e61b8152602081600481855afa908115610d6c575f91611d86575b506001600160a01b03163303611d315760205f9160046040518094819363307a00cd60e21b83525af1908115610d6c575f91611cff575b50611cc257005b60405162461bcd60e51b815260206004820152601560248201527418da185b99d9481b9bdd08185d5d1a1bdc9a5e9959605a1b6044820152606490fd5b90506020813d602011611d29575b81611d1a60209383612094565b81010312610378575181611cbb565b3d9150611d0d565b60405162461bcd60e51b815260206004820152602760248201527f6f6e6c7920756e6974726f6c6c65722061646d696e2063616e206368616e676560448201526620627261696e7360c81b6064820152608490fd5b90506020813d602011611dc0575b81611da160209383612094565b8101031261037857516001600160a01b03811681036103785782611c84565b3d9150611d94565b34610378575f366003190112610378576002546040516001600160a01b039091168152602090f35b34610378576040366003190112610378576020611e0b611f53565b7f71aec636243f9709bb0007ae15e9afb8150ab01716d75fd7573be5cc096e03b060a0611e36611fbf565b92600180831b031692835f5260098552611e5660ff60405f2054166122c1565b600180831b03600a541633148015611eed575b611e729061231e565b600180831b035f541633148015611ee1575b611e8d9061237a565b835f52600c8552611ead8160405f209060ff801983541691151516179055565b6040519384526060858501526006606085015265426f72726f7760d01b6080850152151592836040820152a1604051908152f35b50801515600114611e84565b50611e72600180841b035f541633149050611e69565b3461037857604036600319011261037857611f1c611f53565b611f24611f69565b6001600160a01b039182165f908152601260209081526040808320949093168252928352819020549051908152f35b600435906001600160a01b038216820361037857565b602435906001600160a01b038216820361037857565b604435906001600160a01b038216820361037857565b606435906001600160a01b038216820361037857565b35906001600160a01b038216820361037857565b60243590811515820361037857565b60043590811515820361037857565b6080906003190112610378576004356001600160a01b038116810361037857906024356001600160a01b038116810361037857906044356001600160a01b0381168103610378579060643590565b6040810190811067ffffffffffffffff82111761204757604052565b634e487b7160e01b5f52604160045260245ffd5b6020810190811067ffffffffffffffff82111761204757604052565b610140810190811067ffffffffffffffff82111761204757604052565b90601f8019910116810190811067ffffffffffffffff82111761204757604052565b67ffffffffffffffff81116120475760051b60200190565b9080601f830112156103785781356120e5816120b6565b926120f36040519485612094565b81845260208085019260051b82010192831161037857602001905b82821061211b5750505090565b6020809161212884611fab565b81520191019061210e565b6080906003190112610378576004356001600160a01b038116810361037857906024356001600160a01b038116810361037857906044359060643590565b6060906003190112610378576004356001600160a01b038116810361037857906024356001600160a01b0381168103610378579060443590565b600d548110156121c357600d5f5260205f2001905f90565b634e487b7160e01b5f52603260045260245ffd5b80548210156121c3575f5260205f2001905f90565b60a0906003190112610378576004356001600160a01b038116810361037857906024356001600160a01b038116810361037857906044356001600160a01b038116810361037857906064356001600160a01b0381168103610378579060843590565b9181601f840112156103785782359167ffffffffffffffff8311610378576020808501948460051b01011161037857565b60206040818301928281528451809452019201905f5b8181106122a25750505090565b82516001600160a01b0316845260209384019390920191600101612295565b156122c857565b60405162461bcd60e51b815260206004820152602860248201527f63616e6e6f742070617573652061206d61726b65742074686174206973206e6f6044820152671d081b1a5cdd195960c21b6064820152608490fd5b1561232557565b60405162461bcd60e51b815260206004820152602760248201527f6f6e6c7920706175736520677561726469616e20616e642061646d696e2063616044820152666e20706175736560c81b6064820152608490fd5b1561238157565b60405162461bcd60e51b81526020600482015260166024820152756f6e6c792061646d696e2063616e20756e706175736560501b6044820152606490fd5b6001600160a01b0381165f8181526009602052604090205490929060ff16156124655760206004936040519485809263aa5af0fd60e01b82525afa918215610d6c575f9261242f575b61242b93506040519261241a8461205b565b835261242683826139af565b613bba565b5f90565b91506020833d60201161245d575b8161244a60209383612094565b810103126103785761242b925191612408565b3d915061243d565b505050600990565b80518210156121c35760209160051b010190565b60405190600d548083528260208101600d5f5260205f20925f5b8181106124b25750506124b092500383612094565b565b84546001600160a01b031683526001948501948794506020909301920161249b565b90604051918281549182825260208201905f5260205f20925f5b8181106125035750506124b092500383612094565b84546001600160a01b03168352600194850194879450602090930192016124ee565b6001600160a01b0381165f818152600b602052604090205491929160ff16612574575f52600960205260ff60405f2054161561256d578161256861242b93613e39565b613f82565b5050600990565b60405162461bcd60e51b815260206004820152600e60248201526d1b5a5b9d081a5cc81c185d5cd95960921b6044820152606490fd5b5f546001600160a01b031633036125f65760407faeba5a6c40a8ac138134bff1aaa65debf25971188a58804bad717f82f0ec131691600654908060065582519182526020820152a15f90565b505f5160206150f65f395f51905f52606060405160018152600b60208201525f6040820152a1600190565b5f546001600160a01b0316330361268a57600480546001600160a01b039283166001600160a01b0319821681179092556040805193909116835260208301919091527fd52b2b9b7e9ee655fcb95d2e5b9e0c9f69e7ef2b8e9d2d0ea78402d576d22e2291a15f90565b505f5160206150f65f395f51905f52606060405160018152601060208201525f6040820152a1600190565b5f546001600160a01b0316330361272657600a80546001600160a01b039283166001600160a01b0319821681179092556040805193909116835260208301919091527f0613b6ee6a04f0d09f390e4d9318894b9f6ac7fd83897cd8d18896ba579c401e9190819081015b0390a15f90565b505f5160206150f65f395f51905f52606060405160018152601360208201525f6040820152a1600190565b6001600160a01b03165f8181526009602052604090205490929160ff9091161590811561284f575b506124655761278781614125565b91905060128110156106ae578061284757501561283f576040516395dd919360e01b81526001600160a01b03909116600482015290602090829060249082905afa908115610d6c575f9161280b575b506127fb670de0b6b3a764000091600554604051906127f48261205b565b81526150dc565b510410612806575f90565b601190565b90506020813d602011612837575b8161282660209383612094565b8101031261037857516127fb6127d6565b3d9150612819565b505050600390565b935050505090565b6001600160a01b03165f9081526009602052604081205460ff16159150612779565b91908110156121c35760051b0190565b356001600160a01b03811681036103785790565b6001600160a01b03165f818152601760209081526040808320546018909252909120546128c29043613707565b8015158061290f575b6128d457505050565b6128f3916128e191614deb565b825f52601460205260405f2054614dfe565b815f52601460205260405f20555f5260186020524360405f2055565b508115156128cb565b1561291f57565b606460405162461bcd60e51b815260206004820152602060248201527f6f6e6c792061646d696e2063616e207365742070657269646f742073706565646044820152fd5b9190916040928351916129768584612094565b600183526020830190601f1986013683378351156121c3576001600160a01b0316905291925f925b8051841015612baf576001600160a01b036129b9858361246d565b5116805f52600960205260ff835f20541615612b7357825163aa5af0fd60e01b815291602083600481855afa928315612b69575f93612b36575b50835192612a008461205b565b8352612a0c83836139af565b5f5b8551811015612a9357600190612a38856001600160a01b03612a30848b61246d565b511686613bba565b612a70828060a01b03612a4b838a61246d565b5116838060a01b03612a5d848b61246d565b51165f526014602052875f205490613d4d565b828060a01b03612a80838a61246d565b51165f526014602052865f205501612a0e565b5095909150612aa182613e39565b5f5b8451811015612b2757600190612acc6001600160a01b03612ac4838961246d565b511685613f82565b612b04828060a01b03612adf838961246d565b5116838060a01b03612af1848a61246d565b51165f526014602052865f205490613d4d565b828060a01b03612b14838961246d565b51165f526014602052855f205501612aa3565b5094600190940193905061299e565b9092506020813d8211612b61575b81612b5160209383612094565b810103126103785751915f6129f3565b3d9150612b44565b84513d5f823e3d90fd5b825162461bcd60e51b81526020600482015260156024820152741b585c9ad95d081b5d5cdd081899481b1a5cdd1959605a1b6044820152606490fd5b50505050565b90816020910312610378575180151581036103785790565b5f546001600160a01b03163303612d89576001600160a01b03165f8181526009602052604090205460ff16612d5e57604051632d44860760e11b8152602081600481855afa8015610d6c57612d31575b50805f5260096020525f6001604082208160ff198254161781556003810160ff19815416905501555f600d54905b818110612ccc575050600d54600160401b8110156120475781612cc17fcf583bb0c569eb967f806b11601c4cb93c10310485c67add5f8362c2f212321f93612c9d84600160209601600d55600d6121d7565b81546001600160a01b0393841660039290921b91821b9390911b1916919091179055565b604051908152a15f90565b82612cd6826121ab565b905460039190911b1c6001600160a01b031614612cf557600101612c4b565b60405162461bcd60e51b81526020600482015260146024820152731b585c9ad95d08185b1c9958591e48185919195960621b6044820152606490fd5b612d529060203d602011612d57575b612d4a8183612094565b810190612bb5565b612c1d565b503d612d40565b505f5160206150f65f395f51905f526060604051600a8152601160208201525f6040820152a1600a90565b505f5160206150f65f395f51905f52606060405160018152601260208201525f6040820152a1600190565b909260ff600a5460b01c16612df157612dce908483614e33565b80612dea575061256861242b93612de483613e39565b82613f82565b9250505090565b60405162461bcd60e51b81526020600482015260126024820152711d1c985b9cd9995c881a5cc81c185d5cd95960721b6044820152606490fd5b6004805460405163fc57d4df60e01b81526001600160a01b0393841692810192909252909392911690602084602481855afa938415610d6c575f9461302d575b5092602060249460018060a01b0316926040519586809263fc57d4df60e01b82528660048301525afa938415610d6c575f94612ff9575b5080158015612ff1575b612fe65760206004926040519384809263182df0f560e01b82525afa918215610d6c575f92612fb0575b5090612f2f612f3d925f604051612eec8161205b565b525f604051612efa8161205b565b525f604051612f088161205b565b5260065460405190612f198261205b565b815260405191612f288361205b565b8252614fa4565b9360405190612f198261205b565b915f604051612f4b8161205b565b525190670de0b6b3a7640000820291808304670de0b6b3a76400001490151715612f9c57612f87612f9492670de0b6b3a7640000945190614f86565b604051906127f48261205b565b5104905f9190565b634e487b7160e01b5f52601160045260245ffd5b91506020823d602011612fde575b81612fcb60209383612094565b8101031261037857905190612f2f612ed6565b3d9150612fbe565b50505050600d905f90565b508315612eac565b9093506020813d602011613025575b8161301560209383612094565b810103126103785751925f612ea2565b3d9150613008565b93506020843d60201161305a575b8161304860209383612094565b81010312610378579251926020612e6b565b3d915061303b565b9081602091031261037857516001600160a01b03811681036103785790565b9060ff600a5460b81c166131bc576001600160a01b0382165f8181526009602052604090205490919060ff1615801561319a575b6131905760206004926040519384809263c423fe2960e01b82525afa918215610d6c575f9261316b575b5060405163c423fe2960e01b815290602090829060049082906001600160a01b03165afa908115610d6c575f9161313c575b506001600160a01b039081169116036131345761256861242b93612de483613e39565b505050600290565b61315e915060203d602011613164575b6131568183612094565b810190613062565b5f613111565b503d61314c565b6004919250613188602091823d8411613164576131568183612094565b9291506130df565b5050505050600990565b506001600160a01b0381165f9081526009602052604090205460ff16156130b5565b60405162461bcd60e51b815260206004820152600f60248201526e1cd95a5e99481a5cc81c185d5cd959608a1b6044820152606490fd5b156131fa57565b634e487b7160e01b5f52600160045260245ffd5b9060018060a01b03821692835f52600c60205260ff60405f2054166134aa57835f52600960205260ff60405f205416156134a157835f526009602052600260405f200160018060a01b0383165f5260205260ff60405f20541615613412575b6004805460405163fc57d4df60e01b8152918201869052602090829060249082906001600160a01b03165afa908115610d6c575f916133e0575b50156133d757835f52601660205260405f205480613321575b506132cc908483614496565b91905060128110156106ae578061284757506133195760206004936040519485809263aa5af0fd60e01b82525afa918215610d6c575f9261242f5761242b93506040519261241a8461205b565b505050600490565b6040516308f7a6e360e31b8152602081600481895afa8015610d6c5783905f906133a1575b6133509250614dfe565b101561335c575f6132c0565b60405162461bcd60e51b815260206004820152601960248201527f6d61726b657420626f72726f77206361702072656163686564000000000000006044820152606490fd5b50506020813d6020116133cf575b816133bc60209383612094565b8101031261037857826133509151613346565b3d91506133af565b50505050600d90565b90506020813d60201161340a575b816133fb60209383612094565b8101031261037857515f6132a7565b3d91506133ee565b833303613464576134238233614eb3565b60128110156106ae57806128475750835f526009602052600260405f200160018060a01b0383165f5260205261345f60ff60405f2054166131f3565b61326d565b60405162461bcd60e51b815260206004820152601560248201527439b2b73232b91036bab9ba10313290382a37b5b2b760591b6044820152606490fd5b50505050600990565b60405162461bcd60e51b815260206004820152601060248201526f189bdc9c9bddc81a5cc81c185d5cd95960821b6044820152606490fd5b5f546001600160a01b03163303613694576001600160a01b03165f818152600960205260409020805490919060ff1615613667576040516135228161205b565b838152670c7d713b49da000060405161353a8161205b565b5251670c7d713b49da00001061363a57821515806135c6575b613599577f70483e6592cd5182d45ac970e05bc62cdcc90e9d8ef2c2dbe686cf383bcd7fc592600160609301818154915560405192835260208301526040820152a15f90565b5050505f5160206150f65f395f51905f526060604051600d8152600960208201525f6040820152a1600d90565b506004805460405163fc57d4df60e01b8152918201839052602090829060249082906001600160a01b03165afa908115610d6c575f91613608575b5015613553565b90506020813d602011613632575b8161362360209383612094565b8101031261037857515f613601565b3d9150613616565b5050505f5160206150f65f395f51905f52606060405160068152600860208201525f6040820152a1600690565b5050505f5160206150f65f395f51905f52606060405160098152600760208201525f6040820152a1600990565b50505f5160206150f65f395f51905f52606060405160018152600660208201525f6040820152a1600190565b916136cc908284614e33565b91826136e05761242b925061256881613e39565b505090565b9190826080910312610378578151916020810151916060604083015192015190565b91908203918211612f9c57565b6040516361bfb47160e11b81523360048201526001600160a01b0382169190608081602481865afa8015610d6c575f5f925f9261397a575b50613927576138fa57613760913390614e33565b806138cd57505f818152600960209081526040808320338452600201918290529091205460ff16156138c757335f90815260209182526040808220805460ff191690556008909252206137b2906124d4565b9081519182905f5b828110613898575b50506137cf9083106131f3565b335f52600860205260405f20918254905f198201918211612f9c57612c9d6137fa61381393866121d7565b905460039190911b1c6001600160a01b031691856121d7565b8154908115613884577fe699a64c18b07ac5b7301aa273f36a2287239eb9501d81950672794afba29a0d9261271f925f19019061385082826121d7565b81546001600160a01b0360039290921b82901b19169091559190556040805192909116825233602083015290918291820190565b634e487b7160e01b5f52603160045260245ffd5b836001600160a01b036138ab838561246d565b5116146138ba576001016137ba565b93506137cf90505f6137c2565b50505f90565b5f5160206150f65f395f51905f52915060609060405190600e8252600360208301526040820152a1600e90565b5050505f5160206150f65f395f51905f526060604051600c8152600260208201525f6040820152a1600c90565b60405162461bcd60e51b815260206004820152602560248201527f657869744d61726b65743a206765744163636f756e74536e617073686f742066604482015264185a5b195960da1b6064820152608490fd5b91505061399f915060803d6080116139a8575b6139978183612094565b8101906136e5565b5090915f61374c565b503d61398d565b6001600160a01b03165f818152601160209081526040808320600f9092529091205481546139e09060e01c43613707565b938415158080613bb1575b15613b7157506040516308f7a6e360e31b8152602081600481885afa908115610d6c575f91613b33575b5094613a37613a6793613a3163ffffffff96946124b099615023565b92614deb565b908015613b1c57613a4791615052565b905b54604051906001600160e01b0316613a608261205b565b81526150a4565b5191613ab0604051613a7a604082612094565b601a81527f6e657720696e64657820657863656564732032323420626974730000000000006020820152600160e01b8510614fdc565b613ac1604051610df3604082612094565b60405192613ace8461202b565b6001600160e01b03908116845243831660208086019182525f93845260119052604090922093518454925160e085811b94909416831691909216179216901b6001600160e01b031916179055565b5050604051613b2a8161205b565b5f815290613a49565b9293919590506020833d602011613b69575b81613b5260209383612094565b810103126103785791519194909291613a37613a15565b3d9150613b45565b935050509150613b7e5750565b6124b090613b93604051610df3604082612094565b80546001600160e01b03164360e01b6001600160e01b031916179055565b508215156139eb565b6001600160a01b03165f81815260116020526040908190205490519293919291906001600160e01b0316613bed8361205b565b8252825f52601360205260405f2060018060a01b0385165f5260205260405f205460405190613c1b8261205b565b81528251845f52601360205260405f2060018060a01b0387165f5260205260405f20558051613c4c575b5050505050565b613c5690836150c0565b6040516395dd919360e01b81526001600160a01b039095166004860181905294909190602081602481885afa908115610d6c575f91613d13575b50613cda604093613cd27f1e5561ff39e796a5299c233e6fd3b11fe55a12e535266cc176f37334e6c7efb696946a0c097ce7bc90715b34b9f160241b94615023565b905190614deb565b0490855f526014602052613cf182845f2054614dfe565b865f526014602052835f20555182519182526020820152a35f80808080613c45565b90506020939193813d602011613d45575b81613d3160209383612094565b810103126103785751909290613cda613c90565b3d9150613d24565b6019546040516370a0823160e01b81523060048201526001600160a01b039091169190602081602481865afa908115610d6c575f91613e07575b508315159081613dfc575b50613d9c57505090565b60405163a9059cbb60e01b81526001600160a01b039190911660048201526024810192909252602090829060449082905f905af18015610d6c57613ddf57505f90565b613df79060203d602011612d5757612d4a8183612094565b505f90565b90508311155f613d92565b90506020813d602011613e31575b81613e2260209383612094565b8101031261037857515f613d87565b3d9150613e15565b60018060a01b0316805f52601060205260405f2090805f52600f60205260405f2054613e69835460e01c43613707565b908115158080613f79575b15613f6e57506040516318160ddd60e01b815291602083600481875afa928315610d6c575f93613f36575b509363ffffffff92613a37613eb7936124b097614deb565b5191613eca604051613a7a604082612094565b613edb604051610df3604082612094565b60405192613ee88461202b565b6001600160e01b03908116845243831660208086019182525f93845260109052604090922093518454925160e085811b94909416831691909216179216901b6001600160e01b031916179055565b9250936020833d602011613f66575b81613f5260209383612094565b8101031261037857915191936124b0613e9f565b3d9150613f45565b92505050613b7e5750565b50811515613e74565b6001600160a01b03165f8181526010602052604090819020549051906001600160e01b0316613fb08261205b565b8152815f52601260205260405f2060018060a01b0384165f5260205261401860405f205460405190613fe18261205b565b81528251845f52601260205260405f2060018060a01b0387165f5260205260405f20558051158061411b575b614105575b826150c0565b6040516370a0823160e01b81526001600160a01b03909416600485018190529390602082602481875afa918215610d6c575f926140c1575b50916a0c097ce7bc90715b34b9f160241b6140906040937faf420590cb43d2e84351d8cd2a32149325e748efcd73152eacf2e54ecab59766955190614deb565b0490855f5260146020526140a782845f2054614dfe565b865f526014602052835f20555182519182526020820152a3565b9150916020823d6020116140fd575b816140dd60209383612094565b8101031261037857905190916a0c097ce7bc90715b34b9f160241b614050565b3d91506140d0565b6a0c097ce7bc90715b34b9f160241b8152614012565b508251151561400d565b906040519161413383612077565b5f83525f60208401525f60408401525f60608401525f60808401525f60a08401526040516141608161205b565b5f815260c08401526040516141748161205b565b5f815260e08401526040516141888161205b565b5f815261010084015260405161419d8161205b565b5f815261012084015260018060a01b0381165f5260086020526141c260405f206124d4565b6004549092906001600160a01b03165f5b8451811015614456576001600160a01b036141ee828761246d565b516040516361bfb47160e11b81526001600160a01b0387166004820152911690608081602481855afa8015610d6c575f915f915f915f91614434575b5060808b015260608a0152604089015261442557805f526009602052600160405f2001546040519061425b8261205b565b815260c08801526080870151604051906142748261205b565b815260e088015260405163fc57d4df60e01b815260048101829052602081602481875afa908115610d6c575f916143f4575b508060a089015280156143e457604051906142c08261205b565b81526101008801526143146142ed6142e160c08a015160e08b015190614fa4565b6101008a015190614fa4565b806101208a0152670de0b6b3a764000061430d60408b01518b51936150dc565b5104614dfe565b875261433b610100880151670de0b6b3a764000061430d60608b015160208c0151936150dc565b9081602089015215614351575b506001016141d3565b6101208701515f6040516143648161205b565b52515f91901560011715612f9c57670de0b6b3a7640000614395926040519061438c8261205b565b81525104614dfe565b908160208801526101008701515f6040516143af8161205b565b52515f901560011715612f9c57600192670de0b6b3a76400006143d9926040519061438c8261205b565b602088015290614348565b50600d96505f9550859450505050565b90506020813d821161441d575b8161440e60209383612094565b8101031261037857515f6142a6565b3d9150614401565b50600f95505f94508493505050565b92505050614450915060803d81116139a8576139978183612094565b5f61422a565b505092915050805160208201518082115f1461448557505080602061447f925191015190613707565b5f918290565b61448f9250613707565b5f915f9190565b90929192604051916144a783612077565b5f83525f60208401525f60408401525f60608401525f60808401525f60a08401526040516144d48161205b565b5f815260c08401526040516144e88161205b565b5f815260e08401526040516144fc8161205b565b5f81526101008401526040516145118161205b565b5f815261012084015260018060a01b0381165f52600860205261453660405f206124d4565b6004549094906001600160a01b03165f5b8651811015614780576001600160a01b03614562828961246d565b516040516361bfb47160e11b81526001600160a01b038716600482015291169190608081602481865afa8015610d6c575f915f915f915f9161475e575b5060808b015260608a0152604089015261474c57815f526009602052600160405f200154604051906145d08261205b565b815260c08801526080870151604051906145e98261205b565b815260e088015260405163fc57d4df60e01b815260048101839052602081602481875afa908115610d6c575f9161471b575b508060a0890152801561470857604051906146358261205b565b81526101008801526146566142ed6142e160c08a015160e08b015190614fa4565b875261467d610100880151670de0b6b3a764000061430d60608b015160208c0151936150dc565b60208801819052916001600160a01b0387161461469f575b6001915001614547565b6101208701515f6040516146b28161205b565b52515f92901560011715612f9c576146e06146fe91670de0b6b3a76400006001956040519061438c8261205b565b8060208a0152670de0b6b3a764000061430d8c6101008c01516150dc565b6020880152614695565b50505050945050505050600d905f905f90565b90506020813d8211614744575b8161473560209383612094565b8101031261037857515f61461b565b3d9150614728565b505050945050505050600f905f905f90565b9250505061477a915060803d81116139a8576139978183612094565b5f61459f565b5050945050509050805160208201518082115f1461448557505080602061447f925191015190613707565b9291604051936147ba85612077565b5f85525f60208601525f60408601525f60608601525f60808601525f60a08601526040516147e78161205b565b5f815260c08601526040516147fb8161205b565b5f815260e086015260405161480f8161205b565b5f81526101008601526040516148248161205b565b5f815261012086015260018060a01b0381165f52600860205261484960405f206124d4565b6004549094906001600160a01b03165f5b8651811015614a9b576001600160a01b03614875828961246d565b516040516361bfb47160e11b81526001600160a01b0387166004820152911690608081602481855afa8015610d6c575f915f915f915f91614a79575b5060808d015260608c015260408b015261474c57805f526009602052600160405f200154604051906148e28261205b565b815260c08a01526080890151604051906148fb8261205b565b815260e08a015260405163fc57d4df60e01b815260048101829052602081602481875afa908115610d6c575f91614a48575b508060a08b0152801561470857604051906149478261205b565b81526101008a015261499461497461496860c08c015160e08d015190614fa4565b6101008c015190614fa4565b806101208c0152670de0b6b3a764000061430d60408d01518d51936150dc565b89526149bc6101008a0151670de0b6b3a764000061430d8c60206060820151910151936150dc565b60208a01819052906001600160a01b038816146149dd575b5060010161485a565b6149f990670de0b6b3a764000061430d886101208d01516150dc565b908160208a01526101008901515f604051614a138161205b565b52515f901560011715612f9c57600192670de0b6b3a7640000614a3d926040519061438c8261205b565b60208a0152906149d4565b90506020813d8211614a71575b81614a6260209383612094565b8101031261037857515f61492d565b3d9150614a55565b92505050614a95915060803d81116139a8576139978183612094565b5f6148b1565b5050949350505050805160208201518082115f1461448557505080602061447f925191015190613707565b92919060405192614ad684612077565b5f84525f60208501525f60408501525f60608501525f60808501525f60a0850152604051614b038161205b565b5f815260c0850152604051614b178161205b565b5f815260e0850152604051614b2b8161205b565b5f8152610100850152604051614b408161205b565b5f815261012085015260018060a01b0385165f526008602052614b6560405f206124d4565b6004549095906001600160a01b03165f5b8751811015614dc0576001600160a01b03614b91828a61246d565b516040516361bfb47160e11b81526001600160a01b038616600482015291169190608081602481865afa8015610d6c575f915f915f915f91614d9e575b5060808c015260608b015260408a0152614d8c57815f526009602052600160405f20015460405190614bff8261205b565b815260c0890152608088015160405190614c188261205b565b815260e089015260405163fc57d4df60e01b81526004810183905291602083602481875afa928315610d6c575f93614d59575b508260a08a01528215614d465788889160019460405190614c6b8261205b565b8152610100830152614cb8614c98614c8c60c085015160e086015190614fa4565b61010085015190614fa4565b80610120850152670de0b6b3a764000061430d60408601518651936150dc565b8252614cdf610100830151670de0b6b3a764000061430d60608601516020870151936150dc565b90816020840152858060a01b038a1614614cfd575b50505001614b76565b670de0b6b3a764000061430d614d3994610120614d1b9501516150dc565b8060208b0152670de0b6b3a764000061430d886101008d01516150dc565b602089015286885f614cf4565b50505050505050505050600d905f905f90565b9092506020813d8211614d84575b81614d7460209383612094565b810103126103785751915f614c4b565b3d9150614d67565b505050505050505050600f905f905f90565b92505050614dba915060803d81116139a8576139978183612094565b5f614bce565b5050505050509050805160208201518082115f1461448557505080602061447f925191015190613707565b81810292918115918404141715612f9c57565b91908201809211612f9c57565b5f546001600160a01b031633148015614e215790565b506002546001600160a01b0316331490565b6001600160a01b03165f8181526009602052604090205491929160ff161561246557805f526009602052600260405f200160018060a01b0384165f5260205260ff60405f20541615614eac57614e88926147ab565b91905060128110156106ae5780614ea75750614ea2575f90565b600490565b905090565b5050505f90565b9060018060a01b0382165f52600960205260405f2060ff815416156124655760020160018060a01b0382165f5280602052600160ff60405f205416151514614eac576001600160a01b0382165f90815260209182526040808220805460ff1916600117905560089092522080549290600160401b8410156120475781612c9d85614f639360017f3ab23ab0d51cccc0c3085aec51f99228625aa1a922b3a8ca89a26b0f2027a1a5980181556121d7565b604080516001600160a01b0392831681529290911660208301528190810161271f565b8115614f90570490565b634e487b7160e01b5f52601260045260245ffd5b670de0b6b3a764000091614fc9915f604051614fbf8161205b565b5251905190614deb565b0460405190614fd78261205b565b815290565b15614fe45750565b604460209160405192839162461bcd60e51b83528160048401528051918291826024860152018484015e5f828201840152601f01601f19168101030190fd5b670de0b6b3a7640000810290808204670de0b6b3a76400001490151715612f9c5761504f915190614f86565b90565b905f6040516150608161205b565b526a0c097ce7bc90715b34b9f160241b8202918083046a0c097ce7bc90715b34b9f160241b1490151715612f9c5761509791614f86565b60405190614fd78261205b565b90615097915f6040516150b68161205b565b5251905190614dfe565b90615097915f6040516150d28161205b565b5251905190613707565b90615097915f6040516150ee8161205b565b5251614deb56fe45b96fe442630264581b197e84bbada861235052c5a1aadfff9ea4e40a969aa0a26469706673582212203a3e1be65227c906d4affcde42cca9e7d315f7f51b1bd3057d8a252c3f85a9ae64736f6c634300081b0033","linkReferences":{}},"methodIdentifiers":{"PERIDOT()":"a6b13955","_become(address)":"1d504dc6","_borrowGuardianPaused()":"e6653f3d","_grantPeridot(address,uint256)":"9a8260d6","_mintGuardianPaused()":"3c94786f","_setBorrowCapGuardian(address)":"391957d7","_setBorrowPaused(address,bool)":"18c882a5","_setCloseFactor(uint256)":"317b0b77","_setCollateralFactor(address,uint256)":"e4028eee","_setContributorPeridotSpeed(address,uint256)":"b0cbd622","_setLiquidationIncentive(uint256)":"4fd42e17","_setMarketBorrowCaps(address[],uint256[])":"607ef6c1","_setMintPaused(address,bool)":"3bcf7ec1","_setPauseGuardian(address)":"5f5af1aa","_setPeridotSpeed(address,uint256)":"825d327f","_setPriceOracle(address)":"55ee1fe1","_setSeizePaused(bool)":"2d70db78","_setTransferPaused(bool)":"8ebf6364","_supportMarket(address)":"a76b3fda","accountAssets(address,uint256)":"dce15449","admin()":"f851a440","allMarkets(uint256)":"52d84d1e","borrowAllowed(address,address,uint256)":"da3d454c","borrowCapGuardian()":"21af4569","borrowCaps(address)":"4a584432","borrowGuardianPaused(address)":"6d154ea5","borrowVerify(address,address,uint256)":"5c778605","checkMembership(address,address)":"929fe9a1","claimPeridot(address)":"36376925","claimPeridot(address,address[])":"9d92e62f","claimPeridot(address[],address[],bool,bool)":"2582e0ec","closeFactorMantissa()":"e8755446","enterMarkets(address[])":"c2998238","exitMarket(address)":"ede4edd0","getAccountLiquidity(address)":"5ec88c79","getAllMarkets()":"b0772d0b","getAssetsIn(address)":"abfceffc","getBlockNumber()":"42cbb15c","getHypotheticalAccountLiquidity(address,address,uint256,uint256)":"4e79238f","getPeridotAddress()":"8b130fa0","isPeridottroller()":"fa707af9","lastContributorBlock(address)":"bea6b8b8","liquidateBorrowAllowed(address,address,address,address,uint256)":"5fc7e71e","liquidateBorrowVerify(address,address,address,address,uint256,uint256)":"47ef3b3b","liquidateCalculateSeizeTokens(address,address,uint256)":"c488847b","liquidationIncentiveMantissa()":"4ada90af","markets(address)":"8e8f294b","maxAssets()":"94b2294b","mintAllowed(address,address,uint256)":"4ef4c3e1","mintGuardianPaused(address)":"731f0c2b","mintVerify(address,address,uint256,uint256)":"41c728b9","oracle()":"7dc0d1d0","pauseGuardian()":"24a3d622","pendingAdmin()":"26782247","pendingPeridottrollerImplementation()":"7c8f3a67","peridotAccrued(address)":"d002d989","peridotBorrowState(address)":"328bb72b","peridotBorrowerIndex(address,address)":"a64db627","peridotContributorSpeeds(address)":"ce27c01e","peridotInitialIndex()":"cd2489f0","peridotRate()":"d088864a","peridotSpeeds(address)":"794595f5","peridotSupplierIndex(address,address)":"0aa4266f","peridotSupplyState(address)":"935dbd26","peridottrollerImplementation()":"18f1408d","redeemAllowed(address,address,uint256)":"eabe7d91","redeemVerify(address,address,uint256,uint256)":"51dff989","repayBorrowAllowed(address,address,address,uint256)":"24008a62","repayBorrowVerify(address,address,address,uint256,uint256)":"1ededc91","seizeAllowed(address,address,address,address,uint256)":"d02f7351","seizeGuardianPaused()":"ac0b0bb7","seizeVerify(address,address,address,address,uint256)":"6d35bf91","transferAllowed(address,address,address,uint256)":"bdcdc258","transferGuardianPaused()":"87f76303","transferVerify(address,address,address,uint256)":"6a56947e","updateContributorRewards(address)":"741b2525"},"id":26}