{"abi":[{"type":"constructor","inputs":[{"name":"_COMP","type":"address","internalType":"address"}],"stateMutability":"nonpayable"},{"type":"function","name":"PERIDOT","inputs":[],"outputs":[{"name":"","type":"address","internalType":"address"}],"stateMutability":"view"},{"type":"function","name":"_become","inputs":[{"name":"unitroller","type":"address","internalType":"contract Unitroller"}],"outputs":[],"stateMutability":"nonpayable"},{"type":"function","name":"_borrowGuardianPaused","inputs":[],"outputs":[{"name":"","type":"bool","internalType":"bool"}],"stateMutability":"view"},{"type":"function","name":"_grantPeridot","inputs":[{"name":"recipient","type":"address","internalType":"address"},{"name":"amount","type":"uint256","internalType":"uint256"}],"outputs":[],"stateMutability":"nonpayable"},{"type":"function","name":"_mintGuardianPaused","inputs":[],"outputs":[{"name":"","type":"bool","internalType":"bool"}],"stateMutability":"view"},{"type":"function","name":"_setBorrowCapGuardian","inputs":[{"name":"newBorrowCapGuardian","type":"address","internalType":"address"}],"outputs":[],"stateMutability":"nonpayable"},{"type":"function","name":"_setBorrowPaused","inputs":[{"name":"pToken","type":"address","internalType":"contract PToken"},{"name":"state","type":"bool","internalType":"bool"}],"outputs":[{"name":"","type":"bool","internalType":"bool"}],"stateMutability":"nonpayable"},{"type":"function","name":"_setCloseFactor","inputs":[{"name":"newCloseFactorMantissa","type":"uint256","internalType":"uint256"}],"outputs":[{"name":"","type":"uint256","internalType":"uint256"}],"stateMutability":"nonpayable"},{"type":"function","name":"_setCollateralFactor","inputs":[{"name":"pToken","type":"address","internalType":"contract PToken"},{"name":"newCollateralFactorMantissa","type":"uint256","internalType":"uint256"}],"outputs":[{"name":"","type":"uint256","internalType":"uint256"}],"stateMutability":"nonpayable"},{"type":"function","name":"_setContributorPeridotSpeed","inputs":[{"name":"contributor","type":"address","internalType":"address"},{"name":"peridotSpeed","type":"uint256","internalType":"uint256"}],"outputs":[],"stateMutability":"nonpayable"},{"type":"function","name":"_setLiquidationIncentive","inputs":[{"name":"newLiquidationIncentiveMantissa","type":"uint256","internalType":"uint256"}],"outputs":[{"name":"","type":"uint256","internalType":"uint256"}],"stateMutability":"nonpayable"},{"type":"function","name":"_setMarketBorrowCaps","inputs":[{"name":"pTokens","type":"address[]","internalType":"contract PToken[]"},{"name":"newBorrowCaps","type":"uint256[]","internalType":"uint256[]"}],"outputs":[],"stateMutability":"nonpayable"},{"type":"function","name":"_setMintPaused","inputs":[{"name":"pToken","type":"address","internalType":"contract PToken"},{"name":"state","type":"bool","internalType":"bool"}],"outputs":[{"name":"","type":"bool","internalType":"bool"}],"stateMutability":"nonpayable"},{"type":"function","name":"_setPauseGuardian","inputs":[{"name":"newPauseGuardian","type":"address","internalType":"address"}],"outputs":[{"name":"","type":"uint256","internalType":"uint256"}],"stateMutability":"nonpayable"},{"type":"function","name":"_setPeridotSpeed","inputs":[{"name":"pToken","type":"address","internalType":"contract PToken"},{"name":"peridotSpeed","type":"uint256","internalType":"uint256"}],"outputs":[],"stateMutability":"nonpayable"},{"type":"function","name":"_setPriceOracle","inputs":[{"name":"newOracle","type":"address","internalType":"contract PriceOracle"}],"outputs":[{"name":"","type":"uint256","internalType":"uint256"}],"stateMutability":"nonpayable"},{"type":"function","name":"_setSeizePaused","inputs":[{"name":"state","type":"bool","internalType":"bool"}],"outputs":[{"name":"","type":"bool","internalType":"bool"}],"stateMutability":"nonpayable"},{"type":"function","name":"_setTransferPaused","inputs":[{"name":"state","type":"bool","internalType":"bool"}],"outputs":[{"name":"","type":"bool","internalType":"bool"}],"stateMutability":"nonpayable"},{"type":"function","name":"_supportMarket","inputs":[{"name":"pToken","type":"address","internalType":"contract PToken"}],"outputs":[{"name":"","type":"uint256","internalType":"uint256"}],"stateMutability":"nonpayable"},{"type":"function","name":"accountAssets","inputs":[{"name":"","type":"address","internalType":"address"},{"name":"","type":"uint256","internalType":"uint256"}],"outputs":[{"name":"","type":"address","internalType":"contract PToken"}],"stateMutability":"view"},{"type":"function","name":"admin","inputs":[],"outputs":[{"name":"","type":"address","internalType":"address"}],"stateMutability":"view"},{"type":"function","name":"allMarkets","inputs":[{"name":"","type":"uint256","internalType":"uint256"}],"outputs":[{"name":"","type":"address","internalType":"contract PToken"}],"stateMutability":"view"},{"type":"function","name":"borrowAllowed","inputs":[{"name":"pToken","type":"address","internalType":"address"},{"name":"borrower","type":"address","internalType":"address"},{"name":"borrowAmount","type":"uint256","internalType":"uint256"}],"outputs":[{"name":"","type":"uint256","internalType":"uint256"}],"stateMutability":"nonpayable"},{"type":"function","name":"borrowCapGuardian","inputs":[],"outputs":[{"name":"","type":"address","internalType":"address"}],"stateMutability":"view"},{"type":"function","name":"borrowCaps","inputs":[{"name":"","type":"address","internalType":"address"}],"outputs":[{"name":"","type":"uint256","internalType":"uint256"}],"stateMutability":"view"},{"type":"function","name":"borrowGuardianPaused","inputs":[{"name":"","type":"address","internalType":"address"}],"outputs":[{"name":"","type":"bool","internalType":"bool"}],"stateMutability":"view"},{"type":"function","name":"borrowVerify","inputs":[{"name":"pToken","type":"address","internalType":"address"},{"name":"borrower","type":"address","internalType":"address"},{"name":"borrowAmount","type":"uint256","internalType":"uint256"}],"outputs":[],"stateMutability":"nonpayable"},{"type":"function","name":"checkMembership","inputs":[{"name":"account","type":"address","internalType":"address"},{"name":"pToken","type":"address","internalType":"contract PToken"}],"outputs":[{"name":"","type":"bool","internalType":"bool"}],"stateMutability":"view"},{"type":"function","name":"claimPeridot","inputs":[{"name":"holders","type":"address[]","internalType":"address[]"},{"name":"pTokens","type":"address[]","internalType":"contract PToken[]"},{"name":"borrowers","type":"bool","internalType":"bool"},{"name":"suppliers","type":"bool","internalType":"bool"}],"outputs":[],"stateMutability":"nonpayable"},{"type":"function","name":"claimPeridot","inputs":[{"name":"holder","type":"address","internalType":"address"}],"outputs":[],"stateMutability":"nonpayable"},{"type":"function","name":"claimPeridot","inputs":[{"name":"holder","type":"address","internalType":"address"},{"name":"pTokens","type":"address[]","internalType":"contract PToken[]"}],"outputs":[],"stateMutability":"nonpayable"},{"type":"function","name":"closeFactorMantissa","inputs":[],"outputs":[{"name":"","type":"uint256","internalType":"uint256"}],"stateMutability":"view"},{"type":"function","name":"enterMarkets","inputs":[{"name":"pTokens","type":"address[]","internalType":"address[]"}],"outputs":[{"name":"","type":"uint256[]","internalType":"uint256[]"}],"stateMutability":"nonpayable"},{"type":"function","name":"exitMarket","inputs":[{"name":"pTokenAddress","type":"address","internalType":"address"}],"outputs":[{"name":"","type":"uint256","internalType":"uint256"}],"stateMutability":"nonpayable"},{"type":"function","name":"getAccountLiquidity","inputs":[{"name":"account","type":"address","internalType":"address"}],"outputs":[{"name":"","type":"uint256","internalType":"uint256"},{"name":"","type":"uint256","internalType":"uint256"},{"name":"","type":"uint256","internalType":"uint256"}],"stateMutability":"view"},{"type":"function","name":"getAllMarkets","inputs":[],"outputs":[{"name":"","type":"address[]","internalType":"contract PToken[]"}],"stateMutability":"view"},{"type":"function","name":"getAssetsIn","inputs":[{"name":"account","type":"address","internalType":"address"}],"outputs":[{"name":"","type":"address[]","internalType":"contract PToken[]"}],"stateMutability":"view"},{"type":"function","name":"getBlockNumber","inputs":[],"outputs":[{"name":"","type":"uint256","internalType":"uint256"}],"stateMutability":"view"},{"type":"function","name":"getHypotheticalAccountLiquidity","inputs":[{"name":"account","type":"address","internalType":"address"},{"name":"pTokenModify","type":"address","internalType":"address"},{"name":"redeemTokens","type":"uint256","internalType":"uint256"},{"name":"borrowAmount","type":"uint256","internalType":"uint256"}],"outputs":[{"name":"","type":"uint256","internalType":"uint256"},{"name":"","type":"uint256","internalType":"uint256"},{"name":"","type":"uint256","internalType":"uint256"}],"stateMutability":"view"},{"type":"function","name":"getPeridotAddress","inputs":[],"outputs":[{"name":"","type":"address","internalType":"address"}],"stateMutability":"view"},{"type":"function","name":"initializePERIDOT","inputs":[{"name":"_peridot","type":"address","internalType":"address"}],"outputs":[],"stateMutability":"nonpayable"},{"type":"function","name":"isPeridottroller","inputs":[],"outputs":[{"name":"","type":"bool","internalType":"bool"}],"stateMutability":"view"},{"type":"function","name":"lastContributorBlock","inputs":[{"name":"","type":"address","internalType":"address"}],"outputs":[{"name":"","type":"uint256","internalType":"uint256"}],"stateMutability":"view"},{"type":"function","name":"liquidateBorrowAllowed","inputs":[{"name":"pTokenBorrowed","type":"address","internalType":"address"},{"name":"pTokenCollateral","type":"address","internalType":"address"},{"name":"liquidator","type":"address","internalType":"address"},{"name":"borrower","type":"address","internalType":"address"},{"name":"repayAmount","type":"uint256","internalType":"uint256"}],"outputs":[{"name":"","type":"uint256","internalType":"uint256"}],"stateMutability":"nonpayable"},{"type":"function","name":"liquidateBorrowVerify","inputs":[{"name":"pTokenBorrowed","type":"address","internalType":"address"},{"name":"pTokenCollateral","type":"address","internalType":"address"},{"name":"liquidator","type":"address","internalType":"address"},{"name":"borrower","type":"address","internalType":"address"},{"name":"actualRepayAmount","type":"uint256","internalType":"uint256"},{"name":"seizeTokens","type":"uint256","internalType":"uint256"}],"outputs":[],"stateMutability":"nonpayable"},{"type":"function","name":"liquidateCalculateSeizeTokens","inputs":[{"name":"pTokenBorrowed","type":"address","internalType":"address"},{"name":"pTokenCollateral","type":"address","internalType":"address"},{"name":"actualRepayAmount","type":"uint256","internalType":"uint256"}],"outputs":[{"name":"","type":"uint256","internalType":"uint256"},{"name":"","type":"uint256","internalType":"uint256"}],"stateMutability":"view"},{"type":"function","name":"liquidationIncentiveMantissa","inputs":[],"outputs":[{"name":"","type":"uint256","internalType":"uint256"}],"stateMutability":"view"},{"type":"function","name":"markets","inputs":[{"name":"","type":"address","internalType":"address"}],"outputs":[{"name":"isListed","type":"bool","internalType":"bool"},{"name":"collateralFactorMantissa","type":"uint256","internalType":"uint256"},{"name":"isPeridoted","type":"bool","internalType":"bool"}],"stateMutability":"view"},{"type":"function","name":"maxAssets","inputs":[],"outputs":[{"name":"","type":"uint256","internalType":"uint256"}],"stateMutability":"view"},{"type":"function","name":"mintAllowed","inputs":[{"name":"pToken","type":"address","internalType":"address"},{"name":"minter","type":"address","internalType":"address"},{"name":"mintAmount","type":"uint256","internalType":"uint256"}],"outputs":[{"name":"","type":"uint256","internalType":"uint256"}],"stateMutability":"nonpayable"},{"type":"function","name":"mintGuardianPaused","inputs":[{"name":"","type":"address","internalType":"address"}],"outputs":[{"name":"","type":"bool","internalType":"bool"}],"stateMutability":"view"},{"type":"function","name":"mintVerify","inputs":[{"name":"pToken","type":"address","internalType":"address"},{"name":"minter","type":"address","internalType":"address"},{"name":"actualMintAmount","type":"uint256","internalType":"uint256"},{"name":"mintTokens","type":"uint256","internalType":"uint256"}],"outputs":[],"stateMutability":"nonpayable"},{"type":"function","name":"oracle","inputs":[],"outputs":[{"name":"","type":"address","internalType":"contract PriceOracle"}],"stateMutability":"view"},{"type":"function","name":"pauseGuardian","inputs":[],"outputs":[{"name":"","type":"address","internalType":"address"}],"stateMutability":"view"},{"type":"function","name":"pendingAdmin","inputs":[],"outputs":[{"name":"","type":"address","internalType":"address"}],"stateMutability":"view"},{"type":"function","name":"pendingPeridottrollerImplementation","inputs":[],"outputs":[{"name":"","type":"address","internalType":"address"}],"stateMutability":"view"},{"type":"function","name":"peridotAccrued","inputs":[{"name":"","type":"address","internalType":"address"}],"outputs":[{"name":"","type":"uint256","internalType":"uint256"}],"stateMutability":"view"},{"type":"function","name":"peridotBorrowState","inputs":[{"name":"","type":"address","internalType":"address"}],"outputs":[{"name":"index","type":"uint224","internalType":"uint224"},{"name":"block","type":"uint32","internalType":"uint32"}],"stateMutability":"view"},{"type":"function","name":"peridotBorrowerIndex","inputs":[{"name":"","type":"address","internalType":"address"},{"name":"","type":"address","internalType":"address"}],"outputs":[{"name":"","type":"uint256","internalType":"uint256"}],"stateMutability":"view"},{"type":"function","name":"peridotContributorSpeeds","inputs":[{"name":"","type":"address","internalType":"address"}],"outputs":[{"name":"","type":"uint256","internalType":"uint256"}],"stateMutability":"view"},{"type":"function","name":"peridotInitialIndex","inputs":[],"outputs":[{"name":"","type":"uint224","internalType":"uint224"}],"stateMutability":"view"},{"type":"function","name":"peridotRate","inputs":[],"outputs":[{"name":"","type":"uint256","internalType":"uint256"}],"stateMutability":"view"},{"type":"function","name":"peridotSpeeds","inputs":[{"name":"","type":"address","internalType":"address"}],"outputs":[{"name":"","type":"uint256","internalType":"uint256"}],"stateMutability":"view"},{"type":"function","name":"peridotSupplierIndex","inputs":[{"name":"","type":"address","internalType":"address"},{"name":"","type":"address","internalType":"address"}],"outputs":[{"name":"","type":"uint256","internalType":"uint256"}],"stateMutability":"view"},{"type":"function","name":"peridotSupplyState","inputs":[{"name":"","type":"address","internalType":"address"}],"outputs":[{"name":"index","type":"uint224","internalType":"uint224"},{"name":"block","type":"uint32","internalType":"uint32"}],"stateMutability":"view"},{"type":"function","name":"peridottrollerImplementation","inputs":[],"outputs":[{"name":"","type":"address","internalType":"address"}],"stateMutability":"view"},{"type":"function","name":"redeemAllowed","inputs":[{"name":"pToken","type":"address","internalType":"address"},{"name":"redeemer","type":"address","internalType":"address"},{"name":"redeemTokens","type":"uint256","internalType":"uint256"}],"outputs":[{"name":"","type":"uint256","internalType":"uint256"}],"stateMutability":"nonpayable"},{"type":"function","name":"redeemVerify","inputs":[{"name":"pToken","type":"address","internalType":"address"},{"name":"redeemer","type":"address","internalType":"address"},{"name":"redeemAmount","type":"uint256","internalType":"uint256"},{"name":"redeemTokens","type":"uint256","internalType":"uint256"}],"outputs":[],"stateMutability":"nonpayable"},{"type":"function","name":"repayBorrowAllowed","inputs":[{"name":"pToken","type":"address","internalType":"address"},{"name":"payer","type":"address","internalType":"address"},{"name":"borrower","type":"address","internalType":"address"},{"name":"repayAmount","type":"uint256","internalType":"uint256"}],"outputs":[{"name":"","type":"uint256","internalType":"uint256"}],"stateMutability":"nonpayable"},{"type":"function","name":"repayBorrowVerify","inputs":[{"name":"pToken","type":"address","internalType":"address"},{"name":"payer","type":"address","internalType":"address"},{"name":"borrower","type":"address","internalType":"address"},{"name":"actualRepayAmount","type":"uint256","internalType":"uint256"},{"name":"borrowerIndex","type":"uint256","internalType":"uint256"}],"outputs":[],"stateMutability":"nonpayable"},{"type":"function","name":"seizeAllowed","inputs":[{"name":"pTokenCollateral","type":"address","internalType":"address"},{"name":"pTokenBorrowed","type":"address","internalType":"address"},{"name":"liquidator","type":"address","internalType":"address"},{"name":"borrower","type":"address","internalType":"address"},{"name":"seizeTokens","type":"uint256","internalType":"uint256"}],"outputs":[{"name":"","type":"uint256","internalType":"uint256"}],"stateMutability":"nonpayable"},{"type":"function","name":"seizeGuardianPaused","inputs":[],"outputs":[{"name":"","type":"bool","internalType":"bool"}],"stateMutability":"view"},{"type":"function","name":"seizeVerify","inputs":[{"name":"pTokenCollateral","type":"address","internalType":"address"},{"name":"pTokenBorrowed","type":"address","internalType":"address"},{"name":"liquidator","type":"address","internalType":"address"},{"name":"borrower","type":"address","internalType":"address"},{"name":"seizeTokens","type":"uint256","internalType":"uint256"}],"outputs":[],"stateMutability":"nonpayable"},{"type":"function","name":"transferAllowed","inputs":[{"name":"pToken","type":"address","internalType":"address"},{"name":"src","type":"address","internalType":"address"},{"name":"dst","type":"address","internalType":"address"},{"name":"transferTokens","type":"uint256","internalType":"uint256"}],"outputs":[{"name":"","type":"uint256","internalType":"uint256"}],"stateMutability":"nonpayable"},{"type":"function","name":"transferGuardianPaused","inputs":[],"outputs":[{"name":"","type":"bool","internalType":"bool"}],"stateMutability":"view"},{"type":"function","name":"transferVerify","inputs":[{"name":"pToken","type":"address","internalType":"address"},{"name":"src","type":"address","internalType":"address"},{"name":"dst","type":"address","internalType":"address"},{"name":"transferTokens","type":"uint256","internalType":"uint256"}],"outputs":[],"stateMutability":"nonpayable"},{"type":"function","name":"updateContributorRewards","inputs":[{"name":"contributor","type":"address","internalType":"address"}],"outputs":[],"stateMutability":"nonpayable"},{"type":"event","name":"ActionPaused","inputs":[{"name":"action","type":"string","indexed":false,"internalType":"string"},{"name":"pauseState","type":"bool","indexed":false,"internalType":"bool"}],"anonymous":false},{"type":"event","name":"ActionPaused","inputs":[{"name":"pToken","type":"address","indexed":false,"internalType":"contract PToken"},{"name":"action","type":"string","indexed":false,"internalType":"string"},{"name":"pauseState","type":"bool","indexed":false,"internalType":"bool"}],"anonymous":false},{"type":"event","name":"ContributorPeridotSpeedUpdated","inputs":[{"name":"contributor","type":"address","indexed":true,"internalType":"address"},{"name":"newSpeed","type":"uint256","indexed":false,"internalType":"uint256"}],"anonymous":false},{"type":"event","name":"DistributedBorrowerPeridot","inputs":[{"name":"pToken","type":"address","indexed":true,"internalType":"contract PToken"},{"name":"borrower","type":"address","indexed":true,"internalType":"address"},{"name":"peridotDelta","type":"uint256","indexed":false,"internalType":"uint256"},{"name":"peridotBorrowIndex","type":"uint256","indexed":false,"internalType":"uint256"}],"anonymous":false},{"type":"event","name":"DistributedSupplierPeridot","inputs":[{"name":"pToken","type":"address","indexed":true,"internalType":"contract PToken"},{"name":"supplier","type":"address","indexed":true,"internalType":"address"},{"name":"peridotDelta","type":"uint256","indexed":false,"internalType":"uint256"},{"name":"peridotSupplyIndex","type":"uint256","indexed":false,"internalType":"uint256"}],"anonymous":false},{"type":"event","name":"Failure","inputs":[{"name":"error","type":"uint256","indexed":false,"internalType":"uint256"},{"name":"info","type":"uint256","indexed":false,"internalType":"uint256"},{"name":"detail","type":"uint256","indexed":false,"internalType":"uint256"}],"anonymous":false},{"type":"event","name":"MarketEntered","inputs":[{"name":"pToken","type":"address","indexed":false,"internalType":"contract PToken"},{"name":"account","type":"address","indexed":false,"internalType":"address"}],"anonymous":false},{"type":"event","name":"MarketExited","inputs":[{"name":"pToken","type":"address","indexed":false,"internalType":"contract PToken"},{"name":"account","type":"address","indexed":false,"internalType":"address"}],"anonymous":false},{"type":"event","name":"MarketListed","inputs":[{"name":"pToken","type":"address","indexed":false,"internalType":"contract PToken"}],"anonymous":false},{"type":"event","name":"NewBorrowCap","inputs":[{"name":"pToken","type":"address","indexed":true,"internalType":"contract PToken"},{"name":"newBorrowCap","type":"uint256","indexed":false,"internalType":"uint256"}],"anonymous":false},{"type":"event","name":"NewBorrowCapGuardian","inputs":[{"name":"oldBorrowCapGuardian","type":"address","indexed":false,"internalType":"address"},{"name":"newBorrowCapGuardian","type":"address","indexed":false,"internalType":"address"}],"anonymous":false},{"type":"event","name":"NewCloseFactor","inputs":[{"name":"oldCloseFactorMantissa","type":"uint256","indexed":false,"internalType":"uint256"},{"name":"newCloseFactorMantissa","type":"uint256","indexed":false,"internalType":"uint256"}],"anonymous":false},{"type":"event","name":"NewCollateralFactor","inputs":[{"name":"pToken","type":"address","indexed":false,"internalType":"contract PToken"},{"name":"oldCollateralFactorMantissa","type":"uint256","indexed":false,"internalType":"uint256"},{"name":"newCollateralFactorMantissa","type":"uint256","indexed":false,"internalType":"uint256"}],"anonymous":false},{"type":"event","name":"NewLiquidationIncentive","inputs":[{"name":"oldLiquidationIncentiveMantissa","type":"uint256","indexed":false,"internalType":"uint256"},{"name":"newLiquidationIncentiveMantissa","type":"uint256","indexed":false,"internalType":"uint256"}],"anonymous":false},{"type":"event","name":"NewPauseGuardian","inputs":[{"name":"oldPauseGuardian","type":"address","indexed":false,"internalType":"address"},{"name":"newPauseGuardian","type":"address","indexed":false,"internalType":"address"}],"anonymous":false},{"type":"event","name":"NewPriceOracle","inputs":[{"name":"oldPriceOracle","type":"address","indexed":false,"internalType":"contract PriceOracle"},{"name":"newPriceOracle","type":"address","indexed":false,"internalType":"contract PriceOracle"}],"anonymous":false},{"type":"event","name":"PeridotGranted","inputs":[{"name":"recipient","type":"address","indexed":false,"internalType":"address"},{"name":"amount","type":"uint256","indexed":false,"internalType":"uint256"}],"anonymous":false},{"type":"event","name":"PeridotSpeedUpdated","inputs":[{"name":"pToken","type":"address","indexed":true,"internalType":"contract PToken"},{"name":"newSpeed","type":"uint256","indexed":false,"internalType":"uint256"}],"anonymous":false}],"bytecode":{"object":"0x608034607c57601f6152d738819003918201601f19168301916001600160401b03831184841017608057808492602094604052833981010312607c57516001600160a01b03811690819003607c57601980546001600160a01b03199081169290921790555f80549091163317905560405161524290816100958239f35b5f80fd5b634e487b7160e01b5f52604160045260245ffdfe60806040526004361015610011575f80fd5b5f3560e01c80630aa4266f14611ffa57806318c882a514611ee757806318f1408d14611ebf5780631d504dc614611d315780631ededc9114611d0657806321af456914611cde57806324008a6214611cc257806324a3d62214611c9a5780632582e0ec14611a0357806326782247146119db5780632d70db78146118fe578063317b0b7714611852578063328bb72b146118015780633506d4751461171557806336376925146116f1578063391957d7146116165780633bcf7ec1146115055780633c94786f146114e057806341c728b9146114d257806342cbb15c146114b857806347ef3b3b146114845780634a5844321461144c5780634ada90af1461142f5780634e79238f1461140c5780634ef4c3e1146113f25780634fd42e17146113d457806351dff9891461137157806352d84d1e1461134857806355ee1fe1146113195780635c7786051461130b5780635ec88c79146112be5780635f5af1aa1461129b5780635fc7e71e1461127e578063607ef6c1146110be5780636a56947e146110b05780636d154ea5146110735780636d35bf9114611065578063731f0c2b14611028578063741b252514611007578063794595f514610fcf5780637c8f3a6714610fa75780637dc0d1d014610f7f578063825d327f14610c6c57806387f7630314610c475780638b130fa0146108825780638e8f294b14610bee5780638ebf636414610b0e578063929fe9a114610ab4578063935dbd2614610a6357806394b2294b14610a465780639a8260d61461093f5780639d92e62f146108fa578063a64db627146108aa578063a6b1395514610882578063a76b3fda1461085f578063abfceffc14610827578063ac0b0bb714610802578063b0772d0b146107d7578063b0cbd62214610721578063bdcdc25814610705578063bea6b8b8146106cd578063c2998238146105cd578063c488847b146105a8578063cd2489f014610580578063ce27c01e14610548578063d002d98914610510578063d02f7351146104f3578063d088864a146104d6578063da3d454c146104bd578063dce154491461045b578063e4028eee14610434578063e6653f3d1461040f578063e8755446146103f2578063eabe7d91146103d9578063ede4edd0146103ae578063f851a440146103875763fa707af914610368575f80fd5b34610383575f36600319011261038357602060405160018152f35b5f80fd5b34610383575f366003190112610383575f546040516001600160a01b039091168152602090f35b346103835760203660031901126103835760206103d16103cc61204a565b61380b565b604051908152f35b346103835760206103d16103ec36612268565b916137b7565b34610383575f366003190112610383576020600554604051908152f35b34610383575f36600319011261038357602060ff600a5460a81c166040519015158152f35b346103835760403660031901126103835760206103d161045261204a565b602435906135d9565b346103835760403660031901126103835761047461204a565b6001600160a01b03165f90815260086020526040902080546024359190821015610383576020916104a4916122ce565b905460405160039290921b1c6001600160a01b03168152f35b346103835760206103d16104d036612268565b91613305565b34610383575f366003190112610383576020600e54604051908152f35b346103835760206103d1610506366122e3565b5092919091613178565b34610383576020366003190112610383576001600160a01b0361053161204a565b165f526014602052602060405f2054604051908152f35b34610383576020366003190112610383576001600160a01b0361056961204a565b165f526017602052602060405f2054604051908152f35b34610383575f3660031901126103835760206040516a0c097ce7bc90715b34b9f160241b8152f35b346103835760406105c16105bb36612268565b91612f22565b82519182526020820152f35b346103835760203660031901126103835760043567ffffffffffffffff8111610383576105fe9036906004016121c5565b80519061060a826121ad565b91610618604051938461218b565b808352610624816121ad565b602084019290601f19013684375f5b82811061067e578385604051918291602083019060208452518091526040830191905f5b818110610665575050500390f35b8251845285945060209384019390920191600101610657565b61069b336001600160a01b036106948486612564565b5116614faa565b9060128210156106b9576001916106b28288612564565b5201610633565b634e487b7160e01b5f52602160045260245ffd5b34610383576020366003190112610383576001600160a01b036106ee61204a565b165f526018602052602060405f2054604051908152f35b346103835760206103d1610718366120d4565b92919091612eab565b346103835760403660031901126103835761073a61204a565b7f25c31f2aebcdd5690c478d6f15c5d081640120a66428323870ed17257e342c3a60206024359261077161076c614f02565b612a0f565b61077a8161298c565b836107b9576001600160a01b0381165f9081526018835260408120555b6001600160a01b03165f818152601783526040908190208590555193845292a2005b6001600160a01b0381165f9081526018835260409020439055610797565b34610383575f366003190112610383576107fe6107f2612578565b60405191829182612376565b0390f35b34610383575f36600319011261038357602060ff600a5460b81c166040519015158152f35b34610383576020366003190112610383576001600160a01b0361084861204a565b165f5260086020526107fe6107f260405f206125cb565b346103835760203660031901126103835760206103d161087d61204a565b612cc4565b34610383575f366003190112610383576019546040516001600160a01b039091168152602090f35b34610383576040366003190112610383576108c361204a565b6108cb612060565b6001600160a01b039182165f908152601360209081526040808320949093168252928352819020549051908152f35b346103835760403660031901126103835761091361204a565b6024359067ffffffffffffffff82116103835761093761093d9236906004016121c5565b90612a5a565b005b346103835760403660031901126103835761095861204a565b602435610963614f02565b15610a01576109728183613e44565b6109bc57604080516001600160a01b03909316835260208301919091527f261934657a3c2333b8c49721bd1f22d7fa808b39ff56c88e0ed42daaff5e2c4e9190819081015b0390a1005b60405162461bcd60e51b815260206004820152601e60248201527f696e73756666696369656e742070657269646f7420666f72206772616e7400006044820152606490fd5b60405162461bcd60e51b815260206004820152601c60248201527f6f6e6c792061646d696e2063616e206772616e742070657269646f74000000006044820152606490fd5b34610383575f366003190112610383576020600754604051908152f35b34610383576020366003190112610383576001600160a01b03610a8461204a565b165f908152601060209081526040918290205482516001600160e01b038216815260e09190911c91810191909152f35b3461038357604036600319011261038357610acd61204a565b6001600160a01b03610add612060565b165f526009602052600260405f20019060018060a01b03165f52602052602060ff60405f2054166040519015158152f35b34610383576020366003190112610383576020610b296120c5565b600a5490336001600160a01b038316148015610bdb575b610b4990612415565b5f546001600160a01b031633148015610bcf575b610b6690612471565b15159060ff60b01b8260b01b169060ff60b01b191617600a557fef159d9a32b2472e32b098f954f3ce62d232939f1c207070b584df1814de2de060806040516040815260086040820152672a3930b739b332b960c11b60608201528385820152a1604051908152f35b50801515600114610b5d565b505f546001600160a01b03163314610b40565b34610383576020366003190112610383576001600160a01b03610c0f61204a565b165f526009602052606060405f2060ff8154169060ff6003600183015492015416906040519215158352602083015215156040820152f35b34610383575f36600319011261038357602060ff600a5460b01c166040519015158152f35b3461038357604036600319011261038357610c8561204a565b60243590610c9461076c614f02565b6001600160a01b03165f818152600f6020526040902054909190818115610d82575060405163aa5af0fd60e01b815290602082600481875afa8015610d775783925f91610d3f575b50604051610cfe91610ced82612152565b8152610cf886613f30565b85613aa6565b03610d0557005b60207f7192d234c68cd375a28075afb25d2e5ab2f48248c84841e104c1bd008785b98091835f52600f82528060405f2055604051908152a2005b9250506020823d602011610d6f575b81610d5b6020938361218b565b8101031261038357610cfe83925190610cdc565b3d9150610d4e565b6040513d5f823e3d90fd5b908115610cfe579050825f526009602052600160ff60405f205416151503610f3a575f838152601060205260409020548291906001600160e01b03161580610f23575b610eaf575b5f848152601160205260409020546001600160e01b03161580610e98575b15610cfe57610e35604051610dfe60408261218b565b601c81527f626c6f636b206e756d6265722065786365656473203332206269747300000000602082015264010000000043106150d3565b610e93604051610e4481612122565b6a0c097ce7bc90715b34b9f160241b81524363ffffffff1660208083019182525f8881526011909152604090209151905160e01b6001600160e01b0319166001600160e01b0391909116179055565b610cfe565b50835f52601160205260405f205460e01c15610de8565b610ec0604051610dfe60408261218b565b610f1e604051610ecf81612122565b6a0c097ce7bc90715b34b9f160241b81524363ffffffff1660208083019182525f8881526010909152604090209151905160e01b6001600160e01b0319166001600160e01b0391909116179055565b610dca565b50835f52601060205260405f205460e01c15610dc5565b60405162461bcd60e51b815260206004820152601c60248201527f70657269646f74206d61726b6574206973206e6f74206c6973746564000000006044820152606490fd5b34610383575f366003190112610383576004546040516001600160a01b039091168152602090f35b34610383575f366003190112610383576003546040516001600160a01b039091168152602090f35b34610383576020366003190112610383576001600160a01b03610ff061204a565b165f52600f602052602060405f2054604051908152f35b346103835760203660031901126103835761093d61102361204a565b61298c565b34610383576020366003190112610383576001600160a01b0361104961204a565b165f52600b602052602060ff60405f2054166040519015158152f35b346103835761093d366122e3565b34610383576020366003190112610383576001600160a01b0361109461204a565b165f52600c602052602060ff60405f2054166040519015158152f35b346103835761093d366120d4565b346103835760403660031901126103835760043567ffffffffffffffff8111610383576110ef903690600401612345565b60243567ffffffffffffffff81116103835761110f903690600401612345565b9160018060a01b035f54163314801561126a575b1561120757801515806111fe575b156111c9575f5b81811061114157005b8061114f6001928686612968565b35828060a01b0361116961116484878b612968565b612978565b165f52601660205260405f2055611184611164828589612968565b7f6f1951b2aad10f3fc81b86d91105b413a5b3f847a34bbc5ce1904201b14438f660206111b2848989612968565b3592604051938452858060a01b031692a201611138565b60405162461bcd60e51b815260206004820152600d60248201526c1a5b9d985b1a59081a5b9c1d5d609a1b6044820152606490fd5b50828114611131565b60405162461bcd60e51b815260206004820152603560248201527f6f6e6c792061646d696e206f7220626f72726f772063617020677561726469616044820152746e2063616e2073657420626f72726f77206361707360581b6064820152608490fd5b506015546001600160a01b03163314611123565b346103835760206103d1611291366122e3565b9390929150612848565b346103835760203660031901126103835760206103d16112b961204a565b6127ac565b34610383576020366003190112610383576112df6112da61204a565b61421c565b601283929310156106b9576107fe90604051938493846040919493926060820195825260208201520152565b346103835761093d36612268565b34610383576020366003190112610383576004356001600160a01b0381168103610383576103d1602091612718565b3461038357602036600319011261038357600435600d54811015610383576104a46020916122a2565b346103835761137f3661222a565b1592509050816113ca575b5061139157005b60405162461bcd60e51b815260206004820152601160248201527072656465656d546f6b656e73207a65726f60781b6044820152606490fd5b905015158161138a565b346103835760203660031901126103835760206103d16004356126a1565b346103835760206103d161140536612268565b509061261c565b34610383576112df61141d3661222a565b9290916001600160a01b031690614bbd565b34610383575f366003190112610383576020600654604051908152f35b34610383576020366003190112610383576001600160a01b0361146d61204a565b165f526016602052602060405f2054604051908152f35b346103835760c03660031901126103835761149d61204a565b506114a6612060565b506114af612076565b5061093d61208c565b34610383575f366003190112610383576020604051438152f35b346103835761093d3661222a565b34610383575f36600319011261038357602060ff600a5460a01c166040519015158152f35b3461038357604036600319011261038357602061152061204a565b7f71aec636243f9709bb0007ae15e9afb8150ab01716d75fd7573be5cc096e03b060a061154b6120b6565b92600180831b031692835f526009855261156b60ff60405f2054166123b8565b600180831b03600a541633148015611600575b61158790612415565b600180831b035f5416331480156115f4575b6115a290612471565b835f52600b85526115c28160405f209060ff801983541691151516179055565b6040519384526060858501526004606085015263135a5b9d60e21b6080850152151592836040820152a1604051908152f35b50801515600114611599565b50611587600180841b035f54163314905061157e565b346103835760203660031901126103835761162f61204a565b5f546001600160a01b0316330361169d57601580546001600160a01b039283166001600160a01b0319821681179092556040805193909116835260208301919091527feda98690e518e9a05f8ec6837663e188211b2da8f4906648b323f2c1d4434e299190819081016109b7565b60405162461bcd60e51b815260206004820152602660248201527f6f6e6c792061646d696e2063616e2073657420626f72726f772063617020677560448201526530b93234b0b760d11b6064820152608490fd5b346103835760203660031901126103835761093d61170d61204a565b610937612578565b346103835760203660031901126103835761172e61204a565b5f546001600160a01b031633036117b257601954906001600160a01b03821661176d576001600160a01b03166001600160a01b03199190911617601955005b60405162461bcd60e51b815260206004820152601b60248201527f50455249444f5420616c726561647920696e697469616c697a656400000000006044820152606490fd5b60405162461bcd60e51b815260206004820152602160248201527f6f6e6c792061646d696e2063616e20696e697469616c697a652050455249444f6044820152601560fa1b6064820152608490fd5b34610383576020366003190112610383576001600160a01b0361182261204a565b165f908152601160209081526040918290205482516001600160e01b038216815260e09190911c91810191909152f35b34610383576020366003190112610383575f54600435906001600160a01b031633036118b95760407f3b9670cf975d26958e754b57098eaa2ac914d8d2a31b83257997b9f346110fd991600554908060055582519182526020820152a160206040515f8152f35b60405162461bcd60e51b815260206004820152601f60248201527f6f6e6c792061646d696e2063616e2073657420636c6f736520666163746f72006044820152606490fd5b346103835760203660031901126103835760206119196120c5565b600a5490336001600160a01b0383161480156119c8575b61193990612415565b5f546001600160a01b0316331480156119bc575b61195690612471565b15159060ff60b81b8260b81b169060ff60b81b191617600a557fef159d9a32b2472e32b098f954f3ce62d232939f1c207070b584df1814de2de060806040516040815260056040820152645365697a6560d81b60608201528385820152a1604051908152f35b5080151560011461194d565b505f546001600160a01b03163314611930565b34610383575f366003190112610383576001546040516001600160a01b039091168152602090f35b346103835760803660031901126103835760043567ffffffffffffffff811161038357611a349036906004016121c5565b60243567ffffffffffffffff811161038357611a549036906004016121c5565b9060443590811515809203610383576064359283151580940361038357916001805f92149414905b835181101561093d576001600160a01b03611a978286612564565b5116805f52600960205260ff60405f20541615611c5d5785611b66575b82611ac3575b50600101611a7c565b91949093611ad083613f30565b5f5b8451811015611b5857600190611afb6001600160a01b03611af38389612564565b511686614079565b611b34828060a01b03611b0e8389612564565b5116838060a01b03611b20848a612564565b51165f52601460205260405f205490613e44565b828060a01b03611b448389612564565b51165f52601460205260405f205501611ad2565b509360019195925090611aba565b90604095929495519263aa5af0fd60e01b8452602084600481865afa938415610d77575f94611c2a575b5060405193611b9e85612152565b8452611baa8484613aa6565b5f5b8551811015611c1f57600190611bd6866001600160a01b03611bce848b612564565b511687613cb1565b611bfb828060a01b03611be9838a612564565b5116838060a01b03611b20848b612564565b828060a01b03611c0b838a612564565b51165f52601460205260405f205501611bac565b509594925090611ab4565b9093506020813d8211611c55575b81611c456020938361218b565b8101031261038357519287611b90565b3d9150611c38565b60405162461bcd60e51b81526020600482015260156024820152741b585c9ad95d081b5d5cdd081899481b1a5cdd1959605a1b6044820152606490fd5b34610383575f36600319011261038357600a546040516001600160a01b039091168152602090f35b346103835760206103d1611cd5366120d4565b509190506124b6565b34610383575f366003190112610383576015546040516001600160a01b039091168152602090f35b346103835760a036600319011261038357611d1f61204a565b50611d28612060565b5061093d612076565b34610383576020366003190112610383576004356001600160a01b03811690819003610383576040516303e1469160e61b8152602081600481855afa908115610d77575f91611e7d575b506001600160a01b03163303611e285760205f9160046040518094819363307a00cd60e21b83525af1908115610d77575f91611df6575b50611db957005b60405162461bcd60e51b815260206004820152601560248201527418da185b99d9481b9bdd08185d5d1a1bdc9a5e9959605a1b6044820152606490fd5b90506020813d602011611e20575b81611e116020938361218b565b81010312610383575181611db2565b3d9150611e04565b60405162461bcd60e51b815260206004820152602760248201527f6f6e6c7920756e6974726f6c6c65722061646d696e2063616e206368616e676560448201526620627261696e7360c81b6064820152608490fd5b90506020813d602011611eb7575b81611e986020938361218b565b8101031261038357516001600160a01b03811681036103835782611d7b565b3d9150611e8b565b34610383575f366003190112610383576002546040516001600160a01b039091168152602090f35b34610383576040366003190112610383576020611f0261204a565b7f71aec636243f9709bb0007ae15e9afb8150ab01716d75fd7573be5cc096e03b060a0611f2d6120b6565b92600180831b031692835f5260098552611f4d60ff60405f2054166123b8565b600180831b03600a541633148015611fe4575b611f6990612415565b600180831b035f541633148015611fd8575b611f8490612471565b835f52600c8552611fa48160405f209060ff801983541691151516179055565b6040519384526060858501526006606085015265426f72726f7760d01b6080850152151592836040820152a1604051908152f35b50801515600114611f7b565b50611f69600180841b035f541633149050611f60565b346103835760403660031901126103835761201361204a565b61201b612060565b6001600160a01b039182165f908152601260209081526040808320949093168252928352819020549051908152f35b600435906001600160a01b038216820361038357565b602435906001600160a01b038216820361038357565b604435906001600160a01b038216820361038357565b606435906001600160a01b038216820361038357565b35906001600160a01b038216820361038357565b60243590811515820361038357565b60043590811515820361038357565b6080906003190112610383576004356001600160a01b038116810361038357906024356001600160a01b038116810361038357906044356001600160a01b0381168103610383579060643590565b6040810190811067ffffffffffffffff82111761213e57604052565b634e487b7160e01b5f52604160045260245ffd5b6020810190811067ffffffffffffffff82111761213e57604052565b610140810190811067ffffffffffffffff82111761213e57604052565b90601f8019910116810190811067ffffffffffffffff82111761213e57604052565b67ffffffffffffffff811161213e5760051b60200190565b9080601f830112156103835781356121dc816121ad565b926121ea604051948561218b565b81845260208085019260051b82010192831161038357602001905b8282106122125750505090565b6020809161221f846120a2565b815201910190612205565b6080906003190112610383576004356001600160a01b038116810361038357906024356001600160a01b038116810361038357906044359060643590565b6060906003190112610383576004356001600160a01b038116810361038357906024356001600160a01b0381168103610383579060443590565b600d548110156122ba57600d5f5260205f2001905f90565b634e487b7160e01b5f52603260045260245ffd5b80548210156122ba575f5260205f2001905f90565b60a0906003190112610383576004356001600160a01b038116810361038357906024356001600160a01b038116810361038357906044356001600160a01b038116810361038357906064356001600160a01b0381168103610383579060843590565b9181601f840112156103835782359167ffffffffffffffff8311610383576020808501948460051b01011161038357565b60206040818301928281528451809452019201905f5b8181106123995750505090565b82516001600160a01b031684526020938401939092019160010161238c565b156123bf57565b60405162461bcd60e51b815260206004820152602860248201527f63616e6e6f742070617573652061206d61726b65742074686174206973206e6f6044820152671d081b1a5cdd195960c21b6064820152608490fd5b1561241c57565b60405162461bcd60e51b815260206004820152602760248201527f6f6e6c7920706175736520677561726469616e20616e642061646d696e2063616044820152666e20706175736560c81b6064820152608490fd5b1561247857565b60405162461bcd60e51b81526020600482015260166024820152756f6e6c792061646d696e2063616e20756e706175736560501b6044820152606490fd5b6001600160a01b0381165f8181526009602052604090205490929060ff161561255c5760206004936040519485809263aa5af0fd60e01b82525afa918215610d77575f92612526575b61252293506040519261251184612152565b835261251d8382613aa6565b613cb1565b5f90565b91506020833d602011612554575b816125416020938361218b565b81010312610383576125229251916124ff565b3d9150612534565b505050600990565b80518210156122ba5760209160051b010190565b60405190600d548083528260208101600d5f5260205f20925f5b8181106125a95750506125a79250038361218b565b565b84546001600160a01b0316835260019485019487945060209093019201612592565b90604051918281549182825260208201905f5260205f20925f5b8181106125fa5750506125a79250038361218b565b84546001600160a01b03168352600194850194879450602090930192016125e5565b6001600160a01b0381165f818152600b602052604090205491929160ff1661266b575f52600960205260ff60405f20541615612664578161265f61252293613f30565b614079565b5050600990565b60405162461bcd60e51b815260206004820152600e60248201526d1b5a5b9d081a5cc81c185d5cd95960921b6044820152606490fd5b5f546001600160a01b031633036126ed5760407faeba5a6c40a8ac138134bff1aaa65debf25971188a58804bad717f82f0ec131691600654908060065582519182526020820152a15f90565b505f5160206151ed5f395f51905f52606060405160018152600b60208201525f6040820152a1600190565b5f546001600160a01b0316330361278157600480546001600160a01b039283166001600160a01b0319821681179092556040805193909116835260208301919091527fd52b2b9b7e9ee655fcb95d2e5b9e0c9f69e7ef2b8e9d2d0ea78402d576d22e2291a15f90565b505f5160206151ed5f395f51905f52606060405160018152601060208201525f6040820152a1600190565b5f546001600160a01b0316330361281d57600a80546001600160a01b039283166001600160a01b0319821681179092556040805193909116835260208301919091527f0613b6ee6a04f0d09f390e4d9318894b9f6ac7fd83897cd8d18896ba579c401e9190819081015b0390a15f90565b505f5160206151ed5f395f51905f52606060405160018152601360208201525f6040820152a1600190565b6001600160a01b03165f8181526009602052604090205490929160ff90911615908115612946575b5061255c5761287e8161421c565b91905060128110156106b9578061293e575015612936576040516395dd919360e01b81526001600160a01b03909116600482015290602090829060249082905afa908115610d77575f91612902575b506128f2670de0b6b3a764000091600554604051906128eb82612152565b81526151d3565b5104106128fd575f90565b601190565b90506020813d60201161292e575b8161291d6020938361218b565b8101031261038357516128f26128cd565b3d9150612910565b505050600390565b935050505090565b6001600160a01b03165f9081526009602052604081205460ff16159150612870565b91908110156122ba5760051b0190565b356001600160a01b03811681036103835790565b6001600160a01b03165f818152601760209081526040808320546018909252909120546129b990436137fe565b80151580612a06575b6129cb57505050565b6129ea916129d891614ee2565b825f52601460205260405f2054614ef5565b815f52601460205260405f20555f5260186020524360405f2055565b508115156129c2565b15612a1657565b606460405162461bcd60e51b815260206004820152602060248201527f6f6e6c792061646d696e2063616e207365742070657269646f742073706565646044820152fd5b919091604092835191612a6d858461218b565b600183526020830190601f1986013683378351156122ba576001600160a01b0316905291925f925b8051841015612ca6576001600160a01b03612ab08583612564565b5116805f52600960205260ff835f20541615612c6a57825163aa5af0fd60e01b815291602083600481855afa928315612c60575f93612c2d575b50835192612af784612152565b8352612b038383613aa6565b5f5b8551811015612b8a57600190612b2f856001600160a01b03612b27848b612564565b511686613cb1565b612b67828060a01b03612b42838a612564565b5116838060a01b03612b54848b612564565b51165f526014602052875f205490613e44565b828060a01b03612b77838a612564565b51165f526014602052865f205501612b05565b5095909150612b9882613f30565b5f5b8451811015612c1e57600190612bc36001600160a01b03612bbb8389612564565b511685614079565b612bfb828060a01b03612bd68389612564565b5116838060a01b03612be8848a612564565b51165f526014602052865f205490613e44565b828060a01b03612c0b8389612564565b51165f526014602052855f205501612b9a565b50946001909401939050612a95565b9092506020813d8211612c58575b81612c486020938361218b565b810103126103835751915f612aea565b3d9150612c3b565b84513d5f823e3d90fd5b825162461bcd60e51b81526020600482015260156024820152741b585c9ad95d081b5d5cdd081899481b1a5cdd1959605a1b6044820152606490fd5b50505050565b90816020910312610383575180151581036103835790565b5f546001600160a01b03163303612e80576001600160a01b03165f8181526009602052604090205460ff16612e5557604051632d44860760e11b8152602081600481855afa8015610d7757612e28575b50805f5260096020525f6001604082208160ff198254161781556003810160ff19815416905501555f600d54905b818110612dc3575050600d54600160401b81101561213e5781612db87fcf583bb0c569eb967f806b11601c4cb93c10310485c67add5f8362c2f212321f93612d9484600160209601600d55600d6122ce565b81546001600160a01b0393841660039290921b91821b9390911b1916919091179055565b604051908152a15f90565b82612dcd826122a2565b905460039190911b1c6001600160a01b031614612dec57600101612d42565b60405162461bcd60e51b81526020600482015260146024820152731b585c9ad95d08185b1c9958591e48185919195960621b6044820152606490fd5b612e499060203d602011612e4e575b612e41818361218b565b810190612cac565b612d14565b503d612e37565b505f5160206151ed5f395f51905f526060604051600a8152601160208201525f6040820152a1600a90565b505f5160206151ed5f395f51905f52606060405160018152601260208201525f6040820152a1600190565b909260ff600a5460b01c16612ee857612ec5908483614f2a565b80612ee1575061265f61252293612edb83613f30565b82614079565b9250505090565b60405162461bcd60e51b81526020600482015260126024820152711d1c985b9cd9995c881a5cc81c185d5cd95960721b6044820152606490fd5b6004805460405163fc57d4df60e01b81526001600160a01b0393841692810192909252909392911690602084602481855afa938415610d77575f94613124575b5092602060249460018060a01b0316926040519586809263fc57d4df60e01b82528660048301525afa938415610d77575f946130f0575b50801580156130e8575b6130dd5760206004926040519384809263182df0f560e01b82525afa918215610d77575f926130a7575b5090613026613034925f604051612fe381612152565b525f604051612ff181612152565b525f604051612fff81612152565b526006546040519061301082612152565b81526040519161301f83612152565b825261509b565b936040519061301082612152565b915f60405161304281612152565b525190670de0b6b3a7640000820291808304670de0b6b3a764000014901517156130935761307e61308b92670de0b6b3a764000094519061507d565b604051906128eb82612152565b5104905f9190565b634e487b7160e01b5f52601160045260245ffd5b91506020823d6020116130d5575b816130c26020938361218b565b8101031261038357905190613026612fcd565b3d91506130b5565b50505050600d905f90565b508315612fa3565b9093506020813d60201161311c575b8161310c6020938361218b565b810103126103835751925f612f99565b3d91506130ff565b93506020843d602011613151575b8161313f6020938361218b565b81010312610383579251926020612f62565b3d9150613132565b9081602091031261038357516001600160a01b03811681036103835790565b9060ff600a5460b81c166132b3576001600160a01b0382165f8181526009602052604090205490919060ff16158015613291575b6132875760206004926040519384809263c423fe2960e01b82525afa918215610d77575f92613262575b5060405163c423fe2960e01b815290602090829060049082906001600160a01b03165afa908115610d77575f91613233575b506001600160a01b0390811691160361322b5761265f61252293612edb83613f30565b505050600290565b613255915060203d60201161325b575b61324d818361218b565b810190613159565b5f613208565b503d613243565b600491925061327f602091823d841161325b5761324d818361218b565b9291506131d6565b5050505050600990565b506001600160a01b0381165f9081526009602052604090205460ff16156131ac565b60405162461bcd60e51b815260206004820152600f60248201526e1cd95a5e99481a5cc81c185d5cd959608a1b6044820152606490fd5b156132f157565b634e487b7160e01b5f52600160045260245ffd5b9060018060a01b03821692835f52600c60205260ff60405f2054166135a157835f52600960205260ff60405f2054161561359857835f526009602052600260405f200160018060a01b0383165f5260205260ff60405f20541615613509575b6004805460405163fc57d4df60e01b8152918201869052602090829060249082906001600160a01b03165afa908115610d77575f916134d7575b50156134ce57835f52601660205260405f205480613418575b506133c390848361458d565b91905060128110156106b9578061293e57506134105760206004936040519485809263aa5af0fd60e01b82525afa918215610d77575f926125265761252293506040519261251184612152565b505050600490565b6040516308f7a6e360e31b8152602081600481895afa8015610d775783905f90613498575b6134479250614ef5565b1015613453575f6133b7565b60405162461bcd60e51b815260206004820152601960248201527f6d61726b657420626f72726f77206361702072656163686564000000000000006044820152606490fd5b50506020813d6020116134c6575b816134b36020938361218b565b810103126103835782613447915161343d565b3d91506134a6565b50505050600d90565b90506020813d602011613501575b816134f26020938361218b565b8101031261038357515f61339e565b3d91506134e5565b83330361355b5761351a8233614faa565b60128110156106b9578061293e5750835f526009602052600260405f200160018060a01b0383165f5260205261355660ff60405f2054166132ea565b613364565b60405162461bcd60e51b815260206004820152601560248201527439b2b73232b91036bab9ba10313290382a37b5b2b760591b6044820152606490fd5b50505050600990565b60405162461bcd60e51b815260206004820152601060248201526f189bdc9c9bddc81a5cc81c185d5cd95960821b6044820152606490fd5b5f546001600160a01b0316330361378b576001600160a01b03165f818152600960205260409020805490919060ff161561375e5760405161361981612152565b838152670c7d713b49da000060405161363181612152565b5251670c7d713b49da00001061373157821515806136bd575b613690577f70483e6592cd5182d45ac970e05bc62cdcc90e9d8ef2c2dbe686cf383bcd7fc592600160609301818154915560405192835260208301526040820152a15f90565b5050505f5160206151ed5f395f51905f526060604051600d8152600960208201525f6040820152a1600d90565b506004805460405163fc57d4df60e01b8152918201839052602090829060249082906001600160a01b03165afa908115610d77575f916136ff575b501561364a565b90506020813d602011613729575b8161371a6020938361218b565b8101031261038357515f6136f8565b3d915061370d565b5050505f5160206151ed5f395f51905f52606060405160068152600860208201525f6040820152a1600690565b5050505f5160206151ed5f395f51905f52606060405160098152600760208201525f6040820152a1600990565b50505f5160206151ed5f395f51905f52606060405160018152600660208201525f6040820152a1600190565b916137c3908284614f2a565b91826137d757612522925061265f81613f30565b505090565b9190826080910312610383578151916020810151916060604083015192015190565b9190820391821161309357565b6040516361bfb47160e11b81523360048201526001600160a01b0382169190608081602481865afa8015610d77575f5f925f92613a71575b50613a1e576139f157613857913390614f2a565b806139c457505f818152600960209081526040808320338452600201918290529091205460ff16156139be57335f90815260209182526040808220805460ff191690556008909252206138a9906125cb565b9081519182905f5b82811061398f575b50506138c69083106132ea565b335f52600860205260405f20918254905f19820191821161309357612d946138f161390a93866122ce565b905460039190911b1c6001600160a01b031691856122ce565b815490811561397b577fe699a64c18b07ac5b7301aa273f36a2287239eb9501d81950672794afba29a0d92612816925f19019061394782826122ce565b81546001600160a01b0360039290921b82901b19169091559190556040805192909116825233602083015290918291820190565b634e487b7160e01b5f52603160045260245ffd5b836001600160a01b036139a28385612564565b5116146139b1576001016138b1565b93506138c690505f6138b9565b50505f90565b5f5160206151ed5f395f51905f52915060609060405190600e8252600360208301526040820152a1600e90565b5050505f5160206151ed5f395f51905f526060604051600c8152600260208201525f6040820152a1600c90565b60405162461bcd60e51b815260206004820152602560248201527f657869744d61726b65743a206765744163636f756e74536e617073686f742066604482015264185a5b195960da1b6064820152608490fd5b915050613a96915060803d608011613a9f575b613a8e818361218b565b8101906137dc565b5090915f613843565b503d613a84565b6001600160a01b03165f818152601160209081526040808320600f909252909120548154613ad79060e01c436137fe565b938415158080613ca8575b15613c6857506040516308f7a6e360e31b8152602081600481885afa908115610d77575f91613c2a575b5094613b2e613b5e93613b2863ffffffff96946125a79961511a565b92614ee2565b908015613c1357613b3e91615149565b905b54604051906001600160e01b0316613b5782612152565b815261519b565b5191613ba7604051613b7160408261218b565b601a81527f6e657720696e64657820657863656564732032323420626974730000000000006020820152600160e01b85106150d3565b613bb8604051610dfe60408261218b565b60405192613bc584612122565b6001600160e01b03908116845243831660208086019182525f93845260119052604090922093518454925160e085811b94909416831691909216179216901b6001600160e01b031916179055565b5050604051613c2181612152565b5f815290613b40565b9293919590506020833d602011613c60575b81613c496020938361218b565b810103126103835791519194909291613b2e613b0c565b3d9150613c3c565b935050509150613c755750565b6125a790613c8a604051610dfe60408261218b565b80546001600160e01b03164360e01b6001600160e01b031916179055565b50821515613ae2565b6001600160a01b03165f81815260116020526040908190205490519293919291906001600160e01b0316613ce483612152565b8252825f52601360205260405f2060018060a01b0385165f5260205260405f205460405190613d1282612152565b81528251845f52601360205260405f2060018060a01b0387165f5260205260405f20558051613d43575b5050505050565b613d4d90836151b7565b6040516395dd919360e01b81526001600160a01b039095166004860181905294909190602081602481885afa908115610d77575f91613e0a575b50613dd1604093613dc97f1e5561ff39e796a5299c233e6fd3b11fe55a12e535266cc176f37334e6c7efb696946a0c097ce7bc90715b34b9f160241b9461511a565b905190614ee2565b0490855f526014602052613de882845f2054614ef5565b865f526014602052835f20555182519182526020820152a35f80808080613d3c565b90506020939193813d602011613e3c575b81613e286020938361218b565b810103126103835751909290613dd1613d87565b3d9150613e1b565b6019546040516370a0823160e01b81523060048201526001600160a01b039091169190602081602481865afa908115610d77575f91613efe575b508315159081613ef3575b50613e9357505090565b60405163a9059cbb60e01b81526001600160a01b039190911660048201526024810192909252602090829060449082905f905af18015610d7757613ed657505f90565b613eee9060203d602011612e4e57612e41818361218b565b505f90565b90508311155f613e89565b90506020813d602011613f28575b81613f196020938361218b565b8101031261038357515f613e7e565b3d9150613f0c565b60018060a01b0316805f52601060205260405f2090805f52600f60205260405f2054613f60835460e01c436137fe565b908115158080614070575b1561406557506040516318160ddd60e01b815291602083600481875afa928315610d77575f9361402d575b509363ffffffff92613b2e613fae936125a797614ee2565b5191613fc1604051613b7160408261218b565b613fd2604051610dfe60408261218b565b60405192613fdf84612122565b6001600160e01b03908116845243831660208086019182525f93845260109052604090922093518454925160e085811b94909416831691909216179216901b6001600160e01b031916179055565b9250936020833d60201161405d575b816140496020938361218b565b8101031261038357915191936125a7613f96565b3d915061403c565b92505050613c755750565b50811515613f6b565b6001600160a01b03165f8181526010602052604090819020549051906001600160e01b03166140a782612152565b8152815f52601260205260405f2060018060a01b0384165f5260205261410f60405f2054604051906140d882612152565b81528251845f52601260205260405f2060018060a01b0387165f5260205260405f205580511580614212575b6141fc575b826151b7565b6040516370a0823160e01b81526001600160a01b03909416600485018190529390602082602481875afa918215610d77575f926141b8575b50916a0c097ce7bc90715b34b9f160241b6141876040937faf420590cb43d2e84351d8cd2a32149325e748efcd73152eacf2e54ecab59766955190614ee2565b0490855f52601460205261419e82845f2054614ef5565b865f526014602052835f20555182519182526020820152a3565b9150916020823d6020116141f4575b816141d46020938361218b565b8101031261038357905190916a0c097ce7bc90715b34b9f160241b614147565b3d91506141c7565b6a0c097ce7bc90715b34b9f160241b8152614109565b5082511515614104565b906040519161422a8361216e565b5f83525f60208401525f60408401525f60608401525f60808401525f60a084015260405161425781612152565b5f815260c084015260405161426b81612152565b5f815260e084015260405161427f81612152565b5f815261010084015260405161429481612152565b5f815261012084015260018060a01b0381165f5260086020526142b960405f206125cb565b6004549092906001600160a01b03165f5b845181101561454d576001600160a01b036142e58287612564565b516040516361bfb47160e11b81526001600160a01b0387166004820152911690608081602481855afa8015610d77575f915f915f915f9161452b575b5060808b015260608a0152604089015261451c57805f526009602052600160405f2001546040519061435282612152565b815260c088015260808701516040519061436b82612152565b815260e088015260405163fc57d4df60e01b815260048101829052602081602481875afa908115610d77575f916144eb575b508060a089015280156144db57604051906143b782612152565b815261010088015261440b6143e46143d860c08a015160e08b01519061509b565b6101008a01519061509b565b806101208a0152670de0b6b3a764000061440460408b01518b51936151d3565b5104614ef5565b8752614432610100880151670de0b6b3a764000061440460608b015160208c0151936151d3565b9081602089015215614448575b506001016142ca565b6101208701515f60405161445b81612152565b52515f9190156001171561309357670de0b6b3a764000061448c926040519061448382612152565b81525104614ef5565b908160208801526101008701515f6040516144a681612152565b52515f90156001171561309357600192670de0b6b3a76400006144d0926040519061448382612152565b60208801529061443f565b50600d96505f9550859450505050565b90506020813d8211614514575b816145056020938361218b565b8101031261038357515f61439d565b3d91506144f8565b50600f95505f94508493505050565b92505050614547915060803d8111613a9f57613a8e818361218b565b5f614321565b505092915050805160208201518082115f1461457c5750508060206145769251910151906137fe565b5f918290565b61458692506137fe565b5f915f9190565b909291926040519161459e8361216e565b5f83525f60208401525f60408401525f60608401525f60808401525f60a08401526040516145cb81612152565b5f815260c08401526040516145df81612152565b5f815260e08401526040516145f381612152565b5f815261010084015260405161460881612152565b5f815261012084015260018060a01b0381165f52600860205261462d60405f206125cb565b6004549094906001600160a01b03165f5b8651811015614877576001600160a01b036146598289612564565b516040516361bfb47160e11b81526001600160a01b038716600482015291169190608081602481865afa8015610d77575f915f915f915f91614855575b5060808b015260608a0152604089015261484357815f526009602052600160405f200154604051906146c782612152565b815260c08801526080870151604051906146e082612152565b815260e088015260405163fc57d4df60e01b815260048101839052602081602481875afa908115610d77575f91614812575b508060a089015280156147ff576040519061472c82612152565b815261010088015261474d6143e46143d860c08a015160e08b01519061509b565b8752614774610100880151670de0b6b3a764000061440460608b015160208c0151936151d3565b60208801819052916001600160a01b03871614614796575b600191500161463e565b6101208701515f6040516147a981612152565b52515f92901560011715613093576147d76147f591670de0b6b3a76400006001956040519061448382612152565b8060208a0152670de0b6b3a76400006144048c6101008c01516151d3565b602088015261478c565b50505050945050505050600d905f905f90565b90506020813d821161483b575b8161482c6020938361218b565b8101031261038357515f614712565b3d915061481f565b505050945050505050600f905f905f90565b92505050614871915060803d8111613a9f57613a8e818361218b565b5f614696565b5050945050509050805160208201518082115f1461457c5750508060206145769251910151906137fe565b9291604051936148b18561216e565b5f85525f60208601525f60408601525f60608601525f60808601525f60a08601526040516148de81612152565b5f815260c08601526040516148f281612152565b5f815260e086015260405161490681612152565b5f815261010086015260405161491b81612152565b5f815261012086015260018060a01b0381165f52600860205261494060405f206125cb565b6004549094906001600160a01b03165f5b8651811015614b92576001600160a01b0361496c8289612564565b516040516361bfb47160e11b81526001600160a01b0387166004820152911690608081602481855afa8015610d77575f915f915f915f91614b70575b5060808d015260608c015260408b015261484357805f526009602052600160405f200154604051906149d982612152565b815260c08a01526080890151604051906149f282612152565b815260e08a015260405163fc57d4df60e01b815260048101829052602081602481875afa908115610d77575f91614b3f575b508060a08b015280156147ff5760405190614a3e82612152565b81526101008a0152614a8b614a6b614a5f60c08c015160e08d01519061509b565b6101008c01519061509b565b806101208c0152670de0b6b3a764000061440460408d01518d51936151d3565b8952614ab36101008a0151670de0b6b3a76400006144048c60206060820151910151936151d3565b60208a01819052906001600160a01b03881614614ad4575b50600101614951565b614af090670de0b6b3a7640000614404886101208d01516151d3565b908160208a01526101008901515f604051614b0a81612152565b52515f90156001171561309357600192670de0b6b3a7640000614b34926040519061448382612152565b60208a015290614acb565b90506020813d8211614b68575b81614b596020938361218b565b8101031261038357515f614a24565b3d9150614b4c565b92505050614b8c915060803d8111613a9f57613a8e818361218b565b5f6149a8565b5050949350505050805160208201518082115f1461457c5750508060206145769251910151906137fe565b92919060405192614bcd8461216e565b5f84525f60208501525f60408501525f60608501525f60808501525f60a0850152604051614bfa81612152565b5f815260c0850152604051614c0e81612152565b5f815260e0850152604051614c2281612152565b5f8152610100850152604051614c3781612152565b5f815261012085015260018060a01b0385165f526008602052614c5c60405f206125cb565b6004549095906001600160a01b03165f5b8751811015614eb7576001600160a01b03614c88828a612564565b516040516361bfb47160e11b81526001600160a01b038616600482015291169190608081602481865afa8015610d77575f915f915f915f91614e95575b5060808c015260608b015260408a0152614e8357815f526009602052600160405f20015460405190614cf682612152565b815260c0890152608088015160405190614d0f82612152565b815260e089015260405163fc57d4df60e01b81526004810183905291602083602481875afa928315610d77575f93614e50575b508260a08a01528215614e3d5788889160019460405190614d6282612152565b8152610100830152614daf614d8f614d8360c085015160e08601519061509b565b6101008501519061509b565b80610120850152670de0b6b3a764000061440460408601518651936151d3565b8252614dd6610100830151670de0b6b3a764000061440460608601516020870151936151d3565b90816020840152858060a01b038a1614614df4575b50505001614c6d565b670de0b6b3a7640000614404614e3094610120614e129501516151d3565b8060208b0152670de0b6b3a7640000614404886101008d01516151d3565b602089015286885f614deb565b50505050505050505050600d905f905f90565b9092506020813d8211614e7b575b81614e6b6020938361218b565b810103126103835751915f614d42565b3d9150614e5e565b505050505050505050600f905f905f90565b92505050614eb1915060803d8111613a9f57613a8e818361218b565b5f614cc5565b5050505050509050805160208201518082115f1461457c5750508060206145769251910151906137fe565b8181029291811591840414171561309357565b9190820180921161309357565b5f546001600160a01b031633148015614f185790565b506002546001600160a01b0316331490565b6001600160a01b03165f8181526009602052604090205491929160ff161561255c57805f526009602052600260405f200160018060a01b0384165f5260205260ff60405f20541615614fa357614f7f926148a2565b91905060128110156106b95780614f9e5750614f99575f90565b600490565b905090565b5050505f90565b9060018060a01b0382165f52600960205260405f2060ff8154161561255c5760020160018060a01b0382165f5280602052600160ff60405f205416151514614fa3576001600160a01b0382165f90815260209182526040808220805460ff1916600117905560089092522080549290600160401b84101561213e5781612d948561505a9360017f3ab23ab0d51cccc0c3085aec51f99228625aa1a922b3a8ca89a26b0f2027a1a5980181556122ce565b604080516001600160a01b03928316815292909116602083015281908101612816565b8115615087570490565b634e487b7160e01b5f52601260045260245ffd5b670de0b6b3a7640000916150c0915f6040516150b681612152565b5251905190614ee2565b04604051906150ce82612152565b815290565b156150db5750565b604460209160405192839162461bcd60e51b83528160048401528051918291826024860152018484015e5f828201840152601f01601f19168101030190fd5b670de0b6b3a7640000810290808204670de0b6b3a764000014901517156130935761514691519061507d565b90565b905f60405161515781612152565b526a0c097ce7bc90715b34b9f160241b8202918083046a0c097ce7bc90715b34b9f160241b14901517156130935761518e9161507d565b604051906150ce82612152565b9061518e915f6040516151ad81612152565b5251905190614ef5565b9061518e915f6040516151c981612152565b52519051906137fe565b9061518e915f6040516151e581612152565b5251614ee256fe45b96fe442630264581b197e84bbada861235052c5a1aadfff9ea4e40a969aa0a264697066735822122018eb52f0da4b4a6d99366544c7e0e6f8ba10cb5baea197c22ab1bd37d62ea6f564736f6c634300081c0033","linkReferences":{}},"methodIdentifiers":{"PERIDOT()":"a6b13955","_become(address)":"1d504dc6","_borrowGuardianPaused()":"e6653f3d","_grantPeridot(address,uint256)":"9a8260d6","_mintGuardianPaused()":"3c94786f","_setBorrowCapGuardian(address)":"391957d7","_setBorrowPaused(address,bool)":"18c882a5","_setCloseFactor(uint256)":"317b0b77","_setCollateralFactor(address,uint256)":"e4028eee","_setContributorPeridotSpeed(address,uint256)":"b0cbd622","_setLiquidationIncentive(uint256)":"4fd42e17","_setMarketBorrowCaps(address[],uint256[])":"607ef6c1","_setMintPaused(address,bool)":"3bcf7ec1","_setPauseGuardian(address)":"5f5af1aa","_setPeridotSpeed(address,uint256)":"825d327f","_setPriceOracle(address)":"55ee1fe1","_setSeizePaused(bool)":"2d70db78","_setTransferPaused(bool)":"8ebf6364","_supportMarket(address)":"a76b3fda","accountAssets(address,uint256)":"dce15449","admin()":"f851a440","allMarkets(uint256)":"52d84d1e","borrowAllowed(address,address,uint256)":"da3d454c","borrowCapGuardian()":"21af4569","borrowCaps(address)":"4a584432","borrowGuardianPaused(address)":"6d154ea5","borrowVerify(address,address,uint256)":"5c778605","checkMembership(address,address)":"929fe9a1","claimPeridot(address)":"36376925","claimPeridot(address,address[])":"9d92e62f","claimPeridot(address[],address[],bool,bool)":"2582e0ec","closeFactorMantissa()":"e8755446","enterMarkets(address[])":"c2998238","exitMarket(address)":"ede4edd0","getAccountLiquidity(address)":"5ec88c79","getAllMarkets()":"b0772d0b","getAssetsIn(address)":"abfceffc","getBlockNumber()":"42cbb15c","getHypotheticalAccountLiquidity(address,address,uint256,uint256)":"4e79238f","getPeridotAddress()":"8b130fa0","initializePERIDOT(address)":"3506d475","isPeridottroller()":"fa707af9","lastContributorBlock(address)":"bea6b8b8","liquidateBorrowAllowed(address,address,address,address,uint256)":"5fc7e71e","liquidateBorrowVerify(address,address,address,address,uint256,uint256)":"47ef3b3b","liquidateCalculateSeizeTokens(address,address,uint256)":"c488847b","liquidationIncentiveMantissa()":"4ada90af","markets(address)":"8e8f294b","maxAssets()":"94b2294b","mintAllowed(address,address,uint256)":"4ef4c3e1","mintGuardianPaused(address)":"731f0c2b","mintVerify(address,address,uint256,uint256)":"41c728b9","oracle()":"7dc0d1d0","pauseGuardian()":"24a3d622","pendingAdmin()":"26782247","pendingPeridottrollerImplementation()":"7c8f3a67","peridotAccrued(address)":"d002d989","peridotBorrowState(address)":"328bb72b","peridotBorrowerIndex(address,address)":"a64db627","peridotContributorSpeeds(address)":"ce27c01e","peridotInitialIndex()":"cd2489f0","peridotRate()":"d088864a","peridotSpeeds(address)":"794595f5","peridotSupplierIndex(address,address)":"0aa4266f","peridotSupplyState(address)":"935dbd26","peridottrollerImplementation()":"18f1408d","redeemAllowed(address,address,uint256)":"eabe7d91","redeemVerify(address,address,uint256,uint256)":"51dff989","repayBorrowAllowed(address,address,address,uint256)":"24008a62","repayBorrowVerify(address,address,address,uint256,uint256)":"1ededc91","seizeAllowed(address,address,address,address,uint256)":"d02f7351","seizeGuardianPaused()":"ac0b0bb7","seizeVerify(address,address,address,address,uint256)":"6d35bf91","transferAllowed(address,address,address,uint256)":"bdcdc258","transferGuardianPaused()":"87f76303","transferVerify(address,address,address,uint256)":"6a56947e","updateContributorRewards(address)":"741b2525"},"id":29}