{"abi":[{"type":"constructor","inputs":[],"stateMutability":"nonpayable"},{"type":"function","name":"_become","inputs":[{"name":"unitroller","type":"address","internalType":"contract Unitroller"}],"outputs":[],"stateMutability":"nonpayable"},{"type":"function","name":"_borrowGuardianPaused","inputs":[],"outputs":[{"name":"","type":"bool","internalType":"bool"}],"stateMutability":"view"},{"type":"function","name":"_grantPeridot","inputs":[{"name":"recipient","type":"address","internalType":"address"},{"name":"amount","type":"uint256","internalType":"uint256"}],"outputs":[],"stateMutability":"nonpayable"},{"type":"function","name":"_mintGuardianPaused","inputs":[],"outputs":[{"name":"","type":"bool","internalType":"bool"}],"stateMutability":"view"},{"type":"function","name":"_setBorrowCapGuardian","inputs":[{"name":"newBorrowCapGuardian","type":"address","internalType":"address"}],"outputs":[],"stateMutability":"nonpayable"},{"type":"function","name":"_setBorrowPaused","inputs":[{"name":"pToken","type":"address","internalType":"contract PToken"},{"name":"state","type":"bool","internalType":"bool"}],"outputs":[{"name":"","type":"bool","internalType":"bool"}],"stateMutability":"nonpayable"},{"type":"function","name":"_setCloseFactor","inputs":[{"name":"newCloseFactorMantissa","type":"uint256","internalType":"uint256"}],"outputs":[{"name":"","type":"uint256","internalType":"uint256"}],"stateMutability":"nonpayable"},{"type":"function","name":"_setCollateralFactor","inputs":[{"name":"pToken","type":"address","internalType":"contract PToken"},{"name":"newCollateralFactorMantissa","type":"uint256","internalType":"uint256"}],"outputs":[{"name":"","type":"uint256","internalType":"uint256"}],"stateMutability":"nonpayable"},{"type":"function","name":"_setContributorPeridotSpeed","inputs":[{"name":"contributor","type":"address","internalType":"address"},{"name":"peridotSpeed","type":"uint256","internalType":"uint256"}],"outputs":[],"stateMutability":"nonpayable"},{"type":"function","name":"_setLiquidationIncentive","inputs":[{"name":"newLiquidationIncentiveMantissa","type":"uint256","internalType":"uint256"}],"outputs":[{"name":"","type":"uint256","internalType":"uint256"}],"stateMutability":"nonpayable"},{"type":"function","name":"_setMarketBorrowCaps","inputs":[{"name":"pTokens","type":"address[]","internalType":"contract PToken[]"},{"name":"newBorrowCaps","type":"uint256[]","internalType":"uint256[]"}],"outputs":[],"stateMutability":"nonpayable"},{"type":"function","name":"_setMintPaused","inputs":[{"name":"pToken","type":"address","internalType":"contract PToken"},{"name":"state","type":"bool","internalType":"bool"}],"outputs":[{"name":"","type":"bool","internalType":"bool"}],"stateMutability":"nonpayable"},{"type":"function","name":"_setPauseGuardian","inputs":[{"name":"newPauseGuardian","type":"address","internalType":"address"}],"outputs":[{"name":"","type":"uint256","internalType":"uint256"}],"stateMutability":"nonpayable"},{"type":"function","name":"_setPeridotSpeed","inputs":[{"name":"pToken","type":"address","internalType":"contract PToken"},{"name":"peridotSpeed","type":"uint256","internalType":"uint256"}],"outputs":[],"stateMutability":"nonpayable"},{"type":"function","name":"_setPriceOracle","inputs":[{"name":"newOracle","type":"address","internalType":"contract PriceOracle"}],"outputs":[{"name":"","type":"uint256","internalType":"uint256"}],"stateMutability":"nonpayable"},{"type":"function","name":"_setSeizePaused","inputs":[{"name":"state","type":"bool","internalType":"bool"}],"outputs":[{"name":"","type":"bool","internalType":"bool"}],"stateMutability":"nonpayable"},{"type":"function","name":"_setTransferPaused","inputs":[{"name":"state","type":"bool","internalType":"bool"}],"outputs":[{"name":"","type":"bool","internalType":"bool"}],"stateMutability":"nonpayable"},{"type":"function","name":"_supportMarket","inputs":[{"name":"pToken","type":"address","internalType":"contract PToken"}],"outputs":[{"name":"","type":"uint256","internalType":"uint256"}],"stateMutability":"nonpayable"},{"type":"function","name":"accountAssets","inputs":[{"name":"","type":"address","internalType":"address"},{"name":"","type":"uint256","internalType":"uint256"}],"outputs":[{"name":"","type":"address","internalType":"contract PToken"}],"stateMutability":"view"},{"type":"function","name":"admin","inputs":[],"outputs":[{"name":"","type":"address","internalType":"address"}],"stateMutability":"view"},{"type":"function","name":"allMarkets","inputs":[{"name":"","type":"uint256","internalType":"uint256"}],"outputs":[{"name":"","type":"address","internalType":"contract PToken"}],"stateMutability":"view"},{"type":"function","name":"borrowAllowed","inputs":[{"name":"pToken","type":"address","internalType":"address"},{"name":"borrower","type":"address","internalType":"address"},{"name":"borrowAmount","type":"uint256","internalType":"uint256"}],"outputs":[{"name":"","type":"uint256","internalType":"uint256"}],"stateMutability":"nonpayable"},{"type":"function","name":"borrowCapGuardian","inputs":[],"outputs":[{"name":"","type":"address","internalType":"address"}],"stateMutability":"view"},{"type":"function","name":"borrowCaps","inputs":[{"name":"","type":"address","internalType":"address"}],"outputs":[{"name":"","type":"uint256","internalType":"uint256"}],"stateMutability":"view"},{"type":"function","name":"borrowGuardianPaused","inputs":[{"name":"","type":"address","internalType":"address"}],"outputs":[{"name":"","type":"bool","internalType":"bool"}],"stateMutability":"view"},{"type":"function","name":"borrowVerify","inputs":[{"name":"pToken","type":"address","internalType":"address"},{"name":"borrower","type":"address","internalType":"address"},{"name":"borrowAmount","type":"uint256","internalType":"uint256"}],"outputs":[],"stateMutability":"nonpayable"},{"type":"function","name":"checkMembership","inputs":[{"name":"account","type":"address","internalType":"address"},{"name":"pToken","type":"address","internalType":"contract PToken"}],"outputs":[{"name":"","type":"bool","internalType":"bool"}],"stateMutability":"view"},{"type":"function","name":"claimPeridot","inputs":[{"name":"holders","type":"address[]","internalType":"address[]"},{"name":"pTokens","type":"address[]","internalType":"contract PToken[]"},{"name":"borrowers","type":"bool","internalType":"bool"},{"name":"suppliers","type":"bool","internalType":"bool"}],"outputs":[],"stateMutability":"nonpayable"},{"type":"function","name":"claimPeridot","inputs":[{"name":"holder","type":"address","internalType":"address"}],"outputs":[],"stateMutability":"nonpayable"},{"type":"function","name":"claimPeridot","inputs":[{"name":"holder","type":"address","internalType":"address"},{"name":"pTokens","type":"address[]","internalType":"contract PToken[]"}],"outputs":[],"stateMutability":"nonpayable"},{"type":"function","name":"closeFactorMantissa","inputs":[],"outputs":[{"name":"","type":"uint256","internalType":"uint256"}],"stateMutability":"view"},{"type":"function","name":"enterMarkets","inputs":[{"name":"pTokens","type":"address[]","internalType":"address[]"}],"outputs":[{"name":"","type":"uint256[]","internalType":"uint256[]"}],"stateMutability":"nonpayable"},{"type":"function","name":"exitMarket","inputs":[{"name":"pTokenAddress","type":"address","internalType":"address"}],"outputs":[{"name":"","type":"uint256","internalType":"uint256"}],"stateMutability":"nonpayable"},{"type":"function","name":"getAccountLiquidity","inputs":[{"name":"account","type":"address","internalType":"address"}],"outputs":[{"name":"","type":"uint256","internalType":"uint256"},{"name":"","type":"uint256","internalType":"uint256"},{"name":"","type":"uint256","internalType":"uint256"}],"stateMutability":"view"},{"type":"function","name":"getAllMarkets","inputs":[],"outputs":[{"name":"","type":"address[]","internalType":"contract PToken[]"}],"stateMutability":"view"},{"type":"function","name":"getAssetsIn","inputs":[{"name":"account","type":"address","internalType":"address"}],"outputs":[{"name":"","type":"address[]","internalType":"contract PToken[]"}],"stateMutability":"view"},{"type":"function","name":"getBlockNumber","inputs":[],"outputs":[{"name":"","type":"uint256","internalType":"uint256"}],"stateMutability":"view"},{"type":"function","name":"getHypotheticalAccountLiquidity","inputs":[{"name":"account","type":"address","internalType":"address"},{"name":"pTokenModify","type":"address","internalType":"address"},{"name":"redeemTokens","type":"uint256","internalType":"uint256"},{"name":"borrowAmount","type":"uint256","internalType":"uint256"}],"outputs":[{"name":"","type":"uint256","internalType":"uint256"},{"name":"","type":"uint256","internalType":"uint256"},{"name":"","type":"uint256","internalType":"uint256"}],"stateMutability":"view"},{"type":"function","name":"getPeridotAddress","inputs":[],"outputs":[{"name":"","type":"address","internalType":"address"}],"stateMutability":"view"},{"type":"function","name":"isPeridottroller","inputs":[],"outputs":[{"name":"","type":"bool","internalType":"bool"}],"stateMutability":"view"},{"type":"function","name":"lastContributorBlock","inputs":[{"name":"","type":"address","internalType":"address"}],"outputs":[{"name":"","type":"uint256","internalType":"uint256"}],"stateMutability":"view"},{"type":"function","name":"liquidateBorrowAllowed","inputs":[{"name":"pTokenBorrowed","type":"address","internalType":"address"},{"name":"pTokenCollateral","type":"address","internalType":"address"},{"name":"liquidator","type":"address","internalType":"address"},{"name":"borrower","type":"address","internalType":"address"},{"name":"repayAmount","type":"uint256","internalType":"uint256"}],"outputs":[{"name":"","type":"uint256","internalType":"uint256"}],"stateMutability":"nonpayable"},{"type":"function","name":"liquidateBorrowVerify","inputs":[{"name":"pTokenBorrowed","type":"address","internalType":"address"},{"name":"pTokenCollateral","type":"address","internalType":"address"},{"name":"liquidator","type":"address","internalType":"address"},{"name":"borrower","type":"address","internalType":"address"},{"name":"actualRepayAmount","type":"uint256","internalType":"uint256"},{"name":"seizeTokens","type":"uint256","internalType":"uint256"}],"outputs":[],"stateMutability":"nonpayable"},{"type":"function","name":"liquidateCalculateSeizeTokens","inputs":[{"name":"pTokenBorrowed","type":"address","internalType":"address"},{"name":"pTokenCollateral","type":"address","internalType":"address"},{"name":"actualRepayAmount","type":"uint256","internalType":"uint256"}],"outputs":[{"name":"","type":"uint256","internalType":"uint256"},{"name":"","type":"uint256","internalType":"uint256"}],"stateMutability":"view"},{"type":"function","name":"liquidationIncentiveMantissa","inputs":[],"outputs":[{"name":"","type":"uint256","internalType":"uint256"}],"stateMutability":"view"},{"type":"function","name":"markets","inputs":[{"name":"","type":"address","internalType":"address"}],"outputs":[{"name":"isListed","type":"bool","internalType":"bool"},{"name":"collateralFactorMantissa","type":"uint256","internalType":"uint256"},{"name":"isPeridoted","type":"bool","internalType":"bool"}],"stateMutability":"view"},{"type":"function","name":"maxAssets","inputs":[],"outputs":[{"name":"","type":"uint256","internalType":"uint256"}],"stateMutability":"view"},{"type":"function","name":"mintAllowed","inputs":[{"name":"pToken","type":"address","internalType":"address"},{"name":"minter","type":"address","internalType":"address"},{"name":"mintAmount","type":"uint256","internalType":"uint256"}],"outputs":[{"name":"","type":"uint256","internalType":"uint256"}],"stateMutability":"nonpayable"},{"type":"function","name":"mintGuardianPaused","inputs":[{"name":"","type":"address","internalType":"address"}],"outputs":[{"name":"","type":"bool","internalType":"bool"}],"stateMutability":"view"},{"type":"function","name":"mintVerify","inputs":[{"name":"pToken","type":"address","internalType":"address"},{"name":"minter","type":"address","internalType":"address"},{"name":"actualMintAmount","type":"uint256","internalType":"uint256"},{"name":"mintTokens","type":"uint256","internalType":"uint256"}],"outputs":[],"stateMutability":"nonpayable"},{"type":"function","name":"oracle","inputs":[],"outputs":[{"name":"","type":"address","internalType":"contract PriceOracle"}],"stateMutability":"view"},{"type":"function","name":"pauseGuardian","inputs":[],"outputs":[{"name":"","type":"address","internalType":"address"}],"stateMutability":"view"},{"type":"function","name":"pendingAdmin","inputs":[],"outputs":[{"name":"","type":"address","internalType":"address"}],"stateMutability":"view"},{"type":"function","name":"pendingPeridottrollerImplementation","inputs":[],"outputs":[{"name":"","type":"address","internalType":"address"}],"stateMutability":"view"},{"type":"function","name":"peridotAccrued","inputs":[{"name":"","type":"address","internalType":"address"}],"outputs":[{"name":"","type":"uint256","internalType":"uint256"}],"stateMutability":"view"},{"type":"function","name":"peridotBorrowState","inputs":[{"name":"","type":"address","internalType":"address"}],"outputs":[{"name":"index","type":"uint224","internalType":"uint224"},{"name":"block","type":"uint32","internalType":"uint32"}],"stateMutability":"view"},{"type":"function","name":"peridotBorrowerIndex","inputs":[{"name":"","type":"address","internalType":"address"},{"name":"","type":"address","internalType":"address"}],"outputs":[{"name":"","type":"uint256","internalType":"uint256"}],"stateMutability":"view"},{"type":"function","name":"peridotContributorSpeeds","inputs":[{"name":"","type":"address","internalType":"address"}],"outputs":[{"name":"","type":"uint256","internalType":"uint256"}],"stateMutability":"view"},{"type":"function","name":"peridotInitialIndex","inputs":[],"outputs":[{"name":"","type":"uint224","internalType":"uint224"}],"stateMutability":"view"},{"type":"function","name":"peridotRate","inputs":[],"outputs":[{"name":"","type":"uint256","internalType":"uint256"}],"stateMutability":"view"},{"type":"function","name":"peridotSpeeds","inputs":[{"name":"","type":"address","internalType":"address"}],"outputs":[{"name":"","type":"uint256","internalType":"uint256"}],"stateMutability":"view"},{"type":"function","name":"peridotSupplierIndex","inputs":[{"name":"","type":"address","internalType":"address"},{"name":"","type":"address","internalType":"address"}],"outputs":[{"name":"","type":"uint256","internalType":"uint256"}],"stateMutability":"view"},{"type":"function","name":"peridotSupplyState","inputs":[{"name":"","type":"address","internalType":"address"}],"outputs":[{"name":"index","type":"uint224","internalType":"uint224"},{"name":"block","type":"uint32","internalType":"uint32"}],"stateMutability":"view"},{"type":"function","name":"peridottrollerImplementation","inputs":[],"outputs":[{"name":"","type":"address","internalType":"address"}],"stateMutability":"view"},{"type":"function","name":"redeemAllowed","inputs":[{"name":"pToken","type":"address","internalType":"address"},{"name":"redeemer","type":"address","internalType":"address"},{"name":"redeemTokens","type":"uint256","internalType":"uint256"}],"outputs":[{"name":"","type":"uint256","internalType":"uint256"}],"stateMutability":"nonpayable"},{"type":"function","name":"redeemVerify","inputs":[{"name":"pToken","type":"address","internalType":"address"},{"name":"redeemer","type":"address","internalType":"address"},{"name":"redeemAmount","type":"uint256","internalType":"uint256"},{"name":"redeemTokens","type":"uint256","internalType":"uint256"}],"outputs":[],"stateMutability":"nonpayable"},{"type":"function","name":"repayBorrowAllowed","inputs":[{"name":"pToken","type":"address","internalType":"address"},{"name":"payer","type":"address","internalType":"address"},{"name":"borrower","type":"address","internalType":"address"},{"name":"repayAmount","type":"uint256","internalType":"uint256"}],"outputs":[{"name":"","type":"uint256","internalType":"uint256"}],"stateMutability":"nonpayable"},{"type":"function","name":"repayBorrowVerify","inputs":[{"name":"pToken","type":"address","internalType":"address"},{"name":"payer","type":"address","internalType":"address"},{"name":"borrower","type":"address","internalType":"address"},{"name":"actualRepayAmount","type":"uint256","internalType":"uint256"},{"name":"borrowerIndex","type":"uint256","internalType":"uint256"}],"outputs":[],"stateMutability":"nonpayable"},{"type":"function","name":"seizeAllowed","inputs":[{"name":"pTokenCollateral","type":"address","internalType":"address"},{"name":"pTokenBorrowed","type":"address","internalType":"address"},{"name":"liquidator","type":"address","internalType":"address"},{"name":"borrower","type":"address","internalType":"address"},{"name":"seizeTokens","type":"uint256","internalType":"uint256"}],"outputs":[{"name":"","type":"uint256","internalType":"uint256"}],"stateMutability":"nonpayable"},{"type":"function","name":"seizeGuardianPaused","inputs":[],"outputs":[{"name":"","type":"bool","internalType":"bool"}],"stateMutability":"view"},{"type":"function","name":"seizeVerify","inputs":[{"name":"pTokenCollateral","type":"address","internalType":"address"},{"name":"pTokenBorrowed","type":"address","internalType":"address"},{"name":"liquidator","type":"address","internalType":"address"},{"name":"borrower","type":"address","internalType":"address"},{"name":"seizeTokens","type":"uint256","internalType":"uint256"}],"outputs":[],"stateMutability":"nonpayable"},{"type":"function","name":"transferAllowed","inputs":[{"name":"pToken","type":"address","internalType":"address"},{"name":"src","type":"address","internalType":"address"},{"name":"dst","type":"address","internalType":"address"},{"name":"transferTokens","type":"uint256","internalType":"uint256"}],"outputs":[{"name":"","type":"uint256","internalType":"uint256"}],"stateMutability":"nonpayable"},{"type":"function","name":"transferGuardianPaused","inputs":[],"outputs":[{"name":"","type":"bool","internalType":"bool"}],"stateMutability":"view"},{"type":"function","name":"transferVerify","inputs":[{"name":"pToken","type":"address","internalType":"address"},{"name":"src","type":"address","internalType":"address"},{"name":"dst","type":"address","internalType":"address"},{"name":"transferTokens","type":"uint256","internalType":"uint256"}],"outputs":[],"stateMutability":"nonpayable"},{"type":"function","name":"updateContributorRewards","inputs":[{"name":"contributor","type":"address","internalType":"address"}],"outputs":[],"stateMutability":"nonpayable"},{"type":"event","name":"ActionPaused","inputs":[{"name":"action","type":"string","indexed":false,"internalType":"string"},{"name":"pauseState","type":"bool","indexed":false,"internalType":"bool"}],"anonymous":false},{"type":"event","name":"ActionPaused","inputs":[{"name":"pToken","type":"address","indexed":false,"internalType":"contract PToken"},{"name":"action","type":"string","indexed":false,"internalType":"string"},{"name":"pauseState","type":"bool","indexed":false,"internalType":"bool"}],"anonymous":false},{"type":"event","name":"ContributorPeridotSpeedUpdated","inputs":[{"name":"contributor","type":"address","indexed":true,"internalType":"address"},{"name":"newSpeed","type":"uint256","indexed":false,"internalType":"uint256"}],"anonymous":false},{"type":"event","name":"DistributedBorrowerPeridot","inputs":[{"name":"pToken","type":"address","indexed":true,"internalType":"contract PToken"},{"name":"borrower","type":"address","indexed":true,"internalType":"address"},{"name":"peridotDelta","type":"uint256","indexed":false,"internalType":"uint256"},{"name":"peridotBorrowIndex","type":"uint256","indexed":false,"internalType":"uint256"}],"anonymous":false},{"type":"event","name":"DistributedSupplierPeridot","inputs":[{"name":"pToken","type":"address","indexed":true,"internalType":"contract PToken"},{"name":"supplier","type":"address","indexed":true,"internalType":"address"},{"name":"peridotDelta","type":"uint256","indexed":false,"internalType":"uint256"},{"name":"peridotSupplyIndex","type":"uint256","indexed":false,"internalType":"uint256"}],"anonymous":false},{"type":"event","name":"Failure","inputs":[{"name":"error","type":"uint256","indexed":false,"internalType":"uint256"},{"name":"info","type":"uint256","indexed":false,"internalType":"uint256"},{"name":"detail","type":"uint256","indexed":false,"internalType":"uint256"}],"anonymous":false},{"type":"event","name":"MarketEntered","inputs":[{"name":"pToken","type":"address","indexed":false,"internalType":"contract PToken"},{"name":"account","type":"address","indexed":false,"internalType":"address"}],"anonymous":false},{"type":"event","name":"MarketExited","inputs":[{"name":"pToken","type":"address","indexed":false,"internalType":"contract PToken"},{"name":"account","type":"address","indexed":false,"internalType":"address"}],"anonymous":false},{"type":"event","name":"MarketListed","inputs":[{"name":"pToken","type":"address","indexed":false,"internalType":"contract PToken"}],"anonymous":false},{"type":"event","name":"NewBorrowCap","inputs":[{"name":"pToken","type":"address","indexed":true,"internalType":"contract PToken"},{"name":"newBorrowCap","type":"uint256","indexed":false,"internalType":"uint256"}],"anonymous":false},{"type":"event","name":"NewBorrowCapGuardian","inputs":[{"name":"oldBorrowCapGuardian","type":"address","indexed":false,"internalType":"address"},{"name":"newBorrowCapGuardian","type":"address","indexed":false,"internalType":"address"}],"anonymous":false},{"type":"event","name":"NewCloseFactor","inputs":[{"name":"oldCloseFactorMantissa","type":"uint256","indexed":false,"internalType":"uint256"},{"name":"newCloseFactorMantissa","type":"uint256","indexed":false,"internalType":"uint256"}],"anonymous":false},{"type":"event","name":"NewCollateralFactor","inputs":[{"name":"pToken","type":"address","indexed":false,"internalType":"contract PToken"},{"name":"oldCollateralFactorMantissa","type":"uint256","indexed":false,"internalType":"uint256"},{"name":"newCollateralFactorMantissa","type":"uint256","indexed":false,"internalType":"uint256"}],"anonymous":false},{"type":"event","name":"NewLiquidationIncentive","inputs":[{"name":"oldLiquidationIncentiveMantissa","type":"uint256","indexed":false,"internalType":"uint256"},{"name":"newLiquidationIncentiveMantissa","type":"uint256","indexed":false,"internalType":"uint256"}],"anonymous":false},{"type":"event","name":"NewPauseGuardian","inputs":[{"name":"oldPauseGuardian","type":"address","indexed":false,"internalType":"address"},{"name":"newPauseGuardian","type":"address","indexed":false,"internalType":"address"}],"anonymous":false},{"type":"event","name":"NewPriceOracle","inputs":[{"name":"oldPriceOracle","type":"address","indexed":false,"internalType":"contract PriceOracle"},{"name":"newPriceOracle","type":"address","indexed":false,"internalType":"contract PriceOracle"}],"anonymous":false},{"type":"event","name":"PeridotGranted","inputs":[{"name":"recipient","type":"address","indexed":false,"internalType":"address"},{"name":"amount","type":"uint256","indexed":false,"internalType":"uint256"}],"anonymous":false},{"type":"event","name":"PeridotSpeedUpdated","inputs":[{"name":"pToken","type":"address","indexed":true,"internalType":"contract PToken"},{"name":"newSpeed","type":"uint256","indexed":false,"internalType":"uint256"}],"anonymous":false}],"bytecode":{"object":"0x608080604052346026575f80546001600160a01b03191633179055615159908161002b8239f35b5f80fdfe60806040526004361015610011575f80fd5b5f3560e01c80630aa4266f14611efe57806318c882a514611deb57806318f1408d14611dc35780631d504dc614611c355780631ededc9114611c0a57806321af456914611be257806324008a6214611bc657806324a3d62214611b9e5780632582e0ec1461190757806326782247146118df5780632d70db7814611802578063317b0b7714611756578063328bb72b1461170557806336376925146116e1578063391957d7146116065780633bcf7ec1146114f55780633c94786f146114d057806341c728b9146114c257806342cbb15c146114a857806347ef3b3b146114745780634a5844321461143c5780634ada90af1461141f5780634e79238f146113fc5780634ef4c3e1146113e25780634fd42e17146113c457806351dff9891461136157806352d84d1e1461133857806355ee1fe1146113095780635c778605146112fb5780635ec88c79146112ae5780635f5af1aa1461128b5780635fc7e71e1461126e578063607ef6c1146110ae5780636a56947e146110a05780636d154ea5146110635780636d35bf9114611055578063731f0c2b14611018578063741b252514610ff7578063794595f514610fbf5780637c8f3a6714610f975780637dc0d1d014610f6f578063825d327f14610c5c57806387f7630314610c375780638b130fa014610c095780638e8f294b14610bb05780638ebf636414610ad0578063929fe9a114610a76578063935dbd2614610a2557806394b2294b14610a085780639a8260d6146109015780639d92e62f146108bc578063a64db6271461086c578063a76b3fda14610849578063abfceffc14610811578063ac0b0bb7146107ec578063b0772d0b146107c1578063b0cbd6221461070b578063bdcdc258146106ef578063bea6b8b8146106b7578063c2998238146105b7578063c488847b14610592578063cd2489f01461056a578063ce27c01e14610532578063d002d989146104fa578063d02f7351146104dd578063d088864a146104c0578063da3d454c146104a7578063dce1544914610445578063e4028eee1461041e578063e6653f3d146103f9578063e8755446146103dc578063eabe7d91146103c3578063ede4edd014610398578063f851a440146103715763fa707af914610352575f80fd5b3461036d575f36600319011261036d57602060405160018152f35b5f80fd5b3461036d575f36600319011261036d575f546040516001600160a01b039091168152602090f35b3461036d57602036600319011261036d5760206103bb6103b6611f4e565b61370f565b604051908152f35b3461036d5760206103bb6103d63661216c565b916136bb565b3461036d575f36600319011261036d576020600554604051908152f35b3461036d575f36600319011261036d57602060ff600a5460a81c166040519015158152f35b3461036d57604036600319011261036d5760206103bb61043c611f4e565b602435906134dd565b3461036d57604036600319011261036d5761045e611f4e565b6001600160a01b03165f9081526008602052604090208054602435919082101561036d5760209161048e916121d2565b905460405160039290921b1c6001600160a01b03168152f35b3461036d5760206103bb6104ba3661216c565b91613209565b3461036d575f36600319011261036d576020600e54604051908152f35b3461036d5760206103bb6104f0366121e7565b509291909161307c565b3461036d57602036600319011261036d576001600160a01b0361051b611f4e565b165f526014602052602060405f2054604051908152f35b3461036d57602036600319011261036d576001600160a01b03610553611f4e565b165f526017602052602060405f2054604051908152f35b3461036d575f36600319011261036d5760206040516a0c097ce7bc90715b34b9f160241b8152f35b3461036d5760406105ab6105a53661216c565b91612e26565b82519182526020820152f35b3461036d57602036600319011261036d5760043567ffffffffffffffff811161036d576105e89036906004016120c9565b8051906105f4826120b1565b91610602604051938461208f565b80835261060e816120b1565b602084019290601f19013684375f5b828110610668578385604051918291602083019060208452518091526040830191905f5b81811061064f575050500390f35b8251845285945060209384019390920191600101610641565b610685336001600160a01b0361067e8486612468565b5116614ec1565b9060128210156106a35760019161069c8288612468565b520161061d565b634e487b7160e01b5f52602160045260245ffd5b3461036d57602036600319011261036d576001600160a01b036106d8611f4e565b165f526018602052602060405f2054604051908152f35b3461036d5760206103bb61070236611fd8565b92919091612daf565b3461036d57604036600319011261036d57610724611f4e565b7f25c31f2aebcdd5690c478d6f15c5d081640120a66428323870ed17257e342c3a60206024359261075b610756614e19565b612913565b61076481612890565b836107a3576001600160a01b0381165f9081526018835260408120555b6001600160a01b03165f818152601783526040908190208590555193845292a2005b6001600160a01b0381165f9081526018835260409020439055610781565b3461036d575f36600319011261036d576107e86107dc61247c565b6040519182918261227a565b0390f35b3461036d575f36600319011261036d57602060ff600a5460b81c166040519015158152f35b3461036d57602036600319011261036d576001600160a01b03610832611f4e565b165f5260086020526107e86107dc60405f206124cf565b3461036d57602036600319011261036d5760206103bb610867611f4e565b612bc8565b3461036d57604036600319011261036d57610885611f4e565b61088d611f64565b6001600160a01b039182165f908152601360209081526040808320949093168252928352819020549051908152f35b3461036d57604036600319011261036d576108d5611f4e565b6024359067ffffffffffffffff821161036d576108f96108ff9236906004016120c9565b9061295e565b005b3461036d57604036600319011261036d5761091a611f4e565b602435610925614e19565b156109c3576109348183613d48565b61097e57604080516001600160a01b03909316835260208301919091527f261934657a3c2333b8c49721bd1f22d7fa808b39ff56c88e0ed42daaff5e2c4e9190819081015b0390a1005b60405162461bcd60e51b815260206004820152601e60248201527f696e73756666696369656e742070657269646f7420666f72206772616e7400006044820152606490fd5b60405162461bcd60e51b815260206004820152601c60248201527f6f6e6c792061646d696e2063616e206772616e742070657269646f74000000006044820152606490fd5b3461036d575f36600319011261036d576020600754604051908152f35b3461036d57602036600319011261036d576001600160a01b03610a46611f4e565b165f908152601060209081526040918290205482516001600160e01b038216815260e09190911c91810191909152f35b3461036d57604036600319011261036d57610a8f611f4e565b6001600160a01b03610a9f611f64565b165f526009602052600260405f20019060018060a01b03165f52602052602060ff60405f2054166040519015158152f35b3461036d57602036600319011261036d576020610aeb611fc9565b600a5490336001600160a01b038316148015610b9d575b610b0b90612319565b5f546001600160a01b031633148015610b91575b610b2890612375565b15159060ff60b01b8260b01b169060ff60b01b191617600a557fef159d9a32b2472e32b098f954f3ce62d232939f1c207070b584df1814de2de060806040516040815260086040820152672a3930b739b332b960c11b60608201528385820152a1604051908152f35b50801515600114610b1f565b505f546001600160a01b03163314610b02565b3461036d57602036600319011261036d576001600160a01b03610bd1611f4e565b165f526009602052606060405f2060ff8154169060ff6003600183015492015416906040519215158352602083015215156040820152f35b3461036d575f36600319011261036d57602060405173507f0f5e58d21f07d133722e038067248fe4ecbe8152f35b3461036d575f36600319011261036d57602060ff600a5460b01c166040519015158152f35b3461036d57604036600319011261036d57610c75611f4e565b60243590610c84610756614e19565b6001600160a01b03165f818152600f6020526040902054909190818115610d72575060405163aa5af0fd60e01b815290602082600481875afa8015610d675783925f91610d2f575b50604051610cee91610cdd82612056565b8152610ce886613e47565b856139aa565b03610cf557005b60207f7192d234c68cd375a28075afb25d2e5ab2f48248c84841e104c1bd008785b98091835f52600f82528060405f2055604051908152a2005b9250506020823d602011610d5f575b81610d4b6020938361208f565b8101031261036d57610cee83925190610ccc565b3d9150610d3e565b6040513d5f823e3d90fd5b908115610cee579050825f526009602052600160ff60405f205416151503610f2a575f838152601060205260409020548291906001600160e01b03161580610f13575b610e9f575b5f848152601160205260409020546001600160e01b03161580610e88575b15610cee57610e25604051610dee60408261208f565b601c81527f626c6f636b206e756d626572206578636565647320333220626974730000000060208201526401000000004310614fea565b610e83604051610e3481612026565b6a0c097ce7bc90715b34b9f160241b81524363ffffffff1660208083019182525f8881526011909152604090209151905160e01b6001600160e01b0319166001600160e01b0391909116179055565b610cee565b50835f52601160205260405f205460e01c15610dd8565b610eb0604051610dee60408261208f565b610f0e604051610ebf81612026565b6a0c097ce7bc90715b34b9f160241b81524363ffffffff1660208083019182525f8881526010909152604090209151905160e01b6001600160e01b0319166001600160e01b0391909116179055565b610dba565b50835f52601060205260405f205460e01c15610db5565b60405162461bcd60e51b815260206004820152601c60248201527f70657269646f74206d61726b6574206973206e6f74206c6973746564000000006044820152606490fd5b3461036d575f36600319011261036d576004546040516001600160a01b039091168152602090f35b3461036d575f36600319011261036d576003546040516001600160a01b039091168152602090f35b3461036d57602036600319011261036d576001600160a01b03610fe0611f4e565b165f52600f602052602060405f2054604051908152f35b3461036d57602036600319011261036d576108ff611013611f4e565b612890565b3461036d57602036600319011261036d576001600160a01b03611039611f4e565b165f52600b602052602060ff60405f2054166040519015158152f35b3461036d576108ff366121e7565b3461036d57602036600319011261036d576001600160a01b03611084611f4e565b165f52600c602052602060ff60405f2054166040519015158152f35b3461036d576108ff36611fd8565b3461036d57604036600319011261036d5760043567ffffffffffffffff811161036d576110df903690600401612249565b60243567ffffffffffffffff811161036d576110ff903690600401612249565b9160018060a01b035f54163314801561125a575b156111f757801515806111ee575b156111b9575f5b81811061113157005b8061113f600192868661286c565b35828060a01b0361115961115484878b61286c565b61287c565b165f52601660205260405f205561117461115482858961286c565b7f6f1951b2aad10f3fc81b86d91105b413a5b3f847a34bbc5ce1904201b14438f660206111a284898961286c565b3592604051938452858060a01b031692a201611128565b60405162461bcd60e51b815260206004820152600d60248201526c1a5b9d985b1a59081a5b9c1d5d609a1b6044820152606490fd5b50828114611121565b60405162461bcd60e51b815260206004820152603560248201527f6f6e6c792061646d696e206f7220626f72726f772063617020677561726469616044820152746e2063616e2073657420626f72726f77206361707360581b6064820152608490fd5b506015546001600160a01b03163314611113565b3461036d5760206103bb611281366121e7565b939092915061274c565b3461036d57602036600319011261036d5760206103bb6112a9611f4e565b6126b0565b3461036d57602036600319011261036d576112cf6112ca611f4e565b614133565b601283929310156106a3576107e890604051938493846040919493926060820195825260208201520152565b3461036d576108ff3661216c565b3461036d57602036600319011261036d576004356001600160a01b038116810361036d576103bb60209161261c565b3461036d57602036600319011261036d57600435600d5481101561036d5761048e6020916121a6565b3461036d5761136f3661212e565b1592509050816113ba575b5061138157005b60405162461bcd60e51b815260206004820152601160248201527072656465656d546f6b656e73207a65726f60781b6044820152606490fd5b905015158161137a565b3461036d57602036600319011261036d5760206103bb6004356125a5565b3461036d5760206103bb6113f53661216c565b5090612520565b3461036d576112cf61140d3661212e565b9290916001600160a01b031690614ad4565b3461036d575f36600319011261036d576020600654604051908152f35b3461036d57602036600319011261036d576001600160a01b0361145d611f4e565b165f526016602052602060405f2054604051908152f35b3461036d5760c036600319011261036d5761148d611f4e565b50611496611f64565b5061149f611f7a565b506108ff611f90565b3461036d575f36600319011261036d576020604051438152f35b3461036d576108ff3661212e565b3461036d575f36600319011261036d57602060ff600a5460a01c166040519015158152f35b3461036d57604036600319011261036d576020611510611f4e565b7f71aec636243f9709bb0007ae15e9afb8150ab01716d75fd7573be5cc096e03b060a061153b611fba565b92600180831b031692835f526009855261155b60ff60405f2054166122bc565b600180831b03600a5416331480156115f0575b61157790612319565b600180831b035f5416331480156115e4575b61159290612375565b835f52600b85526115b28160405f209060ff801983541691151516179055565b6040519384526060858501526004606085015263135a5b9d60e21b6080850152151592836040820152a1604051908152f35b50801515600114611589565b50611577600180841b035f54163314905061156e565b3461036d57602036600319011261036d5761161f611f4e565b5f546001600160a01b0316330361168d57601580546001600160a01b039283166001600160a01b0319821681179092556040805193909116835260208301919091527feda98690e518e9a05f8ec6837663e188211b2da8f4906648b323f2c1d4434e29919081908101610979565b60405162461bcd60e51b815260206004820152602660248201527f6f6e6c792061646d696e2063616e2073657420626f72726f772063617020677560448201526530b93234b0b760d11b6064820152608490fd5b3461036d57602036600319011261036d576108ff6116fd611f4e565b6108f961247c565b3461036d57602036600319011261036d576001600160a01b03611726611f4e565b165f908152601160209081526040918290205482516001600160e01b038216815260e09190911c91810191909152f35b3461036d57602036600319011261036d575f54600435906001600160a01b031633036117bd5760407f3b9670cf975d26958e754b57098eaa2ac914d8d2a31b83257997b9f346110fd991600554908060055582519182526020820152a160206040515f8152f35b60405162461bcd60e51b815260206004820152601f60248201527f6f6e6c792061646d696e2063616e2073657420636c6f736520666163746f72006044820152606490fd5b3461036d57602036600319011261036d57602061181d611fc9565b600a5490336001600160a01b0383161480156118cc575b61183d90612319565b5f546001600160a01b0316331480156118c0575b61185a90612375565b15159060ff60b81b8260b81b169060ff60b81b191617600a557fef159d9a32b2472e32b098f954f3ce62d232939f1c207070b584df1814de2de060806040516040815260056040820152645365697a6560d81b60608201528385820152a1604051908152f35b50801515600114611851565b505f546001600160a01b03163314611834565b3461036d575f36600319011261036d576001546040516001600160a01b039091168152602090f35b3461036d57608036600319011261036d5760043567ffffffffffffffff811161036d576119389036906004016120c9565b60243567ffffffffffffffff811161036d576119589036906004016120c9565b906044359081151580920361036d576064359283151580940361036d57916001805f92149414905b83518110156108ff576001600160a01b0361199b8286612468565b5116805f52600960205260ff60405f20541615611b615785611a6a575b826119c7575b50600101611980565b919490936119d483613e47565b5f5b8451811015611a5c576001906119ff6001600160a01b036119f78389612468565b511686613f90565b611a38828060a01b03611a128389612468565b5116838060a01b03611a24848a612468565b51165f52601460205260405f205490613d48565b828060a01b03611a488389612468565b51165f52601460205260405f2055016119d6565b5093600191959250906119be565b90604095929495519263aa5af0fd60e01b8452602084600481865afa938415610d67575f94611b2e575b5060405193611aa285612056565b8452611aae84846139aa565b5f5b8551811015611b2357600190611ada866001600160a01b03611ad2848b612468565b511687613bb5565b611aff828060a01b03611aed838a612468565b5116838060a01b03611a24848b612468565b828060a01b03611b0f838a612468565b51165f52601460205260405f205501611ab0565b5095949250906119b8565b9093506020813d8211611b59575b81611b496020938361208f565b8101031261036d57519287611a94565b3d9150611b3c565b60405162461bcd60e51b81526020600482015260156024820152741b585c9ad95d081b5d5cdd081899481b1a5cdd1959605a1b6044820152606490fd5b3461036d575f36600319011261036d57600a546040516001600160a01b039091168152602090f35b3461036d5760206103bb611bd936611fd8565b509190506123ba565b3461036d575f36600319011261036d576015546040516001600160a01b039091168152602090f35b3461036d5760a036600319011261036d57611c23611f4e565b50611c2c611f64565b506108ff611f7a565b3461036d57602036600319011261036d576004356001600160a01b0381169081900361036d576040516303e1469160e61b8152602081600481855afa908115610d67575f91611d81575b506001600160a01b03163303611d2c5760205f9160046040518094819363307a00cd60e21b83525af1908115610d67575f91611cfa575b50611cbd57005b60405162461bcd60e51b815260206004820152601560248201527418da185b99d9481b9bdd08185d5d1a1bdc9a5e9959605a1b6044820152606490fd5b90506020813d602011611d24575b81611d156020938361208f565b8101031261036d575181611cb6565b3d9150611d08565b60405162461bcd60e51b815260206004820152602760248201527f6f6e6c7920756e6974726f6c6c65722061646d696e2063616e206368616e676560448201526620627261696e7360c81b6064820152608490fd5b90506020813d602011611dbb575b81611d9c6020938361208f565b8101031261036d57516001600160a01b038116810361036d5782611c7f565b3d9150611d8f565b3461036d575f36600319011261036d576002546040516001600160a01b039091168152602090f35b3461036d57604036600319011261036d576020611e06611f4e565b7f71aec636243f9709bb0007ae15e9afb8150ab01716d75fd7573be5cc096e03b060a0611e31611fba565b92600180831b031692835f5260098552611e5160ff60405f2054166122bc565b600180831b03600a541633148015611ee8575b611e6d90612319565b600180831b035f541633148015611edc575b611e8890612375565b835f52600c8552611ea88160405f209060ff801983541691151516179055565b6040519384526060858501526006606085015265426f72726f7760d01b6080850152151592836040820152a1604051908152f35b50801515600114611e7f565b50611e6d600180841b035f541633149050611e64565b3461036d57604036600319011261036d57611f17611f4e565b611f1f611f64565b6001600160a01b039182165f908152601260209081526040808320949093168252928352819020549051908152f35b600435906001600160a01b038216820361036d57565b602435906001600160a01b038216820361036d57565b604435906001600160a01b038216820361036d57565b606435906001600160a01b038216820361036d57565b35906001600160a01b038216820361036d57565b60243590811515820361036d57565b60043590811515820361036d57565b608090600319011261036d576004356001600160a01b038116810361036d57906024356001600160a01b038116810361036d57906044356001600160a01b038116810361036d579060643590565b6040810190811067ffffffffffffffff82111761204257604052565b634e487b7160e01b5f52604160045260245ffd5b6020810190811067ffffffffffffffff82111761204257604052565b610140810190811067ffffffffffffffff82111761204257604052565b90601f8019910116810190811067ffffffffffffffff82111761204257604052565b67ffffffffffffffff81116120425760051b60200190565b9080601f8301121561036d5781356120e0816120b1565b926120ee604051948561208f565b81845260208085019260051b82010192831161036d57602001905b8282106121165750505090565b6020809161212384611fa6565b815201910190612109565b608090600319011261036d576004356001600160a01b038116810361036d57906024356001600160a01b038116810361036d57906044359060643590565b606090600319011261036d576004356001600160a01b038116810361036d57906024356001600160a01b038116810361036d579060443590565b600d548110156121be57600d5f5260205f2001905f90565b634e487b7160e01b5f52603260045260245ffd5b80548210156121be575f5260205f2001905f90565b60a090600319011261036d576004356001600160a01b038116810361036d57906024356001600160a01b038116810361036d57906044356001600160a01b038116810361036d57906064356001600160a01b038116810361036d579060843590565b9181601f8401121561036d5782359167ffffffffffffffff831161036d576020808501948460051b01011161036d57565b60206040818301928281528451809452019201905f5b81811061229d5750505090565b82516001600160a01b0316845260209384019390920191600101612290565b156122c357565b60405162461bcd60e51b815260206004820152602860248201527f63616e6e6f742070617573652061206d61726b65742074686174206973206e6f6044820152671d081b1a5cdd195960c21b6064820152608490fd5b1561232057565b60405162461bcd60e51b815260206004820152602760248201527f6f6e6c7920706175736520677561726469616e20616e642061646d696e2063616044820152666e20706175736560c81b6064820152608490fd5b1561237c57565b60405162461bcd60e51b81526020600482015260166024820152756f6e6c792061646d696e2063616e20756e706175736560501b6044820152606490fd5b6001600160a01b0381165f8181526009602052604090205490929060ff16156124605760206004936040519485809263aa5af0fd60e01b82525afa918215610d67575f9261242a575b61242693506040519261241584612056565b835261242183826139aa565b613bb5565b5f90565b91506020833d602011612458575b816124456020938361208f565b8101031261036d57612426925191612403565b3d9150612438565b505050600990565b80518210156121be5760209160051b010190565b60405190600d548083528260208101600d5f5260205f20925f5b8181106124ad5750506124ab9250038361208f565b565b84546001600160a01b0316835260019485019487945060209093019201612496565b90604051918281549182825260208201905f5260205f20925f5b8181106124fe5750506124ab9250038361208f565b84546001600160a01b03168352600194850194879450602090930192016124e9565b6001600160a01b0381165f818152600b602052604090205491929160ff1661256f575f52600960205260ff60405f20541615612568578161256361242693613e47565b613f90565b5050600990565b60405162461bcd60e51b815260206004820152600e60248201526d1b5a5b9d081a5cc81c185d5cd95960921b6044820152606490fd5b5f546001600160a01b031633036125f15760407faeba5a6c40a8ac138134bff1aaa65debf25971188a58804bad717f82f0ec131691600654908060065582519182526020820152a15f90565b505f5160206151045f395f51905f52606060405160018152600b60208201525f6040820152a1600190565b5f546001600160a01b0316330361268557600480546001600160a01b039283166001600160a01b0319821681179092556040805193909116835260208301919091527fd52b2b9b7e9ee655fcb95d2e5b9e0c9f69e7ef2b8e9d2d0ea78402d576d22e2291a15f90565b505f5160206151045f395f51905f52606060405160018152601060208201525f6040820152a1600190565b5f546001600160a01b0316330361272157600a80546001600160a01b039283166001600160a01b0319821681179092556040805193909116835260208301919091527f0613b6ee6a04f0d09f390e4d9318894b9f6ac7fd83897cd8d18896ba579c401e9190819081015b0390a15f90565b505f5160206151045f395f51905f52606060405160018152601360208201525f6040820152a1600190565b6001600160a01b03165f8181526009602052604090205490929160ff9091161590811561284a575b506124605761278281614133565b91905060128110156106a3578061284257501561283a576040516395dd919360e01b81526001600160a01b03909116600482015290602090829060249082905afa908115610d67575f91612806575b506127f6670de0b6b3a764000091600554604051906127ef82612056565b81526150ea565b510410612801575f90565b601190565b90506020813d602011612832575b816128216020938361208f565b8101031261036d57516127f66127d1565b3d9150612814565b505050600390565b935050505090565b6001600160a01b03165f9081526009602052604081205460ff16159150612774565b91908110156121be5760051b0190565b356001600160a01b038116810361036d5790565b6001600160a01b03165f818152601760209081526040808320546018909252909120546128bd9043613702565b8015158061290a575b6128cf57505050565b6128ee916128dc91614df9565b825f52601460205260405f2054614e0c565b815f52601460205260405f20555f5260186020524360405f2055565b508115156128c6565b1561291a57565b606460405162461bcd60e51b815260206004820152602060248201527f6f6e6c792061646d696e2063616e207365742070657269646f742073706565646044820152fd5b919091604092835191612971858461208f565b600183526020830190601f1986013683378351156121be576001600160a01b0316905291925f925b8051841015612baa576001600160a01b036129b48583612468565b5116805f52600960205260ff835f20541615612b6e57825163aa5af0fd60e01b815291602083600481855afa928315612b64575f93612b31575b508351926129fb84612056565b8352612a0783836139aa565b5f5b8551811015612a8e57600190612a33856001600160a01b03612a2b848b612468565b511686613bb5565b612a6b828060a01b03612a46838a612468565b5116838060a01b03612a58848b612468565b51165f526014602052875f205490613d48565b828060a01b03612a7b838a612468565b51165f526014602052865f205501612a09565b5095909150612a9c82613e47565b5f5b8451811015612b2257600190612ac76001600160a01b03612abf8389612468565b511685613f90565b612aff828060a01b03612ada8389612468565b5116838060a01b03612aec848a612468565b51165f526014602052865f205490613d48565b828060a01b03612b0f8389612468565b51165f526014602052855f205501612a9e565b50946001909401939050612999565b9092506020813d8211612b5c575b81612b4c6020938361208f565b8101031261036d5751915f6129ee565b3d9150612b3f565b84513d5f823e3d90fd5b825162461bcd60e51b81526020600482015260156024820152741b585c9ad95d081b5d5cdd081899481b1a5cdd1959605a1b6044820152606490fd5b50505050565b9081602091031261036d5751801515810361036d5790565b5f546001600160a01b03163303612d84576001600160a01b03165f8181526009602052604090205460ff16612d5957604051632d44860760e11b8152602081600481855afa8015610d6757612d2c575b50805f5260096020525f6001604082208160ff198254161781556003810160ff19815416905501555f600d54905b818110612cc7575050600d54600160401b8110156120425781612cbc7fcf583bb0c569eb967f806b11601c4cb93c10310485c67add5f8362c2f212321f93612c9884600160209601600d55600d6121d2565b81546001600160a01b0393841660039290921b91821b9390911b1916919091179055565b604051908152a15f90565b82612cd1826121a6565b905460039190911b1c6001600160a01b031614612cf057600101612c46565b60405162461bcd60e51b81526020600482015260146024820152731b585c9ad95d08185b1c9958591e48185919195960621b6044820152606490fd5b612d4d9060203d602011612d52575b612d45818361208f565b810190612bb0565b612c18565b503d612d3b565b505f5160206151045f395f51905f526060604051600a8152601160208201525f6040820152a1600a90565b505f5160206151045f395f51905f52606060405160018152601260208201525f6040820152a1600190565b909260ff600a5460b01c16612dec57612dc9908483614e41565b80612de5575061256361242693612ddf83613e47565b82613f90565b9250505090565b60405162461bcd60e51b81526020600482015260126024820152711d1c985b9cd9995c881a5cc81c185d5cd95960721b6044820152606490fd5b6004805460405163fc57d4df60e01b81526001600160a01b0393841692810192909252909392911690602084602481855afa938415610d67575f94613028575b5092602060249460018060a01b0316926040519586809263fc57d4df60e01b82528660048301525afa938415610d67575f94612ff4575b5080158015612fec575b612fe15760206004926040519384809263182df0f560e01b82525afa918215610d67575f92612fab575b5090612f2a612f38925f604051612ee781612056565b525f604051612ef581612056565b525f604051612f0381612056565b5260065460405190612f1482612056565b815260405191612f2383612056565b8252614fb2565b9360405190612f1482612056565b915f604051612f4681612056565b525190670de0b6b3a7640000820291808304670de0b6b3a76400001490151715612f9757612f82612f8f92670de0b6b3a7640000945190614f94565b604051906127ef82612056565b5104905f9190565b634e487b7160e01b5f52601160045260245ffd5b91506020823d602011612fd9575b81612fc66020938361208f565b8101031261036d57905190612f2a612ed1565b3d9150612fb9565b50505050600d905f90565b508315612ea7565b9093506020813d602011613020575b816130106020938361208f565b8101031261036d5751925f612e9d565b3d9150613003565b93506020843d602011613055575b816130436020938361208f565b8101031261036d579251926020612e66565b3d9150613036565b9081602091031261036d57516001600160a01b038116810361036d5790565b9060ff600a5460b81c166131b7576001600160a01b0382165f8181526009602052604090205490919060ff16158015613195575b61318b5760206004926040519384809263c423fe2960e01b82525afa918215610d67575f92613166575b5060405163c423fe2960e01b815290602090829060049082906001600160a01b03165afa908115610d67575f91613137575b506001600160a01b0390811691160361312f5761256361242693612ddf83613e47565b505050600290565b613159915060203d60201161315f575b613151818361208f565b81019061305d565b5f61310c565b503d613147565b6004919250613183602091823d841161315f57613151818361208f565b9291506130da565b5050505050600990565b506001600160a01b0381165f9081526009602052604090205460ff16156130b0565b60405162461bcd60e51b815260206004820152600f60248201526e1cd95a5e99481a5cc81c185d5cd959608a1b6044820152606490fd5b156131f557565b634e487b7160e01b5f52600160045260245ffd5b9060018060a01b03821692835f52600c60205260ff60405f2054166134a557835f52600960205260ff60405f2054161561349c57835f526009602052600260405f200160018060a01b0383165f5260205260ff60405f2054161561340d575b6004805460405163fc57d4df60e01b8152918201869052602090829060249082906001600160a01b03165afa908115610d67575f916133db575b50156133d257835f52601660205260405f20548061331c575b506132c79084836144a4565b91905060128110156106a3578061284257506133145760206004936040519485809263aa5af0fd60e01b82525afa918215610d67575f9261242a5761242693506040519261241584612056565b505050600490565b6040516308f7a6e360e31b8152602081600481895afa8015610d675783905f9061339c575b61334b9250614e0c565b1015613357575f6132bb565b60405162461bcd60e51b815260206004820152601960248201527f6d61726b657420626f72726f77206361702072656163686564000000000000006044820152606490fd5b50506020813d6020116133ca575b816133b76020938361208f565b8101031261036d578261334b9151613341565b3d91506133aa565b50505050600d90565b90506020813d602011613405575b816133f66020938361208f565b8101031261036d57515f6132a2565b3d91506133e9565b83330361345f5761341e8233614ec1565b60128110156106a357806128425750835f526009602052600260405f200160018060a01b0383165f5260205261345a60ff60405f2054166131ee565b613268565b60405162461bcd60e51b815260206004820152601560248201527439b2b73232b91036bab9ba10313290382a37b5b2b760591b6044820152606490fd5b50505050600990565b60405162461bcd60e51b815260206004820152601060248201526f189bdc9c9bddc81a5cc81c185d5cd95960821b6044820152606490fd5b5f546001600160a01b0316330361368f576001600160a01b03165f818152600960205260409020805490919060ff16156136625760405161351d81612056565b838152670c7d713b49da000060405161353581612056565b5251670c7d713b49da00001061363557821515806135c1575b613594577f70483e6592cd5182d45ac970e05bc62cdcc90e9d8ef2c2dbe686cf383bcd7fc592600160609301818154915560405192835260208301526040820152a15f90565b5050505f5160206151045f395f51905f526060604051600d8152600960208201525f6040820152a1600d90565b506004805460405163fc57d4df60e01b8152918201839052602090829060249082906001600160a01b03165afa908115610d67575f91613603575b501561354e565b90506020813d60201161362d575b8161361e6020938361208f565b8101031261036d57515f6135fc565b3d9150613611565b5050505f5160206151045f395f51905f52606060405160068152600860208201525f6040820152a1600690565b5050505f5160206151045f395f51905f52606060405160098152600760208201525f6040820152a1600990565b50505f5160206151045f395f51905f52606060405160018152600660208201525f6040820152a1600190565b916136c7908284614e41565b91826136db57612426925061256381613e47565b505090565b919082608091031261036d578151916020810151916060604083015192015190565b91908203918211612f9757565b6040516361bfb47160e11b81523360048201526001600160a01b0382169190608081602481865afa8015610d67575f5f925f92613975575b50613922576138f55761375b913390614e41565b806138c857505f818152600960209081526040808320338452600201918290529091205460ff16156138c257335f90815260209182526040808220805460ff191690556008909252206137ad906124cf565b9081519182905f5b828110613893575b50506137ca9083106131ee565b335f52600860205260405f20918254905f198201918211612f9757612c986137f561380e93866121d2565b905460039190911b1c6001600160a01b031691856121d2565b815490811561387f577fe699a64c18b07ac5b7301aa273f36a2287239eb9501d81950672794afba29a0d9261271a925f19019061384b82826121d2565b81546001600160a01b0360039290921b82901b19169091559190556040805192909116825233602083015290918291820190565b634e487b7160e01b5f52603160045260245ffd5b836001600160a01b036138a68385612468565b5116146138b5576001016137b5565b93506137ca90505f6137bd565b50505f90565b5f5160206151045f395f51905f52915060609060405190600e8252600360208301526040820152a1600e90565b5050505f5160206151045f395f51905f526060604051600c8152600260208201525f6040820152a1600c90565b60405162461bcd60e51b815260206004820152602560248201527f657869744d61726b65743a206765744163636f756e74536e617073686f742066604482015264185a5b195960da1b6064820152608490fd5b91505061399a915060803d6080116139a3575b613992818361208f565b8101906136e0565b5090915f613747565b503d613988565b6001600160a01b03165f818152601160209081526040808320600f9092529091205481546139db9060e01c43613702565b938415158080613bac575b15613b6c57506040516308f7a6e360e31b8152602081600481885afa908115610d67575f91613b2e575b5094613a32613a6293613a2c63ffffffff96946124ab99615031565b92614df9565b908015613b1757613a4291615060565b905b54604051906001600160e01b0316613a5b82612056565b81526150b2565b5191613aab604051613a7560408261208f565b601a81527f6e657720696e64657820657863656564732032323420626974730000000000006020820152600160e01b8510614fea565b613abc604051610dee60408261208f565b60405192613ac984612026565b6001600160e01b03908116845243831660208086019182525f93845260119052604090922093518454925160e085811b94909416831691909216179216901b6001600160e01b031916179055565b5050604051613b2581612056565b5f815290613a44565b9293919590506020833d602011613b64575b81613b4d6020938361208f565b8101031261036d5791519194909291613a32613a10565b3d9150613b40565b935050509150613b795750565b6124ab90613b8e604051610dee60408261208f565b80546001600160e01b03164360e01b6001600160e01b031916179055565b508215156139e6565b6001600160a01b03165f81815260116020526040908190205490519293919291906001600160e01b0316613be883612056565b8252825f52601360205260405f2060018060a01b0385165f5260205260405f205460405190613c1682612056565b81528251845f52601360205260405f2060018060a01b0387165f5260205260405f20558051613c47575b5050505050565b613c5190836150ce565b6040516395dd919360e01b81526001600160a01b039095166004860181905294909190602081602481885afa908115610d67575f91613d0e575b50613cd5604093613ccd7f1e5561ff39e796a5299c233e6fd3b11fe55a12e535266cc176f37334e6c7efb696946a0c097ce7bc90715b34b9f160241b94615031565b905190614df9565b0490855f526014602052613cec82845f2054614e0c565b865f526014602052835f20555182519182526020820152a35f80808080613c40565b90506020939193813d602011613d40575b81613d2c6020938361208f565b8101031261036d5751909290613cd5613c8b565b3d9150613d1f565b6040516370a0823160e01b815230600482015260208160248173507f0f5e58d21f07d133722e038067248fe4ecbe5afa908115610d67575f91613e15575b508215159081613e0a575b50613d9a575090565b60405163a9059cbb60e01b81526001600160a01b0391909116600482015260248101919091526020816044815f73507f0f5e58d21f07d133722e038067248fe4ecbe5af18015610d6757613ded57505f90565b613e059060203d602011612d5257612d45818361208f565b505f90565b90508211155f613d91565b90506020813d602011613e3f575b81613e306020938361208f565b8101031261036d57515f613d86565b3d9150613e23565b60018060a01b0316805f52601060205260405f2090805f52600f60205260405f2054613e77835460e01c43613702565b908115158080613f87575b15613f7c57506040516318160ddd60e01b815291602083600481875afa928315610d67575f93613f44575b509363ffffffff92613a32613ec5936124ab97614df9565b5191613ed8604051613a7560408261208f565b613ee9604051610dee60408261208f565b60405192613ef684612026565b6001600160e01b03908116845243831660208086019182525f93845260109052604090922093518454925160e085811b94909416831691909216179216901b6001600160e01b031916179055565b9250936020833d602011613f74575b81613f606020938361208f565b8101031261036d57915191936124ab613ead565b3d9150613f53565b92505050613b795750565b50811515613e82565b6001600160a01b03165f8181526010602052604090819020549051906001600160e01b0316613fbe82612056565b8152815f52601260205260405f2060018060a01b0384165f5260205261402660405f205460405190613fef82612056565b81528251845f52601260205260405f2060018060a01b0387165f5260205260405f205580511580614129575b614113575b826150ce565b6040516370a0823160e01b81526001600160a01b03909416600485018190529390602082602481875afa918215610d67575f926140cf575b50916a0c097ce7bc90715b34b9f160241b61409e6040937faf420590cb43d2e84351d8cd2a32149325e748efcd73152eacf2e54ecab59766955190614df9565b0490855f5260146020526140b582845f2054614e0c565b865f526014602052835f20555182519182526020820152a3565b9150916020823d60201161410b575b816140eb6020938361208f565b8101031261036d57905190916a0c097ce7bc90715b34b9f160241b61405e565b3d91506140de565b6a0c097ce7bc90715b34b9f160241b8152614020565b508251151561401b565b906040519161414183612072565b5f83525f60208401525f60408401525f60608401525f60808401525f60a084015260405161416e81612056565b5f815260c084015260405161418281612056565b5f815260e084015260405161419681612056565b5f81526101008401526040516141ab81612056565b5f815261012084015260018060a01b0381165f5260086020526141d060405f206124cf565b6004549092906001600160a01b03165f5b8451811015614464576001600160a01b036141fc8287612468565b516040516361bfb47160e11b81526001600160a01b0387166004820152911690608081602481855afa8015610d67575f915f915f915f91614442575b5060808b015260608a0152604089015261443357805f526009602052600160405f2001546040519061426982612056565b815260c088015260808701516040519061428282612056565b815260e088015260405163fc57d4df60e01b815260048101829052602081602481875afa908115610d67575f91614402575b508060a089015280156143f257604051906142ce82612056565b81526101008801526143226142fb6142ef60c08a015160e08b015190614fb2565b6101008a015190614fb2565b806101208a0152670de0b6b3a764000061431b60408b01518b51936150ea565b5104614e0c565b8752614349610100880151670de0b6b3a764000061431b60608b015160208c0151936150ea565b908160208901521561435f575b506001016141e1565b6101208701515f60405161437281612056565b52515f91901560011715612f9757670de0b6b3a76400006143a3926040519061439a82612056565b81525104614e0c565b908160208801526101008701515f6040516143bd81612056565b52515f901560011715612f9757600192670de0b6b3a76400006143e7926040519061439a82612056565b602088015290614356565b50600d96505f9550859450505050565b90506020813d821161442b575b8161441c6020938361208f565b8101031261036d57515f6142b4565b3d915061440f565b50600f95505f94508493505050565b9250505061445e915060803d81116139a357613992818361208f565b5f614238565b505092915050805160208201518082115f1461449357505080602061448d925191015190613702565b5f918290565b61449d9250613702565b5f915f9190565b90929192604051916144b583612072565b5f83525f60208401525f60408401525f60608401525f60808401525f60a08401526040516144e281612056565b5f815260c08401526040516144f681612056565b5f815260e084015260405161450a81612056565b5f815261010084015260405161451f81612056565b5f815261012084015260018060a01b0381165f52600860205261454460405f206124cf565b6004549094906001600160a01b03165f5b865181101561478e576001600160a01b036145708289612468565b516040516361bfb47160e11b81526001600160a01b038716600482015291169190608081602481865afa8015610d67575f915f915f915f9161476c575b5060808b015260608a0152604089015261475a57815f526009602052600160405f200154604051906145de82612056565b815260c08801526080870151604051906145f782612056565b815260e088015260405163fc57d4df60e01b815260048101839052602081602481875afa908115610d67575f91614729575b508060a08901528015614716576040519061464382612056565b81526101008801526146646142fb6142ef60c08a015160e08b015190614fb2565b875261468b610100880151670de0b6b3a764000061431b60608b015160208c0151936150ea565b60208801819052916001600160a01b038716146146ad575b6001915001614555565b6101208701515f6040516146c081612056565b52515f92901560011715612f97576146ee61470c91670de0b6b3a76400006001956040519061439a82612056565b8060208a0152670de0b6b3a764000061431b8c6101008c01516150ea565b60208801526146a3565b50505050945050505050600d905f905f90565b90506020813d8211614752575b816147436020938361208f565b8101031261036d57515f614629565b3d9150614736565b505050945050505050600f905f905f90565b92505050614788915060803d81116139a357613992818361208f565b5f6145ad565b5050945050509050805160208201518082115f1461449357505080602061448d925191015190613702565b9291604051936147c885612072565b5f85525f60208601525f60408601525f60608601525f60808601525f60a08601526040516147f581612056565b5f815260c086015260405161480981612056565b5f815260e086015260405161481d81612056565b5f815261010086015260405161483281612056565b5f815261012086015260018060a01b0381165f52600860205261485760405f206124cf565b6004549094906001600160a01b03165f5b8651811015614aa9576001600160a01b036148838289612468565b516040516361bfb47160e11b81526001600160a01b0387166004820152911690608081602481855afa8015610d67575f915f915f915f91614a87575b5060808d015260608c015260408b015261475a57805f526009602052600160405f200154604051906148f082612056565b815260c08a015260808901516040519061490982612056565b815260e08a015260405163fc57d4df60e01b815260048101829052602081602481875afa908115610d67575f91614a56575b508060a08b01528015614716576040519061495582612056565b81526101008a01526149a261498261497660c08c015160e08d015190614fb2565b6101008c015190614fb2565b806101208c0152670de0b6b3a764000061431b60408d01518d51936150ea565b89526149ca6101008a0151670de0b6b3a764000061431b8c60206060820151910151936150ea565b60208a01819052906001600160a01b038816146149eb575b50600101614868565b614a0790670de0b6b3a764000061431b886101208d01516150ea565b908160208a01526101008901515f604051614a2181612056565b52515f901560011715612f9757600192670de0b6b3a7640000614a4b926040519061439a82612056565b60208a0152906149e2565b90506020813d8211614a7f575b81614a706020938361208f565b8101031261036d57515f61493b565b3d9150614a63565b92505050614aa3915060803d81116139a357613992818361208f565b5f6148bf565b5050949350505050805160208201518082115f1461449357505080602061448d925191015190613702565b92919060405192614ae484612072565b5f84525f60208501525f60408501525f60608501525f60808501525f60a0850152604051614b1181612056565b5f815260c0850152604051614b2581612056565b5f815260e0850152604051614b3981612056565b5f8152610100850152604051614b4e81612056565b5f815261012085015260018060a01b0385165f526008602052614b7360405f206124cf565b6004549095906001600160a01b03165f5b8751811015614dce576001600160a01b03614b9f828a612468565b516040516361bfb47160e11b81526001600160a01b038616600482015291169190608081602481865afa8015610d67575f915f915f915f91614dac575b5060808c015260608b015260408a0152614d9a57815f526009602052600160405f20015460405190614c0d82612056565b815260c0890152608088015160405190614c2682612056565b815260e089015260405163fc57d4df60e01b81526004810183905291602083602481875afa928315610d67575f93614d67575b508260a08a01528215614d545788889160019460405190614c7982612056565b8152610100830152614cc6614ca6614c9a60c085015160e086015190614fb2565b61010085015190614fb2565b80610120850152670de0b6b3a764000061431b60408601518651936150ea565b8252614ced610100830151670de0b6b3a764000061431b60608601516020870151936150ea565b90816020840152858060a01b038a1614614d0b575b50505001614b84565b670de0b6b3a764000061431b614d4794610120614d299501516150ea565b8060208b0152670de0b6b3a764000061431b886101008d01516150ea565b602089015286885f614d02565b50505050505050505050600d905f905f90565b9092506020813d8211614d92575b81614d826020938361208f565b8101031261036d5751915f614c59565b3d9150614d75565b505050505050505050600f905f905f90565b92505050614dc8915060803d81116139a357613992818361208f565b5f614bdc565b5050505050509050805160208201518082115f1461449357505080602061448d925191015190613702565b81810292918115918404141715612f9757565b91908201809211612f9757565b5f546001600160a01b031633148015614e2f5790565b506002546001600160a01b0316331490565b6001600160a01b03165f8181526009602052604090205491929160ff161561246057805f526009602052600260405f200160018060a01b0384165f5260205260ff60405f20541615614eba57614e96926147b9565b91905060128110156106a35780614eb55750614eb0575f90565b600490565b905090565b5050505f90565b9060018060a01b0382165f52600960205260405f2060ff815416156124605760020160018060a01b0382165f5280602052600160ff60405f205416151514614eba576001600160a01b0382165f90815260209182526040808220805460ff1916600117905560089092522080549290600160401b8410156120425781612c9885614f719360017f3ab23ab0d51cccc0c3085aec51f99228625aa1a922b3a8ca89a26b0f2027a1a5980181556121d2565b604080516001600160a01b0392831681529290911660208301528190810161271a565b8115614f9e570490565b634e487b7160e01b5f52601260045260245ffd5b670de0b6b3a764000091614fd7915f604051614fcd81612056565b5251905190614df9565b0460405190614fe582612056565b815290565b15614ff25750565b604460209160405192839162461bcd60e51b83528160048401528051918291826024860152018484015e5f828201840152601f01601f19168101030190fd5b670de0b6b3a7640000810290808204670de0b6b3a76400001490151715612f975761505d915190614f94565b90565b905f60405161506e81612056565b526a0c097ce7bc90715b34b9f160241b8202918083046a0c097ce7bc90715b34b9f160241b1490151715612f97576150a591614f94565b60405190614fe582612056565b906150a5915f6040516150c481612056565b5251905190614e0c565b906150a5915f6040516150e081612056565b5251905190613702565b906150a5915f6040516150fc81612056565b5251614df956fe45b96fe442630264581b197e84bbada861235052c5a1aadfff9ea4e40a969aa0a2646970667358221220b2835bc5d2e57e8814972afb3ef31a85d0c053b109854591d954415a045ffd3e64736f6c634300081c0033","linkReferences":{}},"methodIdentifiers":{"_become(address)":"1d504dc6","_borrowGuardianPaused()":"e6653f3d","_grantPeridot(address,uint256)":"9a8260d6","_mintGuardianPaused()":"3c94786f","_setBorrowCapGuardian(address)":"391957d7","_setBorrowPaused(address,bool)":"18c882a5","_setCloseFactor(uint256)":"317b0b77","_setCollateralFactor(address,uint256)":"e4028eee","_setContributorPeridotSpeed(address,uint256)":"b0cbd622","_setLiquidationIncentive(uint256)":"4fd42e17","_setMarketBorrowCaps(address[],uint256[])":"607ef6c1","_setMintPaused(address,bool)":"3bcf7ec1","_setPauseGuardian(address)":"5f5af1aa","_setPeridotSpeed(address,uint256)":"825d327f","_setPriceOracle(address)":"55ee1fe1","_setSeizePaused(bool)":"2d70db78","_setTransferPaused(bool)":"8ebf6364","_supportMarket(address)":"a76b3fda","accountAssets(address,uint256)":"dce15449","admin()":"f851a440","allMarkets(uint256)":"52d84d1e","borrowAllowed(address,address,uint256)":"da3d454c","borrowCapGuardian()":"21af4569","borrowCaps(address)":"4a584432","borrowGuardianPaused(address)":"6d154ea5","borrowVerify(address,address,uint256)":"5c778605","checkMembership(address,address)":"929fe9a1","claimPeridot(address)":"36376925","claimPeridot(address,address[])":"9d92e62f","claimPeridot(address[],address[],bool,bool)":"2582e0ec","closeFactorMantissa()":"e8755446","enterMarkets(address[])":"c2998238","exitMarket(address)":"ede4edd0","getAccountLiquidity(address)":"5ec88c79","getAllMarkets()":"b0772d0b","getAssetsIn(address)":"abfceffc","getBlockNumber()":"42cbb15c","getHypotheticalAccountLiquidity(address,address,uint256,uint256)":"4e79238f","getPeridotAddress()":"8b130fa0","isPeridottroller()":"fa707af9","lastContributorBlock(address)":"bea6b8b8","liquidateBorrowAllowed(address,address,address,address,uint256)":"5fc7e71e","liquidateBorrowVerify(address,address,address,address,uint256,uint256)":"47ef3b3b","liquidateCalculateSeizeTokens(address,address,uint256)":"c488847b","liquidationIncentiveMantissa()":"4ada90af","markets(address)":"8e8f294b","maxAssets()":"94b2294b","mintAllowed(address,address,uint256)":"4ef4c3e1","mintGuardianPaused(address)":"731f0c2b","mintVerify(address,address,uint256,uint256)":"41c728b9","oracle()":"7dc0d1d0","pauseGuardian()":"24a3d622","pendingAdmin()":"26782247","pendingPeridottrollerImplementation()":"7c8f3a67","peridotAccrued(address)":"d002d989","peridotBorrowState(address)":"328bb72b","peridotBorrowerIndex(address,address)":"a64db627","peridotContributorSpeeds(address)":"ce27c01e","peridotInitialIndex()":"cd2489f0","peridotRate()":"d088864a","peridotSpeeds(address)":"794595f5","peridotSupplierIndex(address,address)":"0aa4266f","peridotSupplyState(address)":"935dbd26","peridottrollerImplementation()":"18f1408d","redeemAllowed(address,address,uint256)":"eabe7d91","redeemVerify(address,address,uint256,uint256)":"51dff989","repayBorrowAllowed(address,address,address,uint256)":"24008a62","repayBorrowVerify(address,address,address,uint256,uint256)":"1ededc91","seizeAllowed(address,address,address,address,uint256)":"d02f7351","seizeGuardianPaused()":"ac0b0bb7","seizeVerify(address,address,address,address,uint256)":"6d35bf91","transferAllowed(address,address,address,uint256)":"bdcdc258","transferGuardianPaused()":"87f76303","transferVerify(address,address,address,uint256)":"6a56947e","updateContributorRewards(address)":"741b2525"},"id":27}