{"abi":[{"type":"constructor","inputs":[{"name":"_router","type":"address","internalType":"address"}],"stateMutability":"nonpayable"},{"type":"receive","stateMutability":"payable"},{"type":"function","name":"acceptOwnership","inputs":[],"outputs":[],"stateMutability":"nonpayable"},{"type":"function","name":"allowedDestinationChains","inputs":[{"name":"","type":"uint64","internalType":"uint64"}],"outputs":[{"name":"","type":"bool","internalType":"bool"}],"stateMutability":"view"},{"type":"function","name":"allowedReceivers","inputs":[{"name":"","type":"uint64","internalType":"uint64"}],"outputs":[{"name":"","type":"address","internalType":"address"}],"stateMutability":"view"},{"type":"function","name":"allowlistDestinationChain","inputs":[{"name":"_destinationChainSelector","type":"uint64","internalType":"uint64"},{"name":"_allowed","type":"bool","internalType":"bool"}],"outputs":[],"stateMutability":"nonpayable"},{"type":"function","name":"authorizeUserForChain","inputs":[{"name":"_destinationChainSelector","type":"uint64","internalType":"uint64"},{"name":"_authorized","type":"bool","internalType":"bool"}],"outputs":[],"stateMutability":"nonpayable"},{"type":"function","name":"getFeeForEnterMarketsRequest","inputs":[{"name":"_destinationChainSelector","type":"uint64","internalType":"uint64"},{"name":"_pTokens","type":"address[]","internalType":"address[]"},{"name":"_feeToken","type":"address","internalType":"address"}],"outputs":[{"name":"fee","type":"uint256","internalType":"uint256"}],"stateMutability":"view"},{"type":"function","name":"getFeeForExitMarketRequest","inputs":[{"name":"_destinationChainSelector","type":"uint64","internalType":"uint64"},{"name":"_pToken","type":"address","internalType":"address"},{"name":"_feeToken","type":"address","internalType":"address"}],"outputs":[{"name":"fee","type":"uint256","internalType":"uint256"}],"stateMutability":"view"},{"type":"function","name":"owner","inputs":[],"outputs":[{"name":"","type":"address","internalType":"address"}],"stateMutability":"view"},{"type":"function","name":"requestEnterMarkets","inputs":[{"name":"_destinationChainSelector","type":"uint64","internalType":"uint64"},{"name":"_user","type":"address","internalType":"address"},{"name":"_pTokens","type":"address[]","internalType":"address[]"},{"name":"_feeToken","type":"address","internalType":"address"}],"outputs":[{"name":"messageId","type":"bytes32","internalType":"bytes32"}],"stateMutability":"payable"},{"type":"function","name":"requestExitMarket","inputs":[{"name":"_destinationChainSelector","type":"uint64","internalType":"uint64"},{"name":"_user","type":"address","internalType":"address"},{"name":"_pToken","type":"address","internalType":"address"},{"name":"_feeToken","type":"address","internalType":"address"}],"outputs":[{"name":"messageId","type":"bytes32","internalType":"bytes32"}],"stateMutability":"payable"},{"type":"function","name":"setReceiver","inputs":[{"name":"_destinationChainSelector","type":"uint64","internalType":"uint64"},{"name":"_receiver","type":"address","internalType":"address"}],"outputs":[],"stateMutability":"nonpayable"},{"type":"function","name":"transferOwnership","inputs":[{"name":"to","type":"address","internalType":"address"}],"outputs":[],"stateMutability":"nonpayable"},{"type":"function","name":"userAuthorizations","inputs":[{"name":"","type":"address","internalType":"address"},{"name":"","type":"uint64","internalType":"uint64"}],"outputs":[{"name":"","type":"bool","internalType":"bool"}],"stateMutability":"view"},{"type":"function","name":"withdraw","inputs":[{"name":"_beneficiary","type":"address","internalType":"address"}],"outputs":[],"stateMutability":"nonpayable"},{"type":"event","name":"CrossChainEnterMarketsRequestSent","inputs":[{"name":"messageId","type":"bytes32","indexed":true,"internalType":"bytes32"},{"name":"destinationChainSelector","type":"uint64","indexed":true,"internalType":"uint64"},{"name":"user","type":"address","indexed":true,"internalType":"address"},{"name":"pTokens","type":"address[]","indexed":false,"internalType":"address[]"},{"name":"receiver","type":"address","indexed":false,"internalType":"address"},{"name":"fees","type":"uint256","indexed":false,"internalType":"uint256"}],"anonymous":false},{"type":"event","name":"CrossChainExitMarketRequestSent","inputs":[{"name":"messageId","type":"bytes32","indexed":true,"internalType":"bytes32"},{"name":"destinationChainSelector","type":"uint64","indexed":true,"internalType":"uint64"},{"name":"user","type":"address","indexed":true,"internalType":"address"},{"name":"pToken","type":"address","indexed":false,"internalType":"address"},{"name":"receiver","type":"address","indexed":false,"internalType":"address"},{"name":"fees","type":"uint256","indexed":false,"internalType":"uint256"}],"anonymous":false},{"type":"event","name":"OwnershipTransferRequested","inputs":[{"name":"from","type":"address","indexed":true,"internalType":"address"},{"name":"to","type":"address","indexed":true,"internalType":"address"}],"anonymous":false},{"type":"event","name":"OwnershipTransferred","inputs":[{"name":"from","type":"address","indexed":true,"internalType":"address"},{"name":"to","type":"address","indexed":true,"internalType":"address"}],"anonymous":false}],"bytecode":{"object":"0x60803460c757601f6113a338819003918201601f19168301916001600160401b0383118484101760cb5780849260209460405283398101031260c757516001600160a01b0381169081900360c75733156082575f80546001600160a01b03199081163317909155600280549091169190911790556040516112c390816100e08239f35b60405162461bcd60e51b815260206004820152601860248201527f43616e6e6f7420736574206f776e657220746f207a65726f00000000000000006044820152606490fd5b5f80fd5b634e487b7160e01b5f52604160045260245ffdfe6080604052600436101561001a575b3615610018575f80fd5b005b5f3560e01c80630bee11c114610aa457806315b8c08014610a1357806343a7a8eb146109b05780634e4197f31461096e57806351cff8d914610871578063740b2d601461050957806379ba50971461045e5780638da5cb5b1461043757806396d3b83d146103f7578063aa6f7fb3146103ba578063aed5bcd914610216578063efac2a7c146101b7578063f26f7a11146101775763f2fde38b0361000e5734610173576020366003190112610173576100d1610e23565b6100d961123c565b6001600160a01b031633811461012e57600180546001600160a01b031916821790555f80546001600160a01b0316907fed8889f560326eb138920d842192f0eb3dd22b4f139c87a2c57538e05bae12789080a3005b60405162461bcd60e51b815260206004820152601760248201527f43616e6e6f74207472616e7366657220746f2073656c660000000000000000006044820152606490fd5b5f80fd5b34610173576020366003190112610173576001600160401b03610198610dcb565b165f526004602052602060018060a01b0360405f205416604051908152f35b34610173576040366003190112610173576101d0610dcb565b6001600160401b036101e0610de1565b916101e961123c565b165f90815260046020526040902080546001600160a01b0319166001600160a01b03909216919091179055005b346101735760603660031901126101735761022f610dcb565b602435906001600160401b038211610173576102c7602091610258610360943690600401610e68565b92906102d5610265610df7565b916001600160401b0385165f52600487526102b860018060a01b0360405f20541696610292881515610f3c565b6102aa6040519384928b8085015260408401916111d2565b03601f198101835282610fcc565b6040519384913389840161103d565b03601f198101845283610fcc565b60405193858501528484526102eb604085610fcc565b6102f3611065565b61030d60405161030281610f96565b6207a1208152611216565b926040519561031b87610fb1565b865286860152604085015260018060a01b03166060840152608083015260018060a01b0360025416906040518095819482936320487ded60e01b8452600484016110bc565b03915afa80156103af575f9061037c575b602090604051908152f35b506020813d6020116103a7575b8161039660209383610fcc565b810103126101735760209051610371565b3d9150610389565b6040513d5f823e3d90fd5b34610173576020366003190112610173576001600160401b036103db610dcb565b165f526003602052602060ff60405f2054166040519015158152f35b34610173576100186001600160401b0361041036610e39565b919061041a61123c565b165f52600360205260405f209060ff801983541691151516179055565b34610173575f366003190112610173575f546040516001600160a01b039091168152602090f35b34610173575f366003190112610173576001546001600160a01b03811633036104cb575f80546001600160a01b031980821633908117845593166001556001600160a01b0316907f8be0079c531659141344cd1fd0a4f28419497f9722a3daafe3b4186f6b6457e09080a3005b60405162461bcd60e51b815260206004820152601660248201527526bab9ba10313290383937b837b9b2b21037bbb732b960511b6044820152606490fd5b60803660031901126101735761051d610dcb565b610525610de1565b906044356001600160401b03811161017357610545903690600401610e68565b929061054f610e0d565b916001600160401b03841691825f52600360205261057360ff60405f205416610e98565b6001600160a01b03821693338514801561084c575b61059190610ee4565b5f848152600460205260409020546001600160a01b0316956105b4871515610f3c565b610601604051946020808701526105e1866105d3604082018d896111d2565b03601f198101885287610fcc565b6105f36040519687926020840161103d565b03601f198101865285610fcc565b604051918760208401526020835261061a604084610fcc565b610622611065565b61063160405161030281610f96565b956040519461063f86610fb1565b85526020850152604084015260018060a01b031693846060840152608083015260018060a01b0360025416604051946320487ded60e01b86526020868061068a8787600484016110bc565b0381855afa9586156103af575f96610818575b5061077d57506106df916020916106b686341015611186565b60018060a01b036002541690866040518096819582946396f4e9f960e01b8452600484016110bc565b03925af19081156103af575f91610748575b50906020967f97a452d213126b764b4384b5b9e8d75f115bb3b2d911b1d348c69bd7dcf18603929687945b6107336040519485946060865260608601916111d2565b918a84015260408301520390a4604051908152f35b9190506020823d602011610775575b8161076460209383610fcc565b8101031261017357905160206106f1565b3d9150610757565b916107a2926020925f6040518096819582946396f4e9f960e01b8452600484016110bc565b03925af19081156103af575f916107e3575b50906020967f97a452d213126b764b4384b5b9e8d75f115bb3b2d911b1d348c69bd7dcf186039296879461071c565b9190506020823d602011610810575b816107ff60209383610fcc565b8101031261017357905160206107b4565b3d91506107f2565b9095506020813d602011610844575b8161083460209383610fcc565b810103126101735751948a61069d565b3d9150610827565b50845f52600560205260405f20845f5260205261059160ff60405f2054169050610588565b346101735760203660031901126101735761088a610e23565b61089261123c565b47908115610933575f80809381935af13d1561092e573d6001600160401b03811161091a57604051906108cf601f8201601f191660200183610fcc565b81525f60203d92013e5b156108e057005b60405162461bcd60e51b81526020600482015260126024820152714661696c656420746f20776974686472617760701b6044820152606490fd5b634e487b7160e01b5f52604160045260245ffd5b6108d9565b60405162461bcd60e51b81526020600482015260136024820152724e6f7468696e6720746f20776974686472617760681b6044820152606490fd5b346101735761001861097f36610e39565b90335f5260056020526001600160401b0360405f2091165f5260205260405f209060ff801983541691151516179055565b34610173576040366003190112610173576109c9610e23565b602435906001600160401b03821682036101735760018060a01b03165f5260056020526001600160401b0360405f2091165f52602052602060ff60405f2054166040519015158152f35b34610173576060366003190112610173576103606020610a31610dcb565b610a39610de1565b906102c7610a45610df7565b6001600160401b0383165f9081526004865260409020546001600160a01b0316936102d590610a75861515610f3c565b604080516001600160a01b0390921688830152878252610a959082610fcc565b60405193849133898401611011565b608036600319011261017357610ab8610dcb565b610ac0610de1565b610ac8610df7565b90610ad1610e0d565b926001600160401b03811690815f526003602052610af560ff60405f205416610e98565b6001600160a01b038316923384148015610da6575b610b1390610ee4565b5f838152600460205260409020546001600160a01b031691610b36831515610f3c565b610b6d6040519660018060a01b03169283602089015260208852610b5b604089610fcc565b6105d360405198899260208401611011565b6040519683602089015260208852610b86604089610fcc565b610b8e611065565b610b9d60405161030281610f96565b9760405199610bab8b610fb1565b8a5260208a0152604089015260018060a01b031695866060890152608088015260018060a01b0360025416604051966320487ded60e01b885260208880610bf68c87600484016110bc565b0381855afa9788156103af575f98610d72575b50610cd65750610c4b96602091610c2288341015611186565b60018060a01b03600254169088604051809b819582946396f4e9f960e01b8452600484016110bc565b03925af19586156103af575f96610ca1575b5060607fabcea7f0729d00e69b0090c060f95b42a4b2ac20c70188da92be692781063ee0916020979687945b604051928352898301526040820152a4604051908152f35b95506020863d602011610cce575b81610cbc60209383610fcc565b81010312610173579451946060610c5d565b3d9150610caf565b96610cfb976020925f604051809b819582946396f4e9f960e01b8452600484016110bc565b03925af19586156103af575f96610d3d575b5060607fabcea7f0729d00e69b0090c060f95b42a4b2ac20c70188da92be692781063ee091602097968794610c89565b95506020863d602011610d6a575b81610d5860209383610fcc565b81010312610173579451946060610d0d565b3d9150610d4b565b9097506020813d602011610d9e575b81610d8e60209383610fcc565b8101031261017357519689610c09565b3d9150610d81565b50835f52600560205260405f20835f52602052610b1360ff60405f2054169050610b0a565b600435906001600160401b038216820361017357565b602435906001600160a01b038216820361017357565b604435906001600160a01b038216820361017357565b606435906001600160a01b038216820361017357565b600435906001600160a01b038216820361017357565b6040906003190112610173576004356001600160401b0381168103610173579060243580151581036101735790565b9181601f84011215610173578235916001600160401b038311610173576020808501948460051b01011161017357565b15610e9f57565b60405162461bcd60e51b815260206004820152601d60248201527f44657374696e6174696f6e20636861696e206e6f7420616c6c6f7765640000006044820152606490fd5b15610eeb57565b60405162461bcd60e51b815260206004820152602360248201527f4e6f7420617574686f72697a656420746f2061637420666f722074686973207560448201526239b2b960e91b6064820152608490fd5b15610f4357565b60405162461bcd60e51b815260206004820152602560248201527f4e6f2072656365697665722073657420666f722064657374696e6174696f6e2060448201526431b430b4b760d91b6064820152608490fd5b602081019081106001600160401b0382111761091a57604052565b60a081019081106001600160401b0382111761091a57604052565b90601f801991011681019081106001600160401b0382111761091a57604052565b805180835260209291819084018484015e5f828201840152601f01601f1916010190565b600181526001600160a01b03909116602082015260606040820181905261103a92910190610fed565b90565b5f81526001600160a01b03909116602082015260606040820181905261103a92910190610fed565b60405190611074602083610fcc565b5f8252815f805b81811061108757505050565b6040519060408201918083106001600160401b0384111761091a576020926040525f81525f838201528282860101520161107b565b906001600160401b0390939293168152604060208201526111026110ec845160a0604085015260e0840190610fed565b6020850151838203603f19016060850152610fed565b90604084015191603f19828203016080830152602080845192838152019301905f5b81811061115b57505050608061103a939460018060a01b0360608201511660a084015201519060c0603f1982850301910152610fed565b825180516001600160a01b031686526020908101518187015260409095019490920191600101611124565b1561118d57565b60405162461bcd60e51b815260206004820152601960248201527f496e73756666696369656e74206665652070726f7669646564000000000000006044820152606490fd5b916020908281520191905f905b8082106111ec5750505090565b90919283359060018060a01b038216809203610173576020816001938293520194019201906111df565b604051906397a657c960e01b60208301525160248201526024815261103a604482610fcc565b5f546001600160a01b0316330361124f57565b60405162461bcd60e51b815260206004820152601660248201527527b7363c9031b0b63630b1363290313c9037bbb732b960511b6044820152606490fdfea2646970667358221220a757d5033330152f917fbf53a1fcbd206f909156c79c45a601024b408cd0ef3f64736f6c634300081b0033","linkReferences":{}},"methodIdentifiers":{"acceptOwnership()":"79ba5097","allowedDestinationChains(uint64)":"aa6f7fb3","allowedReceivers(uint64)":"f26f7a11","allowlistDestinationChain(uint64,bool)":"96d3b83d","authorizeUserForChain(uint64,bool)":"4e4197f3","getFeeForEnterMarketsRequest(uint64,address[],address)":"aed5bcd9","getFeeForExitMarketRequest(uint64,address,address)":"15b8c080","owner()":"8da5cb5b","requestEnterMarkets(uint64,address,address[],address)":"740b2d60","requestExitMarket(uint64,address,address,address)":"0bee11c1","setReceiver(uint64,address)":"efac2a7c","transferOwnership(address)":"f2fde38b","userAuthorizations(address,uint64)":"43a7a8eb","withdraw(address)":"51cff8d9"},"id":41}