{"abi":[{"type":"constructor","inputs":[{"name":"_router","type":"address","internalType":"address"}],"stateMutability":"nonpayable"},{"type":"receive","stateMutability":"payable"},{"type":"function","name":"acceptOwnership","inputs":[],"outputs":[],"stateMutability":"nonpayable"},{"type":"function","name":"allowedDestinationChains","inputs":[{"name":"","type":"uint64","internalType":"uint64"}],"outputs":[{"name":"","type":"bool","internalType":"bool"}],"stateMutability":"view"},{"type":"function","name":"allowedReceivers","inputs":[{"name":"","type":"uint64","internalType":"uint64"}],"outputs":[{"name":"","type":"address","internalType":"address"}],"stateMutability":"view"},{"type":"function","name":"allowlistDestinationChain","inputs":[{"name":"_destinationChainSelector","type":"uint64","internalType":"uint64"},{"name":"_allowed","type":"bool","internalType":"bool"}],"outputs":[],"stateMutability":"nonpayable"},{"type":"function","name":"authorizeUserForChain","inputs":[{"name":"_destinationChainSelector","type":"uint64","internalType":"uint64"},{"name":"_authorized","type":"bool","internalType":"bool"}],"outputs":[],"stateMutability":"nonpayable"},{"type":"function","name":"getFeeForEnterMarketsRequest","inputs":[{"name":"_destinationChainSelector","type":"uint64","internalType":"uint64"},{"name":"_pTokens","type":"address[]","internalType":"address[]"},{"name":"_feeToken","type":"address","internalType":"address"}],"outputs":[{"name":"fee","type":"uint256","internalType":"uint256"}],"stateMutability":"view"},{"type":"function","name":"getFeeForExitMarketRequest","inputs":[{"name":"_destinationChainSelector","type":"uint64","internalType":"uint64"},{"name":"_pToken","type":"address","internalType":"address"},{"name":"_feeToken","type":"address","internalType":"address"}],"outputs":[{"name":"fee","type":"uint256","internalType":"uint256"}],"stateMutability":"view"},{"type":"function","name":"owner","inputs":[],"outputs":[{"name":"","type":"address","internalType":"address"}],"stateMutability":"view"},{"type":"function","name":"requestEnterMarkets","inputs":[{"name":"_destinationChainSelector","type":"uint64","internalType":"uint64"},{"name":"_user","type":"address","internalType":"address"},{"name":"_pTokens","type":"address[]","internalType":"address[]"},{"name":"_feeToken","type":"address","internalType":"address"}],"outputs":[{"name":"messageId","type":"bytes32","internalType":"bytes32"}],"stateMutability":"payable"},{"type":"function","name":"requestExitMarket","inputs":[{"name":"_destinationChainSelector","type":"uint64","internalType":"uint64"},{"name":"_user","type":"address","internalType":"address"},{"name":"_pToken","type":"address","internalType":"address"},{"name":"_feeToken","type":"address","internalType":"address"}],"outputs":[{"name":"messageId","type":"bytes32","internalType":"bytes32"}],"stateMutability":"payable"},{"type":"function","name":"setReceiver","inputs":[{"name":"_destinationChainSelector","type":"uint64","internalType":"uint64"},{"name":"_receiver","type":"address","internalType":"address"}],"outputs":[],"stateMutability":"nonpayable"},{"type":"function","name":"transferOwnership","inputs":[{"name":"to","type":"address","internalType":"address"}],"outputs":[],"stateMutability":"nonpayable"},{"type":"function","name":"userAuthorizations","inputs":[{"name":"","type":"address","internalType":"address"},{"name":"","type":"uint64","internalType":"uint64"}],"outputs":[{"name":"","type":"bool","internalType":"bool"}],"stateMutability":"view"},{"type":"function","name":"withdraw","inputs":[{"name":"_beneficiary","type":"address","internalType":"address"}],"outputs":[],"stateMutability":"nonpayable"},{"type":"event","name":"CrossChainEnterMarketsRequestSent","inputs":[{"name":"messageId","type":"bytes32","indexed":true,"internalType":"bytes32"},{"name":"destinationChainSelector","type":"uint64","indexed":true,"internalType":"uint64"},{"name":"user","type":"address","indexed":true,"internalType":"address"},{"name":"pTokens","type":"address[]","indexed":false,"internalType":"address[]"},{"name":"receiver","type":"address","indexed":false,"internalType":"address"},{"name":"fees","type":"uint256","indexed":false,"internalType":"uint256"}],"anonymous":false},{"type":"event","name":"CrossChainExitMarketRequestSent","inputs":[{"name":"messageId","type":"bytes32","indexed":true,"internalType":"bytes32"},{"name":"destinationChainSelector","type":"uint64","indexed":true,"internalType":"uint64"},{"name":"user","type":"address","indexed":true,"internalType":"address"},{"name":"pToken","type":"address","indexed":false,"internalType":"address"},{"name":"receiver","type":"address","indexed":false,"internalType":"address"},{"name":"fees","type":"uint256","indexed":false,"internalType":"uint256"}],"anonymous":false},{"type":"event","name":"OwnershipTransferRequested","inputs":[{"name":"from","type":"address","indexed":true,"internalType":"address"},{"name":"to","type":"address","indexed":true,"internalType":"address"}],"anonymous":false},{"type":"event","name":"OwnershipTransferred","inputs":[{"name":"from","type":"address","indexed":true,"internalType":"address"},{"name":"to","type":"address","indexed":true,"internalType":"address"}],"anonymous":false}],"bytecode":{"object":"0x608060405234801561000f575f5ffd5b5060405161190338038061190383398101604081905261002e91610183565b33805f816100835760405162461bcd60e51b815260206004820152601860248201527f43616e6e6f7420736574206f776e657220746f207a65726f000000000000000060448201526064015b60405180910390fd5b5f80546001600160a01b0319166001600160a01b03848116919091179091558116156100b2576100b2816100db565b5050600280546001600160a01b0319166001600160a01b039390931692909217909155506101b0565b336001600160a01b038216036101335760405162461bcd60e51b815260206004820152601760248201527f43616e6e6f74207472616e7366657220746f2073656c66000000000000000000604482015260640161007a565b600180546001600160a01b0319166001600160a01b038381169182179092555f8054604051929316917fed8889f560326eb138920d842192f0eb3dd22b4f139c87a2c57538e05bae12789190a350565b5f60208284031215610193575f5ffd5b81516001600160a01b03811681146101a9575f5ffd5b9392505050565b611746806101bd5f395ff3fe6080604052600436106100dc575f3560e01c80638da5cb5b1161007c578063aed5bcd911610057578063aed5bcd91461028b578063efac2a7c146102aa578063f26f7a11146102c9578063f2fde38b146102fd575f5ffd5b80638da5cb5b1461020e57806396d3b83d1461023e578063aa6f7fb31461025d575f5ffd5b80634e4197f3116100b75780634e4197f31461017557806351cff8d9146101c8578063740b2d60146101e757806379ba5097146101fa575f5ffd5b80630bee11c1146100e757806315b8c0801461010d57806343a7a8eb1461012c575f5ffd5b366100e357005b5f5ffd5b6100fa6100f5366004611220565b61031c565b6040519081526020015b60405180910390f35b348015610118575f5ffd5b506100fa610127366004611271565b61073f565b348015610137575f5ffd5b506101656101463660046112b1565b600560209081525f928352604080842090915290825290205460ff1681565b6040519015158152602001610104565b348015610180575f5ffd5b506101c661018f3660046112e2565b335f9081526005602090815260408083206001600160401b0395909516835293905291909120805460ff1916911515919091179055565b005b3480156101d3575f5ffd5b506101c66101e236600461131b565b6108e9565b6100fa6101f5366004611382565b6109ce565b348015610205575f5ffd5b506101c6610ddf565b348015610219575f5ffd5b505f546001600160a01b03165b6040516001600160a01b039091168152602001610104565b348015610249575f5ffd5b506101c66102583660046112e2565b610e88565b348015610268575f5ffd5b506101656102773660046113f2565b60036020525f908152604090205460ff1681565b348015610296575f5ffd5b506100fa6102a536600461140b565b610eba565b3480156102b5575f5ffd5b506101c66102c4366004611460565b611062565b3480156102d4575f5ffd5b506102266102e33660046113f2565b60046020525f90815260409020546001600160a01b031681565b348015610308575f5ffd5b506101c661031736600461131b565b6110a2565b6001600160401b0384165f9081526003602052604081205460ff166103885760405162461bcd60e51b815260206004820152601d60248201527f44657374696e6174696f6e20636861696e206e6f7420616c6c6f77656400000060448201526064015b60405180910390fd5b336001600160a01b03851614806103ca57506001600160a01b0384165f9081526005602090815260408083206001600160401b038916845290915290205460ff165b6103e65760405162461bcd60e51b815260040161037f90611488565b6001600160401b0385165f908152600460205260409020546001600160a01b0316806104245760405162461bcd60e51b815260040161037f906114cb565b604080516001600160a01b03861660208201525f910160405160208183030381529060405290505f600187836040516020016104629392919061153e565b60408051601f1981840301815260a0830182526001600160a01b03861660c0808501919091528251808503909101815260e0840183528352602080840182905282515f80825291810184529194509291820190836104e1565b604080518082019091525f80825260208201528152602001906001900390816104bb5790505b508152602001876001600160a01b0316815260200161051060405180602001604052806207a1208152506110b6565b90526002546040516320487ded60e01b81529192505f916001600160a01b03909116906320487ded90610549908d90869060040161158b565b602060405180830381865afa158015610564573d5f5f3e3d5ffd5b505050506040513d601f19601f820116820180604052508101906105889190611669565b90506001600160a01b03871661066057803410156105e45760405162461bcd60e51b8152602060048201526019602482015278125b9cdd59999a58da595b9d08199959481c1c9bdd9a591959603a1b604482015260640161037f565b6002546040516396f4e9f960e01b81526001600160a01b03909116906396f4e9f9908390610618908e90879060040161158b565b60206040518083038185885af1158015610634573d5f5f3e3d5ffd5b50505050506040513d601f19601f820116820180604052508101906106599190611669565b95506106d5565b6002546040516396f4e9f960e01b81526001600160a01b03909116906396f4e9f990610692908d90869060040161158b565b6020604051808303815f875af11580156106ae573d5f5f3e3d5ffd5b505050506040513d601f19601f820116820180604052508101906106d29190611669565b95505b604080516001600160a01b038a811682528781166020830152918101839052908a16906001600160401b038c169088907fabcea7f0729d00e69b0090c060f95b42a4b2ac20c70188da92be692781063ee09060600160405180910390a45050505050949350505050565b6001600160401b0383165f908152600460205260408120546001600160a01b03168061077d5760405162461bcd60e51b815260040161037f906114cb565b604080516001600160a01b03861660208201525f910160405160208183030381529060405290505f600133836040516020016107bb9392919061153e565b60408051601f1981840301815260a0830182526001600160a01b03861660c0808501919091528251808503909101815260e0840183528352602080840182905282515f808252918101845291945092918201908361083a565b604080518082019091525f80825260208201528152602001906001900390816108145790505b508152602001876001600160a01b0316815260200161086960405180602001604052806207a1208152506110b6565b90526002546040516320487ded60e01b81529192506001600160a01b0316906320487ded9061089e908b90859060040161158b565b602060405180830381865afa1580156108b9573d5f5f3e3d5ffd5b505050506040513d601f19601f820116820180604052508101906108dd9190611669565b98975050505050505050565b6108f16110f3565b47806109355760405162461bcd60e51b81526020600482015260136024820152724e6f7468696e6720746f20776974686472617760681b604482015260640161037f565b5f826001600160a01b0316826040515f6040518083038185875af1925050503d805f811461097e576040519150601f19603f3d011682016040523d82523d5f602084013e610983565b606091505b50509050806109c95760405162461bcd60e51b81526020600482015260126024820152714661696c656420746f20776974686472617760701b604482015260640161037f565b505050565b6001600160401b0385165f9081526003602052604081205460ff16610a355760405162461bcd60e51b815260206004820152601d60248201527f44657374696e6174696f6e20636861696e206e6f7420616c6c6f776564000000604482015260640161037f565b336001600160a01b0386161480610a7757506001600160a01b0385165f9081526005602090815260408083206001600160401b038a16845290915290205460ff165b610a935760405162461bcd60e51b815260040161037f90611488565b6001600160401b0386165f908152600460205260409020546001600160a01b031680610ad15760405162461bcd60e51b815260040161037f906114cb565b5f8585604051602001610ae59291906116c6565b60405160208183030381529060405290505f5f8883604051602001610b0c9392919061153e565b60408051601f1981840301815260a0830182526001600160a01b03861660c0808501919091528251808503909101815260e0840183528352602080840182905282515f8082529181018452919450929182019083610b8b565b604080518082019091525f8082526020820152815260200190600190039081610b655790505b508152602001876001600160a01b03168152602001610bba60405180602001604052806207a1208152506110b6565b90526002546040516320487ded60e01b81529192505f916001600160a01b03909116906320487ded90610bf3908e90869060040161158b565b602060405180830381865afa158015610c0e573d5f5f3e3d5ffd5b505050506040513d601f19601f82011682018060405250810190610c329190611669565b90506001600160a01b038716610d0a5780341015610c8e5760405162461bcd60e51b8152602060048201526019602482015278125b9cdd59999a58da595b9d08199959481c1c9bdd9a591959603a1b604482015260640161037f565b6002546040516396f4e9f960e01b81526001600160a01b03909116906396f4e9f9908390610cc2908f90879060040161158b565b60206040518083038185885af1158015610cde573d5f5f3e3d5ffd5b50505050506040513d601f19601f82011682018060405250810190610d039190611669565b9550610d7f565b6002546040516396f4e9f960e01b81526001600160a01b03909116906396f4e9f990610d3c908e90869060040161158b565b6020604051808303815f875af1158015610d58573d5f5f3e3d5ffd5b505050506040513d601f19601f82011682018060405250810190610d7c9190611669565b95505b896001600160a01b03168b6001600160401b0316877f97a452d213126b764b4384b5b9e8d75f115bb3b2d911b1d348c69bd7dcf186038c8c8a87604051610dc994939291906116e1565b60405180910390a4505050505095945050505050565b6001546001600160a01b03163314610e325760405162461bcd60e51b815260206004820152601660248201527526bab9ba10313290383937b837b9b2b21037bbb732b960511b604482015260640161037f565b5f8054336001600160a01b0319808316821784556001805490911690556040516001600160a01b0390921692909183917f8be0079c531659141344cd1fd0a4f28419497f9722a3daafe3b4186f6b6457e091a350565b610e906110f3565b6001600160401b03919091165f908152600360205260409020805460ff1916911515919091179055565b6001600160401b0384165f908152600460205260408120546001600160a01b031680610ef85760405162461bcd60e51b815260040161037f906114cb565b5f8585604051602001610f0c9291906116c6565b60405160208183030381529060405290505f5f3383604051602001610f339392919061153e565b60408051601f1981840301815260a0830182526001600160a01b03861660c0808501919091528251808503909101815260e0840183528352602080840182905282515f8082529181018452919450929182019083610fb2565b604080518082019091525f8082526020820152815260200190600190039081610f8c5790505b508152602001876001600160a01b03168152602001610fe160405180602001604052806207a1208152506110b6565b90526002546040516320487ded60e01b81529192506001600160a01b0316906320487ded90611016908c90859060040161158b565b602060405180830381865afa158015611031573d5f5f3e3d5ffd5b505050506040513d601f19601f820116820180604052508101906110559190611669565b9998505050505050505050565b61106a6110f3565b6001600160401b03919091165f90815260046020526040902080546001600160a01b0319166001600160a01b03909216919091179055565b6110aa6110f3565b6110b381611147565b50565b60408051915160248084019190915281518084039091018152604490920190526020810180516001600160e01b03166397a657c960e01b17905290565b5f546001600160a01b031633146111455760405162461bcd60e51b815260206004820152601660248201527527b7363c9031b0b63630b1363290313c9037bbb732b960511b604482015260640161037f565b565b336001600160a01b0382160361119f5760405162461bcd60e51b815260206004820152601760248201527f43616e6e6f74207472616e7366657220746f2073656c66000000000000000000604482015260640161037f565b600180546001600160a01b0319166001600160a01b038381169182179092555f8054604051929316917fed8889f560326eb138920d842192f0eb3dd22b4f139c87a2c57538e05bae12789190a350565b80356001600160401b0381168114611205575f5ffd5b919050565b80356001600160a01b0381168114611205575f5ffd5b5f5f5f5f60808587031215611233575f5ffd5b61123c856111ef565b935061124a6020860161120a565b92506112586040860161120a565b91506112666060860161120a565b905092959194509250565b5f5f5f60608486031215611283575f5ffd5b61128c846111ef565b925061129a6020850161120a565b91506112a86040850161120a565b90509250925092565b5f5f604083850312156112c2575f5ffd5b6112cb8361120a565b91506112d9602084016111ef565b90509250929050565b5f5f604083850312156112f3575f5ffd5b6112fc836111ef565b915060208301358015158114611310575f5ffd5b809150509250929050565b5f6020828403121561132b575f5ffd5b6113348261120a565b9392505050565b5f5f83601f84011261134b575f5ffd5b5081356001600160401b03811115611361575f5ffd5b6020830191508360208260051b850101111561137b575f5ffd5b9250929050565b5f5f5f5f5f60808688031215611396575f5ffd5b61139f866111ef565b94506113ad6020870161120a565b935060408601356001600160401b038111156113c7575f5ffd5b6113d38882890161133b565b90945092506113e690506060870161120a565b90509295509295909350565b5f60208284031215611402575f5ffd5b611334826111ef565b5f5f5f5f6060858703121561141e575f5ffd5b611427856111ef565b935060208501356001600160401b03811115611441575f5ffd5b61144d8782880161133b565b909450925061126690506040860161120a565b5f5f60408385031215611471575f5ffd5b61147a836111ef565b91506112d96020840161120a565b60208082526023908201527f4e6f7420617574686f72697a656420746f2061637420666f722074686973207560408201526239b2b960e91b606082015260800190565b60208082526025908201527f4e6f2072656365697665722073657420666f722064657374696e6174696f6e2060408201526431b430b4b760d91b606082015260800190565b5f81518084528060208401602086015e5f602082860101526020601f19601f83011685010191505092915050565b5f6002851061155b57634e487b7160e01b5f52602160045260245ffd5b8482526001600160a01b038416602083015260606040830181905261158290830184611510565b95945050505050565b6001600160401b0383168152604060208201525f825160a060408401526115b560e0840182611510565b90506020840151603f198483030160608501526115d28282611510565b6040860151858203603f190160808701528051808352602091820194505f93509101905b8083101561162d57835180516001600160a01b031683526020908101518184015290930192600192909201916040909101906115f6565b5060608601516001600160a01b031660a08601526080860151858203603f190160c0870152925061165e8184611510565b979650505050505050565b5f60208284031215611679575f5ffd5b5051919050565b8183526020830192505f815f5b848110156116bc576001600160a01b036116a68361120a565b168652602095860195919091019060010161168d565b5093949350505050565b602081525f6116d9602083018486611680565b949350505050565b606081525f6116f4606083018688611680565b6001600160a01b0394909416602083015250604001529291505056fea2646970667358221220e07a07dcca01e9486d9ec60da86c3106e50209544cda62f48cb5b9b18e16bef464736f6c634300081b0033","linkReferences":{}},"methodIdentifiers":{"acceptOwnership()":"79ba5097","allowedDestinationChains(uint64)":"aa6f7fb3","allowedReceivers(uint64)":"f26f7a11","allowlistDestinationChain(uint64,bool)":"96d3b83d","authorizeUserForChain(uint64,bool)":"4e4197f3","getFeeForEnterMarketsRequest(uint64,address[],address)":"aed5bcd9","getFeeForExitMarketRequest(uint64,address,address)":"15b8c080","owner()":"8da5cb5b","requestEnterMarkets(uint64,address,address[],address)":"740b2d60","requestExitMarket(uint64,address,address,address)":"0bee11c1","setReceiver(uint64,address)":"efac2a7c","transferOwnership(address)":"f2fde38b","userAuthorizations(address,uint64)":"43a7a8eb","withdraw(address)":"51cff8d9"},"id":2}