{"abi":[{"type":"function","name":"NO_ERROR","inputs":[],"outputs":[{"name":"","type":"uint256","internalType":"uint256"}],"stateMutability":"view"},{"type":"function","name":"_acceptAdmin","inputs":[],"outputs":[{"name":"","type":"uint256","internalType":"uint256"}],"stateMutability":"nonpayable"},{"type":"function","name":"_addReserves","inputs":[{"name":"addAmount","type":"uint256","internalType":"uint256"}],"outputs":[{"name":"","type":"uint256","internalType":"uint256"}],"stateMutability":"nonpayable"},{"type":"function","name":"_becomeImplementation","inputs":[{"name":"data","type":"bytes","internalType":"bytes"}],"outputs":[],"stateMutability":"nonpayable"},{"type":"function","name":"_delegatePeridotLikeTo","inputs":[{"name":"peridotLikeDelegatee","type":"address","internalType":"address"}],"outputs":[],"stateMutability":"nonpayable"},{"type":"function","name":"_reduceReserves","inputs":[{"name":"reduceAmount","type":"uint256","internalType":"uint256"}],"outputs":[{"name":"","type":"uint256","internalType":"uint256"}],"stateMutability":"nonpayable"},{"type":"function","name":"_resignImplementation","inputs":[],"outputs":[],"stateMutability":"nonpayable"},{"type":"function","name":"_setFlashLoanFee","inputs":[{"name":"newFeeBps","type":"uint256","internalType":"uint256"}],"outputs":[{"name":"","type":"uint256","internalType":"uint256"}],"stateMutability":"nonpayable"},{"type":"function","name":"_setFlashLoansPaused","inputs":[{"name":"state","type":"bool","internalType":"bool"}],"outputs":[{"name":"","type":"bool","internalType":"bool"}],"stateMutability":"nonpayable"},{"type":"function","name":"_setInterestRateModel","inputs":[{"name":"newInterestRateModel","type":"address","internalType":"contract InterestRateModel"}],"outputs":[{"name":"","type":"uint256","internalType":"uint256"}],"stateMutability":"nonpayable"},{"type":"function","name":"_setMaxFlashLoanRatio","inputs":[{"name":"newMaxRatio","type":"uint256","internalType":"uint256"}],"outputs":[{"name":"","type":"uint256","internalType":"uint256"}],"stateMutability":"nonpayable"},{"type":"function","name":"_setPendingAdmin","inputs":[{"name":"newPendingAdmin","type":"address","internalType":"address payable"}],"outputs":[{"name":"","type":"uint256","internalType":"uint256"}],"stateMutability":"nonpayable"},{"type":"function","name":"_setPeridottroller","inputs":[{"name":"newPeridottroller","type":"address","internalType":"contract PeridottrollerInterface"}],"outputs":[{"name":"","type":"uint256","internalType":"uint256"}],"stateMutability":"nonpayable"},{"type":"function","name":"_setReserveFactor","inputs":[{"name":"newReserveFactorMantissa","type":"uint256","internalType":"uint256"}],"outputs":[{"name":"","type":"uint256","internalType":"uint256"}],"stateMutability":"nonpayable"},{"type":"function","name":"accrualBlockNumber","inputs":[],"outputs":[{"name":"","type":"uint256","internalType":"uint256"}],"stateMutability":"view"},{"type":"function","name":"accrueInterest","inputs":[],"outputs":[{"name":"","type":"uint256","internalType":"uint256"}],"stateMutability":"nonpayable"},{"type":"function","name":"admin","inputs":[],"outputs":[{"name":"","type":"address","internalType":"address payable"}],"stateMutability":"view"},{"type":"function","name":"allowance","inputs":[{"name":"owner","type":"address","internalType":"address"},{"name":"spender","type":"address","internalType":"address"}],"outputs":[{"name":"","type":"uint256","internalType":"uint256"}],"stateMutability":"view"},{"type":"function","name":"approve","inputs":[{"name":"spender","type":"address","internalType":"address"},{"name":"amount","type":"uint256","internalType":"uint256"}],"outputs":[{"name":"","type":"bool","internalType":"bool"}],"stateMutability":"nonpayable"},{"type":"function","name":"balanceOf","inputs":[{"name":"owner","type":"address","internalType":"address"}],"outputs":[{"name":"","type":"uint256","internalType":"uint256"}],"stateMutability":"view"},{"type":"function","name":"balanceOfUnderlying","inputs":[{"name":"owner","type":"address","internalType":"address"}],"outputs":[{"name":"","type":"uint256","internalType":"uint256"}],"stateMutability":"nonpayable"},{"type":"function","name":"borrow","inputs":[{"name":"borrowAmount","type":"uint256","internalType":"uint256"}],"outputs":[{"name":"","type":"uint256","internalType":"uint256"}],"stateMutability":"nonpayable"},{"type":"function","name":"borrowBalanceCurrent","inputs":[{"name":"account","type":"address","internalType":"address"}],"outputs":[{"name":"","type":"uint256","internalType":"uint256"}],"stateMutability":"nonpayable"},{"type":"function","name":"borrowBalanceStored","inputs":[{"name":"account","type":"address","internalType":"address"}],"outputs":[{"name":"","type":"uint256","internalType":"uint256"}],"stateMutability":"view"},{"type":"function","name":"borrowIndex","inputs":[],"outputs":[{"name":"","type":"uint256","internalType":"uint256"}],"stateMutability":"view"},{"type":"function","name":"borrowRatePerBlock","inputs":[],"outputs":[{"name":"","type":"uint256","internalType":"uint256"}],"stateMutability":"view"},{"type":"function","name":"daiJoinAddress","inputs":[],"outputs":[{"name":"","type":"address","internalType":"address"}],"stateMutability":"view"},{"type":"function","name":"decimals","inputs":[],"outputs":[{"name":"","type":"uint8","internalType":"uint8"}],"stateMutability":"view"},{"type":"function","name":"exchangeRateCurrent","inputs":[],"outputs":[{"name":"","type":"uint256","internalType":"uint256"}],"stateMutability":"nonpayable"},{"type":"function","name":"exchangeRateStored","inputs":[],"outputs":[{"name":"","type":"uint256","internalType":"uint256"}],"stateMutability":"view"},{"type":"function","name":"flashFee","inputs":[{"name":"token","type":"address","internalType":"address"},{"name":"amount","type":"uint256","internalType":"uint256"}],"outputs":[{"name":"","type":"uint256","internalType":"uint256"}],"stateMutability":"view"},{"type":"function","name":"flashLoan","inputs":[{"name":"receiver","type":"address","internalType":"contract IERC3156FlashBorrower"},{"name":"token","type":"address","internalType":"address"},{"name":"amount","type":"uint256","internalType":"uint256"},{"name":"data","type":"bytes","internalType":"bytes"}],"outputs":[{"name":"","type":"bool","internalType":"bool"}],"stateMutability":"nonpayable"},{"type":"function","name":"flashLoanFeeBps","inputs":[],"outputs":[{"name":"","type":"uint256","internalType":"uint256"}],"stateMutability":"view"},{"type":"function","name":"flashLoansPaused","inputs":[],"outputs":[{"name":"","type":"bool","internalType":"bool"}],"stateMutability":"view"},{"type":"function","name":"getAccountSnapshot","inputs":[{"name":"account","type":"address","internalType":"address"}],"outputs":[{"name":"","type":"uint256","internalType":"uint256"},{"name":"","type":"uint256","internalType":"uint256"},{"name":"","type":"uint256","internalType":"uint256"},{"name":"","type":"uint256","internalType":"uint256"}],"stateMutability":"view"},{"type":"function","name":"getCash","inputs":[],"outputs":[{"name":"","type":"uint256","internalType":"uint256"}],"stateMutability":"view"},{"type":"function","name":"implementation","inputs":[],"outputs":[{"name":"","type":"address","internalType":"address"}],"stateMutability":"view"},{"type":"function","name":"initialize","inputs":[{"name":"underlying_","type":"address","internalType":"address"},{"name":"peridottroller_","type":"address","internalType":"contract PeridottrollerInterface"},{"name":"interestRateModel_","type":"address","internalType":"contract InterestRateModel"},{"name":"initialExchangeRateMantissa_","type":"uint256","internalType":"uint256"},{"name":"name_","type":"string","internalType":"string"},{"name":"symbol_","type":"string","internalType":"string"},{"name":"decimals_","type":"uint8","internalType":"uint8"}],"outputs":[],"stateMutability":"nonpayable"},{"type":"function","name":"initialize","inputs":[{"name":"peridottroller_","type":"address","internalType":"contract PeridottrollerInterface"},{"name":"interestRateModel_","type":"address","internalType":"contract InterestRateModel"},{"name":"initialExchangeRateMantissa_","type":"uint256","internalType":"uint256"},{"name":"name_","type":"string","internalType":"string"},{"name":"symbol_","type":"string","internalType":"string"},{"name":"decimals_","type":"uint8","internalType":"uint8"}],"outputs":[],"stateMutability":"nonpayable"},{"type":"function","name":"interestRateModel","inputs":[],"outputs":[{"name":"","type":"address","internalType":"contract InterestRateModel"}],"stateMutability":"view"},{"type":"function","name":"isPToken","inputs":[],"outputs":[{"name":"","type":"bool","internalType":"bool"}],"stateMutability":"view"},{"type":"function","name":"liquidateBorrow","inputs":[{"name":"borrower","type":"address","internalType":"address"},{"name":"repayAmount","type":"uint256","internalType":"uint256"},{"name":"pTokenCollateral","type":"address","internalType":"contract PTokenInterface"}],"outputs":[{"name":"","type":"uint256","internalType":"uint256"}],"stateMutability":"nonpayable"},{"type":"function","name":"maxFlashLoan","inputs":[{"name":"token","type":"address","internalType":"address"}],"outputs":[{"name":"","type":"uint256","internalType":"uint256"}],"stateMutability":"view"},{"type":"function","name":"maxFlashLoanRatio","inputs":[],"outputs":[{"name":"","type":"uint256","internalType":"uint256"}],"stateMutability":"view"},{"type":"function","name":"mint","inputs":[{"name":"mintAmount","type":"uint256","internalType":"uint256"}],"outputs":[{"name":"","type":"uint256","internalType":"uint256"}],"stateMutability":"nonpayable"},{"type":"function","name":"name","inputs":[],"outputs":[{"name":"","type":"string","internalType":"string"}],"stateMutability":"view"},{"type":"function","name":"pendingAdmin","inputs":[],"outputs":[{"name":"","type":"address","internalType":"address payable"}],"stateMutability":"view"},{"type":"function","name":"peridottroller","inputs":[],"outputs":[{"name":"","type":"address","internalType":"contract PeridottrollerInterface"}],"stateMutability":"view"},{"type":"function","name":"potAddress","inputs":[],"outputs":[{"name":"","type":"address","internalType":"address"}],"stateMutability":"view"},{"type":"function","name":"protocolSeizeShareMantissa","inputs":[],"outputs":[{"name":"","type":"uint256","internalType":"uint256"}],"stateMutability":"view"},{"type":"function","name":"redeem","inputs":[{"name":"redeemTokens","type":"uint256","internalType":"uint256"}],"outputs":[{"name":"","type":"uint256","internalType":"uint256"}],"stateMutability":"nonpayable"},{"type":"function","name":"redeemUnderlying","inputs":[{"name":"redeemAmount","type":"uint256","internalType":"uint256"}],"outputs":[{"name":"","type":"uint256","internalType":"uint256"}],"stateMutability":"nonpayable"},{"type":"function","name":"repayBorrow","inputs":[{"name":"repayAmount","type":"uint256","internalType":"uint256"}],"outputs":[{"name":"","type":"uint256","internalType":"uint256"}],"stateMutability":"nonpayable"},{"type":"function","name":"repayBorrowBehalf","inputs":[{"name":"borrower","type":"address","internalType":"address"},{"name":"repayAmount","type":"uint256","internalType":"uint256"}],"outputs":[{"name":"","type":"uint256","internalType":"uint256"}],"stateMutability":"nonpayable"},{"type":"function","name":"reserveFactorMantissa","inputs":[],"outputs":[{"name":"","type":"uint256","internalType":"uint256"}],"stateMutability":"view"},{"type":"function","name":"seize","inputs":[{"name":"liquidator","type":"address","internalType":"address"},{"name":"borrower","type":"address","internalType":"address"},{"name":"seizeTokens","type":"uint256","internalType":"uint256"}],"outputs":[{"name":"","type":"uint256","internalType":"uint256"}],"stateMutability":"nonpayable"},{"type":"function","name":"supplyRatePerBlock","inputs":[],"outputs":[{"name":"","type":"uint256","internalType":"uint256"}],"stateMutability":"view"},{"type":"function","name":"sweepToken","inputs":[{"name":"token","type":"address","internalType":"contract EIP20NonStandardInterface"}],"outputs":[],"stateMutability":"nonpayable"},{"type":"function","name":"symbol","inputs":[],"outputs":[{"name":"","type":"string","internalType":"string"}],"stateMutability":"view"},{"type":"function","name":"totalBorrows","inputs":[],"outputs":[{"name":"","type":"uint256","internalType":"uint256"}],"stateMutability":"view"},{"type":"function","name":"totalBorrowsCurrent","inputs":[],"outputs":[{"name":"","type":"uint256","internalType":"uint256"}],"stateMutability":"nonpayable"},{"type":"function","name":"totalReserves","inputs":[],"outputs":[{"name":"","type":"uint256","internalType":"uint256"}],"stateMutability":"view"},{"type":"function","name":"totalSupply","inputs":[],"outputs":[{"name":"","type":"uint256","internalType":"uint256"}],"stateMutability":"view"},{"type":"function","name":"transfer","inputs":[{"name":"dst","type":"address","internalType":"address"},{"name":"amount","type":"uint256","internalType":"uint256"}],"outputs":[{"name":"","type":"bool","internalType":"bool"}],"stateMutability":"nonpayable"},{"type":"function","name":"transferFrom","inputs":[{"name":"src","type":"address","internalType":"address"},{"name":"dst","type":"address","internalType":"address"},{"name":"amount","type":"uint256","internalType":"uint256"}],"outputs":[{"name":"","type":"bool","internalType":"bool"}],"stateMutability":"nonpayable"},{"type":"function","name":"underlying","inputs":[],"outputs":[{"name":"","type":"address","internalType":"address"}],"stateMutability":"view"},{"type":"function","name":"vatAddress","inputs":[],"outputs":[{"name":"","type":"address","internalType":"address"}],"stateMutability":"view"},{"type":"event","name":"AccrueInterest","inputs":[{"name":"cashPrior","type":"uint256","indexed":false,"internalType":"uint256"},{"name":"interestAccumulated","type":"uint256","indexed":false,"internalType":"uint256"},{"name":"borrowIndex","type":"uint256","indexed":false,"internalType":"uint256"},{"name":"totalBorrows","type":"uint256","indexed":false,"internalType":"uint256"}],"anonymous":false},{"type":"event","name":"Approval","inputs":[{"name":"owner","type":"address","indexed":true,"internalType":"address"},{"name":"spender","type":"address","indexed":true,"internalType":"address"},{"name":"amount","type":"uint256","indexed":false,"internalType":"uint256"}],"anonymous":false},{"type":"event","name":"Borrow","inputs":[{"name":"borrower","type":"address","indexed":false,"internalType":"address"},{"name":"borrowAmount","type":"uint256","indexed":false,"internalType":"uint256"},{"name":"accountBorrows","type":"uint256","indexed":false,"internalType":"uint256"},{"name":"totalBorrows","type":"uint256","indexed":false,"internalType":"uint256"}],"anonymous":false},{"type":"event","name":"FlashLoan","inputs":[{"name":"receiver","type":"address","indexed":true,"internalType":"address"},{"name":"token","type":"address","indexed":true,"internalType":"address"},{"name":"amount","type":"uint256","indexed":false,"internalType":"uint256"},{"name":"fee","type":"uint256","indexed":false,"internalType":"uint256"}],"anonymous":false},{"type":"event","name":"FlashLoansPaused","inputs":[{"name":"paused","type":"bool","indexed":false,"internalType":"bool"}],"anonymous":false},{"type":"event","name":"LiquidateBorrow","inputs":[{"name":"liquidator","type":"address","indexed":false,"internalType":"address"},{"name":"borrower","type":"address","indexed":false,"internalType":"address"},{"name":"repayAmount","type":"uint256","indexed":false,"internalType":"uint256"},{"name":"pTokenCollateral","type":"address","indexed":false,"internalType":"address"},{"name":"seizeTokens","type":"uint256","indexed":false,"internalType":"uint256"}],"anonymous":false},{"type":"event","name":"Mint","inputs":[{"name":"minter","type":"address","indexed":false,"internalType":"address"},{"name":"mintAmount","type":"uint256","indexed":false,"internalType":"uint256"},{"name":"mintTokens","type":"uint256","indexed":false,"internalType":"uint256"}],"anonymous":false},{"type":"event","name":"NewAdmin","inputs":[{"name":"oldAdmin","type":"address","indexed":false,"internalType":"address"},{"name":"newAdmin","type":"address","indexed":false,"internalType":"address"}],"anonymous":false},{"type":"event","name":"NewFlashLoanFee","inputs":[{"name":"oldFeeBps","type":"uint256","indexed":false,"internalType":"uint256"},{"name":"newFeeBps","type":"uint256","indexed":false,"internalType":"uint256"}],"anonymous":false},{"type":"event","name":"NewMarketInterestRateModel","inputs":[{"name":"oldInterestRateModel","type":"address","indexed":false,"internalType":"contract InterestRateModel"},{"name":"newInterestRateModel","type":"address","indexed":false,"internalType":"contract InterestRateModel"}],"anonymous":false},{"type":"event","name":"NewMaxFlashLoanRatio","inputs":[{"name":"oldMaxRatio","type":"uint256","indexed":false,"internalType":"uint256"},{"name":"newMaxRatio","type":"uint256","indexed":false,"internalType":"uint256"}],"anonymous":false},{"type":"event","name":"NewPendingAdmin","inputs":[{"name":"oldPendingAdmin","type":"address","indexed":false,"internalType":"address"},{"name":"newPendingAdmin","type":"address","indexed":false,"internalType":"address"}],"anonymous":false},{"type":"event","name":"NewPeridottroller","inputs":[{"name":"oldPeridottroller","type":"address","indexed":false,"internalType":"contract PeridottrollerInterface"},{"name":"newPeridottroller","type":"address","indexed":false,"internalType":"contract PeridottrollerInterface"}],"anonymous":false},{"type":"event","name":"NewReserveFactor","inputs":[{"name":"oldReserveFactorMantissa","type":"uint256","indexed":false,"internalType":"uint256"},{"name":"newReserveFactorMantissa","type":"uint256","indexed":false,"internalType":"uint256"}],"anonymous":false},{"type":"event","name":"Redeem","inputs":[{"name":"redeemer","type":"address","indexed":false,"internalType":"address"},{"name":"redeemAmount","type":"uint256","indexed":false,"internalType":"uint256"},{"name":"redeemTokens","type":"uint256","indexed":false,"internalType":"uint256"}],"anonymous":false},{"type":"event","name":"RepayBorrow","inputs":[{"name":"payer","type":"address","indexed":false,"internalType":"address"},{"name":"borrower","type":"address","indexed":false,"internalType":"address"},{"name":"repayAmount","type":"uint256","indexed":false,"internalType":"uint256"},{"name":"accountBorrows","type":"uint256","indexed":false,"internalType":"uint256"},{"name":"totalBorrows","type":"uint256","indexed":false,"internalType":"uint256"}],"anonymous":false},{"type":"event","name":"ReservesAdded","inputs":[{"name":"benefactor","type":"address","indexed":false,"internalType":"address"},{"name":"addAmount","type":"uint256","indexed":false,"internalType":"uint256"},{"name":"newTotalReserves","type":"uint256","indexed":false,"internalType":"uint256"}],"anonymous":false},{"type":"event","name":"ReservesReduced","inputs":[{"name":"admin","type":"address","indexed":false,"internalType":"address"},{"name":"reduceAmount","type":"uint256","indexed":false,"internalType":"uint256"},{"name":"newTotalReserves","type":"uint256","indexed":false,"internalType":"uint256"}],"anonymous":false},{"type":"event","name":"Transfer","inputs":[{"name":"from","type":"address","indexed":true,"internalType":"address"},{"name":"to","type":"address","indexed":true,"internalType":"address"},{"name":"amount","type":"uint256","indexed":false,"internalType":"uint256"}],"anonymous":false},{"type":"error","name":"AcceptAdminPendingAdminCheck","inputs":[]},{"type":"error","name":"AddReservesFactorFreshCheck","inputs":[{"name":"actualAddAmount","type":"uint256","internalType":"uint256"}]},{"type":"error","name":"BorrowCashNotAvailable","inputs":[]},{"type":"error","name":"BorrowFreshnessCheck","inputs":[]},{"type":"error","name":"BorrowPeridottrollerRejection","inputs":[{"name":"errorCode","type":"uint256","internalType":"uint256"}]},{"type":"error","name":"LiquidateAccrueBorrowInterestFailed","inputs":[{"name":"errorCode","type":"uint256","internalType":"uint256"}]},{"type":"error","name":"LiquidateAccrueCollateralInterestFailed","inputs":[{"name":"errorCode","type":"uint256","internalType":"uint256"}]},{"type":"error","name":"LiquidateCloseAmountIsUintMax","inputs":[]},{"type":"error","name":"LiquidateCloseAmountIsZero","inputs":[]},{"type":"error","name":"LiquidateCollateralFreshnessCheck","inputs":[]},{"type":"error","name":"LiquidateFreshnessCheck","inputs":[]},{"type":"error","name":"LiquidateLiquidatorIsBorrower","inputs":[]},{"type":"error","name":"LiquidatePeridottrollerRejection","inputs":[{"name":"errorCode","type":"uint256","internalType":"uint256"}]},{"type":"error","name":"LiquidateRepayBorrowFreshFailed","inputs":[{"name":"errorCode","type":"uint256","internalType":"uint256"}]},{"type":"error","name":"LiquidateSeizeLiquidatorIsBorrower","inputs":[]},{"type":"error","name":"LiquidateSeizePeridottrollerRejection","inputs":[{"name":"errorCode","type":"uint256","internalType":"uint256"}]},{"type":"error","name":"MintFreshnessCheck","inputs":[]},{"type":"error","name":"MintPeridottrollerRejection","inputs":[{"name":"errorCode","type":"uint256","internalType":"uint256"}]},{"type":"error","name":"RedeemFreshnessCheck","inputs":[]},{"type":"error","name":"RedeemPeridottrollerRejection","inputs":[{"name":"errorCode","type":"uint256","internalType":"uint256"}]},{"type":"error","name":"RedeemTransferOutNotPossible","inputs":[]},{"type":"error","name":"ReduceReservesAdminCheck","inputs":[]},{"type":"error","name":"ReduceReservesCashNotAvailable","inputs":[]},{"type":"error","name":"ReduceReservesCashValidation","inputs":[]},{"type":"error","name":"ReduceReservesFreshCheck","inputs":[]},{"type":"error","name":"RepayBorrowFreshnessCheck","inputs":[]},{"type":"error","name":"RepayBorrowPeridottrollerRejection","inputs":[{"name":"errorCode","type":"uint256","internalType":"uint256"}]},{"type":"error","name":"SetInterestRateModelFreshCheck","inputs":[]},{"type":"error","name":"SetInterestRateModelOwnerCheck","inputs":[]},{"type":"error","name":"SetPendingAdminOwnerCheck","inputs":[]},{"type":"error","name":"SetPeridottrollerOwnerCheck","inputs":[]},{"type":"error","name":"SetReserveFactorAdminCheck","inputs":[]},{"type":"error","name":"SetReserveFactorBoundsCheck","inputs":[]},{"type":"error","name":"SetReserveFactorFreshCheck","inputs":[]},{"type":"error","name":"TransferNotAllowed","inputs":[]},{"type":"error","name":"TransferNotEnough","inputs":[]},{"type":"error","name":"TransferPeridottrollerRejection","inputs":[{"name":"errorCode","type":"uint256","internalType":"uint256"}]},{"type":"error","name":"TransferTooMuch","inputs":[]}],"bytecode":{"object":"0x60808060405234601557614bad908161001a8239f35b5f80fdfe60806040526004361015610011575f80fd5b5f5f3560e01c806306fdde0314612fda578063095ea7b314612f615780630e75270214612f105780630ed14e6314612ef3578063153ab50514612cb3578063173b990414612c9557806317bfdfbc14612c3f57806318160ddd14612c21578063182df0f514612c065780631a31d46514612af55780631be195601461293a57806323b872dd1461290a5780632608f818146128af5780632678224714612886578063313ce567146128655780633af9e669146127fe5780633b1d21a2146127e35780633e9410101461273a57806347bd37181461271c57806356e677281461233b5780635a890c0e1461231f5780635c60da1b146122f65780635cffe9de14611ec6578063601a0bf114611da2578063613255ab14611d7e57806366ced60214611d555780636752e70214611d3357806369ab325014611d175780636c540baf14611cf95780636f307dc314611ccc57806370a0823114611c9357806373acee9814611c4b578063852a12e314611a1a5780638a8df2e6146119f15780638d925ccd146119c85780638f840ddd146119aa57806395d89b41146118de57806395dd9193146118ba57806399d8c1b4146118305780639b503bae1461180d578063a0712d6814611669578063a252d8be14611573578063a6afed9514611558578063a9059cbb14611504578063aa5af0fd146114e6578063ae9d70b014611480578063b2a02ff11461143d578063b71d1a0c1461138e578063bd6d894d14611373578063c0c7347e14611355578063c37f68e2146112f8578063c3b68700146111e9578063c423fe29146111c0578063c53d59d9146110b8578063c5ebeaec14610f26578063d5c6d3bd14610f02578063d9d98ce414610eb0578063db006a7514610be3578063dcef7fbd14610baf578063dd62ed3e14610b5c578063e9c714f214610a63578063f2b3abbd14610a2e578063f3fdb15a14610a05578063f5e3c462146104c5578063f851a44014610498578063f8f9da28146103d55763fca7820b146102fb575f80fd5b346103d25760203660031901126103d25760043590805461031e60ff821661323c565b60ff1916815561032c6137da565b5060035460081c6001600160a01b031633036103c35760095443036103b457670de0b6b3a764000082116103a5577faaa68312e2ea9d50e16af5068410ab56e1a1fd06037b1a35664812c30f82146060406020936008549080600855825191825285820152a1805460ff19166001178155604051908152f35b63717220f360e11b8152600490fd5b637dfca6b760e11b8152600490fd5b631205b57b60e11b8152600490fd5b80fd5b50346103d257806003193601126103d25760065461043991906020906001600160a01b0316610402613ca2565b600b54600c546040516315f2405360e01b815260048101939093526024830191909152604482015293849190829081906064820190565b03915afa90811561048c5790610455575b602090604051908152f35b506020813d602011610484575b8161046f602093836130f9565b81010312610480576020905161044a565b5f80fd5b3d9150610462565b604051903d90823e3d90fd5b50346103d257806003193601126103d25760035460405160089190911c6001600160a01b03168152602090f35b50346103d25760603660031901126103d2576104df613145565b906024356044356001600160a01b03811690819003610a0157825461050660ff821661323c565b60ff191683556105146137da565b5060405163a6afed9560e01b815260208160048187865af190811561095f5784916109cf575b50806109bd5750600554604051632fe3f38f60e11b81523060048201526001600160a01b0383811660248301523360448301528681166064830152608482018590529091602091839160a49183918991165af190811561095f57849161098b575b50806109795750600954430361096a57604051636c540baf60e01b8152602081600481855afa90811561095f57849161092d575b50430361091e576001600160a01b0384169133831461090f578015610900575f1981146108f157610601908533614439565b6005546040805163c488847b60e01b8152969187906001600160a01b03168180610630878930600485016145d6565b03915afa9586156107c257859086976108b3575b50610852576040516370a0823160e01b815260048101859052602081602481875afa908115610847579087918791610812575b50106107cd573083036106e7579460a0927f298637f684da70674f26509b10f07ec2fbc77a335ab1e7d6215a4b2484d8bb5294926106b983602099333061422f565b6040519333855288850152604084015260608301526080820152a1805460ff19166001178155604051908152f35b60208661070e9260409694959651938492839263b2a02ff160e01b845233600485016145d6565b038188885af19081156107c2578591610790575b50610754576020947f298637f684da70674f26509b10f07ec2fbc77a335ab1e7d6215a4b2484d8bb529360a0936106b9565b60405162461bcd60e51b81526020600482015260146024820152731d1bdad95b881cd95a5e9d5c994819985a5b195960621b6044820152606490fd5b90506020813d6020116107ba575b816107ab602093836130f9565b8101031261048057515f610722565b3d915061079e565b6040513d87823e3d90fd5b60405162461bcd60e51b815260206004820152601860248201527f4c49515549444154455f5345495a455f544f4f5f4d55434800000000000000006044820152606490fd5b9150506020813d60201161083f575b8161082e602093836130f9565b81010312610480578690515f610677565b3d9150610821565b6040513d88823e3d90fd5b60405162461bcd60e51b815260206004820152603360248201527f4c49515549444154455f434f4d5054524f4c4c45525f43414c43554c4154455f604482015272105353d5539517d4d152569157d19052531151606a1b6064820152608490fd5b9650506040863d6040116108e9575b816108cf604093836130f9565b810103126108e55760208651960151955f610644565b8480fd5b3d91506108c2565b635982c5bb60e11b8452600484fd5b63d29da7ef60e01b8452600484fd5b631bd1a62160e21b8452600484fd5b631046f38d60e31b8352600483fd5b90506020813d602011610957575b81610948602093836130f9565b8101031261048057515f6105cf565b3d915061093b565b6040513d86823e3d90fd5b6380965b1b60e01b8352600483fd5b632d33e4f360e21b8452600452602483fd5b90506020813d6020116109b5575b816109a6602093836130f9565b8101031261048057515f61059b565b3d9150610999565b633eea49b760e11b8452600452602483fd5b90506020813d6020116109f9575b816109ea602093836130f9565b8101031261048057515f61053a565b3d91506109dd565b8280fd5b50346103d257806003193601126103d2576006546040516001600160a01b039091168152602090f35b50346103d25760203660031901126103d2576020610a5b610a4d613145565b610a556137da565b50613fab565b604051908152f35b50346103d257806003193601126103d2576004546001600160a01b0381169190338314801590610b54575b610b455760038054610100600160a81b03600884811b91909116610100600160a81b0319831617928390556001600160a01b0319909316600455604080516001600160a01b0392851c831681529290931c16602080830191909152937fca4f2f25d0898edd99413412fb94012f9e54ec8142f9b093e7720646a95b16a992917ff9ffabca9c8276e99321725bcb43fb076a6c66a54b7f21c4e8146d8519b417dc908390a181519081528385820152a1604051908152f35b631ba24f2960e21b8252600482fd5b503315610a8e565b50346103d25760403660031901126103d2576040610b78613145565b91610b8161315b565b9260018060a01b03168152600f602052209060018060a01b03165f52602052602060405f2054604051908152f35b50346103d25760203660031901126103d2576004359081151582036103d2576020610bd9836139b8565b6040519015158152f35b50346103d25760203660031901126103d2576004358154610c0660ff821661323c565b60ff19168255610c146137da565b5080159081159182610ea8575b15610e4657610c2e613aae565b9160405192610c3c846130c9565b835215610e3457610c5781670de0b6b3a764000092936145ab565b5104905b60055460405163eabe7d9160e01b81529060209082906001600160a01b0316818781610c8c883330600485016145d6565b03925af190811561095f578491610e02575b5080610df057506009544303610de15781610cb7613ca2565b10610dd25780610cca8492600d54613aa1565b600d55338252600e602052610ce3816040842054613aa1565b338352600e6020526040832055610cfa8333613de1565b60405181815230905f516020614b385f395f51905f5260203392a360408051338152602081018590529081018290527fe5b754fb1abb7f01b499791d0b820ae3b6af3424ac1c59768edb53f4ec31a92990606090a16005546001600160a01b031692833b15610a01576084908360405195869485936351dff98960e01b8552306004860152336024860152604485015260648401525af18015610dc757610db2575b815460ff19166001178255604051828152602090f35b610dbd8280926130f9565b6103d2575f610d9c565b6040513d84823e3d90fd5b6391240a1b60e01b8352600483fd5b6397b5cfcd60e01b8352600483fd5b635bd5f7ab60e11b8452600452602483fd5b90506020813d602011610e2c575b81610e1d602093836130f9565b8101031261048057515f610c9e565b3d9150610e10565b50610e3f9082614aeb565b8190610c5b565b60405162461bcd60e51b815260206004820152603460248201527f6f6e65206f662072656465656d546f6b656e73496e206f722072656465656d416044820152736d6f756e74496e206d757374206265207a65726f60601b6064820152608490fd5b506001610c21565b50346103d25760403660031901126103d257610ee6610ecd613145565b60135460081c6001600160a01b03908116911614613289565b6020612710610ef96011546024356132d5565b04604051908152f35b50346103d25760203660031901126103d2576020610a5b610f21613145565b6138dc565b50346103d25760203660031901126103d257600435908054610f4a60ff821661323c565b60ff19168155610f586137da565b5060055460405163368f515360e21b81529060209082906001600160a01b0316818581610f8a893330600485016145d6565b03925af1908115610dc7578291611086575b5080611073575060095443036110645781610fb5613ca2565b10611055577f13ed6866d4e1ee6da46f845c46d7e54120883d75c5ea9a2dacc1c4ca8984ab80608083610ff2602095610fed33613f6b565b6132fc565b610ffe82600b546132fc565b9033865260108752806040872055600a5433875260108852600160408820015581600b5561102c8333613de1565b604051923384528784015260408301526060820152a1805460ff19166001178155604051908152f35b6348c2588160e01b8152600490fd5b630e8d8c6160e21b8152600490fd5b635684deff60e11b825260045260249150fd5b90506020813d6020116110b0575b816110a1602093836130f9565b8101031261048057515f610f9c565b3d9150611094565b50346103d25760203660031901126103d257600354600435919060081c6001600160a01b03163303611171576064821161112c577f2cd87d6d243502fbf87bd7dd851659e05ac6a614994d7f04592e4f173f93978360406020936011549080601155825191825285820152a1604051908152f35b60405162461bcd60e51b815260206004820152601760248201527f466c617368206c6f616e2066656520746f6f20686967680000000000000000006044820152606490fd5b60405162461bcd60e51b815260206004820152602160248201527f4f6e6c792061646d696e2063616e2073657420666c617368206c6f616e2066656044820152606560f81b6064820152608490fd5b50346103d257806003193601126103d2576005546040516001600160a01b039091168152602090f35b50346103d25760203660031901126103d257600354600435919060081c6001600160a01b031633036112a357612710821161125e577f84e3f33c20d693ca1e98ee0ab87bf817997a96baa0819ed94c5b96f4a6663f1360406020936012549080601255825191825285820152a1604051908152f35b60405162461bcd60e51b815260206004820152601960248201527f466c617368206c6f616e20726174696f20746f6f2068696768000000000000006044820152606490fd5b60405162461bcd60e51b815260206004820152602760248201527f4f6e6c792061646d696e2063616e20736574206d617820666c617368206c6f616044820152666e20726174696f60c81b6064820152608490fd5b50346103d25760203660031901126103d257608090611315613145565b6001600160a01b0381168252600e60205260408220549061133590613f6b565b61133d613aae565b91604051938452602084015260408301526060820152f35b50346103d257806003193601126103d2576020601154604051908152f35b50346103d257806003193601126103d2576020610a5b613845565b50346103d25760203660031901126103d257600435906001600160a01b0382168083036114395760035460081c6001600160a01b0316330361142a57600480546001600160a01b03198116929092179055604080516001600160a01b03928316815293909116602080850191909152927fca4f2f25d0898edd99413412fb94012f9e54ec8142f9b093e7720646a95b16a99190a1604051908152f35b635cb56c2b60e01b8252600482fd5b5080fd5b50346103d25760209061146d611452366131d5565b91845461146160ff821661323c565b60ff191685553361422f565b805460ff19166001178155604051908152f35b50346103d257806003193601126103d2576006546001600160a01b03169060206114a8613ca2565b600b54600c54600854604051635c0b440b60e11b81526004810194909452602484019290925260448301526064820152928390818060848101610439565b50346103d257806003193601126103d2576020600a54604051908152f35b50346103d25760403660031901126103d257602090611543611524613145565b825461153260ff821661323c565b60ff19168355602435903380613b08565b815460ff191660011790915560405190158152f35b50346103d257806003193601126103d2576020610a5b6137da565b50346103d25760203660031901126103d25761158d613145565b60035460081c6001600160a01b0316330361160b57601354829160089190911c6001600160a01b031690813b15611607576040516317066a5760e21b81526001600160a01b0390911660048201529082908290602490829084905af18015610dc7576115f65750f35b81611600916130f9565b6103d25780f35b5050fd5b60405162461bcd60e51b815260206004820152603060248201527f6f6e6c79207468652061646d696e206d6179207365742074686520706572696460448201526f6f742d6c696b652064656c656761746560801b6064820152608490fd5b50346103d25760203660031901126103d25760043590805461168d60ff821661323c565b60ff1916815561169b6137da565b50600554604051634ef4c3e160e01b81529060209082906001600160a01b03168185816116cd893330600485016145d6565b03925af1908115610dc75782916117db575b50806117c8575060095443036117b9576020917f4c209b5fc8ad50758f13e2e1088ba56a560dff690a1c6fef26394f4c03821c4f61173e611737611721613aae565b936040519461172f866130c9565b85523361489c565b9283614aeb565b809261174c82600d546132fc565b600d55338552600e86526117648260408720546132fc565b33808752600e885260408088209290925581519081526020810192909252810191909152606090a160405190815233905f516020614b385f395f51905f52843092a3805460ff19166001178155604051908152f35b6338d8859760e01b8152600490fd5b6303171a8760e61b825260045260249150fd5b90506020813d602011611805575b816117f6602093836130f9565b8101031261048057515f6116df565b3d91506117e9565b50346103d257806003193601126103d257602060ff601354166040519015158152f35b50346103d25760c03660031901126103d25761184a613145565b61185261315b565b9060643567ffffffffffffffff81116118b6576118739036906004016131b7565b60843567ffffffffffffffff81116108e5576118939036906004016131b7565b9060a4359260ff841684036118b2576118af946044359161334e565b80f35b8580fd5b8380fd5b50346103d25760203660031901126103d2576020610a5b6118d9613145565b613f6b565b50346103d257806003193601126103d25760405190806002549061190182613091565b80855291600181169081156119835750600114611939575b61193584611929818603826130f9565b6040519182918261311b565b0390f35b600281525f516020614b185f395f51905f52939250905b8082106119695750909150810160200161192982611919565b919260018160209254838588010152019101909291611950565b60ff191660208087019190915292151560051b850190920192506119299150839050611919565b50346103d257806003193601126103d2576020600c54604051908152f35b50346103d257806003193601126103d2576017546040516001600160a01b039091168152602090f35b50346103d257806003193601126103d2576015546040516001600160a01b039091168152602090f35b50346103d25760203660031901126103d257600435908054611a3e60ff821661323c565b60ff19168155611a4c6137da565b5080610e4657611a72611a5d613aae565b60405190611a6a826130c9565b815283614aeb565b60055460405163eabe7d9160e01b81529193919060209082906001600160a01b0316815f81611aa68a3330600485016145d6565b03925af1908115611bde575f91611c19575b5080611c0757506009544303611bf85780611ad1613ca2565b10611be957611ae283600d54613aa1565b600d55335f52600e602052611afb8360405f2054613aa1565b335f52600e60205260405f2055611b128133613de1565b60405183815230905f516020614b385f395f51905f5260203392a360408051338152602081018390529081018490527fe5b754fb1abb7f01b499791d0b820ae3b6af3424ac1c59768edb53f4ec31a92990606090a16005546001600160a01b031692833b156104805760845f928360405196879485936351dff98960e01b8552306004860152336024860152604485015260648401525af18015611bde57611bcb575b805460ff19166001178155604051908152602090f35b505f611bd6916130f9565b60205f611bb5565b6040513d5f823e3d90fd5b6391240a1b60e01b5f5260045ffd5b6397b5cfcd60e01b5f5260045ffd5b635bd5f7ab60e11b5f5260045260245ffd5b90506020813d602011611c43575b81611c34602093836130f9565b8101031261048057515f611ab8565b3d9150611c27565b50346103d257806003193601126103d2578060209154611c6d60ff821661323c565b60ff19168155611c7b6137da565b50600b54815460ff1916600117909155604051908152f35b50346103d25760203660031901126103d2576020906040906001600160a01b03611cbb613145565b168152600e83522054604051908152f35b50346103d257806003193601126103d25760135460405160089190911c6001600160a01b03168152602090f35b50346103d257806003193601126103d2576020600954604051908152f35b50346103d257806003193601126103d257602090604051908152f35b50346103d257806003193601126103d2576020604051666379da05b600008152f35b50346103d257806003193601126103d2576016546040516001600160a01b039091168152602090f35b50346103d25760203660031901126103d2576020610a5b611d9d613145565b613309565b50346103d25760203660031901126103d257600435908054611dc660ff821661323c565b60ff19168155611dd46137da565b5060035460081c6001600160a01b031633819003611eb7576009544303611ea85782611dfe613ca2565b10611e9957600c54808411611e8a57927f3bad0c59cf2f06e7314077049f48a93578cd16f5ef92329f1dab1420a99c177e91611e4a82611e4081602098613aa1565b9283600c55613de1565b6003546040805160089290921c6001600160a01b0316825260208201939093529182015280606081015b0390a1805460ff19166001178155604051908152f35b6378d2980560e11b8352600483fd5b633345e99960e01b8252600482fd5b630dff50cb60e41b8252600482fd5b630f7e5e6d60e41b8252600482fd5b50346103d25760803660031901126103d2576004356001600160a01b0381169081900361143957611ef561315b565b9060443560643567ffffffffffffffff81116108e557366023820112156108e55780600401359067ffffffffffffffff82116118b25736602483830101116118b2578554611f4560ff821661323c565b60ff191686556013546001600160a01b039586169560ff9190611f6f90600883901c168814613289565b166122a75760405163613255ab60e01b815260048101869052602081602481305afa9081156121cc578791612275575b50831161222657612710611fb5601154856132d5565b0491611fbf6137da565b50611fc8613ca2565b918483106121d757602460c4602092611fe1888a613de1565b8460405195869485936323e30c8b60e01b85523360048601528d828601528b60448601528a606486015260a060848601528260a4860152018484013781810183018c9052601f01601f191681010301818a895af180156121cc578790612176575b7f439148f0bbc682ca079e46d6e2c2f0c1e3b820f1a291b069d8882abf8cf18dd99150036121265761207c82612076613ca2565b926132fc565b116120e1577f0d7d75e01ab95780d3cd1c8ec0dd6c2ce19e3a20427eec8bf53283b6fb8e95f091816040926120cd575b82519182526020820152a3600160ff19825416179055602060405160018152f35b6120d981600c546132fc565b600c556120ac565b60405162461bcd60e51b815260206004820152601a60248201527f466c6173684c6f616e3a206c6f616e206e6f74207265706169640000000000006044820152606490fd5b60405162461bcd60e51b815260206004820152602260248201527f466c6173684c6f616e3a20696e76616c69642063616c6c6261636b2072657475604482015261393760f11b6064820152608490fd5b506020813d6020116121c4575b81612190602093836130f9565b810103126121c0577f439148f0bbc682ca079e46d6e2c2f0c1e3b820f1a291b069d8882abf8cf18dd99051612042565b8680fd5b3d9150612183565b6040513d89823e3d90fd5b60405162461bcd60e51b815260206004820152602160248201527f466c6173684c6f616e3a20696e73756666696369656e74206c697175696469746044820152607960f81b6064820152608490fd5b60405162461bcd60e51b815260206004820152602160248201527f466c6173684c6f616e3a20616d6f756e742065786365656473206d6178696d756044820152606d60f81b6064820152608490fd5b90506020813d60201161229f575b81612290602093836130f9565b8101031261048057515f611f9f565b3d9150612283565b60405162461bcd60e51b815260206004820152602160248201527f466c6173684c6f616e3a20666c617368206c6f616e73206172652070617573656044820152601960fa1b6064820152608490fd5b50346103d257806003193601126103d2576014546040516001600160a01b039091168152602090f35b50346103d257806003193601126103d257602060405160018152f35b50346103d25760203660031901126103d25760043567ffffffffffffffff811161143957366023820112156114395761237e903690602481600401359101613171565b60035460081c6001600160a01b031633036126be57604081805181010312611439576123b860406123b160208401613275565b9201613275565b60405163f4b9fa7560e01b8152916001600160a01b03918216911660208360048187855af192831561095f57849361267a575b506040516336569e7760e01b81529260208460048188865af19384156107c2578594612636575b506013546001600160a01b039182169160089190911c1681036125e6578493826001600160601b0360a01b6015541617601555836001600160601b0360a01b601654161760165560018060a01b031691826001600160601b0360a01b6017541617601755813b156108e557849160448392604051948593849263095ea7b360e01b845260048401525f1960248401525af190811561095f5784916125d1575b50506016546001600160a01b0316813b156125b757604051906328ec8bf160e21b82526004820152838160248183865af190811561095f5784916125bc575b50506015546001600160a01b0316813b156125b75783916024839260405194859384926328ec8bf160e21b845260048401525af19081156125ac578391612594575b5050602090600460405180948193634fb3c66560e11b83525af18015610dc757612565575b50612561306145f8565b5080f35b6020813d60201161258c575b8161257e602093836130f9565b810103126104805751612557565b3d9150612571565b8161259e916130f9565b6125a957815f612532565b50fd5b6040513d85823e3d90fd5b505050fd5b816125c6916130f9565b61160757825f6124f0565b816125db916130f9565b61160757825f6124b1565b60405162461bcd60e51b815260206004820152602260248201527f444149206d757374206265207468652073616d6520617320756e6465726c79696044820152616e6760f01b6064820152608490fd5b9093506020813d602011612672575b81612652602093836130f9565b810103126108e557516001600160a01b03811681036108e557925f612412565b3d9150612645565b9092506020813d6020116126b6575b81612696602093836130f9565b810103126118b657516001600160a01b03811681036118b657915f6123eb565b3d9150612689565b60405162461bcd60e51b815260206004820152603060248201527f6f6e6c79207468652061646d696e206d617920696e697469616c697a6520746860448201526f329034b6b83632b6b2b73a30ba34b7b760811b6064820152608490fd5b50346103d257806003193601126103d2576020600b54604051908152f35b50346103d25760203660031901126103d257805461275a60ff821661323c565b60ff191681556127686137da565b5060095443036127cf576020907fa91e67c5ea634cd43a12c5a482724b03de01e85ca68702a53d0c2f45cb7c1dc56127a26004353361489c565b6127ae81600c546132fc565b600c8190556040805133815260208101939093528201528060608101611e74565b6338acf79960e01b81526004819052602490fd5b50346103d257806003193601126103d2576020610a5b613ca2565b50346103d25760203660031901126103d257670de0b6b3a7640000602091612859612827613145565b61282f613845565b906040519161283d836130c9565b82526001600160a01b03168352600e85526040832054906145ab565b90505104604051908152f35b50346103d257806003193601126103d257602060ff60035416604051908152f35b50346103d257806003193601126103d2576004546040516001600160a01b039091168152602090f35b50346103d25760403660031901126103d2576020906128f66128cf613145565b82546128dd60ff821661323c565b60ff191683556128eb6137da565b506024359033614439565b50805460ff19166001178155604051908152f35b50346103d25760209061154361291f366131d5565b91845461292e60ff821661323c565b60ff1916855533613b08565b50346103d25760203660031901126103d2576004356001600160a01b038116908190036114395760035460081c6001600160a01b03169033829003612a985760135460081c6001600160a01b03168114612a38576040516370a0823160e01b8152306004820152839290602081602481865afa90811561095f578491612a03575b50823b156125b75760405163a9059cbb60e01b81526001600160a01b03909216600483015260248201529082908290818381604481015b03925af18015610dc7576115f65750f35b9350506020833d602011612a30575b81612a1f602093836130f9565b81010312610480578392515f6129bb565b3d9150612a12565b60405162461bcd60e51b815260206004820152603260248201527f5045726332303a3a7377656570546f6b656e3a2063616e206e6f74207377656560448201527138103ab73232b9363cb4b733903a37b5b2b760711b6064820152608490fd5b60405162461bcd60e51b815260206004820152602f60248201527f5045726332303a3a7377656570546f6b656e3a206f6e6c792061646d696e206360448201526e616e20737765657020746f6b656e7360881b6064820152608490fd5b50346103d25760e03660031901126103d257612b0f613145565b612b1761315b565b604435916001600160a01b03831683036118b65760843567ffffffffffffffff81116108e557612b4b9036906004016131b7565b9260a43567ffffffffffffffff81116118b257612b6c9036906004016131b7565b60c4359060ff821682036121c057600495602095612b8d946064359161334e565b60138054610100600160a81b031916600892831b610100600160a81b031617908190556040516318160ddd60e01b8152938492909183911c6001600160a01b03165afa8015610dc757612bde575080f35b6125619060203d602011612bff575b612bf781836130f9565b81019061320f565b503d612bed565b50346103d257806003193601126103d2576020610a5b613aae565b50346103d257806003193601126103d2576020600d54604051908152f35b50346103d25760203660031901126103d257602090612c81612c5f613145565b8254612c6d60ff821661323c565b60ff19168355612c7b6137da565b50613f6b565b815460ff1916600117909155604051908152f35b50346103d257806003193601126103d2576020600854604051908152f35b5034610480575f3660031901126104805760035460081c6001600160a01b03163303612e9857601554601654601754604051634fb3c66560e11b81526001600160a01b039384169391821692909116906020816004815f865af18015611bde57612e69575b506040516305f5d64360e11b8152306004820152602081602481855afa908115611bde575f91612e37575b50813b15610480575f91602483926040519485938492637f8661a160e01b845260048401525af18015611bde57612e1b575b508291602060249260405193848092633612d9a360e11b82523060048301525afa9182156125ac578392612de4575b50803b156116075760405163ef693bed60e01b81523060048201526b033b2e3c9fd0803ce8000000909204602483015282908290818381604481016129f2565b925090506020823d602011612e13575b81612e01602093836130f9565b8101031261048057829151905f612da4565b3d9150612df4565b6020935091612e2d5f602493946130f9565b5f93509190612d75565b90506020813d602011612e61575b81612e52602093836130f9565b8101031261048057515f612d43565b3d9150612e45565b6020813d602011612e90575b81612e82602093836130f9565b810103126104805751612d18565b3d9150612e75565b60405162461bcd60e51b815260206004820152602d60248201527f6f6e6c79207468652061646d696e206d6179206162616e646f6e20746865206960448201526c36b83632b6b2b73a30ba34b7b760991b6064820152608490fd5b34610480575f366003190112610480576020601254604051908152f35b34610480576020366003190112610480575f54612f2f60ff821661323c565b60ff19165f55612f3d6137da565b50612f4b6004353333614439565b50600160ff195f5416175f5560206040515f8152f35b3461048057604036600319011261048057612f7a613145565b335f818152600f602090815260408083206001600160a01b03909516808452948252918290206024359081905591519182527f8c5be1e5ebec7d5bd14f71427d1e84f3dd0314c0f7b2291e5b200ac8c7c3b92591a3602060405160018152f35b34610480575f366003190112610480576040515f600154612ffa81613091565b808452906001811690811561306d5750600114613022575b61193583611929818503826130f9565b60015f9081525f516020614b585f395f51905f52939250905b80821061305357509091508101602001611929613012565b91926001816020925483858801015201910190929161303b565b60ff191660208086019190915291151560051b840190910191506119299050613012565b90600182811c921680156130bf575b60208310146130ab57565b634e487b7160e01b5f52602260045260245ffd5b91607f16916130a0565b6020810190811067ffffffffffffffff8211176130e557604052565b634e487b7160e01b5f52604160045260245ffd5b90601f8019910116810190811067ffffffffffffffff8211176130e557604052565b602060409281835280519182918282860152018484015e5f828201840152601f01601f1916010190565b600435906001600160a01b038216820361048057565b602435906001600160a01b038216820361048057565b92919267ffffffffffffffff82116130e5576040519161319b601f8201601f1916602001846130f9565b829481845281830111610480578281602093845f960137010152565b9080601f83011215610480578160206131d293359101613171565b90565b6060906003190112610480576004356001600160a01b038116810361048057906024356001600160a01b0381168103610480579060443590565b90816020910312610480575190565b8115613228570490565b634e487b7160e01b5f52601260045260245ffd5b1561324357565b60405162461bcd60e51b815260206004820152600a6024820152691c994b595b9d195c995960b21b6044820152606490fd5b51906001600160a01b038216820361048057565b1561329057565b60405162461bcd60e51b815260206004820152601e60248201527f466c6173684c6f616e3a20746f6b656e206e6f7420737570706f7274656400006044820152606490fd5b818102929181159184041417156132e857565b634e487b7160e01b5f52601160045260245ffd5b919082018092116132e857565b601354906001600160a01b03600883901c81169116036133495760ff1661334557612710613341613338613ca2565b601254906132d5565b0490565b5f90565b505f90565b60035493969594939192909160081c6001600160a01b0316330361378957600954158061377f575b1561372e5780600755156136d05761338d906138dc565b61368b576133aa9043600955670de0b6b3a7640000600a55613fab565b61363b57835167ffffffffffffffff81116130e5576133ca600154613091565b601f81116135d3575b50602094601f8211600114613565579481929394955f9261355a575b50508160011b915f199060031b1c1916176001555b80519067ffffffffffffffff82116130e557613421600254613091565b601f81116134f2575b50602090601f831160011461347f5760ff9392915f9183613474575b50508160011b915f199060031b1c1916176002555b1660ff196003541617600355600160ff195f5416175f55565b015190505f80613446565b90601f1983169160025f525f516020614b185f395f51905f52925f5b8181106134da575091600193918560ff979694106134c2575b505050811b0160025561345b565b01515f1960f88460031b161c191690555f80806134b4565b9293602060018192878601518155019501930161349b565b60025f52601f830160051c5f516020614b185f395f51905f52019060208410613545575b601f0160051c5f516020614b185f395f51905f5201905b81811061353a575061342a565b5f815560010161352d565b5f516020614b185f395f51905f529150613516565b015190505f806133ef565b601f1982169560015f525f516020614b585f395f51905f52915f5b8881106135bb575083600195969798106135a3575b505050811b01600155613404565b01515f1960f88460031b161c191690555f8080613595565b91926020600181928685015181550194019201613580565b60015f52601f820160051c5f516020614b585f395f51905f52019060208310613626575b601f0160051c5f516020614b585f395f51905f5201905b81811061361b57506133d3565b5f815560010161360e565b5f516020614b585f395f51905f5291506135f7565b60405162461bcd60e51b815260206004820152602260248201527f73657474696e6720696e7465726573742072617465206d6f64656c206661696c604482015261195960f21b6064820152608490fd5b60405162461bcd60e51b815260206004820152601d60248201527f73657474696e672070657269646f7474726f6c6c6572206661696c65640000006044820152606490fd5b60405162461bcd60e51b815260206004820152603060248201527f696e697469616c2065786368616e67652072617465206d75737420626520677260448201526f32b0ba32b9103a3430b7103d32b9379760811b6064820152608490fd5b60405162461bcd60e51b815260206004820152602360248201527f6d61726b6574206d6179206f6e6c7920626520696e697469616c697a6564206f6044820152626e636560e81b6064820152608490fd5b50600a5415613376565b60405162461bcd60e51b8152602060048201526024808201527f6f6e6c792061646d696e206d617920696e697469616c697a6520746865206d616044820152631c9ad95d60e21b6064820152608490fd5b601654604051634fb3c66560e11b815290602090829060049082905f906001600160a01b03165af18015611bde57613816575b506131d261406f565b6020813d60201161383d575b8161382f602093836130f9565b81010312610480575161380d565b3d9150613822565b5f5461385360ff821661323c565b60ff19165f556138616137da565b5061386a613aae565b90600160ff195f5416175f55565b90816020910312610480575180151581036104805790565b1561389757565b60405162461bcd60e51b815260206004820152601c60248201527f6d61726b6572206d6574686f642072657475726e65642066616c7365000000006044820152606490fd5b60035460081c6001600160a01b031633036139a95760055460405163fa707af960e01b8152916001600160a01b031690602083600481855afa918215611bde576139516040937ff911792cf103798503b6dab0992e023d45661865683c550a919b8c9ad07dbf7f955f9161397a575b50613890565b6001600160a01b03198216811760055582516001600160a01b0390921682526020820152a15f90565b61399c915060203d6020116139a2575b61399481836130f9565b810190613878565b5f61394b565b503d61398a565b634c2fa00360e01b5f5260045ffd5b6003543360089190911c6001600160a01b0316148015613a19575b156133495760207f7958d1d41a26870ec9486cb4dc33830b446f038d00661e064b50719bdde7f42c91151560ff196013541660ff821617601355604051908152a1600190565b50600554604051631251eb1160e11b815290602090829060049082906001600160a01b03165afa908115611bde575f91613a5f575b506001600160a01b031633146139d3565b90506020813d602011613a99575b81613a7a602093836130f9565b8101031261048057516001600160a01b0381168103610480575f613a4e565b3d9150613a6d565b919082039182116132e857565b600d5480613abd575060075490565b613add613ad4613acb613ca2565b600b54906132fc565b600c5490613aa1565b90670de0b6b3a7640000820291808304670de0b6b3a764000014901517156132e8576131d29161321e565b6005546040516317b9b84b60e31b81523060048201526001600160a01b0384811660248301528581166044830152606482018790529395929492939091602091839160849183915f91165af1908115611bde575f91613c70575b5080613c5e57506001600160a01b03908116931691828414613c4f575f516020614b385f395f51905f52916020916001600160a01b0381168503613c2b575f19905b613bae8383613aa1565b91865f52600e8552613bc48460405f2054613aa1565b885f52600e8652613bd98560405f20546132fc565b90885f52600e875260405f2055885f52600e865260405f20555f1903613c07575b5050604051908152a35f90565b855f52600f845260405f209060018060a01b03165f52835260405f20555f80613bfa565b5f858152600f845260408082206001600160a01b0384168352855290205490613ba4565b638cd22d1960e01b5f5260045ffd5b630c93cb5b60e01b5f5260045260245ffd5b90506020813d602011613c9a575b81613c8b602093836130f9565b8101031261048057515f613b62565b3d9150613c7e565b6016546040516305f5d64360e11b8152306004820152906001600160a01b0316602082602481845afa918215611bde575f92613dac575b5060206004916040519283809263324abb3160e21b82525afa908115611bde575f91613d7a575b505f918015918215613d5a575b505015613d26576b033b2e3c9fd0803ce8000000900490565b60405162461bcd60e51b815260206004820152600c60248201526b6d756c2d6f766572666c6f7760a01b6044820152606490fd5b91509150613d72613d6b83836132d5565b928361321e565b145f80613d0d565b90506020813d602011613da4575b81613d95602093836130f9565b8101031261048057515f613d00565b3d9150613d88565b9091506020813d602011613dd9575b81613dc8602093836130f9565b810103126104805751906020613cd9565b3d9150613dbb565b6015546016546b033b2e3c9fd0803ce800000093926001600160a01b03928316929091168484028415858204871417156132e857845f96820403613d265760405163324abb3160e21b815290602082600481865afa908115611bde575f91613f35575b613e4e925061321e565b60018101908181116132e8578110613f0157813b15610480575f91602483926040519485938492637f8661a160e01b845260048401525af18015611bde57613eec575b50813b156118b65760405163ef693bed60e01b81526001600160a01b03919091166004820152602481019290925282908290604490829084905af18015610dc757613eda575050565b613ee58280926130f9565b6103d25750565b613ef99194505f906130f9565b5f925f613e91565b60405162461bcd60e51b815260206004820152600c60248201526b6164642d6f766572666c6f7760a01b6044820152606490fd5b90506020823d602011613f63575b81613f50602093836130f9565b8101031261048057613e4e915190613e44565b3d9150613f43565b6001600160a01b03165f9081526010602052604090208054908115613fa5576001613f9c6131d293600a54906132d5565b9101549061321e565b50505f90565b60035460081c6001600160a01b03163303614060576009544303614051576006546040516310c8fc9560e11b8152916001600160a01b031690602083600481855afa918215611bde576140286040937fedffc32e068c7c95dfd4bdfd5c4d939a084d6b11c4199eac8436ed234d72f926955f9161397a5750613890565b6001600160a01b03198216811760065582516001600160a01b0390921682526020820152a15f90565b630be2a5cb60e11b5f5260045ffd5b63407fded560e01b5f5260045ffd5b60095443811461334957614081613ca2565b600b54600c54600a546006546040516315f2405360e01b815260048101869052602481018590526044810184905295939493929190602090879060649082906001600160a01b03165afa958615611bde575f966141fb575b5065048c2739500086116141b65761417c6141317f4dec04e750ca11537cabcd8a9eab06494de08da3735bc8871cd41250e190bc049761411c6141af9643613aa1565b906040519061412a826130c9565b81526145ab565b91670de0b6b3a764000061416f82614176614159846141508d8a6145ab565b51049b8c6132fc565b978461416f8d6008546040519061412a826130c9565b51046132fc565b956145ab565b904360095581600a5582600b55600c55604051948594859094939260609260808301968352602083015260408201520152565b0390a15f90565b60405162461bcd60e51b815260206004820152601c60248201527f626f72726f772072617465206973206162737572646c792068696768000000006044820152606490fd5b9095506020813d602011614227575b81614217602093836130f9565b810103126104805751945f6140d9565b3d915061420a565b60055460405163d02f735160e01b81523060048201526001600160a01b039283166024820152838316604482015284831660648201526084810186905293949391602091839160a49183915f91165af1908115611bde575f91614407575b50806143f557506001600160a01b0392831692168281146143e657666379da05b600006040516142bc816130c9565b52666379da05b60000820292828404666379da05b6000014831517156132e857670de0b6b3a76400007fa91e67c5ea634cd43a12c5a482724b03de01e85ca68702a53d0c2f45cb7c1dc59404906143138285613aa1565b92815f516020614b385f395f51905f526020670de0b6b3a76400006143478761433a613aae565b6040519061412a826130c9565b51049661437e61435989600c546132fc565b998a600c5561436a89600d54613aa1565b600d55855f52600e845260405f2054613aa1565b845f52600e835260405f2055845f52600e825261439f8160405f20546132fc565b855f52600e835260405f2055604051908152a36040519182525f516020614b385f395f51905f5260203093a3604080513081526020810192909252810191909152606090a1565b633a94626760e11b5f5260045ffd5b6305a647b960e31b5f5260045260245ffd5b90506020813d602011614431575b81614422602093836130f9565b8101031261048057515f61428d565b3d9150614415565b600554604051631200453160e11b81523060048201526001600160a01b0383811660248301528481166044830152606482018690529293929091602091839160849183915f91165af1908115611bde575f91614579575b508061456757506009544303614558577f1a2a22cb034d26d1854bdc6666a5b91fe25efbbb5dcad3b0355478d6f5c362a191816144ce60a093613f6b565b945f19810361454c57506144ed6144e6865b8461489c565b8096613aa1565b6144f986600b54613aa1565b91600180861b0316805f5260106020528160405f2055600a54815f526010602052600160405f20015582600b5560405193600180871b03168452602084015285604084015260608301526080820152a190565b6144e66144ed916144e0565b63c9021e2f60e01b5f5260045ffd5b6335a6a70b60e21b5f5260045260245ffd5b90506020813d6020116145a3575b81614594602093836130f9565b8101031261048057515f614490565b3d9150614587565b906145c4915f6040516145bd816130c9565b52516132d5565b604051906145d1826130c9565b815290565b6001600160a01b03918216815291166020820152604081019190915260600190565b6013546040516323b872dd60e01b81526001600160a01b0392831660048201523060248201525f604482018190529260089290921c9091169060208160648186865af1908115611bde575f9161487d575b501561482c576015546016546017546040516370a0823160e01b81523060048201526001600160a01b03928316949183169390921690602090839060249082905afa918215611bde575f926147f8575b50803b1561048057604051633b4da69f60e01b815230600482015260248101929092525f908290604490829084905af18015611bde576147e2575b50602060249160405192838092633612d9a360e11b82523060048301525afa9081156125ac5783916147b0575b5060405163324abb3160e21b815290602082600481865afa90811561095f57849161477a575b614731925061321e565b813b15610a0157829160248392604051948593849263049878f360e01b845260048401525af18015610dc75790829161476957505090565b81614773916130f9565b6103d25790565b90506020823d6020116147a8575b81614795602093836130f9565b8101031261048057614731915190614727565b3d9150614788565b90506020813d6020116147da575b816147cb602093836130f9565b8101031261048057515f614701565b3d91506147be565b6147ef9193505f906130f9565b5f9160206146d4565b9091506020813d602011614824575b81614814602093836130f9565b810103126104805751905f614699565b3d9150614807565b60405162461bcd60e51b8152602060048201526024808201527f756e6578706563746564204549502d3230207472616e7366657220696e2072656044820152633a3ab93760e11b6064820152608490fd5b614896915060203d6020116139a25761399481836130f9565b5f614649565b6013546040516323b872dd60e01b81525f9260089290921c6001600160a01b031691602090829081906148d69088903090600485016145d6565b03815f865af1908115611bde575f91614acc575b501561482c576015546016546017546040516370a0823160e01b81523060048201526001600160a01b03928316949183169390921690602090839060249082905afa918215611bde575f92614a98575b50803b1561048057604051633b4da69f60e01b815230600482015260248101929092525f908290604490829084905af18015611bde57614a82575b50602060249160405192838092633612d9a360e11b82523060048301525afa9081156125ac578391614a50575b5060405163324abb3160e21b815290602082600481865afa90811561095f578491614a1a575b6149d2925061321e565b813b15610a0157829160248392604051948593849263049878f360e01b845260048401525af18015610dc757614a0757505090565b614a128280926130f9565b6103d2575090565b90506020823d602011614a48575b81614a35602093836130f9565b81010312610480576149d29151906149c8565b3d9150614a28565b90506020813d602011614a7a575b81614a6b602093836130f9565b8101031261048057515f6149a2565b3d9150614a5e565b614a8f9193505f906130f9565b5f916020614975565b9091506020813d602011614ac4575b81614ab4602093836130f9565b810103126104805751905f61493a565b3d9150614aa7565b614ae5915060203d6020116139a25761399481836130f9565b5f6148ea565b670de0b6b3a7640000810290808204670de0b6b3a764000014901517156132e8576131d291519061321e56fe405787fa12a823e0f2b7631cc41b3ba8828b3321ca811111fa75cd3aa3bb5aceddf252ad1be2c89b69c2b068fc378daa952ba7f163c4a11628f55a4df523b3efb10e2d527612073b26eecdfd717e6a320cf44b4afac2b0732d9fcbe2b7fa0cf6a2646970667358221220edea0ea0f38e4d24ac6539ce265ac1b2d8329cb7eeeb4babf0d4ffc9b642e6eb64736f6c634300081c0033","linkReferences":{}},"methodIdentifiers":{"NO_ERROR()":"69ab3250","_acceptAdmin()":"e9c714f2","_addReserves(uint256)":"3e941010","_becomeImplementation(bytes)":"56e67728","_delegatePeridotLikeTo(address)":"a252d8be","_reduceReserves(uint256)":"601a0bf1","_resignImplementation()":"153ab505","_setFlashLoanFee(uint256)":"c53d59d9","_setFlashLoansPaused(bool)":"dcef7fbd","_setInterestRateModel(address)":"f2b3abbd","_setMaxFlashLoanRatio(uint256)":"c3b68700","_setPendingAdmin(address)":"b71d1a0c","_setPeridottroller(address)":"d5c6d3bd","_setReserveFactor(uint256)":"fca7820b","accrualBlockNumber()":"6c540baf","accrueInterest()":"a6afed95","admin()":"f851a440","allowance(address,address)":"dd62ed3e","approve(address,uint256)":"095ea7b3","balanceOf(address)":"70a08231","balanceOfUnderlying(address)":"3af9e669","borrow(uint256)":"c5ebeaec","borrowBalanceCurrent(address)":"17bfdfbc","borrowBalanceStored(address)":"95dd9193","borrowIndex()":"aa5af0fd","borrowRatePerBlock()":"f8f9da28","daiJoinAddress()":"8a8df2e6","decimals()":"313ce567","exchangeRateCurrent()":"bd6d894d","exchangeRateStored()":"182df0f5","flashFee(address,uint256)":"d9d98ce4","flashLoan(address,address,uint256,bytes)":"5cffe9de","flashLoanFeeBps()":"c0c7347e","flashLoansPaused()":"9b503bae","getAccountSnapshot(address)":"c37f68e2","getCash()":"3b1d21a2","implementation()":"5c60da1b","initialize(address,address,address,uint256,string,string,uint8)":"1a31d465","initialize(address,address,uint256,string,string,uint8)":"99d8c1b4","interestRateModel()":"f3fdb15a","isPToken()":"5a890c0e","liquidateBorrow(address,uint256,address)":"f5e3c462","maxFlashLoan(address)":"613255ab","maxFlashLoanRatio()":"0ed14e63","mint(uint256)":"a0712d68","name()":"06fdde03","pendingAdmin()":"26782247","peridottroller()":"c423fe29","potAddress()":"66ced602","protocolSeizeShareMantissa()":"6752e702","redeem(uint256)":"db006a75","redeemUnderlying(uint256)":"852a12e3","repayBorrow(uint256)":"0e752702","repayBorrowBehalf(address,uint256)":"2608f818","reserveFactorMantissa()":"173b9904","seize(address,address,uint256)":"b2a02ff1","supplyRatePerBlock()":"ae9d70b0","sweepToken(address)":"1be19560","symbol()":"95d89b41","totalBorrows()":"47bd3718","totalBorrowsCurrent()":"73acee98","totalReserves()":"8f840ddd","totalSupply()":"18160ddd","transfer(address,uint256)":"a9059cbb","transferFrom(address,address,uint256)":"23b872dd","underlying()":"6f307dc3","vatAddress()":"8d925ccd"},"id":14}