{"abi":[{"type":"constructor","inputs":[{"name":"baseRatePerYear","type":"uint256","internalType":"uint256"},{"name":"multiplierPerYear","type":"uint256","internalType":"uint256"},{"name":"jumpMultiplierPerYear","type":"uint256","internalType":"uint256"},{"name":"kink_","type":"uint256","internalType":"uint256"}],"stateMutability":"nonpayable"},{"type":"function","name":"baseRatePerBlock","inputs":[],"outputs":[{"name":"","type":"uint256","internalType":"uint256"}],"stateMutability":"view"},{"type":"function","name":"blocksPerYear","inputs":[],"outputs":[{"name":"","type":"uint256","internalType":"uint256"}],"stateMutability":"view"},{"type":"function","name":"getBorrowRate","inputs":[{"name":"cash","type":"uint256","internalType":"uint256"},{"name":"borrows","type":"uint256","internalType":"uint256"},{"name":"reserves","type":"uint256","internalType":"uint256"}],"outputs":[{"name":"","type":"uint256","internalType":"uint256"}],"stateMutability":"view"},{"type":"function","name":"getSupplyRate","inputs":[{"name":"cash","type":"uint256","internalType":"uint256"},{"name":"borrows","type":"uint256","internalType":"uint256"},{"name":"reserves","type":"uint256","internalType":"uint256"},{"name":"reserveFactorMantissa","type":"uint256","internalType":"uint256"}],"outputs":[{"name":"","type":"uint256","internalType":"uint256"}],"stateMutability":"view"},{"type":"function","name":"isInterestRateModel","inputs":[],"outputs":[{"name":"","type":"bool","internalType":"bool"}],"stateMutability":"view"},{"type":"function","name":"jumpMultiplierPerBlock","inputs":[],"outputs":[{"name":"","type":"uint256","internalType":"uint256"}],"stateMutability":"view"},{"type":"function","name":"kink","inputs":[],"outputs":[{"name":"","type":"uint256","internalType":"uint256"}],"stateMutability":"view"},{"type":"function","name":"multiplierPerBlock","inputs":[],"outputs":[{"name":"","type":"uint256","internalType":"uint256"}],"stateMutability":"view"},{"type":"function","name":"utilizationRate","inputs":[{"name":"cash","type":"uint256","internalType":"uint256"},{"name":"borrows","type":"uint256","internalType":"uint256"},{"name":"reserves","type":"uint256","internalType":"uint256"}],"outputs":[{"name":"","type":"uint256","internalType":"uint256"}],"stateMutability":"pure"},{"type":"event","name":"NewInterestParams","inputs":[{"name":"baseRatePerBlock","type":"uint256","indexed":false,"internalType":"uint256"},{"name":"multiplierPerBlock","type":"uint256","indexed":false,"internalType":"uint256"},{"name":"jumpMultiplierPerBlock","type":"uint256","indexed":false,"internalType":"uint256"},{"name":"kink","type":"uint256","indexed":false,"internalType":"uint256"}],"anonymous":false}],"bytecode":{"object":"0x60803460b257601f61040038819003918201601f19168301916001600160401b0383118484101760b65780849260809460405283398101031260b2576080817f6960ab234c7ef4b0c9197100f5393cfcde7c453ac910a27bd2000aa1dd4c068d925160208201519162201480808060606040850151940151940494856001550491825f5504908160025582600355604051938452602084015260408301526060820152a160405161033590816100cb8239f35b5f80fd5b634e487b7160e01b5f52604160045260245ffdfe60806040526004361015610011575f80fd5b5f3560e01c806315f24053146101d05780632191f92a146101b55780636e71e2d8146101945780638726bb8914610178578063a385fb961461015b578063b8168816146100d7578063b9f9850a146100ba578063f14039de1461009d5763fd2da3391461007c575f80fd5b34610099575f366003190112610099576020600354604051908152f35b5f80fd5b34610099575f366003190112610099576020600154604051908152f35b34610099575f366003190112610099576020600254604051908152f35b346100995760803660031901126100995760043560243560443590606435670de0b6b3a76400000392670de0b6b3a76400008411610147576101328383670de0b6b3a7640000610137602098610132839961013e9989610230565b610203565b04936102a3565b04604051908152f35b634e487b7160e01b5f52601160045260245ffd5b34610099575f366003190112610099576020604051622014808152f35b34610099575f3660031901126100995760205f54604051908152f35b346100995760206101ad6101a7366101e9565b916102a3565b604051908152f35b34610099575f36600319011261009957602060405160018152f35b346100995760206101ad6101e3366101e9565b91610230565b606090600319011261009957600435906024359060443590565b8181029291811591840414171561014757565b9190820180921161014757565b9190820391821161014757565b9061023b92916102a3565b60035480821161026b5750670de0b6b3a764000061025e610268925f5490610203565b0460015490610216565b90565b90670de0b6b3a764000061029d6102946102689461028e8461025e5f5484610203565b94610223565b60025490610203565b04610216565b9181156102f857670de0b6b3a7640000820292828404670de0b6b3a764000003610147576102d9926102d491610216565b610223565b9081156102e4570490565b634e487b7160e01b5f52601260045260245ffd5b5050505f9056fea2646970667358221220f7cf07879de4362db5bd0c10773f5e726c5970cadc302c4857e6d3635155617a64736f6c634300081c0033","linkReferences":{}},"methodIdentifiers":{"baseRatePerBlock()":"f14039de","blocksPerYear()":"a385fb96","getBorrowRate(uint256,uint256,uint256)":"15f24053","getSupplyRate(uint256,uint256,uint256,uint256)":"b8168816","isInterestRateModel()":"2191f92a","jumpMultiplierPerBlock()":"b9f9850a","kink()":"fd2da339","multiplierPerBlock()":"8726bb89","utilizationRate(uint256,uint256,uint256)":"6e71e2d8"},"id":10}