{"abi":[{"type":"constructor","inputs":[{"name":"dripRate_","type":"uint256","internalType":"uint256"},{"name":"token_","type":"address","internalType":"contract EIP20Interface"},{"name":"target_","type":"address","internalType":"address"}],"stateMutability":"nonpayable"},{"type":"function","name":"drip","inputs":[],"outputs":[{"name":"","type":"uint256","internalType":"uint256"}],"stateMutability":"nonpayable"},{"type":"function","name":"dripRate","inputs":[],"outputs":[{"name":"","type":"uint256","internalType":"uint256"}],"stateMutability":"view"},{"type":"function","name":"dripStart","inputs":[],"outputs":[{"name":"","type":"uint256","internalType":"uint256"}],"stateMutability":"view"},{"type":"function","name":"dripped","inputs":[],"outputs":[{"name":"","type":"uint256","internalType":"uint256"}],"stateMutability":"view"},{"type":"function","name":"target","inputs":[],"outputs":[{"name":"","type":"address","internalType":"address"}],"stateMutability":"view"},{"type":"function","name":"token","inputs":[],"outputs":[{"name":"","type":"address","internalType":"contract EIP20Interface"}],"stateMutability":"view"}],"bytecode":{"object":"0x60803460a457601f6104a338819003918201601f19168301916001600160401b0383118484101760a85780849260609460405283398101031260a4578051602082015190916001600160a01b0382169182900360a457604001516001600160a01b038116929083900360a457435f5560015560018060a01b0319600254161760025560018060a01b031960035416176003555f6004556040516103e690816100bd8239f35b5f80fd5b634e487b7160e01b5f52604160045260245ffdfe6080806040526004361015610012575f80fd5b5f3560e01c90816388a91a8a146102c75750806395f632b3146102aa5780639f678cca146100cf578063d3261592146100b2578063d4b839921461008a5763fc0c546a1461005e575f80fd5b34610086575f366003190112610086576002546040516001600160a01b039091168152602090f35b5f80fd5b34610086575f366003190112610086576003546040516001600160a01b039091168152602090f35b34610086575f366003190112610086576020600154604051908152f35b34610086575f366003190112610086576002546040516370a0823160e01b8152306004820152906001600160a01b0316602082602481845afa91821561026a575f92610275575b5060205f91604461017b946101bf600154916101b9875493600454998a9161014960018060a01b03600354169743610316565b604051916101586040846102e0565b601283527164726970546f74616c206f766572666c6f7760701b8c84015261037e565b6101b460405161018c6040826102e0565b601381527264656c74614472697020756e646572666c6f7760681b8b82015282841115610337565b610316565b9061039f565b956101f56040516101d16040826102e0565b600c81526b1d185d5d1bdb1bd9da58d85b60a21b8782015288830192831015610337565b600455604051948593849263a9059cbb60e01b845260048401528760248401525af1801561026a5761022d575b602082604051908152f35b6020813d602011610262575b81610246602093836102e0565b8101031261008657519081151582036100865790506020610222565b3d9150610239565b6040513d5f823e3d90fd5b91506020823d6020116102a2575b81610290602093836102e0565b81010312610086579051906020610116565b3d9150610283565b34610086575f366003190112610086576020600454604051908152f35b34610086575f366003190112610086576020905f548152f35b90601f8019910116810190811067ffffffffffffffff82111761030257604052565b634e487b7160e01b5f52604160045260245ffd5b9190820391821161032357565b634e487b7160e01b5f52601160045260245ffd5b1561033f5750565b604460209160405192839162461bcd60e51b83528160048401528051918291826024860152018484015e5f828201840152601f01601f19168101030190fd5b918215610398578161039592840293840414610337565b90565b5050505f90565b908082116103ab575090565b90509056fea2646970667358221220d0bfdde7e07f75fcddc25c913608cc4c76ecbdf43b75bcbb57fc8ce6721af1cf64736f6c634300081c0033","linkReferences":{}},"methodIdentifiers":{"drip()":"9f678cca","dripRate()":"d3261592","dripStart()":"88a91a8a","dripped()":"95f632b3","target()":"d4b83992","token()":"fc0c546a"},"id":44}