{"abi":[{"type":"function","name":"assetPrices","inputs":[{"name":"asset","type":"address","internalType":"address"}],"outputs":[{"name":"","type":"uint256","internalType":"uint256"}],"stateMutability":"view"},{"type":"function","name":"getUnderlyingPrice","inputs":[{"name":"pToken","type":"address","internalType":"contract PToken"}],"outputs":[{"name":"","type":"uint256","internalType":"uint256"}],"stateMutability":"view"},{"type":"function","name":"isPriceOracle","inputs":[],"outputs":[{"name":"","type":"bool","internalType":"bool"}],"stateMutability":"view"},{"type":"function","name":"setDirectPrice","inputs":[{"name":"asset","type":"address","internalType":"address"},{"name":"price","type":"uint256","internalType":"uint256"}],"outputs":[],"stateMutability":"nonpayable"},{"type":"function","name":"setUnderlyingPrice","inputs":[{"name":"pToken","type":"address","internalType":"contract PToken"},{"name":"underlyingPriceMantissa","type":"uint256","internalType":"uint256"}],"outputs":[],"stateMutability":"nonpayable"},{"type":"event","name":"PricePosted","inputs":[{"name":"asset","type":"address","indexed":false,"internalType":"address"},{"name":"previousPriceMantissa","type":"uint256","indexed":false,"internalType":"uint256"},{"name":"requestedPriceMantissa","type":"uint256","indexed":false,"internalType":"uint256"},{"name":"newPriceMantissa","type":"uint256","indexed":false,"internalType":"uint256"}],"anonymous":false}],"bytecode":{"object":"0x60808060405234601557610429908161001a8239f35b5f80fdfe6080806040526004361015610012575f80fd5b5f3560e01c90816309a8acb01461016057508063127ffda0146100d25780635e9a523c146100b157806366331bba146100965763fc57d4df14610053575f80fd5b34610092576020366003190112610092576001600160a01b0361007c6100776101d6565b610222565b165f525f602052602060405f2054604051908152f35b5f80fd5b34610092575f36600319011261009257602060405160018152f35b34610092576020366003190112610092576001600160a01b0361007c6101d6565b34610092576040366003190112610092576100eb6101d6565b6100f760243591610222565b6001600160a01b03165f818152602081815260409182902054825184815291820152908101839052606081018390527fdd71a1d19fcba687442a1d5c58578f1e409af71a79d10fd95a4d66efd8fa9ae79080608081015b0390a15f525f60205260405f20555f80f35b34610092576040366003190112610092576101796101d6565b6001600160a01b03165f8181526020818152604091829020548385529084015260243590830181905260608301819052917fdd71a1d19fcba687442a1d5c58578f1e409af71a79d10fd95a4d66efd8fa9ae790806080810161014e565b600435906001600160a01b038216820361009257565b90601f8019910116810190811067ffffffffffffffff82111761020e57604052565b634e487b7160e01b5f52604160045260245ffd5b6040516395d89b4160e01b8152906001600160a01b03165f82600481845afa9182156103e8575f9261035c575b50604091825161025f84826101ec565b600481526020810191630e08aa8960e31b8352845161029d6020828180820195805191829101875e81015f838201520301601f1981018352826101ec565b519020916102c960208651809382820195518091875e81015f838201520301601f1981018352826101ec565b519020036102eb57505073eeeeeeeeeeeeeeeeeeeeeeeeeeeeeeeeeeeeeeee90565b6020600491835192838092636f307dc360e01b82525afa91821561035357505f91610314575090565b90506020813d60201161034b575b8161032f602093836101ec565b8101031261009257516001600160a01b03811681036100925790565b3d9150610322565b513d5f823e3d90fd5b9091503d805f833e61036e81836101ec565b8101906020818303126100925780519067ffffffffffffffff8211610092570181601f820112156100925780519067ffffffffffffffff821161020e57604051926103c3601f8401601f1916602001856101ec565b8284526020838301011161009257815f9260208093018386015e83010152905f61024f565b6040513d5f823e3d90fdfea26469706673582212209d0c6183e6f99075ffcbeb6128b8e6aafbac26c6b9278db556564527cdbbf50d64736f6c634300081c0033","linkReferences":{}},"methodIdentifiers":{"assetPrices(address)":"5e9a523c","getUnderlyingPrice(address)":"fc57d4df","isPriceOracle()":"66331bba","setDirectPrice(address,uint256)":"09a8acb0","setUnderlyingPrice(address,uint256)":"127ffda0"},"id":23}