{"abi":[{"type":"function","name":"_borrowGuardianPaused","inputs":[],"outputs":[{"name":"","type":"bool","internalType":"bool"}],"stateMutability":"view"},{"type":"function","name":"_mintGuardianPaused","inputs":[],"outputs":[{"name":"","type":"bool","internalType":"bool"}],"stateMutability":"view"},{"type":"function","name":"accountAssets","inputs":[{"name":"","type":"address","internalType":"address"},{"name":"","type":"uint256","internalType":"uint256"}],"outputs":[{"name":"","type":"address","internalType":"contract PToken"}],"stateMutability":"view"},{"type":"function","name":"admin","inputs":[],"outputs":[{"name":"","type":"address","internalType":"address"}],"stateMutability":"view"},{"type":"function","name":"allMarkets","inputs":[{"name":"","type":"uint256","internalType":"uint256"}],"outputs":[{"name":"","type":"address","internalType":"contract PToken"}],"stateMutability":"view"},{"type":"function","name":"borrowCapGuardian","inputs":[],"outputs":[{"name":"","type":"address","internalType":"address"}],"stateMutability":"view"},{"type":"function","name":"borrowCaps","inputs":[{"name":"","type":"address","internalType":"address"}],"outputs":[{"name":"","type":"uint256","internalType":"uint256"}],"stateMutability":"view"},{"type":"function","name":"borrowGuardianPaused","inputs":[{"name":"","type":"address","internalType":"address"}],"outputs":[{"name":"","type":"bool","internalType":"bool"}],"stateMutability":"view"},{"type":"function","name":"closeFactorMantissa","inputs":[],"outputs":[{"name":"","type":"uint256","internalType":"uint256"}],"stateMutability":"view"},{"type":"function","name":"lastContributorBlock","inputs":[{"name":"","type":"address","internalType":"address"}],"outputs":[{"name":"","type":"uint256","internalType":"uint256"}],"stateMutability":"view"},{"type":"function","name":"liquidationIncentiveMantissa","inputs":[],"outputs":[{"name":"","type":"uint256","internalType":"uint256"}],"stateMutability":"view"},{"type":"function","name":"markets","inputs":[{"name":"","type":"address","internalType":"address"}],"outputs":[{"name":"isListed","type":"bool","internalType":"bool"},{"name":"collateralFactorMantissa","type":"uint256","internalType":"uint256"},{"name":"isPeridoted","type":"bool","internalType":"bool"}],"stateMutability":"view"},{"type":"function","name":"maxAssets","inputs":[],"outputs":[{"name":"","type":"uint256","internalType":"uint256"}],"stateMutability":"view"},{"type":"function","name":"mintGuardianPaused","inputs":[{"name":"","type":"address","internalType":"address"}],"outputs":[{"name":"","type":"bool","internalType":"bool"}],"stateMutability":"view"},{"type":"function","name":"oracle","inputs":[],"outputs":[{"name":"","type":"address","internalType":"contract PriceOracle"}],"stateMutability":"view"},{"type":"function","name":"pauseGuardian","inputs":[],"outputs":[{"name":"","type":"address","internalType":"address"}],"stateMutability":"view"},{"type":"function","name":"pendingAdmin","inputs":[],"outputs":[{"name":"","type":"address","internalType":"address"}],"stateMutability":"view"},{"type":"function","name":"pendingPeridottrollerImplementation","inputs":[],"outputs":[{"name":"","type":"address","internalType":"address"}],"stateMutability":"view"},{"type":"function","name":"peridotAccrued","inputs":[{"name":"","type":"address","internalType":"address"}],"outputs":[{"name":"","type":"uint256","internalType":"uint256"}],"stateMutability":"view"},{"type":"function","name":"peridotBorrowState","inputs":[{"name":"","type":"address","internalType":"address"}],"outputs":[{"name":"index","type":"uint224","internalType":"uint224"},{"name":"block","type":"uint32","internalType":"uint32"}],"stateMutability":"view"},{"type":"function","name":"peridotBorrowerIndex","inputs":[{"name":"","type":"address","internalType":"address"},{"name":"","type":"address","internalType":"address"}],"outputs":[{"name":"","type":"uint256","internalType":"uint256"}],"stateMutability":"view"},{"type":"function","name":"peridotContributorSpeeds","inputs":[{"name":"","type":"address","internalType":"address"}],"outputs":[{"name":"","type":"uint256","internalType":"uint256"}],"stateMutability":"view"},{"type":"function","name":"peridotRate","inputs":[],"outputs":[{"name":"","type":"uint256","internalType":"uint256"}],"stateMutability":"view"},{"type":"function","name":"peridotSpeeds","inputs":[{"name":"","type":"address","internalType":"address"}],"outputs":[{"name":"","type":"uint256","internalType":"uint256"}],"stateMutability":"view"},{"type":"function","name":"peridotSupplierIndex","inputs":[{"name":"","type":"address","internalType":"address"},{"name":"","type":"address","internalType":"address"}],"outputs":[{"name":"","type":"uint256","internalType":"uint256"}],"stateMutability":"view"},{"type":"function","name":"peridotSupplyState","inputs":[{"name":"","type":"address","internalType":"address"}],"outputs":[{"name":"index","type":"uint224","internalType":"uint224"},{"name":"block","type":"uint32","internalType":"uint32"}],"stateMutability":"view"},{"type":"function","name":"peridottrollerImplementation","inputs":[],"outputs":[{"name":"","type":"address","internalType":"address"}],"stateMutability":"view"},{"type":"function","name":"seizeGuardianPaused","inputs":[],"outputs":[{"name":"","type":"bool","internalType":"bool"}],"stateMutability":"view"},{"type":"function","name":"transferGuardianPaused","inputs":[],"outputs":[{"name":"","type":"bool","internalType":"bool"}],"stateMutability":"view"}],"bytecode":{"object":"0x608080604052346015576107e5908161001a8239f35b5f80fdfe60806040526004361015610011575f80fd5b5f3560e01c80630aa4266f1461073357806318f1408d1461070b57806321af4569146106e357806324a3d622146106bb5780632678224714610693578063328bb72b146106425780633c94786f1461061d5780634a584432146105e55780634ada90af146105c857806352d84d1e146105645780636d154ea514610527578063731f0c2b146104ea578063794595f5146104b25780637c8f3a671461048a5780637dc0d1d01461046257806387f763031461043d5780638e8f294b146103e4578063935dbd261461039357806394b2294b14610376578063a64db62714610326578063ac0b0bb714610301578063bea6b8b8146102c9578063ce27c01e14610291578063d002d98914610259578063d088864a1461023c578063dce15449146101c5578063e6653f3d146101a0578063e8755446146101835763f851a44014610158575f80fd5b3461017f575f36600319011261017f575f546040516001600160a01b039091168152602090f35b5f80fd5b3461017f575f36600319011261017f576020600554604051908152f35b3461017f575f36600319011261017f57602060ff600a5460a81c166040519015158152f35b3461017f57604036600319011261017f576101de610783565b6001600160a01b03165f90815260086020526040902080546024359081101561017f578154811015610228575f91825260209182902001546040516001600160a01b039091168152f35b634e487b7160e01b5f52603260045260245ffd5b3461017f575f36600319011261017f576020600e54604051908152f35b3461017f57602036600319011261017f576001600160a01b0361027a610783565b165f526014602052602060405f2054604051908152f35b3461017f57602036600319011261017f576001600160a01b036102b2610783565b165f526017602052602060405f2054604051908152f35b3461017f57602036600319011261017f576001600160a01b036102ea610783565b165f526018602052602060405f2054604051908152f35b3461017f575f36600319011261017f57602060ff600a5460b81c166040519015158152f35b3461017f57604036600319011261017f5761033f610783565b610347610799565b6001600160a01b039182165f908152601360209081526040808320949093168252928352819020549051908152f35b3461017f575f36600319011261017f576020600754604051908152f35b3461017f57602036600319011261017f576001600160a01b036103b4610783565b165f908152601060209081526040918290205482516001600160e01b038216815260e09190911c91810191909152f35b3461017f57602036600319011261017f576001600160a01b03610405610783565b165f526009602052606060405f2060ff8154169060ff6003600183015492015416906040519215158352602083015215156040820152f35b3461017f575f36600319011261017f57602060ff600a5460b01c166040519015158152f35b3461017f575f36600319011261017f576004546040516001600160a01b039091168152602090f35b3461017f575f36600319011261017f576003546040516001600160a01b039091168152602090f35b3461017f57602036600319011261017f576001600160a01b036104d3610783565b165f52600f602052602060405f2054604051908152f35b3461017f57602036600319011261017f576001600160a01b0361050b610783565b165f52600b602052602060ff60405f2054166040519015158152f35b3461017f57602036600319011261017f576001600160a01b03610548610783565b165f52600c602052602060ff60405f2054166040519015158152f35b3461017f57602036600319011261017f57600435600d5481101561017f57600d5481101561022857600d5f527fd7b6990105719101dabeb77144f2a3385c8033acd3af97e9423a695e81ad1eb501546040516001600160a01b039091168152602090f35b3461017f575f36600319011261017f576020600654604051908152f35b3461017f57602036600319011261017f576001600160a01b03610606610783565b165f526016602052602060405f2054604051908152f35b3461017f575f36600319011261017f57602060ff600a5460a01c166040519015158152f35b3461017f57602036600319011261017f576001600160a01b03610663610783565b165f908152601160209081526040918290205482516001600160e01b038216815260e09190911c91810191909152f35b3461017f575f36600319011261017f576001546040516001600160a01b039091168152602090f35b3461017f575f36600319011261017f57600a546040516001600160a01b039091168152602090f35b3461017f575f36600319011261017f576015546040516001600160a01b039091168152602090f35b3461017f575f36600319011261017f576002546040516001600160a01b039091168152602090f35b3461017f57604036600319011261017f5761074c610783565b610754610799565b6001600160a01b039182165f908152601260209081526040808320949093168252928352819020549051908152f35b600435906001600160a01b038216820361017f57565b602435906001600160a01b038216820361017f5756fea264697066735822122056d806f280548215371ba10163cb625b6a3e16eb8be9ed3d36f1942125a4953664736f6c634300081c0033","linkReferences":{}},"methodIdentifiers":{"_borrowGuardianPaused()":"e6653f3d","_mintGuardianPaused()":"3c94786f","accountAssets(address,uint256)":"dce15449","admin()":"f851a440","allMarkets(uint256)":"52d84d1e","borrowCapGuardian()":"21af4569","borrowCaps(address)":"4a584432","borrowGuardianPaused(address)":"6d154ea5","closeFactorMantissa()":"e8755446","lastContributorBlock(address)":"bea6b8b8","liquidationIncentiveMantissa()":"4ada90af","markets(address)":"8e8f294b","maxAssets()":"94b2294b","mintGuardianPaused(address)":"731f0c2b","oracle()":"7dc0d1d0","pauseGuardian()":"24a3d622","pendingAdmin()":"26782247","pendingPeridottrollerImplementation()":"7c8f3a67","peridotAccrued(address)":"d002d989","peridotBorrowState(address)":"328bb72b","peridotBorrowerIndex(address,address)":"a64db627","peridotContributorSpeeds(address)":"ce27c01e","peridotRate()":"d088864a","peridotSpeeds(address)":"794595f5","peridotSupplierIndex(address,address)":"0aa4266f","peridotSupplyState(address)":"935dbd26","peridottrollerImplementation()":"18f1408d","seizeGuardianPaused()":"ac0b0bb7","transferGuardianPaused()":"87f76303"},"id":32}