{"abi":[{"type":"function","name":"_borrowGuardianPaused","inputs":[],"outputs":[{"name":"","type":"bool","internalType":"bool"}],"stateMutability":"view"},{"type":"function","name":"_mintGuardianPaused","inputs":[],"outputs":[{"name":"","type":"bool","internalType":"bool"}],"stateMutability":"view"},{"type":"function","name":"accountAssets","inputs":[{"name":"","type":"address","internalType":"address"},{"name":"","type":"uint256","internalType":"uint256"}],"outputs":[{"name":"","type":"address","internalType":"contract PToken"}],"stateMutability":"view"},{"type":"function","name":"admin","inputs":[],"outputs":[{"name":"","type":"address","internalType":"address"}],"stateMutability":"view"},{"type":"function","name":"allMarkets","inputs":[{"name":"","type":"uint256","internalType":"uint256"}],"outputs":[{"name":"","type":"address","internalType":"contract PToken"}],"stateMutability":"view"},{"type":"function","name":"borrowCapGuardian","inputs":[],"outputs":[{"name":"","type":"address","internalType":"address"}],"stateMutability":"view"},{"type":"function","name":"borrowCaps","inputs":[{"name":"","type":"address","internalType":"address"}],"outputs":[{"name":"","type":"uint256","internalType":"uint256"}],"stateMutability":"view"},{"type":"function","name":"borrowGuardianPaused","inputs":[{"name":"","type":"address","internalType":"address"}],"outputs":[{"name":"","type":"bool","internalType":"bool"}],"stateMutability":"view"},{"type":"function","name":"closeFactorMantissa","inputs":[],"outputs":[{"name":"","type":"uint256","internalType":"uint256"}],"stateMutability":"view"},{"type":"function","name":"lastContributorBlock","inputs":[{"name":"","type":"address","internalType":"address"}],"outputs":[{"name":"","type":"uint256","internalType":"uint256"}],"stateMutability":"view"},{"type":"function","name":"liquidationIncentiveMantissa","inputs":[],"outputs":[{"name":"","type":"uint256","internalType":"uint256"}],"stateMutability":"view"},{"type":"function","name":"markets","inputs":[{"name":"","type":"address","internalType":"address"}],"outputs":[{"name":"isListed","type":"bool","internalType":"bool"},{"name":"collateralFactorMantissa","type":"uint256","internalType":"uint256"},{"name":"isPeridoted","type":"bool","internalType":"bool"}],"stateMutability":"view"},{"type":"function","name":"maxAssets","inputs":[],"outputs":[{"name":"","type":"uint256","internalType":"uint256"}],"stateMutability":"view"},{"type":"function","name":"mintGuardianPaused","inputs":[{"name":"","type":"address","internalType":"address"}],"outputs":[{"name":"","type":"bool","internalType":"bool"}],"stateMutability":"view"},{"type":"function","name":"oracle","inputs":[],"outputs":[{"name":"","type":"address","internalType":"contract PriceOracle"}],"stateMutability":"view"},{"type":"function","name":"pauseGuardian","inputs":[],"outputs":[{"name":"","type":"address","internalType":"address"}],"stateMutability":"view"},{"type":"function","name":"pendingAdmin","inputs":[],"outputs":[{"name":"","type":"address","internalType":"address"}],"stateMutability":"view"},{"type":"function","name":"pendingPeridottrollerImplementation","inputs":[],"outputs":[{"name":"","type":"address","internalType":"address"}],"stateMutability":"view"},{"type":"function","name":"peridotAccrued","inputs":[{"name":"","type":"address","internalType":"address"}],"outputs":[{"name":"","type":"uint256","internalType":"uint256"}],"stateMutability":"view"},{"type":"function","name":"peridotBorrowSpeeds","inputs":[{"name":"","type":"address","internalType":"address"}],"outputs":[{"name":"","type":"uint256","internalType":"uint256"}],"stateMutability":"view"},{"type":"function","name":"peridotBorrowState","inputs":[{"name":"","type":"address","internalType":"address"}],"outputs":[{"name":"index","type":"uint224","internalType":"uint224"},{"name":"block","type":"uint32","internalType":"uint32"}],"stateMutability":"view"},{"type":"function","name":"peridotBorrowerIndex","inputs":[{"name":"","type":"address","internalType":"address"},{"name":"","type":"address","internalType":"address"}],"outputs":[{"name":"","type":"uint256","internalType":"uint256"}],"stateMutability":"view"},{"type":"function","name":"peridotContributorSpeeds","inputs":[{"name":"","type":"address","internalType":"address"}],"outputs":[{"name":"","type":"uint256","internalType":"uint256"}],"stateMutability":"view"},{"type":"function","name":"peridotRate","inputs":[],"outputs":[{"name":"","type":"uint256","internalType":"uint256"}],"stateMutability":"view"},{"type":"function","name":"peridotReceivable","inputs":[{"name":"","type":"address","internalType":"address"}],"outputs":[{"name":"","type":"uint256","internalType":"uint256"}],"stateMutability":"view"},{"type":"function","name":"peridotSpeeds","inputs":[{"name":"","type":"address","internalType":"address"}],"outputs":[{"name":"","type":"uint256","internalType":"uint256"}],"stateMutability":"view"},{"type":"function","name":"peridotSupplierIndex","inputs":[{"name":"","type":"address","internalType":"address"},{"name":"","type":"address","internalType":"address"}],"outputs":[{"name":"","type":"uint256","internalType":"uint256"}],"stateMutability":"view"},{"type":"function","name":"peridotSupplySpeeds","inputs":[{"name":"","type":"address","internalType":"address"}],"outputs":[{"name":"","type":"uint256","internalType":"uint256"}],"stateMutability":"view"},{"type":"function","name":"peridotSupplyState","inputs":[{"name":"","type":"address","internalType":"address"}],"outputs":[{"name":"index","type":"uint224","internalType":"uint224"},{"name":"block","type":"uint32","internalType":"uint32"}],"stateMutability":"view"},{"type":"function","name":"peridottrollerImplementation","inputs":[],"outputs":[{"name":"","type":"address","internalType":"address"}],"stateMutability":"view"},{"type":"function","name":"proposal65FixExecuted","inputs":[],"outputs":[{"name":"","type":"bool","internalType":"bool"}],"stateMutability":"view"},{"type":"function","name":"seizeGuardianPaused","inputs":[],"outputs":[{"name":"","type":"bool","internalType":"bool"}],"stateMutability":"view"},{"type":"function","name":"transferGuardianPaused","inputs":[],"outputs":[{"name":"","type":"bool","internalType":"bool"}],"stateMutability":"view"}],"bytecode":{"object":"0x608080604052346015576108da908161001a8239f35b5f80fdfe6080806040526004361015610012575f80fd5b5f3560e01c9081630938c63d14610844575080630aa4266f146107f457806318f1408d146107cc57806321af4569146107a457806324a3d6221461077c5780632678224714610754578063328bb72b146107035780633c94786f146106de5780634a584432146106a65780634ada90af1461068957806352d84d1e146106255780636d154ea5146105e8578063731f0c2b146105ab578063794595f5146105735780637c8f3a671461054b5780637dc0d1d01461052357806387f76303146104fe5780638e8f294b146104a5578063935dbd261461045457806394b2294b14610437578063a64db627146103e7578063ac0b0bb7146103c2578063bea6b8b81461038a578063c6a0175914610352578063ce27c01e1461031a578063d002d989146102e2578063d088864a146102c5578063dce154491461024e578063e6653f3d14610229578063e87554461461020c578063f00a7a92146101ea578063f1ad5756146101b25763f851a44014610187575f80fd5b346101ae575f3660031901126101ae575f546040516001600160a01b039091168152602090f35b5f80fd5b346101ae5760203660031901126101ae576001600160a01b036101d3610878565b165f52601c602052602060405f2054604051908152f35b346101ae575f3660031901126101ae57602060ff601b54166040519015158152f35b346101ae575f3660031901126101ae576020600554604051908152f35b346101ae575f3660031901126101ae57602060ff600a5460a81c166040519015158152f35b346101ae5760403660031901126101ae57610267610878565b6001600160a01b03165f9081526008602052604090208054602435908110156101ae5781548110156102b1575f91825260209182902001546040516001600160a01b039091168152f35b634e487b7160e01b5f52603260045260245ffd5b346101ae575f3660031901126101ae576020600e54604051908152f35b346101ae5760203660031901126101ae576001600160a01b03610303610878565b165f526014602052602060405f2054604051908152f35b346101ae5760203660031901126101ae576001600160a01b0361033b610878565b165f526017602052602060405f2054604051908152f35b346101ae5760203660031901126101ae576001600160a01b03610373610878565b165f526019602052602060405f2054604051908152f35b346101ae5760203660031901126101ae576001600160a01b036103ab610878565b165f526018602052602060405f2054604051908152f35b346101ae575f3660031901126101ae57602060ff600a5460b81c166040519015158152f35b346101ae5760403660031901126101ae57610400610878565b61040861088e565b6001600160a01b039182165f908152601360209081526040808320949093168252928352819020549051908152f35b346101ae575f3660031901126101ae576020600754604051908152f35b346101ae5760203660031901126101ae576001600160a01b03610475610878565b165f908152601060209081526040918290205482516001600160e01b038216815260e09190911c91810191909152f35b346101ae5760203660031901126101ae576001600160a01b036104c6610878565b165f526009602052606060405f2060ff8154169060ff6003600183015492015416906040519215158352602083015215156040820152f35b346101ae575f3660031901126101ae57602060ff600a5460b01c166040519015158152f35b346101ae575f3660031901126101ae576004546040516001600160a01b039091168152602090f35b346101ae575f3660031901126101ae576003546040516001600160a01b039091168152602090f35b346101ae5760203660031901126101ae576001600160a01b03610594610878565b165f52600f602052602060405f2054604051908152f35b346101ae5760203660031901126101ae576001600160a01b036105cc610878565b165f52600b602052602060ff60405f2054166040519015158152f35b346101ae5760203660031901126101ae576001600160a01b03610609610878565b165f52600c602052602060ff60405f2054166040519015158152f35b346101ae5760203660031901126101ae57600435600d548110156101ae57600d548110156102b157600d5f527fd7b6990105719101dabeb77144f2a3385c8033acd3af97e9423a695e81ad1eb501546040516001600160a01b039091168152602090f35b346101ae575f3660031901126101ae576020600654604051908152f35b346101ae5760203660031901126101ae576001600160a01b036106c7610878565b165f526016602052602060405f2054604051908152f35b346101ae575f3660031901126101ae57602060ff600a5460a01c166040519015158152f35b346101ae5760203660031901126101ae576001600160a01b03610724610878565b165f908152601160209081526040918290205482516001600160e01b038216815260e09190911c91810191909152f35b346101ae575f3660031901126101ae576001546040516001600160a01b039091168152602090f35b346101ae575f3660031901126101ae57600a546040516001600160a01b039091168152602090f35b346101ae575f3660031901126101ae576015546040516001600160a01b039091168152602090f35b346101ae575f3660031901126101ae576002546040516001600160a01b039091168152602090f35b346101ae5760403660031901126101ae5761080d610878565b61081561088e565b6001600160a01b039182165f908152601260209081526040808320949093168252928352819020549051908152f35b346101ae5760203660031901126101ae576020906001600160a01b03610868610878565b165f52601a825260405f20548152f35b600435906001600160a01b03821682036101ae57565b602435906001600160a01b03821682036101ae5756fea26469706673582212202bfd22853beadadd3cce27544cfe938c4ec2f645bf3cee105ee9a4413b2b75cc64736f6c634300081c0033","linkReferences":{}},"methodIdentifiers":{"_borrowGuardianPaused()":"e6653f3d","_mintGuardianPaused()":"3c94786f","accountAssets(address,uint256)":"dce15449","admin()":"f851a440","allMarkets(uint256)":"52d84d1e","borrowCapGuardian()":"21af4569","borrowCaps(address)":"4a584432","borrowGuardianPaused(address)":"6d154ea5","closeFactorMantissa()":"e8755446","lastContributorBlock(address)":"bea6b8b8","liquidationIncentiveMantissa()":"4ada90af","markets(address)":"8e8f294b","maxAssets()":"94b2294b","mintGuardianPaused(address)":"731f0c2b","oracle()":"7dc0d1d0","pauseGuardian()":"24a3d622","pendingAdmin()":"26782247","pendingPeridottrollerImplementation()":"7c8f3a67","peridotAccrued(address)":"d002d989","peridotBorrowSpeeds(address)":"c6a01759","peridotBorrowState(address)":"328bb72b","peridotBorrowerIndex(address,address)":"a64db627","peridotContributorSpeeds(address)":"ce27c01e","peridotRate()":"d088864a","peridotReceivable(address)":"f1ad5756","peridotSpeeds(address)":"794595f5","peridotSupplierIndex(address,address)":"0aa4266f","peridotSupplySpeeds(address)":"0938c63d","peridotSupplyState(address)":"935dbd26","peridottrollerImplementation()":"18f1408d","proposal65FixExecuted()":"f00a7a92","seizeGuardianPaused()":"ac0b0bb7","transferGuardianPaused()":"87f76303"},"id":41}