{"abi":[{"type":"function","name":"accountAssets","inputs":[{"name":"","type":"address","internalType":"address"},{"name":"","type":"uint256","internalType":"uint256"}],"outputs":[{"name":"","type":"address","internalType":"contract PToken"}],"stateMutability":"view"},{"type":"function","name":"admin","inputs":[],"outputs":[{"name":"","type":"address","internalType":"address"}],"stateMutability":"view"},{"type":"function","name":"closeFactorMantissa","inputs":[],"outputs":[{"name":"","type":"uint256","internalType":"uint256"}],"stateMutability":"view"},{"type":"function","name":"liquidationIncentiveMantissa","inputs":[],"outputs":[{"name":"","type":"uint256","internalType":"uint256"}],"stateMutability":"view"},{"type":"function","name":"maxAssets","inputs":[],"outputs":[{"name":"","type":"uint256","internalType":"uint256"}],"stateMutability":"view"},{"type":"function","name":"oracle","inputs":[],"outputs":[{"name":"","type":"address","internalType":"contract PriceOracle"}],"stateMutability":"view"},{"type":"function","name":"pendingAdmin","inputs":[],"outputs":[{"name":"","type":"address","internalType":"address"}],"stateMutability":"view"},{"type":"function","name":"pendingPeridottrollerImplementation","inputs":[],"outputs":[{"name":"","type":"address","internalType":"address"}],"stateMutability":"view"},{"type":"function","name":"peridottrollerImplementation","inputs":[],"outputs":[{"name":"","type":"address","internalType":"address"}],"stateMutability":"view"}],"bytecode":{"object":"0x6080806040523460155761022f908161001a8239f35b5f80fdfe6080806040526004361015610012575f80fd5b5f3560e01c90816318f1408d146101d65750806326782247146101ae5780634ada90af146101915780637c8f3a67146101695780637dc0d1d01461014157806394b2294b14610124578063dce15449146100c7578063e8755446146100aa5763f851a4401461007f575f80fd5b346100a6575f3660031901126100a6575f546040516001600160a01b039091168152602090f35b5f80fd5b346100a6575f3660031901126100a6576020600554604051908152f35b346100a65760403660031901126100a6576004356001600160a01b038116908190036100a657602435905f52600860205260405f209081548110156100a6575f91825260209182902001546040516001600160a01b039091168152f35b346100a6575f3660031901126100a6576020600754604051908152f35b346100a6575f3660031901126100a6576004546040516001600160a01b039091168152602090f35b346100a6575f3660031901126100a6576003546040516001600160a01b039091168152602090f35b346100a6575f3660031901126100a6576020600654604051908152f35b346100a6575f3660031901126100a6576001546040516001600160a01b039091168152602090f35b346100a6575f3660031901126100a6576002546001600160a01b03168152602090f3fea2646970667358221220b4a125631ce53b1d65854da76b7d340c4ba57a75a70b8010ccc2abd6d3d043a964736f6c634300081b0033","linkReferences":{}},"methodIdentifiers":{"accountAssets(address,uint256)":"dce15449","admin()":"f851a440","closeFactorMantissa()":"e8755446","liquidationIncentiveMantissa()":"4ada90af","maxAssets()":"94b2294b","oracle()":"7dc0d1d0","pendingAdmin()":"26782247","pendingPeridottrollerImplementation()":"7c8f3a67","peridottrollerImplementation()":"18f1408d"},"id":29}