{"abi":[{"type":"function","name":"_borrowGuardianPaused","inputs":[],"outputs":[{"name":"","type":"bool","internalType":"bool"}],"stateMutability":"view"},{"type":"function","name":"_mintGuardianPaused","inputs":[],"outputs":[{"name":"","type":"bool","internalType":"bool"}],"stateMutability":"view"},{"type":"function","name":"accountAssets","inputs":[{"name":"","type":"address","internalType":"address"},{"name":"","type":"uint256","internalType":"uint256"}],"outputs":[{"name":"","type":"address","internalType":"contract PToken"}],"stateMutability":"view"},{"type":"function","name":"admin","inputs":[],"outputs":[{"name":"","type":"address","internalType":"address"}],"stateMutability":"view"},{"type":"function","name":"allMarkets","inputs":[{"name":"","type":"uint256","internalType":"uint256"}],"outputs":[{"name":"","type":"address","internalType":"contract PToken"}],"stateMutability":"view"},{"type":"function","name":"borrowCapGuardian","inputs":[],"outputs":[{"name":"","type":"address","internalType":"address"}],"stateMutability":"view"},{"type":"function","name":"borrowCaps","inputs":[{"name":"","type":"address","internalType":"address"}],"outputs":[{"name":"","type":"uint256","internalType":"uint256"}],"stateMutability":"view"},{"type":"function","name":"borrowGuardianPaused","inputs":[{"name":"","type":"address","internalType":"address"}],"outputs":[{"name":"","type":"bool","internalType":"bool"}],"stateMutability":"view"},{"type":"function","name":"closeFactorMantissa","inputs":[],"outputs":[{"name":"","type":"uint256","internalType":"uint256"}],"stateMutability":"view"},{"type":"function","name":"liquidationIncentiveMantissa","inputs":[],"outputs":[{"name":"","type":"uint256","internalType":"uint256"}],"stateMutability":"view"},{"type":"function","name":"markets","inputs":[{"name":"","type":"address","internalType":"address"}],"outputs":[{"name":"isListed","type":"bool","internalType":"bool"},{"name":"collateralFactorMantissa","type":"uint256","internalType":"uint256"},{"name":"isPeridoted","type":"bool","internalType":"bool"}],"stateMutability":"view"},{"type":"function","name":"maxAssets","inputs":[],"outputs":[{"name":"","type":"uint256","internalType":"uint256"}],"stateMutability":"view"},{"type":"function","name":"mintGuardianPaused","inputs":[{"name":"","type":"address","internalType":"address"}],"outputs":[{"name":"","type":"bool","internalType":"bool"}],"stateMutability":"view"},{"type":"function","name":"oracle","inputs":[],"outputs":[{"name":"","type":"address","internalType":"contract PriceOracle"}],"stateMutability":"view"},{"type":"function","name":"pauseGuardian","inputs":[],"outputs":[{"name":"","type":"address","internalType":"address"}],"stateMutability":"view"},{"type":"function","name":"pendingAdmin","inputs":[],"outputs":[{"name":"","type":"address","internalType":"address"}],"stateMutability":"view"},{"type":"function","name":"pendingPeridottrollerImplementation","inputs":[],"outputs":[{"name":"","type":"address","internalType":"address"}],"stateMutability":"view"},{"type":"function","name":"peridotAccrued","inputs":[{"name":"","type":"address","internalType":"address"}],"outputs":[{"name":"","type":"uint256","internalType":"uint256"}],"stateMutability":"view"},{"type":"function","name":"peridotBorrowState","inputs":[{"name":"","type":"address","internalType":"address"}],"outputs":[{"name":"index","type":"uint224","internalType":"uint224"},{"name":"block","type":"uint32","internalType":"uint32"}],"stateMutability":"view"},{"type":"function","name":"peridotBorrowerIndex","inputs":[{"name":"","type":"address","internalType":"address"},{"name":"","type":"address","internalType":"address"}],"outputs":[{"name":"","type":"uint256","internalType":"uint256"}],"stateMutability":"view"},{"type":"function","name":"peridotRate","inputs":[],"outputs":[{"name":"","type":"uint256","internalType":"uint256"}],"stateMutability":"view"},{"type":"function","name":"peridotSpeeds","inputs":[{"name":"","type":"address","internalType":"address"}],"outputs":[{"name":"","type":"uint256","internalType":"uint256"}],"stateMutability":"view"},{"type":"function","name":"peridotSupplierIndex","inputs":[{"name":"","type":"address","internalType":"address"},{"name":"","type":"address","internalType":"address"}],"outputs":[{"name":"","type":"uint256","internalType":"uint256"}],"stateMutability":"view"},{"type":"function","name":"peridotSupplyState","inputs":[{"name":"","type":"address","internalType":"address"}],"outputs":[{"name":"index","type":"uint224","internalType":"uint224"},{"name":"block","type":"uint32","internalType":"uint32"}],"stateMutability":"view"},{"type":"function","name":"peridottrollerImplementation","inputs":[],"outputs":[{"name":"","type":"address","internalType":"address"}],"stateMutability":"view"},{"type":"function","name":"seizeGuardianPaused","inputs":[],"outputs":[{"name":"","type":"bool","internalType":"bool"}],"stateMutability":"view"},{"type":"function","name":"transferGuardianPaused","inputs":[],"outputs":[{"name":"","type":"bool","internalType":"bool"}],"stateMutability":"view"}],"bytecode":{"object":"0x6080806040523460155761075f908161001a8239f35b5f80fdfe60806040526004361015610011575f80fd5b5f3560e01c80630aa4266f146106ad57806318f1408d1461068557806321af45691461065d57806324a3d62214610635578063267822471461060d578063328bb72b146105bc5780633c94786f146105975780634a5844321461055f5780634ada90af1461054257806352d84d1e146104de5780636d154ea5146104a1578063731f0c2b14610464578063794595f51461042c5780637c8f3a67146104045780637dc0d1d0146103dc57806387f76303146103b75780638e8f294b1461035e578063935dbd261461030d57806394b2294b146102f0578063a64db627146102a0578063ac0b0bb71461027b578063d002d98914610243578063d088864a14610226578063dce15449146101af578063e6653f3d1461018a578063e87554461461016d5763f851a44014610142575f80fd5b34610169575f366003190112610169575f546040516001600160a01b039091168152602090f35b5f80fd5b34610169575f366003190112610169576020600554604051908152f35b34610169575f36600319011261016957602060ff600a5460a81c166040519015158152f35b34610169576040366003190112610169576101c86106fd565b6001600160a01b03165f908152600860205260409020805460243590811015610169578154811015610212575f91825260209182902001546040516001600160a01b039091168152f35b634e487b7160e01b5f52603260045260245ffd5b34610169575f366003190112610169576020600e54604051908152f35b34610169576020366003190112610169576001600160a01b036102646106fd565b165f526014602052602060405f2054604051908152f35b34610169575f36600319011261016957602060ff600a5460b81c166040519015158152f35b34610169576040366003190112610169576102b96106fd565b6102c1610713565b6001600160a01b039182165f908152601360209081526040808320949093168252928352819020549051908152f35b34610169575f366003190112610169576020600754604051908152f35b34610169576020366003190112610169576001600160a01b0361032e6106fd565b165f908152601060209081526040918290205482516001600160e01b038216815260e09190911c91810191909152f35b34610169576020366003190112610169576001600160a01b0361037f6106fd565b165f526009602052606060405f2060ff8154169060ff6003600183015492015416906040519215158352602083015215156040820152f35b34610169575f36600319011261016957602060ff600a5460b01c166040519015158152f35b34610169575f366003190112610169576004546040516001600160a01b039091168152602090f35b34610169575f366003190112610169576003546040516001600160a01b039091168152602090f35b34610169576020366003190112610169576001600160a01b0361044d6106fd565b165f52600f602052602060405f2054604051908152f35b34610169576020366003190112610169576001600160a01b036104856106fd565b165f52600b602052602060ff60405f2054166040519015158152f35b34610169576020366003190112610169576001600160a01b036104c26106fd565b165f52600c602052602060ff60405f2054166040519015158152f35b3461016957602036600319011261016957600435600d5481101561016957600d5481101561021257600d5f527fd7b6990105719101dabeb77144f2a3385c8033acd3af97e9423a695e81ad1eb501546040516001600160a01b039091168152602090f35b34610169575f366003190112610169576020600654604051908152f35b34610169576020366003190112610169576001600160a01b036105806106fd565b165f526016602052602060405f2054604051908152f35b34610169575f36600319011261016957602060ff600a5460a01c166040519015158152f35b34610169576020366003190112610169576001600160a01b036105dd6106fd565b165f908152601160209081526040918290205482516001600160e01b038216815260e09190911c91810191909152f35b34610169575f366003190112610169576001546040516001600160a01b039091168152602090f35b34610169575f36600319011261016957600a546040516001600160a01b039091168152602090f35b34610169575f366003190112610169576015546040516001600160a01b039091168152602090f35b34610169575f366003190112610169576002546040516001600160a01b039091168152602090f35b34610169576040366003190112610169576106c66106fd565b6106ce610713565b6001600160a01b039182165f908152601260209081526040808320949093168252928352819020549051908152f35b600435906001600160a01b038216820361016957565b602435906001600160a01b03821682036101695756fea26469706673582212203c955296198f1aed772663fe71e171b02bfbdc48c3f2b187e0f84e92399f88e064736f6c634300081c0033","linkReferences":{}},"methodIdentifiers":{"_borrowGuardianPaused()":"e6653f3d","_mintGuardianPaused()":"3c94786f","accountAssets(address,uint256)":"dce15449","admin()":"f851a440","allMarkets(uint256)":"52d84d1e","borrowCapGuardian()":"21af4569","borrowCaps(address)":"4a584432","borrowGuardianPaused(address)":"6d154ea5","closeFactorMantissa()":"e8755446","liquidationIncentiveMantissa()":"4ada90af","markets(address)":"8e8f294b","maxAssets()":"94b2294b","mintGuardianPaused(address)":"731f0c2b","oracle()":"7dc0d1d0","pauseGuardian()":"24a3d622","pendingAdmin()":"26782247","pendingPeridottrollerImplementation()":"7c8f3a67","peridotAccrued(address)":"d002d989","peridotBorrowState(address)":"328bb72b","peridotBorrowerIndex(address,address)":"a64db627","peridotRate()":"d088864a","peridotSpeeds(address)":"794595f5","peridotSupplierIndex(address,address)":"0aa4266f","peridotSupplyState(address)":"935dbd26","peridottrollerImplementation()":"18f1408d","seizeGuardianPaused()":"ac0b0bb7","transferGuardianPaused()":"87f76303"},"id":41}