{"abi":[{"type":"function","name":"_borrowGuardianPaused","inputs":[],"outputs":[{"name":"","type":"bool","internalType":"bool"}],"stateMutability":"view"},{"type":"function","name":"_mintGuardianPaused","inputs":[],"outputs":[{"name":"","type":"bool","internalType":"bool"}],"stateMutability":"view"},{"type":"function","name":"accountAssets","inputs":[{"name":"","type":"address","internalType":"address"},{"name":"","type":"uint256","internalType":"uint256"}],"outputs":[{"name":"","type":"address","internalType":"contract PToken"}],"stateMutability":"view"},{"type":"function","name":"admin","inputs":[],"outputs":[{"name":"","type":"address","internalType":"address"}],"stateMutability":"view"},{"type":"function","name":"allMarkets","inputs":[{"name":"","type":"uint256","internalType":"uint256"}],"outputs":[{"name":"","type":"address","internalType":"contract PToken"}],"stateMutability":"view"},{"type":"function","name":"borrowGuardianPaused","inputs":[{"name":"","type":"address","internalType":"address"}],"outputs":[{"name":"","type":"bool","internalType":"bool"}],"stateMutability":"view"},{"type":"function","name":"closeFactorMantissa","inputs":[],"outputs":[{"name":"","type":"uint256","internalType":"uint256"}],"stateMutability":"view"},{"type":"function","name":"liquidationIncentiveMantissa","inputs":[],"outputs":[{"name":"","type":"uint256","internalType":"uint256"}],"stateMutability":"view"},{"type":"function","name":"markets","inputs":[{"name":"","type":"address","internalType":"address"}],"outputs":[{"name":"isListed","type":"bool","internalType":"bool"},{"name":"collateralFactorMantissa","type":"uint256","internalType":"uint256"},{"name":"isPeridoted","type":"bool","internalType":"bool"}],"stateMutability":"view"},{"type":"function","name":"maxAssets","inputs":[],"outputs":[{"name":"","type":"uint256","internalType":"uint256"}],"stateMutability":"view"},{"type":"function","name":"mintGuardianPaused","inputs":[{"name":"","type":"address","internalType":"address"}],"outputs":[{"name":"","type":"bool","internalType":"bool"}],"stateMutability":"view"},{"type":"function","name":"oracle","inputs":[],"outputs":[{"name":"","type":"address","internalType":"contract PriceOracle"}],"stateMutability":"view"},{"type":"function","name":"pauseGuardian","inputs":[],"outputs":[{"name":"","type":"address","internalType":"address"}],"stateMutability":"view"},{"type":"function","name":"pendingAdmin","inputs":[],"outputs":[{"name":"","type":"address","internalType":"address"}],"stateMutability":"view"},{"type":"function","name":"pendingPeridottrollerImplementation","inputs":[],"outputs":[{"name":"","type":"address","internalType":"address"}],"stateMutability":"view"},{"type":"function","name":"peridotAccrued","inputs":[{"name":"","type":"address","internalType":"address"}],"outputs":[{"name":"","type":"uint256","internalType":"uint256"}],"stateMutability":"view"},{"type":"function","name":"peridotBorrowState","inputs":[{"name":"","type":"address","internalType":"address"}],"outputs":[{"name":"index","type":"uint224","internalType":"uint224"},{"name":"block","type":"uint32","internalType":"uint32"}],"stateMutability":"view"},{"type":"function","name":"peridotBorrowerIndex","inputs":[{"name":"","type":"address","internalType":"address"},{"name":"","type":"address","internalType":"address"}],"outputs":[{"name":"","type":"uint256","internalType":"uint256"}],"stateMutability":"view"},{"type":"function","name":"peridotRate","inputs":[],"outputs":[{"name":"","type":"uint256","internalType":"uint256"}],"stateMutability":"view"},{"type":"function","name":"peridotSpeeds","inputs":[{"name":"","type":"address","internalType":"address"}],"outputs":[{"name":"","type":"uint256","internalType":"uint256"}],"stateMutability":"view"},{"type":"function","name":"peridotSupplierIndex","inputs":[{"name":"","type":"address","internalType":"address"},{"name":"","type":"address","internalType":"address"}],"outputs":[{"name":"","type":"uint256","internalType":"uint256"}],"stateMutability":"view"},{"type":"function","name":"peridotSupplyState","inputs":[{"name":"","type":"address","internalType":"address"}],"outputs":[{"name":"index","type":"uint224","internalType":"uint224"},{"name":"block","type":"uint32","internalType":"uint32"}],"stateMutability":"view"},{"type":"function","name":"peridottrollerImplementation","inputs":[],"outputs":[{"name":"","type":"address","internalType":"address"}],"stateMutability":"view"},{"type":"function","name":"seizeGuardianPaused","inputs":[],"outputs":[{"name":"","type":"bool","internalType":"bool"}],"stateMutability":"view"},{"type":"function","name":"transferGuardianPaused","inputs":[],"outputs":[{"name":"","type":"bool","internalType":"bool"}],"stateMutability":"view"}],"bytecode":{"object":"0x608080604052346015576106e9908161001a8239f35b5f80fdfe60806040526004361015610011575f80fd5b5f3560e01c80630aa4266f1461063757806318f1408d1461060f57806324a3d622146105e757806326782247146105bf578063328bb72b1461056e5780633c94786f146105495780634ada90af1461052c57806352d84d1e146104c85780636d154ea51461048b578063731f0c2b1461044e578063794595f5146104165780637c8f3a67146103ee5780637dc0d1d0146103c657806387f76303146103a15780638e8f294b14610348578063935dbd26146102f757806394b2294b146102da578063a64db6271461028a578063ac0b0bb714610265578063d002d9891461022d578063d088864a14610210578063dce1544914610199578063e6653f3d14610174578063e8755446146101575763f851a4401461012c575f80fd5b34610153575f366003190112610153575f546040516001600160a01b039091168152602090f35b5f80fd5b34610153575f366003190112610153576020600554604051908152f35b34610153575f36600319011261015357602060ff600a5460a81c166040519015158152f35b34610153576040366003190112610153576101b2610687565b6001600160a01b03165f9081526008602052604090208054602435908110156101535781548110156101fc575f91825260209182902001546040516001600160a01b039091168152f35b634e487b7160e01b5f52603260045260245ffd5b34610153575f366003190112610153576020600e54604051908152f35b34610153576020366003190112610153576001600160a01b0361024e610687565b165f526014602052602060405f2054604051908152f35b34610153575f36600319011261015357602060ff600a5460b81c166040519015158152f35b34610153576040366003190112610153576102a3610687565b6102ab61069d565b6001600160a01b039182165f908152601360209081526040808320949093168252928352819020549051908152f35b34610153575f366003190112610153576020600754604051908152f35b34610153576020366003190112610153576001600160a01b03610318610687565b165f908152601060209081526040918290205482516001600160e01b038216815260e09190911c91810191909152f35b34610153576020366003190112610153576001600160a01b03610369610687565b165f526009602052606060405f2060ff8154169060ff6003600183015492015416906040519215158352602083015215156040820152f35b34610153575f36600319011261015357602060ff600a5460b01c166040519015158152f35b34610153575f366003190112610153576004546040516001600160a01b039091168152602090f35b34610153575f366003190112610153576003546040516001600160a01b039091168152602090f35b34610153576020366003190112610153576001600160a01b03610437610687565b165f52600f602052602060405f2054604051908152f35b34610153576020366003190112610153576001600160a01b0361046f610687565b165f52600b602052602060ff60405f2054166040519015158152f35b34610153576020366003190112610153576001600160a01b036104ac610687565b165f52600c602052602060ff60405f2054166040519015158152f35b3461015357602036600319011261015357600435600d5481101561015357600d548110156101fc57600d5f527fd7b6990105719101dabeb77144f2a3385c8033acd3af97e9423a695e81ad1eb501546040516001600160a01b039091168152602090f35b34610153575f366003190112610153576020600654604051908152f35b34610153575f36600319011261015357602060ff600a5460a01c166040519015158152f35b34610153576020366003190112610153576001600160a01b0361058f610687565b165f908152601160209081526040918290205482516001600160e01b038216815260e09190911c91810191909152f35b34610153575f366003190112610153576001546040516001600160a01b039091168152602090f35b34610153575f36600319011261015357600a546040516001600160a01b039091168152602090f35b34610153575f366003190112610153576002546040516001600160a01b039091168152602090f35b3461015357604036600319011261015357610650610687565b61065861069d565b6001600160a01b039182165f908152601260209081526040808320949093168252928352819020549051908152f35b600435906001600160a01b038216820361015357565b602435906001600160a01b03821682036101535756fea2646970667358221220d23eb4c510761c7d8f93ad448fd9b0983c6eed6461f4340e42e26c021ee3995264736f6c634300081b0033","linkReferences":{}},"methodIdentifiers":{"_borrowGuardianPaused()":"e6653f3d","_mintGuardianPaused()":"3c94786f","accountAssets(address,uint256)":"dce15449","admin()":"f851a440","allMarkets(uint256)":"52d84d1e","borrowGuardianPaused(address)":"6d154ea5","closeFactorMantissa()":"e8755446","liquidationIncentiveMantissa()":"4ada90af","markets(address)":"8e8f294b","maxAssets()":"94b2294b","mintGuardianPaused(address)":"731f0c2b","oracle()":"7dc0d1d0","pauseGuardian()":"24a3d622","pendingAdmin()":"26782247","pendingPeridottrollerImplementation()":"7c8f3a67","peridotAccrued(address)":"d002d989","peridotBorrowState(address)":"328bb72b","peridotBorrowerIndex(address,address)":"a64db627","peridotRate()":"d088864a","peridotSpeeds(address)":"794595f5","peridotSupplierIndex(address,address)":"0aa4266f","peridotSupplyState(address)":"935dbd26","peridottrollerImplementation()":"18f1408d","seizeGuardianPaused()":"ac0b0bb7","transferGuardianPaused()":"87f76303"},"id":29}