{"abi":[{"type":"function","name":"_borrowGuardianPaused","inputs":[],"outputs":[{"name":"","type":"bool","internalType":"bool"}],"stateMutability":"view"},{"type":"function","name":"_mintGuardianPaused","inputs":[],"outputs":[{"name":"","type":"bool","internalType":"bool"}],"stateMutability":"view"},{"type":"function","name":"accountAssets","inputs":[{"name":"","type":"address","internalType":"address"},{"name":"","type":"uint256","internalType":"uint256"}],"outputs":[{"name":"","type":"address","internalType":"contract PToken"}],"stateMutability":"view"},{"type":"function","name":"admin","inputs":[],"outputs":[{"name":"","type":"address","internalType":"address"}],"stateMutability":"view"},{"type":"function","name":"borrowGuardianPaused","inputs":[{"name":"","type":"address","internalType":"address"}],"outputs":[{"name":"","type":"bool","internalType":"bool"}],"stateMutability":"view"},{"type":"function","name":"closeFactorMantissa","inputs":[],"outputs":[{"name":"","type":"uint256","internalType":"uint256"}],"stateMutability":"view"},{"type":"function","name":"liquidationIncentiveMantissa","inputs":[],"outputs":[{"name":"","type":"uint256","internalType":"uint256"}],"stateMutability":"view"},{"type":"function","name":"markets","inputs":[{"name":"","type":"address","internalType":"address"}],"outputs":[{"name":"isListed","type":"bool","internalType":"bool"},{"name":"collateralFactorMantissa","type":"uint256","internalType":"uint256"},{"name":"isPeridoted","type":"bool","internalType":"bool"}],"stateMutability":"view"},{"type":"function","name":"maxAssets","inputs":[],"outputs":[{"name":"","type":"uint256","internalType":"uint256"}],"stateMutability":"view"},{"type":"function","name":"mintGuardianPaused","inputs":[{"name":"","type":"address","internalType":"address"}],"outputs":[{"name":"","type":"bool","internalType":"bool"}],"stateMutability":"view"},{"type":"function","name":"oracle","inputs":[],"outputs":[{"name":"","type":"address","internalType":"contract PriceOracle"}],"stateMutability":"view"},{"type":"function","name":"pauseGuardian","inputs":[],"outputs":[{"name":"","type":"address","internalType":"address"}],"stateMutability":"view"},{"type":"function","name":"pendingAdmin","inputs":[],"outputs":[{"name":"","type":"address","internalType":"address"}],"stateMutability":"view"},{"type":"function","name":"pendingPeridottrollerImplementation","inputs":[],"outputs":[{"name":"","type":"address","internalType":"address"}],"stateMutability":"view"},{"type":"function","name":"peridottrollerImplementation","inputs":[],"outputs":[{"name":"","type":"address","internalType":"address"}],"stateMutability":"view"},{"type":"function","name":"seizeGuardianPaused","inputs":[],"outputs":[{"name":"","type":"bool","internalType":"bool"}],"stateMutability":"view"},{"type":"function","name":"transferGuardianPaused","inputs":[],"outputs":[{"name":"","type":"bool","internalType":"bool"}],"stateMutability":"view"}],"bytecode":{"object":"0x60808060405234601557610429908161001a8239f35b5f80fdfe6080806040526004361015610012575f80fd5b5f3560e01c90816318f1408d146103ba5750806324a3d62214610392578063267822471461036a5780633c94786f146103455780634ada90af146103285780636d154ea5146102eb578063731f0c2b146102ae5780637c8f3a67146102865780637dc0d1d01461025e57806387f76303146102395780638e8f294b146101e057806394b2294b146101c3578063ac0b0bb71461019e578063dce1544914610144578063e6653f3d1461011f578063e8755446146101025763f851a440146100d7575f80fd5b346100fe575f3660031901126100fe575f546040516001600160a01b039091168152602090f35b5f80fd5b346100fe575f3660031901126100fe576020600554604051908152f35b346100fe575f3660031901126100fe57602060ff600a5460a81c166040519015158152f35b346100fe5760403660031901126100fe5761015d6103dd565b6001600160a01b03165f9081526008602052604090208054602435908110156100fe575f91825260209182902001546040516001600160a01b039091168152f35b346100fe575f3660031901126100fe57602060ff600a5460b81c166040519015158152f35b346100fe575f3660031901126100fe576020600754604051908152f35b346100fe5760203660031901126100fe576001600160a01b036102016103dd565b165f526009602052606060405f2060ff8154169060ff6003600183015492015416906040519215158352602083015215156040820152f35b346100fe575f3660031901126100fe57602060ff600a5460b01c166040519015158152f35b346100fe575f3660031901126100fe576004546040516001600160a01b039091168152602090f35b346100fe575f3660031901126100fe576003546040516001600160a01b039091168152602090f35b346100fe5760203660031901126100fe576001600160a01b036102cf6103dd565b165f52600b602052602060ff60405f2054166040519015158152f35b346100fe5760203660031901126100fe576001600160a01b0361030c6103dd565b165f52600c602052602060ff60405f2054166040519015158152f35b346100fe575f3660031901126100fe576020600654604051908152f35b346100fe575f3660031901126100fe57602060ff600a5460a01c166040519015158152f35b346100fe575f3660031901126100fe576001546040516001600160a01b039091168152602090f35b346100fe575f3660031901126100fe57600a546040516001600160a01b039091168152602090f35b346100fe575f3660031901126100fe576002546001600160a01b03168152602090f35b600435906001600160a01b03821682036100fe5756fea264697066735822122001ce9b9208644348b71756fae851da1d840c114b00b9050ee864e1f9f4a6067e64736f6c634300081b0033","linkReferences":{}},"methodIdentifiers":{"_borrowGuardianPaused()":"e6653f3d","_mintGuardianPaused()":"3c94786f","accountAssets(address,uint256)":"dce15449","admin()":"f851a440","borrowGuardianPaused(address)":"6d154ea5","closeFactorMantissa()":"e8755446","liquidationIncentiveMantissa()":"4ada90af","markets(address)":"8e8f294b","maxAssets()":"94b2294b","mintGuardianPaused(address)":"731f0c2b","oracle()":"7dc0d1d0","pauseGuardian()":"24a3d622","pendingAdmin()":"26782247","pendingPeridottrollerImplementation()":"7c8f3a67","peridottrollerImplementation()":"18f1408d","seizeGuardianPaused()":"ac0b0bb7","transferGuardianPaused()":"87f76303"},"id":29}