{"abi":[{"type":"constructor","inputs":[{"name":"_router","type":"address","internalType":"address"}],"stateMutability":"nonpayable"},{"type":"function","name":"ccipReceive","inputs":[{"name":"message","type":"tuple","internalType":"struct Client.Any2EVMMessage","components":[{"name":"messageId","type":"bytes32","internalType":"bytes32"},{"name":"sourceChainSelector","type":"uint64","internalType":"uint64"},{"name":"sender","type":"bytes","internalType":"bytes"},{"name":"data","type":"bytes","internalType":"bytes"},{"name":"destTokenAmounts","type":"tuple[]","internalType":"struct Client.EVMTokenAmount[]","components":[{"name":"token","type":"address","internalType":"address"},{"name":"amount","type":"uint256","internalType":"uint256"}]}]}],"outputs":[],"stateMutability":"nonpayable"},{"type":"function","name":"getLatestMessageDetails","inputs":[],"outputs":[{"name":"messageId","type":"bytes32","internalType":"bytes32"},{"name":"sourceChainSelector","type":"uint64","internalType":"uint64"},{"name":"sender","type":"address","internalType":"address"},{"name":"message","type":"string","internalType":"string"}],"stateMutability":"view"},{"type":"function","name":"getRouter","inputs":[],"outputs":[{"name":"","type":"address","internalType":"address"}],"stateMutability":"view"},{"type":"function","name":"supportsInterface","inputs":[{"name":"interfaceId","type":"bytes4","internalType":"bytes4"}],"outputs":[{"name":"","type":"bool","internalType":"bool"}],"stateMutability":"view"},{"type":"event","name":"MessageReceived","inputs":[{"name":"messageId","type":"bytes32","indexed":true,"internalType":"bytes32"},{"name":"sourceChainSelector","type":"uint64","indexed":true,"internalType":"uint64"},{"name":"sender","type":"address","indexed":false,"internalType":"address"},{"name":"message","type":"string","indexed":false,"internalType":"string"}],"anonymous":false},{"type":"error","name":"InvalidRouter","inputs":[{"name":"router","type":"address","internalType":"address"}]}],"bytecode":{"object":"0x60a0604052348015600e575f5ffd5b506040516109ce3803806109ce833981016040819052602b916069565b806001600160a01b0381166058576040516335fdcccd60e21b81525f600482015260240160405180910390fd5b6001600160a01b0316608052506094565b5f602082840312156078575f5ffd5b81516001600160a01b0381168114608d575f5ffd5b9392505050565b60805161091c6100b25f395f818160b001526101e7015261091c5ff3fe608060405234801561000f575f5ffd5b506004361061004a575f3560e01c806301ffc9a71461004e5780633394e6f41461007657806385572ffb1461008e578063b0f479a1146100a3575b5f5ffd5b61006161005c36600461032e565b6100da565b60405190151581526020015b60405180910390f35b61007e610110565b60405161006d949392919061035c565b6100a161009c3660046103b7565b6101dc565b005b6040516001600160a01b037f000000000000000000000000000000000000000000000000000000000000000016815260200161006d565b5f6001600160e01b031982166385572ffb60e01b148061010a57506001600160e01b031982166301ffc9a760e01b145b92915050565b5f5f5f60605f5460015f9054906101000a90046001600160401b0316600160089054906101000a90046001600160a01b03166002808054610150906103ed565b80601f016020809104026020016040519081016040528092919081815260200182805461017c906103ed565b80156101c75780601f1061019e576101008083540402835291602001916101c7565b820191905f5260205f20905b8154815290600101906020018083116101aa57829003601f168201915b50505050509050935093509350935090919293565b336001600160a01b037f0000000000000000000000000000000000000000000000000000000000000000161461022b576040516335fdcccd60e21b815233600482015260240160405180910390fd5b61023c61023782610607565b61023f565b50565b80515f556020808201516001805467ffffffffffffffff19166001600160401b039092169190911790556040820151805161028092908201810191016106b8565b600160086101000a8154816001600160a01b0302191690836001600160a01b0316021790555080606001518060200190518101906102be91906106d3565b6002906102cb9082610793565b506001545f546040516001600160401b038316927fb1e312a29937cc11967b0e4a346fef1ae132424ebaba9dc6d90249dba053e87c91610323916801000000000000000090046001600160a01b03169060029061084d565b60405180910390a350565b5f6020828403121561033e575f5ffd5b81356001600160e01b031981168114610355575f5ffd5b9392505050565b8481526001600160401b038416602082015260018060a01b0383166040820152608060608201525f8251806080840152806020850160a085015e5f60a0828501015260a0601f19601f83011684010191505095945050505050565b5f602082840312156103c7575f5ffd5b81356001600160401b038111156103dc575f5ffd5b820160a08185031215610355575f5ffd5b600181811c9082168061040157607f821691505b60208210810361041f57634e487b7160e01b5f52602260045260245ffd5b50919050565b634e487b7160e01b5f52604160045260245ffd5b604080519081016001600160401b038111828210171561045b5761045b610425565b60405290565b60405160a081016001600160401b038111828210171561045b5761045b610425565b604051601f8201601f191681016001600160401b03811182821017156104ab576104ab610425565b604052919050565b80356001600160401b03811681146104c9575f5ffd5b919050565b5f6001600160401b038211156104e6576104e6610425565b50601f01601f191660200190565b5f82601f830112610503575f5ffd5b8135610516610511826104ce565b610483565b81815284602083860101111561052a575f5ffd5b816020850160208301375f918101602001919091529392505050565b6001600160a01b038116811461023c575f5ffd5b5f82601f830112610569575f5ffd5b81356001600160401b0381111561058257610582610425565b61059160208260051b01610483565b8082825260208201915060208360061b8601019250858311156105b2575f5ffd5b602085015b838110156105fd57604081880312156105ce575f5ffd5b6105d6610439565b81356105e181610546565b81526020828101358183015290845292909201916040016105b7565b5095945050505050565b5f60a08236031215610617575f5ffd5b61061f610461565b8235815261062f602084016104b3565b602082015260408301356001600160401b0381111561064c575f5ffd5b610658368286016104f4565b60408301525060608301356001600160401b03811115610676575f5ffd5b610682368286016104f4565b60608301525060808301356001600160401b038111156106a0575f5ffd5b6106ac3682860161055a565b60808301525092915050565b5f602082840312156106c8575f5ffd5b815161035581610546565b5f602082840312156106e3575f5ffd5b81516001600160401b038111156106f8575f5ffd5b8201601f81018413610708575f5ffd5b8051610716610511826104ce565b81815285602083850101111561072a575f5ffd5b8160208401602083015e5f91810160200191909152949350505050565b601f82111561078e57805f5260205f20601f840160051c8101602085101561076c5750805b601f840160051c820191505b8181101561078b575f8155600101610778565b50505b505050565b81516001600160401b038111156107ac576107ac610425565b6107c0816107ba84546103ed565b84610747565b6020601f8211600181146107f2575f83156107db5750848201515b5f19600385901b1c1916600184901b17845561078b565b5f84815260208120601f198516915b828110156108215787850151825560209485019460019092019101610801565b508482101561083e57868401515f19600387901b60f8161c191681555b50505050600190811b01905550565b6001600160a01b03831681526040602082015281545f90819061086f816103ed565b806040860152600182165f811461088d57600181146108a9576108da565b60ff1983166060870152606082151560051b87010193506108da565b865f5260205f205f5b838110156108d1578154888201606001526001909101906020016108b2565b87016060019450505b5091969550505050505056fea2646970667358221220e678367aad77a1c6851feba3e146594f304b9d53db57bfc60f11431b63f9b6a464736f6c634300081b0033","linkReferences":{}},"methodIdentifiers":{"ccipReceive((bytes32,uint64,bytes,bytes,(address,uint256)[]))":"85572ffb","getLatestMessageDetails()":"3394e6f4","getRouter()":"b0f479a1","supportsInterface(bytes4)":"01ffc9a7"},"id":34}