{"abi":[{"type":"constructor","inputs":[{"name":"_router","type":"address","internalType":"address"}],"stateMutability":"nonpayable"},{"type":"function","name":"ccipReceive","inputs":[{"name":"message","type":"tuple","internalType":"struct Client.Any2EVMMessage","components":[{"name":"messageId","type":"bytes32","internalType":"bytes32"},{"name":"sourceChainSelector","type":"uint64","internalType":"uint64"},{"name":"sender","type":"bytes","internalType":"bytes"},{"name":"data","type":"bytes","internalType":"bytes"},{"name":"destTokenAmounts","type":"tuple[]","internalType":"struct Client.EVMTokenAmount[]","components":[{"name":"token","type":"address","internalType":"address"},{"name":"amount","type":"uint256","internalType":"uint256"}]}]}],"outputs":[],"stateMutability":"nonpayable"},{"type":"function","name":"getLatestMessageDetails","inputs":[],"outputs":[{"name":"messageId","type":"bytes32","internalType":"bytes32"},{"name":"sourceChainSelector","type":"uint64","internalType":"uint64"},{"name":"sender","type":"address","internalType":"address"},{"name":"message","type":"string","internalType":"string"}],"stateMutability":"view"},{"type":"function","name":"getRouter","inputs":[],"outputs":[{"name":"","type":"address","internalType":"address"}],"stateMutability":"view"},{"type":"function","name":"supportsInterface","inputs":[{"name":"interfaceId","type":"bytes4","internalType":"bytes4"}],"outputs":[{"name":"","type":"bool","internalType":"bool"}],"stateMutability":"view"},{"type":"event","name":"MessageReceived","inputs":[{"name":"messageId","type":"bytes32","indexed":true,"internalType":"bytes32"},{"name":"sourceChainSelector","type":"uint64","indexed":true,"internalType":"uint64"},{"name":"sender","type":"address","indexed":false,"internalType":"address"},{"name":"message","type":"string","indexed":false,"internalType":"string"}],"anonymous":false},{"type":"error","name":"InvalidRouter","inputs":[{"name":"router","type":"address","internalType":"address"}]}],"bytecode":{"object":"0x60a034608357601f61085d38819003918201601f19168301916001600160401b03831184841017608757808492602094604052833981010312608357516001600160a01b038116808203608357156070576080526040516107c1908161009c8239608051818181605d015260c20152f35b6335fdcccd60e21b5f525f60045260245ffd5b5f80fd5b634e487b7160e01b5f52604160045260245ffdfe6080806040526004361015610012575f80fd5b5f3560e01c90816301ffc9a71461065e575080633394e6f41461055b57806385572ffb146100905763b0f479a114610048575f80fd5b3461008c575f36600319011261008c576040517f00000000000000000000000000000000000000000000000000000000000000006001600160a01b03168152602090f35b5f80fd5b3461008c57602036600319011261008c576004356001600160401b03811161008c5760a0600319823603011261008c577f00000000000000000000000000000000000000000000000000000000000000006001600160a01b03163303610548576040519060a082018281106001600160401b038211176104df576040528060040135825260248101356001600160401b038116810361008c576020830190815260448201356001600160401b03811161008c576101539060043691850101610725565b906040840191825260648301356001600160401b03811161008c5761017e9060043691860101610725565b92606085019384526084810135906001600160401b03821161008c5701933660238601121561008c576004850135946001600160401b0386116104df57604051906101cf60208860051b01836106e9565b868252602060048184019860061b830101019036821161008c57602401965b8188106104f3575050906001600160401b0392916080820152515f555116600154915160208180518101031261008c57602001516001600160a01b038116810361008c5768010000000000000000600160e01b039060401b169163ffffffff60e01b16171760015551805181019060208181840193031261008c576020810151906001600160401b03821161008c570181603f8201121561008c576020810151906102988261070a565b926102a660405194856106e9565b8284526040828401011161008c57815f926040602093018386015e8301015280516001600160401b0381116104df576102e06002546106b1565b601f8111610477575b50602091601f821160011461040c579181925f92610401575b50508160011b915f199060031b1c1916176002555b5f546001549060405160018060a01b038360401c168152604060208201525f92600254610343816106b1565b908160408501526001811690815f146103df5750600114610393575b5090806001600160401b037fb1e312a29937cc11967b0e4a346fef1ae132424ebaba9dc6d90249dba053e87c9316940390a3005b9190935060025f525f51602061076c5f395f51905f52915f905b8082106103c457508101606001939091508161035f565b919260018160209254606085880101520191019092916103ad565b60ff191660608086019190915291151560051b8401909101945082905061035f565b015190508280610302565b601f1982169260025f525f51602061076c5f395f51905f52915f5b85811061045f57508360019510610447575b505050811b01600255610317565b01515f1960f88460031b161c19169055828080610439565b91926020600181928685015181550194019201610427565b60025f52601f820160051c5f51602061076c5f395f51905f520190602083106104ca575b601f0160051c5f51602061076c5f395f51905f5201905b8181106104bf57506102e9565b5f81556001016104b2565b5f51602061076c5f395f51905f52915061049b565b634e487b7160e01b5f52604160045260245ffd5b60408836031261008c5760405190604082018281106001600160401b038211176104df576040528835906001600160a01b038216820361008c578260209260409452828b0135838201528152019701966101ee565b6335fdcccd60e21b5f523360045260245ffd5b3461008c575f36600319011261008c575f54600154604051915f9260025490610583826106b1565b80825260208201926001811690811561064357506001146105ff575b506105af8160a0959603826106e9565b60405194859384526001600160401b0381166020850152600180861b039060401c166040840152608060608401525180918160808501528484015e5f828201840152601f01601f19168101030190f35b945060025f525f51602061076c5f395f51905f525f905b86821061062d5750810160200194506105af61059f565b6001816020925483858701015201910190610616565b60ff1916845250151560051b810160200194506105af61059f565b3461008c57602036600319011261008c576004359063ffffffff60e01b821680920361008c576020916385572ffb60e01b81149081156106a0575b5015158152f35b6301ffc9a760e01b14905083610699565b90600182811c921680156106df575b60208310146106cb57565b634e487b7160e01b5f52602260045260245ffd5b91607f16916106c0565b90601f801991011681019081106001600160401b038211176104df57604052565b6001600160401b0381116104df57601f01601f191660200190565b81601f8201121561008c5780359061073c8261070a565b9261074a60405194856106e9565b8284526020838301011161008c57815f92602080930183860137830101529056fe405787fa12a823e0f2b7631cc41b3ba8828b3321ca811111fa75cd3aa3bb5acea26469706673582212201c0db8ff0848366afb283cc61cea1a84cd3c07a76cc45fd11daf5b64a1ee024d64736f6c634300081b0033","linkReferences":{}},"methodIdentifiers":{"ccipReceive((bytes32,uint64,bytes,bytes,(address,uint256)[]))":"85572ffb","getLatestMessageDetails()":"3394e6f4","getRouter()":"b0f479a1","supportsInterface(bytes4)":"01ffc9a7"},"id":37}