{"abi":[{"type":"function","name":"EVM_EXTRA_ARGS_V1_TAG","inputs":[],"outputs":[{"name":"","type":"bytes4","internalType":"bytes4"}],"stateMutability":"view"},{"type":"function","name":"GENERIC_EXTRA_ARGS_V2_TAG","inputs":[],"outputs":[{"name":"","type":"bytes4","internalType":"bytes4"}],"stateMutability":"view"},{"type":"function","name":"SVM_ACCOUNT_BYTE_SIZE","inputs":[],"outputs":[{"name":"","type":"uint256","internalType":"uint256"}],"stateMutability":"view"},{"type":"function","name":"SVM_EXTRA_ARGS_MAX_ACCOUNTS","inputs":[],"outputs":[{"name":"","type":"uint256","internalType":"uint256"}],"stateMutability":"view"},{"type":"function","name":"SVM_EXTRA_ARGS_V1_TAG","inputs":[],"outputs":[{"name":"","type":"bytes4","internalType":"bytes4"}],"stateMutability":"view"},{"type":"function","name":"SVM_MESSAGING_ACCOUNTS_OVERHEAD","inputs":[],"outputs":[{"name":"","type":"uint256","internalType":"uint256"}],"stateMutability":"view"},{"type":"function","name":"SVM_TOKEN_TRANSFER_DATA_OVERHEAD","inputs":[],"outputs":[{"name":"","type":"uint256","internalType":"uint256"}],"stateMutability":"view"}],"bytecode":{"object":"0x610125610034600b8282823980515f1a607314602857634e487b7160e01b5f525f60045260245ffd5b305f52607381538281f3fe7300000000000000000000000000000000000000003014608060405260043610607c575f3560e01c806371953f6011605d57806371953f601460c65780637498e3551460cd5780639713cbbd1460da578063a5dd87d81460e2575f5ffd5b80631ac428f81460805780633ab8c0d014609a5780635dd8ee3e1460bf575b5f5ffd5b6087604081565b6040519081526020015b60405180910390f35b60a76397a657c960e01b81565b6040516001600160e01b031990911681526020016091565b6087600281565b6087602081565b60a7630181dcf160e41b81565b608761012c81565b60a7630f9d9d5d60e11b8156fea2646970667358221220592012635f47b582908fd95065b432b14494573f7e0e85a135cadf70074e208a64736f6c634300081b0033","linkReferences":{}},"methodIdentifiers":{"EVM_EXTRA_ARGS_V1_TAG()":"3ab8c0d0","GENERIC_EXTRA_ARGS_V2_TAG()":"7498e355","SVM_ACCOUNT_BYTE_SIZE()":"71953f60","SVM_EXTRA_ARGS_MAX_ACCOUNTS()":"1ac428f8","SVM_EXTRA_ARGS_V1_TAG()":"a5dd87d8","SVM_MESSAGING_ACCOUNTS_OVERHEAD()":"5dd8ee3e","SVM_TOKEN_TRANSFER_DATA_OVERHEAD()":"9713cbbd"},"id":64}