{"abi":[{"type":"function","name":"NO_ERROR","inputs":[],"outputs":[{"name":"","type":"uint256","internalType":"uint256"}],"stateMutability":"view"},{"type":"function","name":"_acceptAdmin","inputs":[],"outputs":[{"name":"","type":"uint256","internalType":"uint256"}],"stateMutability":"nonpayable"},{"type":"function","name":"_addReserves","inputs":[{"name":"addAmount","type":"uint256","internalType":"uint256"}],"outputs":[{"name":"","type":"uint256","internalType":"uint256"}],"stateMutability":"nonpayable"},{"type":"function","name":"_delegatePeridotLikeTo","inputs":[{"name":"peridotLikeDelegatee","type":"address","internalType":"address"}],"outputs":[],"stateMutability":"nonpayable"},{"type":"function","name":"_reduceReserves","inputs":[{"name":"reduceAmount","type":"uint256","internalType":"uint256"}],"outputs":[{"name":"","type":"uint256","internalType":"uint256"}],"stateMutability":"nonpayable"},{"type":"function","name":"_setFlashLoanFee","inputs":[{"name":"newFeeBps","type":"uint256","internalType":"uint256"}],"outputs":[{"name":"","type":"uint256","internalType":"uint256"}],"stateMutability":"nonpayable"},{"type":"function","name":"_setFlashLoansPaused","inputs":[{"name":"state","type":"bool","internalType":"bool"}],"outputs":[{"name":"","type":"bool","internalType":"bool"}],"stateMutability":"nonpayable"},{"type":"function","name":"_setInterestRateModel","inputs":[{"name":"newInterestRateModel","type":"address","internalType":"contract InterestRateModel"}],"outputs":[{"name":"","type":"uint256","internalType":"uint256"}],"stateMutability":"nonpayable"},{"type":"function","name":"_setMaxFlashLoanRatio","inputs":[{"name":"newMaxRatio","type":"uint256","internalType":"uint256"}],"outputs":[{"name":"","type":"uint256","internalType":"uint256"}],"stateMutability":"nonpayable"},{"type":"function","name":"_setPendingAdmin","inputs":[{"name":"newPendingAdmin","type":"address","internalType":"address payable"}],"outputs":[{"name":"","type":"uint256","internalType":"uint256"}],"stateMutability":"nonpayable"},{"type":"function","name":"_setPeridottroller","inputs":[{"name":"newPeridottroller","type":"address","internalType":"contract PeridottrollerInterface"}],"outputs":[{"name":"","type":"uint256","internalType":"uint256"}],"stateMutability":"nonpayable"},{"type":"function","name":"_setReserveFactor","inputs":[{"name":"newReserveFactorMantissa","type":"uint256","internalType":"uint256"}],"outputs":[{"name":"","type":"uint256","internalType":"uint256"}],"stateMutability":"nonpayable"},{"type":"function","name":"accrualBlockNumber","inputs":[],"outputs":[{"name":"","type":"uint256","internalType":"uint256"}],"stateMutability":"view"},{"type":"function","name":"accrueInterest","inputs":[],"outputs":[{"name":"","type":"uint256","internalType":"uint256"}],"stateMutability":"nonpayable"},{"type":"function","name":"admin","inputs":[],"outputs":[{"name":"","type":"address","internalType":"address payable"}],"stateMutability":"view"},{"type":"function","name":"allowance","inputs":[{"name":"owner","type":"address","internalType":"address"},{"name":"spender","type":"address","internalType":"address"}],"outputs":[{"name":"","type":"uint256","internalType":"uint256"}],"stateMutability":"view"},{"type":"function","name":"approve","inputs":[{"name":"spender","type":"address","internalType":"address"},{"name":"amount","type":"uint256","internalType":"uint256"}],"outputs":[{"name":"","type":"bool","internalType":"bool"}],"stateMutability":"nonpayable"},{"type":"function","name":"balanceOf","inputs":[{"name":"owner","type":"address","internalType":"address"}],"outputs":[{"name":"","type":"uint256","internalType":"uint256"}],"stateMutability":"view"},{"type":"function","name":"balanceOfUnderlying","inputs":[{"name":"owner","type":"address","internalType":"address"}],"outputs":[{"name":"","type":"uint256","internalType":"uint256"}],"stateMutability":"nonpayable"},{"type":"function","name":"borrow","inputs":[{"name":"borrowAmount","type":"uint256","internalType":"uint256"}],"outputs":[{"name":"","type":"uint256","internalType":"uint256"}],"stateMutability":"nonpayable"},{"type":"function","name":"borrowBalanceCurrent","inputs":[{"name":"account","type":"address","internalType":"address"}],"outputs":[{"name":"","type":"uint256","internalType":"uint256"}],"stateMutability":"nonpayable"},{"type":"function","name":"borrowBalanceStored","inputs":[{"name":"account","type":"address","internalType":"address"}],"outputs":[{"name":"","type":"uint256","internalType":"uint256"}],"stateMutability":"view"},{"type":"function","name":"borrowIndex","inputs":[],"outputs":[{"name":"","type":"uint256","internalType":"uint256"}],"stateMutability":"view"},{"type":"function","name":"borrowRatePerBlock","inputs":[],"outputs":[{"name":"","type":"uint256","internalType":"uint256"}],"stateMutability":"view"},{"type":"function","name":"decimals","inputs":[],"outputs":[{"name":"","type":"uint8","internalType":"uint8"}],"stateMutability":"view"},{"type":"function","name":"exchangeRateCurrent","inputs":[],"outputs":[{"name":"","type":"uint256","internalType":"uint256"}],"stateMutability":"nonpayable"},{"type":"function","name":"exchangeRateStored","inputs":[],"outputs":[{"name":"","type":"uint256","internalType":"uint256"}],"stateMutability":"view"},{"type":"function","name":"flashFee","inputs":[{"name":"token","type":"address","internalType":"address"},{"name":"amount","type":"uint256","internalType":"uint256"}],"outputs":[{"name":"","type":"uint256","internalType":"uint256"}],"stateMutability":"view"},{"type":"function","name":"flashLoan","inputs":[{"name":"receiver","type":"address","internalType":"contract IERC3156FlashBorrower"},{"name":"token","type":"address","internalType":"address"},{"name":"amount","type":"uint256","internalType":"uint256"},{"name":"data","type":"bytes","internalType":"bytes"}],"outputs":[{"name":"","type":"bool","internalType":"bool"}],"stateMutability":"nonpayable"},{"type":"function","name":"flashLoanFeeBps","inputs":[],"outputs":[{"name":"","type":"uint256","internalType":"uint256"}],"stateMutability":"view"},{"type":"function","name":"flashLoansPaused","inputs":[],"outputs":[{"name":"","type":"bool","internalType":"bool"}],"stateMutability":"view"},{"type":"function","name":"getAccountSnapshot","inputs":[{"name":"account","type":"address","internalType":"address"}],"outputs":[{"name":"","type":"uint256","internalType":"uint256"},{"name":"","type":"uint256","internalType":"uint256"},{"name":"","type":"uint256","internalType":"uint256"},{"name":"","type":"uint256","internalType":"uint256"}],"stateMutability":"view"},{"type":"function","name":"getCash","inputs":[],"outputs":[{"name":"","type":"uint256","internalType":"uint256"}],"stateMutability":"view"},{"type":"function","name":"initialize","inputs":[{"name":"underlying_","type":"address","internalType":"address"},{"name":"peridottroller_","type":"address","internalType":"contract PeridottrollerInterface"},{"name":"interestRateModel_","type":"address","internalType":"contract InterestRateModel"},{"name":"initialExchangeRateMantissa_","type":"uint256","internalType":"uint256"},{"name":"name_","type":"string","internalType":"string"},{"name":"symbol_","type":"string","internalType":"string"},{"name":"decimals_","type":"uint8","internalType":"uint8"}],"outputs":[],"stateMutability":"nonpayable"},{"type":"function","name":"initialize","inputs":[{"name":"peridottroller_","type":"address","internalType":"contract PeridottrollerInterface"},{"name":"interestRateModel_","type":"address","internalType":"contract InterestRateModel"},{"name":"initialExchangeRateMantissa_","type":"uint256","internalType":"uint256"},{"name":"name_","type":"string","internalType":"string"},{"name":"symbol_","type":"string","internalType":"string"},{"name":"decimals_","type":"uint8","internalType":"uint8"}],"outputs":[],"stateMutability":"nonpayable"},{"type":"function","name":"interestRateModel","inputs":[],"outputs":[{"name":"","type":"address","internalType":"contract InterestRateModel"}],"stateMutability":"view"},{"type":"function","name":"isPToken","inputs":[],"outputs":[{"name":"","type":"bool","internalType":"bool"}],"stateMutability":"view"},{"type":"function","name":"liquidateBorrow","inputs":[{"name":"borrower","type":"address","internalType":"address"},{"name":"repayAmount","type":"uint256","internalType":"uint256"},{"name":"pTokenCollateral","type":"address","internalType":"contract PTokenInterface"}],"outputs":[{"name":"","type":"uint256","internalType":"uint256"}],"stateMutability":"nonpayable"},{"type":"function","name":"maxFlashLoan","inputs":[{"name":"token","type":"address","internalType":"address"}],"outputs":[{"name":"","type":"uint256","internalType":"uint256"}],"stateMutability":"view"},{"type":"function","name":"maxFlashLoanRatio","inputs":[],"outputs":[{"name":"","type":"uint256","internalType":"uint256"}],"stateMutability":"view"},{"type":"function","name":"mint","inputs":[{"name":"mintAmount","type":"uint256","internalType":"uint256"}],"outputs":[{"name":"","type":"uint256","internalType":"uint256"}],"stateMutability":"nonpayable"},{"type":"function","name":"name","inputs":[],"outputs":[{"name":"","type":"string","internalType":"string"}],"stateMutability":"view"},{"type":"function","name":"pendingAdmin","inputs":[],"outputs":[{"name":"","type":"address","internalType":"address payable"}],"stateMutability":"view"},{"type":"function","name":"peridottroller","inputs":[],"outputs":[{"name":"","type":"address","internalType":"contract PeridottrollerInterface"}],"stateMutability":"view"},{"type":"function","name":"protocolSeizeShareMantissa","inputs":[],"outputs":[{"name":"","type":"uint256","internalType":"uint256"}],"stateMutability":"view"},{"type":"function","name":"redeem","inputs":[{"name":"redeemTokens","type":"uint256","internalType":"uint256"}],"outputs":[{"name":"","type":"uint256","internalType":"uint256"}],"stateMutability":"nonpayable"},{"type":"function","name":"redeemUnderlying","inputs":[{"name":"redeemAmount","type":"uint256","internalType":"uint256"}],"outputs":[{"name":"","type":"uint256","internalType":"uint256"}],"stateMutability":"nonpayable"},{"type":"function","name":"repayBorrow","inputs":[{"name":"repayAmount","type":"uint256","internalType":"uint256"}],"outputs":[{"name":"","type":"uint256","internalType":"uint256"}],"stateMutability":"nonpayable"},{"type":"function","name":"repayBorrowBehalf","inputs":[{"name":"borrower","type":"address","internalType":"address"},{"name":"repayAmount","type":"uint256","internalType":"uint256"}],"outputs":[{"name":"","type":"uint256","internalType":"uint256"}],"stateMutability":"nonpayable"},{"type":"function","name":"reserveFactorMantissa","inputs":[],"outputs":[{"name":"","type":"uint256","internalType":"uint256"}],"stateMutability":"view"},{"type":"function","name":"seize","inputs":[{"name":"liquidator","type":"address","internalType":"address"},{"name":"borrower","type":"address","internalType":"address"},{"name":"seizeTokens","type":"uint256","internalType":"uint256"}],"outputs":[{"name":"","type":"uint256","internalType":"uint256"}],"stateMutability":"nonpayable"},{"type":"function","name":"supplyRatePerBlock","inputs":[],"outputs":[{"name":"","type":"uint256","internalType":"uint256"}],"stateMutability":"view"},{"type":"function","name":"sweepToken","inputs":[{"name":"token","type":"address","internalType":"contract EIP20NonStandardInterface"}],"outputs":[],"stateMutability":"nonpayable"},{"type":"function","name":"symbol","inputs":[],"outputs":[{"name":"","type":"string","internalType":"string"}],"stateMutability":"view"},{"type":"function","name":"totalBorrows","inputs":[],"outputs":[{"name":"","type":"uint256","internalType":"uint256"}],"stateMutability":"view"},{"type":"function","name":"totalBorrowsCurrent","inputs":[],"outputs":[{"name":"","type":"uint256","internalType":"uint256"}],"stateMutability":"nonpayable"},{"type":"function","name":"totalReserves","inputs":[],"outputs":[{"name":"","type":"uint256","internalType":"uint256"}],"stateMutability":"view"},{"type":"function","name":"totalSupply","inputs":[],"outputs":[{"name":"","type":"uint256","internalType":"uint256"}],"stateMutability":"view"},{"type":"function","name":"transfer","inputs":[{"name":"dst","type":"address","internalType":"address"},{"name":"amount","type":"uint256","internalType":"uint256"}],"outputs":[{"name":"","type":"bool","internalType":"bool"}],"stateMutability":"nonpayable"},{"type":"function","name":"transferFrom","inputs":[{"name":"src","type":"address","internalType":"address"},{"name":"dst","type":"address","internalType":"address"},{"name":"amount","type":"uint256","internalType":"uint256"}],"outputs":[{"name":"","type":"bool","internalType":"bool"}],"stateMutability":"nonpayable"},{"type":"function","name":"underlying","inputs":[],"outputs":[{"name":"","type":"address","internalType":"address"}],"stateMutability":"view"},{"type":"event","name":"AccrueInterest","inputs":[{"name":"cashPrior","type":"uint256","indexed":false,"internalType":"uint256"},{"name":"interestAccumulated","type":"uint256","indexed":false,"internalType":"uint256"},{"name":"borrowIndex","type":"uint256","indexed":false,"internalType":"uint256"},{"name":"totalBorrows","type":"uint256","indexed":false,"internalType":"uint256"}],"anonymous":false},{"type":"event","name":"Approval","inputs":[{"name":"owner","type":"address","indexed":true,"internalType":"address"},{"name":"spender","type":"address","indexed":true,"internalType":"address"},{"name":"amount","type":"uint256","indexed":false,"internalType":"uint256"}],"anonymous":false},{"type":"event","name":"Borrow","inputs":[{"name":"borrower","type":"address","indexed":false,"internalType":"address"},{"name":"borrowAmount","type":"uint256","indexed":false,"internalType":"uint256"},{"name":"accountBorrows","type":"uint256","indexed":false,"internalType":"uint256"},{"name":"totalBorrows","type":"uint256","indexed":false,"internalType":"uint256"}],"anonymous":false},{"type":"event","name":"FlashLoan","inputs":[{"name":"receiver","type":"address","indexed":true,"internalType":"address"},{"name":"token","type":"address","indexed":true,"internalType":"address"},{"name":"amount","type":"uint256","indexed":false,"internalType":"uint256"},{"name":"fee","type":"uint256","indexed":false,"internalType":"uint256"}],"anonymous":false},{"type":"event","name":"FlashLoansPaused","inputs":[{"name":"paused","type":"bool","indexed":false,"internalType":"bool"}],"anonymous":false},{"type":"event","name":"LiquidateBorrow","inputs":[{"name":"liquidator","type":"address","indexed":false,"internalType":"address"},{"name":"borrower","type":"address","indexed":false,"internalType":"address"},{"name":"repayAmount","type":"uint256","indexed":false,"internalType":"uint256"},{"name":"pTokenCollateral","type":"address","indexed":false,"internalType":"address"},{"name":"seizeTokens","type":"uint256","indexed":false,"internalType":"uint256"}],"anonymous":false},{"type":"event","name":"Mint","inputs":[{"name":"minter","type":"address","indexed":false,"internalType":"address"},{"name":"mintAmount","type":"uint256","indexed":false,"internalType":"uint256"},{"name":"mintTokens","type":"uint256","indexed":false,"internalType":"uint256"}],"anonymous":false},{"type":"event","name":"NewAdmin","inputs":[{"name":"oldAdmin","type":"address","indexed":false,"internalType":"address"},{"name":"newAdmin","type":"address","indexed":false,"internalType":"address"}],"anonymous":false},{"type":"event","name":"NewFlashLoanFee","inputs":[{"name":"oldFeeBps","type":"uint256","indexed":false,"internalType":"uint256"},{"name":"newFeeBps","type":"uint256","indexed":false,"internalType":"uint256"}],"anonymous":false},{"type":"event","name":"NewMarketInterestRateModel","inputs":[{"name":"oldInterestRateModel","type":"address","indexed":false,"internalType":"contract InterestRateModel"},{"name":"newInterestRateModel","type":"address","indexed":false,"internalType":"contract InterestRateModel"}],"anonymous":false},{"type":"event","name":"NewMaxFlashLoanRatio","inputs":[{"name":"oldMaxRatio","type":"uint256","indexed":false,"internalType":"uint256"},{"name":"newMaxRatio","type":"uint256","indexed":false,"internalType":"uint256"}],"anonymous":false},{"type":"event","name":"NewPendingAdmin","inputs":[{"name":"oldPendingAdmin","type":"address","indexed":false,"internalType":"address"},{"name":"newPendingAdmin","type":"address","indexed":false,"internalType":"address"}],"anonymous":false},{"type":"event","name":"NewPeridottroller","inputs":[{"name":"oldPeridottroller","type":"address","indexed":false,"internalType":"contract PeridottrollerInterface"},{"name":"newPeridottroller","type":"address","indexed":false,"internalType":"contract PeridottrollerInterface"}],"anonymous":false},{"type":"event","name":"NewReserveFactor","inputs":[{"name":"oldReserveFactorMantissa","type":"uint256","indexed":false,"internalType":"uint256"},{"name":"newReserveFactorMantissa","type":"uint256","indexed":false,"internalType":"uint256"}],"anonymous":false},{"type":"event","name":"Redeem","inputs":[{"name":"redeemer","type":"address","indexed":false,"internalType":"address"},{"name":"redeemAmount","type":"uint256","indexed":false,"internalType":"uint256"},{"name":"redeemTokens","type":"uint256","indexed":false,"internalType":"uint256"}],"anonymous":false},{"type":"event","name":"RepayBorrow","inputs":[{"name":"payer","type":"address","indexed":false,"internalType":"address"},{"name":"borrower","type":"address","indexed":false,"internalType":"address"},{"name":"repayAmount","type":"uint256","indexed":false,"internalType":"uint256"},{"name":"accountBorrows","type":"uint256","indexed":false,"internalType":"uint256"},{"name":"totalBorrows","type":"uint256","indexed":false,"internalType":"uint256"}],"anonymous":false},{"type":"event","name":"ReservesAdded","inputs":[{"name":"benefactor","type":"address","indexed":false,"internalType":"address"},{"name":"addAmount","type":"uint256","indexed":false,"internalType":"uint256"},{"name":"newTotalReserves","type":"uint256","indexed":false,"internalType":"uint256"}],"anonymous":false},{"type":"event","name":"ReservesReduced","inputs":[{"name":"admin","type":"address","indexed":false,"internalType":"address"},{"name":"reduceAmount","type":"uint256","indexed":false,"internalType":"uint256"},{"name":"newTotalReserves","type":"uint256","indexed":false,"internalType":"uint256"}],"anonymous":false},{"type":"event","name":"Transfer","inputs":[{"name":"from","type":"address","indexed":true,"internalType":"address"},{"name":"to","type":"address","indexed":true,"internalType":"address"},{"name":"amount","type":"uint256","indexed":false,"internalType":"uint256"}],"anonymous":false},{"type":"error","name":"AcceptAdminPendingAdminCheck","inputs":[]},{"type":"error","name":"AddReservesFactorFreshCheck","inputs":[{"name":"actualAddAmount","type":"uint256","internalType":"uint256"}]},{"type":"error","name":"BorrowCashNotAvailable","inputs":[]},{"type":"error","name":"BorrowFreshnessCheck","inputs":[]},{"type":"error","name":"BorrowPeridottrollerRejection","inputs":[{"name":"errorCode","type":"uint256","internalType":"uint256"}]},{"type":"error","name":"LiquidateAccrueBorrowInterestFailed","inputs":[{"name":"errorCode","type":"uint256","internalType":"uint256"}]},{"type":"error","name":"LiquidateAccrueCollateralInterestFailed","inputs":[{"name":"errorCode","type":"uint256","internalType":"uint256"}]},{"type":"error","name":"LiquidateCloseAmountIsUintMax","inputs":[]},{"type":"error","name":"LiquidateCloseAmountIsZero","inputs":[]},{"type":"error","name":"LiquidateCollateralFreshnessCheck","inputs":[]},{"type":"error","name":"LiquidateFreshnessCheck","inputs":[]},{"type":"error","name":"LiquidateLiquidatorIsBorrower","inputs":[]},{"type":"error","name":"LiquidatePeridottrollerRejection","inputs":[{"name":"errorCode","type":"uint256","internalType":"uint256"}]},{"type":"error","name":"LiquidateRepayBorrowFreshFailed","inputs":[{"name":"errorCode","type":"uint256","internalType":"uint256"}]},{"type":"error","name":"LiquidateSeizeLiquidatorIsBorrower","inputs":[]},{"type":"error","name":"LiquidateSeizePeridottrollerRejection","inputs":[{"name":"errorCode","type":"uint256","internalType":"uint256"}]},{"type":"error","name":"MintFreshnessCheck","inputs":[]},{"type":"error","name":"MintPeridottrollerRejection","inputs":[{"name":"errorCode","type":"uint256","internalType":"uint256"}]},{"type":"error","name":"RedeemFreshnessCheck","inputs":[]},{"type":"error","name":"RedeemPeridottrollerRejection","inputs":[{"name":"errorCode","type":"uint256","internalType":"uint256"}]},{"type":"error","name":"RedeemTransferOutNotPossible","inputs":[]},{"type":"error","name":"ReduceReservesAdminCheck","inputs":[]},{"type":"error","name":"ReduceReservesCashNotAvailable","inputs":[]},{"type":"error","name":"ReduceReservesCashValidation","inputs":[]},{"type":"error","name":"ReduceReservesFreshCheck","inputs":[]},{"type":"error","name":"RepayBorrowFreshnessCheck","inputs":[]},{"type":"error","name":"RepayBorrowPeridottrollerRejection","inputs":[{"name":"errorCode","type":"uint256","internalType":"uint256"}]},{"type":"error","name":"SetInterestRateModelFreshCheck","inputs":[]},{"type":"error","name":"SetInterestRateModelOwnerCheck","inputs":[]},{"type":"error","name":"SetPendingAdminOwnerCheck","inputs":[]},{"type":"error","name":"SetPeridottrollerOwnerCheck","inputs":[]},{"type":"error","name":"SetReserveFactorAdminCheck","inputs":[]},{"type":"error","name":"SetReserveFactorBoundsCheck","inputs":[]},{"type":"error","name":"SetReserveFactorFreshCheck","inputs":[]},{"type":"error","name":"TransferNotAllowed","inputs":[]},{"type":"error","name":"TransferNotEnough","inputs":[]},{"type":"error","name":"TransferPeridottrollerRejection","inputs":[{"name":"errorCode","type":"uint256","internalType":"uint256"}]},{"type":"error","name":"TransferTooMuch","inputs":[]}],"bytecode":{"object":"0x60808060405234601557613ff6908161001a8239f35b5f80fdfe60806040526004361015610011575f80fd5b5f3560e01c806306fdde03146103e4578063095ea7b3146103df5780630e752702146103da5780630ed14e63146103d5578063173b9904146103d057806317bfdfbc146103cb57806318160ddd146103c6578063182df0f5146103c15780631a31d465146103bc5780631be19560146103b757806323b872dd146103b25780632608f818146103ad57806326782247146103a8578063313ce567146103a35780633af9e6691461039e5780633b1d21a2146103995780633e9410101461039457806347bd37181461038f5780635a890c0e1461038a5780635cffe9de14610385578063601a0bf114610380578063613255ab1461037b5780636752e7021461037657806369ab3250146103715780636c540baf1461036c5780636f307dc31461036757806370a082311461036257806373acee981461035d578063852a12e3146103585780638f840ddd1461035357806395d89b411461034e57806395dd91931461034957806399d8c1b4146103445780639b503bae1461033f578063a0712d681461033a578063a252d8be14610335578063a6afed9514610330578063a9059cbb1461032b578063aa5af0fd14610326578063ae9d70b014610321578063b2a02ff11461031c578063b71d1a0c14610317578063bd6d894d14610312578063c0c7347e1461030d578063c37f68e214610308578063c3b6870014610303578063c423fe29146102fe578063c53d59d9146102f9578063c5ebeaec146102f4578063d5c6d3bd146102ef578063d9d98ce4146102ea578063db006a75146102e5578063dcef7fbd146102e0578063dd62ed3e146102db578063e9c714f2146102d6578063f2b3abbd146102d1578063f3fdb15a146102cc578063f5e3c462146102c7578063f851a440146102c2578063f8f9da28146102bd5763fca7820b146102b8575f80fd5b612288565b612226565b6121fa565b611df6565b611dce565b611d9e565b611c7d565b611c1e565b611bed565b611b39565b611adf565b611ab8565b61193c565b611889565b611861565b61178e565b61172c565b61170f565b6116f5565b61164d565b61160c565b611567565b61154a565b6114f3565b6114d9565b611454565b6112bc565b61129a565b611216565b6111ef565b61114a565b61112d565b610ef6565b610eb1565b610e76565b610e4a565b610e2d565b610e13565b610df2565b610dcb565b610ca2565b610c13565b610bf8565b610bdb565b610b15565b610afb565b610a92565b610a72565b610a4a565b6109eb565b6109a9565b61084f565b6107bf565b610726565b610709565b6106b2565b610695565b610678565b610627565b61059b565b6104b0565b5f9103126103f357565b5f80fd5b90600182811c92168015610425575b602083101461041157565b634e487b7160e01b5f52602260045260245ffd5b91607f1691610406565b634e487b7160e01b5f52604160045260245ffd5b6020810190811067ffffffffffffffff82111761045f57604052565b61042f565b90601f8019910116810190811067ffffffffffffffff82111761045f57604052565b602060409281835280519182918282860152018484015e5f828201840152601f01601f1916010190565b346103f3575f3660031901126103f3576040515f6001546104d0816103f7565b80845290600181169081156105665750600114610508575b610504836104f881850382610464565b60405191829182610486565b0390f35b60015f9081527fb10e2d527612073b26eecdfd717e6a320cf44b4afac2b0732d9fcbe2b7fa0cf6939250905b80821061054c575090915081016020016104f86104e8565b919260018160209254838588010152019101909291610534565b60ff191660208086019190915291151560051b840190910191506104f890506104e8565b6001600160a01b038116036103f357565b346103f35760403660031901126103f3576004356105b88161058a565b60243590335f52600f602052816105e28260405f209060018060a01b03165f5260205260405f2090565b556040519182526001600160a01b03169033907f8c5be1e5ebec7d5bd14f71427d1e84f3dd0314c0f7b2291e5b200ac8c7c3b92590602090a360405160018152602090f35b346103f35760203660031901126103f3576106626004355f5461064c60ff821661235a565b60ff19165f5561065a612f40565b503333613aa6565b50600160ff195f5416175f5560206040515f8152f35b346103f3575f3660031901126103f3576020601254604051908152f35b346103f3575f3660031901126103f3576020600854604051908152f35b346103f35760203660031901126103f35760206106f66004356106d48161058a565b5f546106e260ff821661235a565b60ff19165f556106f0612f40565b50613761565b600160ff195f5416175f55604051908152f35b346103f3575f3660031901126103f3576020600d54604051908152f35b346103f3575f3660031901126103f35760206107406133e6565b604051908152f35b60405190610757602083610464565b565b81601f820112156103f35780359067ffffffffffffffff821161045f576040519261078e601f8401601f191660200185610464565b828452602083830101116103f357815f926020809301838601378301015290565b60c4359060ff821682036103f357565b346103f35760e03660031901126103f3576004356107dc8161058a565b602435906107e98261058a565b604435916107f68361058a565b60643560843567ffffffffffffffff81116103f357610819903690600401610759565b9060a4359467ffffffffffffffff86116103f35761083e61084d963690600401610759565b936108476107af565b956123ad565b005b346103f35760203660031901126103f35760043561086c8161058a565b60035460081c6001600160a01b0316906108906001600160a01b0383163314612432565b6013546001600160a01b0391821692916108c4916108bc9160089190911c165b6001600160a01b031690565b831415612496565b6040516370a0823160e01b8152306004820152602081602481865afa908115610949575f9161094e575b50823b156103f35760405163a9059cbb60e01b81526001600160a01b0390921660048301526024820152905f908290818381604481015b03925af180156109495761093557005b806109435f61084d93610464565b806103e9565b6123a2565b610970915060203d602011610976575b6109688183610464565b810190612393565b5f6108ee565b503d61095e565b60609060031901126103f3576004356109958161058a565b906024356109a28161058a565b9060443590565b346103f35760206109d76109bc3661097d565b915f546109cb60ff821661235a565b60ff19165f5533613442565b15600160ff195f5416175f55604051908152f35b346103f35760403660031901126103f357610a32600435610a0b8161058a565b602435905f54610a1d60ff821661235a565b60ff19165f55610a2b612f40565b5033613aa6565b505f805460ff19166001178155604051908152602090f35b346103f3575f3660031901126103f3576004546040516001600160a01b039091168152602090f35b346103f3575f3660031901126103f357602060ff60035416604051908152f35b346103f35760203660031901126103f3576020670de0b6b3a7640000610af1600435610abd8161058a565b610ac56130b6565b9060405191610ad383610443565b82526001600160a01b03165f908152600e855260409020549061386c565b5104604051908152f35b346103f3575f3660031901126103f357602061074061361f565b346103f35760203660031901126103f3576004355f54610b3760ff821661235a565b60ff19165f55610b45612f40565b506009544303610bc857610b599033613e40565b600c54818101809111610bc357600c8190556040805133815260208101939093528201527fa91e67c5ea634cd43a12c5a482724b03de01e85ca68702a53d0c2f45cb7c1dc59080606081015b0390a1610bb8600160ff195f5416175f55565b6040515f8152602090f35b6127ff565b6338acf79960e01b5f525f60045260245ffd5b346103f3575f3660031901126103f3576020600b54604051908152f35b346103f3575f3660031901126103f357602060405160018152f35b346103f35760803660031901126103f357600435610c308161058a565b60243590610c3d8261058a565b6044356064359167ffffffffffffffff83116103f357366023840112156103f35782600401359167ffffffffffffffff83116103f35736602484860101116103f357610504946024610c909501926124fd565b60405190151581529081906020820190565b346103f35760203660031901126103f3576004355f54610cc460ff821661235a565b60ff19165f55610cd2612f40565b50600354610ceb9060081c6001600160a01b03166108b0565b3303610dbc576009544303610dad5780610d0361361f565b10610d9e57600c5490818111610d8f57610d3e817f3bad0c59cf2f06e7314077049f48a93578cd16f5ef92329f1dab1420a99c177e93612f33565b610d4781600c55565b600354610d6190839060081c6001600160a01b03166136c4565b6003546040805160089290921c6001600160a01b031682526020820193909352918201528060608101610ba5565b6378d2980560e11b5f5260045ffd5b633345e99960e01b5f5260045ffd5b630dff50cb60e41b5f5260045ffd5b630f7e5e6d60e41b5f5260045ffd5b346103f35760203660031901126103f3576020610740600435610ded8161058a565b61299a565b346103f3575f3660031901126103f3576020604051666379da05b600008152f35b346103f3575f3660031901126103f35760206040515f8152f35b346103f3575f3660031901126103f3576020600954604051908152f35b346103f3575f3660031901126103f35760135460405160089190911c6001600160a01b03168152602090f35b346103f35760203660031901126103f357600435610e938161058a565b60018060a01b03165f52600e602052602060405f2054604051908152f35b346103f3575f3660031901126103f3575f54610ecf60ff821661235a565b60ff19165f55610edd612f40565b506020600b54600160ff195f5416175f55604051908152f35b346103f35760203660031901126103f3576004355f54610f1860ff821661235a565b60ff19165f55610f26612f40565b50610f316001613c47565b610f4d610f3c6133e6565b610f44610748565b90815282613f74565b600554909190610f65906001600160a01b03166108b0565b6020604051809263eabe7d9160e01b8252815f81610f8889333060048501613cb0565b03925af1908115610949575f9161110e575b50806110fc575060095443036110ed5780610fb361361f565b106110de57610fcc610fc783600d54612f33565b600d55565b335f908152600e60205260409020610fe79083905b54612f33565b335f908152600e602052604090205561100081336136c4565b604051828152309033905f516020613fa15f395f51905f5290602090a360408051338152602081018390529081018390527fe5b754fb1abb7f01b499791d0b820ae3b6af3424ac1c59768edb53f4ec31a92990606090a160055461106c906001600160a01b03166108b0565b91823b156103f3576040516351dff98960e01b815230600482015233602482015260448101929092526064820152905f908290608490829084905af18015610949576110ca575b5f805460ff19166001178155604051908152602090f35b806109435f6110d893610464565b5f6110b3565b6391240a1b60e01b5f5260045ffd5b6397b5cfcd60e01b5f5260045ffd5b635bd5f7ab60e11b5f5260045260245ffd5b611127915060203d602011610976576109688183610464565b5f610f9a565b346103f3575f3660031901126103f3576020600c54604051908152f35b346103f3575f3660031901126103f3576040515f60025461116a816103f7565b8084529060018116908115610566575060011461119157610504836104f881850382610464565b60025f9081527f405787fa12a823e0f2b7631cc41b3ba8828b3321ca811111fa75cd3aa3bb5ace939250905b8082106111d5575090915081016020016104f86104e8565b9192600181602092548385880101520191019092916111bd565b346103f35760203660031901126103f35760206107406004356112118161058a565b613761565b346103f35760c03660031901126103f3576004356112338161058a565b60243561123f8161058a565b60443560643567ffffffffffffffff81116103f357611262903690600401610759565b60843567ffffffffffffffff81116103f357611282903690600401610759565b9160a4359360ff851685036103f35761084d95612d4a565b346103f3575f3660031901126103f357602060ff601354166040519015158152f35b346103f35760203660031901126103f3576004355f546112de60ff821661235a565b60ff19165f556112ec612f40565b50600554611302906001600160a01b03166108b0565b60206040518092634ef4c3e160e01b8252815f8161132588333060048501613cb0565b03925af1908115610949575f91611435575b508061142357506009544303611414577f4c209b5fc8ad50758f13e2e1088ba56a560dff690a1c6fef26394f4c03821c4f61138f6113886113766133e6565b9361137f610748565b94855233613e40565b9283613f74565b80926113a0610fc783600d54612941565b335f908152600e602052604090206113bb9083905b54612941565b335f908152600e602052604090205560408051338152602081019290925281019190915280606081010390a1604051908152339030905f516020613fa15f395f51905f5290602090a3610bb8600160ff195f5416175f55565b6338d8859760e01b5f5260045ffd5b6303171a8760e61b5f5260045260245ffd5b61144e915060203d602011610976576109688183610464565b5f611337565b346103f35760203660031901126103f3576004356114718161058a565b60035461148b9060081c6001600160a01b03163314612e82565b6013546114a5906108b09060081c6001600160a01b031681565b803b156103f3576040516317066a5760e21b81526001600160a01b0383166004820152905f90829081838160248101610925565b346103f3575f3660031901126103f3576020610740612f40565b346103f35760403660031901126103f3576115326004356115138161058a565b602435905f5461152560ff821661235a565b60ff19165f553380613442565b5f805460ff1916600117905560405190158152602090f35b346103f3575f3660031901126103f3576020600a54604051908152f35b346103f3575f3660031901126103f3576006546001600160a01b0316602061158d61361f565b600b54600c54600854604051635c0b440b60e11b815260048101949094526024840192909252604483015260648201529182908180608481015b03915afa801561094957610504915f916115ed575b506040519081529081906020820190565b611606915060203d602011610976576109688183610464565b5f6115dc565b346103f35761163861161d3661097d565b915f5461162c60ff821661235a565b60ff19165f5533613897565b600160ff195f5416175f5560206040515f8152f35b346103f35760203660031901126103f35760043561166a8161058a565b60035460081c6001600160a01b031633036116e657600480546001600160a01b039283166001600160a01b0319821681179092556040805193909116835260208301919091527fca4f2f25d0898edd99413412fb94012f9e54ec8142f9b093e7720646a95b16a99190819081015b0390a16040515f8152602090f35b635cb56c2b60e01b5f5260045ffd5b346103f3575f3660031901126103f35760206107406130b6565b346103f3575f3660031901126103f3576020601154604051908152f35b346103f35760203660031901126103f357608060043561174b8161058a565b6001600160a01b0381165f908152600e60205260409020549061176d90613761565b6117756133e6565b90604051925f8452602084015260408301526060820152f35b346103f35760203660031901126103f35760043560035460081c6001600160a01b0316330361180c57806117e76127107f84e3f33c20d693ca1e98ee0ab87bf817997a96baa0819ed94c5b96f4a6663f139311156130e9565b6012546117f382601255565b60408051918252602082019290925290819081016116d8565b60405162461bcd60e51b815260206004820152602760248201527f4f6e6c792061646d696e2063616e20736574206d617820666c617368206c6f616044820152666e20726174696f60c81b6064820152608490fd5b346103f3575f3660031901126103f3576005546040516001600160a01b039091168152602090f35b346103f35760203660031901126103f35760043560035460081c6001600160a01b031633036118ed57806118e160647f2cd87d6d243502fbf87bd7dd851659e05ac6a614994d7f04592e4f173f939783931115613135565b6011546117f382601155565b60405162461bcd60e51b815260206004820152602160248201527f4f6e6c792061646d696e2063616e2073657420666c617368206c6f616e2066656044820152606560f81b6064820152608490fd5b346103f35760203660031901126103f3576004355f5461195e60ff821661235a565b60ff19165f5561196c612f40565b50600554611982906001600160a01b03166108b0565b6020604051809263368f515360e21b8252815f816119a588333060048501613cb0565b03925af1908115610949575f91611a99575b5080611a8757506009544303611a7857806119d061361f565b10611a695780611a097f13ed6866d4e1ee6da46f845c46d7e54120883d75c5ea9a2dacc1c4ca8984ab8092611a0433613761565b612941565b90610ba5611a1982600b54612941565b335f908152601060205260409020848155600a54600190910155600b819055611a4283336136c4565b60408051338152602081019490945283019390935260608201929092529081906080820190565b6348c2588160e01b5f5260045ffd5b630e8d8c6160e21b5f5260045ffd5b635684deff60e11b5f5260045260245ffd5b611ab2915060203d602011610976576109688183610464565b5f6119b7565b346103f35760203660031901126103f3576020610740600435611ada8161058a565b6131e5565b346103f35760403660031901126103f357612710611b2c600435611b028161058a565b60135460243591611b239160081c6001600160a01b03908116911614612707565b60115490612813565b6040519190048152602090f35b346103f35760203660031901126103f3576004355f54611b5b60ff821661235a565b60ff19165f55611b69612f40565b5080159081159182611bdb575b611b7f90613c47565b611b876133e6565b91611b90610748565b92835215611bca57611ba681611bb5929361386c565b670de0b6b3a764000090510490565b600554610f65906001600160a01b03166108b0565b50611bd5905f613f74565b5f611bb5565b506001611b76565b801515036103f357565b346103f35760203660031901126103f3576020611c14600435611c0f81611be3565b6132fc565b6040519015158152f35b346103f35760403660031901126103f3576020611c74600435611c408161058a565b60243590611c4d8261058a565b60018060a01b03165f52600f835260405f209060018060a01b03165f5260205260405f2090565b54604051908152f35b346103f3575f3660031901126103f3576004546001600160a01b031680338114801590611d96575b611d87576003547fca4f2f25d0898edd99413412fb94012f9e54ec8142f9b093e7720646a95b16a9927ff9ffabca9c8276e99321725bcb43fb076a6c66a54b7f21c4e8146d8519b417dc91611d2e90611d099060081c6001600160a01b03166108b0565b91600354610100600160a81b03191660089190911b610100600160a81b031617600355565b600480546001600160a01b0319169055600354604080516001600160a01b03938416815260089290921c9092166020820152a1600454604080516001600160a01b039384168152929091166020830152819081016116d8565b631ba24f2960e21b5f5260045ffd5b503315611ca5565b346103f35760203660031901126103f3576020610740600435611dc08161058a565b611dc8612f40565b506137a1565b346103f3575f3660031901126103f3576006546040516001600160a01b039091168152602090f35b346103f35760603660031901126103f357600435611e138161058a565b60243590604435611e238161058a565b5f54611e3160ff821661235a565b60ff19165f55611e3f612f40565b5060405163a6afed9560e01b81526001600160a01b039190911692906020816004815f885af1908115610949575f916121db575b50806121c95750600554611e8f906001600160a01b03166108b0565b604051632fe3f38f60e11b81523060048201526001600160a01b038581166024830152336044830152841660648201526084810183905290602090829060a49082905f905af1908115610949575f916121aa575b50806121985750600954430361218957604051636c540baf60e01b8152602081600481875afa908115610949575f9161216a575b50430361215b576001600160a01b038216331461214c57801561213d575f19811461212e57611f47908233613aa6565b600554909190611f5f906001600160a01b03166108b0565b6040805163c488847b60e01b8152949185908180611f8288873060048501613cb0565b03915afa938415610949575f905f956120fa575b50611fa19015613cfd565b6040516370a0823160e01b81526001600160a01b0383166004820152602081602481855afa90811561094957611fe29186915f916120db575b501015613d65565b3081036120525783610ba59161201b7f298637f684da70674f26509b10f07ec2fbc77a335ab1e7d6215a4b2484d8bb5296853330613897565b604080513381526001600160a01b0395861660208201529081019590955290921660608401526080830191909152819060a0820190565b60405163b2a02ff160e01b8152936020858061207384873360048501613cb0565b03815f865af1918215610949576120b7610ba5937f298637f684da70674f26509b10f07ec2fbc77a335ab1e7d6215a4b2484d8bb52975f916120bc575b5015613db1565b61201b565b6120d5915060203d602011610976576109688183610464565b5f6120b0565b6120f4915060203d602011610976576109688183610464565b5f611fda565b611fa19550612121915060403d604011612127575b6121198183610464565b810190613ce7565b94611f96565b503d61210f565b635982c5bb60e11b5f5260045ffd5b63d29da7ef60e01b5f5260045ffd5b631bd1a62160e21b5f5260045ffd5b631046f38d60e31b5f5260045ffd5b612183915060203d602011610976576109688183610464565b5f611f17565b6380965b1b60e01b5f5260045ffd5b632d33e4f360e21b5f5260045260245ffd5b6121c3915060203d602011610976576109688183610464565b5f611ee3565b633eea49b760e11b5f5260045260245ffd5b6121f4915060203d602011610976576109688183610464565b5f611e73565b346103f3575f3660031901126103f35760035460405160089190911c6001600160a01b03168152602090f35b346103f3575f3660031901126103f3576006546115c7906020906001600160a01b031661225161361f565b600b54600c546040516315f2405360e01b815260048101939093526024830191909152604482015292839190829081906064820190565b346103f35760203660031901126103f3576004355f546122aa60ff821661235a565b60ff19165f556122b8612f40565b5060035460081c6001600160a01b0316330361234b57600954430361233c57670de0b6b3a7640000811161232d577faaa68312e2ea9d50e16af5068410ab56e1a1fd06037b1a35664812c30f8214609060085461231482600855565b6040805191825260208201929092529081908101610ba5565b63717220f360e11b5f5260045ffd5b637dfca6b760e11b5f5260045ffd5b631205b57b60e11b5f5260045ffd5b1561236157565b60405162461bcd60e51b815260206004820152600a6024820152691c994b595b9d195c995960b21b6044820152606490fd5b908160209103126103f3575190565b6040513d5f823e3d90fd5b92946123e5946020966123c39460049994612d4a565b601354610100600160a81b03191660089190911b610100600160a81b03161790565b60138190556040516318160ddd60e01b8152928391829060081c6001600160a01b03165afa8015610949576124175750565b61242f9060203d602011610976576109688183610464565b50565b1561243957565b60405162461bcd60e51b815260206004820152602f60248201527f5045726332303a3a7377656570546f6b656e3a206f6e6c792061646d696e206360448201526e616e20737765657020746f6b656e7360881b6064820152608490fd5b1561249d57565b60405162461bcd60e51b815260206004820152603260248201527f5045726332303a3a7377656570546f6b656e3a2063616e206e6f74207377656560448201527138103ab73232b9363cb4b733903a37b5b2b760711b6064820152608490fd5b915f5461250c60ff821661235a565b60ff19165f5560135461252a9060081c6001600160a01b03166108b0565b6001600160a01b0383169590612541908714612707565b61255c61255761255360135460ff1690565b1590565b612753565b60405163613255ab60e01b81526001600160a01b0384166004820152602081602481305afa80156109495761260b946125a385926020945f916126ea575b508311156127a9565b6125ba6125b260115484612813565b612710900490565b9586946125c5612f40565b506125ce61361f565b986125db858b1015612844565b6001600160a01b0316996125ef858c6136c4565b6040516323e30c8b60e01b81529687958695336004880161289a565b03815f895af1938415610949576126707f439148f0bbc682ca079e46d6e2c2f0c1e3b820f1a291b069d8882abf8cf18dd97f0d7d75e01ab95780d3cd1c8ec0dd6c2ce19e3a20427eec8bf53283b6fb8e95f096612689945f916126cb575b50146128ea565b6126828461267c61361f565b92612941565b111561294e565b816126b2575b604080519182526020820192909252a3600190610757600160ff195f5416175f55565b6126c66126c183600c54612941565b600c55565b61268f565b6126e4915060203d602011610976576109688183610464565b5f612669565b6127019150853d8711610976576109688183610464565b5f61259a565b1561270e57565b60405162461bcd60e51b815260206004820152601e60248201527f466c6173684c6f616e3a20746f6b656e206e6f7420737570706f7274656400006044820152606490fd5b1561275a57565b60405162461bcd60e51b815260206004820152602160248201527f466c6173684c6f616e3a20666c617368206c6f616e73206172652070617573656044820152601960fa1b6064820152608490fd5b156127b057565b60405162461bcd60e51b815260206004820152602160248201527f466c6173684c6f616e3a20616d6f756e742065786365656473206d6178696d756044820152606d60f81b6064820152608490fd5b634e487b7160e01b5f52601160045260245ffd5b81810292918115918404141715610bc357565b8115612830570490565b634e487b7160e01b5f52601260045260245ffd5b1561284b57565b60405162461bcd60e51b815260206004820152602160248201527f466c6173684c6f616e3a20696e73756666696369656e74206c697175696469746044820152607960f81b6064820152608490fd5b6001600160a01b039182168152911660208201526040810191909152606081019190915260a060808201819052810183905260c09290918190848401375f828201840152601f01601f1916010190565b156128f157565b60405162461bcd60e51b815260206004820152602260248201527f466c6173684c6f616e3a20696e76616c69642063616c6c6261636b2072657475604482015261393760f11b6064820152608490fd5b91908201809211610bc357565b1561295557565b60405162461bcd60e51b815260206004820152601a60248201527f466c6173684c6f616e3a206c6f616e206e6f74207265706169640000000000006044820152606490fd5b601354906001600160a01b03600883901c81169116036129da5760ff166129d6576127106129d26129c961361f565b60125490612813565b0490565b5f90565b505f90565b156129e657565b60405162461bcd60e51b815260206004820152602360248201527f6d61726b6574206d6179206f6e6c7920626520696e697469616c697a6564206f6044820152626e636560e81b6064820152608490fd5b15612a3e57565b60405162461bcd60e51b815260206004820152603060248201527f696e697469616c2065786368616e67652072617465206d75737420626520677260448201526f32b0ba32b9103a3430b7103d32b9379760811b6064820152608490fd5b15612aa357565b60405162461bcd60e51b815260206004820152601d60248201527f73657474696e672070657269646f7474726f6c6c6572206661696c65640000006044820152606490fd5b15612aef57565b60405162461bcd60e51b815260206004820152602260248201527f73657474696e6720696e7465726573742072617465206d6f64656c206661696c604482015261195960f21b6064820152608490fd5b601f8211612b4c57505050565b5f5260205f20906020601f840160051c83019310612b84575b601f0160051c01905b818110612b79575050565b5f8155600101612b6e565b9091508190612b65565b90815167ffffffffffffffff811161045f57612bb681612baf6001546103f7565b6001612b3f565b602092601f8211600114612bf657612be6929382915f92612beb575b50508160011b915f199060031b1c19161790565b600155565b015190505f80612bd2565b60015f52601f198216937fb10e2d527612073b26eecdfd717e6a320cf44b4afac2b0732d9fcbe2b7fa0cf6915f5b868110612c5a5750836001959610612c42575b505050811b01600155565b01515f1960f88460031b161c191690555f8080612c37565b91926020600181928685015181550194019201612c24565b90815167ffffffffffffffff811161045f57612c9a81612c936002546103f7565b6002612b3f565b602092601f8211600114612cce57612cc9929382915f92612beb5750508160011b915f199060031b1c19161790565b600255565b60025f52601f198216937f405787fa12a823e0f2b7631cc41b3ba8828b3321ca811111fa75cd3aa3bb5ace915f5b868110612d325750836001959610612d1a575b505050811b01600255565b01515f1960f88460031b161c191690555f8080612d0f565b91926020600181928685015181550194019201612cfc565b60035490959492939060081c6001600160a01b03166001600160a01b03163303612e3157612dd9612dd3612dde93612db4612dae612df39a612da1612de39a6009541580612e27575b612d9c906129df565b600755565b611ada6007541515612a37565b15612a9c565b612dbd43600955565b612dce670de0b6b3a7640000600a55565b6137a1565b15612ae8565b612b8e565b612c72565b60ff1660ff196003541617600355565b612dfd6005601155565b612e08610bb8601255565b612e1760ff1960135416601355565b610757600160ff195f5416175f55565b50600a5415612d93565b60405162461bcd60e51b8152602060048201526024808201527f6f6e6c792061646d696e206d617920696e697469616c697a6520746865206d616044820152631c9ad95d60e21b6064820152608490fd5b15612e8957565b60405162461bcd60e51b815260206004820152603060248201527f6f6e6c79207468652061646d696e206d6179207365742074686520706572696460448201526f6f742d6c696b652064656c656761746560801b6064820152608490fd5b15612eee57565b60405162461bcd60e51b815260206004820152601c60248201527f626f72726f772072617465206973206162737572646c792068696768000000006044820152606490fd5b91908203918211610bc357565b6009544381146129da57612f5261361f565b600b5490600c5492600a5492612f726108b060065460018060a01b031690565b6040516315f2405360e01b81526004810185905260248101839052604481018790529590602090879060649082905afa9586156109495761304b86611a04611ba66130399961304561301c7f4dec04e750ca11537cabcd8a9eab06494de08da3735bc8871cd41250e190bc049d61308a9b613067995f92613091575b5061300b9061300565048c27395000841115612ee7565b43612f33565b90613014610748565b90815261386c565b97611a04611ba6613030611ba68d8d61386c565b9e8f9c8d612941565b9b600854613014610748565b9661386c565b9161305543600955565b61305e83600a55565b6126c184600b55565b604051948594859094939260609260808301968352602083015260408201520152565b0390a15f90565b61300b9192506130af9060203d602011610976576109688183610464565b9190612fee565b5f546130c460ff821661235a565b60ff19165f556130d2612f40565b506130db6133e6565b90600160ff195f5416175f55565b156130f057565b60405162461bcd60e51b815260206004820152601960248201527f466c617368206c6f616e20726174696f20746f6f2068696768000000000000006044820152606490fd5b1561313c57565b60405162461bcd60e51b815260206004820152601760248201527f466c617368206c6f616e2066656520746f6f20686967680000000000000000006044820152606490fd5b908160209103126103f3575161319681611be3565b90565b156131a057565b60405162461bcd60e51b815260206004820152601c60248201527f6d61726b6572206d6574686f642072657475726e65642066616c7365000000006044820152606490fd5b6003546131fd9060081c6001600160a01b03166108b0565b33036132d8576005546001600160a01b031660405163fa707af960e01b815291906020836004816001600160a01b0386165afa928315610949577ff911792cf103798503b6dab0992e023d45661865683c550a919b8c9ad07dbf7f9361326a915f916132a9575b50613199565b600580546001600160a01b0319166001600160a01b0384161790555b604080516001600160a01b0392831681529290911660208301528190810161308a565b6132cb915060203d6020116132d1575b6132c38183610464565b810190613181565b5f613264565b503d6132b9565b634c2fa00360e01b5f5260045ffd5b908160209103126103f357516131968161058a565b6003546133149060081c6001600160a01b03166108b0565b33148015613365575b156129da5761335d81610c907f7958d1d41a26870ec9486cb4dc33830b446f038d00661e064b50719bdde7f42c9360ff8019601354169115151617601355565b0390a1600190565b50600460206133846108b06108b06108b060055460018060a01b031690565b604051631251eb1160e11b815292839182905afa908115610949575f916133b7575b506001600160a01b0316331461331d565b6133d9915060203d6020116133df575b6133d18183610464565b8101906132e7565b5f6133a6565b503d6133c7565b600d54806133f5575060075490565b6133fd61361f565b90600b548201809211610bc357600c549182810392818411610bc357670de0b6b3a76400008402938404670de0b6b3a76400001491141715610bc35761319691612826565b600554613457906001600160a01b03166108b0565b6040516317b9b84b60e31b81523060048201526001600160a01b038481166024830152851660448201526064810186905290602090829060849082905f905af1908115610949575f91613600575b50806135ee57506001600160a01b0383811694908316938486146135df575f516020613fa15f395f51905f5293613575936001600160a01b03811687036135b7575f195b6134f38582612f33565b9361355b61351587610fe18760018060a01b03165f52600e60205260405f2090565b91613534886113b58360018060a01b03165f52600e60205260405f2090565b6001600160a01b038781165f908152600e6020526040808220969096559216825292902090565b551961357c575b5050604051918252509081906020820190565b0390a35f90565b6135996135ae9260018060a01b03165f52600f60205260405f2090565b9060018060a01b03165f5260205260405f2090565b555f8080613562565b6001600160a01b0382165f908152600f602052604090206135d9908290613599565b546134e9565b638cd22d1960e01b5f5260045ffd5b630c93cb5b60e01b5f5260045260245ffd5b613619915060203d602011610976576109688183610464565b5f6134a5565b6013546040516370a0823160e01b8152306004820152906020908290602490829060081c6001600160a01b03165afa908115610949575f9161365f575090565b613196915060203d602011610976576109688183610464565b1561367f57565b60405162461bcd60e51b815260206004820152601960248201527f544f4b454e5f5452414e534645525f4f55545f4641494c4544000000000000006044820152606490fd5b6013546136dc9060081c6001600160a01b03166108b0565b91823b156103f35760405163a9059cbb60e01b81526001600160a01b039290921660048301526024820152905f908290604490829084905af180156109495761374d575b503d801561374257602014613733575f80fd5b60205f803e6107575f51613678565b506107575f19613678565b806109435f61375b93610464565b5f613720565b6001600160a01b03165f908152601060205260409020805490811561379b57600161379261319693600a5490612813565b91015490612826565b50505f90565b6003546137b99060081c6001600160a01b03166108b0565b330361385d57600954430361384e576006546001600160a01b03166040516310c8fc9560e11b815291906020836004816001600160a01b0386165afa928315610949577fedffc32e068c7c95dfd4bdfd5c4d939a084d6b11c4199eac8436ed234d72f9269361382e915f916132a95750613199565b600680546001600160a01b0319166001600160a01b038416179055613286565b630be2a5cb60e11b5f5260045ffd5b63407fded560e01b5f5260045ffd5b90613885915f60405161387e81610443565b5251612813565b6040519061389282610443565b815290565b92602083829395865f6138b46108b060055460018060a01b031690565b60405163d02f735160e01b81523060048201526001600160a01b03948516602482015292841660448401529390921660648201526084810194909452839160a49183915af1908115610949575f91613a87575b5080613a7557506001600160a01b0383811693908316808514613a66577fa91e67c5ea634cd43a12c5a482724b03de01e85ca68702a53d0c2f45cb7c1dc594815f516020613fa15f395f51905f52613a2d6139b497613977613967610748565b666379da05b60000815289613cd2565b96613982888a612f33565b916139fa6139df6139a0611ba68c6139986133e6565b613014610748565b9b6139ad8d600c54612941565b9d8e600c55565b6139c3610fc78d600d54612f33565b6001600160a01b0384165f908152600e60205260409020610fe1565b6001600160a01b039092165f908152600e6020526040902090565b55613a1c6139df836113b58460018060a01b03165f52600e60205260405f2090565b556040519081529081906020820190565b0390a360405191825230915f516020613fa15f395f51905f5290602090a3604080513081526020810192909252810191909152606090a1565b633a94626760e11b5f5260045ffd5b6305a647b960e31b5f5260045260245ffd5b613aa0915060203d602011610976576109688183610464565b5f613907565b600554909190613abe906001600160a01b03166108b0565b604051631200453160e11b81523060048201526001600160a01b038481166024830152831660448201526064810185905290602090829060849082905f905af1908115610949575f91613c28575b5080613c1657506009544303613c07577f1a2a22cb034d26d1854bdc6666a5b91fe25efbbb5dcad3b0355478d6f5c362a191613b4782613761565b935f198103613bf85750613bf2613b69613b62865b84613e40565b8096612f33565b613b7586600b54612f33565b9080613b918660018060a01b03165f52601060205260405f2090565b55600a546001600160a01b0386165f90815260106020526040902060010155613bb982600b55565b604080516001600160a01b03958616815295909416602086015292840186905260608401929092526080830191909152819060a0820190565b0390a190565b613b69613b62613bf292613b5c565b63c9021e2f60e01b5f5260045ffd5b6335a6a70b60e21b5f5260045260245ffd5b613c41915060203d602011610976576109688183610464565b5f613b0c565b15613c4e57565b60405162461bcd60e51b815260206004820152603460248201527f6f6e65206f662072656465656d546f6b656e73496e206f722072656465656d416044820152736d6f756e74496e206d757374206265207a65726f60601b6064820152608490fd5b6001600160a01b03918216815291166020820152604081019190915260600190565b6129d290670de0b6b3a7640000925190612813565b91908260409103126103f3576020825192015190565b15613d0457565b60405162461bcd60e51b815260206004820152603360248201527f4c49515549444154455f434f4d5054524f4c4c45525f43414c43554c4154455f604482015272105353d5539517d4d152569157d19052531151606a1b6064820152608490fd5b15613d6c57565b60405162461bcd60e51b815260206004820152601860248201527f4c49515549444154455f5345495a455f544f4f5f4d55434800000000000000006044820152606490fd5b15613db857565b60405162461bcd60e51b81526020600482015260146024820152731d1bdad95b881cd95a5e9d5c994819985a5b195960621b6044820152606490fd5b15613dfb57565b60405162461bcd60e51b815260206004820152601860248201527f544f4b454e5f5452414e534645525f494e5f4641494c454400000000000000006044820152606490fd5b6013546040516370a0823160e01b815230600482015260089190911c6001600160a01b0316929091602083602481875afa928315610949575f93613f53575b50833b156103f3576040516323b872dd60e01b8152915f9183918291613eab9190309060048501613cb0565b038183875af1801561094957613f3f575b503d8015613f3457602014613ecf575f80fd5b60205f803e613ede5f51613df4565b6040516370a0823160e01b815230600482015291602090839060249082905afa801561094957613196925f91613f15575b50612f33565b613f2e915060203d602011610976576109688183610464565b5f613f0f565b50613ede5f19613df4565b806109435f613f4d93610464565b5f613ebc565b613f6d91935060203d602011610976576109688183610464565b915f613e7f565b670de0b6b3a7640000810290808204670de0b6b3a76400001490151715610bc35761319691519061282656feddf252ad1be2c89b69c2b068fc378daa952ba7f163c4a11628f55a4df523b3efa26469706673582212208a47628c73864d53cc65d14fa4eb01b4690ee5d2ccc72b4fb8fb745ec734547064736f6c634300081c0033","linkReferences":{}},"methodIdentifiers":{"NO_ERROR()":"69ab3250","_acceptAdmin()":"e9c714f2","_addReserves(uint256)":"3e941010","_delegatePeridotLikeTo(address)":"a252d8be","_reduceReserves(uint256)":"601a0bf1","_setFlashLoanFee(uint256)":"c53d59d9","_setFlashLoansPaused(bool)":"dcef7fbd","_setInterestRateModel(address)":"f2b3abbd","_setMaxFlashLoanRatio(uint256)":"c3b68700","_setPendingAdmin(address)":"b71d1a0c","_setPeridottroller(address)":"d5c6d3bd","_setReserveFactor(uint256)":"fca7820b","accrualBlockNumber()":"6c540baf","accrueInterest()":"a6afed95","admin()":"f851a440","allowance(address,address)":"dd62ed3e","approve(address,uint256)":"095ea7b3","balanceOf(address)":"70a08231","balanceOfUnderlying(address)":"3af9e669","borrow(uint256)":"c5ebeaec","borrowBalanceCurrent(address)":"17bfdfbc","borrowBalanceStored(address)":"95dd9193","borrowIndex()":"aa5af0fd","borrowRatePerBlock()":"f8f9da28","decimals()":"313ce567","exchangeRateCurrent()":"bd6d894d","exchangeRateStored()":"182df0f5","flashFee(address,uint256)":"d9d98ce4","flashLoan(address,address,uint256,bytes)":"5cffe9de","flashLoanFeeBps()":"c0c7347e","flashLoansPaused()":"9b503bae","getAccountSnapshot(address)":"c37f68e2","getCash()":"3b1d21a2","initialize(address,address,address,uint256,string,string,uint8)":"1a31d465","initialize(address,address,uint256,string,string,uint8)":"99d8c1b4","interestRateModel()":"f3fdb15a","isPToken()":"5a890c0e","liquidateBorrow(address,uint256,address)":"f5e3c462","maxFlashLoan(address)":"613255ab","maxFlashLoanRatio()":"0ed14e63","mint(uint256)":"a0712d68","name()":"06fdde03","pendingAdmin()":"26782247","peridottroller()":"c423fe29","protocolSeizeShareMantissa()":"6752e702","redeem(uint256)":"db006a75","redeemUnderlying(uint256)":"852a12e3","repayBorrow(uint256)":"0e752702","repayBorrowBehalf(address,uint256)":"2608f818","reserveFactorMantissa()":"173b9904","seize(address,address,uint256)":"b2a02ff1","supplyRatePerBlock()":"ae9d70b0","sweepToken(address)":"1be19560","symbol()":"95d89b41","totalBorrows()":"47bd3718","totalBorrowsCurrent()":"73acee98","totalReserves()":"8f840ddd","totalSupply()":"18160ddd","transfer(address,uint256)":"a9059cbb","transferFrom(address,address,uint256)":"23b872dd","underlying()":"6f307dc3"},"id":25}