{"abi":[{"type":"constructor","inputs":[{"name":"_router","type":"address","internalType":"address"}],"stateMutability":"nonpayable"},{"type":"receive","stateMutability":"payable"},{"type":"function","name":"acceptOwnership","inputs":[],"outputs":[],"stateMutability":"nonpayable"},{"type":"function","name":"allowedDestinationChains","inputs":[{"name":"","type":"uint64","internalType":"uint64"}],"outputs":[{"name":"","type":"bool","internalType":"bool"}],"stateMutability":"view"},{"type":"function","name":"allowedReceivers","inputs":[{"name":"","type":"uint64","internalType":"uint64"}],"outputs":[{"name":"","type":"address","internalType":"address"}],"stateMutability":"view"},{"type":"function","name":"allowlistDestinationChain","inputs":[{"name":"_destinationChainSelector","type":"uint64","internalType":"uint64"},{"name":"_allowed","type":"bool","internalType":"bool"}],"outputs":[],"stateMutability":"nonpayable"},{"type":"function","name":"getFeeForLiquidityRequest","inputs":[{"name":"_destinationChainSelector","type":"uint64","internalType":"uint64"},{"name":"_account","type":"address","internalType":"address"},{"name":"_feeToken","type":"address","internalType":"address"}],"outputs":[{"name":"fee","type":"uint256","internalType":"uint256"}],"stateMutability":"view"},{"type":"function","name":"owner","inputs":[],"outputs":[{"name":"","type":"address","internalType":"address"}],"stateMutability":"view"},{"type":"function","name":"requestAccountLiquidity","inputs":[{"name":"_destinationChainSelector","type":"uint64","internalType":"uint64"},{"name":"_account","type":"address","internalType":"address"},{"name":"_feeToken","type":"address","internalType":"address"}],"outputs":[{"name":"messageId","type":"bytes32","internalType":"bytes32"}],"stateMutability":"payable"},{"type":"function","name":"setReceiver","inputs":[{"name":"_destinationChainSelector","type":"uint64","internalType":"uint64"},{"name":"_receiver","type":"address","internalType":"address"}],"outputs":[],"stateMutability":"nonpayable"},{"type":"function","name":"transferOwnership","inputs":[{"name":"to","type":"address","internalType":"address"}],"outputs":[],"stateMutability":"nonpayable"},{"type":"function","name":"withdraw","inputs":[{"name":"_beneficiary","type":"address","internalType":"address"}],"outputs":[],"stateMutability":"nonpayable"},{"type":"event","name":"CrossChainLiquidityRequestSent","inputs":[{"name":"messageId","type":"bytes32","indexed":true,"internalType":"bytes32"},{"name":"destinationChainSelector","type":"uint64","indexed":true,"internalType":"uint64"},{"name":"account","type":"address","indexed":true,"internalType":"address"},{"name":"receiver","type":"address","indexed":false,"internalType":"address"},{"name":"fees","type":"uint256","indexed":false,"internalType":"uint256"}],"anonymous":false},{"type":"event","name":"OwnershipTransferRequested","inputs":[{"name":"from","type":"address","indexed":true,"internalType":"address"},{"name":"to","type":"address","indexed":true,"internalType":"address"}],"anonymous":false},{"type":"event","name":"OwnershipTransferred","inputs":[{"name":"from","type":"address","indexed":true,"internalType":"address"},{"name":"to","type":"address","indexed":true,"internalType":"address"}],"anonymous":false}],"bytecode":{"object":"0x60803460c757601f610d3738819003918201601f19168301916001600160401b0383118484101760cb5780849260209460405283398101031260c757516001600160a01b0381169081900360c75733156082575f80546001600160a01b0319908116331790915560028054909116919091179055604051610c5790816100e08239f35b60405162461bcd60e51b815260206004820152601860248201527f43616e6e6f7420736574206f776e657220746f207a65726f00000000000000006044820152606490fd5b5f80fd5b634e487b7160e01b5f52604160045260245ffdfe6080604052600436101561001a575b3615610018575f80fd5b005b5f3560e01c80634c477d64146105ce57806351cff8d9146104d157806379ba5097146104265780638da5cb5b146103ff57806394b816291461027c57806396d3b83d14610227578063aa6f7fb3146101ea578063efac2a7c1461018b578063f26f7a111461014b5763f2fde38b0361000e5734610147576020366003190112610147576100a5610964565b6100ad610b8a565b6001600160a01b031633811461010257600180546001600160a01b031916821790555f80546001600160a01b0316907fed8889f560326eb138920d842192f0eb3dd22b4f139c87a2c57538e05bae12789080a3005b60405162461bcd60e51b815260206004820152601760248201527f43616e6e6f74207472616e7366657220746f2073656c660000000000000000006044820152606490fd5b5f80fd5b34610147576020366003190112610147576001600160401b0361016c610922565b165f526004602052602060018060a01b0360405f205416604051908152f35b34610147576040366003190112610147576101a4610922565b6001600160401b036101b4610938565b916101bd610b8a565b165f90815260046020526040902080546001600160a01b0319166001600160a01b03909216919091179055005b34610147576020366003190112610147576001600160401b0361020b610922565b165f526003602052602060ff60405f2054166040519015158152f35b3461014757604036600319011261014757610240610922565b60243590811515809203610147576001600160401b039061025f610b8a565b165f52600360205260405f209060ff801983541691161790555f80f35b34610147576060366003190112610147576103a5602061029a610922565b6102a2610938565b9061030c6102ae61094e565b6001600160401b0383165f9081526004865260409020546001600160a01b03169361031a906102de86151561097a565b604080516001600160a01b03909216888301528782526102fe9082610a0a565b604051938491888301610a4f565b03601f198101845283610a0a565b6040519385850152848452610330604085610a0a565b610338610a69565b610352604051610347816109d4565b6207a1208152610bdb565b9260405195610360876109ef565b865286860152604085015260018060a01b03166060840152608083015260018060a01b0360025416906040518095819482936320487ded60e01b845260048401610ac0565b03915afa80156103f4575f906103c1575b602090604051908152f35b506020813d6020116103ec575b816103db60209383610a0a565b8101031261014757602090516103b6565b3d91506103ce565b6040513d5f823e3d90fd5b34610147575f366003190112610147575f546040516001600160a01b039091168152602090f35b34610147575f366003190112610147576001546001600160a01b0381163303610493575f80546001600160a01b031980821633908117845593166001556001600160a01b0316907f8be0079c531659141344cd1fd0a4f28419497f9722a3daafe3b4186f6b6457e09080a3005b60405162461bcd60e51b815260206004820152601660248201527526bab9ba10313290383937b837b9b2b21037bbb732b960511b6044820152606490fd5b34610147576020366003190112610147576104ea610964565b6104f2610b8a565b47908115610593575f80809381935af13d1561058e573d6001600160401b03811161057a576040519061052f601f8201601f191660200183610a0a565b81525f60203d92013e5b1561054057005b60405162461bcd60e51b81526020600482015260126024820152714661696c656420746f20776974686472617760701b6044820152606490fd5b634e487b7160e01b5f52604160045260245ffd5b610539565b60405162461bcd60e51b81526020600482015260136024820152724e6f7468696e6720746f20776974686472617760681b6044820152606490fd5b6060366003190112610147576105e2610922565b6105ea610938565b906105f361094e565b916105fc610b8a565b6001600160401b038216805f52600360205260ff60405f205416156108dd575f818152600460205260409020546001600160a01b03169261030c9061064285151561097a565b6106766040519460018060a01b03169485602082015260208152610667604082610a0a565b60405193849160208301610a4f565b604051958560208801526020875261068f604088610a0a565b610697610a69565b6106a6604051610347816109d4565b93604051986106b48a6109ef565b89526020890152604088015260018060a01b031691826060880152608087015260018060a01b0360025416604051926320487ded60e01b8452602084806106ff8b8760048401610ac0565b0381855afa9384156103f4575f946108a9575b5061081557508134106107d0576002546040516396f4e9f960e01b81529660209288926001600160a01b031691839186918391610753919060048401610ac0565b03925af19485156103f4575f9561078f575b505f516020610c025f395f51905f5260406020969586935b825191825288820152a4604051908152f35b94506020853d6020116107c8575b816107aa60209383610a0a565b81010312610147579351935f516020610c025f395f51905f52610765565b3d915061079d565b60405162461bcd60e51b815260206004820152601960248201527f496e73756666696369656e74206665652070726f7669646564000000000000006044820152606490fd5b9561083a966020925f604051809a819582946396f4e9f960e01b845260048401610ac0565b03925af19485156103f4575f95610868575b505f516020610c025f395f51905f52604060209695869361077d565b94506020853d6020116108a1575b8161088360209383610a0a565b81010312610147579351935f516020610c025f395f51905f5261084c565b3d9150610876565b9093506020813d6020116108d5575b816108c560209383610a0a565b8101031261014757519288610712565b3d91506108b8565b60405162461bcd60e51b815260206004820152601d60248201527f44657374696e6174696f6e20636861696e206e6f7420616c6c6f7765640000006044820152606490fd5b600435906001600160401b038216820361014757565b602435906001600160a01b038216820361014757565b604435906001600160a01b038216820361014757565b600435906001600160a01b038216820361014757565b1561098157565b60405162461bcd60e51b815260206004820152602560248201527f4e6f2072656365697665722073657420666f722064657374696e6174696f6e2060448201526431b430b4b760d91b6064820152608490fd5b602081019081106001600160401b0382111761057a57604052565b60a081019081106001600160401b0382111761057a57604052565b90601f801991011681019081106001600160401b0382111761057a57604052565b805180835260209291819084018484015e5f828201840152601f01601f1916010190565b906040610a66925f81528160208201520190610a2b565b90565b60405190610a78602083610a0a565b5f8252815f805b818110610a8b57505050565b6040519060408201918083106001600160401b0384111761057a576020926040525f81525f8382015282828601015201610a7f565b906001600160401b039093929316815260406020820152610b06610af0845160a0604085015260e0840190610a2b565b6020850151838203603f19016060850152610a2b565b90604084015191603f19828203016080830152602080845192838152019301905f5b818110610b5f575050506080610a66939460018060a01b0360608201511660a084015201519060c0603f1982850301910152610a2b565b825180516001600160a01b031686526020908101518187015260409095019490920191600101610b28565b5f546001600160a01b03163303610b9d57565b60405162461bcd60e51b815260206004820152601660248201527527b7363c9031b0b63630b1363290313c9037bbb732b960511b6044820152606490fd5b604051906397a657c960e01b602083015251602482015260248152610a66604482610a0a56fe05c8398d43ec4cecf276697120068ab84dea8bc0b182239ed844bc059d846b8aa2646970667358221220d9ea49b39c0eb72f166c838ce286372372831d18946cad9b37a87c7ed9b647f464736f6c634300081b0033","linkReferences":{}},"methodIdentifiers":{"acceptOwnership()":"79ba5097","allowedDestinationChains(uint64)":"aa6f7fb3","allowedReceivers(uint64)":"f26f7a11","allowlistDestinationChain(uint64,bool)":"96d3b83d","getFeeForLiquidityRequest(uint64,address,address)":"94b81629","owner()":"8da5cb5b","requestAccountLiquidity(uint64,address,address)":"4c477d64","setReceiver(uint64,address)":"efac2a7c","transferOwnership(address)":"f2fde38b","withdraw(address)":"51cff8d9"},"id":43}