{"abi":[{"type":"constructor","inputs":[{"name":"_router","type":"address","internalType":"address"}],"stateMutability":"nonpayable"},{"type":"receive","stateMutability":"payable"},{"type":"function","name":"acceptOwnership","inputs":[],"outputs":[],"stateMutability":"nonpayable"},{"type":"function","name":"allowedDestinationChains","inputs":[{"name":"","type":"uint64","internalType":"uint64"}],"outputs":[{"name":"","type":"bool","internalType":"bool"}],"stateMutability":"view"},{"type":"function","name":"allowedReceivers","inputs":[{"name":"","type":"uint64","internalType":"uint64"}],"outputs":[{"name":"","type":"address","internalType":"address"}],"stateMutability":"view"},{"type":"function","name":"allowlistDestinationChain","inputs":[{"name":"_destinationChainSelector","type":"uint64","internalType":"uint64"},{"name":"_allowed","type":"bool","internalType":"bool"}],"outputs":[],"stateMutability":"nonpayable"},{"type":"function","name":"getFeeForLiquidityRequest","inputs":[{"name":"_destinationChainSelector","type":"uint64","internalType":"uint64"},{"name":"_account","type":"address","internalType":"address"},{"name":"_feeToken","type":"address","internalType":"address"}],"outputs":[{"name":"fee","type":"uint256","internalType":"uint256"}],"stateMutability":"view"},{"type":"function","name":"owner","inputs":[],"outputs":[{"name":"","type":"address","internalType":"address"}],"stateMutability":"view"},{"type":"function","name":"requestAccountLiquidity","inputs":[{"name":"_destinationChainSelector","type":"uint64","internalType":"uint64"},{"name":"_account","type":"address","internalType":"address"},{"name":"_feeToken","type":"address","internalType":"address"}],"outputs":[{"name":"messageId","type":"bytes32","internalType":"bytes32"}],"stateMutability":"payable"},{"type":"function","name":"setReceiver","inputs":[{"name":"_destinationChainSelector","type":"uint64","internalType":"uint64"},{"name":"_receiver","type":"address","internalType":"address"}],"outputs":[],"stateMutability":"nonpayable"},{"type":"function","name":"transferOwnership","inputs":[{"name":"to","type":"address","internalType":"address"}],"outputs":[],"stateMutability":"nonpayable"},{"type":"function","name":"withdraw","inputs":[{"name":"_beneficiary","type":"address","internalType":"address"}],"outputs":[],"stateMutability":"nonpayable"},{"type":"event","name":"CrossChainLiquidityRequestSent","inputs":[{"name":"messageId","type":"bytes32","indexed":true,"internalType":"bytes32"},{"name":"destinationChainSelector","type":"uint64","indexed":true,"internalType":"uint64"},{"name":"account","type":"address","indexed":true,"internalType":"address"},{"name":"receiver","type":"address","indexed":false,"internalType":"address"},{"name":"fees","type":"uint256","indexed":false,"internalType":"uint256"}],"anonymous":false},{"type":"event","name":"OwnershipTransferRequested","inputs":[{"name":"from","type":"address","indexed":true,"internalType":"address"},{"name":"to","type":"address","indexed":true,"internalType":"address"}],"anonymous":false},{"type":"event","name":"OwnershipTransferred","inputs":[{"name":"from","type":"address","indexed":true,"internalType":"address"},{"name":"to","type":"address","indexed":true,"internalType":"address"}],"anonymous":false}],"bytecode":{"object":"0x608060405234801561000f575f5ffd5b50604051610f81380380610f8183398101604081905261002e91610183565b33805f816100835760405162461bcd60e51b815260206004820152601860248201527f43616e6e6f7420736574206f776e657220746f207a65726f000000000000000060448201526064015b60405180910390fd5b5f80546001600160a01b0319166001600160a01b03848116919091179091558116156100b2576100b2816100db565b5050600280546001600160a01b0319166001600160a01b039390931692909217909155506101b0565b336001600160a01b038216036101335760405162461bcd60e51b815260206004820152601760248201527f43616e6e6f74207472616e7366657220746f2073656c66000000000000000000604482015260640161007a565b600180546001600160a01b0319166001600160a01b038381169182179092555f8054604051929316917fed8889f560326eb138920d842192f0eb3dd22b4f139c87a2c57538e05bae12789190a350565b5f60208284031215610193575f5ffd5b81516001600160a01b03811681146101a9575f5ffd5b9392505050565b610dc4806101bd5f395ff3fe608060405260043610610092575f3560e01c806396d3b83d1161005757806396d3b83d14610147578063aa6f7fb314610166578063efac2a7c146101a4578063f26f7a11146101c3578063f2fde38b146101f7575f5ffd5b80634c477d641461009d57806351cff8d9146100c357806379ba5097146100e45780638da5cb5b146100f857806394b8162914610128575f5ffd5b3661009957005b5f5ffd5b6100b06100ab366004610b06565b610216565b6040519081526020015b60405180910390f35b3480156100ce575f5ffd5b506100e26100dd366004610b46565b6105dd565b005b3480156100ef575f5ffd5b506100e26106c2565b348015610103575f5ffd5b505f546001600160a01b03165b6040516001600160a01b0390911681526020016100ba565b348015610133575f5ffd5b506100b0610142366004610b06565b61076b565b348015610152575f5ffd5b506100e2610161366004610b66565b610913565b348015610171575f5ffd5b50610194610180366004610b9f565b60036020525f908152604090205460ff1681565b60405190151581526020016100ba565b3480156101af575f5ffd5b506100e26101be366004610bb8565b610946565b3480156101ce575f5ffd5b506101106101dd366004610b9f565b60046020525f90815260409020546001600160a01b031681565b348015610202575f5ffd5b506100e2610211366004610b46565b610987565b5f61021f61099b565b67ffffffffffffffff84165f9081526003602052604090205460ff1661028c5760405162461bcd60e51b815260206004820152601d60248201527f44657374696e6174696f6e20636861696e206e6f7420616c6c6f77656400000060448201526064015b60405180910390fd5b67ffffffffffffffff84165f908152600460205260409020546001600160a01b0316806102cb5760405162461bcd60e51b815260040161028390610be9565b604080516001600160a01b03861660208201525f910160405160208183030381529060405290505f5f82604051602001610306929190610c5c565b60408051601f1981840301815260a0830182526001600160a01b03861660c0808501919091528251808503909101815260e0840183528352602080840182905282515f8082529181018452919450929182019083610385565b604080518082019091525f808252602082015281526020019060019003908161035f5790505b508152602001876001600160a01b031681526020016103b460405180602001604052806207a1208152506109ef565b90526002546040516320487ded60e01b81529192505f916001600160a01b03909116906320487ded906103ed908c908690600401610c98565b602060405180830381865afa158015610408573d5f5f3e3d5ffd5b505050506040513d601f19601f8201168201806040525081019061042c9190610d77565b90506001600160a01b038716610508578034101561048c5760405162461bcd60e51b815260206004820152601960248201527f496e73756666696369656e74206665652070726f7669646564000000000000006044820152606401610283565b6002546040516396f4e9f960e01b81526001600160a01b03909116906396f4e9f99083906104c0908d908790600401610c98565b60206040518083038185885af11580156104dc573d5f5f3e3d5ffd5b50505050506040513d601f19601f820116820180604052508101906105019190610d77565b955061057d565b6002546040516396f4e9f960e01b81526001600160a01b03909116906396f4e9f99061053a908c908690600401610c98565b6020604051808303815f875af1158015610556573d5f5f3e3d5ffd5b505050506040513d601f19601f8201168201806040525081019061057a9190610d77565b95505b604080516001600160a01b038781168252602082018490528a169167ffffffffffffffff8c169189917f05c8398d43ec4cecf276697120068ab84dea8bc0b182239ed844bc059d846b8a910160405180910390a450505050509392505050565b6105e561099b565b47806106295760405162461bcd60e51b81526020600482015260136024820152724e6f7468696e6720746f20776974686472617760681b6044820152606401610283565b5f826001600160a01b0316826040515f6040518083038185875af1925050503d805f8114610672576040519150601f19603f3d011682016040523d82523d5f602084013e610677565b606091505b50509050806106bd5760405162461bcd60e51b81526020600482015260126024820152714661696c656420746f20776974686472617760701b6044820152606401610283565b505050565b6001546001600160a01b031633146107155760405162461bcd60e51b815260206004820152601660248201527526bab9ba10313290383937b837b9b2b21037bbb732b960511b6044820152606401610283565b5f8054336001600160a01b0319808316821784556001805490911690556040516001600160a01b0390921692909183917f8be0079c531659141344cd1fd0a4f28419497f9722a3daafe3b4186f6b6457e091a350565b67ffffffffffffffff83165f908152600460205260408120546001600160a01b0316806107aa5760405162461bcd60e51b815260040161028390610be9565b604080516001600160a01b03861660208201525f910160405160208183030381529060405290505f5f826040516020016107e5929190610c5c565b60408051601f1981840301815260a0830182526001600160a01b03861660c0808501919091528251808503909101815260e0840183528352602080840182905282515f8082529181018452919450929182019083610864565b604080518082019091525f808252602082015281526020019060019003908161083e5790505b508152602001876001600160a01b0316815260200161089360405180602001604052806207a1208152506109ef565b90526002546040516320487ded60e01b81529192506001600160a01b0316906320487ded906108c8908b908590600401610c98565b602060405180830381865afa1580156108e3573d5f5f3e3d5ffd5b505050506040513d601f19601f820116820180604052508101906109079190610d77565b98975050505050505050565b61091b61099b565b67ffffffffffffffff919091165f908152600360205260409020805460ff1916911515919091179055565b61094e61099b565b67ffffffffffffffff919091165f90815260046020526040902080546001600160a01b0319166001600160a01b03909216919091179055565b61098f61099b565b61099881610a2c565b50565b5f546001600160a01b031633146109ed5760405162461bcd60e51b815260206004820152601660248201527527b7363c9031b0b63630b1363290313c9037bbb732b960511b6044820152606401610283565b565b60408051915160248084019190915281518084039091018152604490920190526020810180516001600160e01b03166397a657c960e01b17905290565b336001600160a01b03821603610a845760405162461bcd60e51b815260206004820152601760248201527f43616e6e6f74207472616e7366657220746f2073656c660000000000000000006044820152606401610283565b600180546001600160a01b0319166001600160a01b038381169182179092555f8054604051929316917fed8889f560326eb138920d842192f0eb3dd22b4f139c87a2c57538e05bae12789190a350565b803567ffffffffffffffff81168114610aeb575f5ffd5b919050565b80356001600160a01b0381168114610aeb575f5ffd5b5f5f5f60608486031215610b18575f5ffd5b610b2184610ad4565b9250610b2f60208501610af0565b9150610b3d60408501610af0565b90509250925092565b5f60208284031215610b56575f5ffd5b610b5f82610af0565b9392505050565b5f5f60408385031215610b77575f5ffd5b610b8083610ad4565b915060208301358015158114610b94575f5ffd5b809150509250929050565b5f60208284031215610baf575f5ffd5b610b5f82610ad4565b5f5f60408385031215610bc9575f5ffd5b610bd283610ad4565b9150610be060208401610af0565b90509250929050565b60208082526025908201527f4e6f2072656365697665722073657420666f722064657374696e6174696f6e2060408201526431b430b4b760d91b606082015260800190565b5f81518084528060208401602086015e5f602082860101526020601f19601f83011685010191505092915050565b5f60018410610c7957634e487b7160e01b5f52602160045260245ffd5b83825260406020830152610c906040830184610c2e565b949350505050565b67ffffffffffffffff83168152604060208201525f825160a06040840152610cc360e0840182610c2e565b90506020840151603f19848303016060850152610ce08282610c2e565b6040860151858203603f190160808701528051808352602091820194505f93509101905b80831015610d3b57835180516001600160a01b03168352602090810151818401529093019260019290920191604090910190610d04565b5060608601516001600160a01b031660a08601526080860151858203603f190160c08701529250610d6c8184610c2e565b979650505050505050565b5f60208284031215610d87575f5ffd5b505191905056fea264697066735822122016f78ac8d41b78d7cbbad90e7d01a97b64619cf2a37b5789f6694b77863add0964736f6c634300081b0033","linkReferences":{}},"methodIdentifiers":{"acceptOwnership()":"79ba5097","allowedDestinationChains(uint64)":"aa6f7fb3","allowedReceivers(uint64)":"f26f7a11","allowlistDestinationChain(uint64,bool)":"96d3b83d","getFeeForLiquidityRequest(uint64,address,address)":"94b81629","owner()":"8da5cb5b","requestAccountLiquidity(uint64,address,address)":"4c477d64","setReceiver(uint64,address)":"efac2a7c","transferOwnership(address)":"f2fde38b","withdraw(address)":"51cff8d9"},"id":2}