{"abi":[{"type":"constructor","inputs":[],"stateMutability":"nonpayable"},{"type":"function","name":"_become","inputs":[{"name":"unitroller","type":"address","internalType":"contract Unitroller"}],"outputs":[],"stateMutability":"nonpayable"},{"type":"function","name":"_borrowGuardianPaused","inputs":[],"outputs":[{"name":"","type":"bool","internalType":"bool"}],"stateMutability":"view"},{"type":"function","name":"_grantPeridot","inputs":[{"name":"recipient","type":"address","internalType":"address"},{"name":"amount","type":"uint256","internalType":"uint256"}],"outputs":[],"stateMutability":"nonpayable"},{"type":"function","name":"_mintGuardianPaused","inputs":[],"outputs":[{"name":"","type":"bool","internalType":"bool"}],"stateMutability":"view"},{"type":"function","name":"_setBorrowCapGuardian","inputs":[{"name":"newBorrowCapGuardian","type":"address","internalType":"address"}],"outputs":[],"stateMutability":"nonpayable"},{"type":"function","name":"_setBorrowPaused","inputs":[{"name":"pToken","type":"address","internalType":"contract PToken"},{"name":"state","type":"bool","internalType":"bool"}],"outputs":[{"name":"","type":"bool","internalType":"bool"}],"stateMutability":"nonpayable"},{"type":"function","name":"_setCloseFactor","inputs":[{"name":"newCloseFactorMantissa","type":"uint256","internalType":"uint256"}],"outputs":[{"name":"","type":"uint256","internalType":"uint256"}],"stateMutability":"nonpayable"},{"type":"function","name":"_setCollateralFactor","inputs":[{"name":"pToken","type":"address","internalType":"contract PToken"},{"name":"newCollateralFactorMantissa","type":"uint256","internalType":"uint256"}],"outputs":[{"name":"","type":"uint256","internalType":"uint256"}],"stateMutability":"nonpayable"},{"type":"function","name":"_setContributorPeridotSpeed","inputs":[{"name":"contributor","type":"address","internalType":"address"},{"name":"peridotSpeed","type":"uint256","internalType":"uint256"}],"outputs":[],"stateMutability":"nonpayable"},{"type":"function","name":"_setLiquidationIncentive","inputs":[{"name":"newLiquidationIncentiveMantissa","type":"uint256","internalType":"uint256"}],"outputs":[{"name":"","type":"uint256","internalType":"uint256"}],"stateMutability":"nonpayable"},{"type":"function","name":"_setMarketBorrowCaps","inputs":[{"name":"pTokens","type":"address[]","internalType":"contract PToken[]"},{"name":"newBorrowCaps","type":"uint256[]","internalType":"uint256[]"}],"outputs":[],"stateMutability":"nonpayable"},{"type":"function","name":"_setMintPaused","inputs":[{"name":"pToken","type":"address","internalType":"contract PToken"},{"name":"state","type":"bool","internalType":"bool"}],"outputs":[{"name":"","type":"bool","internalType":"bool"}],"stateMutability":"nonpayable"},{"type":"function","name":"_setPauseGuardian","inputs":[{"name":"newPauseGuardian","type":"address","internalType":"address"}],"outputs":[{"name":"","type":"uint256","internalType":"uint256"}],"stateMutability":"nonpayable"},{"type":"function","name":"_setPeridotSpeeds","inputs":[{"name":"pTokens","type":"address[]","internalType":"contract PToken[]"},{"name":"supplySpeeds","type":"uint256[]","internalType":"uint256[]"},{"name":"borrowSpeeds","type":"uint256[]","internalType":"uint256[]"}],"outputs":[],"stateMutability":"nonpayable"},{"type":"function","name":"_setPriceOracle","inputs":[{"name":"newOracle","type":"address","internalType":"contract PriceOracle"}],"outputs":[{"name":"","type":"uint256","internalType":"uint256"}],"stateMutability":"nonpayable"},{"type":"function","name":"_setSeizePaused","inputs":[{"name":"state","type":"bool","internalType":"bool"}],"outputs":[{"name":"","type":"bool","internalType":"bool"}],"stateMutability":"nonpayable"},{"type":"function","name":"_setTransferPaused","inputs":[{"name":"state","type":"bool","internalType":"bool"}],"outputs":[{"name":"","type":"bool","internalType":"bool"}],"stateMutability":"nonpayable"},{"type":"function","name":"_supportMarket","inputs":[{"name":"pToken","type":"address","internalType":"contract PToken"}],"outputs":[{"name":"","type":"uint256","internalType":"uint256"}],"stateMutability":"nonpayable"},{"type":"function","name":"accountAssets","inputs":[{"name":"","type":"address","internalType":"address"},{"name":"","type":"uint256","internalType":"uint256"}],"outputs":[{"name":"","type":"address","internalType":"contract PToken"}],"stateMutability":"view"},{"type":"function","name":"admin","inputs":[],"outputs":[{"name":"","type":"address","internalType":"address"}],"stateMutability":"view"},{"type":"function","name":"allMarkets","inputs":[{"name":"","type":"uint256","internalType":"uint256"}],"outputs":[{"name":"","type":"address","internalType":"contract PToken"}],"stateMutability":"view"},{"type":"function","name":"borrowAllowed","inputs":[{"name":"pToken","type":"address","internalType":"address"},{"name":"borrower","type":"address","internalType":"address"},{"name":"borrowAmount","type":"uint256","internalType":"uint256"}],"outputs":[{"name":"","type":"uint256","internalType":"uint256"}],"stateMutability":"nonpayable"},{"type":"function","name":"borrowCapGuardian","inputs":[],"outputs":[{"name":"","type":"address","internalType":"address"}],"stateMutability":"view"},{"type":"function","name":"borrowCaps","inputs":[{"name":"","type":"address","internalType":"address"}],"outputs":[{"name":"","type":"uint256","internalType":"uint256"}],"stateMutability":"view"},{"type":"function","name":"borrowGuardianPaused","inputs":[{"name":"","type":"address","internalType":"address"}],"outputs":[{"name":"","type":"bool","internalType":"bool"}],"stateMutability":"view"},{"type":"function","name":"borrowVerify","inputs":[{"name":"pToken","type":"address","internalType":"address"},{"name":"borrower","type":"address","internalType":"address"},{"name":"borrowAmount","type":"uint256","internalType":"uint256"}],"outputs":[],"stateMutability":"nonpayable"},{"type":"function","name":"checkMembership","inputs":[{"name":"account","type":"address","internalType":"address"},{"name":"pToken","type":"address","internalType":"contract PToken"}],"outputs":[{"name":"","type":"bool","internalType":"bool"}],"stateMutability":"view"},{"type":"function","name":"claimPeridot","inputs":[{"name":"holders","type":"address[]","internalType":"address[]"},{"name":"pTokens","type":"address[]","internalType":"contract PToken[]"},{"name":"borrowers","type":"bool","internalType":"bool"},{"name":"suppliers","type":"bool","internalType":"bool"}],"outputs":[],"stateMutability":"nonpayable"},{"type":"function","name":"claimPeridot","inputs":[{"name":"holder","type":"address","internalType":"address"}],"outputs":[],"stateMutability":"nonpayable"},{"type":"function","name":"claimPeridot","inputs":[{"name":"holder","type":"address","internalType":"address"},{"name":"pTokens","type":"address[]","internalType":"contract PToken[]"}],"outputs":[],"stateMutability":"nonpayable"},{"type":"function","name":"closeFactorMantissa","inputs":[],"outputs":[{"name":"","type":"uint256","internalType":"uint256"}],"stateMutability":"view"},{"type":"function","name":"enterMarkets","inputs":[{"name":"pTokens","type":"address[]","internalType":"address[]"}],"outputs":[{"name":"","type":"uint256[]","internalType":"uint256[]"}],"stateMutability":"nonpayable"},{"type":"function","name":"exitMarket","inputs":[{"name":"pTokenAddress","type":"address","internalType":"address"}],"outputs":[{"name":"","type":"uint256","internalType":"uint256"}],"stateMutability":"nonpayable"},{"type":"function","name":"fixBadAccruals","inputs":[{"name":"affectedUsers","type":"address[]","internalType":"address[]"},{"name":"amounts","type":"uint256[]","internalType":"uint256[]"}],"outputs":[],"stateMutability":"nonpayable"},{"type":"function","name":"getAccountLiquidity","inputs":[{"name":"account","type":"address","internalType":"address"}],"outputs":[{"name":"","type":"uint256","internalType":"uint256"},{"name":"","type":"uint256","internalType":"uint256"},{"name":"","type":"uint256","internalType":"uint256"}],"stateMutability":"view"},{"type":"function","name":"getAllMarkets","inputs":[],"outputs":[{"name":"","type":"address[]","internalType":"contract PToken[]"}],"stateMutability":"view"},{"type":"function","name":"getAssetsIn","inputs":[{"name":"account","type":"address","internalType":"address"}],"outputs":[{"name":"","type":"address[]","internalType":"contract PToken[]"}],"stateMutability":"view"},{"type":"function","name":"getBlockNumber","inputs":[],"outputs":[{"name":"","type":"uint256","internalType":"uint256"}],"stateMutability":"view"},{"type":"function","name":"getHypotheticalAccountLiquidity","inputs":[{"name":"account","type":"address","internalType":"address"},{"name":"pTokenModify","type":"address","internalType":"address"},{"name":"redeemTokens","type":"uint256","internalType":"uint256"},{"name":"borrowAmount","type":"uint256","internalType":"uint256"}],"outputs":[{"name":"","type":"uint256","internalType":"uint256"},{"name":"","type":"uint256","internalType":"uint256"},{"name":"","type":"uint256","internalType":"uint256"}],"stateMutability":"view"},{"type":"function","name":"getPeridotAddress","inputs":[],"outputs":[{"name":"","type":"address","internalType":"address"}],"stateMutability":"view"},{"type":"function","name":"isDeprecated","inputs":[{"name":"pToken","type":"address","internalType":"contract PToken"}],"outputs":[{"name":"","type":"bool","internalType":"bool"}],"stateMutability":"view"},{"type":"function","name":"isPeridottroller","inputs":[],"outputs":[{"name":"","type":"bool","internalType":"bool"}],"stateMutability":"view"},{"type":"function","name":"lastContributorBlock","inputs":[{"name":"","type":"address","internalType":"address"}],"outputs":[{"name":"","type":"uint256","internalType":"uint256"}],"stateMutability":"view"},{"type":"function","name":"liquidateBorrowAllowed","inputs":[{"name":"pTokenBorrowed","type":"address","internalType":"address"},{"name":"pTokenCollateral","type":"address","internalType":"address"},{"name":"liquidator","type":"address","internalType":"address"},{"name":"borrower","type":"address","internalType":"address"},{"name":"repayAmount","type":"uint256","internalType":"uint256"}],"outputs":[{"name":"","type":"uint256","internalType":"uint256"}],"stateMutability":"nonpayable"},{"type":"function","name":"liquidateBorrowVerify","inputs":[{"name":"pTokenBorrowed","type":"address","internalType":"address"},{"name":"pTokenCollateral","type":"address","internalType":"address"},{"name":"liquidator","type":"address","internalType":"address"},{"name":"borrower","type":"address","internalType":"address"},{"name":"actualRepayAmount","type":"uint256","internalType":"uint256"},{"name":"seizeTokens","type":"uint256","internalType":"uint256"}],"outputs":[],"stateMutability":"nonpayable"},{"type":"function","name":"liquidateCalculateSeizeTokens","inputs":[{"name":"pTokenBorrowed","type":"address","internalType":"address"},{"name":"pTokenCollateral","type":"address","internalType":"address"},{"name":"actualRepayAmount","type":"uint256","internalType":"uint256"}],"outputs":[{"name":"","type":"uint256","internalType":"uint256"},{"name":"","type":"uint256","internalType":"uint256"}],"stateMutability":"view"},{"type":"function","name":"liquidationIncentiveMantissa","inputs":[],"outputs":[{"name":"","type":"uint256","internalType":"uint256"}],"stateMutability":"view"},{"type":"function","name":"markets","inputs":[{"name":"","type":"address","internalType":"address"}],"outputs":[{"name":"isListed","type":"bool","internalType":"bool"},{"name":"collateralFactorMantissa","type":"uint256","internalType":"uint256"},{"name":"isPeridoted","type":"bool","internalType":"bool"}],"stateMutability":"view"},{"type":"function","name":"maxAssets","inputs":[],"outputs":[{"name":"","type":"uint256","internalType":"uint256"}],"stateMutability":"view"},{"type":"function","name":"mintAllowed","inputs":[{"name":"pToken","type":"address","internalType":"address"},{"name":"minter","type":"address","internalType":"address"},{"name":"mintAmount","type":"uint256","internalType":"uint256"}],"outputs":[{"name":"","type":"uint256","internalType":"uint256"}],"stateMutability":"nonpayable"},{"type":"function","name":"mintGuardianPaused","inputs":[{"name":"","type":"address","internalType":"address"}],"outputs":[{"name":"","type":"bool","internalType":"bool"}],"stateMutability":"view"},{"type":"function","name":"mintVerify","inputs":[{"name":"pToken","type":"address","internalType":"address"},{"name":"minter","type":"address","internalType":"address"},{"name":"actualMintAmount","type":"uint256","internalType":"uint256"},{"name":"mintTokens","type":"uint256","internalType":"uint256"}],"outputs":[],"stateMutability":"nonpayable"},{"type":"function","name":"oracle","inputs":[],"outputs":[{"name":"","type":"address","internalType":"contract PriceOracle"}],"stateMutability":"view"},{"type":"function","name":"pauseGuardian","inputs":[],"outputs":[{"name":"","type":"address","internalType":"address"}],"stateMutability":"view"},{"type":"function","name":"pendingAdmin","inputs":[],"outputs":[{"name":"","type":"address","internalType":"address"}],"stateMutability":"view"},{"type":"function","name":"pendingPeridottrollerImplementation","inputs":[],"outputs":[{"name":"","type":"address","internalType":"address"}],"stateMutability":"view"},{"type":"function","name":"peridotAccrued","inputs":[{"name":"","type":"address","internalType":"address"}],"outputs":[{"name":"","type":"uint256","internalType":"uint256"}],"stateMutability":"view"},{"type":"function","name":"peridotBorrowSpeeds","inputs":[{"name":"","type":"address","internalType":"address"}],"outputs":[{"name":"","type":"uint256","internalType":"uint256"}],"stateMutability":"view"},{"type":"function","name":"peridotBorrowState","inputs":[{"name":"","type":"address","internalType":"address"}],"outputs":[{"name":"index","type":"uint224","internalType":"uint224"},{"name":"block","type":"uint32","internalType":"uint32"}],"stateMutability":"view"},{"type":"function","name":"peridotBorrowerIndex","inputs":[{"name":"","type":"address","internalType":"address"},{"name":"","type":"address","internalType":"address"}],"outputs":[{"name":"","type":"uint256","internalType":"uint256"}],"stateMutability":"view"},{"type":"function","name":"peridotContributorSpeeds","inputs":[{"name":"","type":"address","internalType":"address"}],"outputs":[{"name":"","type":"uint256","internalType":"uint256"}],"stateMutability":"view"},{"type":"function","name":"peridotInitialIndex","inputs":[],"outputs":[{"name":"","type":"uint224","internalType":"uint224"}],"stateMutability":"view"},{"type":"function","name":"peridotRate","inputs":[],"outputs":[{"name":"","type":"uint256","internalType":"uint256"}],"stateMutability":"view"},{"type":"function","name":"peridotReceivable","inputs":[{"name":"","type":"address","internalType":"address"}],"outputs":[{"name":"","type":"uint256","internalType":"uint256"}],"stateMutability":"view"},{"type":"function","name":"peridotSpeeds","inputs":[{"name":"","type":"address","internalType":"address"}],"outputs":[{"name":"","type":"uint256","internalType":"uint256"}],"stateMutability":"view"},{"type":"function","name":"peridotSupplierIndex","inputs":[{"name":"","type":"address","internalType":"address"},{"name":"","type":"address","internalType":"address"}],"outputs":[{"name":"","type":"uint256","internalType":"uint256"}],"stateMutability":"view"},{"type":"function","name":"peridotSupplySpeeds","inputs":[{"name":"","type":"address","internalType":"address"}],"outputs":[{"name":"","type":"uint256","internalType":"uint256"}],"stateMutability":"view"},{"type":"function","name":"peridotSupplyState","inputs":[{"name":"","type":"address","internalType":"address"}],"outputs":[{"name":"index","type":"uint224","internalType":"uint224"},{"name":"block","type":"uint32","internalType":"uint32"}],"stateMutability":"view"},{"type":"function","name":"peridottrollerImplementation","inputs":[],"outputs":[{"name":"","type":"address","internalType":"address"}],"stateMutability":"view"},{"type":"function","name":"proposal65FixExecuted","inputs":[],"outputs":[{"name":"","type":"bool","internalType":"bool"}],"stateMutability":"view"},{"type":"function","name":"redeemAllowed","inputs":[{"name":"pToken","type":"address","internalType":"address"},{"name":"redeemer","type":"address","internalType":"address"},{"name":"redeemTokens","type":"uint256","internalType":"uint256"}],"outputs":[{"name":"","type":"uint256","internalType":"uint256"}],"stateMutability":"nonpayable"},{"type":"function","name":"redeemVerify","inputs":[{"name":"pToken","type":"address","internalType":"address"},{"name":"redeemer","type":"address","internalType":"address"},{"name":"redeemAmount","type":"uint256","internalType":"uint256"},{"name":"redeemTokens","type":"uint256","internalType":"uint256"}],"outputs":[],"stateMutability":"nonpayable"},{"type":"function","name":"repayBorrowAllowed","inputs":[{"name":"pToken","type":"address","internalType":"address"},{"name":"payer","type":"address","internalType":"address"},{"name":"borrower","type":"address","internalType":"address"},{"name":"repayAmount","type":"uint256","internalType":"uint256"}],"outputs":[{"name":"","type":"uint256","internalType":"uint256"}],"stateMutability":"nonpayable"},{"type":"function","name":"repayBorrowVerify","inputs":[{"name":"pToken","type":"address","internalType":"address"},{"name":"payer","type":"address","internalType":"address"},{"name":"borrower","type":"address","internalType":"address"},{"name":"actualRepayAmount","type":"uint256","internalType":"uint256"},{"name":"borrowerIndex","type":"uint256","internalType":"uint256"}],"outputs":[],"stateMutability":"nonpayable"},{"type":"function","name":"seizeAllowed","inputs":[{"name":"pTokenCollateral","type":"address","internalType":"address"},{"name":"pTokenBorrowed","type":"address","internalType":"address"},{"name":"liquidator","type":"address","internalType":"address"},{"name":"borrower","type":"address","internalType":"address"},{"name":"seizeTokens","type":"uint256","internalType":"uint256"}],"outputs":[{"name":"","type":"uint256","internalType":"uint256"}],"stateMutability":"nonpayable"},{"type":"function","name":"seizeGuardianPaused","inputs":[],"outputs":[{"name":"","type":"bool","internalType":"bool"}],"stateMutability":"view"},{"type":"function","name":"seizeVerify","inputs":[{"name":"pTokenCollateral","type":"address","internalType":"address"},{"name":"pTokenBorrowed","type":"address","internalType":"address"},{"name":"liquidator","type":"address","internalType":"address"},{"name":"borrower","type":"address","internalType":"address"},{"name":"seizeTokens","type":"uint256","internalType":"uint256"}],"outputs":[],"stateMutability":"nonpayable"},{"type":"function","name":"transferAllowed","inputs":[{"name":"pToken","type":"address","internalType":"address"},{"name":"src","type":"address","internalType":"address"},{"name":"dst","type":"address","internalType":"address"},{"name":"transferTokens","type":"uint256","internalType":"uint256"}],"outputs":[{"name":"","type":"uint256","internalType":"uint256"}],"stateMutability":"nonpayable"},{"type":"function","name":"transferGuardianPaused","inputs":[],"outputs":[{"name":"","type":"bool","internalType":"bool"}],"stateMutability":"view"},{"type":"function","name":"transferVerify","inputs":[{"name":"pToken","type":"address","internalType":"address"},{"name":"src","type":"address","internalType":"address"},{"name":"dst","type":"address","internalType":"address"},{"name":"transferTokens","type":"uint256","internalType":"uint256"}],"outputs":[],"stateMutability":"nonpayable"},{"type":"function","name":"updateContributorRewards","inputs":[{"name":"contributor","type":"address","internalType":"address"}],"outputs":[],"stateMutability":"nonpayable"},{"type":"event","name":"ActionPaused","inputs":[{"name":"action","type":"string","indexed":false,"internalType":"string"},{"name":"pauseState","type":"bool","indexed":false,"internalType":"bool"}],"anonymous":false},{"type":"event","name":"ActionPaused","inputs":[{"name":"pToken","type":"address","indexed":false,"internalType":"contract PToken"},{"name":"action","type":"string","indexed":false,"internalType":"string"},{"name":"pauseState","type":"bool","indexed":false,"internalType":"bool"}],"anonymous":false},{"type":"event","name":"ContributorPeridotSpeedUpdated","inputs":[{"name":"contributor","type":"address","indexed":true,"internalType":"address"},{"name":"newSpeed","type":"uint256","indexed":false,"internalType":"uint256"}],"anonymous":false},{"type":"event","name":"DistributedBorrowerPeridot","inputs":[{"name":"pToken","type":"address","indexed":true,"internalType":"contract PToken"},{"name":"borrower","type":"address","indexed":true,"internalType":"address"},{"name":"peridotDelta","type":"uint256","indexed":false,"internalType":"uint256"},{"name":"peridotBorrowIndex","type":"uint256","indexed":false,"internalType":"uint256"}],"anonymous":false},{"type":"event","name":"DistributedSupplierPeridot","inputs":[{"name":"pToken","type":"address","indexed":true,"internalType":"contract PToken"},{"name":"supplier","type":"address","indexed":true,"internalType":"address"},{"name":"peridotDelta","type":"uint256","indexed":false,"internalType":"uint256"},{"name":"peridotSupplyIndex","type":"uint256","indexed":false,"internalType":"uint256"}],"anonymous":false},{"type":"event","name":"Failure","inputs":[{"name":"error","type":"uint256","indexed":false,"internalType":"uint256"},{"name":"info","type":"uint256","indexed":false,"internalType":"uint256"},{"name":"detail","type":"uint256","indexed":false,"internalType":"uint256"}],"anonymous":false},{"type":"event","name":"MarketEntered","inputs":[{"name":"pToken","type":"address","indexed":false,"internalType":"contract PToken"},{"name":"account","type":"address","indexed":false,"internalType":"address"}],"anonymous":false},{"type":"event","name":"MarketExited","inputs":[{"name":"pToken","type":"address","indexed":false,"internalType":"contract PToken"},{"name":"account","type":"address","indexed":false,"internalType":"address"}],"anonymous":false},{"type":"event","name":"MarketListed","inputs":[{"name":"pToken","type":"address","indexed":false,"internalType":"contract PToken"}],"anonymous":false},{"type":"event","name":"NewBorrowCap","inputs":[{"name":"pToken","type":"address","indexed":true,"internalType":"contract PToken"},{"name":"newBorrowCap","type":"uint256","indexed":false,"internalType":"uint256"}],"anonymous":false},{"type":"event","name":"NewBorrowCapGuardian","inputs":[{"name":"oldBorrowCapGuardian","type":"address","indexed":false,"internalType":"address"},{"name":"newBorrowCapGuardian","type":"address","indexed":false,"internalType":"address"}],"anonymous":false},{"type":"event","name":"NewCloseFactor","inputs":[{"name":"oldCloseFactorMantissa","type":"uint256","indexed":false,"internalType":"uint256"},{"name":"newCloseFactorMantissa","type":"uint256","indexed":false,"internalType":"uint256"}],"anonymous":false},{"type":"event","name":"NewCollateralFactor","inputs":[{"name":"pToken","type":"address","indexed":false,"internalType":"contract PToken"},{"name":"oldCollateralFactorMantissa","type":"uint256","indexed":false,"internalType":"uint256"},{"name":"newCollateralFactorMantissa","type":"uint256","indexed":false,"internalType":"uint256"}],"anonymous":false},{"type":"event","name":"NewLiquidationIncentive","inputs":[{"name":"oldLiquidationIncentiveMantissa","type":"uint256","indexed":false,"internalType":"uint256"},{"name":"newLiquidationIncentiveMantissa","type":"uint256","indexed":false,"internalType":"uint256"}],"anonymous":false},{"type":"event","name":"NewPauseGuardian","inputs":[{"name":"oldPauseGuardian","type":"address","indexed":false,"internalType":"address"},{"name":"newPauseGuardian","type":"address","indexed":false,"internalType":"address"}],"anonymous":false},{"type":"event","name":"NewPriceOracle","inputs":[{"name":"oldPriceOracle","type":"address","indexed":false,"internalType":"contract PriceOracle"},{"name":"newPriceOracle","type":"address","indexed":false,"internalType":"contract PriceOracle"}],"anonymous":false},{"type":"event","name":"PeridotAccruedAdjusted","inputs":[{"name":"user","type":"address","indexed":true,"internalType":"address"},{"name":"oldPeridotAccrued","type":"uint256","indexed":false,"internalType":"uint256"},{"name":"newPeridotAccrued","type":"uint256","indexed":false,"internalType":"uint256"}],"anonymous":false},{"type":"event","name":"PeridotBorrowSpeedUpdated","inputs":[{"name":"pToken","type":"address","indexed":true,"internalType":"contract PToken"},{"name":"newSpeed","type":"uint256","indexed":false,"internalType":"uint256"}],"anonymous":false},{"type":"event","name":"PeridotGranted","inputs":[{"name":"recipient","type":"address","indexed":false,"internalType":"address"},{"name":"amount","type":"uint256","indexed":false,"internalType":"uint256"}],"anonymous":false},{"type":"event","name":"PeridotReceivableUpdated","inputs":[{"name":"user","type":"address","indexed":true,"internalType":"address"},{"name":"oldPeridotReceivable","type":"uint256","indexed":false,"internalType":"uint256"},{"name":"newPeridotReceivable","type":"uint256","indexed":false,"internalType":"uint256"}],"anonymous":false},{"type":"event","name":"PeridotSupplySpeedUpdated","inputs":[{"name":"pToken","type":"address","indexed":true,"internalType":"contract PToken"},{"name":"newSpeed","type":"uint256","indexed":false,"internalType":"uint256"}],"anonymous":false}],"bytecode":{"object":"0x608080604052346026575f80546001600160a01b03191633179055615573908161002b8239f35b5f80fdfe6080806040526004361015610012575f80fd5b5f3560e01c9081630938c63d146121bb575080630aa4266f1461216b57806316b95e8f14611f3f57806318c882a514611e2c57806318f1408d14611e045780631d504dc614611c765780631ededc9114611c4b57806321af456914611c2357806324008a6214611c0757806324a3d62214611bdf5780632582e0ec14611974578063267822471461194c5780632d70db781461186f578063317b0b77146117c3578063328bb72b14611772578063363769251461174e578063391957d7146116735780633bcf7ec1146115625780633c94786f1461153d57806341c728b91461152f57806342cbb15c1461151557806347ef3b3b146114e15780634a584432146114a95780634ada90af1461148c5780634e79238f146114695780634ef4c3e11461144f5780634fd42e171461143157806351dff989146113ce57806352d84d1e146113a557806355ee1fe1146113765780635c778605146113685780635ec88c791461131b5780635f5af1aa146112f85780635fc7e71e146112db578063607ef6c11461115e5780636a56947e146111505780636d154ea5146111135780636d35bf9114611105578063731f0c2b146110c8578063741b2525146110a7578063794595f51461106f5780637c8f3a67146110475780637dc0d1d01461101f57806387f7630314610ffa5780638b130fa014610fcc5780638e8f294b14610f735780638ebf636414610e93578063929fe9a114610e39578063935dbd2614610de857806394543c1514610dbb57806394b2294b14610d9e5780639a8260d614610c975780639d92e62f14610c53578063a64db62714610c03578063a76b3fda14610be0578063abfceffc14610ba8578063ac0b0bb714610b83578063b0772d0b14610b58578063b0cbd62214610aa7578063bdcdc25814610a8b578063bea6b8b814610a53578063c299823814610954578063c44e16571461068e578063c488847b14610669578063c6a0175914610631578063cd2489f014610609578063ce27c01e146105d1578063d002d98914610599578063d02f73511461057c578063d088864a1461055f578063da3d454c14610546578063dce15449146104e4578063e4028eee146104bd578063e6653f3d14610498578063e87554461461047b578063eabe7d9114610462578063ede4edd014610437578063f00a7a9214610415578063f1ad5756146103dd578063f851a440146103b65763fa707af914610397575f80fd5b346103b2575f3660031901126103b257602060405160018152f35b5f80fd5b346103b2575f3660031901126103b2575f546040516001600160a01b039091168152602090f35b346103b25760203660031901126103b2576001600160a01b036103fe6121ef565b165f52601c602052602060405f2054604051908152f35b346103b2575f3660031901126103b257602060ff601b54166040519015158152f35b346103b25760203660031901126103b257602061045a6104556121ef565b613c2c565b604051908152f35b346103b257602061045a6104753661246d565b91613be5565b346103b2575f3660031901126103b2576020600554604051908152f35b346103b2575f3660031901126103b257602060ff600a5460a81c166040519015158152f35b346103b25760403660031901126103b257602061045a6104db6121ef565b60243590613a07565b346103b25760403660031901126103b2576104fd6121ef565b6001600160a01b03165f908152600860205260409020805460243591908210156103b25760209161052d916124d3565b905460405160039290921b1c6001600160a01b03168152f35b346103b257602061045a6105593661246d565b9161372b565b346103b2575f3660031901126103b2576020600e54604051908152f35b346103b257602061045a61058f366124e8565b509291909161359e565b346103b25760203660031901126103b2576001600160a01b036105ba6121ef565b165f526014602052602060405f2054604051908152f35b346103b25760203660031901126103b2576001600160a01b036105f26121ef565b165f526017602052602060405f2054604051908152f35b346103b2575f3660031901126103b25760206040516a0c097ce7bc90715b34b9f160241b8152f35b346103b25760203660031901126103b2576001600160a01b036106526121ef565b165f526019602052602060405f2054604051908152f35b346103b257604061068261067c3661246d565b9161335c565b82519182526020820152f35b346103b25760603660031901126103b2576004356001600160401b0381116103b2576106be9036906004016123ca565b6024356001600160401b0381116103b2576106dd90369060040161258c565b906044356001600160401b0381116103b2576106fd90369060040161258c565b9161070e61070961524f565b6132a1565b815191815183148061094a575b156108ed575f5b83811061072b57005b6001600160a01b0361073d82846127c6565b51169061074a81856127c6565b519161075682886127c6565b5192815f52600960205260ff60405f205416156108a8578190815f52601a6020528060405f205403610860575b505f5260196020528260405f2054036107a2575b506001915001610722565b60405163aa5af0fd60e01b815292602084600481855afa938415610855575f94610821575b5060207f7c4b2d63a558e248d494f0bc7a1b8606825ff99d95311e4d9c8f4c7911c8949f91610807600196604051906107ff82612347565b815285613ed4565b835f52601982528060405f2055604051908152a286610797565b93506020843d821161084d575b8161083b60209383612392565b810103126103b25792519260206107c7565b3d915061082e565b6040513d5f823e3d90fd5b60207fe2472d7db054d493512d58f612970e3b40b55230de0ad1a01bb877bad7646eff9161088d8461424b565b835f52601a82528060405f2055604051908152a28088610783565b60405162461bcd60e51b815260206004820152601c60248201527f70657269646f74206d61726b6574206973206e6f74206c6973746564000000006044820152606490fd5b60405162461bcd60e51b815260206004820152602f60248201527f50657269646f7474726f6c6c65723a3a5f73657450657269646f74537065656460448201526e1cc81a5b9d985b1a59081a5b9c1d5d608a1b6064820152608490fd5b508351831461071b565b346103b25760203660031901126103b2576004356001600160401b0381116103b2576109849036906004016123ca565b805190610990826123b3565b9161099e6040519384612392565b8083526109aa816123b3565b602084019290601f19013684375f5b828110610a04578385604051918291602083019060208452518091526040830191905f5b8181106109eb575050500390f35b82518452859450602093840193909201916001016109dd565b610a21336001600160a01b03610a1a84866127c6565b51166152f7565b906012821015610a3f57600191610a3882886127c6565b52016109b9565b634e487b7160e01b5f52602160045260245ffd5b346103b25760203660031901126103b2576001600160a01b03610a746121ef565b165f526018602052602060405f2054604051908152f35b346103b257602061045a610a9e366122f9565b929190916132ec565b346103b25760403660031901126103b257610ac06121ef565b7f25c31f2aebcdd5690c478d6f15c5d081640120a66428323870ed17257e342c3a602060243592610af261070961524f565b610afb81612c48565b83610b3a576001600160a01b0381165f9081526018835260408120555b6001600160a01b03165f818152601783526040908190208590555193845292a2005b6001600160a01b0381165f9081526018835260409020439055610b18565b346103b2575f3660031901126103b257610b7f610b736127da565b6040519182918261254a565b0390f35b346103b2575f3660031901126103b257602060ff600a5460b81c166040519015158152f35b346103b25760203660031901126103b2576001600160a01b03610bc96121ef565b165f526008602052610b7f610b7360405f2061282d565b346103b25760203660031901126103b257602061045a610bfe6121ef565b612fa3565b346103b25760403660031901126103b257610c1c6121ef565b610c24612205565b6001600160a01b039182165f908152601360209081526040808320949093168252928352819020549051908152f35b346103b25760403660031901126103b257610c6c6121ef565b602435906001600160401b0382116103b257610c8f610c959236906004016123ca565b90612d84565b005b346103b25760403660031901126103b257610cb06121ef565b602435610cbb61524f565b15610d5957610cca8183614477565b610d1457604080516001600160a01b03909316835260208301919091527f261934657a3c2333b8c49721bd1f22d7fa808b39ff56c88e0ed42daaff5e2c4e9190819081015b0390a1005b60405162461bcd60e51b815260206004820152601e60248201527f696e73756666696369656e742070657269646f7420666f72206772616e7400006044820152606490fd5b60405162461bcd60e51b815260206004820152601c60248201527f6f6e6c792061646d696e2063616e206772616e742070657269646f74000000006044820152606490fd5b346103b2575f3660031901126103b2576020600754604051908152f35b346103b25760203660031901126103b2576020610dde610dd96121ef565b612ccb565b6040519015158152f35b346103b25760203660031901126103b2576001600160a01b03610e096121ef565b165f908152601060209081526040918290205482516001600160e01b038216815260e09190911c91810191909152f35b346103b25760403660031901126103b257610e526121ef565b6001600160a01b03610e62612205565b165f526009602052600260405f20019060018060a01b03165f52602052602060ff60405f2054166040519015158152f35b346103b25760203660031901126103b2576020610eae6122ea565b600a5490336001600160a01b038316148015610f60575b610ece90612677565b5f546001600160a01b031633148015610f54575b610eeb906126d3565b15159060ff60b01b8260b01b169060ff60b01b191617600a557fef159d9a32b2472e32b098f954f3ce62d232939f1c207070b584df1814de2de060806040516040815260086040820152672a3930b739b332b960c11b60608201528385820152a1604051908152f35b50801515600114610ee2565b505f546001600160a01b03163314610ec5565b346103b25760203660031901126103b2576001600160a01b03610f946121ef565b165f526009602052606060405f2060ff8154169060ff6003600183015492015416906040519215158352602083015215156040820152f35b346103b2575f3660031901126103b257602060405173507f0f5e58d21f07d133722e038067248fe4ecbe8152f35b346103b2575f3660031901126103b257602060ff600a5460b01c166040519015158152f35b346103b2575f3660031901126103b2576004546040516001600160a01b039091168152602090f35b346103b2575f3660031901126103b2576003546040516001600160a01b039091168152602090f35b346103b25760203660031901126103b2576001600160a01b036110906121ef565b165f52600f602052602060405f2054604051908152f35b346103b25760203660031901126103b257610c956110c36121ef565b612c48565b346103b25760203660031901126103b2576001600160a01b036110e96121ef565b165f52600b602052602060ff60405f2054166040519015158152f35b346103b257610c95366124e8565b346103b25760203660031901126103b2576001600160a01b036111346121ef565b165f52600c602052602060ff60405f2054166040519015158152f35b346103b257610c95366122f9565b346103b25761116c3661228b565b9160018060a01b035f5416331480156112c7575b15611264578015158061125b575b15611226575f5b81811061119e57005b806111ac60019286866125e9565b35828060a01b036111c66111c184878b6125e9565b612c34565b165f52601660205260405f20556111e16111c18285896125e9565b7f6f1951b2aad10f3fc81b86d91105b413a5b3f847a34bbc5ce1904201b14438f6602061120f8489896125e9565b3592604051938452858060a01b031692a201611195565b60405162461bcd60e51b815260206004820152600d60248201526c1a5b9d985b1a59081a5b9c1d5d609a1b6044820152606490fd5b5082811461118e565b60405162461bcd60e51b815260206004820152603560248201527f6f6e6c792061646d696e206f7220626f72726f772063617020677561726469616044820152746e2063616e2073657420626f72726f77206361707360581b6064820152608490fd5b506015546001600160a01b03163314611180565b346103b257602061045a6112ee366124e8565b9390929150612aaa565b346103b25760203660031901126103b257602061045a6113166121ef565b612a0e565b346103b25760203660031901126103b25761133c6113376121ef565b614576565b60128392931015610a3f57610b7f90604051938493846040919493926060820195825260208201520152565b346103b257610c953661246d565b346103b25760203660031901126103b2576004356001600160a01b03811681036103b25761045a60209161297a565b346103b25760203660031901126103b257600435600d548110156103b25761052d6020916124a7565b346103b2576113dc3661242f565b159250905081611427575b506113ee57005b60405162461bcd60e51b815260206004820152601160248201527072656465656d546f6b656e73207a65726f60781b6044820152606490fd5b90501515816113e7565b346103b25760203660031901126103b257602061045a600435612903565b346103b257602061045a6114623661246d565b509061287e565b346103b25761133c61147a3661242f565b9290916001600160a01b031690614f17565b346103b2575f3660031901126103b2576020600654604051908152f35b346103b25760203660031901126103b2576001600160a01b036114ca6121ef565b165f526016602052602060405f2054604051908152f35b346103b25760c03660031901126103b2576114fa6121ef565b50611503612205565b5061150c61221b565b50610c95612231565b346103b2575f3660031901126103b2576020604051438152f35b346103b257610c953661242f565b346103b2575f3660031901126103b257602060ff600a5460a01c166040519015158152f35b346103b25760403660031901126103b257602061157d6121ef565b7f71aec636243f9709bb0007ae15e9afb8150ab01716d75fd7573be5cc096e03b060a06115a86122db565b92600180831b031692835f52600985526115c860ff60405f20541661261a565b600180831b03600a54163314801561165d575b6115e490612677565b600180831b035f541633148015611651575b6115ff906126d3565b835f52600b855261161f8160405f209060ff801983541691151516179055565b6040519384526060858501526004606085015263135a5b9d60e21b6080850152151592836040820152a1604051908152f35b508015156001146115f6565b506115e4600180841b035f5416331490506115db565b346103b25760203660031901126103b25761168c6121ef565b5f546001600160a01b031633036116fa57601580546001600160a01b039283166001600160a01b0319821681179092556040805193909116835260208301919091527feda98690e518e9a05f8ec6837663e188211b2da8f4906648b323f2c1d4434e29919081908101610d0f565b60405162461bcd60e51b815260206004820152602660248201527f6f6e6c792061646d696e2063616e2073657420626f72726f772063617020677560448201526530b93234b0b760d11b6064820152608490fd5b346103b25760203660031901126103b257610c9561176a6121ef565b610c8f6127da565b346103b25760203660031901126103b2576001600160a01b036117936121ef565b165f908152601160209081526040918290205482516001600160e01b038216815260e09190911c91810191909152f35b346103b25760203660031901126103b2575f54600435906001600160a01b0316330361182a5760407f3b9670cf975d26958e754b57098eaa2ac914d8d2a31b83257997b9f346110fd991600554908060055582519182526020820152a160206040515f8152f35b60405162461bcd60e51b815260206004820152601f60248201527f6f6e6c792061646d696e2063616e2073657420636c6f736520666163746f72006044820152606490fd5b346103b25760203660031901126103b257602061188a6122ea565b600a5490336001600160a01b038316148015611939575b6118aa90612677565b5f546001600160a01b03163314801561192d575b6118c7906126d3565b15159060ff60b81b8260b81b169060ff60b81b191617600a557fef159d9a32b2472e32b098f954f3ce62d232939f1c207070b584df1814de2de060806040516040815260056040820152645365697a6560d81b60608201528385820152a1604051908152f35b508015156001146118be565b505f546001600160a01b031633146118a1565b346103b2575f3660031901126103b2576001546040516001600160a01b039091168152602090f35b346103b25760803660031901126103b2576004356001600160401b0381116103b2576119a49036906004016123ca565b6024356001600160401b0381116103b2576119c39036906004016123ca565b90604435908115158092036103b257606435928315158094036103b257916001805f92149414905b8351811015611b71576001600160a01b03611a0682866127c6565b5116805f52600960205260ff60405f20541615611b345785611a7e575b82611a32575b506001016119eb565b91949093611a3f8361424b565b5f5b8451811015611a7057600190611a6a6001600160a01b03611a6283896127c6565b511686614327565b01611a41565b509360019195925090611a29565b90939491926040519263aa5af0fd60e01b8452602084600481865afa938415610855575f94611b01575b5060405193611ab685612347565b8452611ac28484613ed4565b5f5b8251811015611af457600190611aee866001600160a01b03611ae684886127c6565b5116876140c8565b01611ac4565b5095949093925090611a23565b9093506020813d8211611b2c575b81611b1c60209383612392565b810103126103b257519287611aa8565b3d9150611b0f565b60405162461bcd60e51b81526020600482015260156024820152741b585c9ad95d081b5d5cdd081899481b1a5cdd1959605a1b6044820152606490fd5b825f5b8151811015610c9557600190611bbb6001600160a01b03611b9583866127c6565b5116838060a01b03611ba784876127c6565b51165f52601460205260405f205490614477565b828060a01b03611bcb83866127c6565b51165f52601460205260405f205501611b74565b346103b2575f3660031901126103b257600a546040516001600160a01b039091168152602090f35b346103b257602061045a611c1a366122f9565b50919050612718565b346103b2575f3660031901126103b2576015546040516001600160a01b039091168152602090f35b346103b25760a03660031901126103b257611c646121ef565b50611c6d612205565b50610c9561221b565b346103b25760203660031901126103b2576004356001600160a01b038116908190036103b2576040516303e1469160e61b8152602081600481855afa908115610855575f91611dc2575b506001600160a01b03163303611d6d5760205f9160046040518094819363307a00cd60e21b83525af1908115610855575f91611d3b575b50611cfe57005b60405162461bcd60e51b815260206004820152601560248201527418da185b99d9481b9bdd08185d5d1a1bdc9a5e9959605a1b6044820152606490fd5b90506020813d602011611d65575b81611d5660209383612392565b810103126103b2575181611cf7565b3d9150611d49565b60405162461bcd60e51b815260206004820152602760248201527f6f6e6c7920756e6974726f6c6c65722061646d696e2063616e206368616e676560448201526620627261696e7360c81b6064820152608490fd5b90506020813d602011611dfc575b81611ddd60209383612392565b810103126103b257516001600160a01b03811681036103b25782611cc0565b3d9150611dd0565b346103b2575f3660031901126103b2576002546040516001600160a01b039091168152602090f35b346103b25760403660031901126103b2576020611e476121ef565b7f71aec636243f9709bb0007ae15e9afb8150ab01716d75fd7573be5cc096e03b060a0611e726122db565b92600180831b031692835f5260098552611e9260ff60405f20541661261a565b600180831b03600a541633148015611f29575b611eae90612677565b600180831b035f541633148015611f1d575b611ec9906126d3565b835f52600c8552611ee98160405f209060ff801983541691151516179055565b6040519384526060858501526006606085015265426f72726f7760d01b6080850152151592836040820152a1604051908152f35b50801515600114611ec0565b50611eae600180841b035f541633149050611ea5565b346103b257611f4d3661228b565b5f54909392906001600160a01b0316330361211c5760ff601b54166120c857838103612093575f5b818110611f8b57601b805460ff19166001179055005b611f968183866125e9565b356001600160a01b03811691908290036103b257816001925f52601460205260405f2054611fc58389886125e9565b35828280831161202f575b505080611fe1575b50505001611f75565b8161200f6040927f2165c0bcff924e014ed0cadcb1b6e7a260b354b504910ee3f6d8813195de997b946125f9565b845f52601460205280835f205582519182526020820152a2868080611fd8565b61205d6040917f793e2718d51a297e2789f41937e2eaef28c25cfd40d726695189156df1b9b02b93946125f9565b835f52601c602052612073825f20549182613ec7565b845f52601c60205280835f205582519182526020820152a2808282611fd0565b60405162461bcd60e51b815260206004820152600d60248201526c125b9d985b1a59081a5b9c1d5d609a1b6044820152606490fd5b60405162461bcd60e51b815260206004820152602660248201527f416c72656164792065786563757465642074686973206f6e652d6f66662066756044820152653731ba34b7b760d11b6064820152608490fd5b60405162461bcd60e51b815260206004820152602160248201527f4f6e6c792061646d696e2063616e2063616c6c20746869732066756e6374696f6044820152603760f91b6064820152608490fd5b346103b25760403660031901126103b2576121846121ef565b61218c612205565b6001600160a01b039182165f908152601260209081526040808320949093168252928352819020549051908152f35b346103b25760203660031901126103b2576020906001600160a01b036121df6121ef565b165f52601a825260405f20548152f35b600435906001600160a01b03821682036103b257565b602435906001600160a01b03821682036103b257565b604435906001600160a01b03821682036103b257565b606435906001600160a01b03821682036103b257565b35906001600160a01b03821682036103b257565b9181601f840112156103b2578235916001600160401b0383116103b2576020808501948460051b0101116103b257565b60406003198201126103b2576004356001600160401b0381116103b257816122b59160040161225b565b92909291602435906001600160401b0382116103b2576122d79160040161225b565b9091565b6024359081151582036103b257565b6004359081151582036103b257565b60809060031901126103b2576004356001600160a01b03811681036103b257906024356001600160a01b03811681036103b257906044356001600160a01b03811681036103b2579060643590565b602081019081106001600160401b0382111761236257604052565b634e487b7160e01b5f52604160045260245ffd5b61014081019081106001600160401b0382111761236257604052565b90601f801991011681019081106001600160401b0382111761236257604052565b6001600160401b0381116123625760051b60200190565b9080601f830112156103b25781356123e1816123b3565b926123ef6040519485612392565b81845260208085019260051b8201019283116103b257602001905b8282106124175750505090565b6020809161242484612247565b81520191019061240a565b60809060031901126103b2576004356001600160a01b03811681036103b257906024356001600160a01b03811681036103b257906044359060643590565b60609060031901126103b2576004356001600160a01b03811681036103b257906024356001600160a01b03811681036103b2579060443590565b600d548110156124bf57600d5f5260205f2001905f90565b634e487b7160e01b5f52603260045260245ffd5b80548210156124bf575f5260205f2001905f90565b60a09060031901126103b2576004356001600160a01b03811681036103b257906024356001600160a01b03811681036103b257906044356001600160a01b03811681036103b257906064356001600160a01b03811681036103b2579060843590565b60206040818301928281528451809452019201905f5b81811061256d5750505090565b82516001600160a01b0316845260209384019390920191600101612560565b9080601f830112156103b25781356125a3816123b3565b926125b16040519485612392565b81845260208085019260051b8201019283116103b257602001905b8282106125d95750505090565b81358152602091820191016125cc565b91908110156124bf5760051b0190565b9190820391821161260657565b634e487b7160e01b5f52601160045260245ffd5b1561262157565b60405162461bcd60e51b815260206004820152602860248201527f63616e6e6f742070617573652061206d61726b65742074686174206973206e6f6044820152671d081b1a5cdd195960c21b6064820152608490fd5b1561267e57565b60405162461bcd60e51b815260206004820152602760248201527f6f6e6c7920706175736520677561726469616e20616e642061646d696e2063616044820152666e20706175736560c81b6064820152608490fd5b156126da57565b60405162461bcd60e51b81526020600482015260166024820152756f6e6c792061646d696e2063616e20756e706175736560501b6044820152606490fd5b6001600160a01b0381165f8181526009602052604090205490929060ff16156127be5760206004936040519485809263aa5af0fd60e01b82525afa918215610855575f92612788575b61278493506040519261277384612347565b835261277f8382613ed4565b6140c8565b5f90565b91506020833d6020116127b6575b816127a360209383612392565b810103126103b257612784925191612761565b3d9150612796565b505050600990565b80518210156124bf5760209160051b010190565b60405190600d548083528260208101600d5f5260205f20925f5b81811061280b57505061280992500383612392565b565b84546001600160a01b03168352600194850194879450602090930192016127f4565b90604051918281549182825260208201905f5260205f20925f5b81811061285c57505061280992500383612392565b84546001600160a01b0316835260019485019487945060209093019201612847565b6001600160a01b0381165f818152600b602052604090205491929160ff166128cd575f52600960205260ff60405f205416156128c657816128c16127849361424b565b614327565b5050600990565b60405162461bcd60e51b815260206004820152600e60248201526d1b5a5b9d081a5cc81c185d5cd95960921b6044820152606490fd5b5f546001600160a01b0316330361294f5760407faeba5a6c40a8ac138134bff1aaa65debf25971188a58804bad717f82f0ec131691600654908060065582519182526020820152a15f90565b505f51602061551e5f395f51905f52606060405160018152600b60208201525f6040820152a1600190565b5f546001600160a01b031633036129e357600480546001600160a01b039283166001600160a01b0319821681179092556040805193909116835260208301919091527fd52b2b9b7e9ee655fcb95d2e5b9e0c9f69e7ef2b8e9d2d0ea78402d576d22e2291a15f90565b505f51602061551e5f395f51905f52606060405160018152601060208201525f6040820152a1600190565b5f546001600160a01b03163303612a7f57600a80546001600160a01b039283166001600160a01b0319821681179092556040805193909116835260208301919091527f0613b6ee6a04f0d09f390e4d9318894b9f6ac7fd83897cd8d18896ba579c401e9190819081015b0390a15f90565b505f51602061551e5f395f51905f52606060405160018152601360208201525f6040820152a1600190565b6001600160a01b03165f8181526009602052604090205490929160ff90911615908115612c12575b506127be576040516395dd919360e01b81526001600160a01b038216600482015291602083602481845afa928315610855575f93612bdc575b50612b1590612ccb565b15612b7a575010612b24575f90565b60405162461bcd60e51b815260206004820152602860248201527f43616e206e6f74207265706179206d6f7265207468616e2074686520746f74616044820152676c20626f72726f7760c01b6064820152608490fd5b612b8390614576565b9190506012811015610a3f5780612bd5575015612bce57612bbe670de0b6b3a76400009160055460405190612bb782612347565b8152615504565b510410612bc9575f90565b601190565b5050600390565b9250505090565b9092506020813d602011612c0a575b81612bf860209383612392565b810103126103b2575191612b15612b0b565b3d9150612beb565b6001600160a01b03165f9081526009602052604081205460ff16159150612ad2565b356001600160a01b03811681036103b25790565b6001600160a01b03165f81815260176020908152604080832054601890925290912054612c7590436125f9565b80151580612cc2575b612c8757505050565b612ca691612c949161523c565b825f52601460205260405f2054613ec7565b815f52601460205260405f20555f5260186020524360405f2055565b50811515612c7e565b6001600160a01b03165f81815260096020526040902060010154159081612d67575b81612cf6575090565b6040516305cee64160e21b81529150602090829060049082905afa8015610855575f90612d2d575b670de0b6b3a764000091501490565b506020813d602011612d5f575b81612d4760209383612392565b810103126103b257670de0b6b3a76400009051612d1e565b3d9150612d3a565b8091505f52600c602052600160ff60405f20541615151490612ced565b919091604092835191612d978584612392565b600183526020830190601f1986013683378351156124bf576001600160a01b0316905291925f925b8051841015612f18576001600160a01b03612dda85836127c6565b511690815f52600960205260ff835f20541615612edc57825163aa5af0fd60e01b815292602084600481865afa938415612ed2575f94612e9f575b50805193612e2285612347565b8452612e2e8484613ed4565b5f5b8551811015612e5857600190612e52866001600160a01b03611ae6848b6127c6565b01612e30565b5091925094612e668361424b565b5f5b8451811015612e8f57600190612e896001600160a01b03611a6283896127c6565b01612e68565b5094600190940193909150612dbf565b9093506020813d8211612eca575b81612eba60209383612392565b810103126103b25751925f612e15565b3d9150612ead565b50513d5f823e3d90fd5b825162461bcd60e51b81526020600482015260156024820152741b585c9ad95d081b5d5cdd081899481b1a5cdd1959605a1b6044820152606490fd5b5091505f5b8151811015612f8657600190612f636001600160a01b03612f3e83866127c6565b5116838060a01b03612f5084876127c6565b51165f526014602052855f205490614477565b828060a01b03612f7383866127c6565b51165f526014602052845f205501612f1d565b505050565b908160209103126103b2575180151581036103b25790565b5f546001600160a01b03163303613276576001600160a01b03165f8181526009602052604090205460ff1661324b57604051632d44860760e11b8152602081600481855afa80156108555761321e575b50805f5260096020525f6001604082208160ff198254161781556003810160ff19815416905501555f600d54905b8181106131b9575050600d54600160401b81101561236257816130977fcf583bb0c569eb967f806b11601c4cb93c10310485c67add5f8362c2f212321f9361307384600160209601600d55600d6124d3565b81546001600160a01b0393841660039290921b91821b9390911b1916919091179055565b6130de6040516130a8604082612392565b601c81527f626c6f636b206e756d6265722065786365656473203332206269747300000000848201526401000000004310615420565b61316863ffffffff4316825f526010845260405f20835f52601185526131458260405f2060018060e01b0384541615613196575b80546001600160e01b0316156131735780546001600160e01b031660e09290921b6001600160e01b031916919091179055565b80546001600160e01b031660e09290921b6001600160e01b031916919091179055565b604051908152a15f90565b80546001600160e01b0319166a0c097ce7bc90715b34b9f160241b178155613145565b83546001600160e01b0319166a0c097ce7bc90715b34b9f160241b178455613112565b826131c3826124a7565b905460039190911b1c6001600160a01b0316146131e257600101613021565b60405162461bcd60e51b81526020600482015260146024820152731b585c9ad95d08185b1c9958591e48185919195960621b6044820152606490fd5b61323f9060203d602011613244575b6132378183612392565b810190612f8b565b612ff3565b503d61322d565b505f51602061551e5f395f51905f526060604051600a8152601160208201525f6040820152a1600a90565b505f51602061551e5f395f51905f52606060405160018152601260208201525f6040820152a1600190565b156132a857565b606460405162461bcd60e51b815260206004820152602060248201527f6f6e6c792061646d696e2063616e207365742070657269646f742073706565646044820152fd5b909260ff600a5460b01c1661332257613306908483615277565b80612bd557506128c16127849361331c8361424b565b82614327565b60405162461bcd60e51b81526020600482015260126024820152711d1c985b9cd9995c881a5cc81c185d5cd95960721b6044820152606490fd5b6004805460405163fc57d4df60e01b81526001600160a01b0393841692810192909252909392911690602084602481855afa938415610855575f9461354a575b5092602060249460018060a01b0316926040519586809263fc57d4df60e01b82528660048301525afa938415610855575f94613516575b508015801561350e575b6135035760206004926040519384809263182df0f560e01b82525afa918215610855575f926134cd575b509061346061346e925f60405161341d81612347565b525f60405161342b81612347565b525f60405161343981612347565b526006546040519061344a82612347565b81526040519161345983612347565b82526153e8565b936040519061344a82612347565b915f60405161347c81612347565b525190670de0b6b3a7640000820291808304670de0b6b3a76400001490151715612606576134b86134c592670de0b6b3a76400009451906153ca565b60405190612bb782612347565b5104905f9190565b91506020823d6020116134fb575b816134e860209383612392565b810103126103b257905190613460613407565b3d91506134db565b50505050600d905f90565b5083156133dd565b9093506020813d602011613542575b8161353260209383612392565b810103126103b25751925f6133d3565b3d9150613525565b93506020843d602011613577575b8161356560209383612392565b810103126103b257925192602061339c565b3d9150613558565b908160209103126103b257516001600160a01b03811681036103b25790565b9060ff600a5460b81c166136d9576001600160a01b0382165f8181526009602052604090205490919060ff161580156136b7575b6136ad5760206004926040519384809263c423fe2960e01b82525afa918215610855575f92613688575b5060405163c423fe2960e01b815290602090829060049082906001600160a01b03165afa908115610855575f91613659575b506001600160a01b03908116911603613651576128c16127849361331c8361424b565b505050600290565b61367b915060203d602011613681575b6136738183612392565b81019061357f565b5f61362e565b503d613669565b60049192506136a5602091823d8411613681576136738183612392565b9291506135fc565b5050505050600990565b506001600160a01b0381165f9081526009602052604090205460ff16156135d2565b60405162461bcd60e51b815260206004820152600f60248201526e1cd95a5e99481a5cc81c185d5cd959608a1b6044820152606490fd5b1561371757565b634e487b7160e01b5f52600160045260245ffd5b9060018060a01b03821692835f52600c60205260ff60405f2054166139cf57835f52600960205260ff60405f205416156139c657835f526009602052600260405f200160018060a01b0383165f5260205260ff60405f20541615613937575b6004805460405163fc57d4df60e01b8152918201869052602090829060249082906001600160a01b03165afa908115610855575f91613905575b50156138fc57835f52601660205260405f205480613846575b506137e99084836148e7565b9190506012811015610a3f578061383e57506138365760206004936040519485809263aa5af0fd60e01b82525afa918215610855575f926127885761278493506040519261277384612347565b505050600490565b935050505090565b6040516308f7a6e360e31b8152602081600481895afa80156108555783905f906138c6575b6138759250613ec7565b1015613881575f6137dd565b60405162461bcd60e51b815260206004820152601960248201527f6d61726b657420626f72726f77206361702072656163686564000000000000006044820152606490fd5b50506020813d6020116138f4575b816138e160209383612392565b810103126103b25782613875915161386b565b3d91506138d4565b50505050600d90565b90506020813d60201161392f575b8161392060209383612392565b810103126103b257515f6137c4565b3d9150613913565b8333036139895761394882336152f7565b6012811015610a3f578061383e5750835f526009602052600260405f200160018060a01b0383165f5260205261398460ff60405f205416613710565b61378a565b60405162461bcd60e51b815260206004820152601560248201527439b2b73232b91036bab9ba10313290382a37b5b2b760591b6044820152606490fd5b50505050600990565b60405162461bcd60e51b815260206004820152601060248201526f189bdc9c9bddc81a5cc81c185d5cd95960821b6044820152606490fd5b5f546001600160a01b03163303613bb9576001600160a01b03165f818152600960205260409020805490919060ff1615613b8c57604051613a4781612347565b838152670c7d713b49da0000604051613a5f81612347565b5251670c7d713b49da000010613b5f5782151580613aeb575b613abe577f70483e6592cd5182d45ac970e05bc62cdcc90e9d8ef2c2dbe686cf383bcd7fc592600160609301818154915560405192835260208301526040820152a15f90565b5050505f51602061551e5f395f51905f526060604051600d8152600960208201525f6040820152a1600d90565b506004805460405163fc57d4df60e01b8152918201839052602090829060249082906001600160a01b03165afa908115610855575f91613b2d575b5015613a78565b90506020813d602011613b57575b81613b4860209383612392565b810103126103b257515f613b26565b3d9150613b3b565b5050505f51602061551e5f395f51905f52606060405160068152600860208201525f6040820152a1600690565b5050505f51602061551e5f395f51905f52606060405160098152600760208201525f6040820152a1600990565b50505f51602061551e5f395f51905f52606060405160018152600660208201525f6040820152a1600190565b91613bf1908284615277565b9182613c055761278492506128c18161424b565b505090565b91908260809103126103b2578151916020810151916060604083015192015190565b6040516361bfb47160e11b81523360048201526001600160a01b0382169190608081602481865afa8015610855575f5f925f92613e92575b50613e3f57613e1257613c78913390615277565b80613de557505f818152600960209081526040808320338452600201918290529091205460ff1615613ddf57335f90815260209182526040808220805460ff19169055600890925220613cca9061282d565b9081519182905f5b828110613db0575b5050613ce7908310613710565b335f52600860205260405f20918254905f19820191821161260657613073613d12613d2b93866124d3565b905460039190911b1c6001600160a01b031691856124d3565b8154908115613d9c577fe699a64c18b07ac5b7301aa273f36a2287239eb9501d81950672794afba29a0d92612a78925f190190613d6882826124d3565b81546001600160a01b0360039290921b82901b19169091559190556040805192909116825233602083015290918291820190565b634e487b7160e01b5f52603160045260245ffd5b836001600160a01b03613dc383856127c6565b511614613dd257600101613cd2565b9350613ce790505f613cda565b50505f90565b5f51602061551e5f395f51905f52915060609060405190600e8252600360208301526040820152a1600e90565b5050505f51602061551e5f395f51905f526060604051600c8152600260208201525f6040820152a1600c90565b60405162461bcd60e51b815260206004820152602560248201527f657869744d61726b65743a206765744163636f756e74536e617073686f742066604482015264185a5b195960da1b6064820152608490fd5b915050613eb7915060803d608011613ec0575b613eaf8183612392565b810190613c0a565b5090915f613c64565b503d613ea5565b9190820180921161260657565b60018060a01b031690815f52601160205260405f20825f52601960205260405f205492613f3f604051613f08604082612392565b601c81527f626c6f636b206e756d626572206578636565647320333220626974730000000060208201526401000000004310615420565b63ffffffff431692613f55835460e01c856125f9565b9182151580806140bf575b1561409157506020600491604051928380926308f7a6e360e31b82525afa908115610855575f9161405b575b5094613f9e613fa49261280997615467565b9261523c565b811561404257613fd691613fb791615496565b8254604051906001600160e01b0316613fcf82612347565b81526154e8565b5161401e604051613fe8604082612392565b601a81527f6e657720696e64657820657863656564732032323420626974730000000000006020820152600160e01b8310615420565b60e09290921b6001600160e01b0319166001600160e01b0392909216919091179055565b5050613fd660405161405381612347565b5f8152613fb7565b9590506020863d602011614089575b8161407760209383612392565b810103126103b2579451613f9e613f8c565b3d915061406a565b93955050505061409f575050565b81546001600160e01b031660e09190911b6001600160e01b031916179055565b50861515613f60565b6001600160a01b039081165f8181526011602090815260408083205460138352818420958716845294909152902080546001600160e01b03909316908190559293909291801580614233575b61421e575b61412390836125f9565b906040519161413183612347565b82526040516395dd919360e01b81526001600160a01b039095166004860181905294602081602481885afa908115610855575f916141e4575b506141b46040936141ac7f1e5561ff39e796a5299c233e6fd3b11fe55a12e535266cc176f37334e6c7efb696946a0c097ce7bc90715b34b9f160241b94615467565b90519061523c565b0490855f5260146020526141cb82845f2054613ec7565b865f526014602052835f205582519182526020820152a3565b90506020939193813d602011614216575b8161420260209383612392565b810103126103b257519092906141b461416a565b3d91506141f5565b506a0c097ce7bc90715b34b9f160241b614119565b506a0c097ce7bc90715b34b9f160241b831015614114565b60018060a01b0316805f52601060205260405f2090805f52601a60205260405f20549161427f604051613f08604082612392565b63ffffffff431691614295825460e01c846125f9565b90811515808061431e575b156143115750906020600492604051938480926318160ddd60e01b82525afa918215610855575f926142db575b5061280994613fa49161523c565b9091506020813d602011614309575b816142f760209383612392565b810103126103b25751906128096142cd565b3d91506142ea565b929450505061409f575050565b508515156142a0565b6001600160a01b039081165f8181526010602090815260408083205460128352818420958716845294909152902080546001600160e01b0390931690819055909180158061445f575b61444a575b61437f90826125f9565b926040519361438d85612347565b84526040516370a0823160e01b81526001600160a01b039091166004820181905293602082602481875afa918215610855575f92614406575b50916a0c097ce7bc90715b34b9f160241b6141b46040937faf420590cb43d2e84351d8cd2a32149325e748efcd73152eacf2e54ecab5976695519061523c565b9150916020823d602011614442575b8161442260209383612392565b810103126103b257905190916a0c097ce7bc90715b34b9f160241b6143c6565b3d9150614415565b506a0c097ce7bc90715b34b9f160241b614375565b506a0c097ce7bc90715b34b9f160241b821015614370565b6040516370a0823160e01b815230600482015260208160248173507f0f5e58d21f07d133722e038067248fe4ecbe5afa908115610855575f91614544575b508215159081614539575b506144c9575090565b60405163a9059cbb60e01b81526001600160a01b0391909116600482015260248101919091526020816044815f73507f0f5e58d21f07d133722e038067248fe4ecbe5af180156108555761451c57505f90565b6145349060203d602011613244576132378183612392565b505f90565b90508211155f6144c0565b90506020813d60201161456e575b8161455f60209383612392565b810103126103b257515f6144b5565b3d9150614552565b906040519161458483612376565b5f83525f60208401525f60408401525f60608401525f60808401525f60a08401526040516145b181612347565b5f815260c08401526040516145c581612347565b5f815260e08401526040516145d981612347565b5f81526101008401526040516145ee81612347565b5f815261012084015260018060a01b0381165f52600860205261461360405f2061282d565b6004549092906001600160a01b03165f5b84518110156148a7576001600160a01b0361463f82876127c6565b516040516361bfb47160e11b81526001600160a01b0387166004820152911690608081602481855afa8015610855575f915f915f915f91614885575b5060808b015260608a0152604089015261487657805f526009602052600160405f200154604051906146ac82612347565b815260c08801526080870151604051906146c582612347565b815260e088015260405163fc57d4df60e01b815260048101829052602081602481875afa908115610855575f91614845575b508060a08901528015614835576040519061471182612347565b815261010088015261476561473e61473260c08a015160e08b0151906153e8565b6101008a0151906153e8565b806101208a0152670de0b6b3a764000061475e60408b01518b5193615504565b5104613ec7565b875261478c610100880151670de0b6b3a764000061475e60608b015160208c015193615504565b90816020890152156147a2575b50600101614624565b6101208701515f6040516147b581612347565b52515f9190156001171561260657670de0b6b3a76400006147e692604051906147dd82612347565b81525104613ec7565b908160208801526101008701515f60405161480081612347565b52515f90156001171561260657600192670de0b6b3a764000061482a92604051906147dd82612347565b602088015290614799565b50600d96505f9550859450505050565b90506020813d821161486e575b8161485f60209383612392565b810103126103b257515f6146f7565b3d9150614852565b50600f95505f94508493505050565b925050506148a1915060803d8111613ec057613eaf8183612392565b5f61467b565b505092915050805160208201518082115f146148d65750508060206148d09251910151906125f9565b5f918290565b6148e092506125f9565b5f915f9190565b90929192604051916148f883612376565b5f83525f60208401525f60408401525f60608401525f60808401525f60a084015260405161492581612347565b5f815260c084015260405161493981612347565b5f815260e084015260405161494d81612347565b5f815261010084015260405161496281612347565b5f815261012084015260018060a01b0381165f52600860205261498760405f2061282d565b6004549094906001600160a01b03165f5b8651811015614bd1576001600160a01b036149b382896127c6565b516040516361bfb47160e11b81526001600160a01b038716600482015291169190608081602481865afa8015610855575f915f915f915f91614baf575b5060808b015260608a01526040890152614b9d57815f526009602052600160405f20015460405190614a2182612347565b815260c0880152608087015160405190614a3a82612347565b815260e088015260405163fc57d4df60e01b815260048101839052602081602481875afa908115610855575f91614b6c575b508060a08901528015614b595760405190614a8682612347565b8152610100880152614aa761473e61473260c08a015160e08b0151906153e8565b8752614ace610100880151670de0b6b3a764000061475e60608b015160208c015193615504565b60208801819052916001600160a01b03871614614af0575b6001915001614998565b6101208701515f604051614b0381612347565b52515f9290156001171561260657614b31614b4f91670de0b6b3a7640000600195604051906147dd82612347565b8060208a0152670de0b6b3a764000061475e8c6101008c0151615504565b6020880152614ae6565b50505050945050505050600d905f905f90565b90506020813d8211614b95575b81614b8660209383612392565b810103126103b257515f614a6c565b3d9150614b79565b505050945050505050600f905f905f90565b92505050614bcb915060803d8111613ec057613eaf8183612392565b5f6149f0565b5050945050509050805160208201518082115f146148d65750508060206148d09251910151906125f9565b929160405193614c0b85612376565b5f85525f60208601525f60408601525f60608601525f60808601525f60a0860152604051614c3881612347565b5f815260c0860152604051614c4c81612347565b5f815260e0860152604051614c6081612347565b5f8152610100860152604051614c7581612347565b5f815261012086015260018060a01b0381165f526008602052614c9a60405f2061282d565b6004549094906001600160a01b03165f5b8651811015614eec576001600160a01b03614cc682896127c6565b516040516361bfb47160e11b81526001600160a01b0387166004820152911690608081602481855afa8015610855575f915f915f915f91614eca575b5060808d015260608c015260408b0152614b9d57805f526009602052600160405f20015460405190614d3382612347565b815260c08a0152608089015160405190614d4c82612347565b815260e08a015260405163fc57d4df60e01b815260048101829052602081602481875afa908115610855575f91614e99575b508060a08b01528015614b595760405190614d9882612347565b81526101008a0152614de5614dc5614db960c08c015160e08d0151906153e8565b6101008c0151906153e8565b806101208c0152670de0b6b3a764000061475e60408d01518d5193615504565b8952614e0d6101008a0151670de0b6b3a764000061475e8c6020606082015191015193615504565b60208a01819052906001600160a01b03881614614e2e575b50600101614cab565b614e4a90670de0b6b3a764000061475e886101208d0151615504565b908160208a01526101008901515f604051614e6481612347565b52515f90156001171561260657600192670de0b6b3a7640000614e8e92604051906147dd82612347565b60208a015290614e25565b90506020813d8211614ec2575b81614eb360209383612392565b810103126103b257515f614d7e565b3d9150614ea6565b92505050614ee6915060803d8111613ec057613eaf8183612392565b5f614d02565b5050949350505050805160208201518082115f146148d65750508060206148d09251910151906125f9565b92919060405192614f2784612376565b5f84525f60208501525f60408501525f60608501525f60808501525f60a0850152604051614f5481612347565b5f815260c0850152604051614f6881612347565b5f815260e0850152604051614f7c81612347565b5f8152610100850152604051614f9181612347565b5f815261012085015260018060a01b0385165f526008602052614fb660405f2061282d565b6004549095906001600160a01b03165f5b8751811015615211576001600160a01b03614fe2828a6127c6565b516040516361bfb47160e11b81526001600160a01b038616600482015291169190608081602481865afa8015610855575f915f915f915f916151ef575b5060808c015260608b015260408a01526151dd57815f526009602052600160405f2001546040519061505082612347565b815260c089015260808801516040519061506982612347565b815260e089015260405163fc57d4df60e01b81526004810183905291602083602481875afa928315610855575f936151aa575b508260a08a0152821561519757888891600194604051906150bc82612347565b81526101008301526151096150e96150dd60c085015160e0860151906153e8565b610100850151906153e8565b80610120850152670de0b6b3a764000061475e6040860151865193615504565b8252615130610100830151670de0b6b3a764000061475e6060860151602087015193615504565b90816020840152858060a01b038a161461514e575b50505001614fc7565b670de0b6b3a764000061475e61518a9461012061516c950151615504565b8060208b0152670de0b6b3a764000061475e886101008d0151615504565b602089015286885f615145565b50505050505050505050600d905f905f90565b9092506020813d82116151d5575b816151c560209383612392565b810103126103b25751915f61509c565b3d91506151b8565b505050505050505050600f905f905f90565b9250505061520b915060803d8111613ec057613eaf8183612392565b5f61501f565b5050505050509050805160208201518082115f146148d65750508060206148d09251910151906125f9565b8181029291811591840414171561260657565b5f546001600160a01b0316331480156152655790565b506002546001600160a01b0316331490565b6001600160a01b03165f8181526009602052604090205491929160ff16156127be57805f526009602052600260405f200160018060a01b0384165f5260205260ff60405f205416156152f0576152cc92614bfc565b9190506012811015610a3f57806152eb57506152e6575f90565b600490565b905090565b5050505f90565b9060018060a01b0382165f52600960205260405f2060ff815416156127be5760020160018060a01b0382165f5280602052600160ff60405f2054161515146152f0576001600160a01b0382165f90815260209182526040808220805460ff1916600117905560089092522080549290600160401b8410156123625781613073856153a79360017f3ab23ab0d51cccc0c3085aec51f99228625aa1a922b3a8ca89a26b0f2027a1a5980181556124d3565b604080516001600160a01b03928316815292909116602083015281908101612a78565b81156153d4570490565b634e487b7160e01b5f52601260045260245ffd5b670de0b6b3a76400009161540d915f60405161540381612347565b525190519061523c565b046040519061541b82612347565b815290565b156154285750565b604460209160405192839162461bcd60e51b83528160048401528051918291826024860152018484015e5f828201840152601f01601f19168101030190fd5b670de0b6b3a7640000810290808204670de0b6b3a76400001490151715612606576154939151906153ca565b90565b905f6040516154a481612347565b526a0c097ce7bc90715b34b9f160241b8202918083046a0c097ce7bc90715b34b9f160241b1490151715612606576154db916153ca565b6040519061541b82612347565b906154db915f6040516154fa81612347565b5251905190613ec7565b906154db915f60405161551681612347565b525161523c56fe45b96fe442630264581b197e84bbada861235052c5a1aadfff9ea4e40a969aa0a26469706673582212200635df2ff8df2743193f9355b7addcee032b8f2bd5488a217e4b6982b31b410d64736f6c634300081c0033","linkReferences":{}},"methodIdentifiers":{"_become(address)":"1d504dc6","_borrowGuardianPaused()":"e6653f3d","_grantPeridot(address,uint256)":"9a8260d6","_mintGuardianPaused()":"3c94786f","_setBorrowCapGuardian(address)":"391957d7","_setBorrowPaused(address,bool)":"18c882a5","_setCloseFactor(uint256)":"317b0b77","_setCollateralFactor(address,uint256)":"e4028eee","_setContributorPeridotSpeed(address,uint256)":"b0cbd622","_setLiquidationIncentive(uint256)":"4fd42e17","_setMarketBorrowCaps(address[],uint256[])":"607ef6c1","_setMintPaused(address,bool)":"3bcf7ec1","_setPauseGuardian(address)":"5f5af1aa","_setPeridotSpeeds(address[],uint256[],uint256[])":"c44e1657","_setPriceOracle(address)":"55ee1fe1","_setSeizePaused(bool)":"2d70db78","_setTransferPaused(bool)":"8ebf6364","_supportMarket(address)":"a76b3fda","accountAssets(address,uint256)":"dce15449","admin()":"f851a440","allMarkets(uint256)":"52d84d1e","borrowAllowed(address,address,uint256)":"da3d454c","borrowCapGuardian()":"21af4569","borrowCaps(address)":"4a584432","borrowGuardianPaused(address)":"6d154ea5","borrowVerify(address,address,uint256)":"5c778605","checkMembership(address,address)":"929fe9a1","claimPeridot(address)":"36376925","claimPeridot(address,address[])":"9d92e62f","claimPeridot(address[],address[],bool,bool)":"2582e0ec","closeFactorMantissa()":"e8755446","enterMarkets(address[])":"c2998238","exitMarket(address)":"ede4edd0","fixBadAccruals(address[],uint256[])":"16b95e8f","getAccountLiquidity(address)":"5ec88c79","getAllMarkets()":"b0772d0b","getAssetsIn(address)":"abfceffc","getBlockNumber()":"42cbb15c","getHypotheticalAccountLiquidity(address,address,uint256,uint256)":"4e79238f","getPeridotAddress()":"8b130fa0","isDeprecated(address)":"94543c15","isPeridottroller()":"fa707af9","lastContributorBlock(address)":"bea6b8b8","liquidateBorrowAllowed(address,address,address,address,uint256)":"5fc7e71e","liquidateBorrowVerify(address,address,address,address,uint256,uint256)":"47ef3b3b","liquidateCalculateSeizeTokens(address,address,uint256)":"c488847b","liquidationIncentiveMantissa()":"4ada90af","markets(address)":"8e8f294b","maxAssets()":"94b2294b","mintAllowed(address,address,uint256)":"4ef4c3e1","mintGuardianPaused(address)":"731f0c2b","mintVerify(address,address,uint256,uint256)":"41c728b9","oracle()":"7dc0d1d0","pauseGuardian()":"24a3d622","pendingAdmin()":"26782247","pendingPeridottrollerImplementation()":"7c8f3a67","peridotAccrued(address)":"d002d989","peridotBorrowSpeeds(address)":"c6a01759","peridotBorrowState(address)":"328bb72b","peridotBorrowerIndex(address,address)":"a64db627","peridotContributorSpeeds(address)":"ce27c01e","peridotInitialIndex()":"cd2489f0","peridotRate()":"d088864a","peridotReceivable(address)":"f1ad5756","peridotSpeeds(address)":"794595f5","peridotSupplierIndex(address,address)":"0aa4266f","peridotSupplySpeeds(address)":"0938c63d","peridotSupplyState(address)":"935dbd26","peridottrollerImplementation()":"18f1408d","proposal65FixExecuted()":"f00a7a92","redeemAllowed(address,address,uint256)":"eabe7d91","redeemVerify(address,address,uint256,uint256)":"51dff989","repayBorrowAllowed(address,address,address,uint256)":"24008a62","repayBorrowVerify(address,address,address,uint256,uint256)":"1ededc91","seizeAllowed(address,address,address,address,uint256)":"d02f7351","seizeGuardianPaused()":"ac0b0bb7","seizeVerify(address,address,address,address,uint256)":"6d35bf91","transferAllowed(address,address,address,uint256)":"bdcdc258","transferGuardianPaused()":"87f76303","transferVerify(address,address,address,uint256)":"6a56947e","updateContributorRewards(address)":"741b2525"},"id":36}