{"abi":[{"type":"constructor","inputs":[{"name":"_router","type":"address","internalType":"address"}],"stateMutability":"nonpayable"},{"type":"function","name":"acceptOwnership","inputs":[],"outputs":[],"stateMutability":"nonpayable"},{"type":"function","name":"owner","inputs":[],"outputs":[{"name":"","type":"address","internalType":"address"}],"stateMutability":"view"},{"type":"function","name":"sendMessage","inputs":[{"name":"_destinationChainSelector","type":"uint64","internalType":"uint64"},{"name":"_receiver","type":"address","internalType":"address"},{"name":"_message","type":"string","internalType":"string"},{"name":"_feeToken","type":"address","internalType":"address"}],"outputs":[],"stateMutability":"nonpayable"},{"type":"function","name":"transferOwnership","inputs":[{"name":"to","type":"address","internalType":"address"}],"outputs":[],"stateMutability":"nonpayable"},{"type":"event","name":"MessageSent","inputs":[{"name":"messageId","type":"bytes32","indexed":true,"internalType":"bytes32"}],"anonymous":false},{"type":"event","name":"OwnershipTransferRequested","inputs":[{"name":"from","type":"address","indexed":true,"internalType":"address"},{"name":"to","type":"address","indexed":true,"internalType":"address"}],"anonymous":false},{"type":"event","name":"OwnershipTransferred","inputs":[{"name":"from","type":"address","indexed":true,"internalType":"address"},{"name":"to","type":"address","indexed":true,"internalType":"address"}],"anonymous":false}],"bytecode":{"object":"0x60803460c757601f61077138819003918201601f19168301916001600160401b0383118484101760cb5780849260209460405283398101031260c757516001600160a01b0381169081900360c75733156082575f80546001600160a01b031990811633179091556002805490911691909117905560405161069190816100e08239f35b60405162461bcd60e51b815260206004820152601860248201527f43616e6e6f7420736574206f776e657220746f207a65726f00000000000000006044820152606490fd5b5f80fd5b634e487b7160e01b5f52604160045260245ffdfe60806040526004361015610011575f80fd5b5f3560e01c806311c89fcc146101da57806379ba50971461012f5780638da5cb5b146101085763f2fde38b14610045575f80fd5b34610104576020366003190112610104576004356001600160a01b038116908190036101045761007361060a565b3381146100bf57600180546001600160a01b031916821790555f80546001600160a01b0316907fed8889f560326eb138920d842192f0eb3dd22b4f139c87a2c57538e05bae12789080a3005b60405162461bcd60e51b815260206004820152601760248201527f43616e6e6f74207472616e7366657220746f2073656c660000000000000000006044820152606490fd5b5f80fd5b34610104575f366003190112610104575f546040516001600160a01b039091168152602090f35b34610104575f366003190112610104576001546001600160a01b038116330361019c575f80546001600160a01b031980821633908117845593166001556001600160a01b0316907f8be0079c531659141344cd1fd0a4f28419497f9722a3daafe3b4186f6b6457e09080a3005b60405162461bcd60e51b815260206004820152601660248201527526bab9ba10313290383937b837b9b2b21037bbb732b960511b6044820152606490fd5b346101045760803660031901126101045760043567ffffffffffffffff81168103610104576024356001600160a01b03811691908290036101045760443567ffffffffffffffff811161010457366023820112156101045780600401359267ffffffffffffffff8411610104573660248584010111610104576064356001600160a01b03811692908390036101045760606102c99160249661027a61060a565b604051946020860152602085526102926040866104f6565b8060405198899360208086015282604086015201848401375f838284010152601f801991011681010301601f1981018652856104f6565b6020936040516102d986826104f6565b5f81526040519186830183811067ffffffffffffffff8211176104e25760405262030d408352604051926397a657c960e01b88850152516024840152602483526103246044846104f6565b6040519360a0850185811067ffffffffffffffff8211176104e2576040528452868401526040830152826060830152608082015260018060a01b036002541691604051926320487ded60e01b845285848061038386896004840161053c565b0381845afa9182156104395786945f936104b1575b5061044457506103ca9360018060a01b0360025416916040518096819582946396f4e9f960e01b84526004840161053c565b03925af1918215610439575f9261040b575b50506003555b6003547f54791b38f3859327992a1ca0590ad3c0f08feba98d1a4f56ab0dca74d203392a5f80a2005b90809250813d8311610432575b61042281836104f6565b81010312610104575181806103dc565b503d610418565b6040513d5f823e3d90fd5b9050610467935f6040518096819582946396f4e9f960e01b84526004840161053c565b03925af1918215610439575f92610483575b50506003556103e2565b90809250813d83116104aa575b61049a81836104f6565b8101031261010457518180610479565b503d610490565b8581969294503d83116104db575b6104c981836104f6565b81010312610104578593519187610398565b503d6104bf565b634e487b7160e01b5f52604160045260245ffd5b90601f8019910116810190811067ffffffffffffffff8211176104e257604052565b805180835260209291819084018484015e5f828201840152601f01601f1916010190565b9067ffffffffffffffff909392931681526040602082015261058361056d845160a0604085015260e0840190610518565b6020850151838203603f19016060850152610518565b90604084015191603f19828203016080830152602080845192838152019301905f5b8181106105df5750505060806105dc939460018060a01b0360608201511660a084015201519060c0603f1982850301910152610518565b90565b825180516001600160a01b0316865260209081015181870152604090950194909201916001016105a5565b5f546001600160a01b0316330361061d57565b60405162461bcd60e51b815260206004820152601660248201527527b7363c9031b0b63630b1363290313c9037bbb732b960511b6044820152606490fdfea2646970667358221220fedb38ce9e287c5b3d72303aef2c9e03cd9f6e88900b8658ad9b85232a9de95c64736f6c634300081b0033","linkReferences":{}},"methodIdentifiers":{"acceptOwnership()":"79ba5097","owner()":"8da5cb5b","sendMessage(uint64,address,string,address)":"11c89fcc","transferOwnership(address)":"f2fde38b"},"id":38}