{"abi":[{"type":"constructor","inputs":[{"name":"_router","type":"address","internalType":"address"}],"stateMutability":"nonpayable"},{"type":"function","name":"acceptOwnership","inputs":[],"outputs":[],"stateMutability":"nonpayable"},{"type":"function","name":"owner","inputs":[],"outputs":[{"name":"","type":"address","internalType":"address"}],"stateMutability":"view"},{"type":"function","name":"sendMessage","inputs":[{"name":"_destinationChainSelector","type":"uint64","internalType":"uint64"},{"name":"_receiver","type":"address","internalType":"address"},{"name":"_message","type":"string","internalType":"string"},{"name":"_feeToken","type":"address","internalType":"address"}],"outputs":[],"stateMutability":"nonpayable"},{"type":"function","name":"transferOwnership","inputs":[{"name":"to","type":"address","internalType":"address"}],"outputs":[],"stateMutability":"nonpayable"},{"type":"event","name":"MessageSent","inputs":[{"name":"messageId","type":"bytes32","indexed":true,"internalType":"bytes32"}],"anonymous":false},{"type":"event","name":"OwnershipTransferRequested","inputs":[{"name":"from","type":"address","indexed":true,"internalType":"address"},{"name":"to","type":"address","indexed":true,"internalType":"address"}],"anonymous":false},{"type":"event","name":"OwnershipTransferred","inputs":[{"name":"from","type":"address","indexed":true,"internalType":"address"},{"name":"to","type":"address","indexed":true,"internalType":"address"}],"anonymous":false}],"bytecode":{"object":"0x608060405234801561000f575f5ffd5b5060405161094738038061094783398101604081905261002e91610183565b33805f816100835760405162461bcd60e51b815260206004820152601860248201527f43616e6e6f7420736574206f776e657220746f207a65726f000000000000000060448201526064015b60405180910390fd5b5f80546001600160a01b0319166001600160a01b03848116919091179091558116156100b2576100b2816100db565b5050600280546001600160a01b0319166001600160a01b039390931692909217909155506101b0565b336001600160a01b038216036101335760405162461bcd60e51b815260206004820152601760248201527f43616e6e6f74207472616e7366657220746f2073656c66000000000000000000604482015260640161007a565b600180546001600160a01b0319166001600160a01b038381169182179092555f8054604051929316917fed8889f560326eb138920d842192f0eb3dd22b4f139c87a2c57538e05bae12789190a350565b5f60208284031215610193575f5ffd5b81516001600160a01b03811681146101a9575f5ffd5b9392505050565b61078a806101bd5f395ff3fe608060405234801561000f575f5ffd5b506004361061004a575f3560e01c806311c89fcc1461004e57806379ba5097146100635780638da5cb5b1461006b578063f2fde38b14610089575b5f5ffd5b61006161005c366004610535565b61009c565b005b61006161035c565b5f54604080516001600160a01b039092168252519081900360200190f35b6100616100973660046105e2565b61040a565b6100a461041e565b6040805160a081019091526001600160a01b03851660c08201525f908060e08101604051602081830303815290604052815260200185856040516020016100ec929190610602565b60408051601f1981840301815291905281526020015f60405190808252806020026020018201604052801561014657816020015b604080518082019091525f80825260208201528152602001906001900390816101205790505b508152602001836001600160a01b031681526020016101ad604051806020016040528062030d4081525060408051915160248084019190915281518084039091018152604490920190526020810180516001600160e01b03166397a657c960e01b17905290565b90526002546040516320487ded60e01b81529192505f916001600160a01b03909116906320487ded906101e6908a90869060040161065e565b602060405180830381865afa158015610201573d5f5f3e3d5ffd5b505050506040513d601f19601f82011682018060405250810190610225919061073d565b90506001600160a01b0383166102b2576002546040516396f4e9f960e01b81526001600160a01b03909116906396f4e9f9908390610269908b90879060040161065e565b60206040518083038185885af1158015610285573d5f5f3e3d5ffd5b50505050506040513d601f19601f820116820180604052508101906102aa919061073d565b600355610328565b6002546040516396f4e9f960e01b81526001600160a01b03909116906396f4e9f9906102e4908a90869060040161065e565b6020604051808303815f875af1158015610300573d5f5f3e3d5ffd5b505050506040513d601f19601f82011682018060405250810190610324919061073d565b6003555b6003546040517f54791b38f3859327992a1ca0590ad3c0f08feba98d1a4f56ab0dca74d203392a905f90a250505050505050565b6001546001600160a01b031633146103b45760405162461bcd60e51b815260206004820152601660248201527526bab9ba10313290383937b837b9b2b21037bbb732b960511b60448201526064015b60405180910390fd5b5f8054336001600160a01b0319808316821784556001805490911690556040516001600160a01b0390921692909183917f8be0079c531659141344cd1fd0a4f28419497f9722a3daafe3b4186f6b6457e091a350565b61041261041e565b61041b81610472565b50565b5f546001600160a01b031633146104705760405162461bcd60e51b815260206004820152601660248201527527b7363c9031b0b63630b1363290313c9037bbb732b960511b60448201526064016103ab565b565b336001600160a01b038216036104ca5760405162461bcd60e51b815260206004820152601760248201527f43616e6e6f74207472616e7366657220746f2073656c6600000000000000000060448201526064016103ab565b600180546001600160a01b0319166001600160a01b038381169182179092555f8054604051929316917fed8889f560326eb138920d842192f0eb3dd22b4f139c87a2c57538e05bae12789190a350565b80356001600160a01b0381168114610530575f5ffd5b919050565b5f5f5f5f5f60808688031215610549575f5ffd5b853567ffffffffffffffff81168114610560575f5ffd5b945061056e6020870161051a565b9350604086013567ffffffffffffffff811115610589575f5ffd5b8601601f81018813610599575f5ffd5b803567ffffffffffffffff8111156105af575f5ffd5b8860208284010111156105c0575f5ffd5b602091909101935091506105d66060870161051a565b90509295509295909350565b5f602082840312156105f2575f5ffd5b6105fb8261051a565b9392505050565b60208152816020820152818360408301375f818301604090810191909152601f909201601f19160101919050565b5f81518084528060208401602086015e5f602082860101526020601f19601f83011685010191505092915050565b67ffffffffffffffff83168152604060208201525f825160a0604084015261068960e0840182610630565b90506020840151603f198483030160608501526106a68282610630565b6040860151858203603f190160808701528051808352602091820194505f93509101905b8083101561070157835180516001600160a01b031683526020908101518184015290930192600192909201916040909101906106ca565b5060608601516001600160a01b031660a08601526080860151858203603f190160c087015292506107328184610630565b979650505050505050565b5f6020828403121561074d575f5ffd5b505191905056fea26469706673582212209e1bc78d8ef720e3267e85b0ab0eac298a6dba1234ad780fe648da86d385ee9f64736f6c634300081b0033","linkReferences":{}},"methodIdentifiers":{"acceptOwnership()":"79ba5097","owner()":"8da5cb5b","sendMessage(uint64,address,string,address)":"11c89fcc","transferOwnership(address)":"f2fde38b"},"id":35}