{"abi":[{"type":"constructor","inputs":[{"name":"_feedsAggregator","type":"address","internalType":"address"}],"stateMutability":"nonpayable"},{"type":"function","name":"feeds","inputs":[],"outputs":[{"name":"","type":"address","internalType":"contract IFeeds"}],"stateMutability":"view"},{"type":"function","name":"fetchLatestAnswer","inputs":[],"outputs":[{"name":"","type":"uint256","internalType":"uint256"}],"stateMutability":"view"},{"type":"function","name":"fetchLatestRoundData","inputs":[],"outputs":[{"name":"","type":"uint80","internalType":"uint80"},{"name":"","type":"uint256","internalType":"uint256"},{"name":"","type":"uint256","internalType":"uint256"},{"name":"","type":"uint256","internalType":"uint256"},{"name":"","type":"uint80","internalType":"uint80"}],"stateMutability":"view"},{"type":"function","name":"getDecimals","inputs":[],"outputs":[{"name":"","type":"uint8","internalType":"uint8"}],"stateMutability":"view"},{"type":"function","name":"getDescription","inputs":[],"outputs":[{"name":"","type":"string","internalType":"string"}],"stateMutability":"view"}],"bytecode":{"object":"0x608034606f57601f61048738819003918201601f19168301916001600160401b03831184841017607357808492602094604052833981010312606f57516001600160a01b03811690819003606f575f80546001600160a01b0319169190911790556040516103ff90816100888239f35b5f80fd5b634e487b7160e01b5f52604160045260245ffdfe6080806040526004361015610012575f80fd5b5f3560e01c9081631a0925411461028057508063527616b814610196578063a1951c2414610116578063d63605b8146100ef5763f0141d8414610053575f80fd5b346100d8575f3660031901126100d8575f5460405163313ce56760e01b815290602090829060049082906001600160a01b03165afa80156100e4575f906100a3575b60209060ff60405191168152f35b506020813d6020116100dc575b816100bd60209383610390565b810103126100d8575160ff811681036100d857602090610095565b5f80fd5b3d91506100b0565b6040513d5f823e3d90fd5b346100d8575f3660031901126100d8575f546040516001600160a01b039091168152602090f35b346100d8575f3660031901126100d8575f546040516350d25bcd60e01b815290602090829060049082906001600160a01b03165afa80156100e4575f90610163575b602090604051908152f35b506020813d60201161018e575b8161017d60209383610390565b810103126100d85760209051610158565b3d9150610170565b346100d8575f3660031901126100d8575f54604051633fabe5a360e21b81529060a090829060049082906001600160a01b03165afa9081156100e4575f905f5f905f925f95610211575b509160a0949169ffffffffffffffffffff938460405196168652602086015260408501526060840152166080820152f35b94505050505060a0813d60a011610278575b8161023060a09383610390565b810103126100d8578069ffffffffffffffffffff61024f60a0936103b2565b9160208101519260408201519161026d6080606083015192016103b2565b9550909390926101e0565b3d9150610223565b346100d8575f3660031901126100d8575f8054633942720b60e11b8352829060049082906001600160a01b03165afa9081156100e4575f916102ee575b6020604083815192839181835280519182918282860152018484015e5f828201840152601f01601f19168101030190f35b90503d805f833e6102ff8183610390565b8101906020818303126100d85780519067ffffffffffffffff82116100d8570181601f820112156100d85780519167ffffffffffffffff831161037c5760405190610354601f8501601f191660200183610390565b838252602084840101116100d8575f602084819582604096018386015e8301015291506102bd565b634e487b7160e01b5f52604160045260245ffd5b90601f8019910116810190811067ffffffffffffffff82111761037c57604052565b519069ffffffffffffffffffff821682036100d85756fea264697066735822122096c13202b530f24b65f8e5f2f7c64632f68e96cac5db41d8d49b7f5d1f4913f964736f6c634300081c0033","linkReferences":{}},"methodIdentifiers":{"feeds()":"d63605b8","fetchLatestAnswer()":"a1951c24","fetchLatestRoundData()":"527616b8","getDecimals()":"f0141d84","getDescription()":"1a092541"},"id":42}