{"abi":[{"type":"constructor","inputs":[{"name":"_defaultStaleThreshold","type":"uint256","internalType":"uint256"}],"stateMutability":"nonpayable"},{"type":"function","name":"_getFeedsPrice","inputs":[{"name":"feedsAccessAddress","type":"address","internalType":"address"},{"name":"asset","type":"address","internalType":"address"}],"outputs":[{"name":"","type":"uint256","internalType":"uint256"}],"stateMutability":"view"},{"type":"function","name":"admin","inputs":[{"name":"","type":"address","internalType":"address"}],"outputs":[{"name":"","type":"bool","internalType":"bool"}],"stateMutability":"view"},{"type":"function","name":"assetToFeedsAccess","inputs":[{"name":"","type":"address","internalType":"address"}],"outputs":[{"name":"","type":"address","internalType":"address"}],"stateMutability":"view"},{"type":"function","name":"defaultStaleThreshold","inputs":[],"outputs":[{"name":"","type":"uint256","internalType":"uint256"}],"stateMutability":"view"},{"type":"function","name":"deployAndRegisterFeed","inputs":[{"name":"asset","type":"address","internalType":"address"},{"name":"aggregatorAddress","type":"address","internalType":"address"}],"outputs":[{"name":"","type":"address","internalType":"address"}],"stateMutability":"nonpayable"},{"type":"function","name":"feedsStaleThreshold","inputs":[{"name":"","type":"address","internalType":"address"}],"outputs":[{"name":"","type":"uint256","internalType":"uint256"}],"stateMutability":"view"},{"type":"function","name":"getOwner","inputs":[],"outputs":[{"name":"","type":"address","internalType":"address"}],"stateMutability":"view"},{"type":"function","name":"getUnderlyingPrice","inputs":[{"name":"pToken","type":"address","internalType":"contract PToken"}],"outputs":[{"name":"","type":"uint256","internalType":"uint256"}],"stateMutability":"view"},{"type":"function","name":"isPriceOracle","inputs":[],"outputs":[{"name":"","type":"bool","internalType":"bool"}],"stateMutability":"view"},{"type":"function","name":"registerFeed","inputs":[{"name":"asset","type":"address","internalType":"address"},{"name":"feedsAccessAddress","type":"address","internalType":"address"}],"outputs":[],"stateMutability":"nonpayable"},{"type":"function","name":"removeAdmin","inputs":[{"name":"_admin","type":"address","internalType":"address"}],"outputs":[],"stateMutability":"nonpayable"},{"type":"function","name":"setAdmin","inputs":[{"name":"_newAdmin","type":"address","internalType":"address"}],"outputs":[],"stateMutability":"nonpayable"},{"type":"function","name":"setAssetStaleThreshold","inputs":[{"name":"asset","type":"address","internalType":"address"},{"name":"threshold","type":"uint256","internalType":"uint256"}],"outputs":[],"stateMutability":"nonpayable"},{"type":"function","name":"setOwner","inputs":[{"name":"_newOwner","type":"address","internalType":"address"}],"outputs":[],"stateMutability":"nonpayable"},{"type":"function","name":"setUnderlyingPrice","inputs":[{"name":"pToken","type":"address","internalType":"contract PToken"},{"name":"underlyingPriceMantissa","type":"uint256","internalType":"uint256"}],"outputs":[],"stateMutability":"nonpayable"},{"type":"event","name":"FeedRegistered","inputs":[{"name":"asset","type":"address","indexed":false,"internalType":"address"},{"name":"feedsAccess","type":"address","indexed":false,"internalType":"address"}],"anonymous":false},{"type":"event","name":"PricePosted","inputs":[{"name":"asset","type":"address","indexed":false,"internalType":"address"},{"name":"previousPriceMantissa","type":"uint256","indexed":false,"internalType":"uint256"},{"name":"requestedPriceMantissa","type":"uint256","indexed":false,"internalType":"uint256"},{"name":"newPriceMantissa","type":"uint256","indexed":false,"internalType":"uint256"}],"anonymous":false}],"bytecode":{"object":"0x608034607657601f6111b238819003918201601f19168301916001600160401b03831184841017607a57808492602094604052833981010312607657513360018060a01b03196004541617600455335f52600360205260405f20600160ff19825416179055600555604051611123908161008f8239f35b5f80fd5b634e487b7160e01b5f52604160045260245ffdfe60806040526004361015610011575f80fd5b5f3560e01c8063127ffda0146107d657806313af4035146107895780631785f53c1461073b57806331c1946c146104855780633744406a1461044657806363a846f81461040957806366331bba146103ee578063704b6c021461039d578063751c7dae14610302578063893d20e8146102da578063b48fecee1461028c578063c37fac871461026f578063dc57747414610237578063e9567bb0146100ed5763fc57d4df146100be575f80fd5b346100e95760203660031901126100e95760206100e16100dc610877565b610999565b604051908152f35b5f80fd5b346100e95760403660031901126100e957610106610877565b61010e61088d565b335f52600360205261012660ff60405f2054166108a3565b6001600160a01b031680156101f2576040519061048780830183811067ffffffffffffffff8211176101de576020928492610c67843981520301905ff09081156101d3576001600160a01b039081165f818152602081815260409182902080546001600160a01b0319169590941694851790935580519182528183018490529192917f73d979fd03c9000f253d6f57d67ddf5ed50ad2a67bc62c09b2feb7769f81131b91a1604051908152f35b6040513d5f823e3d90fd5b634e487b7160e01b5f52604160045260245ffd5b60405162461bcd60e51b815260206004820152601a60248201527f496e76616c69642061676772656761746f7220616464726573730000000000006044820152606490fd5b346100e95760203660031901126100e9576001600160a01b03610258610877565b165f526001602052602060405f2054604051908152f35b346100e9575f3660031901126100e9576020600554604051908152f35b346100e95760403660031901126100e9576102a5610877565b335f5260036020526102bd60ff60405f2054166108a3565b6001600160a01b03165f9081526001602052604090206024359055005b346100e9575f3660031901126100e9576004546040516001600160a01b039091168152602090f35b346100e95760403660031901126100e9577f73d979fd03c9000f253d6f57d67ddf5ed50ad2a67bc62c09b2feb7769f81131b61033c610877565b61034461088d565b90335f52600360205261035d60ff60405f2054166108a3565b6001600160a01b039081165f818152602081815260409182902080546001600160a01b0319169590941694851790935580519182529181019290925290a1005b346100e95760203660031901126100e9576103b6610877565b6103cb60018060a01b036004541633146108f9565b6001600160a01b03165f908152600360205260409020805460ff19166001179055005b346100e9575f3660031901126100e957602060405160018152f35b346100e95760203660031901126100e9576001600160a01b0361042a610877565b165f526003602052602060ff60405f2054166040519015158152f35b346100e95760203660031901126100e9576001600160a01b03610467610877565b165f525f602052602060018060a01b0360405f205416604051908152f35b346100e95760403660031901126100e95761049e610877565b6104a661088d565b903033036106fd57604051630a4ec2d760e31b81526001600160a01b03919091169160a082600481865afa9081156101d3575f925f926106a7575b506001600160a01b03165f9081526001602052604090205490811561069d575b420342811161057b571161066257801561061d57602060049260405193848092633c05076160e21b82525afa9182156101d3575f926105df575b509060ff1681601282101561058f575060120360ff811161057b5761055f90610988565b9081810291818304149015171561057b57602090604051908152f35b634e487b7160e01b5f52601160045260245ffd5b9190601281116105a4575b50602091506100e1565b60111901905060ff811161057b576105bb90610988565b80156105cb57602091048261059a565b634e487b7160e01b5f52601260045260245ffd5b9091506020813d602011610615575b816105fb6020938361094f565b810103126100e9575160ff811681036100e957908261053b565b3d91506105ee565b60405162461bcd60e51b815260206004820152601760248201527f496e76616c69642070726963652066726f6d20666565640000000000000000006044820152606490fd5b60405162461bcd60e51b815260206004820152601360248201527250726963652066656564206973207374616c6560681b6044820152606490fd5b6005549150610501565b9250905060a0823d60a0116106f5575b816106c460a0938361094f565b810103126100e9576106d582610971565b5060208201516106ec608060608501519401610971565b509190846104e1565b3d91506106b7565b60405162461bcd60e51b8152602060048201526016602482015275496e7465726e616c2066756e6374696f6e206f6e6c7960501b6044820152606490fd5b346100e95760203660031901126100e957610754610877565b61076960018060a01b036004541633146108f9565b6001600160a01b03165f908152600360205260409020805460ff19169055005b346100e95760203660031901126100e9576107a2610877565b600454906107ba336001600160a01b038416146108f9565b6001600160a01b03166001600160a01b03199190911617600455005b346100e95760403660031901126100e9576107ef610877565b60243590335f52600360205261080b60ff60405f2054166108a3565b6001600160a01b039061081d90610aa0565b16805f5260026020527fdd71a1d19fcba687442a1d5c58578f1e409af71a79d10fd95a4d66efd8fa9ae7608060405f2054604051908482526020820152846040820152846060820152a15f52600260205260405f20555f80f35b600435906001600160a01b03821682036100e957565b602435906001600160a01b03821682036100e957565b156108aa57565b60405162461bcd60e51b815260206004820152602160248201527f4f6e6c792061646d696e2063616e2063616c6c20746869732066756e6374696f6044820152603760f91b6064820152608490fd5b1561090057565b60405162461bcd60e51b815260206004820152602160248201527f4f6e6c79206f776e65722063616e2063616c6c20746869732066756e6374696f6044820152603760f91b6064820152608490fd5b90601f8019910116810190811067ffffffffffffffff8211176101de57604052565b519069ffffffffffffffffffff821682036100e957565b60ff16604d811161057b57600a0a90565b6109a290610aa0565b6001600160a01b038181165f818152602081905260409020549092911680610a20575b50505f52600260205260405f205480610a1d5760405162461bcd60e51b815260206004820152601860248201527f4e6f2076616c696420707269636520617661696c61626c6500000000000000006044820152606490fd5b90565b604051630c70651b60e21b81526001600160a01b03918216600482015291166024820152602081604481305afa5f9181610a6c575b50610a61575b806109c5565b8015610a5b57905090565b9091506020813d602011610a98575b81610a886020938361094f565b810103126100e95751905f610a55565b3d9150610a7b565b6040516395d89b4160e01b8152906001600160a01b03165f82600481845afa9182156101d3575f92610bda575b506040918251610add848261094f565b600481526020810191630e08aa8960e31b83528451610b1b6020828180820195805191829101875e81015f838201520301601f19810183528261094f565b51902091610b4760208651809382820195518091875e81015f838201520301601f19810183528261094f565b51902003610b6957505073eeeeeeeeeeeeeeeeeeeeeeeeeeeeeeeeeeeeeeee90565b6020600491835192838092636f307dc360e01b82525afa918215610bd157505f91610b92575090565b90506020813d602011610bc9575b81610bad6020938361094f565b810103126100e957516001600160a01b03811681036100e95790565b3d9150610ba0565b513d5f823e3d90fd5b9091503d805f833e610bec818361094f565b8101906020818303126100e95780519067ffffffffffffffff82116100e9570181601f820112156100e95780519067ffffffffffffffff82116101de5760405192610c41601f8401601f19166020018561094f565b828452602083830101116100e957815f9260208093018386015e83010152905f610acd56fe608034606f57601f61048738819003918201601f19168301916001600160401b03831184841017607357808492602094604052833981010312606f57516001600160a01b03811690819003606f575f80546001600160a01b0319169190911790556040516103ff90816100888239f35b5f80fd5b634e487b7160e01b5f52604160045260245ffdfe6080806040526004361015610012575f80fd5b5f3560e01c9081631a0925411461028057508063527616b814610196578063a1951c2414610116578063d63605b8146100ef5763f0141d8414610053575f80fd5b346100d8575f3660031901126100d8575f5460405163313ce56760e01b815290602090829060049082906001600160a01b03165afa80156100e4575f906100a3575b60209060ff60405191168152f35b506020813d6020116100dc575b816100bd60209383610390565b810103126100d8575160ff811681036100d857602090610095565b5f80fd5b3d91506100b0565b6040513d5f823e3d90fd5b346100d8575f3660031901126100d8575f546040516001600160a01b039091168152602090f35b346100d8575f3660031901126100d8575f546040516350d25bcd60e01b815290602090829060049082906001600160a01b03165afa80156100e4575f90610163575b602090604051908152f35b506020813d60201161018e575b8161017d60209383610390565b810103126100d85760209051610158565b3d9150610170565b346100d8575f3660031901126100d8575f54604051633fabe5a360e21b81529060a090829060049082906001600160a01b03165afa9081156100e4575f905f5f905f925f95610211575b509160a0949169ffffffffffffffffffff938460405196168652602086015260408501526060840152166080820152f35b94505050505060a0813d60a011610278575b8161023060a09383610390565b810103126100d8578069ffffffffffffffffffff61024f60a0936103b2565b9160208101519260408201519161026d6080606083015192016103b2565b9550909390926101e0565b3d9150610223565b346100d8575f3660031901126100d8575f8054633942720b60e11b8352829060049082906001600160a01b03165afa9081156100e4575f916102ee575b6020604083815192839181835280519182918282860152018484015e5f828201840152601f01601f19168101030190f35b90503d805f833e6102ff8183610390565b8101906020818303126100d85780519067ffffffffffffffff82116100d8570181601f820112156100d85780519167ffffffffffffffff831161037c5760405190610354601f8501601f191660200183610390565b838252602084840101116100d8575f602084819582604096018386015e8301015291506102bd565b634e487b7160e01b5f52604160045260245ffd5b90601f8019910116810190811067ffffffffffffffff82111761037c57604052565b519069ffffffffffffffffffff821682036100d85756fea264697066735822122096c13202b530f24b65f8e5f2f7c64632f68e96cac5db41d8d49b7f5d1f4913f964736f6c634300081c0033a264697066735822122052d77854f25e2d8105c7316a4c4ba4642be08742535664fc8a0e2cb970fc1c1e64736f6c634300081c0033","linkReferences":{}},"methodIdentifiers":{"_getFeedsPrice(address,address)":"31c1946c","admin(address)":"63a846f8","assetToFeedsAccess(address)":"3744406a","defaultStaleThreshold()":"c37fac87","deployAndRegisterFeed(address,address)":"e9567bb0","feedsStaleThreshold(address)":"dc577474","getOwner()":"893d20e8","getUnderlyingPrice(address)":"fc57d4df","isPriceOracle()":"66331bba","registerFeed(address,address)":"751c7dae","removeAdmin(address)":"1785f53c","setAdmin(address)":"704b6c02","setAssetStaleThreshold(address,uint256)":"b48fecee","setOwner(address)":"13af4035","setUnderlyingPrice(address,uint256)":"127ffda0"},"id":42}