{"abi":[{"type":"constructor","inputs":[{"name":"peridottroller_","type":"address","internalType":"contract PeridottrollerInterface"},{"name":"interestRateModel_","type":"address","internalType":"contract InterestRateModel"},{"name":"initialExchangeRateMantissa_","type":"uint256","internalType":"uint256"},{"name":"name_","type":"string","internalType":"string"},{"name":"symbol_","type":"string","internalType":"string"},{"name":"decimals_","type":"uint8","internalType":"uint8"},{"name":"admin_","type":"address","internalType":"address payable"}],"stateMutability":"nonpayable"},{"type":"receive","stateMutability":"payable"},{"type":"function","name":"NO_ERROR","inputs":[],"outputs":[{"name":"","type":"uint256","internalType":"uint256"}],"stateMutability":"view"},{"type":"function","name":"_acceptAdmin","inputs":[],"outputs":[{"name":"","type":"uint256","internalType":"uint256"}],"stateMutability":"nonpayable"},{"type":"function","name":"_addReserves","inputs":[],"outputs":[{"name":"","type":"uint256","internalType":"uint256"}],"stateMutability":"payable"},{"type":"function","name":"_reduceReserves","inputs":[{"name":"reduceAmount","type":"uint256","internalType":"uint256"}],"outputs":[{"name":"","type":"uint256","internalType":"uint256"}],"stateMutability":"nonpayable"},{"type":"function","name":"_setFlashLoanFee","inputs":[{"name":"newFeeBps","type":"uint256","internalType":"uint256"}],"outputs":[{"name":"","type":"uint256","internalType":"uint256"}],"stateMutability":"nonpayable"},{"type":"function","name":"_setFlashLoansPaused","inputs":[{"name":"state","type":"bool","internalType":"bool"}],"outputs":[{"name":"","type":"bool","internalType":"bool"}],"stateMutability":"nonpayable"},{"type":"function","name":"_setInterestRateModel","inputs":[{"name":"newInterestRateModel","type":"address","internalType":"contract InterestRateModel"}],"outputs":[{"name":"","type":"uint256","internalType":"uint256"}],"stateMutability":"nonpayable"},{"type":"function","name":"_setMaxFlashLoanRatio","inputs":[{"name":"newMaxRatio","type":"uint256","internalType":"uint256"}],"outputs":[{"name":"","type":"uint256","internalType":"uint256"}],"stateMutability":"nonpayable"},{"type":"function","name":"_setPendingAdmin","inputs":[{"name":"newPendingAdmin","type":"address","internalType":"address payable"}],"outputs":[{"name":"","type":"uint256","internalType":"uint256"}],"stateMutability":"nonpayable"},{"type":"function","name":"_setPeridottroller","inputs":[{"name":"newPeridottroller","type":"address","internalType":"contract PeridottrollerInterface"}],"outputs":[{"name":"","type":"uint256","internalType":"uint256"}],"stateMutability":"nonpayable"},{"type":"function","name":"_setReserveFactor","inputs":[{"name":"newReserveFactorMantissa","type":"uint256","internalType":"uint256"}],"outputs":[{"name":"","type":"uint256","internalType":"uint256"}],"stateMutability":"nonpayable"},{"type":"function","name":"accrualBlockNumber","inputs":[],"outputs":[{"name":"","type":"uint256","internalType":"uint256"}],"stateMutability":"view"},{"type":"function","name":"accrueInterest","inputs":[],"outputs":[{"name":"","type":"uint256","internalType":"uint256"}],"stateMutability":"nonpayable"},{"type":"function","name":"admin","inputs":[],"outputs":[{"name":"","type":"address","internalType":"address payable"}],"stateMutability":"view"},{"type":"function","name":"allowance","inputs":[{"name":"owner","type":"address","internalType":"address"},{"name":"spender","type":"address","internalType":"address"}],"outputs":[{"name":"","type":"uint256","internalType":"uint256"}],"stateMutability":"view"},{"type":"function","name":"approve","inputs":[{"name":"spender","type":"address","internalType":"address"},{"name":"amount","type":"uint256","internalType":"uint256"}],"outputs":[{"name":"","type":"bool","internalType":"bool"}],"stateMutability":"nonpayable"},{"type":"function","name":"balanceOf","inputs":[{"name":"owner","type":"address","internalType":"address"}],"outputs":[{"name":"","type":"uint256","internalType":"uint256"}],"stateMutability":"view"},{"type":"function","name":"balanceOfUnderlying","inputs":[{"name":"owner","type":"address","internalType":"address"}],"outputs":[{"name":"","type":"uint256","internalType":"uint256"}],"stateMutability":"nonpayable"},{"type":"function","name":"borrow","inputs":[{"name":"borrowAmount","type":"uint256","internalType":"uint256"}],"outputs":[{"name":"","type":"uint256","internalType":"uint256"}],"stateMutability":"nonpayable"},{"type":"function","name":"borrowBalanceCurrent","inputs":[{"name":"account","type":"address","internalType":"address"}],"outputs":[{"name":"","type":"uint256","internalType":"uint256"}],"stateMutability":"nonpayable"},{"type":"function","name":"borrowBalanceStored","inputs":[{"name":"account","type":"address","internalType":"address"}],"outputs":[{"name":"","type":"uint256","internalType":"uint256"}],"stateMutability":"view"},{"type":"function","name":"borrowIndex","inputs":[],"outputs":[{"name":"","type":"uint256","internalType":"uint256"}],"stateMutability":"view"},{"type":"function","name":"borrowRatePerBlock","inputs":[],"outputs":[{"name":"","type":"uint256","internalType":"uint256"}],"stateMutability":"view"},{"type":"function","name":"decimals","inputs":[],"outputs":[{"name":"","type":"uint8","internalType":"uint8"}],"stateMutability":"view"},{"type":"function","name":"exchangeRateCurrent","inputs":[],"outputs":[{"name":"","type":"uint256","internalType":"uint256"}],"stateMutability":"nonpayable"},{"type":"function","name":"exchangeRateStored","inputs":[],"outputs":[{"name":"","type":"uint256","internalType":"uint256"}],"stateMutability":"view"},{"type":"function","name":"flashFee","inputs":[{"name":"token","type":"address","internalType":"address"},{"name":"amount","type":"uint256","internalType":"uint256"}],"outputs":[{"name":"","type":"uint256","internalType":"uint256"}],"stateMutability":"view"},{"type":"function","name":"flashLoan","inputs":[{"name":"receiver","type":"address","internalType":"contract IERC3156FlashBorrower"},{"name":"token","type":"address","internalType":"address"},{"name":"amount","type":"uint256","internalType":"uint256"},{"name":"data","type":"bytes","internalType":"bytes"}],"outputs":[{"name":"","type":"bool","internalType":"bool"}],"stateMutability":"nonpayable"},{"type":"function","name":"flashLoanFeeBps","inputs":[],"outputs":[{"name":"","type":"uint256","internalType":"uint256"}],"stateMutability":"view"},{"type":"function","name":"flashLoansPaused","inputs":[],"outputs":[{"name":"","type":"bool","internalType":"bool"}],"stateMutability":"view"},{"type":"function","name":"getAccountSnapshot","inputs":[{"name":"account","type":"address","internalType":"address"}],"outputs":[{"name":"","type":"uint256","internalType":"uint256"},{"name":"","type":"uint256","internalType":"uint256"},{"name":"","type":"uint256","internalType":"uint256"},{"name":"","type":"uint256","internalType":"uint256"}],"stateMutability":"view"},{"type":"function","name":"getCash","inputs":[],"outputs":[{"name":"","type":"uint256","internalType":"uint256"}],"stateMutability":"view"},{"type":"function","name":"initialize","inputs":[{"name":"peridottroller_","type":"address","internalType":"contract PeridottrollerInterface"},{"name":"interestRateModel_","type":"address","internalType":"contract InterestRateModel"},{"name":"initialExchangeRateMantissa_","type":"uint256","internalType":"uint256"},{"name":"name_","type":"string","internalType":"string"},{"name":"symbol_","type":"string","internalType":"string"},{"name":"decimals_","type":"uint8","internalType":"uint8"}],"outputs":[],"stateMutability":"nonpayable"},{"type":"function","name":"interestRateModel","inputs":[],"outputs":[{"name":"","type":"address","internalType":"contract InterestRateModel"}],"stateMutability":"view"},{"type":"function","name":"isPToken","inputs":[],"outputs":[{"name":"","type":"bool","internalType":"bool"}],"stateMutability":"view"},{"type":"function","name":"liquidateBorrow","inputs":[{"name":"borrower","type":"address","internalType":"address"},{"name":"pTokenCollateral","type":"address","internalType":"contract PToken"}],"outputs":[],"stateMutability":"payable"},{"type":"function","name":"maxFlashLoan","inputs":[{"name":"token","type":"address","internalType":"address"}],"outputs":[{"name":"","type":"uint256","internalType":"uint256"}],"stateMutability":"view"},{"type":"function","name":"maxFlashLoanRatio","inputs":[],"outputs":[{"name":"","type":"uint256","internalType":"uint256"}],"stateMutability":"view"},{"type":"function","name":"mint","inputs":[],"outputs":[],"stateMutability":"payable"},{"type":"function","name":"name","inputs":[],"outputs":[{"name":"","type":"string","internalType":"string"}],"stateMutability":"view"},{"type":"function","name":"pendingAdmin","inputs":[],"outputs":[{"name":"","type":"address","internalType":"address payable"}],"stateMutability":"view"},{"type":"function","name":"peridottroller","inputs":[],"outputs":[{"name":"","type":"address","internalType":"contract PeridottrollerInterface"}],"stateMutability":"view"},{"type":"function","name":"protocolSeizeShareMantissa","inputs":[],"outputs":[{"name":"","type":"uint256","internalType":"uint256"}],"stateMutability":"view"},{"type":"function","name":"redeem","inputs":[{"name":"redeemTokens","type":"uint256","internalType":"uint256"}],"outputs":[{"name":"","type":"uint256","internalType":"uint256"}],"stateMutability":"nonpayable"},{"type":"function","name":"redeemUnderlying","inputs":[{"name":"redeemAmount","type":"uint256","internalType":"uint256"}],"outputs":[{"name":"","type":"uint256","internalType":"uint256"}],"stateMutability":"nonpayable"},{"type":"function","name":"repayBorrow","inputs":[],"outputs":[],"stateMutability":"payable"},{"type":"function","name":"repayBorrowBehalf","inputs":[{"name":"borrower","type":"address","internalType":"address"}],"outputs":[],"stateMutability":"payable"},{"type":"function","name":"reserveFactorMantissa","inputs":[],"outputs":[{"name":"","type":"uint256","internalType":"uint256"}],"stateMutability":"view"},{"type":"function","name":"seize","inputs":[{"name":"liquidator","type":"address","internalType":"address"},{"name":"borrower","type":"address","internalType":"address"},{"name":"seizeTokens","type":"uint256","internalType":"uint256"}],"outputs":[{"name":"","type":"uint256","internalType":"uint256"}],"stateMutability":"nonpayable"},{"type":"function","name":"supplyRatePerBlock","inputs":[],"outputs":[{"name":"","type":"uint256","internalType":"uint256"}],"stateMutability":"view"},{"type":"function","name":"symbol","inputs":[],"outputs":[{"name":"","type":"string","internalType":"string"}],"stateMutability":"view"},{"type":"function","name":"totalBorrows","inputs":[],"outputs":[{"name":"","type":"uint256","internalType":"uint256"}],"stateMutability":"view"},{"type":"function","name":"totalBorrowsCurrent","inputs":[],"outputs":[{"name":"","type":"uint256","internalType":"uint256"}],"stateMutability":"nonpayable"},{"type":"function","name":"totalReserves","inputs":[],"outputs":[{"name":"","type":"uint256","internalType":"uint256"}],"stateMutability":"view"},{"type":"function","name":"totalSupply","inputs":[],"outputs":[{"name":"","type":"uint256","internalType":"uint256"}],"stateMutability":"view"},{"type":"function","name":"transfer","inputs":[{"name":"dst","type":"address","internalType":"address"},{"name":"amount","type":"uint256","internalType":"uint256"}],"outputs":[{"name":"","type":"bool","internalType":"bool"}],"stateMutability":"nonpayable"},{"type":"function","name":"transferFrom","inputs":[{"name":"src","type":"address","internalType":"address"},{"name":"dst","type":"address","internalType":"address"},{"name":"amount","type":"uint256","internalType":"uint256"}],"outputs":[{"name":"","type":"bool","internalType":"bool"}],"stateMutability":"nonpayable"},{"type":"event","name":"AccrueInterest","inputs":[{"name":"cashPrior","type":"uint256","indexed":false,"internalType":"uint256"},{"name":"interestAccumulated","type":"uint256","indexed":false,"internalType":"uint256"},{"name":"borrowIndex","type":"uint256","indexed":false,"internalType":"uint256"},{"name":"totalBorrows","type":"uint256","indexed":false,"internalType":"uint256"}],"anonymous":false},{"type":"event","name":"Approval","inputs":[{"name":"owner","type":"address","indexed":true,"internalType":"address"},{"name":"spender","type":"address","indexed":true,"internalType":"address"},{"name":"amount","type":"uint256","indexed":false,"internalType":"uint256"}],"anonymous":false},{"type":"event","name":"Borrow","inputs":[{"name":"borrower","type":"address","indexed":false,"internalType":"address"},{"name":"borrowAmount","type":"uint256","indexed":false,"internalType":"uint256"},{"name":"accountBorrows","type":"uint256","indexed":false,"internalType":"uint256"},{"name":"totalBorrows","type":"uint256","indexed":false,"internalType":"uint256"}],"anonymous":false},{"type":"event","name":"FlashLoan","inputs":[{"name":"receiver","type":"address","indexed":true,"internalType":"address"},{"name":"token","type":"address","indexed":true,"internalType":"address"},{"name":"amount","type":"uint256","indexed":false,"internalType":"uint256"},{"name":"fee","type":"uint256","indexed":false,"internalType":"uint256"}],"anonymous":false},{"type":"event","name":"FlashLoansPaused","inputs":[{"name":"paused","type":"bool","indexed":false,"internalType":"bool"}],"anonymous":false},{"type":"event","name":"LiquidateBorrow","inputs":[{"name":"liquidator","type":"address","indexed":false,"internalType":"address"},{"name":"borrower","type":"address","indexed":false,"internalType":"address"},{"name":"repayAmount","type":"uint256","indexed":false,"internalType":"uint256"},{"name":"pTokenCollateral","type":"address","indexed":false,"internalType":"address"},{"name":"seizeTokens","type":"uint256","indexed":false,"internalType":"uint256"}],"anonymous":false},{"type":"event","name":"Mint","inputs":[{"name":"minter","type":"address","indexed":false,"internalType":"address"},{"name":"mintAmount","type":"uint256","indexed":false,"internalType":"uint256"},{"name":"mintTokens","type":"uint256","indexed":false,"internalType":"uint256"}],"anonymous":false},{"type":"event","name":"NewAdmin","inputs":[{"name":"oldAdmin","type":"address","indexed":false,"internalType":"address"},{"name":"newAdmin","type":"address","indexed":false,"internalType":"address"}],"anonymous":false},{"type":"event","name":"NewFlashLoanFee","inputs":[{"name":"oldFeeBps","type":"uint256","indexed":false,"internalType":"uint256"},{"name":"newFeeBps","type":"uint256","indexed":false,"internalType":"uint256"}],"anonymous":false},{"type":"event","name":"NewMarketInterestRateModel","inputs":[{"name":"oldInterestRateModel","type":"address","indexed":false,"internalType":"contract InterestRateModel"},{"name":"newInterestRateModel","type":"address","indexed":false,"internalType":"contract InterestRateModel"}],"anonymous":false},{"type":"event","name":"NewMaxFlashLoanRatio","inputs":[{"name":"oldMaxRatio","type":"uint256","indexed":false,"internalType":"uint256"},{"name":"newMaxRatio","type":"uint256","indexed":false,"internalType":"uint256"}],"anonymous":false},{"type":"event","name":"NewPendingAdmin","inputs":[{"name":"oldPendingAdmin","type":"address","indexed":false,"internalType":"address"},{"name":"newPendingAdmin","type":"address","indexed":false,"internalType":"address"}],"anonymous":false},{"type":"event","name":"NewPeridottroller","inputs":[{"name":"oldPeridottroller","type":"address","indexed":false,"internalType":"contract PeridottrollerInterface"},{"name":"newPeridottroller","type":"address","indexed":false,"internalType":"contract PeridottrollerInterface"}],"anonymous":false},{"type":"event","name":"NewReserveFactor","inputs":[{"name":"oldReserveFactorMantissa","type":"uint256","indexed":false,"internalType":"uint256"},{"name":"newReserveFactorMantissa","type":"uint256","indexed":false,"internalType":"uint256"}],"anonymous":false},{"type":"event","name":"Redeem","inputs":[{"name":"redeemer","type":"address","indexed":false,"internalType":"address"},{"name":"redeemAmount","type":"uint256","indexed":false,"internalType":"uint256"},{"name":"redeemTokens","type":"uint256","indexed":false,"internalType":"uint256"}],"anonymous":false},{"type":"event","name":"RepayBorrow","inputs":[{"name":"payer","type":"address","indexed":false,"internalType":"address"},{"name":"borrower","type":"address","indexed":false,"internalType":"address"},{"name":"repayAmount","type":"uint256","indexed":false,"internalType":"uint256"},{"name":"accountBorrows","type":"uint256","indexed":false,"internalType":"uint256"},{"name":"totalBorrows","type":"uint256","indexed":false,"internalType":"uint256"}],"anonymous":false},{"type":"event","name":"ReservesAdded","inputs":[{"name":"benefactor","type":"address","indexed":false,"internalType":"address"},{"name":"addAmount","type":"uint256","indexed":false,"internalType":"uint256"},{"name":"newTotalReserves","type":"uint256","indexed":false,"internalType":"uint256"}],"anonymous":false},{"type":"event","name":"ReservesReduced","inputs":[{"name":"admin","type":"address","indexed":false,"internalType":"address"},{"name":"reduceAmount","type":"uint256","indexed":false,"internalType":"uint256"},{"name":"newTotalReserves","type":"uint256","indexed":false,"internalType":"uint256"}],"anonymous":false},{"type":"event","name":"Transfer","inputs":[{"name":"from","type":"address","indexed":true,"internalType":"address"},{"name":"to","type":"address","indexed":true,"internalType":"address"},{"name":"amount","type":"uint256","indexed":false,"internalType":"uint256"}],"anonymous":false},{"type":"error","name":"AcceptAdminPendingAdminCheck","inputs":[]},{"type":"error","name":"AddReservesFactorFreshCheck","inputs":[{"name":"actualAddAmount","type":"uint256","internalType":"uint256"}]},{"type":"error","name":"BorrowCashNotAvailable","inputs":[]},{"type":"error","name":"BorrowFreshnessCheck","inputs":[]},{"type":"error","name":"BorrowPeridottrollerRejection","inputs":[{"name":"errorCode","type":"uint256","internalType":"uint256"}]},{"type":"error","name":"LiquidateAccrueBorrowInterestFailed","inputs":[{"name":"errorCode","type":"uint256","internalType":"uint256"}]},{"type":"error","name":"LiquidateAccrueCollateralInterestFailed","inputs":[{"name":"errorCode","type":"uint256","internalType":"uint256"}]},{"type":"error","name":"LiquidateCloseAmountIsUintMax","inputs":[]},{"type":"error","name":"LiquidateCloseAmountIsZero","inputs":[]},{"type":"error","name":"LiquidateCollateralFreshnessCheck","inputs":[]},{"type":"error","name":"LiquidateFreshnessCheck","inputs":[]},{"type":"error","name":"LiquidateLiquidatorIsBorrower","inputs":[]},{"type":"error","name":"LiquidatePeridottrollerRejection","inputs":[{"name":"errorCode","type":"uint256","internalType":"uint256"}]},{"type":"error","name":"LiquidateRepayBorrowFreshFailed","inputs":[{"name":"errorCode","type":"uint256","internalType":"uint256"}]},{"type":"error","name":"LiquidateSeizeLiquidatorIsBorrower","inputs":[]},{"type":"error","name":"LiquidateSeizePeridottrollerRejection","inputs":[{"name":"errorCode","type":"uint256","internalType":"uint256"}]},{"type":"error","name":"MintFreshnessCheck","inputs":[]},{"type":"error","name":"MintPeridottrollerRejection","inputs":[{"name":"errorCode","type":"uint256","internalType":"uint256"}]},{"type":"error","name":"RedeemFreshnessCheck","inputs":[]},{"type":"error","name":"RedeemPeridottrollerRejection","inputs":[{"name":"errorCode","type":"uint256","internalType":"uint256"}]},{"type":"error","name":"RedeemTransferOutNotPossible","inputs":[]},{"type":"error","name":"ReduceReservesAdminCheck","inputs":[]},{"type":"error","name":"ReduceReservesCashNotAvailable","inputs":[]},{"type":"error","name":"ReduceReservesCashValidation","inputs":[]},{"type":"error","name":"ReduceReservesFreshCheck","inputs":[]},{"type":"error","name":"RepayBorrowFreshnessCheck","inputs":[]},{"type":"error","name":"RepayBorrowPeridottrollerRejection","inputs":[{"name":"errorCode","type":"uint256","internalType":"uint256"}]},{"type":"error","name":"SetInterestRateModelFreshCheck","inputs":[]},{"type":"error","name":"SetInterestRateModelOwnerCheck","inputs":[]},{"type":"error","name":"SetPendingAdminOwnerCheck","inputs":[]},{"type":"error","name":"SetPeridottrollerOwnerCheck","inputs":[]},{"type":"error","name":"SetReserveFactorAdminCheck","inputs":[]},{"type":"error","name":"SetReserveFactorBoundsCheck","inputs":[]},{"type":"error","name":"SetReserveFactorFreshCheck","inputs":[]},{"type":"error","name":"TransferNotAllowed","inputs":[]},{"type":"error","name":"TransferNotEnough","inputs":[]},{"type":"error","name":"TransferPeridottrollerRejection","inputs":[{"name":"errorCode","type":"uint256","internalType":"uint256"}]},{"type":"error","name":"TransferTooMuch","inputs":[]}],"bytecode":{"object":"0x608080604052346106555761400f803803809161001c8285610659565b833981019060e0818303126106555780516001600160a01b03811691908290036106555760208101516001600160a01b038116919082900361065557604081015160608201519092906001600160401b038111610655578561007f91840161067c565b608083015190956001600160401b0382116106555761009f91840161067c565b9360a08301519260ff84168094036106555760c00151936001600160a01b03851685036106555760038054610100600160a81b03191633600881811b610100600160a81b0316929092179283905591901c6001600160a01b031690036106045760095415806105fa575b156105a957806007551561054b5760055460405163fa707af960e01b81529190602083600481855afa9182156105405761016e6040937ff911792cf103798503b6dab0992e023d45661865683c550a919b8c9ad07dbf7f955f91610511575b506106e9565b6001600160a01b03198216811760055582516001600160a01b0390921682526020820152a143600955670de0b6b3a7640000600a556006546040516310c8fc9560e11b81529190602083600481855afa918215610540576101f96040937fedffc32e068c7c95dfd4bdfd5c4d939a084d6b11c4199eac8436ed234d72f926955f9161051157506106e9565b6001600160a01b03198216811760065582516001600160a01b0390921682526020820152a183516001600160401b03811161042257600154600181811c91168015610507575b602082101461040457601f81116104a4575b50602094601f8211600114610441579481929394955f92610436575b50508160011b915f199060031b1c1916176001555b82516001600160401b03811161042257600254600181811c91168015610418575b602082101461040457601f81116103a1575b506020601f821160011461033e57819293945f92610333575b50508160011b915f199060031b1c1916176002555b600354916005601155610bb860125560ff1960135416601355600160ff195f5416175f55610100600160a81b039060081b169160018060a81b03191617176003556040516138d990816107368239f35b015190505f806102ce565b601f1982169060025f52805f20915f5b81811061038957509583600195969710610371575b505050811b016002556102e3565b01515f1960f88460031b161c191690555f8080610363565b9192602060018192868b01518155019401920161034e565b60025f527f405787fa12a823e0f2b7631cc41b3ba8828b3321ca811111fa75cd3aa3bb5ace601f830160051c810191602084106103fa575b601f0160051c01905b8181106103ef57506102b5565b5f81556001016103e2565b90915081906103d9565b634e487b7160e01b5f52602260045260245ffd5b90607f16906102a3565b634e487b7160e01b5f52604160045260245ffd5b015190505f8061026d565b601f1982169560015f52805f20915f5b88811061048c57508360019596979810610474575b505050811b01600155610282565b01515f1960f88460031b161c191690555f8080610466565b91926020600181928685015181550194019201610451565b60015f527fb10e2d527612073b26eecdfd717e6a320cf44b4afac2b0732d9fcbe2b7fa0cf6601f830160051c810191602084106104fd575b601f0160051c01905b8181106104f25750610251565b5f81556001016104e5565b90915081906104dc565b90607f169061023f565b610533915060203d602011610539575b61052b8183610659565b8101906106d1565b5f610168565b503d610521565b6040513d5f823e3d90fd5b60405162461bcd60e51b815260206004820152603060248201527f696e697469616c2065786368616e67652072617465206d75737420626520677260448201526f32b0ba32b9103a3430b7103d32b9379760811b6064820152608490fd5b60405162461bcd60e51b815260206004820152602360248201527f6d61726b6574206d6179206f6e6c7920626520696e697469616c697a6564206f6044820152626e636560e81b6064820152608490fd5b50600a5415610109565b60405162461bcd60e51b8152602060048201526024808201527f6f6e6c792061646d696e206d617920696e697469616c697a6520746865206d616044820152631c9ad95d60e21b6064820152608490fd5b5f80fd5b601f909101601f19168101906001600160401b0382119082101761042257604052565b81601f82011215610655578051906001600160401b03821161042257604051926106b0601f8401601f191660200185610659565b8284526020838301011161065557815f9260208093018386015e8301015290565b90816020910312610655575180151581036106555790565b156106f057565b60405162461bcd60e51b815260206004820152601c60248201527f6d61726b6572206d6574686f642072657475726e65642066616c7365000000006044820152606490fdfe60806040526004361015610022575b3615610018575f80fd5b6100206129e4565b005b5f5f3560e01c806306fdde03146127bd578063095ea7b3146127445780630ed14e63146127275780631249c58b14612714578063173b9904146126f757806317bfdfbc146126a457806318160ddd14612687578063182df0f51461266d57806323b872dd1461262b5780632678224714612603578063313ce567146125e35780633af9e6691461257e5780633b1d21a21461256357806347bd3718146125455780634e4d9fea146125115780635a890c0e146124f55780635cffe9de146120c6578063601a0bf114611f94578063613255ab14611f705780636752e70214611f4e57806369ab325014611f325780636c540baf14611f1457806370a0823114611edb57806373acee9814611e93578063852a12e314611c685780638f840ddd14611c4a57806395d89b4114611b7e57806395dd919314611b5a57806399d8c1b4146116395780639b503bae14611616578063a6afed95146115fb578063a9059cbb146115a7578063aa5af0fd14611589578063aae40a2a14611058578063ae9d70b014610ff8578063b2a02ff114610fb5578063b71d1a0c14610f06578063bd6d894d14610eeb578063c0c7347e14610ecd578063c37f68e214610e70578063c3b6870014610d61578063c423fe2914610d38578063c53d59d914610c30578063c5ebeaec14610a9f578063d5c6d3bd14610a7b578063d9d98ce414610a1e578063db006a751461072f578063dcef7fbd146106fb578063dd62ed3e146106a8578063e59746191461065c578063e9c714f214610563578063f2b3abbd1461052e578063f3fdb15a14610505578063f851a440146104d8578063f8f9da2814610428578063fca7820b146103505763fcb64147146102a0575061000e565b8060031936011261034d5780546102b960ff8216612b80565b60ff191681556102c7612c9f565b506009544303610339576020907fa91e67c5ea634cd43a12c5a482724b03de01e85ca68702a53d0c2f45cb7c1dc56102ff3433613791565b61030b81600c54612c36565b600c819055604080513381526020810193909352820152606090a1805460ff19166001178155604051908152f35b6338acf79960e01b81526004819052602490fd5b80fd5b503461034d57602036600319011261034d5760043590805461037460ff8216612b80565b60ff19168155610382612c9f565b5060035460081c6001600160a01b0316330361041957600954430361040a57670de0b6b3a764000082116103fb577faaa68312e2ea9d50e16af5068410ab56e1a1fd06037b1a35664812c30f82146060406020936008549080600855825191825285820152a1805460ff19166001178155604051908152f35b63717220f360e11b8152600490fd5b637dfca6b760e11b8152600490fd5b631205b57b60e11b8152600490fd5b503461034d578060031936011261034d57600654600b54600c546040516315f2405360e01b815247600482015260248101929092526044820152919060209083906001600160a01b03168180606481015b03915afa9081156104cc5790610495575b602090604051908152f35b506020813d6020116104c4575b816104af602093836128dc565b810103126104c0576020905161048a565b5f80fd5b3d91506104a2565b604051903d90823e3d90fd5b503461034d578060031936011261034d5760035460405160089190911c6001600160a01b03168152602090f35b503461034d578060031936011261034d576006546040516001600160a01b039091168152602090f35b503461034d57602036600319011261034d57602061055b61054d612928565b610555612c9f565b50613326565b604051908152f35b503461034d578060031936011261034d576004546001600160a01b0381169190338314801590610654575b6106455760038054610100600160a81b03600884811b91909116610100600160a81b0319831617928390556001600160a01b0319909316600455604080516001600160a01b0392851c831681529290931c16602080830191909152937fca4f2f25d0898edd99413412fb94012f9e54ec8142f9b093e7720646a95b16a992917ff9ffabca9c8276e99321725bcb43fb076a6c66a54b7f21c4e8146d8519b417dc908390a181519081528385820152a1604051908152f35b631ba24f2960e21b8252600482fd5b50331561058e565b50602036600319011261034d57610699610674612928565b825461068260ff8216612b80565b60ff19168355610690612c9f565b5034903361361f565b50805460ff1916600117815580f35b503461034d57604036600319011261034d5760406106c4612928565b916106cd61293e565b9260018060a01b03168152600f602052209060018060a01b03165f52602052602060405f2054604051908152f35b503461034d57602036600319011261034d5760043590811515820361034d57602061072583612fd9565b6040519015158152f35b503461034d57602036600319011261034d57600435815461075260ff8216612b80565b60ff19168255610760612c9f565b5080159081159182610a16575b156109b45761077a6130c2565b9160405192610788846128ac565b8352156109a2576107a381670de0b6b3a764000092936133ea565b5104905b60055460405163eabe7d9160e01b815230600482015233602482015260448101839052906020908290606490829088906001600160a01b03165af1908115610997578491610965575b5080610953575060095443036109445747821161092157806108158492600d54612c92565b600d55338252600e60205261082e816040842054612c92565b338352600e602052604083205561084583336132bb565b60405181815230905f5160206138645f395f51905f5260203392a360408051338152602081018590529081018290527fe5b754fb1abb7f01b499791d0b820ae3b6af3424ac1c59768edb53f4ec31a92990606090a16005546001600160a01b031692833b1561091d576084908360405195869485936351dff98960e01b8552306004860152336024860152604485015260648401525af18015610912576108fd575b815460ff19166001178255604051828152602090f35b6109088280926128dc565b61034d575f6108e7565b6040513d84823e3d90fd5b8280fd5b6391240a1b60e01b8352600483fd5b634e487b7160e01b5f52601160045260245ffd5b6397b5cfcd60e01b8352600483fd5b635bd5f7ab60e11b8452600452602483fd5b90506020813d60201161098f575b81610980602093836128dc565b810103126104c057515f6107f0565b3d9150610973565b6040513d86823e3d90fd5b506109ad9082613817565b81906107a7565b60405162461bcd60e51b815260206004820152603460248201527f6f6e65206f662072656465656d546f6b656e73496e206f722072656465656d416044820152736d6f756e74496e206d757374206265207a65726f60601b6064820152608490fd5b50600161076d565b503461034d57604036600319011261034d57610a5f73eeeeeeeeeeeeeeeeeeeeeeeeeeeeeeeeeeeeeeee6001600160a01b03610a58612928565b1614612bb9565b6020612710610a72601154602435612c05565b04604051908152f35b503461034d57602036600319011261034d57602061055b610a9a612928565b612efd565b503461034d57602036600319011261034d57600435908054610ac360ff8216612b80565b60ff19168155610ad1612c9f565b5060055460405163368f515360e21b815230600482015233602482015260448101849052906020908290606490829086906001600160a01b03165af1908115610912578291610bfe575b5080610beb57506009544303610bdc57814710610bcd577f13ed6866d4e1ee6da46f845c46d7e54120883d75c5ea9a2dacc1c4ca8984ab80608083610b6a602095610b65336132e6565b612c36565b610b7682600b54612c36565b9033865260108752806040872055600a5433875260108852600160408820015581600b55610ba483336132bb565b604051923384528784015260408301526060820152a1805460ff19166001178155604051908152f35b6348c2588160e01b8152600490fd5b630e8d8c6160e21b8152600490fd5b635684deff60e11b825260045260249150fd5b90506020813d602011610c28575b81610c19602093836128dc565b810103126104c057515f610b1b565b3d9150610c0c565b503461034d57602036600319011261034d57600354600435919060081c6001600160a01b03163303610ce95760648211610ca4577f2cd87d6d243502fbf87bd7dd851659e05ac6a614994d7f04592e4f173f93978360406020936011549080601155825191825285820152a1604051908152f35b60405162461bcd60e51b815260206004820152601760248201527f466c617368206c6f616e2066656520746f6f20686967680000000000000000006044820152606490fd5b60405162461bcd60e51b815260206004820152602160248201527f4f6e6c792061646d696e2063616e2073657420666c617368206c6f616e2066656044820152606560f81b6064820152608490fd5b503461034d578060031936011261034d576005546040516001600160a01b039091168152602090f35b503461034d57602036600319011261034d57600354600435919060081c6001600160a01b03163303610e1b576127108211610dd6577f84e3f33c20d693ca1e98ee0ab87bf817997a96baa0819ed94c5b96f4a6663f1360406020936012549080601255825191825285820152a1604051908152f35b60405162461bcd60e51b815260206004820152601960248201527f466c617368206c6f616e20726174696f20746f6f2068696768000000000000006044820152606490fd5b60405162461bcd60e51b815260206004820152602760248201527f4f6e6c792061646d696e2063616e20736574206d617820666c617368206c6f616044820152666e20726174696f60c81b6064820152608490fd5b503461034d57602036600319011261034d57608090610e8d612928565b6001600160a01b0381168252600e602052604082205490610ead906132e6565b610eb56130c2565b91604051938452602084015260408301526060820152f35b503461034d578060031936011261034d576020601154604051908152f35b503461034d578060031936011261034d57602061055b612e66565b503461034d57602036600319011261034d57600435906001600160a01b038216808303610fb15760035460081c6001600160a01b03163303610fa257600480546001600160a01b03198116929092179055604080516001600160a01b03928316815293909116602080850191909152927fca4f2f25d0898edd99413412fb94012f9e54ec8142f9b093e7720646a95b16a99190a1604051908152f35b635cb56c2b60e01b8252600482fd5b5080fd5b503461034d57602090610fe5610fca36612954565b918454610fd960ff8216612b80565b60ff1916855533613415565b805460ff19166001178155604051908152f35b503461034d578060031936011261034d57600654600b54600c54600854604051635c0b440b60e11b8152476004820152602481019390935260448301919091526064820152919060209083906001600160a01b0316818060848101610479565b50604036600319011261034d5761106d612928565b6024356001600160a01b038116919082900361091d57825461109160ff8216612b80565b60ff1916835561109f612c9f565b5060405163a6afed9560e01b815260208160048187875af1908115610997578491611557575b50806115455750600554604051632fe3f38f60e11b81523060048201526001600160a01b03848116602483015233604483015283811660648301523460848301529091602091839160a49183918991165af1908115610997578491611513575b5080611501575060095443036114f257604051636c540baf60e01b8152602081600481865afa9081156109975784916114c0575b5043036114b1576001600160a01b038116903382146114a257341561149357345f19146114845761118b34823361361f565b6005546040805163c488847b60e01b81523060048201526001600160a01b0387811660248301526044820185905290949285916064918391165afa9283156113555786908794611446575b506113e5576040516370a0823160e01b815260048101859052602081602481895afa80156113da57849188916113a5575b5010611360573085036112715793829161124760a095947f298637f684da70674f26509b10f07ec2fbc77a335ab1e7d6215a4b2484d8bb52973330613415565b604051933385526020850152604084015260608301526080820152a1805460ff1916600117815580f35b60405163b2a02ff160e01b81523360048201526001600160a01b03919091166024820152604481018390529092919060208160648189895af1908115611355578691611323575b506112e7577f298637f684da70674f26509b10f07ec2fbc77a335ab1e7d6215a4b2484d8bb529360a093611247565b60405162461bcd60e51b81526020600482015260146024820152731d1bdad95b881cd95a5e9d5c994819985a5b195960621b6044820152606490fd5b90506020813d60201161134d575b8161133e602093836128dc565b810103126104c057515f6112b8565b3d9150611331565b6040513d88823e3d90fd5b60405162461bcd60e51b815260206004820152601860248201527f4c49515549444154455f5345495a455f544f4f5f4d55434800000000000000006044820152606490fd5b9150506020813d6020116113d2575b816113c1602093836128dc565b810103126104c0578390515f611207565b3d91506113b4565b6040513d89823e3d90fd5b60405162461bcd60e51b815260206004820152603360248201527f4c49515549444154455f434f4d5054524f4c4c45525f43414c43554c4154455f604482015272105353d5539517d4d152569157d19052531151606a1b6064820152608490fd5b9350506040833d60401161147c575b81611462604093836128dc565b810103126114785760208351930151925f6111d6565b8580fd5b3d9150611455565b635982c5bb60e11b8452600484fd5b63d29da7ef60e01b8452600484fd5b631bd1a62160e21b8452600484fd5b631046f38d60e31b8352600483fd5b90506020813d6020116114ea575b816114db602093836128dc565b810103126104c057515f611159565b3d91506114ce565b6380965b1b60e01b8352600483fd5b632d33e4f360e21b8452600452602483fd5b90506020813d60201161153d575b8161152e602093836128dc565b810103126104c057515f611125565b3d9150611521565b633eea49b760e11b8452600452602483fd5b90506020813d602011611581575b81611572602093836128dc565b810103126104c057515f6110c5565b3d9150611565565b503461034d578060031936011261034d576020600a54604051908152f35b503461034d57604036600319011261034d576020906115e66115c7612928565b82546115d560ff8216612b80565b60ff19168355602435903380613121565b815460ff191660011790915560405190158152f35b503461034d578060031936011261034d57602061055b612c9f565b503461034d578060031936011261034d57602060ff601354166040519015158152f35b503461034d5760c036600319011261034d57611653612928565b61165b61293e565b9160443560643567ffffffffffffffff811161091d5761167f90369060040161298e565b9360843567ffffffffffffffff8111611b56576116a090369060040161298e565b9360a4359260ff8416809403611b525760035460081c6001600160a01b03163303611b01576009541580611af7575b15611aa6578060075515611a48576116e690612efd565b611a03576117039043600955670de0b6b3a7640000600a55613326565b6119b357835167ffffffffffffffff81116118be57611723600154612874565b601f811161194b575b50602094601f82116001146118dd5794839495829394926118d2575b50508160011b915f199060031b1c1916176001555b825167ffffffffffffffff81116118be57611779600254612874565b601f8111611856575b506020601f82116001146117e9578394829394926117de575b50508160011b915f199060031b1c1916176002555b60ff1960035416176003556005601155610bb860125560ff1960135416601355600160ff1982541617815580f35b015190505f8061179b565b600284525f5160206138445f395f51905f5290601f198316855b81811061183e57509583600195969710611826575b505050811b016002556117b0565b01515f1960f88460031b161c191690555f8080611818565b9192602060018192868b015181550194019201611803565b60028452601f820160051c5f5160206138445f395f51905f520190602083106118a9575b601f0160051c5f5160206138445f395f51905f5201905b81811061189e5750611782565b848155600101611891565b5f5160206138445f395f51905f52915061187a565b634e487b7160e01b83526041600452602483fd5b015190505f80611748565b60018452601f198216955f5160206138845f395f51905f5291855b8881106119335750836001959697981061191b575b505050811b0160015561175d565b01515f1960f88460031b161c191690555f808061190d565b919260206001819286850151815501940192016118f8565b60018452601f820160051c5f5160206138845f395f51905f5201906020831061199e575b601f0160051c5f5160206138845f395f51905f5201905b818110611993575061172c565b848155600101611986565b5f5160206138845f395f51905f52915061196f565b60405162461bcd60e51b815260206004820152602260248201527f73657474696e6720696e7465726573742072617465206d6f64656c206661696c604482015261195960f21b6064820152608490fd5b60405162461bcd60e51b815260206004820152601d60248201527f73657474696e672070657269646f7474726f6c6c6572206661696c65640000006044820152606490fd5b60405162461bcd60e51b815260206004820152603060248201527f696e697469616c2065786368616e67652072617465206d75737420626520677260448201526f32b0ba32b9103a3430b7103d32b9379760811b6064820152608490fd5b60405162461bcd60e51b815260206004820152602360248201527f6d61726b6574206d6179206f6e6c7920626520696e697469616c697a6564206f6044820152626e636560e81b6064820152608490fd5b50600a54156116cf565b60405162461bcd60e51b8152602060048201526024808201527f6f6e6c792061646d696e206d617920696e697469616c697a6520746865206d616044820152631c9ad95d60e21b6064820152608490fd5b8480fd5b8380fd5b503461034d57602036600319011261034d57602061055b611b79612928565b6132e6565b503461034d578060031936011261034d57604051908060025490611ba182612874565b8085529160018116908115611c235750600114611bd9575b611bd584611bc9818603826128dc565b604051918291826128fe565b0390f35b600281525f5160206138445f395f51905f52939250905b808210611c0957509091508101602001611bc982611bb9565b919260018160209254838588010152019101909291611bf0565b60ff191660208087019190915292151560051b85019092019250611bc99150839050611bb9565b503461034d578060031936011261034d576020600c54604051908152f35b503461034d57602036600319011261034d57600435908054611c8c60ff8216612b80565b60ff19168155611c9a612c9f565b50611cbb611ca66130c2565b60405190611cb3826128ac565b815283613817565b60055460405163eabe7d9160e01b81523060048201523360248201526044810183905291939190602090829060649082905f906001600160a01b03165af1908115611e26575f91611e61575b5080611e4f57506009544303611e4057478111611e3157611d2a83600d54612c92565b600d55335f52600e602052611d438360405f2054612c92565b335f52600e60205260405f2055611d5a81336132bb565b60405183815230905f5160206138645f395f51905f5260203392a360408051338152602081018390529081018490527fe5b754fb1abb7f01b499791d0b820ae3b6af3424ac1c59768edb53f4ec31a92990606090a16005546001600160a01b031692833b156104c05760845f928360405196879485936351dff98960e01b8552306004860152336024860152604485015260648401525af18015611e2657611e13575b805460ff19166001178155604051908152602090f35b505f611e1e916128dc565b60205f611dfd565b6040513d5f823e3d90fd5b6391240a1b60e01b5f5260045ffd5b6397b5cfcd60e01b5f5260045ffd5b635bd5f7ab60e11b5f5260045260245ffd5b90506020813d602011611e8b575b81611e7c602093836128dc565b810103126104c057515f611d07565b3d9150611e6f565b503461034d578060031936011261034d578060209154611eb560ff8216612b80565b60ff19168155611ec3612c9f565b50600b54815460ff1916600117909155604051908152f35b503461034d57602036600319011261034d576020906040906001600160a01b03611f03612928565b168152600e83522054604051908152f35b503461034d578060031936011261034d576020600954604051908152f35b503461034d578060031936011261034d57602090604051908152f35b503461034d578060031936011261034d576020604051666379da05b600008152f35b503461034d57602036600319011261034d57602061055b611f8f612928565b612c43565b503461034d57602036600319011261034d576004358154611fb760ff8216612b80565b60ff19168255611fc5612c9f565b5060035460081c6001600160a01b031691338390036120b75760095443036120a8574790806120945750811161208557600c5491828211612076576120398261202f817f3bad0c59cf2f06e7314077049f48a93578cd16f5ef92329f1dab1420a99c177e96612c92565b9283600c556132bb565b6003546040805160089290921c6001600160a01b03168252602082019390935291820152606090a1600160ff195f5416175f5560206040515f8152f35b6378d2980560e11b5f5260045ffd5b633345e99960e01b5f5260045ffd5b634e487b7160e01b81526011600452602490fd5b630dff50cb60e41b8152600490fd5b630f7e5e6d60e41b8152600490fd5b503461034d57608036600319011261034d576004356001600160a01b03811690819003610fb1576120f561293e565b91604435906064359067ffffffffffffffff821161034d573660238301121561034d5781600401359467ffffffffffffffff8611610fb1573660248785010111610fb157815461214760ff8216612b80565b60ff191682556001600160a01b03169461217673eeeeeeeeeeeeeeeeeeeeeeeeeeeeeeeeeeeeeeee8714612bb9565b60ff601354166124a65760405163613255ab60e01b815260048101879052602081602481305afa90811561249b578391612469575b50841161241a576127106121c160115486612c05565b04926121cb612c9f565b5047928061209457508483106123cb57602460c46020926121ec888a6132bb565b8460405195869485936323e30c8b60e01b85523360048601528d828601528b60448601528a606486015260a060848601528260a486015201848401375f838284010152601f801991011681010301815f895af18015611e26575f90612379575b7f439148f0bbc682ca079e46d6e2c2f0c1e3b820f1a291b069d8882abf8cf18dd99150036123295761227f824792612c36565b116122e4577f0d7d75e01ab95780d3cd1c8ec0dd6c2ce19e3a20427eec8bf53283b6fb8e95f091816040926122d0575b82519182526020820152a3600160ff195f5416175f55602060405160018152f35b6122dc81600c54612c36565b600c556122af565b60405162461bcd60e51b815260206004820152601a60248201527f466c6173684c6f616e3a206c6f616e206e6f74207265706169640000000000006044820152606490fd5b60405162461bcd60e51b815260206004820152602260248201527f466c6173684c6f616e3a20696e76616c69642063616c6c6261636b2072657475604482015261393760f11b6064820152608490fd5b506020813d6020116123c3575b81612393602093836128dc565b810103126104c0577f439148f0bbc682ca079e46d6e2c2f0c1e3b820f1a291b069d8882abf8cf18dd9905161224c565b3d9150612386565b60405162461bcd60e51b815260206004820152602160248201527f466c6173684c6f616e3a20696e73756666696369656e74206c697175696469746044820152607960f81b6064820152608490fd5b60405162461bcd60e51b815260206004820152602160248201527f466c6173684c6f616e3a20616d6f756e742065786365656473206d6178696d756044820152606d60f81b6064820152608490fd5b90506020813d602011612493575b81612484602093836128dc565b810103126104c057515f6121ab565b3d9150612477565b6040513d85823e3d90fd5b60405162461bcd60e51b815260206004820152602160248201527f466c6173684c6f616e3a20666c617368206c6f616e73206172652070617573656044820152601960fa1b6064820152608490fd5b503461034d578060031936011261034d57602060405160018152f35b508060031936011261034d57805461252b60ff8216612b80565b60ff19168155612539612c9f565b5061069934333361361f565b503461034d578060031936011261034d576020600b54604051908152f35b346104c0575f3660031901126104c057602047604051908152f35b346104c05760203660031901126104c0576020670de0b6b3a76400006125d96125a5612928565b6125ad612e66565b90604051916125bb836128ac565b82526001600160a01b03165f908152600e85526040902054906133ea565b5104604051908152f35b346104c0575f3660031901126104c057602060ff60035416604051908152f35b346104c0575f3660031901126104c0576004546040516001600160a01b039091168152602090f35b346104c057602061265961263e36612954565b915f5461264d60ff8216612b80565b60ff19165f5533613121565b15600160ff195f5416175f55604051908152f35b346104c0575f3660031901126104c057602061055b6130c2565b346104c0575f3660031901126104c0576020600d54604051908152f35b346104c05760203660031901126104c05760206126e46126c2612928565b5f546126d060ff8216612b80565b60ff19165f556126de612c9f565b506132e6565b600160ff195f5416175f55604051908152f35b346104c0575f3660031901126104c0576020600854604051908152f35b5f3660031901126104c0576100206129e4565b346104c0575f3660031901126104c0576020601254604051908152f35b346104c05760403660031901126104c05761275d612928565b335f818152600f602090815260408083206001600160a01b03909516808452948252918290206024359081905591519182527f8c5be1e5ebec7d5bd14f71427d1e84f3dd0314c0f7b2291e5b200ac8c7c3b92591a3602060405160018152f35b346104c0575f3660031901126104c0576040515f6001546127dd81612874565b80845290600181169081156128505750600114612805575b611bd583611bc9818503826128dc565b60015f9081525f5160206138845f395f51905f52939250905b80821061283657509091508101602001611bc96127f5565b91926001816020925483858801015201910190929161281e565b60ff191660208086019190915291151560051b84019091019150611bc990506127f5565b90600182811c921680156128a2575b602083101461288e57565b634e487b7160e01b5f52602260045260245ffd5b91607f1691612883565b6020810190811067ffffffffffffffff8211176128c857604052565b634e487b7160e01b5f52604160045260245ffd5b90601f8019910116810190811067ffffffffffffffff8211176128c857604052565b602060409281835280519182918282860152018484015e5f828201840152601f01601f1916010190565b600435906001600160a01b03821682036104c057565b602435906001600160a01b03821682036104c057565b60609060031901126104c0576004356001600160a01b03811681036104c057906024356001600160a01b03811681036104c0579060443590565b81601f820112156104c05780359067ffffffffffffffff82116128c857604051926129c3601f8401601f1916602001856128dc565b828452602083830101116104c057815f926020809301838601378301015290565b5f546129f260ff8216612b80565b60ff19165f55612a00612c9f565b50600554604051634ef4c3e160e01b815230600482015233602482015234604482015290602090829060649082905f906001600160a01b03165af1908115611e26575f91612b4e575b5080612b3c57506009544303612b2d57612a616130c2565b60405190612a6e826128ac565b81527f4c209b5fc8ad50758f13e2e1088ba56a560dff690a1c6fef26394f4c03821c4f612aa5612a9e3433613791565b9283613817565b8092612ab382600d54612c36565b600d55335f52600e602052612acc8260405f2054612c36565b335f52600e60205260405f2055612b026040519283923384604091949392606082019560018060a01b0316825260208201520152565b0390a160405190815233905f5160206138645f395f51905f5260203092a3600160ff195f5416175f55565b6338d8859760e01b5f5260045ffd5b6303171a8760e61b5f5260045260245ffd5b90506020813d602011612b78575b81612b69602093836128dc565b810103126104c057515f612a49565b3d9150612b5c565b15612b8757565b60405162461bcd60e51b815260206004820152600a6024820152691c994b595b9d195c995960b21b6044820152606490fd5b15612bc057565b60405162461bcd60e51b815260206004820152601e60248201527f466c6173684c6f616e3a20746f6b656e206e6f7420737570706f7274656400006044820152606490fd5b8181029291811591840414171561093057565b8115612c22570490565b634e487b7160e01b5f52601260045260245ffd5b9190820180921161093057565b6001600160a01b031673eeeeeeeeeeeeeeeeeeeeeeeeeeeeeeeeeeeeeeed1901612c8e5760ff60135416612c8e57612710612c8a612c813447612c92565b60125490612c05565b0490565b5f90565b9190820391821161093057565b600954438114612e6157612cb33447612c92565b600b54600c54600a546006546040516315f2405360e01b815260048101869052602481018590526044810184905295939493929190602090879060649082906001600160a01b03165afa958615611e26575f96612e2d575b5065048c273950008611612de857612dae612d637f4dec04e750ca11537cabcd8a9eab06494de08da3735bc8871cd41250e190bc0497612d4e612de19643612c92565b9060405190612d5c826128ac565b81526133ea565b91670de0b6b3a7640000612da182612da8612d8b84612d828d8a6133ea565b51049b8c612c36565b9784612da18d60085460405190612d5c826128ac565b5104612c36565b956133ea565b904360095581600a5582600b55600c55604051948594859094939260609260808301968352602083015260408201520152565b0390a15f90565b60405162461bcd60e51b815260206004820152601c60248201527f626f72726f772072617465206973206162737572646c792068696768000000006044820152606490fd5b9095506020813d602011612e59575b81612e49602093836128dc565b810103126104c05751945f612d0b565b3d9150612e3c565b505f90565b5f54612e7460ff8216612b80565b60ff19165f55612e82612c9f565b50612e8b6130c2565b90600160ff195f5416175f55565b908160209103126104c0575180151581036104c05790565b15612eb857565b60405162461bcd60e51b815260206004820152601c60248201527f6d61726b6572206d6574686f642072657475726e65642066616c7365000000006044820152606490fd5b60035460081c6001600160a01b03163303612fca5760055460405163fa707af960e01b8152916001600160a01b031690602083600481855afa918215611e2657612f726040937ff911792cf103798503b6dab0992e023d45661865683c550a919b8c9ad07dbf7f955f91612f9b575b50612eb1565b6001600160a01b03198216811760055582516001600160a01b0390921682526020820152a15f90565b612fbd915060203d602011612fc3575b612fb581836128dc565b810190612e99565b5f612f6c565b503d612fab565b634c2fa00360e01b5f5260045ffd5b6003543360089190911c6001600160a01b031614801561303a575b15612e615760207f7958d1d41a26870ec9486cb4dc33830b446f038d00661e064b50719bdde7f42c91151560ff196013541660ff821617601355604051908152a1600190565b50600554604051631251eb1160e11b815290602090829060049082906001600160a01b03165afa908115611e26575f91613080575b506001600160a01b03163314612ff4565b90506020813d6020116130ba575b8161309b602093836128dc565b810103126104c057516001600160a01b03811681036104c0575f61306f565b3d915061308e565b600d54806130d1575060075490565b6130f36130ea6130e13447612c92565b600b5490612c36565b600c5490612c92565b90670de0b6b3a7640000820291808304670de0b6b3a764000014901517156109305761311e91612c18565b90565b6005546040516317b9b84b60e31b81523060048201526001600160a01b0384811660248301528581166044830152606482018790529395929492939091602091839160849183915f91165af1908115611e26575f91613289575b508061327757506001600160a01b03908116931691828414613268575f5160206138645f395f51905f52916020916001600160a01b0381168503613244575f19905b6131c78383612c92565b91865f52600e85526131dd8460405f2054612c92565b885f52600e86526131f28560405f2054612c36565b90885f52600e875260405f2055885f52600e865260405f20555f1903613220575b5050604051908152a35f90565b855f52600f845260405f209060018060a01b03165f52835260405f20555f80613213565b5f858152600f845260408082206001600160a01b03841683528552902054906131bd565b638cd22d1960e01b5f5260045ffd5b630c93cb5b60e01b5f5260045260245ffd5b90506020813d6020116132b3575b816132a4602093836128dc565b810103126104c057515f61317b565b3d9150613297565b5f8080938193829082156132dc575b6001600160a01b031690f115611e2657565b6108fc91506132ca565b6001600160a01b03165f908152601060205260409020805490811561332057600161331761311e93600a5490612c05565b91015490612c18565b50505f90565b60035460081c6001600160a01b031633036133db5760095443036133cc576006546040516310c8fc9560e11b8152916001600160a01b031690602083600481855afa918215611e26576133a36040937fedffc32e068c7c95dfd4bdfd5c4d939a084d6b11c4199eac8436ed234d72f926955f91612f9b5750612eb1565b6001600160a01b03198216811760065582516001600160a01b0390921682526020820152a15f90565b630be2a5cb60e11b5f5260045ffd5b63407fded560e01b5f5260045ffd5b90613403915f6040516133fc816128ac565b5251612c05565b60405190613410826128ac565b815290565b60055460405163d02f735160e01b81523060048201526001600160a01b039283166024820152838316604482015284831660648201526084810186905293949391602091839160a49183915f91165af1908115611e26575f916135ed575b50806135db57506001600160a01b0392831692168281146135cc57666379da05b600006040516134a2816128ac565b52666379da05b60000820292828404666379da05b60000148315171561093057670de0b6b3a76400007fa91e67c5ea634cd43a12c5a482724b03de01e85ca68702a53d0c2f45cb7c1dc59404906134f98285612c92565b92815f5160206138645f395f51905f526020670de0b6b3a764000061352d876135206130c2565b60405190612d5c826128ac565b51049661356461353f89600c54612c36565b998a600c5561355089600d54612c92565b600d55855f52600e845260405f2054612c92565b845f52600e835260405f2055845f52600e82526135858160405f2054612c36565b855f52600e835260405f2055604051908152a36040519182525f5160206138645f395f51905f5260203093a3604080513081526020810192909252810191909152606090a1565b633a94626760e11b5f5260045ffd5b6305a647b960e31b5f5260045260245ffd5b90506020813d602011613617575b81613608602093836128dc565b810103126104c057515f613473565b3d91506135fb565b600554604051631200453160e11b81523060048201526001600160a01b0383811660248301528481166044830152606482018690529293929091602091839160849183915f91165af1908115611e26575f9161375f575b508061374d5750600954430361373e577f1a2a22cb034d26d1854bdc6666a5b91fe25efbbb5dcad3b0355478d6f5c362a191816136b460a0936132e6565b945f19810361373257506136d36136cc865b84613791565b8096612c92565b6136df86600b54612c92565b91600180861b0316805f5260106020528160405f2055600a54815f526010602052600160405f20015582600b5560405193600180871b03168452602084015285604084015260608301526080820152a190565b6136cc6136d3916136c6565b63c9021e2f60e01b5f5260045ffd5b6335a6a70b60e21b5f5260045260245ffd5b90506020813d602011613789575b8161377a602093836128dc565b810103126104c057515f613676565b3d915061376d565b6001600160a01b031633036137e0578034036137aa5790565b60405162461bcd60e51b815260206004820152600e60248201526d0ecc2d8eaca40dad2e6dac2e8c6d60931b6044820152606490fd5b60405162461bcd60e51b815260206004820152600f60248201526e0e6cadcc8cae440dad2e6dac2e8c6d608b1b6044820152606490fd5b670de0b6b3a7640000810290808204670de0b6b3a764000014901517156109305761311e915190612c1856fe405787fa12a823e0f2b7631cc41b3ba8828b3321ca811111fa75cd3aa3bb5aceddf252ad1be2c89b69c2b068fc378daa952ba7f163c4a11628f55a4df523b3efb10e2d527612073b26eecdfd717e6a320cf44b4afac2b0732d9fcbe2b7fa0cf6a2646970667358221220be4eb907292e7e838bf32a079246f082429d6958ff8176da73bd41aee6afe28e64736f6c634300081c0033","linkReferences":{}},"methodIdentifiers":{"NO_ERROR()":"69ab3250","_acceptAdmin()":"e9c714f2","_addReserves()":"fcb64147","_reduceReserves(uint256)":"601a0bf1","_setFlashLoanFee(uint256)":"c53d59d9","_setFlashLoansPaused(bool)":"dcef7fbd","_setInterestRateModel(address)":"f2b3abbd","_setMaxFlashLoanRatio(uint256)":"c3b68700","_setPendingAdmin(address)":"b71d1a0c","_setPeridottroller(address)":"d5c6d3bd","_setReserveFactor(uint256)":"fca7820b","accrualBlockNumber()":"6c540baf","accrueInterest()":"a6afed95","admin()":"f851a440","allowance(address,address)":"dd62ed3e","approve(address,uint256)":"095ea7b3","balanceOf(address)":"70a08231","balanceOfUnderlying(address)":"3af9e669","borrow(uint256)":"c5ebeaec","borrowBalanceCurrent(address)":"17bfdfbc","borrowBalanceStored(address)":"95dd9193","borrowIndex()":"aa5af0fd","borrowRatePerBlock()":"f8f9da28","decimals()":"313ce567","exchangeRateCurrent()":"bd6d894d","exchangeRateStored()":"182df0f5","flashFee(address,uint256)":"d9d98ce4","flashLoan(address,address,uint256,bytes)":"5cffe9de","flashLoanFeeBps()":"c0c7347e","flashLoansPaused()":"9b503bae","getAccountSnapshot(address)":"c37f68e2","getCash()":"3b1d21a2","initialize(address,address,uint256,string,string,uint8)":"99d8c1b4","interestRateModel()":"f3fdb15a","isPToken()":"5a890c0e","liquidateBorrow(address,address)":"aae40a2a","maxFlashLoan(address)":"613255ab","maxFlashLoanRatio()":"0ed14e63","mint()":"1249c58b","name()":"06fdde03","pendingAdmin()":"26782247","peridottroller()":"c423fe29","protocolSeizeShareMantissa()":"6752e702","redeem(uint256)":"db006a75","redeemUnderlying(uint256)":"852a12e3","repayBorrow()":"4e4d9fea","repayBorrowBehalf(address)":"e5974619","reserveFactorMantissa()":"173b9904","seize(address,address,uint256)":"b2a02ff1","supplyRatePerBlock()":"ae9d70b0","symbol()":"95d89b41","totalBorrows()":"47bd3718","totalBorrowsCurrent()":"73acee98","totalReserves()":"8f840ddd","totalSupply()":"18160ddd","transfer(address,uint256)":"a9059cbb","transferFrom(address,address,uint256)":"23b872dd"},"id":30}