{"abi":[{"type":"function","name":"accrualBlockNumber","inputs":[],"outputs":[{"name":"","type":"uint256","internalType":"uint256"}],"stateMutability":"view"},{"type":"function","name":"admin","inputs":[],"outputs":[{"name":"","type":"address","internalType":"address payable"}],"stateMutability":"view"},{"type":"function","name":"borrowIndex","inputs":[],"outputs":[{"name":"","type":"uint256","internalType":"uint256"}],"stateMutability":"view"},{"type":"function","name":"decimals","inputs":[],"outputs":[{"name":"","type":"uint8","internalType":"uint8"}],"stateMutability":"view"},{"type":"function","name":"flashLoanFeeBps","inputs":[],"outputs":[{"name":"","type":"uint256","internalType":"uint256"}],"stateMutability":"view"},{"type":"function","name":"flashLoansPaused","inputs":[],"outputs":[{"name":"","type":"bool","internalType":"bool"}],"stateMutability":"view"},{"type":"function","name":"interestRateModel","inputs":[],"outputs":[{"name":"","type":"address","internalType":"contract InterestRateModel"}],"stateMutability":"view"},{"type":"function","name":"maxFlashLoanRatio","inputs":[],"outputs":[{"name":"","type":"uint256","internalType":"uint256"}],"stateMutability":"view"},{"type":"function","name":"name","inputs":[],"outputs":[{"name":"","type":"string","internalType":"string"}],"stateMutability":"view"},{"type":"function","name":"pendingAdmin","inputs":[],"outputs":[{"name":"","type":"address","internalType":"address payable"}],"stateMutability":"view"},{"type":"function","name":"peridottroller","inputs":[],"outputs":[{"name":"","type":"address","internalType":"contract PeridottrollerInterface"}],"stateMutability":"view"},{"type":"function","name":"protocolSeizeShareMantissa","inputs":[],"outputs":[{"name":"","type":"uint256","internalType":"uint256"}],"stateMutability":"view"},{"type":"function","name":"reserveFactorMantissa","inputs":[],"outputs":[{"name":"","type":"uint256","internalType":"uint256"}],"stateMutability":"view"},{"type":"function","name":"symbol","inputs":[],"outputs":[{"name":"","type":"string","internalType":"string"}],"stateMutability":"view"},{"type":"function","name":"totalBorrows","inputs":[],"outputs":[{"name":"","type":"uint256","internalType":"uint256"}],"stateMutability":"view"},{"type":"function","name":"totalReserves","inputs":[],"outputs":[{"name":"","type":"uint256","internalType":"uint256"}],"stateMutability":"view"},{"type":"function","name":"totalSupply","inputs":[],"outputs":[{"name":"","type":"uint256","internalType":"uint256"}],"stateMutability":"view"}],"bytecode":{"object":"0x6080806040523460155761051a908161001a8239f35b5f80fdfe60806040526004361015610011575f80fd5b5f3560e01c806306fdde03146103e55780630ed14e63146103c8578063173b9904146103ab57806318160ddd1461038e5780632678224714610366578063313ce5671461034657806347bd3718146103295780636752e702146103085780636c540baf146102eb5780638f840ddd146102ce57806395d89b41146101b05780639b503bae1461018e578063aa5af0fd14610171578063c0c7347e14610154578063c423fe291461012c578063f3fdb15a146101045763f851a440146100d4575f80fd5b34610100575f3660031901126101005760035460405160089190911c6001600160a01b03168152602090f35b5f80fd5b34610100575f366003190112610100576006546040516001600160a01b039091168152602090f35b34610100575f366003190112610100576005546040516001600160a01b039091168152602090f35b34610100575f366003190112610100576020601154604051908152f35b34610100575f366003190112610100576020600a54604051908152f35b34610100575f36600319011261010057602060ff601354166040519015158152f35b34610100575f366003190112610100576040515f6002548060011c906001811680156102c4575b6020831081146102b057828552908115610294575060011461023e575b50819003601f01601f191681019067ffffffffffffffff82118183101761022a576040829052819061022690826104ba565b0390f35b634e487b7160e01b5f52604160045260245ffd5b60025f9081529091507f405787fa12a823e0f2b7631cc41b3ba8828b3321ca811111fa75cd3aa3bb5ace5b82821061027e575060209150820101826101f4565b6001816020925483858801015201910190610269565b90506020925060ff191682840152151560051b820101826101f4565b634e487b7160e01b5f52602260045260245ffd5b91607f16916101d7565b34610100575f366003190112610100576020600c54604051908152f35b34610100575f366003190112610100576020600954604051908152f35b34610100575f366003190112610100576020604051666379da05b600008152f35b34610100575f366003190112610100576020600b54604051908152f35b34610100575f36600319011261010057602060ff60035416604051908152f35b34610100575f366003190112610100576004546040516001600160a01b039091168152602090f35b34610100575f366003190112610100576020600d54604051908152f35b34610100575f366003190112610100576020600854604051908152f35b34610100575f366003190112610100576020601254604051908152f35b34610100575f366003190112610100576040515f6001548060011c906001811680156104b0575b6020831081146102b057828552908115610294575060011461045a5750819003601f01601f191681019067ffffffffffffffff82118183101761022a576040829052819061022690826104ba565b60015f9081529091507fb10e2d527612073b26eecdfd717e6a320cf44b4afac2b0732d9fcbe2b7fa0cf65b82821061049a575060209150820101826101f4565b6001816020925483858801015201910190610485565b91607f169161040c565b602060409281835280519182918282860152018484015e5f828201840152601f01601f191601019056fea26469706673582212206ce6ce139a84a28c44f53cf160529e2597a74588375378e2b5945bc18a6850cd64736f6c634300081b0033","linkReferences":{}},"methodIdentifiers":{"accrualBlockNumber()":"6c540baf","admin()":"f851a440","borrowIndex()":"aa5af0fd","decimals()":"313ce567","flashLoanFeeBps()":"c0c7347e","flashLoansPaused()":"9b503bae","interestRateModel()":"f3fdb15a","maxFlashLoanRatio()":"0ed14e63","name()":"06fdde03","pendingAdmin()":"26782247","peridottroller()":"c423fe29","protocolSeizeShareMantissa()":"6752e702","reserveFactorMantissa()":"173b9904","symbol()":"95d89b41","totalBorrows()":"47bd3718","totalReserves()":"8f840ddd","totalSupply()":"18160ddd"},"id":24}