{"abi":[{"type":"constructor","inputs":[{"name":"timelock_","type":"address","internalType":"address"},{"name":"peridot_","type":"address","internalType":"address"},{"name":"guardian_","type":"address","internalType":"address"}],"stateMutability":"nonpayable"},{"type":"function","name":"BALLOT_TYPEHASH","inputs":[],"outputs":[{"name":"","type":"bytes32","internalType":"bytes32"}],"stateMutability":"view"},{"type":"function","name":"DOMAIN_TYPEHASH","inputs":[],"outputs":[{"name":"","type":"bytes32","internalType":"bytes32"}],"stateMutability":"view"},{"type":"function","name":"__abdicate","inputs":[],"outputs":[],"stateMutability":"nonpayable"},{"type":"function","name":"__acceptAdmin","inputs":[],"outputs":[],"stateMutability":"nonpayable"},{"type":"function","name":"__executeSetTimelockPendingAdmin","inputs":[{"name":"newPendingAdmin","type":"address","internalType":"address"},{"name":"eta","type":"uint256","internalType":"uint256"}],"outputs":[],"stateMutability":"nonpayable"},{"type":"function","name":"__queueSetTimelockPendingAdmin","inputs":[{"name":"newPendingAdmin","type":"address","internalType":"address"},{"name":"eta","type":"uint256","internalType":"uint256"}],"outputs":[],"stateMutability":"nonpayable"},{"type":"function","name":"cancel","inputs":[{"name":"proposalId","type":"uint256","internalType":"uint256"}],"outputs":[],"stateMutability":"nonpayable"},{"type":"function","name":"castVote","inputs":[{"name":"proposalId","type":"uint256","internalType":"uint256"},{"name":"support","type":"bool","internalType":"bool"}],"outputs":[],"stateMutability":"nonpayable"},{"type":"function","name":"castVoteBySig","inputs":[{"name":"proposalId","type":"uint256","internalType":"uint256"},{"name":"support","type":"bool","internalType":"bool"},{"name":"v","type":"uint8","internalType":"uint8"},{"name":"r","type":"bytes32","internalType":"bytes32"},{"name":"s","type":"bytes32","internalType":"bytes32"}],"outputs":[],"stateMutability":"nonpayable"},{"type":"function","name":"execute","inputs":[{"name":"proposalId","type":"uint256","internalType":"uint256"}],"outputs":[],"stateMutability":"payable"},{"type":"function","name":"getActions","inputs":[{"name":"proposalId","type":"uint256","internalType":"uint256"}],"outputs":[{"name":"targets","type":"address[]","internalType":"address[]"},{"name":"values","type":"uint256[]","internalType":"uint256[]"},{"name":"signatures","type":"string[]","internalType":"string[]"},{"name":"calldatas","type":"bytes[]","internalType":"bytes[]"}],"stateMutability":"view"},{"type":"function","name":"getReceipt","inputs":[{"name":"proposalId","type":"uint256","internalType":"uint256"},{"name":"voter","type":"address","internalType":"address"}],"outputs":[{"name":"","type":"tuple","internalType":"struct GovernorAlpha.Receipt","components":[{"name":"hasVoted","type":"bool","internalType":"bool"},{"name":"support","type":"bool","internalType":"bool"},{"name":"votes","type":"uint96","internalType":"uint96"}]}],"stateMutability":"view"},{"type":"function","name":"guardian","inputs":[],"outputs":[{"name":"","type":"address","internalType":"address"}],"stateMutability":"view"},{"type":"function","name":"latestProposalIds","inputs":[{"name":"","type":"address","internalType":"address"}],"outputs":[{"name":"","type":"uint256","internalType":"uint256"}],"stateMutability":"view"},{"type":"function","name":"name","inputs":[],"outputs":[{"name":"","type":"string","internalType":"string"}],"stateMutability":"view"},{"type":"function","name":"peridot","inputs":[],"outputs":[{"name":"","type":"address","internalType":"contract PeridotInterface"}],"stateMutability":"view"},{"type":"function","name":"proposalCount","inputs":[],"outputs":[{"name":"","type":"uint256","internalType":"uint256"}],"stateMutability":"view"},{"type":"function","name":"proposalMaxOperations","inputs":[],"outputs":[{"name":"","type":"uint256","internalType":"uint256"}],"stateMutability":"pure"},{"type":"function","name":"proposalThreshold","inputs":[],"outputs":[{"name":"","type":"uint256","internalType":"uint256"}],"stateMutability":"pure"},{"type":"function","name":"proposals","inputs":[{"name":"","type":"uint256","internalType":"uint256"}],"outputs":[{"name":"id","type":"uint256","internalType":"uint256"},{"name":"proposer","type":"address","internalType":"address"},{"name":"eta","type":"uint256","internalType":"uint256"},{"name":"startBlock","type":"uint256","internalType":"uint256"},{"name":"endBlock","type":"uint256","internalType":"uint256"},{"name":"forVotes","type":"uint256","internalType":"uint256"},{"name":"againstVotes","type":"uint256","internalType":"uint256"},{"name":"canceled","type":"bool","internalType":"bool"},{"name":"executed","type":"bool","internalType":"bool"}],"stateMutability":"view"},{"type":"function","name":"propose","inputs":[{"name":"targets","type":"address[]","internalType":"address[]"},{"name":"values","type":"uint256[]","internalType":"uint256[]"},{"name":"signatures","type":"string[]","internalType":"string[]"},{"name":"calldatas","type":"bytes[]","internalType":"bytes[]"},{"name":"description","type":"string","internalType":"string"}],"outputs":[{"name":"","type":"uint256","internalType":"uint256"}],"stateMutability":"nonpayable"},{"type":"function","name":"queue","inputs":[{"name":"proposalId","type":"uint256","internalType":"uint256"}],"outputs":[],"stateMutability":"nonpayable"},{"type":"function","name":"quorumVotes","inputs":[],"outputs":[{"name":"","type":"uint256","internalType":"uint256"}],"stateMutability":"pure"},{"type":"function","name":"state","inputs":[{"name":"proposalId","type":"uint256","internalType":"uint256"}],"outputs":[{"name":"","type":"uint8","internalType":"enum GovernorAlpha.ProposalState"}],"stateMutability":"view"},{"type":"function","name":"timelock","inputs":[],"outputs":[{"name":"","type":"address","internalType":"contract TimelockInterface"}],"stateMutability":"view"},{"type":"function","name":"votingDelay","inputs":[],"outputs":[{"name":"","type":"uint256","internalType":"uint256"}],"stateMutability":"pure"},{"type":"function","name":"votingPeriod","inputs":[],"outputs":[{"name":"","type":"uint256","internalType":"uint256"}],"stateMutability":"pure"},{"type":"event","name":"ProposalCanceled","inputs":[{"name":"id","type":"uint256","indexed":false,"internalType":"uint256"}],"anonymous":false},{"type":"event","name":"ProposalCreated","inputs":[{"name":"id","type":"uint256","indexed":false,"internalType":"uint256"},{"name":"proposer","type":"address","indexed":false,"internalType":"address"},{"name":"targets","type":"address[]","indexed":false,"internalType":"address[]"},{"name":"values","type":"uint256[]","indexed":false,"internalType":"uint256[]"},{"name":"signatures","type":"string[]","indexed":false,"internalType":"string[]"},{"name":"calldatas","type":"bytes[]","indexed":false,"internalType":"bytes[]"},{"name":"startBlock","type":"uint256","indexed":false,"internalType":"uint256"},{"name":"endBlock","type":"uint256","indexed":false,"internalType":"uint256"},{"name":"description","type":"string","indexed":false,"internalType":"string"}],"anonymous":false},{"type":"event","name":"ProposalExecuted","inputs":[{"name":"id","type":"uint256","indexed":false,"internalType":"uint256"}],"anonymous":false},{"type":"event","name":"ProposalQueued","inputs":[{"name":"id","type":"uint256","indexed":false,"internalType":"uint256"},{"name":"eta","type":"uint256","indexed":false,"internalType":"uint256"}],"anonymous":false},{"type":"event","name":"VoteCast","inputs":[{"name":"voter","type":"address","indexed":false,"internalType":"address"},{"name":"proposalId","type":"uint256","indexed":false,"internalType":"uint256"},{"name":"support","type":"bool","indexed":false,"internalType":"bool"},{"name":"votes","type":"uint256","indexed":false,"internalType":"uint256"}],"anonymous":false}],"bytecode":{"object":"0x60803460a257601f612a1438819003918201601f19168301916001600160401b0383118484101760a65780849260609460405283398101031260a25760428160ba565b906057604060516020840160ba565b920160ba565b5f80546001600160a01b039485166001600160a01b03199182161790915560018054938516938216939093179092556002805491909316911617905560405161294690816100ce8239f35b5f80fd5b634e487b7160e01b5f52604160045260245ffd5b51906001600160a01b038216820360a25756fe6080806040526004361015610012575f80fd5b5f3560e01c908163013cf08b14611f875750806302a251a314611f6b57806306fdde0314611f3c57806315373e3d14611f1757806317977c6114611edf57806320606b7014611ea557806321f43e4214611d8557806324bc1a6414611d61578063328dd98214611b905780633932abb114611b755780633e4f49e614611b4657806340e58ee514611885578063452a93201461185d5780634634c61f146116c0578063760fbc131461162a5780637bdbe4d01461160f57806391500671146114ed578063b58131b0146114c9578063b5fa14a2146114a1578063b9a61961146113d2578063d33219b4146113ab578063da35c6641461138e578063da95691a14610795578063ddf0b00914610426578063deaaa7cc146103ec578063e23a9a52146103385763fe0d94c114610145575f80fd5b60203660031901126103345760043561015d816123a9565b6008811015610320576005036102a757805f52600460205260405f20600b810161010061ff00198254161790555f90600381019060048101600582016002600684019301945b845481101561027a575f80546001600160a01b031691906101c4828661255a565b90549060031b1c6101d5838961255a565b905460039190911b1c6001600160a01b0316936101f2848861255a565b90549060031b1c610203858861255a565b509261020f868b61255a565b50966102338d54604051998a9788968795630825f38f60e01b875260048701612583565b03925af191821561026f5760019261024d575b50016101a3565b610268903d805f833e6102608183612030565b81019061221b565b505f610246565b6040513d5f823e3d90fd5b7f712ae1383f79ac853f8d882153778e0260ef8f03b504e2866e0593e04d2b291f602088604051908152a1005b60405162461bcd60e51b815260206004820152604560248201527f476f7665726e6f72416c7068613a3a657865637574653a2070726f706f73616c60448201527f2063616e206f6e6c7920626520657865637574656420696620697420697320716064820152641d595d595960da1b608482015260a490fd5b634e487b7160e01b5f52602160045260245ffd5b5f80fd5b34610334576040366003190112610334576024356001600160a01b0381168103610334575f6040805161036a81612015565b82815282602082015201526004355f526004602052600c60405f20019060018060a01b03165f52602052606060405f206001600160601b03604051916103af83612015565b5460ff8116151592838152826040602083019260ff8560081c1615158452019260101c168252604051938452511515602084015251166040820152f35b34610334575f3660031901126103345760206040517f8e25870c07e0b0b3884c78da52790939a455c275406c44ae8b434b692fb916ee8152f35b3461033457602036600319011261033457600435610443816123a9565b60088110156103205760040361071e575f81815260046020818152604080842093549051630d48571f60e31b815293949392839182906001600160a01b03165afa801561026f575f906106ea575b61049c91504261286c565b60048301906005840160068501600386015f5b81548110156106b257806104c6610528928461255a565b905460039190911b1c6001600160a01b03166105156104e5838a61255a565b90549060031b1c61052f6104f9858a61255a565b5061051c610507878b61255a565b509160405195868092612319565b0385612030565b60405196878092612319565b0386612030565b60018060a01b035f541690896040516105628161055460208201948b89888c896128d3565b03601f198101835282612030565b5190206040519063f2b0653760e01b82526004820152602081602481865afa90811561026f575f91610678575b50610601575f6020946105b98c604051998a9788968795633a66f90160e01b8752600487016128d3565b03925af191821561026f576001926105d3575b50016104af565b6105f39060203d81116105fa575b6105eb8183612030565b81019061239a565b50896105cc565b503d6105e1565b60a460405162461bcd60e51b815260206004820152604460248201527f476f7665726e6f72416c7068613a3a5f71756575654f725265766572743a207060448201527f726f706f73616c20616374696f6e20616c7265616479207175657565642061746064820152632065746160e01b6084820152fd5b90506020813d82116106aa575b8161069260209383612030565b8101031261033457518015158103610334578e61058f565b3d9150610685565b7f9a2e42fd6722813d69113e7d0079d3d940171428df7373df9c7f7617cfda2892604088878060028d015582519182526020820152a1005b506020813d602011610716575b8161070460209383612030565b810103126103345761049c9051610491565b3d91506106f7565b60a460405162461bcd60e51b815260206004820152604460248201527f476f7665726e6f72416c7068613a3a71756575653a2070726f706f73616c206360448201527f616e206f6e6c79206265207175657565642069662069742069732073756363656064820152631959195960e21b6084820152fd5b346103345760a0366003190112610334576004356001600160401b0381116103345736602382011215610334578060040135906107d1826121b0565b906107df6040519283612030565b82825260208201906024829460051b8201019036821161033457602401915b81831061136e575050506024356001600160401b0381116103345736602382011215610334578060040135610832816121b0565b916108406040519384612030565b818352602083016024819360051b8301019136831161033457602401905b82821061135e575050506044356001600160401b038111610334573660238201121561033457806004013590610893826121b0565b906108a16040519283612030565b82825260208201906024829460051b820101903682116103345760248101925b82841061132f5750505050606435906001600160401b0382116103345736602383011215610334578160040135946108f8866121b0565b926109066040519485612030565b86845260208401906024829860051b820101903682116103345760248101925b8284106112ef57505050506084356001600160401b038111610334576109509036906004016121fd565b94610994602060018060a01b036001541661096a43612880565b60405163782d6fe160e01b8152336004820152602481019190915292839190829081906044820190565b03915afa90811561026f5769152d02c7e14af6800000916001600160601b03915f916112c0575b5016111561125557875182518114908161124a575b8161123f575b50156111c85787511561116e57600a88511161111857335f52600560205260405f205480610fd1575b506001430196874311610f8457438810610f9857614381430195868911610f8457888710610f98576003545f198114610f84576001019283600355835f52600460205260405f20938454610f2b5784556001840180546001600160a01b031916331781555f60028601558b51909c60038601906001600160401b038311610d2957600160401b8311610d2957610a9a838354818555846125d6565b905f5260205f205f5b838110610f0e5750505050600484018551916001600160401b038311610d2957600160401b8311610d2957610add838354818555846125d6565b905f5260205f205f5b838110610efa57505050506005830190855190600160401b8211610d29578254828455808310610e83575b50915f5260205f20915f905b828210610db457505050506006820190855190600160401b8211610d29578254828455808310610d3d575b50915f5260205f20915f905b828210610c48575050505093610c24610c3d94610c168995610c0860409a96610bfa60209f9b7f7d84a6263ae0d98d3329bd7b46bb4e8d6f98cd35a7adb45c274c8b7fd5ebd5e09e60078201558860088201555f60098201555f600a820155600b810161ffff198154169055549e8f9c60018060a01b039054165f526020600590528c8e5f20556101208e519e8f9e8f90815233602082015201526101208d01906120e9565b908b820360608d0152612125565b9089820360808b0152612158565b9087820360a0890152612158565b9260c086015260e08501528382036101008501526120a0565b0390a1604051908152f35b80518051906001600160401b038211610d2957610c6f82610c6988546122e1565b886125f9565b602090601f8311600114610cc05792610ca6836001959460209487965f92610cb5575b50508160011b915f199060031b1c19161790565b87555b01940191019092610b54565b015190505f80610c92565b90601f19831691875f52815f20925f5b818110610d115750936020936001969387969383889510610cf9575b505050811b018755610ca9565b01515f1960f88460031b161c191690555f8080610cec565b92936020600181928786015181550195019301610cd0565b634e487b7160e01b5f52604160045260245ffd5b835f528260205f2091820191015b818110610d585750610b48565b80610d65600192546122e1565b80610d72575b5001610d4b565b601f81118314610d8757505f81555b8f610d6b565b610da390825f5283601f60205f20920160051c820191016125c0565b805f525f6020812081835555610d81565b80518051906001600160401b038211610d2957610dd582610c6988546122e1565b602090601f8311600114610e1a5792610e0b836001959460209487965f92610cb55750508160011b915f199060031b1c19161790565b87555b01940191019092610b1d565b90601f19831691875f52815f20925f5b818110610e6b5750936020936001969387969383889510610e53575b505050811b018755610e0e565b01515f1960f88460031b161c191690555f8080610e46565b92936020600181928786015181550195019301610e2a565b835f528260205f2091820191015b818110610e9e5750610b11565b80610eab600192546122e1565b80610eb8575b5001610e91565b601f81118314610ecd57505f81555b5f610eb1565b610ee990825f5283601f60205f20920160051c820191016125c0565b805f525f6020812081835555610ec7565b600190602084519401938184015501610ae6565b82516001600160a01b031681830155602090920191600101610aa3565b60405162461bcd60e51b815260206004820152602b60248201527f476f7665726e6f72416c7068613a3a70726f706f73653a2050726f706f73616c60448201526a24a21031b7b63639b4b7b760a91b6064820152608490fd5b634e487b7160e01b5f52601160045260245ffd5b60405162461bcd60e51b81526020600482015260116024820152706164646974696f6e206f766572666c6f7760781b6044820152606490fd5b610fda906123a9565b600881101561032057600181146110875715610ff657896109ff565b60405162461bcd60e51b815260206004820152605960248201527f476f7665726e6f72416c7068613a3a70726f706f73653a206f6e65206c69766560448201527f2070726f706f73616c207065722070726f706f7365722c20666f756e6420616e60648201527f20616c72656164792070656e64696e672070726f706f73616c00000000000000608482015260a490fd5b60405162461bcd60e51b815260206004820152605860248201527f476f7665726e6f72416c7068613a3a70726f706f73653a206f6e65206c69766560448201527f2070726f706f73616c207065722070726f706f7365722c20666f756e6420616e60648201527f20616c7265616479206163746976652070726f706f73616c0000000000000000608482015260a490fd5b60405162461bcd60e51b815260206004820152602860248201527f476f7665726e6f72416c7068613a3a70726f706f73653a20746f6f206d616e7960448201526720616374696f6e7360c01b6064820152608490fd5b60405162461bcd60e51b815260206004820152602c60248201527f476f7665726e6f72416c7068613a3a70726f706f73653a206d7573742070726f60448201526b7669646520616374696f6e7360a01b6064820152608490fd5b60a460405162461bcd60e51b815260206004820152604460248201527f476f7665726e6f72416c7068613a3a70726f706f73653a2070726f706f73616c60448201527f2066756e6374696f6e20696e666f726d6174696f6e206172697479206d69736d6064820152630c2e8c6d60e31b6084820152fd5b90508451148a6109d6565b8451811491506109d0565b60405162461bcd60e51b815260206004820152603f60248201527f476f7665726e6f72416c7068613a3a70726f706f73653a2070726f706f73657260448201527f20766f7465732062656c6f772070726f706f73616c207468726573686f6c64006064820152608490fd5b6112e2915060203d6020116112e8575b6112da8183612030565b81019061253b565b8c6109bb565b503d6112d0565b83356001600160401b0381116103345782013660438201121561033457602091611324839236906044602482013591016121c7565b815201930192610926565b83356001600160401b038111610334576020916113538392602436918701016121fd565b8152019301926108c1565b813581526020918201910161085e565b82356001600160a01b0381168103610334578152602092830192016107fe565b34610334575f366003190112610334576020600354604051908152f35b34610334575f366003190112610334575f546040516001600160a01b039091168152602090f35b34610334575f366003190112610334576002546001600160a01b03163303611436575f546001600160a01b0316803b15610334575f8091600460405180948193630e18b68160e01b83525af1801561026f5761142a57005b5f61143491612030565b005b60405162461bcd60e51b815260206004820152603960248201527f476f7665726e6f72416c7068613a3a5f5f61636365707441646d696e3a20736560448201527f6e646572206d75737420626520676f7620677561726469616e000000000000006064820152608490fd5b34610334575f366003190112610334576001546040516001600160a01b039091168152602090f35b34610334575f36600319011261033457602060405169152d02c7e14af68000008152f35b34610334576040366003190112610334576115066120d3565b6002546001600160a01b03163303611591575f8054604080516001600160a01b0394851660208281019190915280825293946115699316916115489082612030565b604051948580948193633a66f90160e01b835260243590866004850161227d565b03925af1801561026f5761157957005b6114349060203d6020116105fa576105eb8183612030565b60405162461bcd60e51b815260206004820152604a60248201527f476f7665726e6f72416c7068613a3a5f5f717565756553657454696d656c6f6360448201527f6b50656e64696e6741646d696e3a2073656e646572206d75737420626520676f6064820152693b1033bab0b93234b0b760b11b608482015260a490fd5b34610334575f366003190112610334576020604051600a8152f35b34610334575f366003190112610334576002546001600160a01b038116330361165c576001600160a01b031916600255005b60405162461bcd60e51b815260206004820152603660248201527f476f7665726e6f72416c7068613a3a5f5f61626469636174653a2073656e6465604482015275391036bab9ba1031329033b7bb1033bab0b93234b0b760511b6064820152608490fd5b346103345760a0366003190112610334576004356116dc6120c4565b60443560ff8116809103610334575f60806020926116f861206c565b848151910120604051858101917f8cad95687ba82c2ce50e74f7b754645e5117c3a5bec8151c0726d5857980a86683526040820152466060820152308482015283815261174660a082612030565b519020604051858101907f8e25870c07e0b0b3884c78da52790939a455c275406c44ae8b434b692fb916ee825288604082015287151560608201526060815261178f8582612030565b519020604051908682019261190160f01b845260228301526042820152604281526117bb606282612030565b51902090604051918252848201526064356040820152608435606082015282805260015afa1561026f575f51916001600160a01b03831615611800576114349261263c565b60405162461bcd60e51b815260206004820152602f60248201527f476f7665726e6f72416c7068613a3a63617374566f746542795369673a20696e60448201526e76616c6964207369676e617475726560881b6064820152608490fd5b34610334575f366003190112610334576002546040516001600160a01b039091168152602090f35b34610334576020366003190112610334576004356118a2816123a9565b600881101561032057600714611ae257805f52600460205260405f2060018060a01b036002541633148015611a3c575b156119df57600b8101805460ff191660011790556002810191906004810190600681019060038101906005015f5b82548110156119b2575f546001600160a01b03169061191f818561255a565b905460039190911b1c6001600160a01b031661193b828861255a565b90549060031b1c9261194d838661255a565b5090611959848961255a565b50948b54823b15610334575f946119888692604051998a9788968795632c8fe6ff60e11b875260048701612583565b03925af191821561026f576001926119a2575b5001611900565b5f6119ac91612030565b8861199b565b7f789cf55be980739dad1d0699b93b58e806b51c9d96619bfa8fe0a28abaa7b30c602087604051908152a1005b60405162461bcd60e51b815260206004820152602f60248201527f476f7665726e6f72416c7068613a3a63616e63656c3a2070726f706f7365722060448201526e18589bdd99481d1a1c995cda1bdb19608a1b6064820152608490fd5b506001805490820154611a94916020916001600160a01b039081169116611a6243612880565b60405163782d6fe160e01b81526001600160a01b03909316600484015260248301529092839190829081906044820190565b03915afa90811561026f5769152d02c7e14af6800000916001600160601b03915f91611ac3575b5016106118d2565b611adc915060203d6020116112e8576112da8183612030565b85611abb565b60405162461bcd60e51b815260206004820152603660248201527f476f7665726e6f72416c7068613a3a63616e63656c3a2063616e6e6f742063616044820152751b98d95b08195e1958dd5d1959081c1c9bdc1bdcd85b60521b6064820152608490fd5b3461033457602036600319011261033457611b626004356123a9565b6040516008821015610320576020918152f35b34610334575f36600319011261033457602060405160018152f35b34610334576020366003190112610334576004355f52600460205260405f20600381016004820191600660058201910192604051808460208296549384815201905f5260205f20925f5b818110611d3f575050611bef92500384612030565b604051808260208294549384815201905f5260205f20925f5b818110611d26575050611c1d92500382612030565b8154611c28816121b0565b92611c366040519485612030565b81845260208401905f5260205f205f915b838310611d0157505050508354611c5d816121b0565b94611c6b6040519687612030565b81865260208601905f5260205f205f915b838310611cd557611ca787611cd18a611cc38a611cb58b6040519788976080895260808901906120e9565b908782036020890152612125565b908582036040870152612158565b908382036060850152612158565b0390f35b600160208192604051611cf381611cec8189612319565b0382612030565b815201920192019190611c7c565b600160208192604051611d1881611cec8189612319565b815201920192019190611c47565b8454835260019485019486945060209093019201611c08565b84546001600160a01b0316835260019485019488945060209093019201611bda565b34610334575f3660031901126103345760206040516954b40b1f852bda0000008152f35b3461033457604036600319011261033457611d9e6120d3565b6002546001600160a01b03163303611e25575f611e02819260018060a01b03835416906040519060018060a01b0316602082015260208152611de1604082612030565b604051948580948193630825f38f60e01b835260243590866004850161227d565b03925af1801561026f57611e1257005b611434903d805f833e6102608183612030565b60405162461bcd60e51b815260206004820152604c60248201527f476f7665726e6f72416c7068613a3a5f5f6578656375746553657454696d656c60448201527f6f636b50656e64696e6741646d696e3a2073656e646572206d7573742062652060648201526b33b7bb1033bab0b93234b0b760a11b608482015260a490fd5b34610334575f3660031901126103345760206040517f8cad95687ba82c2ce50e74f7b754645e5117c3a5bec8151c0726d5857980a8668152f35b34610334576020366003190112610334576001600160a01b03611f006120d3565b165f526005602052602060405f2054604051908152f35b3461033457604036600319011261033457611434611f336120c4565b6004353361263c565b34610334575f36600319011261033457611cd1611f5761206c565b6040519182916020835260208301906120a0565b34610334575f3660031901126103345760206040516143808152f35b3461033457602036600319011261033457610120906004355f52600460205260ff60405f2080549060018060a01b0360018201541660028201546007830154600884015491600985015493600b600a870154960154968952602089015260408801526060870152608086015260a085015260c0840152818116151560e084015260081c161515610100820152f35b606081019081106001600160401b03821117610d2957604052565b90601f801991011681019081106001600160401b03821117610d2957604052565b6001600160401b038111610d2957601f01601f191660200190565b6040519061207b604083612030565b601682527550657269646f7420476f7665726e6f7220416c70686160501b6020830152565b805180835260209291819084018484015e5f828201840152601f01601f1916010190565b60243590811515820361033457565b600435906001600160a01b038216820361033457565b90602080835192838152019201905f5b8181106121065750505090565b82516001600160a01b03168452602093840193909201916001016120f9565b90602080835192838152019201905f5b8181106121425750505090565b8251845260209384019390920191600101612135565b9080602083519182815201916020808360051b8301019401925f915b83831061218357505050505090565b90919293946020806121a1600193601f1986820301875289516120a0565b97019301930191939290612174565b6001600160401b038111610d295760051b60200190565b9291926121d382612051565b916121e16040519384612030565b829481845281830111610334578281602093845f960137010152565b9080601f8301121561033457816020612218933591016121c7565b90565b602081830312610334578051906001600160401b038211610334570181601f820112156103345780519061224e82612051565b9261225c6040519485612030565b8284526020838301011161033457815f9260208093018386015e8301015290565b9392916122dc9060809260018060a01b031686525f602087015260a06040870152601860a08701527f73657450656e64696e6741646d696e286164647265737329000000000000000060c087015260e0606087015260e08601906120a0565b930152565b90600182811c9216801561230f575b60208310146122fb57565b634e487b7160e01b5f52602260045260245ffd5b91607f16916122f0565b5f9291815491612328836122e1565b808352926001811690811561237d575060011461234457505050565b5f9081526020812093945091925b838310612363575060209250010190565b600181602092949394548385870101520191019190612352565b915050602093945060ff929192191683830152151560051b010190565b90816020910312610334575190565b80600354101580612532575b156124db575f52600460205260405f20600b8101549060ff82165f146123dc575050600290565b600781015443116123ed5750505f90565b600881015443116123ff575050600190565b6009810154600a8201548111908115916124c7575b5015612421575050600390565b600201549081612432575050600490565b60081c60ff16156124435750600790565b5f546040516360d143f160e11b81529190602090839060049082906001600160a01b03165afa90811561026f575f91612491575b612481925061286c565b421061248c57600690565b600590565b90506020823d6020116124bf575b816124ac60209383612030565b8101031261033457612481915190612477565b3d915061249f565b6954b40b1f852bda0000009150105f612414565b60405162461bcd60e51b815260206004820152602960248201527f476f7665726e6f72416c7068613a3a73746174653a20696e76616c69642070726044820152681bdc1bdcd85b081a5960ba1b6064820152608490fd5b508015156123b5565b9081602091031261033457516001600160601b03811681036103345790565b805482101561256f575f5260205f2001905f90565b634e487b7160e01b5f52603260045260245ffd5b959493906080936122dc936125b29260018060a01b03168952602089015260a0604089015260a0880190612319565b908682036060880152612319565b8181106125cb575050565b5f81556001016125c0565b918181106125e357505050565b6125f7925f5260205f2091820191016125c0565b565b9190601f811161260857505050565b6125f7925f5260205f20906020601f840160051c83019310612632575b601f0160051c01906125c0565b9091508190612625565b612645826123a9565b60088110156103205760010361281457815f52600460205260405f209160018060a01b0382165f52600c830160205260405f209060ff8254166127b957600154600785015460405163782d6fe160e01b81526001600160a01b0386811660048301526024820192909252939160209185916044918391165afa91821561026f577f877856338e13f63d0c36822ff0ef736b80934cd90574a3a5bc9262c39d217c46966080966001600160601b03955f95612798575b5081156127805760090161271281548787169061286c565b90555b82546dffffffffffffffffffffffff00001961ffff19909116911515600881901b61ff00169290921760011716601085901b6dffffffffffffffffffffffff00001617909255604080516001600160a01b0390961686526020860191909152840152166060820152a1565b600a0161279181548787169061286c565b9055612715565b6127b291955060203d6020116112e8576112da8183612030565b935f6126fa565b60405162461bcd60e51b815260206004820152602d60248201527f476f7665726e6f72416c7068613a3a5f63617374566f74653a20766f7465722060448201526c185b1c9958591e481d9bdd1959609a1b6064820152608490fd5b60405162461bcd60e51b815260206004820152602a60248201527f476f7665726e6f72416c7068613a3a5f63617374566f74653a20766f74696e67604482015269081a5cc818db1bdcd95960b21b6064820152608490fd5b90810190818111610f84578110610f985790565b80600111612896575f198101908111610f845790565b60405162461bcd60e51b81526020600482015260156024820152747375627472616374696f6e20756e646572666c6f7760581b6044820152606490fd5b959493906080936122dc936129029260018060a01b03168952602089015260a0604089015260a08801906120a0565b9086820360608801526120a056fea2646970667358221220481587739773518247d6cb5a2b952d3f8b242a778b65e233cec65a9fae7b659e64736f6c634300081c0033","linkReferences":{}},"methodIdentifiers":{"BALLOT_TYPEHASH()":"deaaa7cc","DOMAIN_TYPEHASH()":"20606b70","__abdicate()":"760fbc13","__acceptAdmin()":"b9a61961","__executeSetTimelockPendingAdmin(address,uint256)":"21f43e42","__queueSetTimelockPendingAdmin(address,uint256)":"91500671","cancel(uint256)":"40e58ee5","castVote(uint256,bool)":"15373e3d","castVoteBySig(uint256,bool,uint8,bytes32,bytes32)":"4634c61f","execute(uint256)":"fe0d94c1","getActions(uint256)":"328dd982","getReceipt(uint256,address)":"e23a9a52","guardian()":"452a9320","latestProposalIds(address)":"17977c61","name()":"06fdde03","peridot()":"b5fa14a2","proposalCount()":"da35c664","proposalMaxOperations()":"7bdbe4d0","proposalThreshold()":"b58131b0","proposals(uint256)":"013cf08b","propose(address[],uint256[],string[],bytes[],string)":"da95691a","queue(uint256)":"ddf0b009","quorumVotes()":"24bc1a64","state(uint256)":"3e4f49e6","timelock()":"d33219b4","votingDelay()":"3932abb1","votingPeriod()":"02a251a3"},"id":7}