{"abi":[{"type":"constructor","inputs":[{"name":"_router","type":"address","internalType":"address"},{"name":"_peridottroller","type":"address","internalType":"address"}],"stateMutability":"nonpayable"},{"type":"function","name":"allowedSenders","inputs":[{"name":"","type":"uint64","internalType":"uint64"},{"name":"","type":"address","internalType":"address"}],"outputs":[{"name":"","type":"bool","internalType":"bool"}],"stateMutability":"view"},{"type":"function","name":"allowedSourceChains","inputs":[{"name":"","type":"uint64","internalType":"uint64"}],"outputs":[{"name":"","type":"bool","internalType":"bool"}],"stateMutability":"view"},{"type":"function","name":"allowlistSender","inputs":[{"name":"_sourceChainSelector","type":"uint64","internalType":"uint64"},{"name":"_sender","type":"address","internalType":"address"},{"name":"_allowed","type":"bool","internalType":"bool"}],"outputs":[],"stateMutability":"nonpayable"},{"type":"function","name":"allowlistSourceChain","inputs":[{"name":"_sourceChainSelector","type":"uint64","internalType":"uint64"},{"name":"_allowed","type":"bool","internalType":"bool"}],"outputs":[],"stateMutability":"nonpayable"},{"type":"function","name":"ccipReceive","inputs":[{"name":"message","type":"tuple","internalType":"struct Client.Any2EVMMessage","components":[{"name":"messageId","type":"bytes32","internalType":"bytes32"},{"name":"sourceChainSelector","type":"uint64","internalType":"uint64"},{"name":"sender","type":"bytes","internalType":"bytes"},{"name":"data","type":"bytes","internalType":"bytes"},{"name":"destTokenAmounts","type":"tuple[]","internalType":"struct Client.EVMTokenAmount[]","components":[{"name":"token","type":"address","internalType":"address"},{"name":"amount","type":"uint256","internalType":"uint256"}]}]}],"outputs":[],"stateMutability":"nonpayable"},{"type":"function","name":"getAccountLiquidity","inputs":[{"name":"account","type":"address","internalType":"address"}],"outputs":[{"name":"error","type":"uint256","internalType":"uint256"},{"name":"liquidity","type":"uint256","internalType":"uint256"},{"name":"shortfall","type":"uint256","internalType":"uint256"}],"stateMutability":"view"},{"type":"function","name":"getRouter","inputs":[],"outputs":[{"name":"","type":"address","internalType":"address"}],"stateMutability":"view"},{"type":"function","name":"owner","inputs":[],"outputs":[{"name":"","type":"address","internalType":"address"}],"stateMutability":"view"},{"type":"function","name":"peridottroller","inputs":[],"outputs":[{"name":"","type":"address","internalType":"contract PeridottrollerInterface"}],"stateMutability":"view"},{"type":"function","name":"supportsInterface","inputs":[{"name":"interfaceId","type":"bytes4","internalType":"bytes4"}],"outputs":[{"name":"","type":"bool","internalType":"bool"}],"stateMutability":"view"},{"type":"event","name":"CrossChainLiquidityRequested","inputs":[{"name":"messageId","type":"bytes32","indexed":true,"internalType":"bytes32"},{"name":"sourceChainSelector","type":"uint64","indexed":true,"internalType":"uint64"},{"name":"account","type":"address","indexed":true,"internalType":"address"},{"name":"sender","type":"address","indexed":false,"internalType":"address"}],"anonymous":false},{"type":"event","name":"CrossChainLiquidityResponse","inputs":[{"name":"messageId","type":"bytes32","indexed":true,"internalType":"bytes32"},{"name":"account","type":"address","indexed":true,"internalType":"address"},{"name":"error","type":"uint256","indexed":false,"internalType":"uint256"},{"name":"liquidity","type":"uint256","indexed":false,"internalType":"uint256"},{"name":"shortfall","type":"uint256","indexed":false,"internalType":"uint256"}],"anonymous":false},{"type":"error","name":"InvalidRouter","inputs":[{"name":"router","type":"address","internalType":"address"}]}],"bytecode":{"object":"0x60c060405234801561000f575f5ffd5b50604051610cb7380380610cb783398101604081905261002e916100a1565b816001600160a01b03811661005c576040516335fdcccd60e21b81525f600482015260240160405180910390fd5b6001600160a01b039081166080521660a05250600280546001600160a01b031916331790556100d2565b80516001600160a01b038116811461009c575f5ffd5b919050565b5f5f604083850312156100b2575f5ffd5b6100bb83610086565b91506100c960208401610086565b90509250929050565b60805160a051610baf6101085f395f81816101af0152818161025201526105a801525f818161018601526102d50152610baf5ff3fe608060405234801561000f575f5ffd5b506004361061009b575f3560e01c8063a90289e511610063578063a90289e514610162578063b0f479a114610184578063c423fe29146101aa578063db04fa49146101d1578063f039a009146101e4575f5ffd5b806301ffc9a71461009f5780635ec88c79146100c757806385572ffb146100f55780638da5cb5b1461010a57806396bc53a214610135575b5f5ffd5b6100b26100ad366004610671565b6101f7565b60405190151581526020015b60405180910390f35b6100da6100d53660046106b3565b61022d565b604080519384526020840192909252908201526060016100be565b6101086101033660046106ce565b6102ca565b005b60025461011d906001600160a01b031681565b6040516001600160a01b0390911681526020016100be565b6100b261014336600461071f565b600160209081525f928352604080842090915290825290205460ff1681565b6100b2610170366004610754565b5f6020819052908152604090205460ff1681565b7f000000000000000000000000000000000000000000000000000000000000000061011d565b61011d7f000000000000000000000000000000000000000000000000000000000000000081565b6101086101df36600461077c565b61032e565b6101086101f23660046107ad565b610382565b5f6001600160e01b031982166385572ffb60e01b148061022757506001600160e01b031982166301ffc9a760e01b145b92915050565b604051635ec88c7960e01b81526001600160a01b0382811660048301525f91829182917f000000000000000000000000000000000000000000000000000000000000000090911690635ec88c7990602401606060405180830381865afa158015610299573d5f5f3e3d5ffd5b505050506040513d601f19601f820116820180604052508101906102bd91906107ef565b9250925092509193909250565b336001600160a01b037f0000000000000000000000000000000000000000000000000000000000000000161461031a576040516335fdcccd60e21b81523360048201526024015b60405180910390fd5b61032b610326826109cd565b6103eb565b50565b6002546001600160a01b031633146103585760405162461bcd60e51b815260040161031190610a7e565b6001600160401b03919091165f908152602081905260409020805460ff1916911515919091179055565b6002546001600160a01b031633146103ac5760405162461bcd60e51b815260040161031190610a7e565b6001600160401b039092165f9081526001602090815260408083206001600160a01b03909416835292905220805491151560ff19909216919091179055565b6020808201516001600160401b03165f90815290819052604090205460ff166104565760405162461bcd60e51b815260206004820152601860248201527f536f7572636520636861696e206e6f7420616c6c6f77656400000000000000006044820152606401610311565b5f816040015180602001905181019061046f9190610abf565b6020808401516001600160401b03165f9081526001825260408082206001600160a01b0385168352909252205490915060ff166104e35760405162461bcd60e51b815260206004820152601260248201527114d95b99195c881b9bdd08185b1b1bddd95960721b6044820152606401610311565b5f5f83606001518060200190518101906104fd9190610ada565b90925090505f82801561051257610512610b65565b036105235783516105239082610529565b50505050565b5f8180602001905181019061053e9190610abf565b6040515f8082529192506001600160a01b038316919085907fa388e28369cc28d2ed3ad3e6e6e8ff5eae718211d3d594c1c43433bfd5b1e9c59060200160405180910390a4604051635ec88c7960e01b81526001600160a01b0382811660048301525f91829182917f000000000000000000000000000000000000000000000000000000000000000090911690635ec88c7990602401606060405180830381865afa1580156105ef573d5f5f3e3d5ffd5b505050506040513d601f19601f8201168201806040525081019061061391906107ef565b604080518481526020810184905290810182905292955090935091506001600160a01b0385169087907f455d11435806a0ddcd3c841954f27885f1b463f3e93526aff1e1205f37cbf7899060600160405180910390a3505050505050565b5f60208284031215610681575f5ffd5b81356001600160e01b031981168114610698575f5ffd5b9392505050565b6001600160a01b038116811461032b575f5ffd5b5f602082840312156106c3575f5ffd5b81356106988161069f565b5f602082840312156106de575f5ffd5b81356001600160401b038111156106f3575f5ffd5b820160a08185031215610698575f5ffd5b80356001600160401b038116811461071a575f5ffd5b919050565b5f5f60408385031215610730575f5ffd5b61073983610704565b915060208301356107498161069f565b809150509250929050565b5f60208284031215610764575f5ffd5b61069882610704565b8035801515811461071a575f5ffd5b5f5f6040838503121561078d575f5ffd5b61079683610704565b91506107a46020840161076d565b90509250929050565b5f5f5f606084860312156107bf575f5ffd5b6107c884610704565b925060208401356107d88161069f565b91506107e66040850161076d565b90509250925092565b5f5f5f60608486031215610801575f5ffd5b5050815160208301516040909301519094929350919050565b634e487b7160e01b5f52604160045260245ffd5b604080519081016001600160401b03811182821017156108505761085061081a565b60405290565b60405160a081016001600160401b03811182821017156108505761085061081a565b604051601f8201601f191681016001600160401b03811182821017156108a0576108a061081a565b604052919050565b5f6001600160401b038211156108c0576108c061081a565b50601f01601f191660200190565b5f82601f8301126108dd575f5ffd5b81356108f06108eb826108a8565b610878565b818152846020838601011115610904575f5ffd5b816020850160208301375f918101602001919091529392505050565b5f82601f83011261092f575f5ffd5b81356001600160401b038111156109485761094861081a565b61095760208260051b01610878565b8082825260208201915060208360061b860101925085831115610978575f5ffd5b602085015b838110156109c35760408188031215610994575f5ffd5b61099c61082e565b81356109a78161069f565b815260208281013581830152908452929092019160400161097d565b5095945050505050565b5f60a082360312156109dd575f5ffd5b6109e5610856565b823581526109f560208401610704565b602082015260408301356001600160401b03811115610a12575f5ffd5b610a1e368286016108ce565b60408301525060608301356001600160401b03811115610a3c575f5ffd5b610a48368286016108ce565b60608301525060808301356001600160401b03811115610a66575f5ffd5b610a7236828601610920565b60808301525092915050565b60208082526021908201527f4f6e6c79206f776e65722063616e2063616c6c20746869732066756e6374696f6040820152603760f91b606082015260800190565b5f60208284031215610acf575f5ffd5b81516106988161069f565b5f5f60408385031215610aeb575f5ffd5b825160018110610af9575f5ffd5b60208401519092506001600160401b03811115610b14575f5ffd5b8301601f81018513610b24575f5ffd5b8051610b326108eb826108a8565b818152866020838501011115610b46575f5ffd5b8160208401602083015e5f602083830101528093505050509250929050565b634e487b7160e01b5f52602160045260245ffdfea26469706673582212203f439adf576a85b8aaf2d7e94c0c4f6c13ff4aa7a397ffdd3fdbb32fa342492464736f6c634300081b0033","linkReferences":{}},"methodIdentifiers":{"allowedSenders(uint64,address)":"96bc53a2","allowedSourceChains(uint64)":"a90289e5","allowlistSender(uint64,address,bool)":"f039a009","allowlistSourceChain(uint64,bool)":"db04fa49","ccipReceive((bytes32,uint64,bytes,bytes,(address,uint256)[]))":"85572ffb","getAccountLiquidity(address)":"5ec88c79","getRouter()":"b0f479a1","owner()":"8da5cb5b","peridottroller()":"c423fe29","supportsInterface(bytes4)":"01ffc9a7"},"id":1}