{"abi":[{"type":"constructor","inputs":[{"name":"_router","type":"address","internalType":"address"},{"name":"_peridottroller","type":"address","internalType":"address"}],"stateMutability":"nonpayable"},{"type":"function","name":"allowedSenders","inputs":[{"name":"","type":"uint64","internalType":"uint64"},{"name":"","type":"address","internalType":"address"}],"outputs":[{"name":"","type":"bool","internalType":"bool"}],"stateMutability":"view"},{"type":"function","name":"allowedSourceChains","inputs":[{"name":"","type":"uint64","internalType":"uint64"}],"outputs":[{"name":"","type":"bool","internalType":"bool"}],"stateMutability":"view"},{"type":"function","name":"allowlistSender","inputs":[{"name":"_sourceChainSelector","type":"uint64","internalType":"uint64"},{"name":"_sender","type":"address","internalType":"address"},{"name":"_allowed","type":"bool","internalType":"bool"}],"outputs":[],"stateMutability":"nonpayable"},{"type":"function","name":"allowlistSourceChain","inputs":[{"name":"_sourceChainSelector","type":"uint64","internalType":"uint64"},{"name":"_allowed","type":"bool","internalType":"bool"}],"outputs":[],"stateMutability":"nonpayable"},{"type":"function","name":"ccipReceive","inputs":[{"name":"message","type":"tuple","internalType":"struct Client.Any2EVMMessage","components":[{"name":"messageId","type":"bytes32","internalType":"bytes32"},{"name":"sourceChainSelector","type":"uint64","internalType":"uint64"},{"name":"sender","type":"bytes","internalType":"bytes"},{"name":"data","type":"bytes","internalType":"bytes"},{"name":"destTokenAmounts","type":"tuple[]","internalType":"struct Client.EVMTokenAmount[]","components":[{"name":"token","type":"address","internalType":"address"},{"name":"amount","type":"uint256","internalType":"uint256"}]}]}],"outputs":[],"stateMutability":"nonpayable"},{"type":"function","name":"getAccountLiquidity","inputs":[{"name":"account","type":"address","internalType":"address"}],"outputs":[{"name":"error","type":"uint256","internalType":"uint256"},{"name":"liquidity","type":"uint256","internalType":"uint256"},{"name":"shortfall","type":"uint256","internalType":"uint256"}],"stateMutability":"view"},{"type":"function","name":"getRouter","inputs":[],"outputs":[{"name":"","type":"address","internalType":"address"}],"stateMutability":"view"},{"type":"function","name":"owner","inputs":[],"outputs":[{"name":"","type":"address","internalType":"address"}],"stateMutability":"view"},{"type":"function","name":"peridottroller","inputs":[],"outputs":[{"name":"","type":"address","internalType":"contract PeridottrollerInterface"}],"stateMutability":"view"},{"type":"function","name":"supportsInterface","inputs":[{"name":"interfaceId","type":"bytes4","internalType":"bytes4"}],"outputs":[{"name":"","type":"bool","internalType":"bool"}],"stateMutability":"view"},{"type":"event","name":"CrossChainLiquidityRequested","inputs":[{"name":"messageId","type":"bytes32","indexed":true,"internalType":"bytes32"},{"name":"sourceChainSelector","type":"uint64","indexed":true,"internalType":"uint64"},{"name":"account","type":"address","indexed":true,"internalType":"address"},{"name":"sender","type":"address","indexed":false,"internalType":"address"}],"anonymous":false},{"type":"event","name":"CrossChainLiquidityResponse","inputs":[{"name":"messageId","type":"bytes32","indexed":true,"internalType":"bytes32"},{"name":"account","type":"address","indexed":true,"internalType":"address"},{"name":"error","type":"uint256","indexed":false,"internalType":"uint256"},{"name":"liquidity","type":"uint256","indexed":false,"internalType":"uint256"},{"name":"shortfall","type":"uint256","indexed":false,"internalType":"uint256"}],"anonymous":false},{"type":"error","name":"InvalidRouter","inputs":[{"name":"router","type":"address","internalType":"address"}]}],"bytecode":{"object":"0x60c0346100cc57601f610aca38819003918201601f19168301916001600160401b038311848410176100d05780849260409485528339810103126100cc57610052602061004b836100e4565b92016100e4565b906001600160a01b038116156100b9576080526001600160a01b031660a052600280546001600160a01b031916331790556040516109d190816100f982396080518181816101c901526102e6015260a0518181816101850152818161057d01526107820152f35b6335fdcccd60e21b5f525f60045260245ffd5b5f80fd5b634e487b7160e01b5f52604160045260245ffd5b51906001600160a01b03821682036100cc5756fe6080806040526004361015610012575f80fd5b5f3560e01c90816301ffc9a71461080a575080635ec88c791461073f57806385572ffb146102b45780638da5cb5b1461028c57806396bc53a214610234578063a90289e5146101f8578063b0f479a1146101b4578063c423fe2914610170578063db04fa491461010e5763f039a0091461008a575f80fd5b3461010a57606036600319011261010a576100a3610873565b6100ab61085d565b60443590811515820361010a576001600160401b03610108936100d960018060a01b03600254163314610926565b165f52600160205260405f209060018060a01b03165f5260205260405f209060ff801983541691151516179055565b005b5f80fd5b3461010a57604036600319011261010a57610127610873565b602435801515810361010a576001600160401b036101089261015460018060a01b03600254163314610926565b165f525f60205260405f209060ff801983541691151516179055565b3461010a575f36600319011261010a576040517f00000000000000000000000000000000000000000000000000000000000000006001600160a01b03168152602090f35b3461010a575f36600319011261010a576040517f00000000000000000000000000000000000000000000000000000000000000006001600160a01b03168152602090f35b3461010a57602036600319011261010a576001600160401b03610219610873565b165f525f602052602060ff60405f2054166040519015158152f35b3461010a57604036600319011261010a5761024d610873565b6001600160401b0361025d61085d565b91165f52600160205260405f209060018060a01b03165f52602052602060ff60405f2054166040519015158152f35b3461010a575f36600319011261010a576002546040516001600160a01b039091168152602090f35b3461010a57602036600319011261010a576004356001600160401b03811161010a5760a0600319823603011261010a577f00000000000000000000000000000000000000000000000000000000000000006001600160a01b0316330361072c576040519060a082018281106001600160401b03821117610718576040528060040135825260248101356001600160401b038116810361010a576020830190815260448201356001600160401b03811161010a5761037790600436918501016108e0565b6040840190815260648301356001600160401b03811161010a576103a190600436918601016108e0565b92606085019384526084810135906001600160401b03821161010a57013660238201121561010a5760048101356001600160401b03811161071857604051916103f060208360051b0184610889565b818352602060048185019360061b830101019036821161010a57602401915b8183106106c35750505060808501526001600160401b038251165f525f60205260ff60405f2054161561067e575180516001600160401b03916001600160a01b03916104639160209181018201910161097c565b169151165f52600160205260405f209060018060a01b03165f5260205260ff60405f20541615610644575180518101916040826020850194031261010a57602082015191600183101561010a576040810151906001600160401b03821161010a57019183603f8401121561010a5760208301516104df816108c5565b936104ed6040519586610889565b81855260208501956040828401011161010a57815f92604060209301885e850101521561051657005b51815190926001600160a01b039261053292016020019061097c565b1690815f827fa388e28369cc28d2ed3ad3e6e6e8ff5eae718211d3d594c1c43433bfd5b1e9c56020604051848152a4604051635ec88c7960e01b8152600481018390526060816024817f00000000000000000000000000000000000000000000000000000000000000006001600160a01b03165afa908115610639577f455d11435806a0ddcd3c841954f27885f1b463f3e93526aff1e1205f37cbf789915f905f925f91610602575b506105fd90604051938493846040919493926060820195825260208201520152565b0390a3005b90506105fd925061062b915060603d606011610632575b6106238183610889565b8101906108aa565b90926105db565b503d610619565b6040513d5f823e3d90fd5b60405162461bcd60e51b815260206004820152601260248201527114d95b99195c881b9bdd08185b1b1bddd95960721b6044820152606490fd5b60405162461bcd60e51b815260206004820152601860248201527f536f7572636520636861696e206e6f7420616c6c6f77656400000000000000006044820152606490fd5b60408336031261010a5760405190604082018281106001600160401b03821117610718576040528335906001600160a01b038216820361010a578260209260409452828601358382015281520192019161040f565b634e487b7160e01b5f52604160045260245ffd5b6335fdcccd60e21b5f523360045260245ffd5b3461010a57602036600319011261010a576004356001600160a01b0381169081900361010a57604051635ec88c7960e01b815260048101919091526060816024817f00000000000000000000000000000000000000000000000000000000000000006001600160a01b03165afa8015610639575f905f925f916107e3575b506107df90604051938493846040919493926060820195825260208201520152565b0390f35b90506107df9250610803915060603d606011610632576106238183610889565b90926107bd565b3461010a57602036600319011261010a576004359063ffffffff60e01b821680920361010a576020916385572ffb60e01b811490811561084c575b5015158152f35b6301ffc9a760e01b14905083610845565b602435906001600160a01b038216820361010a57565b600435906001600160401b038216820361010a57565b90601f801991011681019081106001600160401b0382111761071857604052565b9081606091031261010a578051916040602083015192015190565b6001600160401b03811161071857601f01601f191660200190565b81601f8201121561010a578035906108f7826108c5565b926109056040519485610889565b8284526020838301011161010a57815f926020809301838601378301015290565b1561092d57565b60405162461bcd60e51b815260206004820152602160248201527f4f6e6c79206f776e65722063616e2063616c6c20746869732066756e6374696f6044820152603760f91b6064820152608490fd5b9081602091031261010a57516001600160a01b038116810361010a579056fea2646970667358221220e2c84ac101b90f0642c45e23d9df1ea8dd558f3a015681a8a738b8ba19c5bef364736f6c634300081b0033","linkReferences":{}},"methodIdentifiers":{"allowedSenders(uint64,address)":"96bc53a2","allowedSourceChains(uint64)":"a90289e5","allowlistSender(uint64,address,bool)":"f039a009","allowlistSourceChain(uint64,bool)":"db04fa49","ccipReceive((bytes32,uint64,bytes,bytes,(address,uint256)[]))":"85572ffb","getAccountLiquidity(address)":"5ec88c79","getRouter()":"b0f479a1","owner()":"8da5cb5b","peridottroller()":"c423fe29","supportsInterface(bytes4)":"01ffc9a7"},"id":42}