{"abi":[{"type":"constructor","inputs":[],"stateMutability":"nonpayable"},{"type":"receive","stateMutability":"payable"},{"type":"function","name":"authorizeLender","inputs":[{"name":"lender","type":"address","internalType":"address"}],"outputs":[],"stateMutability":"nonpayable"},{"type":"function","name":"authorizedLenders","inputs":[{"name":"","type":"address","internalType":"address"}],"outputs":[{"name":"","type":"bool","internalType":"bool"}],"stateMutability":"view"},{"type":"function","name":"emergencyWithdraw","inputs":[{"name":"token","type":"address","internalType":"address"},{"name":"amount","type":"uint256","internalType":"uint256"}],"outputs":[],"stateMutability":"nonpayable"},{"type":"function","name":"emergencyWithdrawETH","inputs":[],"outputs":[],"stateMutability":"nonpayable"},{"type":"function","name":"executeFlashLoan","inputs":[{"name":"pToken","type":"address","internalType":"address"},{"name":"token","type":"address","internalType":"address"},{"name":"amount","type":"uint256","internalType":"uint256"},{"name":"action","type":"bytes32","internalType":"bytes32"},{"name":"extraData","type":"bytes","internalType":"bytes"}],"outputs":[],"stateMutability":"nonpayable"},{"type":"function","name":"onFlashLoan","inputs":[{"name":"initiator","type":"address","internalType":"address"},{"name":"token","type":"address","internalType":"address"},{"name":"amount","type":"uint256","internalType":"uint256"},{"name":"fee","type":"uint256","internalType":"uint256"},{"name":"data","type":"bytes","internalType":"bytes"}],"outputs":[{"name":"","type":"bytes32","internalType":"bytes32"}],"stateMutability":"nonpayable"},{"type":"function","name":"owner","inputs":[],"outputs":[{"name":"","type":"address","internalType":"address"}],"stateMutability":"view"},{"type":"function","name":"revokeLender","inputs":[{"name":"lender","type":"address","internalType":"address"}],"outputs":[],"stateMutability":"nonpayable"},{"type":"event","name":"FlashLoanExecuted","inputs":[{"name":"token","type":"address","indexed":true,"internalType":"address"},{"name":"amount","type":"uint256","indexed":false,"internalType":"uint256"},{"name":"fee","type":"uint256","indexed":false,"internalType":"uint256"},{"name":"action","type":"bytes32","indexed":false,"internalType":"bytes32"}],"anonymous":false},{"type":"error","name":"FlashLoanFailed","inputs":[]},{"type":"error","name":"InvalidFlashLoanData","inputs":[]},{"type":"error","name":"UnauthorizedFlashLoan","inputs":[]}],"bytecode":{"object":"0x608080604052346026575f80546001600160a01b0319163317905561092c908161002b8239f35b5f80fdfe608080604052600436101561001c575b50361561001a575f80fd5b005b5f3560e01c90816323e30c8b146103d35750806351dcdb821461038057806370accbff146102325780637644dd17146101f557806384536017146101ad578063889500f3146101605780638da5cb5b14610139576395ccea6714610080575f61000f565b34610135576040366003190112610135575f60206100e961009f6107f8565b83546001600160a01b03166100b533821461088c565b60405163a9059cbb60e01b81526001600160a01b039091166004820152602480359082015293849283919082906044820190565b03926001600160a01b03165af1801561012a5761010257005b61001a9060203d602011610123575b61011b8183610852565b810190610874565b503d610111565b6040513d5f823e3d90fd5b5f80fd5b34610135575f366003190112610135575f546040516001600160a01b039091168152602090f35b34610135576020366003190112610135576101796107f8565b61018d60018060a01b035f5416331461088c565b6001600160a01b03165f908152600160205260409020805460ff19169055005b34610135575f366003190112610135575f80548190819081906001600160a01b03166101da33821461088c565b47908282156101ec575bf11561012a57005b506108fc6101e4565b34610135576020366003190112610135576001600160a01b036102166107f8565b165f526001602052602060ff60405f2054166040519015158152f35b346101355760a03660031901126101355761024b6107f8565b61025361080e565b906084359067ffffffffffffffff8211610135576102776020923690600401610824565b91909361028e60018060a01b035f5416331461088c565b6102d860a0604051858196888301996064358b5260606040850152816080850152848401375f838284010152336060830152601f801991011681010301601f198101855284610852565b5f60a4604051809781968295632e7ff4ef60e11b845230600485015260018060a01b031660248401526044356044840152608060648401525180918160848501528484015e8181018301849052601f01601f191681010301926001600160a01b03165af190811561012a575f91610361575b501561035257005b6349088f5960e11b5f5260045ffd5b61037a915060203d6020116101235761011b8183610852565b8161034a565b34610135576020366003190112610135576103996107f8565b6103ad60018060a01b035f5416331461088c565b6001600160a01b03165f908152600160208190526040909120805460ff19169091179055005b346101355760a0366003190112610135576103ec6107f8565b6103f461080e565b91604435926064359160843567ffffffffffffffff81116101355761041d903690600401610824565b9091335f52600160205260ff60405f205416156107c05750810160608282031261013557813594602083013567ffffffffffffffff811161013557830182601f820112156101355780359367ffffffffffffffff85116107ac576040519461048f601f8201601f191660200187610852565b808652602086019460208285010111610135576020815f92826040960188378701015201356001600160a01b0381160361013557306001600160a01b039091160361079d5783917f6531f762ad9fe1348e5cbc8ce25386420ae7bac169c1795e239d9399e722b73f8603610634579060208261050e93510101906108d9565b905011156105ef575b6001600160a01b031692818101928382116105db5760405163095ea7b360e01b815233600482015260248101949094526020846044815f895af192831561012a577f65bfdbdd26d1ac80be712c7b313cdb682efe73dcefd2fab8a7092e530b02268c946060946105be575b5060405192835260208301526040820152a260206040517f439148f0bbc682ca079e46d6e2c2f0c1e3b820f1a291b069d8882abf8cf18dd98152f35b6105d69060203d6020116101235761011b8183610852565b610582565b634e487b7160e01b5f52601160045260245ffd5b60405162461bcd60e51b815260206004820152601860248201527f417262697472616765206e6f742070726f66697461626c6500000000000000006044820152606490fd5b91507fd1dc45b9435dd181eb2c5f215cca1998f9b150a50b490a75c3f250f135f1c12885036106865760608280518101031261013557610680916106796040926108c5565b50016108c5565b50610517565b907f3e8c4ead2278a1632854e5a1cb2e65992e88df16b158bf7125ac4a1620a005a485036106c657906020826106bf93510101906108d9565b5050610517565b7f4cfb90eefab17f2b221057936e2f4c582dddd79d378cb7cb8cd8640698324b9f850361078e57806020915181010312610135576001600160a01b039061070c906108c5565b16828503908582116105db575f1982019182116105db5760405163a9059cbb60e01b81526001600160a01b0390911660048201526024810191909152602081806044810103815f6001600160a01b0387165af1801561012a5761076f5750610517565b6107879060203d6020116101235761011b8183610852565b5084610680565b6319dbc92960e01b5f5260045ffd5b63d2958ad160e01b5f5260045ffd5b634e487b7160e01b5f52604160045260245ffd5b62461bcd60e51b81526020600482015260136024820152722ab730baba3437b934bd32b2103632b73232b960691b6044820152606490fd5b600435906001600160a01b038216820361013557565b602435906001600160a01b038216820361013557565b9181601f840112156101355782359167ffffffffffffffff8311610135576020838186019501011161013557565b90601f8019910116810190811067ffffffffffffffff8211176107ac57604052565b90816020910312610135575180151581036101355790565b1561089357565b60405162461bcd60e51b815260206004820152600a60248201526927b7363c9037bbb732b960b11b6044820152606490fd5b51906001600160a01b038216820361013557565b91908260409103126101355760206108f0836108c5565b9201519056fea264697066735822122045902b54ca979d3e9d7633b5d22fb97e48e1f5757e92df10a61d705b62b7740b64736f6c634300081c0033","linkReferences":{}},"methodIdentifiers":{"authorizeLender(address)":"51dcdb82","authorizedLenders(address)":"7644dd17","emergencyWithdraw(address,uint256)":"95ccea67","emergencyWithdrawETH()":"84536017","executeFlashLoan(address,address,uint256,bytes32,bytes)":"70accbff","onFlashLoan(address,address,uint256,uint256,bytes)":"23e30c8b","owner()":"8da5cb5b","revokeLender(address)":"889500f3"},"id":14}