{"abi":[{"type":"function","name":"getAccountLimits","inputs":[{"name":"peridottroller","type":"address","internalType":"contract PeridottrollerLensInterface"},{"name":"account","type":"address","internalType":"address"}],"outputs":[{"name":"","type":"tuple","internalType":"struct PeridotLens.AccountLimits","components":[{"name":"markets","type":"address[]","internalType":"contract PToken[]"},{"name":"liquidity","type":"uint256","internalType":"uint256"},{"name":"shortfall","type":"uint256","internalType":"uint256"}]}],"stateMutability":"nonpayable"},{"type":"function","name":"getGovBravoProposals","inputs":[{"name":"governor","type":"address","internalType":"contract GovernorBravoInterface"},{"name":"proposalIds","type":"uint256[]","internalType":"uint256[]"}],"outputs":[{"name":"","type":"tuple[]","internalType":"struct PeridotLens.GovBravoProposal[]","components":[{"name":"proposalId","type":"uint256","internalType":"uint256"},{"name":"proposer","type":"address","internalType":"address"},{"name":"eta","type":"uint256","internalType":"uint256"},{"name":"targets","type":"address[]","internalType":"address[]"},{"name":"values","type":"uint256[]","internalType":"uint256[]"},{"name":"signatures","type":"string[]","internalType":"string[]"},{"name":"calldatas","type":"bytes[]","internalType":"bytes[]"},{"name":"startBlock","type":"uint256","internalType":"uint256"},{"name":"endBlock","type":"uint256","internalType":"uint256"},{"name":"forVotes","type":"uint256","internalType":"uint256"},{"name":"againstVotes","type":"uint256","internalType":"uint256"},{"name":"abstainVotes","type":"uint256","internalType":"uint256"},{"name":"canceled","type":"bool","internalType":"bool"},{"name":"executed","type":"bool","internalType":"bool"}]}],"stateMutability":"view"},{"type":"function","name":"getGovBravoReceipts","inputs":[{"name":"governor","type":"address","internalType":"contract GovernorBravoInterface"},{"name":"voter","type":"address","internalType":"address"},{"name":"proposalIds","type":"uint256[]","internalType":"uint256[]"}],"outputs":[{"name":"","type":"tuple[]","internalType":"struct PeridotLens.GovBravoReceipt[]","components":[{"name":"proposalId","type":"uint256","internalType":"uint256"},{"name":"hasVoted","type":"bool","internalType":"bool"},{"name":"support","type":"uint8","internalType":"uint8"},{"name":"votes","type":"uint96","internalType":"uint96"}]}],"stateMutability":"view"},{"type":"function","name":"getGovProposals","inputs":[{"name":"governor","type":"address","internalType":"contract GovernorAlpha"},{"name":"proposalIds","type":"uint256[]","internalType":"uint256[]"}],"outputs":[{"name":"","type":"tuple[]","internalType":"struct PeridotLens.GovProposal[]","components":[{"name":"proposalId","type":"uint256","internalType":"uint256"},{"name":"proposer","type":"address","internalType":"address"},{"name":"eta","type":"uint256","internalType":"uint256"},{"name":"targets","type":"address[]","internalType":"address[]"},{"name":"values","type":"uint256[]","internalType":"uint256[]"},{"name":"signatures","type":"string[]","internalType":"string[]"},{"name":"calldatas","type":"bytes[]","internalType":"bytes[]"},{"name":"startBlock","type":"uint256","internalType":"uint256"},{"name":"endBlock","type":"uint256","internalType":"uint256"},{"name":"forVotes","type":"uint256","internalType":"uint256"},{"name":"againstVotes","type":"uint256","internalType":"uint256"},{"name":"canceled","type":"bool","internalType":"bool"},{"name":"executed","type":"bool","internalType":"bool"}]}],"stateMutability":"view"},{"type":"function","name":"getGovReceipts","inputs":[{"name":"governor","type":"address","internalType":"contract GovernorAlpha"},{"name":"voter","type":"address","internalType":"address"},{"name":"proposalIds","type":"uint256[]","internalType":"uint256[]"}],"outputs":[{"name":"","type":"tuple[]","internalType":"struct PeridotLens.GovReceipt[]","components":[{"name":"proposalId","type":"uint256","internalType":"uint256"},{"name":"hasVoted","type":"bool","internalType":"bool"},{"name":"support","type":"bool","internalType":"bool"},{"name":"votes","type":"uint96","internalType":"uint96"}]}],"stateMutability":"view"},{"type":"function","name":"getPeridotBalanceMetadata","inputs":[{"name":"peridot","type":"address","internalType":"contract Peridot"},{"name":"account","type":"address","internalType":"address"}],"outputs":[{"name":"","type":"tuple","internalType":"struct PeridotLens.PeridotBalanceMetadata","components":[{"name":"balance","type":"uint256","internalType":"uint256"},{"name":"votes","type":"uint256","internalType":"uint256"},{"name":"delegate","type":"address","internalType":"address"}]}],"stateMutability":"view"},{"type":"function","name":"getPeridotBalanceMetadataExt","inputs":[{"name":"peridot","type":"address","internalType":"contract Peridot"},{"name":"peridottroller","type":"address","internalType":"contract PeridottrollerLensInterface"},{"name":"account","type":"address","internalType":"address"}],"outputs":[{"name":"","type":"tuple","internalType":"struct PeridotLens.PeridotBalanceMetadataExt","components":[{"name":"balance","type":"uint256","internalType":"uint256"},{"name":"votes","type":"uint256","internalType":"uint256"},{"name":"delegate","type":"address","internalType":"address"},{"name":"allocated","type":"uint256","internalType":"uint256"}]}],"stateMutability":"nonpayable"},{"type":"function","name":"getPeridotVotes","inputs":[{"name":"peridot","type":"address","internalType":"contract Peridot"},{"name":"account","type":"address","internalType":"address"},{"name":"blockNumbers","type":"uint32[]","internalType":"uint32[]"}],"outputs":[{"name":"","type":"tuple[]","internalType":"struct PeridotLens.PeridotVotes[]","components":[{"name":"blockNumber","type":"uint256","internalType":"uint256"},{"name":"votes","type":"uint256","internalType":"uint256"}]}],"stateMutability":"view"},{"type":"function","name":"pTokenBalances","inputs":[{"name":"pToken","type":"address","internalType":"contract PToken"},{"name":"account","type":"address","internalType":"address payable"}],"outputs":[{"name":"","type":"tuple","internalType":"struct PeridotLens.PTokenBalances","components":[{"name":"pToken","type":"address","internalType":"address"},{"name":"balanceOf","type":"uint256","internalType":"uint256"},{"name":"borrowBalanceCurrent","type":"uint256","internalType":"uint256"},{"name":"balanceOfUnderlying","type":"uint256","internalType":"uint256"},{"name":"tokenBalance","type":"uint256","internalType":"uint256"},{"name":"tokenAllowance","type":"uint256","internalType":"uint256"}]}],"stateMutability":"nonpayable"},{"type":"function","name":"pTokenBalancesAll","inputs":[{"name":"pTokens","type":"address[]","internalType":"contract PToken[]"},{"name":"account","type":"address","internalType":"address payable"}],"outputs":[{"name":"","type":"tuple[]","internalType":"struct PeridotLens.PTokenBalances[]","components":[{"name":"pToken","type":"address","internalType":"address"},{"name":"balanceOf","type":"uint256","internalType":"uint256"},{"name":"borrowBalanceCurrent","type":"uint256","internalType":"uint256"},{"name":"balanceOfUnderlying","type":"uint256","internalType":"uint256"},{"name":"tokenBalance","type":"uint256","internalType":"uint256"},{"name":"tokenAllowance","type":"uint256","internalType":"uint256"}]}],"stateMutability":"nonpayable"},{"type":"function","name":"pTokenMetadata","inputs":[{"name":"pToken","type":"address","internalType":"contract PToken"}],"outputs":[{"name":"","type":"tuple","internalType":"struct PeridotLens.PTokenMetadata","components":[{"name":"pToken","type":"address","internalType":"address"},{"name":"exchangeRateCurrent","type":"uint256","internalType":"uint256"},{"name":"supplyRatePerBlock","type":"uint256","internalType":"uint256"},{"name":"borrowRatePerBlock","type":"uint256","internalType":"uint256"},{"name":"reserveFactorMantissa","type":"uint256","internalType":"uint256"},{"name":"totalBorrows","type":"uint256","internalType":"uint256"},{"name":"totalReserves","type":"uint256","internalType":"uint256"},{"name":"totalSupply","type":"uint256","internalType":"uint256"},{"name":"totalCash","type":"uint256","internalType":"uint256"},{"name":"isListed","type":"bool","internalType":"bool"},{"name":"collateralFactorMantissa","type":"uint256","internalType":"uint256"},{"name":"underlyingAssetAddress","type":"address","internalType":"address"},{"name":"pTokenDecimals","type":"uint256","internalType":"uint256"},{"name":"underlyingDecimals","type":"uint256","internalType":"uint256"},{"name":"peridotSupplySpeed","type":"uint256","internalType":"uint256"},{"name":"peridotBorrowSpeed","type":"uint256","internalType":"uint256"},{"name":"borrowCap","type":"uint256","internalType":"uint256"}]}],"stateMutability":"nonpayable"},{"type":"function","name":"pTokenMetadataAll","inputs":[{"name":"pTokens","type":"address[]","internalType":"contract PToken[]"}],"outputs":[{"name":"","type":"tuple[]","internalType":"struct PeridotLens.PTokenMetadata[]","components":[{"name":"pToken","type":"address","internalType":"address"},{"name":"exchangeRateCurrent","type":"uint256","internalType":"uint256"},{"name":"supplyRatePerBlock","type":"uint256","internalType":"uint256"},{"name":"borrowRatePerBlock","type":"uint256","internalType":"uint256"},{"name":"reserveFactorMantissa","type":"uint256","internalType":"uint256"},{"name":"totalBorrows","type":"uint256","internalType":"uint256"},{"name":"totalReserves","type":"uint256","internalType":"uint256"},{"name":"totalSupply","type":"uint256","internalType":"uint256"},{"name":"totalCash","type":"uint256","internalType":"uint256"},{"name":"isListed","type":"bool","internalType":"bool"},{"name":"collateralFactorMantissa","type":"uint256","internalType":"uint256"},{"name":"underlyingAssetAddress","type":"address","internalType":"address"},{"name":"pTokenDecimals","type":"uint256","internalType":"uint256"},{"name":"underlyingDecimals","type":"uint256","internalType":"uint256"},{"name":"peridotSupplySpeed","type":"uint256","internalType":"uint256"},{"name":"peridotBorrowSpeed","type":"uint256","internalType":"uint256"},{"name":"borrowCap","type":"uint256","internalType":"uint256"}]}],"stateMutability":"nonpayable"},{"type":"function","name":"pTokenUnderlyingPrice","inputs":[{"name":"pToken","type":"address","internalType":"contract PToken"}],"outputs":[{"name":"","type":"tuple","internalType":"struct PeridotLens.PTokenUnderlyingPrice","components":[{"name":"pToken","type":"address","internalType":"address"},{"name":"underlyingPrice","type":"uint256","internalType":"uint256"}]}],"stateMutability":"nonpayable"},{"type":"function","name":"pTokenUnderlyingPriceAll","inputs":[{"name":"pTokens","type":"address[]","internalType":"contract PToken[]"}],"outputs":[{"name":"","type":"tuple[]","internalType":"struct PeridotLens.PTokenUnderlyingPrice[]","components":[{"name":"pToken","type":"address","internalType":"address"},{"name":"underlyingPrice","type":"uint256","internalType":"uint256"}]}],"stateMutability":"nonpayable"}],"bytecode":{"object":"0x60808060405234601557613216908161001a8239f35b5f80fdfe60e06040526004361015610011575f80fd5b5f5f3560e01c80630632c18a14611b5d57806343c811cc1461195b57806357e9ccaf1461192f5780635ed5ab08146115795780636c7109fc1461146e57806375d80e9014610ffb5780637dd8f6d914610dce57806396994869146109a3578063995ed99f14610760578063bb8fb2d214610614578063d8821396146104f0578063def0ab0c146104ad578063e1c25304146102b05763f321f3ba146100b4575f80fd5b34610209576040366003190112610209576100cd611bcf565b6100d5611be5565b9082604080516100e481611bfb565b828152826020820152015260018060a01b031691604051916370a0823160e01b835260018060a01b0316806004840152602083602481875afa9283156102a557829361026d575b5060405163b4b5ea5760e01b81526004810182905290602082602481885afa918215610262578392610220575b50602090602460405180978193632c3e6f0f60e11b835260048301525afa9182156102145780926101d2575b50606093506040805161019681611bfb565b8481526001600160601b036020820193168352019160018060a01b0316825260405192835251602083015260018060a01b039051166040820152f35b9091506020843d60201161020c575b816101ee60209383611ccf565b81010312610209575061020260609361202c565b905f610184565b80fd5b3d91506101e1565b604051903d90823e3d90fd5b9091506020813d60201161025a575b8161023c60209383611ccf565b810103126102565761024f6020916123a4565b9190610158565b8280fd5b3d915061022f565b6040513d85823e3d90fd5b9092506020813d60201161029d575b8161028960209383611ccf565b810103126102995751915f61012b565b5f80fd5b3d915061027c565b6040513d84823e3d90fd5b5034610209576060366003190112610209576102ca611bcf565b906102d3611be5565b916044356001600160401b03811161025657836102f584923690600401611e2c565b916102ff83611cf0565b9461030d6040519687611ccf565b838652601f1961031c85611cf0565b01855b8181106104835750506001600160a01b039081169116845b848110610390578686604051918291602083016020845282518091526020604085019301915b81811061036b575050500390f35b825180518552602090810151818601528695506040909401939092019160010161035d565b63ffffffff6103a86103a3838888612d8d565b61313c565b166103b76103a3838888612d8d565b63ffffffff6040519163782d6fe160e01b8352856004840152166024820152602081604481885afa90811561047857889161042c575b50906001600160601b03600193926040519261040884611c7d565b835216602082015261041a828a612361565b526104258189612361565b5001610337565b90506020813d8211610470575b8161044660209383611ccf565b8101031261046c57906001600160601b03610463600194936123a4565b919293506103ed565b8780fd5b3d9150610439565b6040513d8a823e3d90fd5b6040519295926020919061049681611c7d565b5f81525f8382015282828b0101520194919461031f565b50346102095760203660031901126102095760406104d16104cc611bcf565b612fed565b815181516001600160a01b03168152602091820151918101919091525bf35b5034610209576020366003190112610209576004356001600160401b03811161061057610521903690600401611e2c565b9061052b82611cf0565b916105396040519384611ccf565b808352601f1961054882611cf0565b01845b8181106105ed575050835b8181106105b8578385604051918291602083016020845282518091526020604085019301915b81811061058a575050500390f35b825180516001600160a01b03168552602090810151818601528695506040909401939092019160010161057c565b806105d16104cc6105cc6001948688612d8d565b612d9d565b6105db8287612361565b526105e68186612361565b5001610556565b6020906040516105fc81611c7d565b5f81525f838201528282880101520161054b565b5080fd5b5034610209576040366003190112610209576004356001600160401b03811161061057610645903690600401611e2c565b9061064e611be5565b61065783611cf0565b926106656040519485611ccf565b808452601f1961067482611cf0565b01855b818110610749575050845b818110610713578486604051918291602083016020845282518091526020604085019301915b8181106106b6575050500390f35b91935091602060c082610705600194885160a08091600180831b038151168452602081015160208501526040810151604085015260608101516060850152608081015160808501520151910152565b0194019101918493926106a8565b8061072d846107286105cc600195878a612d8d565b612040565b6107378288612361565b526107428187612361565b5001610682565b602090610754611f47565b82828901015201610677565b50346102095760603660031901126102095761077a611bcf565b610782611be5565b906044356001600160401b03811161099f57916107a484933690600401611d07565b8051916107b083611cf0565b936107be6040519586611ccf565b838552601f196107cd85611cf0565b01865b8181106109825750506001600160a01b0316855b84811061085f578587604051918291602083016020845282518091526020604085019301915b818110610818575050500390f35b91935091602060806001926001600160601b03606088518051845285810151151586850152604081015115156040850152015116606082015201940191019184939261080a565b806060846108706108a29488612361565b5160405163711d4d2960e11b815260048101919091526001600160a01b03909116602482015292839081906044820190565b0381865afa8015610478578890610919575b600192506108c28287612361565b519080511515906001600160601b036040602083015115159201511691604051936108ec85611c2a565b84526020840152604083015260608201526109078289612361565b526109128188612361565b50016107e4565b506060823d821161097a575b8161093260609383611ccf565b8101031261046c57600191610970604080519261094e84611bfb565b61095781612389565b845261096560208201612389565b6020850152016123a4565b60408201526108b4565b3d9150610925565b60209061099096939661233d565b82828a010152019491946107d0565b8380fd5b5034610209576040366003190112610209576109bd611bcf565b6024356001600160401b038111610256576109dc903690600401611e2c565b6109e881939293611cf0565b926109f66040519485611ccf565b818452601f19610a0583611cf0565b01855b818110610d5b5750506001600160a01b0390921691845b828110610b455784866040519182916020830160208452825180915260408401602060408360051b870101940192905b828210610a5e57505050500390f35b919360019193955060208091603f1989820301855287519081518152848060a01b038383015116838201526040820151604082015261018080610af1610adf610acd610abb60608801516101a060608901526101a0880190611e5c565b60808801518782036080890152611e98565b60a087015186820360a0880152611eef565b60c086015185820360c0870152611eef565b9360e081015160e08501526101008101516101008501526101208101516101208501526101408101516101408501526101608101511515610160850152015115159101529601920192018594939192610a4f565b610b50818484612d8d565b604051631946ecc160e11b8152903560048201528681602481885afa8015610d505787918889918a93610d29575b5060405193610b8c85611c61565b8a85528a60208601528a60408601526060850152608084015260a083015260c08201528660e08201528661010082015286610120820152866101408201528661016082015286610180820152610be28287612361565b52610bed8186612361565b50610bf88186612361565b5190610c05818585612d8d565b359160405163013cf08b60e01b815283600482015288610120826024818b5afa918215610d1c578182838491859386958798610c88575b50906101809796959493929160019b8a528b8060a01b031660208a0152604089015260e08801526101008701526101208601526101408501521515610160840152151591015201610a1f565b975050505050505050610120813d8211610d14575b81610cab6101209383611ccf565b81010312610d105760019381610cc66020610180940161202c565b9060408101516060820151608083015160a08401519160c085015193610cfb610100610cf460e08901612389565b9701612389565b979b9798509496939592949193909290610c3c565b8880fd5b3d9150610c9d565b50604051903d90823e3d90fd5b92505050610d4991503d8089833e610d418183611ccf565b810190612db1565b915f610b7e565b6040513d89823e3d90fd5b602090604095949551610d6d81611c61565b888152888382015288604082015260608082015260606080820152606060a0820152606060c08201528860e0820152886101008201528861012082015288610140820152886101608201528861018082015282828901015201939293610a08565b503461020957604036600319011261020957610de8611bcf565b610df0611be5565b908260408051610dff81611bfb565b60608152826020820152015260018060a01b031660405191635ec88c7960e01b835260018060a01b031680600484015283606084602481865afa918215610d1c578182958394610fb5575b5061061057602460405180958193632aff3bff60e21b835260048301525afa918215610faa578492610efb575b506040519391610e8685611bfb565b84526020840192835260408401908152604051926020845260808401945192606060208601528351809652602060a08601940190955b808710610ed85750508394505160408401525160608301520390f35b81516001600160a01b031685526001969096019560209485019490910190610ebc565b9091503d8085833e610f0d8183611ccf565b810190602081830312610fa2578051906001600160401b038211610fa657019080601f83011215610fa257815190610f4482611cf0565b92610f526040519485611ccf565b82845260208085019360051b820101918211610f9e57602001915b818310610f7e57505050905f610e77565b82516001600160a01b038116810361046c57815260209283019201610f6d565b8680fd5b8480fd5b8580fd5b6040513d86823e3d90fd5b9350509350506060813d606011610ff3575b81610fd460609383611ccf565b8101031261099f5780516020820151604090920151919385915f610e4a565b3d9150610fc7565b503461020957604036600319011261020957611015611bcf565b6024356001600160401b03811161025657611034903690600401611e2c565b61104081939293611cf0565b9261104e6040519485611ccf565b818452601f1961105d83611cf0565b01855b8181106113f45750506001600160a01b0390921691845b8281106111735784866040519182916020830160208452825180915260408401602060408360051b870101940192905b8282106110b657505050500390f35b919360019193955060208091603f1989820301855287519081518152848060a01b03838301511683820152604082015160408201526101a080611113610adf610acd610abb60608801516101c060608901526101c0880190611e5c565b9360e081015160e085015261010081015161010085015261012081015161012085015261014081015161014085015261016081015161016085015261018081015115156101808501520151151591015296019201920185949391926110a7565b61117e818484612d8d565b604051631946ecc160e11b8152903560048201528681602481885afa8015610d505787918889918a936113d5575b50604051936111ba85611c45565b8a85528a60208601528a60408601526060850152608084015260a083015260c08201528660e08201528661010082015286610120820152866101408201528661016082015286610180820152866101a08201526112178287612361565b526112228186612361565b5061122d8186612361565b51611239828585612d8d565b60405163013cf08b60e01b8152903560048201819052610140826024818a5afa9182156113ca5789926112e0575b5061012083926101a0926001969552858060a01b03602082015116602085015260408101516040850152606081015160e0850152608081015161010085015260a08101518285015260c081015161014085015260e081015161016085015261010081015115156101808501520151151591015201611077565b909150610140813d82116113c2575b816112fd6101409383611ccf565b81010312610d10576040519061014082018281106001600160401b038211176113ae57926101a09261139f61012080946001999897604052805184526113456020820161202c565b602085015260408101516040850152606081015160608501526080810151608085015260a081015160a085015260c081015160c085015260e081015160e08501526113936101008201612389565b61010085015201612389565b83820152939495509150611267565b634e487b7160e01b8b52604160045260248bfd5b3d91506112ef565b6040513d8b823e3d90fd5b925050506113ed91503d8089833e610d418183611ccf565b915f6111ac565b60209060409594955161140681611c45565b888152888382015288604082015260608082015260606080820152606060a0820152606060c08201528860e08201528861010082015288610120820152886101408201528861016082015288610180820152886101a082015282828901015201939293611060565b5034610209576020366003190112610209576004356001600160401b0381116106105761149f903690600401611e2c565b906114a982611cf0565b916114b76040519384611ccf565b808352601f196114c682611cf0565b01845b818110611562575050835b81811061152d578385604051918291602083016020845282518091526020604085019301915b818110611508575050500390f35b9193509160206102208261151f6001948851611d64565b0194019101918493926114fa565b806115466115416105cc6001948688612d8d565b612481565b6115508287612361565b5261155b8186612361565b50016114d4565b60209061156d6123b8565b828288010152016114c9565b503461029957606036600319011261029957611593611bcf565b9061159c611be5565b906044359260018060a01b038416809403610299576115b961233d565b506040516370a0823160e01b8152600481018590526001600160a01b0391909116939092602084602481885afa9384156118f0575f946118fb575b506001600160a01b031691823b1561029957604051633637692560e01b8152600481018390525f8160248183885af180156118f0576118dd575b506040516370a0823160e01b81526004810183905291602083602481895afa9283156102a55782936118a6575b5060206024946040519586809263d002d98960e01b82528560048301525afa9384156102a5578294611872575b506040928351906116998583611ccf565b60118252701cdd5b481c195c9a591bdd081d1bdd185b607a1b602083015285019485811161185e57906116ce918610156131b0565b61170083516116dd8582611ccf565b600d81526c1cdd5888185b1b1bd8d85d1959609a1b6020820152858711156131b0565b84840393841161184a57825163b4b5ea5760e01b815260048101829052906020826024818a5afa918215611840578392611802575b506020906024855180998193632c3e6f0f60e11b835260048301525afa9182156117f75780926117b8575b50608095506060835161177281611c2a565b8681526001600160601b0360208201931683528481019360018060a01b0316845201938452825194855251602085015260018060a01b0390511690830152516060820152f35b9091506020863d6020116117ef575b816117d460209383611ccf565b8101031261020957506117e860809561202c565b905f611760565b3d91506117c7565b8351903d90823e3d90fd5b9091506020813d602011611838575b8161181e60209383611ccf565b81010312610256576118316020916123a4565b9190611735565b3d9150611811565b84513d85823e3d90fd5b634e487b7160e01b82526011600452602482fd5b634e487b7160e01b84526011600452602484fd5b9093506020813d60201161189e575b8161188e60209383611ccf565b810103126102995751925f611688565b3d9150611881565b9392506020843d6020116118d5575b816118c260209383611ccf565b810103126102995792519192602061165b565b3d91506118b5565b6118e991505f90611ccf565b5f5f61162e565b6040513d5f823e3d90fd5b9093506020813d602011611927575b8161191760209383611ccf565b810103126102995751925f6115f4565b3d915061190a565b346102995760203660031901126102995761022061194e611541611bcf565b6104ee6040518092611d64565b3461029957606036600319011261029957611974611bcf565b61197c611be5565b906044356001600160401b0381116102995761199d83913690600401611d07565b908151916119aa83611cf0565b936119b86040519586611ccf565b838552601f196119c785611cf0565b015f5b818110611b405750506001600160a01b03165f5b848110611a5957856040518091602082016020835281518091526020604084019201905f5b818110611a11575050500390f35b91935091602060806001926001600160601b0360608851805184528581015115158685015260ff60408201511660408501520151166060820152019401910191849392611a03565b80606085610870611a6a9487612361565b0381865afa80156118f0575f90611ae2575b60019250611a8a8286612361565b519080511515906001600160601b03604060ff602084015116920151169160405193611ab585611c2a565b8452602084015260408301526060820152611ad08289612361565b52611adb8188612361565b50016119de565b506060823d8211611b38575b81611afb60609383611ccf565b8101031261029957600191611b2e6040805192611b1784611bfb565b611b2081612389565b845261096560208201612396565b6040820152611a7c565b3d9150611aee565b602090611b4e96939661233d565b82828a010152019491946119ca565b346102995760403660031901126102995760c0611b89611b7b611bcf565b611b83611be5565b90612040565b6104ee604051809260a08091600180831b038151168452602081015160208501526040810151604085015260608101516060850152608081015160808501520151910152565b600435906001600160a01b038216820361029957565b602435906001600160a01b038216820361029957565b606081019081106001600160401b03821117611c1657604052565b634e487b7160e01b5f52604160045260245ffd5b608081019081106001600160401b03821117611c1657604052565b6101c081019081106001600160401b03821117611c1657604052565b6101a081019081106001600160401b03821117611c1657604052565b604081019081106001600160401b03821117611c1657604052565b60c081019081106001600160401b03821117611c1657604052565b61022081019081106001600160401b03821117611c1657604052565b90601f801991011681019081106001600160401b03821117611c1657604052565b6001600160401b038111611c165760051b60200190565b9080601f83011215610299578135611d1e81611cf0565b92611d2c6040519485611ccf565b81845260208085019260051b82010192831161029957602001905b828210611d545750505090565b8135815260209182019101611d47565b610200809160018060a01b0381511684526020810151602085015260408101516040850152606081015160608501526080810151608085015260a081015160a085015260c081015160c085015260e081015160e0850152610100810151610100850152610120810151151561012085015261014081015161014085015260018060a01b03610160820151166101608501526101808101516101808501526101a08101516101a08501526101c08101516101c08501526101e08101516101e08501520151910152565b9181601f84011215610299578235916001600160401b038311610299576020808501948460051b01011161029957565b90602080835192838152019201905f5b818110611e795750505090565b82516001600160a01b0316845260209384019390920191600101611e6c565b90602080835192838152019201905f5b818110611eb55750505090565b8251845260209384019390920191600101611ea8565b805180835260209291819084018484015e5f828201840152601f01601f1916010190565b9080602083519182815201916020808360051b8301019401925f915b838310611f1a57505050505090565b9091929394602080611f38600193601f198682030187528951611ecb565b97019301930191939290611f0b565b60405190611f5482611c98565b5f60a0838281528260208201528260408201528260608201528260808201520152565b6001600160401b038111611c1657601f01601f191660200190565b929192611f9e82611f77565b91611fac6040519384611ccf565b829481845281830111610299578281602093845f96015e010152565b9080601f83011215610299578151611fe292602001611f92565b90565b906020828203126102995781516001600160401b03811161029957611fe29201611fc8565b60405190612019604083611ccf565b60048252630c68aa8960e31b6020830152565b51906001600160a01b038216820361029957565b612048611f47565b506040516370a0823160e01b81526001600160a01b0392831660048201819052919092169190602082602481865afa9182156118f0575f92612309575b506040516305eff7ef60e21b8152600481018290526020816024815f885af19081156118f0575f916122d7575b50604051633af9e66960e01b815260048101839052906020826024815f895af19182156118f0575f926122a3575b506040516395d89b4160e01b81525f81600481895afa80156118f057612116915f91612281575b5061211061200a565b9061314d565b1561214c5782319231935b6040519561212e87611c98565b8652602086015260408501526060840152608083015260a082015290565b604051636f307dc360e01b8152602081600481895afa9081156118f0575f91612247575b506040516370a0823160e01b8152600481018590526001600160a01b039190911690602081602481855afa80156118f0575f90612214575b6020915094604460405180948193636eb1769f60e11b835260048301528a60248301525afa9081156118f0575f916121e2575b5093612121565b90506020813d60201161220c575b816121fd60209383611ccf565b8101031261029957515f6121db565b3d91506121f0565b506020813d60201161223f575b8161222e60209383611ccf565b8101031261029957602090516121a8565b3d9150612221565b90506020813d602011612279575b8161226260209383611ccf565b81010312610299576122739061202c565b5f612170565b3d9150612255565b61229d91503d805f833e6122958183611ccf565b810190611fe5565b5f612107565b9091506020813d6020116122cf575b816122bf60209383611ccf565b810103126102995751905f6120e0565b3d91506122b2565b90506020813d602011612301575b816122f260209383611ccf565b8101031261029957515f6120b2565b3d91506122e5565b9091506020813d602011612335575b8161232560209383611ccf565b810103126102995751905f612085565b3d9150612318565b6040519061234a82611c2a565b5f6060838281528260208201528260408201520152565b80518210156123755760209160051b010190565b634e487b7160e01b5f52603260045260245ffd5b5190811515820361029957565b519060ff8216820361029957565b51906001600160601b038216820361029957565b604051906123c582611cb3565b5f610200838281528260208201528260408201528260608201528260808201528260a08201528260c08201528260e08201528261010082015282610120820152826101408201528261016082015282610180820152826101a0820152826101c0820152826101e08201520152565b9081602091031261029957516001600160a01b03811681036102995790565b3d1561247c573d9061246382611f77565b916124716040519384611ccf565b82523d5f602084013e565b606090565b6124896123b8565b5060405163bd6d894d60e01b81526020816004815f6001600160a01b0387165af180156118f0575f60c052612d5a575b5060405163c423fe2960e01b81526020816004816001600160a01b0386165afa9081156118f0575f91612d2b575b5060408051638e8f294b60e01b81526001600160a01b03848116600483015292909216929082602481865afa9182156118f0575f905f93612cea575b506040516395d89b4160e01b81525f816004816001600160a01b0387165afa80156118f05761255b915f91612281575061211061200a565b15612b9d576012915f5b5f945f8060405160206125c4600482840160018060a01b038a16815283855261258f604086611ccf565b60405193849181830196630938c63d60e01b8852518091602485015e820101828101878152500301601f198101835282611ccf565b5190828b5af196876125d4612452565b90612b7f575b505f975f80604051602061263a600482840160018060a01b038c168152838552612605604086611ccf565b6040519384918183019663c6a0175960e01b8852518091602485015e820101828101878152500301601f198101835282611ccf565b519082865af1908161264a612452565b90612b61575b5015908115612b58575b50612abe575b5f8091816080526040518260206126c3600482850160018060a01b038c16815283865261268e604087611ccf565b6040519384918183019763252c221960e11b8952518091602485015e820101828101868152500301601f198101835282611ccf565b51925af16126cf612452565b90612aa0575b50604051630ae9d70b60e41b8152936020856004816001600160a01b0388165afa9485156118f0575f95612a6c575b50604051631f1f3b4560e31b8152946020866004816001600160a01b0389165afa9586156118f0575f96612a38575b506040516305cee64160e21b81526020816004816001600160a01b038a165afa9081156118f0575f91612a06575b506040516308f7a6e360e31b81526020816004816001600160a01b038b165afa9081156118f0575f916129d4575b50604051638f840ddd60e01b8152906020826004816001600160a01b038c165afa9182156118f0575f926129a0575b506040516318160ddd60e01b8152926020846004816001600160a01b038d165afa9384156118f0575f9461296c575b50604051631d8e90d160e11b81529960208b6004816001600160a01b038e165afa9586156118f0575f96612937575b60405163313ce56760e01b81529b5060208c6004816001600160a01b038f165afa9a8b156118f0575f9b6128fb575b60ff9c5060405160a05261286060a051611cb3565b60018060a01b031660a0515260c051602060a0510152604060a0510152606060a0510152608060a051015260a08051015260c060a051015260e060a051015261010060a0510152151561012060a051015261014060a051015260018060a01b031661016060a05101521661018060a05101526101a060a05101526101c060a05101526101e060a051015260805161020060a051015260a05190565b9a5060208c3d60201161292f575b8161291660209383611ccf565b810103126102995761292960ff9c612396565b9a61284b565b3d9150612909565b955060208b3d602011612964575b8161295260209383611ccf565b810103126102995760049a519561281c565b3d9150612945565b9093506020813d602011612998575b8161298860209383611ccf565b810103126102995751925f6127ed565b3d915061297b565b9091506020813d6020116129cc575b816129bc60209383611ccf565b810103126102995751905f6127be565b3d91506129af565b90506020813d6020116129fe575b816129ef60209383611ccf565b8101031261029957515f61278f565b3d91506129e2565b90506020813d602011612a30575b81612a2160209383611ccf565b8101031261029957515f612761565b3d9150612a14565b9095506020813d602011612a64575b81612a5460209383611ccf565b810103126102995751945f612733565b3d9150612a47565b9094506020813d602011612a98575b81612a8860209383611ccf565b810103126102995751935f612704565b3d9150612a7b565b6020815191818082019384920101031261029957516080525f6126d5565b5f806040516020612b1b600482840160018060a01b038b168152838552612ae6604086611ccf565b6040519384918183019663794595f560e01b8852518091602485015e820101828101878152500301601f198101835282611ccf565b519082855af1612b29612452565b90612b35575b50612660565b80519298509096506020808201928201919091031261029957519586955f612b2f565b9050155f61265a565b8051919a50602080820192820191909103126102995751985f612650565b8051919750602080820192820191909103126102995751955f6125da565b604051636f307dc360e01b81526020816004816001600160a01b0387165afa9081156118f0575f91612cb0575b50604051636f307dc360e01b81529092906020816004816001600160a01b0386165afa9081156118f0575f91612c71575b5060405163313ce56760e01b815290602090829060049082906001600160a01b03165afa80156118f0575f90612c37575b60ff91501692612565565b506020813d602011612c69575b81612c5160209383611ccf565b8101031261029957612c6460ff91612396565b612c2c565b3d9150612c44565b90506020813d602011612ca8575b81612c8c60209383611ccf565b81010312610299576020612ca160049261202c565b9150612bfb565b3d9150612c7f565b90506020813d602011612ce2575b81612ccb60209383611ccf565b8101031261029957612cdc9061202c565b5f612bca565b3d9150612cbe565b9250506040823d604011612d23575b81612d0660409383611ccf565b81010312610299576020612d1983612389565b920151915f612523565b3d9150612cf9565b612d4d915060203d602011612d53575b612d458183611ccf565b810190612433565b5f6124e7565b503d612d3b565b6020813d602011612d85575b81612d7360209383611ccf565b81010312610299575160c0525f6124b9565b3d9150612d66565b91908110156123755760051b0190565b356001600160a01b03811681036102995790565b6080818303126102995780516001600160401b03811161029957810182601f8201121561029957805190612de482611cf0565b91612df26040519384611ccf565b80835260208084019160051b8301019185831161029957602001905b828210612fbd575050509260208201516001600160401b03811161029957820183601f8201121561029957805190612e4582611cf0565b91612e536040519384611ccf565b80835260208084019160051b8301019186831161029957602001905b828210612fad575050509260408301516001600160401b03811161029957830181601f82011215610299578051612ea581611cf0565b91612eb36040519384611ccf565b81835260208084019260051b820101918483116102995760208201905b838210612f805750505050926060810151906001600160401b038211610299570181601f8201121561029957805190612f0882611cf0565b92612f166040519485611ccf565b82845260208085019360051b830101918183116102995760208101935b838510612f4257505050505090565b84516001600160401b03811161029957820183603f8201121561029957602091612f758583604086809601519101611f92565b815201940193612f33565b81516001600160401b03811161029957602091612fa288848094880101611fc8565b815201910190612ed0565b8151815260209182019101612e6f565b60208091612fca8461202c565b815201910190612e0e565b60405190612fe282611c7d565b5f6020838281520152565b612ff5612fd5565b5060405163c423fe2960e01b81526001600160a01b039190911690602081600481855afa9081156118f0576004916020915f9161311f575b506040516307dc0d1d60e41b815292839182906001600160a01b03165afa9081156118f0575f916130dc575b5060405163fc57d4df60e01b81526004810183905290602090829060249082906001600160a01b03165afa9081156118f0575f916130aa575b50604051916130a083611c7d565b8252602082015290565b90506020813d6020116130d4575b816130c560209383611ccf565b8101031261029957515f613092565b3d91506130b8565b90506020813d602011613117575b816130f760209383611ccf565b8101031261029957516001600160a01b0381168103610299576020613059565b3d91506130ea565b6131369150823d8411612d5357612d458183611ccf565b5f61302d565b3563ffffffff811681036102995790565b6040516131796020828180820195805191829101875e81015f838201520301601f198101835282611ccf565b519020906040516131a96020828180820195805191829101875e81015f838201520301601f198101835282611ccf565b5190201490565b156131b85750565b60405162461bcd60e51b8152602060048201529081906131dc906024830190611ecb565b0390fdfea26469706673582212205dc851455c7ce76163de1a295c75acad784263992677a0ba936195acd853948464736f6c634300081c0033","linkReferences":{}},"methodIdentifiers":{"getAccountLimits(address,address)":"7dd8f6d9","getGovBravoProposals(address,uint256[])":"75d80e90","getGovBravoReceipts(address,address,uint256[])":"43c811cc","getGovProposals(address,uint256[])":"96994869","getGovReceipts(address,address,uint256[])":"995ed99f","getPeridotBalanceMetadata(address,address)":"f321f3ba","getPeridotBalanceMetadataExt(address,address,address)":"5ed5ab08","getPeridotVotes(address,address,uint32[])":"e1c25304","pTokenBalances(address,address)":"0632c18a","pTokenBalancesAll(address[],address)":"bb8fb2d2","pTokenMetadata(address)":"57e9ccaf","pTokenMetadataAll(address[])":"6c7109fc","pTokenUnderlyingPrice(address)":"def0ab0c","pTokenUnderlyingPriceAll(address[])":"d8821396"},"id":20}