{"abi":[{"type":"constructor","inputs":[{"name":"baseRatePerYear","type":"uint256","internalType":"uint256"},{"name":"multiplierPerYear","type":"uint256","internalType":"uint256"},{"name":"jumpMultiplierPerYear","type":"uint256","internalType":"uint256"},{"name":"kink_","type":"uint256","internalType":"uint256"},{"name":"owner_","type":"address","internalType":"address"}],"stateMutability":"nonpayable"},{"type":"function","name":"baseRatePerBlock","inputs":[],"outputs":[{"name":"","type":"uint256","internalType":"uint256"}],"stateMutability":"view"},{"type":"function","name":"blocksPerYear","inputs":[],"outputs":[{"name":"","type":"uint256","internalType":"uint256"}],"stateMutability":"view"},{"type":"function","name":"getBorrowRate","inputs":[{"name":"cash","type":"uint256","internalType":"uint256"},{"name":"borrows","type":"uint256","internalType":"uint256"},{"name":"reserves","type":"uint256","internalType":"uint256"}],"outputs":[{"name":"","type":"uint256","internalType":"uint256"}],"stateMutability":"view"},{"type":"function","name":"getSupplyRate","inputs":[{"name":"cash","type":"uint256","internalType":"uint256"},{"name":"borrows","type":"uint256","internalType":"uint256"},{"name":"reserves","type":"uint256","internalType":"uint256"},{"name":"reserveFactorMantissa","type":"uint256","internalType":"uint256"}],"outputs":[{"name":"","type":"uint256","internalType":"uint256"}],"stateMutability":"view"},{"type":"function","name":"isInterestRateModel","inputs":[],"outputs":[{"name":"","type":"bool","internalType":"bool"}],"stateMutability":"view"},{"type":"function","name":"jumpMultiplierPerBlock","inputs":[],"outputs":[{"name":"","type":"uint256","internalType":"uint256"}],"stateMutability":"view"},{"type":"function","name":"kink","inputs":[],"outputs":[{"name":"","type":"uint256","internalType":"uint256"}],"stateMutability":"view"},{"type":"function","name":"multiplierPerBlock","inputs":[],"outputs":[{"name":"","type":"uint256","internalType":"uint256"}],"stateMutability":"view"},{"type":"function","name":"owner","inputs":[],"outputs":[{"name":"","type":"address","internalType":"address"}],"stateMutability":"view"},{"type":"function","name":"updateJumpRateModel","inputs":[{"name":"baseRatePerYear","type":"uint256","internalType":"uint256"},{"name":"multiplierPerYear","type":"uint256","internalType":"uint256"},{"name":"jumpMultiplierPerYear","type":"uint256","internalType":"uint256"},{"name":"kink_","type":"uint256","internalType":"uint256"}],"outputs":[],"stateMutability":"nonpayable"},{"type":"function","name":"utilizationRate","inputs":[{"name":"cash","type":"uint256","internalType":"uint256"},{"name":"borrows","type":"uint256","internalType":"uint256"},{"name":"reserves","type":"uint256","internalType":"uint256"}],"outputs":[{"name":"","type":"uint256","internalType":"uint256"}],"stateMutability":"pure"},{"type":"event","name":"NewInterestParams","inputs":[{"name":"baseRatePerBlock","type":"uint256","indexed":false,"internalType":"uint256"},{"name":"multiplierPerBlock","type":"uint256","indexed":false,"internalType":"uint256"},{"name":"jumpMultiplierPerBlock","type":"uint256","indexed":false,"internalType":"uint256"},{"name":"kink","type":"uint256","indexed":false,"internalType":"uint256"}],"anonymous":false}],"bytecode":{"object":"0x60803461014057601f6105f638819003918201601f19168301916001600160401b038311848410176101445780849260a094604052833981010312610140578051602082015191604081015191608060608301519201519060018060a01b03821680920361014057622014809160018060a01b03195f5416175f55049081600255670de0b6b3a7640000840293808504670de0b6b3a7640000149015171561012c5780622014800292622014808404820361012c57831561011857622014806080947f6960ab234c7ef4b0c9197100f5393cfcde7c453ac910a27bd2000aa1dd4c068d9604918260015504908160035582600455604051938452602084015260408301526060820152a160405161049d90816101598239f35b634e487b7160e01b5f52601260045260245ffd5b634e487b7160e01b5f52601160045260245ffd5b5f80fd5b634e487b7160e01b5f52604160045260245ffdfe60806040526004361015610011575f80fd5b5f3560e01c806315f240531461030f5780632037f3e7146102015780632191f92a146101e65780636e71e2d8146101c55780638726bb89146101a85780638da5cb5b14610181578063a385fb9614610164578063b8168816146100ed578063b9f9850a146100d0578063f14039de146100b35763fd2da33914610092575f80fd5b346100af575f3660031901126100af576020600454604051908152f35b5f80fd5b346100af575f3660031901126100af576020600254604051908152f35b346100af575f3660031901126100af576020600354604051908152f35b346100af576100fb36610342565b670de0b6b3a76400009291920392670de0b6b3a764000084116101505761013b8383670de0b6b3a764000061014060209861013b839961014799896103f5565b610360565b04936103ab565b04604051908152f35b634e487b7160e01b5f52601160045260245ffd5b346100af575f3660031901126100af576020604051622014808152f35b346100af575f3660031901126100af575f546040516001600160a01b039091168152602090f35b346100af575f3660031901126100af576020600154604051908152f35b346100af5760206101de6101d836610328565b916103ab565b604051908152f35b346100af575f3660031901126100af57602060405160018152f35b346100af5761020f36610342565b5f54919390916001600160a01b031633036102bb576220148090049081600255670de0b6b3a7640000830292808404670de0b6b3a764000014901517156101505780622014800293622014808504820361015057622014806102947f6960ab234c7ef4b0c9197100f5393cfcde7c453ac910a27bd2000aa1dd4c068d9660809661038d565b918260015504908160035582600455604051938452602084015260408301526060820152a1005b60405162461bcd60e51b815260206004820152602660248201527f6f6e6c7920746865206f776e6572206d61792063616c6c20746869732066756e60448201526531ba34b7b71760d11b6064820152608490fd5b346100af5760206101de61032236610328565b916103f5565b60609060031901126100af57600435906024359060443590565b60809060031901126100af5760043590602435906044359060643590565b8181029291811591840414171561015057565b9190820180921161015057565b9190820391821161015057565b8115610397570490565b634e487b7160e01b5f52601260045260245ffd5b919080156103ee57670de0b6b3a7640000810291818304670de0b6b3a764000003610150576103e06103e5926103eb95610373565b610380565b9061038d565b90565b5050505f90565b9061040092916103ab565b60045480821161042e5750670de0b6b3a76400006104246103eb9260015490610360565b0460025490610373565b90670de0b6b3a76400006104616104586103eb946104528461042460015484610360565b94610380565b60035490610360565b0461037356fea2646970667358221220afe29ebdcdc59316451986eeaa51b8dbb8de0fa3f602b305abc8119a9f5a5b6e64736f6c634300081c0033","linkReferences":{}},"methodIdentifiers":{"baseRatePerBlock()":"f14039de","blocksPerYear()":"a385fb96","getBorrowRate(uint256,uint256,uint256)":"15f24053","getSupplyRate(uint256,uint256,uint256,uint256)":"b8168816","isInterestRateModel()":"2191f92a","jumpMultiplierPerBlock()":"b9f9850a","kink()":"fd2da339","multiplierPerBlock()":"8726bb89","owner()":"8da5cb5b","updateJumpRateModel(uint256,uint256,uint256,uint256)":"2037f3e7","utilizationRate(uint256,uint256,uint256)":"6e71e2d8"},"id":11}