{"abi":[{"type":"constructor","inputs":[{"name":"_admin","type":"address","internalType":"address"}],"stateMutability":"nonpayable"},{"type":"function","name":"MAX_STALENESS","inputs":[],"outputs":[{"name":"","type":"uint256","internalType":"uint256"}],"stateMutability":"view"},{"type":"function","name":"PRICE_SCALE","inputs":[],"outputs":[{"name":"","type":"uint256","internalType":"uint256"}],"stateMutability":"view"},{"type":"function","name":"admin","inputs":[],"outputs":[{"name":"","type":"address","internalType":"address"}],"stateMutability":"view"},{"type":"function","name":"fallbackOracle","inputs":[],"outputs":[{"name":"","type":"address","internalType":"contract PriceOracle"}],"stateMutability":"view"},{"type":"function","name":"getPriceFeedInfo","inputs":[{"name":"pToken","type":"address","internalType":"address"}],"outputs":[{"name":"priceFeed","type":"address","internalType":"address"},{"name":"decimals","type":"uint8","internalType":"uint8"},{"name":"description","type":"string","internalType":"string"}],"stateMutability":"view"},{"type":"function","name":"getUnderlyingPrice","inputs":[{"name":"pToken","type":"address","internalType":"contract PToken"}],"outputs":[{"name":"","type":"uint256","internalType":"uint256"}],"stateMutability":"view"},{"type":"function","name":"hasPriceFeed","inputs":[{"name":"pToken","type":"address","internalType":"address"}],"outputs":[{"name":"","type":"bool","internalType":"bool"}],"stateMutability":"view"},{"type":"function","name":"isPriceOracle","inputs":[],"outputs":[{"name":"","type":"bool","internalType":"bool"}],"stateMutability":"view"},{"type":"function","name":"priceFeeds","inputs":[{"name":"","type":"address","internalType":"address"}],"outputs":[{"name":"","type":"address","internalType":"contract AggregatorV3Interface"}],"stateMutability":"view"},{"type":"function","name":"removePriceFeed","inputs":[{"name":"_pToken","type":"address","internalType":"address"}],"outputs":[],"stateMutability":"nonpayable"},{"type":"function","name":"setFallbackOracle","inputs":[{"name":"_fallbackOracle","type":"address","internalType":"address"}],"outputs":[],"stateMutability":"nonpayable"},{"type":"function","name":"setPriceFeed","inputs":[{"name":"_pToken","type":"address","internalType":"address"},{"name":"_priceFeed","type":"address","internalType":"address"}],"outputs":[],"stateMutability":"nonpayable"},{"type":"function","name":"transferAdmin","inputs":[{"name":"newAdmin","type":"address","internalType":"address"}],"outputs":[],"stateMutability":"nonpayable"},{"type":"event","name":"FallbackOracleSet","inputs":[{"name":"fallbackOracle","type":"address","indexed":true,"internalType":"address"}],"anonymous":false},{"type":"event","name":"PriceFeedRemoved","inputs":[{"name":"pToken","type":"address","indexed":true,"internalType":"address"}],"anonymous":false},{"type":"event","name":"PriceFeedSet","inputs":[{"name":"pToken","type":"address","indexed":true,"internalType":"address"},{"name":"priceFeed","type":"address","indexed":true,"internalType":"address"}],"anonymous":false}],"bytecode":{"object":"0x6080604052348015600e575f5ffd5b50604051610cf9380380610cf9833981016040819052602b91604f565b600280546001600160a01b0319166001600160a01b0392909216919091179055607a565b5f60208284031215605e575f5ffd5b81516001600160a01b03811681146073575f5ffd5b9392505050565b610c72806100875f395ff3fe608060405234801561000f575f5ffd5b50600436106100cb575f3560e01c806376e1128611610088578063caca95a411610063578063caca95a4146101e3578063f851a440146101ec578063fc57d4df146101ff578063fceb002414610212575f5ffd5b806376e112861461018e5780639dcb511a146101a1578063c33f59d3146101c9575f5ffd5b80630b7983a2146100cf578063170aee73146101115780633029c35c14610126578063629838e51461014857806366331bba1461017357806375829def1461017b575b5f5ffd5b6100fc6100dd3660046108a1565b6001600160a01b039081165f9081526020819052604090205416151590565b60405190151581526020015b60405180910390f35b61012461011f3660046108a1565b610225565b005b6101396101343660046108a1565b6102a1565b604051610108939291906108c3565b60015461015b906001600160a01b031681565b6040516001600160a01b039091168152602001610108565b6100fc600181565b6101246101893660046108a1565b6103cf565b61012461019c366004610911565b610469565b61015b6101af3660046108a1565b5f602081905290815260409020546001600160a01b031681565b6101d56402540be40081565b604051908152602001610108565b6101d5610e1081565b60025461015b906001600160a01b031681565b6101d561020d3660046108a1565b61058e565b6101246102203660046108a1565b610649565b6002546001600160a01b031633146102585760405162461bcd60e51b815260040161024f90610948565b60405180910390fd5b600180546001600160a01b0319166001600160a01b0383169081179091556040517fef21cd88756d665855f56a2652b7eda229d6f3102988a95975e46964d24d478a905f90a250565b6001600160a01b038082165f908152602081905260408120549091829160609116806102e257505060408051602081019091525f80825292508291506103c8565b806001600160a01b031663313ce5676040518163ffffffff1660e01b8152600401602060405180830381865afa92505050801561033c575060408051601f3d908101601f1916820190925261033991810190610989565b60015b610348575f925061034b565b92505b806001600160a01b0316637284e4166040518163ffffffff1660e01b81526004015f60405180830381865afa9250505080156103a857506040513d5f823e601f3d908101601f191682016040526103a591908101906109bd565b60015b6103c25760405180602001604052805f81525091506103c5565b91505b92505b9193909250565b6002546001600160a01b031633146103f95760405162461bcd60e51b815260040161024f90610948565b6001600160a01b0381166104475760405162461bcd60e51b8152602060048201526015602482015274496e76616c69642061646d696e206164647265737360581b604482015260640161024f565b600280546001600160a01b0319166001600160a01b0392909216919091179055565b6002546001600160a01b031633146104935760405162461bcd60e51b815260040161024f90610948565b6001600160a01b0382166104e25760405162461bcd60e51b8152602060048201526016602482015275496e76616c69642070546f6b656e206164647265737360501b604482015260640161024f565b6001600160a01b0381166105385760405162461bcd60e51b815260206004820152601a60248201527f496e76616c696420707269636520666565642061646472657373000000000000604482015260640161024f565b6001600160a01b038281165f8181526020819052604080822080546001600160a01b0319169486169485179055517fd2d8394cf7549a5ddbc2ba3dd7b2de8d53c891472d1f2907008ed6a10045fdae9190a35050565b6001600160a01b038082165f90815260208190526040812054909183911680156105c3576105bb81610710565b949350505050565b6001546001600160a01b0316156106405760015460405163fc57d4df60e01b81526001600160a01b0386811660048301529091169063fc57d4df90602401602060405180830381865afa15801561061c573d5f5f3e3d5ffd5b505050506040513d601f19601f820116820180604052508101906105bb9190610a70565b505f9392505050565b6002546001600160a01b031633146106735760405162461bcd60e51b815260040161024f90610948565b6001600160a01b0381166106c25760405162461bcd60e51b8152602060048201526016602482015275496e76616c69642070546f6b656e206164647265737360501b604482015260640161024f565b6001600160a01b0381165f8181526020819052604080822080546001600160a01b0319169055517ffd58461c4683df397133c7e91fe2aa71559919b405f9e09c9c3af7e875f54e3b9190a250565b5f816001600160a01b031663feaf968c6040518163ffffffff1660e01b815260040160a060405180830381865afa92505050801561076b575060408051601f3d908101601f1916820190925261076891810190610aa0565b60015b61077657505f919050565b5f841361078957505f9695505050505050565b610e106107968342610b02565b11156107a857505f9695505050505050565b8115806107bf575069ffffffffffffffffffff8516155b806107e157508469ffffffffffffffffffff168169ffffffffffffffffffff16105b156107f257505f9695505050505050565b5f876001600160a01b031663313ce5676040518163ffffffff1660e01b8152600401602060405180830381865afa15801561082f573d5f5f3e3d5ffd5b505050506040513d601f19601f820116820180604052508101906108539190610989565b90505f610861826012610b1b565b61086c90600a610c17565b90506108788187610c25565b9998505050505050505050565b919050565b6001600160a01b038116811461089e575f5ffd5b50565b5f602082840312156108b1575f5ffd5b81356108bc8161088a565b9392505050565b60018060a01b038416815260ff83166020820152606060408201525f82518060608401528060208501608085015e5f608082850101526080601f19601f830116840101915050949350505050565b5f5f60408385031215610922575f5ffd5b823561092d8161088a565b9150602083013561093d8161088a565b809150509250929050565b60208082526021908201527f4f6e6c792061646d696e2063616e2063616c6c20746869732066756e6374696f6040820152603760f91b606082015260800190565b5f60208284031215610999575f5ffd5b815160ff811681146108bc575f5ffd5b634e487b7160e01b5f52604160045260245ffd5b5f602082840312156109cd575f5ffd5b815167ffffffffffffffff8111156109e3575f5ffd5b8201601f810184136109f3575f5ffd5b805167ffffffffffffffff811115610a0d57610a0d6109a9565b604051601f8201601f19908116603f0116810167ffffffffffffffff81118282101715610a3c57610a3c6109a9565b604052818152828201602001861015610a53575f5ffd5b8160208401602083015e5f91810160200191909152949350505050565b5f60208284031215610a80575f5ffd5b5051919050565b805169ffffffffffffffffffff81168114610885575f5ffd5b5f5f5f5f5f60a08688031215610ab4575f5ffd5b610abd86610a87565b60208701516040880151606089015192975090955093509150610ae260808701610a87565b90509295509295909350565b634e487b7160e01b5f52601160045260245ffd5b81810381811115610b1557610b15610aee565b92915050565b60ff8281168282160390811115610b1557610b15610aee565b6001815b6001841115610b6f57808504811115610b5357610b53610aee565b6001841615610b6157908102905b60019390931c928002610b38565b935093915050565b5f82610b8557506001610b15565b81610b9157505f610b15565b8160018114610ba75760028114610bb157610bcd565b6001915050610b15565b60ff841115610bc257610bc2610aee565b50506001821b610b15565b5060208310610133831016604e8410600b8410161715610bf0575081810a610b15565b610bfc5f198484610b34565b805f1904821115610c0f57610c0f610aee565b029392505050565b5f6108bc60ff841683610b77565b8082028115828204841417610b1557610b15610aee56fea2646970667358221220affc2b95979d16dd75b02ab3405e6add29132c518256b5420324dc5e6fe8944c64736f6c634300081b0033","linkReferences":{}},"methodIdentifiers":{"MAX_STALENESS()":"caca95a4","PRICE_SCALE()":"c33f59d3","admin()":"f851a440","fallbackOracle()":"629838e5","getPriceFeedInfo(address)":"3029c35c","getUnderlyingPrice(address)":"fc57d4df","hasPriceFeed(address)":"0b7983a2","isPriceOracle()":"66331bba","priceFeeds(address)":"9dcb511a","removePriceFeed(address)":"fceb0024","setFallbackOracle(address)":"170aee73","setPriceFeed(address,address)":"76e11286","transferAdmin(address)":"75829def"},"id":9}