{"abi":[{"type":"constructor","inputs":[{"name":"_admin","type":"address","internalType":"address"}],"stateMutability":"nonpayable"},{"type":"function","name":"MAX_STALENESS","inputs":[],"outputs":[{"name":"","type":"uint256","internalType":"uint256"}],"stateMutability":"view"},{"type":"function","name":"PRICE_SCALE","inputs":[],"outputs":[{"name":"","type":"uint256","internalType":"uint256"}],"stateMutability":"view"},{"type":"function","name":"admin","inputs":[],"outputs":[{"name":"","type":"address","internalType":"address"}],"stateMutability":"view"},{"type":"function","name":"fallbackOracle","inputs":[],"outputs":[{"name":"","type":"address","internalType":"contract PriceOracle"}],"stateMutability":"view"},{"type":"function","name":"getPriceFeedInfo","inputs":[{"name":"pToken","type":"address","internalType":"address"}],"outputs":[{"name":"priceFeed","type":"address","internalType":"address"},{"name":"decimals","type":"uint8","internalType":"uint8"},{"name":"description","type":"string","internalType":"string"}],"stateMutability":"view"},{"type":"function","name":"getUnderlyingPrice","inputs":[{"name":"pToken","type":"address","internalType":"contract PToken"}],"outputs":[{"name":"","type":"uint256","internalType":"uint256"}],"stateMutability":"view"},{"type":"function","name":"hasPriceFeed","inputs":[{"name":"pToken","type":"address","internalType":"address"}],"outputs":[{"name":"","type":"bool","internalType":"bool"}],"stateMutability":"view"},{"type":"function","name":"isPriceOracle","inputs":[],"outputs":[{"name":"","type":"bool","internalType":"bool"}],"stateMutability":"view"},{"type":"function","name":"priceFeeds","inputs":[{"name":"","type":"address","internalType":"address"}],"outputs":[{"name":"","type":"address","internalType":"contract AggregatorV3Interface"}],"stateMutability":"view"},{"type":"function","name":"removePriceFeed","inputs":[{"name":"_pToken","type":"address","internalType":"address"}],"outputs":[],"stateMutability":"nonpayable"},{"type":"function","name":"setFallbackOracle","inputs":[{"name":"_fallbackOracle","type":"address","internalType":"address"}],"outputs":[],"stateMutability":"nonpayable"},{"type":"function","name":"setPriceFeed","inputs":[{"name":"_pToken","type":"address","internalType":"address"},{"name":"_priceFeed","type":"address","internalType":"address"}],"outputs":[],"stateMutability":"nonpayable"},{"type":"function","name":"transferAdmin","inputs":[{"name":"newAdmin","type":"address","internalType":"address"}],"outputs":[],"stateMutability":"nonpayable"},{"type":"event","name":"FallbackOracleSet","inputs":[{"name":"fallbackOracle","type":"address","indexed":true,"internalType":"address"}],"anonymous":false},{"type":"event","name":"PriceFeedRemoved","inputs":[{"name":"pToken","type":"address","indexed":true,"internalType":"address"}],"anonymous":false},{"type":"event","name":"PriceFeedSet","inputs":[{"name":"pToken","type":"address","indexed":true,"internalType":"address"},{"name":"priceFeed","type":"address","indexed":true,"internalType":"address"}],"anonymous":false}],"bytecode":{"object":"0x608034607057601f610a6138819003918201601f19168301916001600160401b03831184841017607457808492602094604052833981010312607057516001600160a01b03811690819003607057600280546001600160a01b0319169190911790556040516109d890816100898239f35b5f80fd5b634e487b7160e01b5f52604160045260245ffdfe6080806040526004361015610012575f80fd5b5f3560e01c9081630b7983a2146104aa57508063170aee73146104375780633029c35c146103cc578063629838e5146103a457806366331bba1461038957806375829def146102fb57806376e11286146102105780639dcb511a146101d1578063c33f59d3146101b2578063caca95a414610196578063f851a4401461016e578063fc57d4df146101375763fceb0024146100ab575f80fd5b34610133576020366003190112610133576100c46104ea565b6100d960018060a01b03600254163314610500565b6001600160a01b03166100ed811515610708565b805f525f60205260405f206bffffffffffffffffffffffff60a01b81541690557ffd58461c4683df397133c7e91fe2aa71559919b405f9e09c9c3af7e875f54e3b5f80a2005b5f80fd5b34610133576020366003190112610133576004356001600160a01b03811681036101335761016660209161074d565b604051908152f35b34610133575f366003190112610133576002546040516001600160a01b039091168152602090f35b34610133575f366003190112610133576020604051610e108152f35b34610133575f3660031901126101335760206040516402540be4008152f35b34610133576020366003190112610133576001600160a01b036101f26104ea565b165f525f602052602060018060a01b0360405f205416604051908152f35b34610133576040366003190112610133576102296104ea565b6024356001600160a01b03811691908290036101335761025460018060a01b03600254163314610500565b6001600160a01b0316610268811515610708565b81156102b657805f525f60205260405f20826bffffffffffffffffffffffff60a01b8254161790557fd2d8394cf7549a5ddbc2ba3dd7b2de8d53c891472d1f2907008ed6a10045fdae5f80a3005b60405162461bcd60e51b815260206004820152601a60248201527f496e76616c6964207072696365206665656420616464726573730000000000006044820152606490fd5b34610133576020366003190112610133576103146104ea565b6002549061032c336001600160a01b03841614610500565b6001600160a01b031690811561034c576001600160a01b03191617600255005b60405162461bcd60e51b8152602060048201526015602482015274496e76616c69642061646d696e206164647265737360581b6044820152606490fd5b34610133575f36600319011261013357602060405160018152f35b34610133575f366003190112610133576001546040516001600160a01b039091168152602090f35b3461013357602036600319011261013357602060806103f16103ec6104ea565b6105a5565b60ff60409592955195869460018060a01b031685521682840152606060408401528051918291826060860152018484015e5f828201840152601f01601f19168101030190f35b34610133576020366003190112610133576104506104ea565b61046560018060a01b03600254163314610500565b600180546001600160a01b0319166001600160a01b039290921691821790557fef21cd88756d665855f56a2652b7eda229d6f3102988a95975e46964d24d478a5f80a2005b34610133576020366003190112610133576020906001600160a01b036104ce6104ea565b165f90815280835260409020546001600160a01b031615158152f35b600435906001600160a01b038216820361013357565b1561050757565b60405162461bcd60e51b815260206004820152602160248201527f4f6e6c792061646d696e2063616e2063616c6c20746869732066756e6374696f6044820152603760f91b6064820152608490fd5b90601f8019910116810190811067ffffffffffffffff82111761057857604052565b634e487b7160e01b5f52604160045260245ffd5b90816020910312610133575160ff811681036101335790565b6001600160a01b039081165f908152602081905260409020541680156106ef5760405163313ce56760e01b8152602081600481855afa5f91816106be575b506106b857505f915b604051633942720b60e11b81525f81600481865afa5f918161062c575b50610626575060405161061d602082610556565b5f815291929190565b91929190565b9091503d805f833e61063e8183610556565b8101906020818303126101335780519067ffffffffffffffff8211610133570181601f820112156101335780519067ffffffffffffffff82116105785760405192610693601f8401601f191660200185610556565b8284526020838301011161013357815f9260208093018386015e83010152905f610609565b916105ec565b6106e191925060203d6020116106e8575b6106d98183610556565b81019061058c565b905f6105e3565b503d6106cf565b505f905f90604051610702602082610556565b5f815290565b1561070f57565b60405162461bcd60e51b8152602060048201526016602482015275496e76616c69642070546f6b656e206164647265737360501b6044820152606490fd5b6001600160a01b039081165f81815260208190526040902054909116806107ef57506001546001600160a01b031690816107875750505f90565b60209060246040518094819363fc57d4df60e01b835260048301525afa9081156107e4575f916107b5575090565b90506020813d6020116107dc575b816107d060209383610556565b81010312610133575190565b3d91506107c3565b6040513d5f823e3d90fd5b6107f99150610813565b90565b519069ffffffffffffffffffff8216820361013357565b604051633fabe5a360e21b8152906001600160a01b031660a082600481845afa5f905f93815f915f93610947575b5061084f5750505050505f90565b5f85131561093e578042034281116108d657610e101061093e5715918215610929575b821561090f575b50506109095760206004916040519283809263313ce56760e01b82525afa80156107e45760ff915f916108ea575b501660120360ff81116108d65760ff16604d81116108d657600a0a908181029181830414901517156108d65790565b634e487b7160e01b5f52601160045260245ffd5b610903915060203d6020116106e8576106d98183610556565b5f6108a7565b50505f90565b69ffffffffffffffffffff91925081169116105f80610879565b69ffffffffffffffffffff8116159250610872565b50505050505f90565b95509250505060a0833d60a01161099a575b8161096660a09383610556565b8101031261013357610977836107fc565b9060208401519161098f6080606087015196016107fc565b90929490915f610841565b3d915061095956fea2646970667358221220e8c3aed88c118c934aff6bf9ed4c56a70864d42959b6e8f54cf03a4f7e87220964736f6c634300081b0033","linkReferences":{}},"methodIdentifiers":{"MAX_STALENESS()":"caca95a4","PRICE_SCALE()":"c33f59d3","admin()":"f851a440","fallbackOracle()":"629838e5","getPriceFeedInfo(address)":"3029c35c","getUnderlyingPrice(address)":"fc57d4df","hasPriceFeed(address)":"0b7983a2","isPriceOracle()":"66331bba","priceFeeds(address)":"9dcb511a","removePriceFeed(address)":"fceb0024","setFallbackOracle(address)":"170aee73","setPriceFeed(address,address)":"76e11286","transferAdmin(address)":"75829def"},"id":39}