{"abi":[{"type":"constructor","inputs":[],"stateMutability":"nonpayable"},{"type":"fallback","stateMutability":"payable"},{"type":"function","name":"_acceptAdmin","inputs":[],"outputs":[{"name":"","type":"uint256","internalType":"uint256"}],"stateMutability":"nonpayable"},{"type":"function","name":"_acceptImplementation","inputs":[],"outputs":[{"name":"","type":"uint256","internalType":"uint256"}],"stateMutability":"nonpayable"},{"type":"function","name":"_setPendingAdmin","inputs":[{"name":"newPendingAdmin","type":"address","internalType":"address"}],"outputs":[{"name":"","type":"uint256","internalType":"uint256"}],"stateMutability":"nonpayable"},{"type":"function","name":"_setPendingImplementation","inputs":[{"name":"newPendingImplementation","type":"address","internalType":"address"}],"outputs":[{"name":"","type":"uint256","internalType":"uint256"}],"stateMutability":"nonpayable"},{"type":"function","name":"admin","inputs":[],"outputs":[{"name":"","type":"address","internalType":"address"}],"stateMutability":"view"},{"type":"function","name":"pendingAdmin","inputs":[],"outputs":[{"name":"","type":"address","internalType":"address"}],"stateMutability":"view"},{"type":"function","name":"pendingPeridottrollerImplementation","inputs":[],"outputs":[{"name":"","type":"address","internalType":"address"}],"stateMutability":"view"},{"type":"function","name":"peridottrollerImplementation","inputs":[],"outputs":[{"name":"","type":"address","internalType":"address"}],"stateMutability":"view"},{"type":"event","name":"Failure","inputs":[{"name":"error","type":"uint256","indexed":false,"internalType":"uint256"},{"name":"info","type":"uint256","indexed":false,"internalType":"uint256"},{"name":"detail","type":"uint256","indexed":false,"internalType":"uint256"}],"anonymous":false},{"type":"event","name":"NewAdmin","inputs":[{"name":"oldAdmin","type":"address","indexed":false,"internalType":"address"},{"name":"newAdmin","type":"address","indexed":false,"internalType":"address"}],"anonymous":false},{"type":"event","name":"NewImplementation","inputs":[{"name":"oldImplementation","type":"address","indexed":false,"internalType":"address"},{"name":"newImplementation","type":"address","indexed":false,"internalType":"address"}],"anonymous":false},{"type":"event","name":"NewPendingAdmin","inputs":[{"name":"oldPendingAdmin","type":"address","indexed":false,"internalType":"address"},{"name":"newPendingAdmin","type":"address","indexed":false,"internalType":"address"}],"anonymous":false},{"type":"event","name":"NewPendingImplementation","inputs":[{"name":"oldPendingImplementation","type":"address","indexed":false,"internalType":"address"},{"name":"newPendingImplementation","type":"address","indexed":false,"internalType":"address"}],"anonymous":false}],"bytecode":{"object":"0x608080604052346026575f80546001600160a01b031916331790556105c2908161002b8239f35b5f80fdfe6080604052600436106104e4575f3560e01c806318f1408d1461008b57806326782247146100865780637c8f3a6714610081578063b71d1a0c1461007c578063c1e8033414610077578063e992a04114610072578063e9c714f21461006d5763f851a440036104e457610193565b610179565b610161565b610147565b610127565b6100dd565b6100b5565b346100b1575f3660031901126100b1576002546001600160a01b03166080908152602090f35b5f80fd5b346100b1575f3660031901126100b1576001546040516001600160a01b039091168152602090f35b346100b1575f3660031901126100b1576003546040516001600160a01b039091168152602090f35b60209060031901126100b1576004356001600160a01b03811681036100b15790565b346100b157602061013f61013a36610105565b6101ba565b604051908152f35b346100b1575f3660031901126100b157602061013f610256565b346100b157602061013f61017436610105565b610359565b346100b1575f3660031901126100b157602061013f6103f2565b346100b1575f3660031901126100b1575f546040516001600160a01b039091168152602090f35b5f546001600160a01b0316330361022b57600180546001600160a01b039283166001600160a01b0319821681179092556040805193909116835260208301919091527fca4f2f25d0898edd99413412fb94012f9e54ec8142f9b093e7720646a95b16a99190819081015b0390a15f90565b505f51602061056d5f395f51905f52606060405160018152600e60208201525f6040820152a1600190565b6003546001600160a01b03163381148015908290610350575b5061032557600280546001600160a01b03198082166001600160a01b03858116918217909455600380549092169091556040805193909216835260208301527fe945ccee5d701fc83f9b8aa8ca94ea4219ec1fcbd4f4cab4f0ea57c5c3e1d81592917fd604de94d45953f9138079ec1b82d533cb2160c906d1076d1f7ed54befbca97a9190a16003546001600160a01b03165b604080516001600160a01b03938416815292909116602083015281908101610224565b505f51602061056d5f395f51905f52606060405160018152600160208201525f6040820152a1600190565b9050155f61026f565b5f546001600160a01b031633036103c757600380546001600160a01b039283166001600160a01b0319821681179092556040805193909116835260208301919091527fe945ccee5d701fc83f9b8aa8ca94ea4219ec1fcbd4f4cab4f0ea57c5c3e1d815919081908101610224565b505f51602061056d5f395f51905f52606060405160018152600f60208201525f6040820152a1600190565b600154336001600160a01b038216148015906104c8575b61049e575f80546001600160a01b03198082166001600160a01b0394851690811790935560018054909116905560408051939091168352602083018290527fca4f2f25d0898edd99413412fb94012f9e54ec8142f9b093e7720646a95b16a9927ff9ffabca9c8276e99321725bcb43fb076a6c66a54b7f21c4e8146d8519b417dc9190a16001546001600160a01b0316610302565b505f51602061056d5f395f51905f526060604051600181525f60208201525f6040820152a1600190565b503315610409565b634e487b7160e01b5f52604160045260245ffd5b5f8060018060a01b0360025416604051368382378036810184815203915af43d15610567573d67ffffffffffffffff81116105625760405190601f8101601f19908116603f0116820167ffffffffffffffff8111838210176105625760405281525f60203d92013e5b604051903d5f833e1561055e573d90f35b3d90fd5b6104d0565b61054d56fe45b96fe442630264581b197e84bbada861235052c5a1aadfff9ea4e40a969aa0a264697066735822122005995383c6882de5573b781d2b1e4b69623eae31f27e252d5fc31aa114c8689064736f6c634300081c0033","linkReferences":{}},"methodIdentifiers":{"_acceptAdmin()":"e9c714f2","_acceptImplementation()":"c1e80334","_setPendingAdmin(address)":"b71d1a0c","_setPendingImplementation(address)":"e992a041","admin()":"f851a440","pendingAdmin()":"26782247","pendingPeridottrollerImplementation()":"7c8f3a67","peridottrollerImplementation()":"18f1408d"},"id":47}