{"abi":[{"type":"constructor","inputs":[{"name":"_router","type":"address","internalType":"address"},{"name":"_peridottroller","type":"address","internalType":"address"}],"stateMutability":"nonpayable"},{"type":"function","name":"allowedSenders","inputs":[{"name":"","type":"uint64","internalType":"uint64"},{"name":"","type":"address","internalType":"address"}],"outputs":[{"name":"","type":"bool","internalType":"bool"}],"stateMutability":"view"},{"type":"function","name":"allowedSourceChains","inputs":[{"name":"","type":"uint64","internalType":"uint64"}],"outputs":[{"name":"","type":"bool","internalType":"bool"}],"stateMutability":"view"},{"type":"function","name":"allowlistSender","inputs":[{"name":"_sourceChainSelector","type":"uint64","internalType":"uint64"},{"name":"_sender","type":"address","internalType":"address"},{"name":"_allowed","type":"bool","internalType":"bool"}],"outputs":[],"stateMutability":"nonpayable"},{"type":"function","name":"allowlistSourceChain","inputs":[{"name":"_sourceChainSelector","type":"uint64","internalType":"uint64"},{"name":"_allowed","type":"bool","internalType":"bool"}],"outputs":[],"stateMutability":"nonpayable"},{"type":"function","name":"ccipReceive","inputs":[{"name":"message","type":"tuple","internalType":"struct Client.Any2EVMMessage","components":[{"name":"messageId","type":"bytes32","internalType":"bytes32"},{"name":"sourceChainSelector","type":"uint64","internalType":"uint64"},{"name":"sender","type":"bytes","internalType":"bytes"},{"name":"data","type":"bytes","internalType":"bytes"},{"name":"destTokenAmounts","type":"tuple[]","internalType":"struct Client.EVMTokenAmount[]","components":[{"name":"token","type":"address","internalType":"address"},{"name":"amount","type":"uint256","internalType":"uint256"}]}]}],"outputs":[],"stateMutability":"nonpayable"},{"type":"function","name":"enterMarkets","inputs":[{"name":"pTokens","type":"address[]","internalType":"address[]"}],"outputs":[{"name":"results","type":"uint256[]","internalType":"uint256[]"}],"stateMutability":"nonpayable"},{"type":"function","name":"exitMarket","inputs":[{"name":"pToken","type":"address","internalType":"address"}],"outputs":[{"name":"result","type":"uint256","internalType":"uint256"}],"stateMutability":"nonpayable"},{"type":"function","name":"getRouter","inputs":[],"outputs":[{"name":"","type":"address","internalType":"address"}],"stateMutability":"view"},{"type":"function","name":"owner","inputs":[],"outputs":[{"name":"","type":"address","internalType":"address"}],"stateMutability":"view"},{"type":"function","name":"peridottroller","inputs":[],"outputs":[{"name":"","type":"address","internalType":"contract PeridottrollerInterface"}],"stateMutability":"view"},{"type":"function","name":"supportsInterface","inputs":[{"name":"interfaceId","type":"bytes4","internalType":"bytes4"}],"outputs":[{"name":"","type":"bool","internalType":"bool"}],"stateMutability":"view"},{"type":"event","name":"CrossChainEnterMarketsExecuted","inputs":[{"name":"messageId","type":"bytes32","indexed":true,"internalType":"bytes32"},{"name":"user","type":"address","indexed":true,"internalType":"address"},{"name":"pTokens","type":"address[]","indexed":false,"internalType":"address[]"},{"name":"results","type":"uint256[]","indexed":false,"internalType":"uint256[]"}],"anonymous":false},{"type":"event","name":"CrossChainEnterMarketsRequested","inputs":[{"name":"messageId","type":"bytes32","indexed":true,"internalType":"bytes32"},{"name":"sourceChainSelector","type":"uint64","indexed":true,"internalType":"uint64"},{"name":"user","type":"address","indexed":true,"internalType":"address"},{"name":"pTokens","type":"address[]","indexed":false,"internalType":"address[]"},{"name":"sender","type":"address","indexed":false,"internalType":"address"}],"anonymous":false},{"type":"event","name":"CrossChainExitMarketExecuted","inputs":[{"name":"messageId","type":"bytes32","indexed":true,"internalType":"bytes32"},{"name":"user","type":"address","indexed":true,"internalType":"address"},{"name":"pToken","type":"address","indexed":false,"internalType":"address"},{"name":"result","type":"uint256","indexed":false,"internalType":"uint256"}],"anonymous":false},{"type":"event","name":"CrossChainExitMarketRequested","inputs":[{"name":"messageId","type":"bytes32","indexed":true,"internalType":"bytes32"},{"name":"sourceChainSelector","type":"uint64","indexed":true,"internalType":"uint64"},{"name":"user","type":"address","indexed":true,"internalType":"address"},{"name":"pToken","type":"address","indexed":false,"internalType":"address"},{"name":"sender","type":"address","indexed":false,"internalType":"address"}],"anonymous":false},{"type":"error","name":"InvalidRouter","inputs":[{"name":"router","type":"address","internalType":"address"}]}],"bytecode":{"object":"0x60c0346100da57601f610edd38819003918201601f19168301916001600160401b038311848410176100de5780849260409485528339810103126100da57610052602061004b836100f2565b92016100f2565b906001600160a01b038116156100c7576080526001600160a01b031660a052600280546001600160a01b03191633179055604051610dd6908161010782396080518181816103c601526104e3015260a05181818161015d015281816102540152818161030d0152818161081701526109740152f35b6335fdcccd60e21b5f525f60045260245ffd5b5f80fd5b634e487b7160e01b5f52604160045260245ffd5b51906001600160a01b03821682036100da5756fe6080806040526004361015610012575f80fd5b5f3560e01c90816301ffc9a714610b225750806385572ffb146104b15780638da5cb5b1461048957806396bc53a214610431578063a90289e5146103f5578063b0f479a1146103b1578063c299823814610283578063c423fe291461023f578063db04fa49146101dd578063ede4edd0146101195763f039a00914610095575f80fd5b34610115576060366003190112610115576100ae610b75565b6100b6610b8b565b604435908115158203610115576001600160401b03610113936100e460018060a01b03600254163314610cfa565b165f52600160205260405f209060018060a01b03165f5260205260405f209060ff801983541691151516179055565b005b5f80fd5b34610115576020366003190112610115576004356001600160a01b0381169081900361011557604051630ede4edd60e41b815260048101919091526020816024815f7f00000000000000000000000000000000000000000000000000000000000000006001600160a01b03165af180156101d2575f9061019f575b602090604051908152f35b506020813d6020116101ca575b816101b960209383610be8565b810103126101155760209051610194565b3d91506101ac565b6040513d5f823e3d90fd5b34610115576040366003190112610115576101f6610b75565b6024358015158103610115576001600160401b036101139261022360018060a01b03600254163314610cfa565b165f525f60205260405f209060ff801983541691151516179055565b34610115575f366003190112610115576040517f00000000000000000000000000000000000000000000000000000000000000006001600160a01b03168152602090f35b34610115576020366003190112610115576004356001600160401b0381116101155736602382011215610115578060040135906001600160401b038211610115573660248360051b8301011161011557604051631853304760e31b815260206004820152602480820184905290928392604484019201905f5b81811061038357845f8180870381837f00000000000000000000000000000000000000000000000000000000000000006001600160a01b03165af180156101d25761035d915f91610361575b50604051918291602083526020830190610bb5565b0390f35b61037d91503d805f833e6103758183610be8565b810190610c81565b82610348565b9193509160019060209081906001600160a01b036103a088610ba1565b1681520194019101918493926102fc565b34610115575f366003190112610115576040517f00000000000000000000000000000000000000000000000000000000000000006001600160a01b03168152602090f35b34610115576020366003190112610115576001600160401b03610416610b75565b165f525f602052602060ff60405f2054166040519015158152f35b346101155760403660031901126101155761044a610b75565b6001600160401b0361045a610b8b565b91165f52600160205260405f209060018060a01b03165f52602052602060ff60405f2054166040519015158152f35b34610115575f366003190112610115576002546040516001600160a01b039091168152602090f35b34610115576020366003190112610115576004356001600160401b0381116101155760a06003198236030112610115577f00000000000000000000000000000000000000000000000000000000000000006001600160a01b03163303610b0f576040519060a082018281106001600160401b03821117610afb57604052806004013582526024810135906001600160401b0382168203610115576020830191825260448101356001600160401b038111610115576105759060043691840101610c24565b6040840190815260648201356001600160401b0381116101155761059f9060043691850101610c24565b91606085019283526084810135906001600160401b0382116101155701366023820112156101155760048101356105d581610c6a565b916105e36040519384610be8565b818352602060048185019360061b830101019036821161011557602401915b818310610ab05750505060808501526001600160401b038351165f525f60205260ff60405f20541615610a6b5751602081805181010312610115576001600160a01b039061065290602001610d50565b16906001600160401b038351165f52600160205260405f2060018060a01b0383165f5260205260ff60405f20541615610a315751805181019160608260208501940312610115576020820151946002861015610115576106b460408401610d50565b926060810151906001600160401b03821161011557019284603f850112156101155760208401516106e481610c09565b946106f26040519687610be8565b81865260208601966040828401011161011557815f92604060209301895e860101526001600160a01b031695806108ec57506001600160401b0390519451169180518101936020828187019603126101155751906001600160401b03821161011557019280603f850112156101155760208401519061077082610c6a565b9461077e6040519687610be8565b8286526020808088019460051b830101019182116101155791879493916040889401915b8183106108ba575050507f481aa6dc6aafe37b9e90801a0e05d1e3199f2130861f773695faaa9fe01b2126906040518091604082526107e46040830189610d64565b9060208301520390a4604051631853304760e31b815260206004820152905f82806108126024820185610d64565b0381837f00000000000000000000000000000000000000000000000000000000000000006001600160a01b03165af19081156101d25761089b61088d927fcc2979fd290bd862f614f0d24ded2c6350a3dd5a106043b83ad80ed04834db53945f916108a0575b50604051938493604085526040850190610d64565b908382036020850152610bb5565b0390a3005b6108b491503d805f833e6103758183610be8565b87610878565b8251959650929491935091906001600160a01b03811681036101155781602092918392520192018794939187936107a2565b919392916001146108f957005b6001600160401b03602091519551169180518101031261011557837f2311167acda77d3cd3ea22f9317ecca02700089258de2afcee6b4c25be680baf6040879461094960018060a01b0391610d50565b16958151908782526020820152a4604051630ede4edd60e41b8152600481018290526020816024815f7f00000000000000000000000000000000000000000000000000000000000000006001600160a01b03165af19081156101d2575f916109df575b507f81832b88885b63e82bf556632e653974c5430d92c042024c11cf0e021cd5972c9160409182519182526020820152a3005b90506020813d602011610a29575b816109fa60209383610be8565b8101031261011557517f81832b88885b63e82bf556632e653974c5430d92c042024c11cf0e021cd5972c6109ac565b3d91506109ed565b60405162461bcd60e51b815260206004820152601260248201527114d95b99195c881b9bdd08185b1b1bddd95960721b6044820152606490fd5b60405162461bcd60e51b815260206004820152601860248201527f536f7572636520636861696e206e6f7420616c6c6f77656400000000000000006044820152606490fd5b604083360312610115576040519060408201908282106001600160401b03831117610afb576040926020928452610ae686610ba1565b81528286013583820152815201920191610602565b634e487b7160e01b5f52604160045260245ffd5b6335fdcccd60e21b5f523360045260245ffd5b34610115576020366003190112610115576004359063ffffffff60e01b8216809203610115576020916385572ffb60e01b8114908115610b64575b5015158152f35b6301ffc9a760e01b14905083610b5d565b600435906001600160401b038216820361011557565b602435906001600160a01b038216820361011557565b35906001600160a01b038216820361011557565b90602080835192838152019201905f5b818110610bd25750505090565b8251845260209384019390920191600101610bc5565b90601f801991011681019081106001600160401b03821117610afb57604052565b6001600160401b038111610afb57601f01601f191660200190565b81601f8201121561011557803590610c3b82610c09565b92610c496040519485610be8565b8284526020838301011161011557815f926020809301838601378301015290565b6001600160401b038111610afb5760051b60200190565b602081830312610115578051906001600160401b03821161011557019080601f83011215610115578151610cb481610c6a565b92610cc26040519485610be8565b81845260208085019260051b82010192831161011557602001905b828210610cea5750505090565b8151815260209182019101610cdd565b15610d0157565b60405162461bcd60e51b815260206004820152602160248201527f4f6e6c79206f776e65722063616e2063616c6c20746869732066756e6374696f6044820152603760f91b6064820152608490fd5b51906001600160a01b038216820361011557565b90602080835192838152019201905f5b818110610d815750505090565b82516001600160a01b0316845260209384019390920191600101610d7456fea2646970667358221220eb6b5ae92b58b55e649c4e1de692bbdc9e79f0588f33112b50a41503a7cd5abc64736f6c634300081b0033","linkReferences":{}},"methodIdentifiers":{"allowedSenders(uint64,address)":"96bc53a2","allowedSourceChains(uint64)":"a90289e5","allowlistSender(uint64,address,bool)":"f039a009","allowlistSourceChain(uint64,bool)":"db04fa49","ccipReceive((bytes32,uint64,bytes,bytes,(address,uint256)[]))":"85572ffb","enterMarkets(address[])":"c2998238","exitMarket(address)":"ede4edd0","getRouter()":"b0f479a1","owner()":"8da5cb5b","peridottroller()":"c423fe29","supportsInterface(bytes4)":"01ffc9a7"},"id":40}