{"abi":[{"type":"constructor","inputs":[{"name":"_router","type":"address","internalType":"address"},{"name":"_peridottroller","type":"address","internalType":"address"}],"stateMutability":"nonpayable"},{"type":"function","name":"allowedSenders","inputs":[{"name":"","type":"uint64","internalType":"uint64"},{"name":"","type":"address","internalType":"address"}],"outputs":[{"name":"","type":"bool","internalType":"bool"}],"stateMutability":"view"},{"type":"function","name":"allowedSourceChains","inputs":[{"name":"","type":"uint64","internalType":"uint64"}],"outputs":[{"name":"","type":"bool","internalType":"bool"}],"stateMutability":"view"},{"type":"function","name":"allowlistSender","inputs":[{"name":"_sourceChainSelector","type":"uint64","internalType":"uint64"},{"name":"_sender","type":"address","internalType":"address"},{"name":"_allowed","type":"bool","internalType":"bool"}],"outputs":[],"stateMutability":"nonpayable"},{"type":"function","name":"allowlistSourceChain","inputs":[{"name":"_sourceChainSelector","type":"uint64","internalType":"uint64"},{"name":"_allowed","type":"bool","internalType":"bool"}],"outputs":[],"stateMutability":"nonpayable"},{"type":"function","name":"ccipReceive","inputs":[{"name":"message","type":"tuple","internalType":"struct Client.Any2EVMMessage","components":[{"name":"messageId","type":"bytes32","internalType":"bytes32"},{"name":"sourceChainSelector","type":"uint64","internalType":"uint64"},{"name":"sender","type":"bytes","internalType":"bytes"},{"name":"data","type":"bytes","internalType":"bytes"},{"name":"destTokenAmounts","type":"tuple[]","internalType":"struct Client.EVMTokenAmount[]","components":[{"name":"token","type":"address","internalType":"address"},{"name":"amount","type":"uint256","internalType":"uint256"}]}]}],"outputs":[],"stateMutability":"nonpayable"},{"type":"function","name":"enterMarkets","inputs":[{"name":"pTokens","type":"address[]","internalType":"address[]"}],"outputs":[{"name":"results","type":"uint256[]","internalType":"uint256[]"}],"stateMutability":"nonpayable"},{"type":"function","name":"exitMarket","inputs":[{"name":"pToken","type":"address","internalType":"address"}],"outputs":[{"name":"result","type":"uint256","internalType":"uint256"}],"stateMutability":"nonpayable"},{"type":"function","name":"getRouter","inputs":[],"outputs":[{"name":"","type":"address","internalType":"address"}],"stateMutability":"view"},{"type":"function","name":"owner","inputs":[],"outputs":[{"name":"","type":"address","internalType":"address"}],"stateMutability":"view"},{"type":"function","name":"peridottroller","inputs":[],"outputs":[{"name":"","type":"address","internalType":"contract PeridottrollerInterface"}],"stateMutability":"view"},{"type":"function","name":"supportsInterface","inputs":[{"name":"interfaceId","type":"bytes4","internalType":"bytes4"}],"outputs":[{"name":"","type":"bool","internalType":"bool"}],"stateMutability":"view"},{"type":"event","name":"CrossChainEnterMarketsExecuted","inputs":[{"name":"messageId","type":"bytes32","indexed":true,"internalType":"bytes32"},{"name":"user","type":"address","indexed":true,"internalType":"address"},{"name":"pTokens","type":"address[]","indexed":false,"internalType":"address[]"},{"name":"results","type":"uint256[]","indexed":false,"internalType":"uint256[]"}],"anonymous":false},{"type":"event","name":"CrossChainEnterMarketsRequested","inputs":[{"name":"messageId","type":"bytes32","indexed":true,"internalType":"bytes32"},{"name":"sourceChainSelector","type":"uint64","indexed":true,"internalType":"uint64"},{"name":"user","type":"address","indexed":true,"internalType":"address"},{"name":"pTokens","type":"address[]","indexed":false,"internalType":"address[]"},{"name":"sender","type":"address","indexed":false,"internalType":"address"}],"anonymous":false},{"type":"event","name":"CrossChainExitMarketExecuted","inputs":[{"name":"messageId","type":"bytes32","indexed":true,"internalType":"bytes32"},{"name":"user","type":"address","indexed":true,"internalType":"address"},{"name":"pToken","type":"address","indexed":false,"internalType":"address"},{"name":"result","type":"uint256","indexed":false,"internalType":"uint256"}],"anonymous":false},{"type":"event","name":"CrossChainExitMarketRequested","inputs":[{"name":"messageId","type":"bytes32","indexed":true,"internalType":"bytes32"},{"name":"sourceChainSelector","type":"uint64","indexed":true,"internalType":"uint64"},{"name":"user","type":"address","indexed":true,"internalType":"address"},{"name":"pToken","type":"address","indexed":false,"internalType":"address"},{"name":"sender","type":"address","indexed":false,"internalType":"address"}],"anonymous":false},{"type":"error","name":"InvalidRouter","inputs":[{"name":"router","type":"address","internalType":"address"}]}],"bytecode":{"object":"0x60c060405234801561000f575f5ffd5b506040516111b63803806111b683398101604081905261002e916100a1565b816001600160a01b03811661005c576040516335fdcccd60e21b81525f600482015260240160405180910390fd5b6001600160a01b039081166080521660a05250600280546001600160a01b031916331790556100d2565b80516001600160a01b038116811461009c575f5ffd5b919050565b5f5f604083850312156100b2575f5ffd5b6100bb83610086565b91506100c960208401610086565b90509250929050565b60805160a0516110a06101165f395f81816101ac015281816102c9015281816103be0152818161069001526107f101525f8181610163015261025601526110a05ff3fe608060405234801561000f575f5ffd5b50600436106100a6575f3560e01c8063b0f479a11161006e578063b0f479a114610161578063c299823814610187578063c423fe29146101a7578063db04fa49146101ce578063ede4edd0146101e1578063f039a00914610202575f5ffd5b806301ffc9a7146100aa57806385572ffb146100d25780638da5cb5b146100e757806396bc53a214610112578063a90289e51461013f575b5f5ffd5b6100bd6100b83660046108a6565b610215565b60405190151581526020015b60405180910390f35b6100e56100e03660046108cd565b61024b565b005b6002546100fa906001600160a01b031681565b6040516001600160a01b0390911681526020016100c9565b6100bd610120366004610932565b600160209081525f928352604080842090915290825290205460ff1681565b6100bd61014d366004610967565b5f6020819052908152604090205460ff1681565b7f00000000000000000000000000000000000000000000000000000000000000006100fa565b61019a610195366004610980565b6102af565b6040516100c99190610a29565b6100fa7f000000000000000000000000000000000000000000000000000000000000000081565b6100e56101dc366004610a4a565b610349565b6101f46101ef366004610a7b565b61039d565b6040519081526020016100c9565b6100e5610210366004610a96565b61042a565b5f6001600160e01b031982166385572ffb60e01b148061024557506001600160e01b031982166301ffc9a760e01b145b92915050565b336001600160a01b037f0000000000000000000000000000000000000000000000000000000000000000161461029b576040516335fdcccd60e21b81523360048201526024015b60405180910390fd5b6102ac6102a782610c93565b610493565b50565b604051631853304760e31b81526060906001600160a01b037f0000000000000000000000000000000000000000000000000000000000000000169063c2998238906103009086908690600401610d44565b5f604051808303815f875af115801561031b573d5f5f3e3d5ffd5b505050506040513d5f823e601f3d908101601f191682016040526103429190810190610d86565b9392505050565b6002546001600160a01b031633146103735760405162461bcd60e51b815260040161029290610e16565b6001600160401b03919091165f908152602081905260409020805460ff1916911515919091179055565b604051630ede4edd60e41b81526001600160a01b0382811660048301525f917f00000000000000000000000000000000000000000000000000000000000000009091169063ede4edd0906024016020604051808303815f875af1158015610406573d5f5f3e3d5ffd5b505050506040513d601f19601f820116820180604052508101906102459190610e57565b6002546001600160a01b031633146104545760405162461bcd60e51b815260040161029290610e16565b6001600160401b039092165f9081526001602090815260408083206001600160a01b03909416835292905220805491151560ff19909216919091179055565b6020808201516001600160401b03165f90815290819052604090205460ff166104fe5760405162461bcd60e51b815260206004820152601860248201527f536f7572636520636861696e206e6f7420616c6c6f77656400000000000000006044820152606401610292565b5f81604001518060200190518101906105179190610e6e565b6020808401516001600160401b03165f9081526001825260408082206001600160a01b0385168352909252205490915060ff1661058b5760405162461bcd60e51b815260206004820152601260248201527114d95b99195c881b9bdd08185b1b1bddd95960721b6044820152606401610292565b5f5f5f84606001518060200190518101906105a69190610e89565b919450925090505f8360018111156105c0576105c0610f26565b036105de576105d9855f01518660200151848488610612565b61060b565b60018360018111156105f2576105f2610f26565b0361060b5761060b855f01518660200151848488610756565b5050505050565b5f828060200190518101906106279190610f3a565b9050836001600160a01b0316856001600160401b0316877f481aa6dc6aafe37b9e90801a0e05d1e3199f2130861f773695faaa9fe01b2126848660405161066f929190611002565b60405180910390a4604051631853304760e31b81525f906001600160a01b037f0000000000000000000000000000000000000000000000000000000000000000169063c2998238906106c590859060040161102b565b5f604051808303815f875af11580156106e0573d5f5f3e3d5ffd5b505050506040513d5f823e601f3d908101601f191682016040526107079190810190610d86565b9050846001600160a01b0316877fcc2979fd290bd862f614f0d24ded2c6350a3dd5a106043b83ad80ed04834db53848460405161074592919061103d565b60405180910390a350505050505050565b5f8280602001905181019061076b9190610e6e565b9050836001600160a01b0316856001600160401b0316877f2311167acda77d3cd3ea22f9317ecca02700089258de2afcee6b4c25be680baf84866040516107c89291906001600160a01b0392831681529116602082015260400190565b60405180910390a4604051630ede4edd60e41b81526001600160a01b0382811660048301525f917f00000000000000000000000000000000000000000000000000000000000000009091169063ede4edd0906024016020604051808303815f875af1158015610839573d5f5f3e3d5ffd5b505050506040513d601f19601f8201168201806040525081019061085d9190610e57565b604080516001600160a01b038581168252602082018490529293509187169189917f81832b88885b63e82bf556632e653974c5430d92c042024c11cf0e021cd5972c9101610745565b5f602082840312156108b6575f5ffd5b81356001600160e01b031981168114610342575f5ffd5b5f602082840312156108dd575f5ffd5b81356001600160401b038111156108f2575f5ffd5b820160a08185031215610342575f5ffd5b80356001600160401b0381168114610919575f5ffd5b919050565b6001600160a01b03811681146102ac575f5ffd5b5f5f60408385031215610943575f5ffd5b61094c83610903565b9150602083013561095c8161091e565b809150509250929050565b5f60208284031215610977575f5ffd5b61034282610903565b5f5f60208385031215610991575f5ffd5b82356001600160401b038111156109a6575f5ffd5b8301601f810185136109b6575f5ffd5b80356001600160401b038111156109cb575f5ffd5b8560208260051b84010111156109df575f5ffd5b6020919091019590945092505050565b5f8151808452602084019350602083015f5b82811015610a1f578151865260209586019590910190600101610a01565b5093949350505050565b602081525f61034260208301846109ef565b80358015158114610919575f5ffd5b5f5f60408385031215610a5b575f5ffd5b610a6483610903565b9150610a7260208401610a3b565b90509250929050565b5f60208284031215610a8b575f5ffd5b81356103428161091e565b5f5f5f60608486031215610aa8575f5ffd5b610ab184610903565b92506020840135610ac18161091e565b9150610acf60408501610a3b565b90509250925092565b634e487b7160e01b5f52604160045260245ffd5b604080519081016001600160401b0381118282101715610b0e57610b0e610ad8565b60405290565b60405160a081016001600160401b0381118282101715610b0e57610b0e610ad8565b604051601f8201601f191681016001600160401b0381118282101715610b5e57610b5e610ad8565b604052919050565b5f6001600160401b03821115610b7e57610b7e610ad8565b50601f01601f191660200190565b5f82601f830112610b9b575f5ffd5b8135610bae610ba982610b66565b610b36565b818152846020838601011115610bc2575f5ffd5b816020850160208301375f918101602001919091529392505050565b5f6001600160401b03821115610bf657610bf6610ad8565b5060051b60200190565b5f82601f830112610c0f575f5ffd5b8135610c1d610ba982610bde565b8082825260208201915060208360061b860101925085831115610c3e575f5ffd5b602085015b83811015610c895760408188031215610c5a575f5ffd5b610c62610aec565b8135610c6d8161091e565b8152602082810135818301529084529290920191604001610c43565b5095945050505050565b5f60a08236031215610ca3575f5ffd5b610cab610b14565b82358152610cbb60208401610903565b602082015260408301356001600160401b03811115610cd8575f5ffd5b610ce436828601610b8c565b60408301525060608301356001600160401b03811115610d02575f5ffd5b610d0e36828601610b8c565b60608301525060808301356001600160401b03811115610d2c575f5ffd5b610d3836828601610c00565b60808301525092915050565b602080825281018290525f8360408301825b85811015610c89578235610d698161091e565b6001600160a01b0316825260209283019290910190600101610d56565b5f60208284031215610d96575f5ffd5b81516001600160401b03811115610dab575f5ffd5b8201601f81018413610dbb575f5ffd5b8051610dc9610ba982610bde565b8082825260208201915060208360051b850101925086831115610dea575f5ffd5b6020840193505b82841015610e0c578351825260209384019390910190610df1565b9695505050505050565b60208082526021908201527f4f6e6c79206f776e65722063616e2063616c6c20746869732066756e6374696f6040820152603760f91b606082015260800190565b5f60208284031215610e67575f5ffd5b5051919050565b5f60208284031215610e7e575f5ffd5b81516103428161091e565b5f5f5f60608486031215610e9b575f5ffd5b835160028110610ea9575f5ffd5b6020850151909350610eba8161091e565b60408501519092506001600160401b03811115610ed5575f5ffd5b8401601f81018613610ee5575f5ffd5b8051610ef3610ba982610b66565b818152876020838501011115610f07575f5ffd5b8160208401602083015e5f602083830101528093505050509250925092565b634e487b7160e01b5f52602160045260245ffd5b5f60208284031215610f4a575f5ffd5b81516001600160401b03811115610f5f575f5ffd5b8201601f81018413610f6f575f5ffd5b8051610f7d610ba982610bde565b8082825260208201915060208360051b850101925086831115610f9e575f5ffd5b6020840193505b82841015610e0c578351610fb88161091e565b825260209384019390910190610fa5565b5f8151808452602084019350602083015f5b82811015610a1f5781516001600160a01b0316865260209586019590910190600101610fdb565b604081525f6110146040830185610fc9565b905060018060a01b03831660208301529392505050565b602081525f6103426020830184610fc9565b604081525f61104f6040830185610fc9565b828103602084015261106181856109ef565b9594505050505056fea26469706673582212208f89f54521903a51f87a8a6b0b1692969b2a8bfa57418d222f826c24a141590564736f6c634300081b0033","linkReferences":{}},"methodIdentifiers":{"allowedSenders(uint64,address)":"96bc53a2","allowedSourceChains(uint64)":"a90289e5","allowlistSender(uint64,address,bool)":"f039a009","allowlistSourceChain(uint64,bool)":"db04fa49","ccipReceive((bytes32,uint64,bytes,bytes,(address,uint256)[]))":"85572ffb","enterMarkets(address[])":"c2998238","exitMarket(address)":"ede4edd0","getRouter()":"b0f479a1","owner()":"8da5cb5b","peridottroller()":"c423fe29","supportsInterface(bytes4)":"01ffc9a7"},"id":1}