{"abi":[{"type":"constructor","inputs":[{"name":"initialImplementation","type":"address","internalType":"address"},{"name":"initialAdmin","type":"address","internalType":"address"}],"stateMutability":"nonpayable"},{"type":"fallback","stateMutability":"payable"},{"type":"function","name":"admin","inputs":[],"outputs":[{"name":"","type":"address","internalType":"address"}],"stateMutability":"view"},{"type":"function","name":"changeAdmin","inputs":[{"name":"newAdmin","type":"address","internalType":"address"}],"outputs":[],"stateMutability":"nonpayable"},{"type":"function","name":"implementation","inputs":[],"outputs":[{"name":"","type":"address","internalType":"address"}],"stateMutability":"view"},{"type":"function","name":"upgradeTo","inputs":[{"name":"newImplementation","type":"address","internalType":"address"}],"outputs":[],"stateMutability":"nonpayable"},{"type":"event","name":"AdminChanged","inputs":[{"name":"previousAdmin","type":"address","indexed":false,"internalType":"address"},{"name":"newAdmin","type":"address","indexed":false,"internalType":"address"}],"anonymous":false},{"type":"event","name":"Upgraded","inputs":[{"name":"implementation","type":"address","indexed":true,"internalType":"address"}],"anonymous":false}],"bytecode":{"object":"0x60803461020d57601f61069138819003918201601f19168301916001600160401b0383118484101761021157808492604094855283398101031261020d57610052602061004b83610225565b9201610225565b906001600160a01b0381169081156101a2573b15610146577f360894a13ba1a3210667c828492db98dca3e2076cc3735a920a3ca505d382bbc80546001600160a01b0319169190911790556001600160a01b031680156100ee577fb53127684a568b3173ae13b9f8a6016e243e63b6e8ee1178d6a717850b5d610380546001600160a01b031916919091179055604051610457908161023a8239f35b60405162461bcd60e51b815260206004820152602a60248201527f4549503139363750726f78793a2061646d696e2063616e6e6f74206265207a65604482015269726f206164647265737360b01b6064820152608490fd5b60405162461bcd60e51b815260206004820152602e60248201527f4549503139363750726f78793a20696d706c656d656e746174696f6e2069732060448201526d1b9bdd08184818dbdb9d1c9858dd60921b6064820152608490fd5b60405162461bcd60e51b815260206004820152603360248201527f4549503139363750726f78793a20696d706c656d656e746174696f6e2063616e60448201527f6e6f74206265207a65726f2061646472657373000000000000000000000000006064820152608490fd5b5f80fd5b634e487b7160e01b5f52604160045260245ffd5b51906001600160a01b038216820361020d5756fe6080604052600436106103b8575f3560e01c80633659cfe61461004b5780635c60da1b146100465780638f283970146100415763f851a440036103b85761032a565b61022e565b6101e7565b346101c157610059366101c5565b61007a60018060a01b035f5160206104025f395f51905f525416331461035e565b6001600160a01b03811690811561015657803b156100f6577f360894a13ba1a3210667c828492db98dca3e2076cc3735a920a3ca505d382bbc80546001600160a01b0319166001600160a01b039092169190911790557fbc7cd75a20ee27fd9adebab32041f755214dbc6bffa90cc0225b39da2e5c2d3b5f80a2005b60405162461bcd60e51b815260206004820152603260248201527f4549503139363750726f78793a206e657720696d706c656d656e746174696f6e604482015271081a5cc81b9bdd08184818dbdb9d1c9858dd60721b6064820152608490fd5b60405162461bcd60e51b815260206004820152603760248201527f4549503139363750726f78793a206e657720696d706c656d656e746174696f6e60448201527f2063616e6e6f74206265207a65726f20616464726573730000000000000000006064820152608490fd5b5f80fd5b60209060031901126101c1576004356001600160a01b03811681036101c15790565b346101c1575f3660031901126101c1577f360894a13ba1a3210667c828492db98dca3e2076cc3735a920a3ca505d382bbc546040516001600160a01b039091168152602090f35b346101c15761023c366101c5565b5f5160206104025f395f51905f52546001600160a01b03169061026033831461035e565b6001600160a01b038116156102ce575f5160206104025f395f51905f5280546001600160a01b0319166001600160a01b039283169081179091556040805193909216835260208301527f7e644d79422f17c01e4894b5f4f588d331ebfa28653d42ae832dc59e38c9798f91a1005b60405162461bcd60e51b815260206004820152602e60248201527f4549503139363750726f78793a206e65772061646d696e2063616e6e6f74206260448201526d65207a65726f206164647265737360901b6064820152608490fd5b346101c1575f3660031901126101c1575f5160206104025f395f51905f52546040516001600160a01b039091168152602090f35b1561036557565b60405162461bcd60e51b815260206004820152602560248201527f4549503139363750726f78793a2063616c6c6572206973206e6f74207468652060448201526430b236b4b760d91b6064820152608490fd5b7f360894a13ba1a3210667c828492db98dca3e2076cc3735a920a3ca505d382bbc545f9081906001600160a01b0316368280378136915af43d5f803e156103fd573d5ff35b3d5ffdfeb53127684a568b3173ae13b9f8a6016e243e63b6e8ee1178d6a717850b5d6103a2646970667358221220bf87fa812a8542976b721ea24ec84724c26c1f4215f71f13bbc46de583325b1264736f6c634300081c0033","linkReferences":{}},"methodIdentifiers":{"admin()":"f851a440","changeAdmin(address)":"8f283970","implementation()":"5c60da1b","upgradeTo(address)":"3659cfe6"},"id":44}