{"abi":[{"type":"constructor","inputs":[{"name":"_logic","type":"address","internalType":"address"}],"stateMutability":"nonpayable"},{"type":"fallback","stateMutability":"payable"},{"type":"function","name":"addAdmin","inputs":[{"name":"newAdmin","type":"address","internalType":"address"}],"outputs":[],"stateMutability":"nonpayable"},{"type":"function","name":"admin","inputs":[],"outputs":[{"name":"","type":"address","internalType":"address"}],"stateMutability":"view"},{"type":"function","name":"upgradeTo","inputs":[{"name":"newImplementation","type":"address","internalType":"address"}],"outputs":[],"stateMutability":"nonpayable"}],"bytecode":{"object":"0x6080346100f857601f6103ac38819003918201601f19168301916001600160401b038311848410176100fc578084926020946040528339810103126100f857516001600160a01b038116908190036100f85780156100a5577f360894a13ba1a3210667c828492db98dca3e2076cc3735a920a3ca505d382bbc80546001600160a01b03199081169290921790555f80549091163317905560405161029b90816101118239f35b60405162461bcd60e51b815260206004820152602560248201527f4c6f67696320636f6e747261637420616464726573732063616e6e6f74206265604482015264207a65726f60d81b6064820152608490fd5b5f80fd5b634e487b7160e01b5f52604160045260245ffdfe60806040526004361061021c575f3560e01c80633659cfe61461003b57806370480275146100365763f851a4400361021c576101f5565b610179565b346101535761004936610157565b5f546001600160a01b0316330361010d576001600160a01b031680156100c3576bffffffffffffffffffffffff60a01b7f360894a13ba1a3210667c828492db98dca3e2076cc3735a920a3ca505d382bbc5416177f360894a13ba1a3210667c828492db98dca3e2076cc3735a920a3ca505d382bbc555f80f35b62461bcd60e51b6080526020608452602560a4527f496d706c656d656e746174696f6e2063616e6e6f74206265207a65726f20616460c45264647265737360d81b60e45260846080fd5b62461bcd60e51b6080526020608452602160a4527f4f6e6c792061646d696e2063616e2063616c6c20746869732066756e6374696f60c452603760f91b60e45260846080fd5b5f80fd5b6020906003190112610153576004356001600160a01b03811681036101535790565b34610153576001600160a01b0361018f36610157565b1680156101b0576bffffffffffffffffffffffff60a01b5f5416175f555f80f35b60405162461bcd60e51b815260206004820152601c60248201527f41646d696e2063616e6e6f74206265207a65726f2061646472657373000000006044820152606490fd5b34610153575f366003190112610153575f546040516001600160a01b039091168152602090f35b7f360894a13ba1a3210667c828492db98dca3e2076cc3735a920a3ca505d382bbc545f9081906001600160a01b0316368280378136915af43d5f803e15610261573d5ff35b3d5ffdfea2646970667358221220a7419455227088c8f47c47b788e3b33f8a36457484068706ad1f3403c922b9b564736f6c634300081b0033","linkReferences":{}},"methodIdentifiers":{"addAdmin(address)":"70480275","admin()":"f851a440","upgradeTo(address)":"3659cfe6"},"id":32}