{"abi":[{"type":"constructor","inputs":[{"name":"initialOwner","type":"address","internalType":"address"}],"stateMutability":"nonpayable"},{"type":"function","name":"DOMAIN_SEPARATOR","inputs":[],"outputs":[{"name":"","type":"bytes32","internalType":"bytes32"}],"stateMutability":"view"},{"type":"function","name":"allowance","inputs":[{"name":"owner","type":"address","internalType":"address"},{"name":"spender","type":"address","internalType":"address"}],"outputs":[{"name":"","type":"uint256","internalType":"uint256"}],"stateMutability":"view"},{"type":"function","name":"approve","inputs":[{"name":"spender","type":"address","internalType":"address"},{"name":"value","type":"uint256","internalType":"uint256"}],"outputs":[{"name":"","type":"bool","internalType":"bool"}],"stateMutability":"nonpayable"},{"type":"function","name":"balanceOf","inputs":[{"name":"account","type":"address","internalType":"address"}],"outputs":[{"name":"","type":"uint256","internalType":"uint256"}],"stateMutability":"view"},{"type":"function","name":"burn","inputs":[{"name":"value","type":"uint256","internalType":"uint256"}],"outputs":[],"stateMutability":"nonpayable"},{"type":"function","name":"burnFrom","inputs":[{"name":"account","type":"address","internalType":"address"},{"name":"value","type":"uint256","internalType":"uint256"}],"outputs":[],"stateMutability":"nonpayable"},{"type":"function","name":"decimals","inputs":[],"outputs":[{"name":"","type":"uint8","internalType":"uint8"}],"stateMutability":"view"},{"type":"function","name":"eip712Domain","inputs":[],"outputs":[{"name":"fields","type":"bytes1","internalType":"bytes1"},{"name":"name","type":"string","internalType":"string"},{"name":"version","type":"string","internalType":"string"},{"name":"chainId","type":"uint256","internalType":"uint256"},{"name":"verifyingContract","type":"address","internalType":"address"},{"name":"salt","type":"bytes32","internalType":"bytes32"},{"name":"extensions","type":"uint256[]","internalType":"uint256[]"}],"stateMutability":"view"},{"type":"function","name":"mint","inputs":[{"name":"to","type":"address","internalType":"address"},{"name":"amount","type":"uint256","internalType":"uint256"}],"outputs":[],"stateMutability":"nonpayable"},{"type":"function","name":"name","inputs":[],"outputs":[{"name":"","type":"string","internalType":"string"}],"stateMutability":"view"},{"type":"function","name":"nonces","inputs":[{"name":"owner","type":"address","internalType":"address"}],"outputs":[{"name":"","type":"uint256","internalType":"uint256"}],"stateMutability":"view"},{"type":"function","name":"owner","inputs":[],"outputs":[{"name":"","type":"address","internalType":"address"}],"stateMutability":"view"},{"type":"function","name":"permit","inputs":[{"name":"owner","type":"address","internalType":"address"},{"name":"spender","type":"address","internalType":"address"},{"name":"value","type":"uint256","internalType":"uint256"},{"name":"deadline","type":"uint256","internalType":"uint256"},{"name":"v","type":"uint8","internalType":"uint8"},{"name":"r","type":"bytes32","internalType":"bytes32"},{"name":"s","type":"bytes32","internalType":"bytes32"}],"outputs":[],"stateMutability":"nonpayable"},{"type":"function","name":"renounceOwnership","inputs":[],"outputs":[],"stateMutability":"nonpayable"},{"type":"function","name":"symbol","inputs":[],"outputs":[{"name":"","type":"string","internalType":"string"}],"stateMutability":"view"},{"type":"function","name":"totalSupply","inputs":[],"outputs":[{"name":"","type":"uint256","internalType":"uint256"}],"stateMutability":"view"},{"type":"function","name":"transfer","inputs":[{"name":"to","type":"address","internalType":"address"},{"name":"value","type":"uint256","internalType":"uint256"}],"outputs":[{"name":"","type":"bool","internalType":"bool"}],"stateMutability":"nonpayable"},{"type":"function","name":"transferFrom","inputs":[{"name":"from","type":"address","internalType":"address"},{"name":"to","type":"address","internalType":"address"},{"name":"value","type":"uint256","internalType":"uint256"}],"outputs":[{"name":"","type":"bool","internalType":"bool"}],"stateMutability":"nonpayable"},{"type":"function","name":"transferOwnership","inputs":[{"name":"newOwner","type":"address","internalType":"address"}],"outputs":[],"stateMutability":"nonpayable"},{"type":"event","name":"Approval","inputs":[{"name":"owner","type":"address","indexed":true,"internalType":"address"},{"name":"spender","type":"address","indexed":true,"internalType":"address"},{"name":"value","type":"uint256","indexed":false,"internalType":"uint256"}],"anonymous":false},{"type":"event","name":"EIP712DomainChanged","inputs":[],"anonymous":false},{"type":"event","name":"OwnershipTransferred","inputs":[{"name":"previousOwner","type":"address","indexed":true,"internalType":"address"},{"name":"newOwner","type":"address","indexed":true,"internalType":"address"}],"anonymous":false},{"type":"event","name":"Transfer","inputs":[{"name":"from","type":"address","indexed":true,"internalType":"address"},{"name":"to","type":"address","indexed":true,"internalType":"address"},{"name":"value","type":"uint256","indexed":false,"internalType":"uint256"}],"anonymous":false},{"type":"error","name":"ECDSAInvalidSignature","inputs":[]},{"type":"error","name":"ECDSAInvalidSignatureLength","inputs":[{"name":"length","type":"uint256","internalType":"uint256"}]},{"type":"error","name":"ECDSAInvalidSignatureS","inputs":[{"name":"s","type":"bytes32","internalType":"bytes32"}]},{"type":"error","name":"ERC20InsufficientAllowance","inputs":[{"name":"spender","type":"address","internalType":"address"},{"name":"allowance","type":"uint256","internalType":"uint256"},{"name":"needed","type":"uint256","internalType":"uint256"}]},{"type":"error","name":"ERC20InsufficientBalance","inputs":[{"name":"sender","type":"address","internalType":"address"},{"name":"balance","type":"uint256","internalType":"uint256"},{"name":"needed","type":"uint256","internalType":"uint256"}]},{"type":"error","name":"ERC20InvalidApprover","inputs":[{"name":"approver","type":"address","internalType":"address"}]},{"type":"error","name":"ERC20InvalidReceiver","inputs":[{"name":"receiver","type":"address","internalType":"address"}]},{"type":"error","name":"ERC20InvalidSender","inputs":[{"name":"sender","type":"address","internalType":"address"}]},{"type":"error","name":"ERC20InvalidSpender","inputs":[{"name":"spender","type":"address","internalType":"address"}]},{"type":"error","name":"ERC2612ExpiredSignature","inputs":[{"name":"deadline","type":"uint256","internalType":"uint256"}]},{"type":"error","name":"ERC2612InvalidSigner","inputs":[{"name":"signer","type":"address","internalType":"address"},{"name":"owner","type":"address","internalType":"address"}]},{"type":"error","name":"InvalidAccountNonce","inputs":[{"name":"account","type":"address","internalType":"address"},{"name":"currentNonce","type":"uint256","internalType":"uint256"}]},{"type":"error","name":"InvalidShortString","inputs":[]},{"type":"error","name":"OwnableInvalidOwner","inputs":[{"name":"owner","type":"address","internalType":"address"}]},{"type":"error","name":"OwnableUnauthorizedAccount","inputs":[{"name":"account","type":"address","internalType":"address"}]},{"type":"error","name":"StringTooLong","inputs":[{"name":"str","type":"string","internalType":"string"}]}],"bytecode":{"object":"0x61016080604052346104b6576020816116a6803803809161002082856104ba565b8339810103126104b657516001600160a01b038116908190036104b65760405161004b6040826104ba565b600481526020810163141554d160e21b81526040519161006c6040846104ba565b600b83526a14195c9a591bdd081554d160aa1b6020840152604051936100936040866104ba565b6004855263141554d160e21b6020860152604051946100b36040876104ba565b60018652603160f81b60208701908152855190956001600160401b0382116103b95760035490600182811c921680156104ac575b602083101461039b5781601f84931161043e575b50602090601f83116001146103d8575f926103cd575b50508160011b915f199060031b1c1916176003555b8051906001600160401b0382116103b95760045490600182811c921680156103af575b602083101461039b5781601f84931161032d575b50602090601f83116001146102c7575f926102bc575b50508160011b915f199060031b1c1916176004555b80156102a957600580546001600160a01b0319811683179091556001600160a01b03167f8be0079c531659141344cd1fd0a4f28419497f9722a3daafe3b4186f6b6457e05f80a36101d8816104dd565b610120526101e584610664565b61014052519020918260e05251902080610100524660a0526040519060208201927f8b73c3c69bb8fe3d512ecc4cf759cc79239f7b179b0ffacaa9a75d522b39400f8452604083015260608201524660808201523060a082015260a0815261024e60c0826104ba565b5190206080523060c052604051610f09908161079d823960805181610b47015260a05181610c04015260c05181610b11015260e05181610b9601526101005181610bbc0152610120518161045f015261014051816104880152f35b631e4fbdf760e01b5f525f60045260245ffd5b015190505f80610173565b60045f9081528281209350601f198516905b81811061031557509084600195949392106102fd575b505050811b01600455610188565b01515f1960f88460031b161c191690555f80806102ef565b929360206001819287860151815501950193016102d9565b60045f529091507f8a35acfbc15ff81a39ae7d344fd709f28e8600b4aa8c65c6b64bfe7fe36bd19b601f840160051c81019160208510610391575b90601f859493920160051c01905b818110610383575061015d565b5f8155849350600101610376565b9091508190610368565b634e487b7160e01b5f52602260045260245ffd5b91607f1691610149565b634e487b7160e01b5f52604160045260245ffd5b015190505f80610111565b60035f9081528281209350601f198516905b818110610426575090846001959493921061040e575b505050811b01600355610126565b01515f1960f88460031b161c191690555f8080610400565b929360206001819287860151815501950193016103ea565b60035f529091507fc2575a0e9e593c00f959f8c92f12db2869c3395a3b0502d05e2516446f71f85b601f840160051c810191602085106104a2575b90601f859493920160051c01905b81811061049457506100fb565b5f8155849350600101610487565b9091508190610479565b91607f16916100e7565b5f80fd5b601f909101601f19168101906001600160401b038211908210176103b957604052565b908151602081105f14610557575090601f815111610517576020815191015160208210610508571790565b5f198260200360031b1b161790565b604460209160405192839163305a27a960e01b83528160048401528051918291826024860152018484015e5f828201840152601f01601f19168101030190fd5b6001600160401b0381116103b957600654600181811c9116801561065a575b602082101461039b57601f8111610627575b50602092601f82116001146105c657928192935f926105bb575b50508160011b915f199060031b1c19161760065560ff90565b015190505f806105a2565b601f1982169360065f52805f20915f5b86811061060f57508360019596106105f7575b505050811b0160065560ff90565b01515f1960f88460031b161c191690555f80806105e9565b919260206001819286850151815501940192016105d6565b60065f52601f60205f20910160051c810190601f830160051c015b81811061064f5750610588565b5f8155600101610642565b90607f1690610576565b908151602081105f1461068f575090601f815111610517576020815191015160208210610508571790565b6001600160401b0381116103b957600754600181811c91168015610792575b602082101461039b57601f811161075f575b50602092601f82116001146106fe57928192935f926106f3575b50508160011b915f199060031b1c19161760075560ff90565b015190505f806106da565b601f1982169360075f52805f20915f5b868110610747575083600195961061072f575b505050811b0160075560ff90565b01515f1960f88460031b161c191690555f8080610721565b9192602060018192868501518155019401920161070e565b60075f52601f60205f20910160051c810190601f830160051c015b81811061078757506106c0565b5f815560010161077a565b90607f16906106ae56fe6080806040526004361015610012575f80fd5b5f3560e01c90816306fdde03146107ba57508063095ea7b31461079457806318160ddd1461077757806323b872dd1461073f578063313ce567146107245780633644e5151461070257806340c10f191461065657806342966c681461063957806370a0823114610602578063715018a6146105a757806379cc6790146105775780637ecebe001461053f57806384b0196e146104475780638da5cb5b1461041f57806395d89b411461033d578063a9059cbb1461030c578063d505accf146101c7578063dd62ed3e146101775763f2fde38b146100ed575f80fd5b3461017357602036600319011261017357610106610880565b61010e610c2a565b6001600160a01b0316801561016057600580546001600160a01b0319811683179091556001600160a01b03167f8be0079c531659141344cd1fd0a4f28419497f9722a3daafe3b4186f6b6457e05f80a3005b631e4fbdf760e01b5f525f60045260245ffd5b5f80fd5b3461017357604036600319011261017357610190610880565b610198610896565b6001600160a01b039182165f908152600160209081526040808320949093168252928352819020549051908152f35b346101735760e0366003190112610173576101e0610880565b6101e8610896565b604435906064359260843560ff81168103610173578442116102f9576102bc6102c59160018060a01b03841696875f52600860205260405f20908154916001830190556040519060208201927f6e71edae12b1b97f4d1f60370fef10105fa2faae0126114a169c64845d6126c984528a604084015260018060a01b038916606084015289608084015260a083015260c082015260c0815261028a60e082610965565b519020610295610b0e565b906040519161190160f01b83526002830152602282015260c43591604260a4359220610dd2565b90929192610e5f565b6001600160a01b03168481036102e257506102e09350610cd5565b005b84906325c0072360e11b5f5260045260245260445ffd5b8463313c898160e11b5f5260045260245ffd5b3461017357604036600319011261017357610332610328610880565b6024359033610a64565b602060405160018152f35b34610173575f366003190112610173576040515f60045461035d816108ac565b80845290600181169081156103fb575060011461039d575b6103998361038581850382610965565b60405191829160208352602083019061085c565b0390f35b60045f9081527f8a35acfbc15ff81a39ae7d344fd709f28e8600b4aa8c65c6b64bfe7fe36bd19b939250905b8082106103e157509091508101602001610385610375565b9192600181602092548385880101520191019092916103c9565b60ff191660208086019190915291151560051b840190910191506103859050610375565b34610173575f366003190112610173576005546040516001600160a01b039091168152602090f35b34610173575f366003190112610173576104e36104837f0000000000000000000000000000000000000000000000000000000000000000610d38565b6104ac7f0000000000000000000000000000000000000000000000000000000000000000610d9b565b60206104f1604051926104bf8385610965565b5f84525f368137604051958695600f60f81b875260e08588015260e087019061085c565b90858203604087015261085c565b4660608501523060808501525f60a085015283810360c08501528180845192838152019301915f5b82811061052857505050500390f35b835185528695509381019392810192600101610519565b34610173576020366003190112610173576001600160a01b03610560610880565b165f526008602052602060405f2054604051908152f35b34610173576040366003190112610173576102e0610593610880565b602435906105a282338361099b565b610c51565b34610173575f366003190112610173576105bf610c2a565b600580546001600160a01b031981169091555f906001600160a01b03167f8be0079c531659141344cd1fd0a4f28419497f9722a3daafe3b4186f6b6457e08280a3005b34610173576020366003190112610173576001600160a01b03610623610880565b165f525f602052602060405f2054604051908152f35b34610173576020366003190112610173576102e060043533610c51565b346101735760403660031901126101735761066f610880565b6024359061067b610c2a565b6001600160a01b03169081156106ef57600254908082018092116106db5760207fddf252ad1be2c89b69c2b068fc378daa952ba7f163c4a11628f55a4df523b3ef915f9360025584845283825260408420818154019055604051908152a3005b634e487b7160e01b5f52601160045260245ffd5b63ec442f0560e01b5f525f60045260245ffd5b34610173575f36600319011261017357602061071c610b0e565b604051908152f35b34610173575f36600319011261017357602060405160128152f35b346101735760603660031901126101735761033261075b610880565b610763610896565b6044359161077283338361099b565b610a64565b34610173575f366003190112610173576020600254604051908152f35b34610173576040366003190112610173576103326107b0610880565b6024359033610cd5565b34610173575f366003190112610173575f6003546107d7816108ac565b80845290600181169081156103fb57506001146107fe576103998361038581850382610965565b60035f9081527fc2575a0e9e593c00f959f8c92f12db2869c3395a3b0502d05e2516446f71f85b939250905b80821061084257509091508101602001610385610375565b91926001816020925483858801015201910190929161082a565b805180835260209291819084018484015e5f828201840152601f01601f1916010190565b600435906001600160a01b038216820361017357565b602435906001600160a01b038216820361017357565b90600182811c921680156108da575b60208310146108c657565b634e487b7160e01b5f52602260045260245ffd5b91607f16916108bb565b5f92918154916108f3836108ac565b8083529260018116908115610948575060011461090f57505050565b5f9081526020812093945091925b83831061092e575060209250010190565b60018160209294939454838587010152019101919061091d565b915050602093945060ff929192191683830152151560051b010190565b90601f8019910116810190811067ffffffffffffffff82111761098757604052565b634e487b7160e01b5f52604160045260245ffd5b6001600160a01b039081165f818152600160209081526040808320948616835293905291909120549291905f1984106109d5575b50505050565b828410610a41578015610a2e576001600160a01b03821615610a1b575f52600160205260405f209060018060a01b03165f5260205260405f20910390555f8080806109cf565b634a1406b160e11b5f525f60045260245ffd5b63e602df0560e01b5f525f60045260245ffd5b508290637dc7a0d960e11b5f5260018060a01b031660045260245260445260645ffd5b6001600160a01b0316908115610afb576001600160a01b03169182156106ef57815f525f60205260405f2054818110610ae257817fddf252ad1be2c89b69c2b068fc378daa952ba7f163c4a11628f55a4df523b3ef92602092855f525f84520360405f2055845f525f825260405f20818154019055604051908152a3565b8263391434e360e21b5f5260045260245260445260645ffd5b634b637e8f60e11b5f525f60045260245ffd5b307f00000000000000000000000000000000000000000000000000000000000000006001600160a01b03161480610c01575b15610b69577f000000000000000000000000000000000000000000000000000000000000000090565b60405160208101907f8b73c3c69bb8fe3d512ecc4cf759cc79239f7b179b0ffacaa9a75d522b39400f82527f000000000000000000000000000000000000000000000000000000000000000060408201527f000000000000000000000000000000000000000000000000000000000000000060608201524660808201523060a082015260a08152610bfb60c082610965565b51902090565b507f00000000000000000000000000000000000000000000000000000000000000004614610b40565b6005546001600160a01b03163303610c3e57565b63118cdaa760e01b5f523360045260245ffd5b9091906001600160a01b03168015610afb57805f525f60205260405f2054838110610cbb576020845f94957fddf252ad1be2c89b69c2b068fc378daa952ba7f163c4a11628f55a4df523b3ef938587528684520360408620558060025403600255604051908152a3565b915063391434e360e21b5f5260045260245260445260645ffd5b6001600160a01b0316908115610a2e576001600160a01b0316918215610a1b5760207f8c5be1e5ebec7d5bd14f71427d1e84f3dd0314c0f7b2291e5b200ac8c7c3b92591835f526001825260405f20855f5282528060405f2055604051908152a3565b60ff8114610d7e5760ff811690601f8211610d6f5760405191610d5c604084610965565b6020808452838101919036833783525290565b632cd44ac360e21b5f5260045ffd5b50604051610d9881610d918160066108e4565b0382610965565b90565b60ff8114610dbf5760ff811690601f8211610d6f5760405191610d5c604084610965565b50604051610d9881610d918160076108e4565b91907f7fffffffffffffffffffffffffffffff5d576e7357a4501ddfe92f46681b20a08411610e54579160209360809260ff5f9560405194855216868401526040830152606082015282805260015afa15610e49575f516001600160a01b03811615610e3f57905f905f90565b505f906001905f90565b6040513d5f823e3d90fd5b5050505f9160039190565b6004811015610ebf5780610e71575050565b60018103610e885763f645eedf60e01b5f5260045ffd5b60028103610ea3575063fce698f760e01b5f5260045260245ffd5b600314610ead5750565b6335e2f38360e21b5f5260045260245ffd5b634e487b7160e01b5f52602160045260245ffdfea2646970667358221220b68b0e09dd479b612f226972ae63a9d46293c787226e94a083ae0b12c4cfc69164736f6c634300081c0033","linkReferences":{}},"methodIdentifiers":{"DOMAIN_SEPARATOR()":"3644e515","allowance(address,address)":"dd62ed3e","approve(address,uint256)":"095ea7b3","balanceOf(address)":"70a08231","burn(uint256)":"42966c68","burnFrom(address,uint256)":"79cc6790","decimals()":"313ce567","eip712Domain()":"84b0196e","mint(address,uint256)":"40c10f19","name()":"06fdde03","nonces(address)":"7ecebe00","owner()":"8da5cb5b","permit(address,address,uint256,uint256,uint8,bytes32,bytes32)":"d505accf","renounceOwnership()":"715018a6","symbol()":"95d89b41","totalSupply()":"18160ddd","transfer(address,uint256)":"a9059cbb","transferFrom(address,address,uint256)":"23b872dd","transferOwnership(address)":"f2fde38b"},"id":22}