{"abi":[{"type":"constructor","inputs":[{"name":"_vrfCoordinator","type":"address","internalType":"address"},{"name":"_subscriptionId","type":"uint64","internalType":"uint64"},{"name":"_keyHash","type":"bytes32","internalType":"bytes32"},{"name":"_peridottroller","type":"address","internalType":"address"}],"stateMutability":"nonpayable"},{"type":"function","name":"MAX_LIQUIDATION_DELAY","inputs":[],"outputs":[{"name":"","type":"uint256","internalType":"uint256"}],"stateMutability":"view"},{"type":"function","name":"MIN_LIQUIDATION_DELAY","inputs":[],"outputs":[{"name":"","type":"uint256","internalType":"uint256"}],"stateMutability":"view"},{"type":"function","name":"authorizedCallers","inputs":[{"name":"","type":"address","internalType":"address"}],"outputs":[{"name":"","type":"bool","internalType":"bool"}],"stateMutability":"view"},{"type":"function","name":"emergencyCancel","inputs":[{"name":"requestId","type":"bytes32","internalType":"bytes32"}],"outputs":[],"stateMutability":"nonpayable"},{"type":"function","name":"getLiquidationRequest","inputs":[{"name":"requestId","type":"bytes32","internalType":"bytes32"}],"outputs":[{"name":"","type":"tuple","internalType":"struct PeridotVRFLiquidator.LiquidationRequest","components":[{"name":"borrower","type":"address","internalType":"address"},{"name":"pTokenBorrowed","type":"address","internalType":"address"},{"name":"pTokenCollateral","type":"address","internalType":"address"},{"name":"repayAmount","type":"uint256","internalType":"uint256"},{"name":"eligibleLiquidators","type":"address[]","internalType":"address[]"},{"name":"timestamp","type":"uint256","internalType":"uint256"},{"name":"fulfilled","type":"bool","internalType":"bool"}]}],"stateMutability":"view"},{"type":"function","name":"getLiquidatorCount","inputs":[],"outputs":[{"name":"","type":"uint256","internalType":"uint256"}],"stateMutability":"view"},{"type":"function","name":"liquidationRequests","inputs":[{"name":"","type":"bytes32","internalType":"bytes32"}],"outputs":[{"name":"borrower","type":"address","internalType":"address"},{"name":"pTokenBorrowed","type":"address","internalType":"address"},{"name":"pTokenCollateral","type":"address","internalType":"address"},{"name":"repayAmount","type":"uint256","internalType":"uint256"},{"name":"timestamp","type":"uint256","internalType":"uint256"},{"name":"fulfilled","type":"bool","internalType":"bool"}],"stateMutability":"view"},{"type":"function","name":"liquidatorList","inputs":[{"name":"","type":"uint256","internalType":"uint256"}],"outputs":[{"name":"","type":"address","internalType":"address"}],"stateMutability":"view"},{"type":"function","name":"owner","inputs":[],"outputs":[{"name":"","type":"address","internalType":"address"}],"stateMutability":"view"},{"type":"function","name":"peridottroller","inputs":[],"outputs":[{"name":"","type":"address","internalType":"contract PeridottrollerInterface"}],"stateMutability":"view"},{"type":"function","name":"rawFulfillRandomWords","inputs":[{"name":"requestId","type":"uint256","internalType":"uint256"},{"name":"randomWords","type":"uint256[]","internalType":"uint256[]"}],"outputs":[],"stateMutability":"nonpayable"},{"type":"function","name":"registerLiquidator","inputs":[],"outputs":[],"stateMutability":"nonpayable"},{"type":"function","name":"registeredLiquidators","inputs":[{"name":"","type":"address","internalType":"address"}],"outputs":[{"name":"","type":"bool","internalType":"bool"}],"stateMutability":"view"},{"type":"function","name":"requestFairLiquidation","inputs":[{"name":"_borrower","type":"address","internalType":"address"},{"name":"_pTokenBorrowed","type":"address","internalType":"address"},{"name":"_pTokenCollateral","type":"address","internalType":"address"},{"name":"_repayAmount","type":"uint256","internalType":"uint256"}],"outputs":[{"name":"requestId","type":"uint256","internalType":"uint256"}],"stateMutability":"nonpayable"},{"type":"function","name":"setAuthorizedCaller","inputs":[{"name":"caller","type":"address","internalType":"address"},{"name":"authorized","type":"bool","internalType":"bool"}],"outputs":[],"stateMutability":"nonpayable"},{"type":"function","name":"transferOwnership","inputs":[{"name":"newOwner","type":"address","internalType":"address"}],"outputs":[],"stateMutability":"nonpayable"},{"type":"function","name":"unregisterLiquidator","inputs":[],"outputs":[],"stateMutability":"nonpayable"},{"type":"event","name":"LiquidationExecuted","inputs":[{"name":"requestId","type":"bytes32","indexed":true,"internalType":"bytes32"},{"name":"borrower","type":"address","indexed":true,"internalType":"address"},{"name":"liquidator","type":"address","indexed":true,"internalType":"address"},{"name":"seizeTokens","type":"uint256","indexed":false,"internalType":"uint256"}],"anonymous":false},{"type":"event","name":"LiquidationRequested","inputs":[{"name":"requestId","type":"bytes32","indexed":true,"internalType":"bytes32"},{"name":"borrower","type":"address","indexed":true,"internalType":"address"},{"name":"pTokenBorrowed","type":"address","indexed":true,"internalType":"address"},{"name":"pTokenCollateral","type":"address","indexed":false,"internalType":"address"},{"name":"repayAmount","type":"uint256","indexed":false,"internalType":"uint256"}],"anonymous":false},{"type":"event","name":"LiquidatorRegistered","inputs":[{"name":"liquidator","type":"address","indexed":true,"internalType":"address"}],"anonymous":false},{"type":"event","name":"LiquidatorSelected","inputs":[{"name":"requestId","type":"bytes32","indexed":true,"internalType":"bytes32"},{"name":"borrower","type":"address","indexed":true,"internalType":"address"},{"name":"selectedLiquidator","type":"address","indexed":true,"internalType":"address"},{"name":"randomness","type":"uint256","indexed":false,"internalType":"uint256"}],"anonymous":false},{"type":"event","name":"LiquidatorUnregistered","inputs":[{"name":"liquidator","type":"address","indexed":true,"internalType":"address"}],"anonymous":false},{"type":"error","name":"OnlyCoordinatorCanFulfill","inputs":[{"name":"have","type":"address","internalType":"address"},{"name":"want","type":"address","internalType":"address"}]}],"bytecode":{"object":"0x610120346100f257601f61137138819003918201601f19168301916001600160401b038311848410176100f6578084926080946040528339810103126100f2576100488161010a565b60208201519091906001600160401b03811681036100f25761007160606040840151930161010a565b60808490526001600160a01b0393841660a05260c09190915260e0919091521661010052600380546001600160a01b03191633179055604051611252908161011f823960805181610d09015260a05181610832015260c051816107e3015260e051816107bd01526101005181818161028a015281816107790152610e550152f35b5f80fd5b634e487b7160e01b5f52604160045260245ffd5b51906001600160a01b03821682036100f25756fe6080806040526004361015610012575f80fd5b5f3560e01c90816303db2b36146110d457508063163d3323146110925780631fe543e314610c8a578063454bbd2914610c2657806345ef118f14610ba15780634e359958146106c4578063536fff6c146106875780638d493641146104d65780638da5cb5b146104ae5780639272ac471461032e578063a0399887146102f1578063add0989d146102d6578063b0769cac146102b9578063c423fe2914610275578063d983ec6e14610185578063f1076b25146101695763f2fde38b146100d7575f80fd5b34610165576020366003190112610165576100f06111a3565b60035490610108336001600160a01b038416146111b9565b6001600160a01b0316908115610128576001600160a01b03191617600355005b60405162461bcd60e51b8152602060048201526015602482015274496e76616c6964206f776e6572206164647265737360581b6044820152606490fd5b5f80fd5b34610165575f3660031901126101655760206040516102588152f35b34610165575f36600319011261016557335f52600160205260ff60405f20541661023b57335f52600160205260405f20600160ff19825416179055600254600160401b811015610227576101e2816001610200930160025561114d565b81546001600160a01b0360039290921b91821b19163390911b179055565b337f147270b607bb55cce19da6ecd1569d5d71e9638c59dc52ae16f6c456a255d5995f80a2005b634e487b7160e01b5f52604160045260245ffd5b60405162461bcd60e51b8152602060048201526012602482015271105b1c9958591e481c9959da5cdd195c995960721b6044820152606490fd5b34610165575f366003190112610165576040517f00000000000000000000000000000000000000000000000000000000000000006001600160a01b03168152602090f35b34610165575f366003190112610165576020600254604051908152f35b34610165575f366003190112610165576020604051603c8152f35b34610165576020366003190112610165576001600160a01b036103126111a3565b165f526001602052602060ff60405f2054166040519015158152f35b34610165575f36600319011261016557335f52600160205260ff60405f2054161561047857335f52600160205260405f2060ff1981541690555f5b60025490818110156104715761037e8161114d565b905460039190911b1c6001600160a01b031633146103a0576001915001610369565b5f19820191821161045d576103d26103ba6103f69361114d565b905460039190911b1c6001600160a01b03169161114d565b81546001600160a01b0393841660039290921b91821b9390911b1916919091179055565b6002548015610449575f190161040b8161114d565b81549060018060a01b039060031b1b191690556002555b337f52286fa80e275941d688cacab4ad042c210df07a6c25274969de789f971b94c85f80a2005b634e487b7160e01b5f52603160045260245ffd5b634e487b7160e01b5f52601160045260245ffd5b5050610422565b60405162461bcd60e51b815260206004820152600e60248201526d139bdd081c9959da5cdd195c995960921b6044820152606490fd5b34610165575f366003190112610165576003546040516001600160a01b039091168152602090f35b34610165576020366003190112610165575f60c06040516104f681611165565b828152826020820152826040820152826060820152606060808201528260a082015201526004355f525f60205260405f206040519061053482611165565b80546001600160a01b0390811683526001820154811660208085019182526002840154909216604080860191825260038501546060870190815290516004860180548083525f91825286822095979694959294859290830191905b8181106106655750506105a492500383611181565b6080860191825260ff600660058601549560a089019687520154169260c087019315158452604051956020875261010087019760018060a01b03905116602088015260018060a01b03905116604087015260018060a01b039051166060860152516080850152519160e060a085015282518095526020610120850193015f955b8087106106425750508394505160c084015251151560e08301520390f35b81516001600160a01b031685526001969096019560209485019490910190610624565b84546001600160a01b031683526001948501948794506020909301920161058f565b34610165576020366003190112610165576001600160a01b036106a86111a3565b165f526004602052602060ff60405f2054166040519015158152f35b34610165576080366003190112610165576106dd6111a3565b6024356001600160a01b03811690819003610165576044356001600160a01b03811691908290036101655760643592335f52600460205260ff60405f2054168015610b8d575b15610b3c5760025415610af757604051632fe3f38f60e11b815260048101839052602481018490523360448201526001600160a01b03918216606482018190526084820186905291602090829060a49082905f907f0000000000000000000000000000000000000000000000000000000000000000165af1908115610a75575f91610ac5575b50610a80576040516305d3b1d360e41b81527f000000000000000000000000000000000000000000000000000000000000000060048201527f000000000000000000000000000000000000000000000000000000000000000067ffffffffffffffff166024820152600360448201526207a1206064820152600160848201529260208460a4815f7f00000000000000000000000000000000000000000000000000000000000000006001600160a01b03165af1938415610a75575f94610a41575b506040519461087886611165565b82865260208601958487526040810196838852606082019783895260405198600254808b528a6020810160025f5260205f20925f5b818110610a1f5750506108c29250038b611181565b60808401998a524260a085019081525f60c086018181528b825260208290526040909120955186546001600160a01b03199081166001600160a01b03928316178855955160018801805488169183169190911790559351600287018054909616941693909317909355516003840155975180516004840199929167ffffffffffffffff821161022757600160401b8211610227578a54828c558083106109f9575b50602001995f5260205f20995f905b8282106109dc5750505060209850926109ca60409360068a97947f27229d9ccb70af2a7d764f718fff343705d9885871d78ef86994931bf8d843b39751600584015551151591019060ff801983541691151516179055565b825191825288820152a4604051908152f35b80516001600160a01b03168c830155600190910190602001610972565b8b5f528260205f2091820191015b818110610a145750610963565b5f8155600101610a07565b84546001600160a01b031683526001948501948f9450602090930192016108ad565b9093506020813d602011610a6d575b81610a5d60209383611181565b810103126101655751928561086a565b3d9150610a50565b6040513d5f823e3d90fd5b60405162461bcd60e51b815260206004820152601760248201527f4c69717569646174696f6e206e6f7420616c6c6f7765640000000000000000006044820152606490fd5b90506020813d602011610aef575b81610ae060209383611181565b810103126101655751856107a9565b3d9150610ad3565b60405162461bcd60e51b815260206004820152601960248201527f4e6f2072656769737465726564206c697175696461746f7273000000000000006044820152606490fd5b60405162461bcd60e51b8152602060048201526024808201527f4e6f7420617574686f72697a656420746f2063616c6c20746869732066756e636044820152633a34b7b760e11b6064820152608490fd5b506003546001600160a01b03163314610723565b3461016557602036600319011261016557610bc760018060a01b036003541633146111b9565b6004355f525f60205260405f205f81555f60018201555f60028201555f6003820155600481018054905f815581610c08575b5f600584018190556006840155005b5f5260205f20908101905b81811015610bf9575f8155600101610c13565b3461016557604036600319011261016557610c3f6111a3565b602435801515810361016557610c8891610c6460018060a01b036003541633146111b9565b60018060a01b03165f52600460205260405f209060ff801983541691151516179055565b005b346101655760403660031901126101655760243560043567ffffffffffffffff821161016557366023830112156101655781600401359167ffffffffffffffff8311610227578260051b60405193610ce56020830186611181565b8452602460208501918301019136831161016557602401905b8282106110825750507f00000000000000000000000000000000000000000000000000000000000000006001600160a01b031690503381900361106c5750805f525f60205260405f20600681019283549160ff831661102757600481019485548015610fe257610d6d8461120f565b51068654811015610fce575f968752602096879020015460ff199094166001179055546001600160a01b03928316948593919091169184917fdef9d8812e29b68ef831f861aa83ba142a330aba5b8390f33b4af4189152287491610dd09061120f565b51604051908152a4805f525f60205260405f20906005820154603c810180821161045d574210610f8957610258810180911161045d574211610f44576001820154600283015460038401546040805163c488847b60e01b81526001600160a01b03948516600482015292841660248401526044830191909152909391849060649082907f0000000000000000000000000000000000000000000000000000000000000000165afa928315610a75575f905f94610f0a575b50610ec557546040519283526001600160a01b0316917ff989cf1d6fe6c90cdbaeb71d76a11a8b8d14ede5d487e4040713f2a200d2ebda90602090a4005b60405162461bcd60e51b815260206004820152601860248201527f5365697a652063616c63756c6174696f6e206661696c656400000000000000006044820152606490fd5b9350506040833d604011610f3c575b81610f2660409383611181565b8101031261016557602083519301519285610e87565b3d9150610f19565b60405162461bcd60e51b815260206004820152601a60248201527f4c69717569646174696f6e2077696e646f7720657870697265640000000000006044820152606490fd5b60405162461bcd60e51b815260206004820152601960248201527f4c69717569646174696f6e2064656c6179206e6f74206d6574000000000000006044820152606490fd5b634e487b7160e01b5f52603260045260245ffd5b60405162461bcd60e51b815260206004820152601760248201527f4e6f20656c696769626c65206c697175696461746f72730000000000000000006044820152606490fd5b60405162461bcd60e51b815260206004820152601960248201527f5265717565737420616c72656164792066756c66696c6c6564000000000000006044820152606490fd5b63073e64fd60e21b5f523360045260245260445ffd5b8135815260209182019101610cfe565b3461016557602036600319011261016557600435600254811015610165576110bb60209161114d565b905460405160039290921b1c6001600160a01b03168152f35b346101655760203660031901126101655760c0906004355f525f60205260405f2060018060a01b038154169060018060a01b0360018201541660018060a01b0360028301541660038301549160ff60066005860154950154169486526020860152604085015260608401526080830152151560a0820152f35b600254811015610fce5760025f5260205f2001905f90565b60e0810190811067ffffffffffffffff82111761022757604052565b90601f8019910116810190811067ffffffffffffffff82111761022757604052565b600435906001600160a01b038216820361016557565b156111c057565b60405162461bcd60e51b815260206004820152602160248201527f4f6e6c79206f776e65722063616e2063616c6c20746869732066756e6374696f6044820152603760f91b6064820152608490fd5b805115610fce576020019056fea26469706673582212200ae5d827e52cbafc75d77369ab0d319f4a826d67d7d3427c616267a31549ccda64736f6c634300081b0033","linkReferences":{}},"methodIdentifiers":{"MAX_LIQUIDATION_DELAY()":"f1076b25","MIN_LIQUIDATION_DELAY()":"add0989d","authorizedCallers(address)":"536fff6c","emergencyCancel(bytes32)":"45ef118f","getLiquidationRequest(bytes32)":"8d493641","getLiquidatorCount()":"b0769cac","liquidationRequests(bytes32)":"03db2b36","liquidatorList(uint256)":"163d3323","owner()":"8da5cb5b","peridottroller()":"c423fe29","rawFulfillRandomWords(uint256,uint256[])":"1fe543e3","registerLiquidator()":"d983ec6e","registeredLiquidators(address)":"a0399887","requestFairLiquidation(address,address,address,uint256)":"4e359958","setAuthorizedCaller(address,bool)":"454bbd29","transferOwnership(address)":"f2fde38b","unregisterLiquidator()":"9272ac47"},"id":44}