{"abi":[{"type":"constructor","inputs":[{"name":"_vrfCoordinator","type":"address","internalType":"address"},{"name":"_subscriptionId","type":"uint64","internalType":"uint64"},{"name":"_keyHash","type":"bytes32","internalType":"bytes32"},{"name":"_peridottroller","type":"address","internalType":"address"}],"stateMutability":"nonpayable"},{"type":"function","name":"MAX_LIQUIDATION_DELAY","inputs":[],"outputs":[{"name":"","type":"uint256","internalType":"uint256"}],"stateMutability":"view"},{"type":"function","name":"MIN_LIQUIDATION_DELAY","inputs":[],"outputs":[{"name":"","type":"uint256","internalType":"uint256"}],"stateMutability":"view"},{"type":"function","name":"authorizedCallers","inputs":[{"name":"","type":"address","internalType":"address"}],"outputs":[{"name":"","type":"bool","internalType":"bool"}],"stateMutability":"view"},{"type":"function","name":"emergencyCancel","inputs":[{"name":"requestId","type":"bytes32","internalType":"bytes32"}],"outputs":[],"stateMutability":"nonpayable"},{"type":"function","name":"getLiquidationRequest","inputs":[{"name":"requestId","type":"bytes32","internalType":"bytes32"}],"outputs":[{"name":"","type":"tuple","internalType":"struct PeridotVRFLiquidator.LiquidationRequest","components":[{"name":"borrower","type":"address","internalType":"address"},{"name":"pTokenBorrowed","type":"address","internalType":"address"},{"name":"pTokenCollateral","type":"address","internalType":"address"},{"name":"repayAmount","type":"uint256","internalType":"uint256"},{"name":"eligibleLiquidators","type":"address[]","internalType":"address[]"},{"name":"timestamp","type":"uint256","internalType":"uint256"},{"name":"fulfilled","type":"bool","internalType":"bool"}]}],"stateMutability":"view"},{"type":"function","name":"getLiquidatorCount","inputs":[],"outputs":[{"name":"","type":"uint256","internalType":"uint256"}],"stateMutability":"view"},{"type":"function","name":"liquidationRequests","inputs":[{"name":"","type":"bytes32","internalType":"bytes32"}],"outputs":[{"name":"borrower","type":"address","internalType":"address"},{"name":"pTokenBorrowed","type":"address","internalType":"address"},{"name":"pTokenCollateral","type":"address","internalType":"address"},{"name":"repayAmount","type":"uint256","internalType":"uint256"},{"name":"timestamp","type":"uint256","internalType":"uint256"},{"name":"fulfilled","type":"bool","internalType":"bool"}],"stateMutability":"view"},{"type":"function","name":"liquidatorList","inputs":[{"name":"","type":"uint256","internalType":"uint256"}],"outputs":[{"name":"","type":"address","internalType":"address"}],"stateMutability":"view"},{"type":"function","name":"owner","inputs":[],"outputs":[{"name":"","type":"address","internalType":"address"}],"stateMutability":"view"},{"type":"function","name":"peridottroller","inputs":[],"outputs":[{"name":"","type":"address","internalType":"contract PeridottrollerInterface"}],"stateMutability":"view"},{"type":"function","name":"rawFulfillRandomWords","inputs":[{"name":"requestId","type":"uint256","internalType":"uint256"},{"name":"randomWords","type":"uint256[]","internalType":"uint256[]"}],"outputs":[],"stateMutability":"nonpayable"},{"type":"function","name":"registerLiquidator","inputs":[],"outputs":[],"stateMutability":"nonpayable"},{"type":"function","name":"registeredLiquidators","inputs":[{"name":"","type":"address","internalType":"address"}],"outputs":[{"name":"","type":"bool","internalType":"bool"}],"stateMutability":"view"},{"type":"function","name":"requestFairLiquidation","inputs":[{"name":"_borrower","type":"address","internalType":"address"},{"name":"_pTokenBorrowed","type":"address","internalType":"address"},{"name":"_pTokenCollateral","type":"address","internalType":"address"},{"name":"_repayAmount","type":"uint256","internalType":"uint256"}],"outputs":[{"name":"requestId","type":"uint256","internalType":"uint256"}],"stateMutability":"nonpayable"},{"type":"function","name":"setAuthorizedCaller","inputs":[{"name":"caller","type":"address","internalType":"address"},{"name":"authorized","type":"bool","internalType":"bool"}],"outputs":[],"stateMutability":"nonpayable"},{"type":"function","name":"transferOwnership","inputs":[{"name":"newOwner","type":"address","internalType":"address"}],"outputs":[],"stateMutability":"nonpayable"},{"type":"function","name":"unregisterLiquidator","inputs":[],"outputs":[],"stateMutability":"nonpayable"},{"type":"event","name":"LiquidationExecuted","inputs":[{"name":"requestId","type":"bytes32","indexed":true,"internalType":"bytes32"},{"name":"borrower","type":"address","indexed":true,"internalType":"address"},{"name":"liquidator","type":"address","indexed":true,"internalType":"address"},{"name":"seizeTokens","type":"uint256","indexed":false,"internalType":"uint256"}],"anonymous":false},{"type":"event","name":"LiquidationRequested","inputs":[{"name":"requestId","type":"bytes32","indexed":true,"internalType":"bytes32"},{"name":"borrower","type":"address","indexed":true,"internalType":"address"},{"name":"pTokenBorrowed","type":"address","indexed":true,"internalType":"address"},{"name":"pTokenCollateral","type":"address","indexed":false,"internalType":"address"},{"name":"repayAmount","type":"uint256","indexed":false,"internalType":"uint256"}],"anonymous":false},{"type":"event","name":"LiquidatorRegistered","inputs":[{"name":"liquidator","type":"address","indexed":true,"internalType":"address"}],"anonymous":false},{"type":"event","name":"LiquidatorSelected","inputs":[{"name":"requestId","type":"bytes32","indexed":true,"internalType":"bytes32"},{"name":"borrower","type":"address","indexed":true,"internalType":"address"},{"name":"selectedLiquidator","type":"address","indexed":true,"internalType":"address"},{"name":"randomness","type":"uint256","indexed":false,"internalType":"uint256"}],"anonymous":false},{"type":"event","name":"LiquidatorUnregistered","inputs":[{"name":"liquidator","type":"address","indexed":true,"internalType":"address"}],"anonymous":false},{"type":"error","name":"OnlyCoordinatorCanFulfill","inputs":[{"name":"have","type":"address","internalType":"address"},{"name":"want","type":"address","internalType":"address"}]}],"bytecode":{"object":"0x610120604052348015610010575f5ffd5b5060405161160a38038061160a83398101604081905261002f9161008a565b6001600160a01b03938416608081905260a0526001600160401b0390921660c05260e0521661010052600380546001600160a01b031916331790556100e3565b80516001600160a01b0381168114610085575f5ffd5b919050565b5f5f5f5f6080858703121561009d575f5ffd5b6100a68561006f565b60208601519094506001600160401b03811681146100c2575f5ffd5b604086015190935091506100d86060860161006f565b905092959194509250565b60805160a05160c05160e051610100516114d56101355f395f81816102cb015281816105ac0152610f7f01525f61067701525f6106a601525f6106e401525f8181610344015261038601526114d55ff3fe608060405234801561000f575f5ffd5b5060043610610106575f3560e01c80638da5cb5b1161009e578063b0769cac1161006e578063b0769cac146102be578063c423fe29146102c6578063d983ec6e146102ed578063f1076b25146102f5578063f2fde38b146102fe575f5ffd5b80638da5cb5b146102795780639272ac471461028c578063a039988714610294578063add0989d146102b6575f5ffd5b806345ef118f116100d957806345ef118f146101f35780634e35995814610206578063536fff6c146102275780638d49364114610259575f5ffd5b806303db2b361461010a578063163d3323146101a05780631fe543e3146101cb578063454bbd29146101e0575b5f5ffd5b61015d61011836600461111d565b5f602081905290815260409020805460018201546002830154600384015460058501546006909501546001600160a01b03948516959385169490921692909160ff1686565b604080516001600160a01b039788168152958716602087015293909516928401929092526060830152608082015290151560a082015260c0015b60405180910390f35b6101b36101ae36600461111d565b610311565b6040516001600160a01b039091168152602001610197565b6101de6101d9366004611148565b610339565b005b6101de6101ee366004611237565b6103c6565b6101de61020136600461111d565b61041a565b610219610214366004611270565b6104a0565b604051908152602001610197565b6102496102353660046112b8565b60046020525f908152604090205460ff1681565b6040519015158152602001610197565b61026c61026736600461111d565b6108f0565b604051610197919061131b565b6003546101b3906001600160a01b031681565b6101de6109ec565b6102496102a23660046112b8565b60016020525f908152604090205460ff1681565b610219603c81565b600254610219565b6101b37f000000000000000000000000000000000000000000000000000000000000000081565b6101de610b73565b61021961025881565b6101de61030c3660046112b8565b610c48565b60028181548110610320575f80fd5b5f918252602090912001546001600160a01b0316905081565b336001600160a01b037f000000000000000000000000000000000000000000000000000000000000000016146103b85760405163073e64fd60e21b81523360048201526001600160a01b037f00000000000000000000000000000000000000000000000000000000000000001660248201526044015b60405180910390fd5b6103c28282610ce2565b5050565b6003546001600160a01b031633146103f05760405162461bcd60e51b81526004016103af9061139e565b6001600160a01b03919091165f908152600460205260409020805460ff1916911515919091179055565b6003546001600160a01b031633146104445760405162461bcd60e51b81526004016103af9061139e565b5f81815260208190526040812080546001600160a01b03199081168255600182018054821690556002820180549091169055600381018290559061048b6004830182611088565b505f6005820155600601805460ff1916905550565b335f9081526004602052604081205460ff16806104c757506003546001600160a01b031633145b61051f5760405162461bcd60e51b8152602060048201526024808201527f4e6f7420617574686f72697a656420746f2063616c6c20746869732066756e636044820152633a34b7b760e11b60648201526084016103af565b60025461056e5760405162461bcd60e51b815260206004820152601960248201527f4e6f2072656769737465726564206c697175696461746f72730000000000000060448201526064016103af565b604051632fe3f38f60e11b81526001600160a01b03858116600483015284811660248301523360448301528681166064830152608482018490525f917f000000000000000000000000000000000000000000000000000000000000000090911690635fc7e71e9060a4016020604051808303815f875af11580156105f4573d5f5f3e3d5ffd5b505050506040513d601f19601f8201168201806040525081019061061891906113df565b905080156106685760405162461bcd60e51b815260206004820152601760248201527f4c69717569646174696f6e206e6f7420616c6c6f77656400000000000000000060448201526064016103af565b6040516305d3b1d360e41b81527f0000000000000000000000000000000000000000000000000000000000000000600482015267ffffffffffffffff7f0000000000000000000000000000000000000000000000000000000000000000166024820152600360448201526207a1206064820152600160848201527f00000000000000000000000000000000000000000000000000000000000000006001600160a01b031690635d3b1d309060a4016020604051808303815f875af1158015610732573d5f5f3e3d5ffd5b505050506040513d601f19601f8201168201806040525081019061075691906113df565b91506040518060e00160405280876001600160a01b03168152602001866001600160a01b03168152602001856001600160a01b0316815260200184815260200160028054806020026020016040519081016040528092919081815260200182805480156107ea57602002820191905f5260205f20905b81546001600160a01b031681526001909101906020018083116107cc575b5050509183525050426020808301919091525f6040928301819052858152808252829020835181546001600160a01b03199081166001600160a01b0392831617835585840151600184018054831691841691909117905593850151600283018054909516911617909255606083015160038301556080830151805161087592600485019201906110a6565b5060a0820151600582015560c0909101516006909101805460ff1916911515919091179055604080516001600160a01b03868116825260208201869052878116929089169185917f27229d9ccb70af2a7d764f718fff343705d9885871d78ef86994931bf8d843b3910160405180910390a450949350505050565b6040805160e0810182525f808252602082018190529181018290526060808201839052608082015260a0810182905260c08101919091525f8281526020818152604091829020825160e08101845281546001600160a01b0390811682526001830154811682850152600283015416818501526003820154606082015260048201805485518186028101860190965280865291949293608086019392908301828280156109c357602002820191905f5260205f20905b81546001600160a01b031681526001909101906020018083116109a5575b50505091835250506005820154602082015260069091015460ff16151560409091015292915050565b335f9081526001602052604090205460ff16610a3b5760405162461bcd60e51b815260206004820152600e60248201526d139bdd081c9959da5cdd195c995960921b60448201526064016103af565b335f908152600160205260408120805460ff191690555b600254811015610b4657336001600160a01b031660028281548110610a7957610a796113f6565b5f918252602090912001546001600160a01b031603610b3e5760028054610aa29060019061141e565b81548110610ab257610ab26113f6565b5f91825260209091200154600280546001600160a01b039092169183908110610add57610add6113f6565b905f5260205f20015f6101000a8154816001600160a01b0302191690836001600160a01b031602179055506002805480610b1957610b19611437565b5f8281526020902081015f1990810180546001600160a01b0319169055019055610b46565b600101610a52565b5060405133907f52286fa80e275941d688cacab4ad042c210df07a6c25274969de789f971b94c8905f90a2565b335f9081526001602052604090205460ff1615610bc75760405162461bcd60e51b8152602060048201526012602482015271105b1c9958591e481c9959da5cdd195c995960721b60448201526064016103af565b335f818152600160208190526040808320805460ff19168317905560028054928301815583527f405787fa12a823e0f2b7631cc41b3ba8828b3321ca811111fa75cd3aa3bb5ace90910180546001600160a01b03191684179055517f147270b607bb55cce19da6ecd1569d5d71e9638c59dc52ae16f6c456a255d5999190a2565b6003546001600160a01b03163314610c725760405162461bcd60e51b81526004016103af9061139e565b6001600160a01b038116610cc05760405162461bcd60e51b8152602060048201526015602482015274496e76616c6964206f776e6572206164647265737360581b60448201526064016103af565b600380546001600160a01b0319166001600160a01b0392909216919091179055565b5f828152602081905260409020600681015483919060ff1615610d475760405162461bcd60e51b815260206004820152601960248201527f5265717565737420616c72656164792066756c66696c6c65640000000000000060448201526064016103af565b6004810154610d985760405162461bcd60e51b815260206004820152601760248201527f4e6f20656c696769626c65206c697175696461746f727300000000000000000060448201526064016103af565b5f8160040180549050845f81518110610db357610db36113f6565b6020026020010151610dc5919061144b565b90505f826004018281548110610ddd57610ddd6113f6565b5f91825260208220015460068501805460ff19166001179055845487516001600160a01b0392831694508493919092169187917fdef9d8812e29b68ef831f861aa83ba142a330aba5b8390f33b4af41891522874918a9190610e4157610e416113f6565b6020026020010151604051610e5891815260200190565b60405180910390a4610e6a8482610e72565b505050505050565b5f8281526020819052604090206005810154610e9090603c9061146a565b421015610edf5760405162461bcd60e51b815260206004820152601960248201527f4c69717569646174696f6e2064656c6179206e6f74206d65740000000000000060448201526064016103af565b6102588160050154610ef1919061146a565b421115610f405760405162461bcd60e51b815260206004820152601a60248201527f4c69717569646174696f6e2077696e646f77206578706972656400000000000060448201526064016103af565b60018101546002820154600383015460405163c488847b60e01b81526001600160a01b039384166004820152918316602483015260448201525f9182917f00000000000000000000000000000000000000000000000000000000000000009091169063c488847b906064016040805180830381865afa158015610fc5573d5f5f3e3d5ffd5b505050506040513d601f19601f82011682018060405250810190610fe9919061147d565b91509150815f1461103c5760405162461bcd60e51b815260206004820152601860248201527f5365697a652063616c63756c6174696f6e206661696c6564000000000000000060448201526064016103af565b82546040518281526001600160a01b0386811692169087907ff989cf1d6fe6c90cdbaeb71d76a11a8b8d14ede5d487e4040713f2a200d2ebda9060200160405180910390a45050505050565b5080545f8255905f5260205f20908101906110a39190611109565b50565b828054828255905f5260205f209081019282156110f9579160200282015b828111156110f957825182546001600160a01b0319166001600160a01b039091161782556020909201916001909101906110c4565b50611105929150611109565b5090565b5b80821115611105575f815560010161110a565b5f6020828403121561112d575f5ffd5b5035919050565b634e487b7160e01b5f52604160045260245ffd5b5f5f60408385031215611159575f5ffd5b82359150602083013567ffffffffffffffff811115611176575f5ffd5b8301601f81018513611186575f5ffd5b803567ffffffffffffffff8111156111a0576111a0611134565b8060051b604051601f19603f830116810181811067ffffffffffffffff821117156111cd576111cd611134565b6040529182526020818401810192908101888411156111ea575f5ffd5b6020850194505b8385101561120d578435808252602095860195909350016111f1565b50809450505050509250929050565b80356001600160a01b0381168114611232575f5ffd5b919050565b5f5f60408385031215611248575f5ffd5b6112518361121c565b915060208301358015158114611265575f5ffd5b809150509250929050565b5f5f5f5f60808587031215611283575f5ffd5b61128c8561121c565b935061129a6020860161121c565b92506112a86040860161121c565b9396929550929360600135925050565b5f602082840312156112c8575f5ffd5b6112d18261121c565b9392505050565b5f8151808452602084019350602083015f5b828110156113115781516001600160a01b03168652602095860195909101906001016112ea565b5093949350505050565b6020815260018060a01b03825116602082015260018060a01b03602083015116604082015260018060a01b036040830151166060820152606082015160808201525f608083015160e060a08401526113776101008401826112d8565b905060a084015160c084015260c084015161139660e085018215159052565b509392505050565b60208082526021908201527f4f6e6c79206f776e65722063616e2063616c6c20746869732066756e6374696f6040820152603760f91b606082015260800190565b5f602082840312156113ef575f5ffd5b5051919050565b634e487b7160e01b5f52603260045260245ffd5b634e487b7160e01b5f52601160045260245ffd5b818103818111156114315761143161140a565b92915050565b634e487b7160e01b5f52603160045260245ffd5b5f8261146557634e487b7160e01b5f52601260045260245ffd5b500690565b808201808211156114315761143161140a565b5f5f6040838503121561148e575f5ffd5b50508051602090910151909290915056fea2646970667358221220b7275351716701be9ee4d74e79a3b7da0ef58150a6647f0189b3df5f3334513364736f6c634300081b0033","linkReferences":{}},"methodIdentifiers":{"MAX_LIQUIDATION_DELAY()":"f1076b25","MIN_LIQUIDATION_DELAY()":"add0989d","authorizedCallers(address)":"536fff6c","emergencyCancel(bytes32)":"45ef118f","getLiquidationRequest(bytes32)":"8d493641","getLiquidatorCount()":"b0769cac","liquidationRequests(bytes32)":"03db2b36","liquidatorList(uint256)":"163d3323","owner()":"8da5cb5b","peridottroller()":"c423fe29","rawFulfillRandomWords(uint256,uint256[])":"1fe543e3","registerLiquidator()":"d983ec6e","registeredLiquidators(address)":"a0399887","requestFairLiquidation(address,address,address,uint256)":"4e359958","setAuthorizedCaller(address,bool)":"454bbd29","transferOwnership(address)":"f2fde38b","unregisterLiquidator()":"9272ac47"},"id":1}