{"abi":[{"type":"constructor","inputs":[{"name":"underlying_","type":"address","internalType":"address"},{"name":"peridottroller_","type":"address","internalType":"contract PeridottrollerInterface"},{"name":"interestRateModel_","type":"address","internalType":"contract InterestRateModel"},{"name":"initialExchangeRateMantissa_","type":"uint256","internalType":"uint256"},{"name":"name_","type":"string","internalType":"string"},{"name":"symbol_","type":"string","internalType":"string"},{"name":"decimals_","type":"uint8","internalType":"uint8"},{"name":"admin_","type":"address","internalType":"address payable"},{"name":"implementation_","type":"address","internalType":"address"},{"name":"becomeImplementationData","type":"bytes","internalType":"bytes"}],"stateMutability":"nonpayable"},{"type":"fallback","stateMutability":"payable"},{"type":"function","name":"_acceptAdmin","inputs":[],"outputs":[{"name":"","type":"uint256","internalType":"uint256"}],"stateMutability":"nonpayable"},{"type":"function","name":"_addReserves","inputs":[{"name":"addAmount","type":"uint256","internalType":"uint256"}],"outputs":[{"name":"","type":"uint256","internalType":"uint256"}],"stateMutability":"nonpayable"},{"type":"function","name":"_reduceReserves","inputs":[{"name":"reduceAmount","type":"uint256","internalType":"uint256"}],"outputs":[{"name":"","type":"uint256","internalType":"uint256"}],"stateMutability":"nonpayable"},{"type":"function","name":"_setImplementation","inputs":[{"name":"implementation_","type":"address","internalType":"address"},{"name":"allowResign","type":"bool","internalType":"bool"},{"name":"becomeImplementationData","type":"bytes","internalType":"bytes"}],"outputs":[],"stateMutability":"nonpayable"},{"type":"function","name":"_setInterestRateModel","inputs":[{"name":"newInterestRateModel","type":"address","internalType":"contract InterestRateModel"}],"outputs":[{"name":"","type":"uint256","internalType":"uint256"}],"stateMutability":"nonpayable"},{"type":"function","name":"_setPendingAdmin","inputs":[{"name":"newPendingAdmin","type":"address","internalType":"address payable"}],"outputs":[{"name":"","type":"uint256","internalType":"uint256"}],"stateMutability":"nonpayable"},{"type":"function","name":"_setPeridottroller","inputs":[{"name":"newPeridottroller","type":"address","internalType":"contract PeridottrollerInterface"}],"outputs":[{"name":"","type":"uint256","internalType":"uint256"}],"stateMutability":"nonpayable"},{"type":"function","name":"_setReserveFactor","inputs":[{"name":"newReserveFactorMantissa","type":"uint256","internalType":"uint256"}],"outputs":[{"name":"","type":"uint256","internalType":"uint256"}],"stateMutability":"nonpayable"},{"type":"function","name":"accrualBlockNumber","inputs":[],"outputs":[{"name":"","type":"uint256","internalType":"uint256"}],"stateMutability":"view"},{"type":"function","name":"accrueInterest","inputs":[],"outputs":[{"name":"","type":"uint256","internalType":"uint256"}],"stateMutability":"nonpayable"},{"type":"function","name":"admin","inputs":[],"outputs":[{"name":"","type":"address","internalType":"address payable"}],"stateMutability":"view"},{"type":"function","name":"allowance","inputs":[{"name":"owner","type":"address","internalType":"address"},{"name":"spender","type":"address","internalType":"address"}],"outputs":[{"name":"","type":"uint256","internalType":"uint256"}],"stateMutability":"view"},{"type":"function","name":"approve","inputs":[{"name":"spender","type":"address","internalType":"address"},{"name":"amount","type":"uint256","internalType":"uint256"}],"outputs":[{"name":"","type":"bool","internalType":"bool"}],"stateMutability":"nonpayable"},{"type":"function","name":"balanceOf","inputs":[{"name":"owner","type":"address","internalType":"address"}],"outputs":[{"name":"","type":"uint256","internalType":"uint256"}],"stateMutability":"view"},{"type":"function","name":"balanceOfUnderlying","inputs":[{"name":"owner","type":"address","internalType":"address"}],"outputs":[{"name":"","type":"uint256","internalType":"uint256"}],"stateMutability":"nonpayable"},{"type":"function","name":"borrow","inputs":[{"name":"borrowAmount","type":"uint256","internalType":"uint256"}],"outputs":[{"name":"","type":"uint256","internalType":"uint256"}],"stateMutability":"nonpayable"},{"type":"function","name":"borrowBalanceCurrent","inputs":[{"name":"account","type":"address","internalType":"address"}],"outputs":[{"name":"","type":"uint256","internalType":"uint256"}],"stateMutability":"nonpayable"},{"type":"function","name":"borrowBalanceStored","inputs":[{"name":"account","type":"address","internalType":"address"}],"outputs":[{"name":"","type":"uint256","internalType":"uint256"}],"stateMutability":"view"},{"type":"function","name":"borrowIndex","inputs":[],"outputs":[{"name":"","type":"uint256","internalType":"uint256"}],"stateMutability":"view"},{"type":"function","name":"borrowRatePerBlock","inputs":[],"outputs":[{"name":"","type":"uint256","internalType":"uint256"}],"stateMutability":"view"},{"type":"function","name":"decimals","inputs":[],"outputs":[{"name":"","type":"uint8","internalType":"uint8"}],"stateMutability":"view"},{"type":"function","name":"delegateToImplementation","inputs":[{"name":"data","type":"bytes","internalType":"bytes"}],"outputs":[{"name":"","type":"bytes","internalType":"bytes"}],"stateMutability":"nonpayable"},{"type":"function","name":"delegateToViewImplementation","inputs":[{"name":"data","type":"bytes","internalType":"bytes"}],"outputs":[{"name":"","type":"bytes","internalType":"bytes"}],"stateMutability":"view"},{"type":"function","name":"exchangeRateCurrent","inputs":[],"outputs":[{"name":"","type":"uint256","internalType":"uint256"}],"stateMutability":"nonpayable"},{"type":"function","name":"exchangeRateStored","inputs":[],"outputs":[{"name":"","type":"uint256","internalType":"uint256"}],"stateMutability":"view"},{"type":"function","name":"flashFee","inputs":[{"name":"token","type":"address","internalType":"address"},{"name":"amount","type":"uint256","internalType":"uint256"}],"outputs":[{"name":"","type":"uint256","internalType":"uint256"}],"stateMutability":"view"},{"type":"function","name":"flashLoan","inputs":[{"name":"receiver","type":"address","internalType":"contract IERC3156FlashBorrower"},{"name":"token","type":"address","internalType":"address"},{"name":"amount","type":"uint256","internalType":"uint256"},{"name":"data","type":"bytes","internalType":"bytes"}],"outputs":[{"name":"","type":"bool","internalType":"bool"}],"stateMutability":"nonpayable"},{"type":"function","name":"flashLoanFeeBps","inputs":[],"outputs":[{"name":"","type":"uint256","internalType":"uint256"}],"stateMutability":"view"},{"type":"function","name":"flashLoansPaused","inputs":[],"outputs":[{"name":"","type":"bool","internalType":"bool"}],"stateMutability":"view"},{"type":"function","name":"getAccountSnapshot","inputs":[{"name":"account","type":"address","internalType":"address"}],"outputs":[{"name":"","type":"uint256","internalType":"uint256"},{"name":"","type":"uint256","internalType":"uint256"},{"name":"","type":"uint256","internalType":"uint256"},{"name":"","type":"uint256","internalType":"uint256"}],"stateMutability":"view"},{"type":"function","name":"getCash","inputs":[],"outputs":[{"name":"","type":"uint256","internalType":"uint256"}],"stateMutability":"view"},{"type":"function","name":"implementation","inputs":[],"outputs":[{"name":"","type":"address","internalType":"address"}],"stateMutability":"view"},{"type":"function","name":"interestRateModel","inputs":[],"outputs":[{"name":"","type":"address","internalType":"contract InterestRateModel"}],"stateMutability":"view"},{"type":"function","name":"isPToken","inputs":[],"outputs":[{"name":"","type":"bool","internalType":"bool"}],"stateMutability":"view"},{"type":"function","name":"liquidateBorrow","inputs":[{"name":"borrower","type":"address","internalType":"address"},{"name":"repayAmount","type":"uint256","internalType":"uint256"},{"name":"pTokenCollateral","type":"address","internalType":"contract PTokenInterface"}],"outputs":[{"name":"","type":"uint256","internalType":"uint256"}],"stateMutability":"nonpayable"},{"type":"function","name":"maxFlashLoan","inputs":[{"name":"token","type":"address","internalType":"address"}],"outputs":[{"name":"","type":"uint256","internalType":"uint256"}],"stateMutability":"view"},{"type":"function","name":"maxFlashLoanRatio","inputs":[],"outputs":[{"name":"","type":"uint256","internalType":"uint256"}],"stateMutability":"view"},{"type":"function","name":"mint","inputs":[{"name":"mintAmount","type":"uint256","internalType":"uint256"}],"outputs":[{"name":"","type":"uint256","internalType":"uint256"}],"stateMutability":"nonpayable"},{"type":"function","name":"name","inputs":[],"outputs":[{"name":"","type":"string","internalType":"string"}],"stateMutability":"view"},{"type":"function","name":"pendingAdmin","inputs":[],"outputs":[{"name":"","type":"address","internalType":"address payable"}],"stateMutability":"view"},{"type":"function","name":"peridottroller","inputs":[],"outputs":[{"name":"","type":"address","internalType":"contract PeridottrollerInterface"}],"stateMutability":"view"},{"type":"function","name":"protocolSeizeShareMantissa","inputs":[],"outputs":[{"name":"","type":"uint256","internalType":"uint256"}],"stateMutability":"view"},{"type":"function","name":"redeem","inputs":[{"name":"redeemTokens","type":"uint256","internalType":"uint256"}],"outputs":[{"name":"","type":"uint256","internalType":"uint256"}],"stateMutability":"nonpayable"},{"type":"function","name":"redeemUnderlying","inputs":[{"name":"redeemAmount","type":"uint256","internalType":"uint256"}],"outputs":[{"name":"","type":"uint256","internalType":"uint256"}],"stateMutability":"nonpayable"},{"type":"function","name":"repayBorrow","inputs":[{"name":"repayAmount","type":"uint256","internalType":"uint256"}],"outputs":[{"name":"","type":"uint256","internalType":"uint256"}],"stateMutability":"nonpayable"},{"type":"function","name":"repayBorrowBehalf","inputs":[{"name":"borrower","type":"address","internalType":"address"},{"name":"repayAmount","type":"uint256","internalType":"uint256"}],"outputs":[{"name":"","type":"uint256","internalType":"uint256"}],"stateMutability":"nonpayable"},{"type":"function","name":"reserveFactorMantissa","inputs":[],"outputs":[{"name":"","type":"uint256","internalType":"uint256"}],"stateMutability":"view"},{"type":"function","name":"seize","inputs":[{"name":"liquidator","type":"address","internalType":"address"},{"name":"borrower","type":"address","internalType":"address"},{"name":"seizeTokens","type":"uint256","internalType":"uint256"}],"outputs":[{"name":"","type":"uint256","internalType":"uint256"}],"stateMutability":"nonpayable"},{"type":"function","name":"supplyRatePerBlock","inputs":[],"outputs":[{"name":"","type":"uint256","internalType":"uint256"}],"stateMutability":"view"},{"type":"function","name":"sweepToken","inputs":[{"name":"token","type":"address","internalType":"contract EIP20NonStandardInterface"}],"outputs":[],"stateMutability":"nonpayable"},{"type":"function","name":"symbol","inputs":[],"outputs":[{"name":"","type":"string","internalType":"string"}],"stateMutability":"view"},{"type":"function","name":"totalBorrows","inputs":[],"outputs":[{"name":"","type":"uint256","internalType":"uint256"}],"stateMutability":"view"},{"type":"function","name":"totalBorrowsCurrent","inputs":[],"outputs":[{"name":"","type":"uint256","internalType":"uint256"}],"stateMutability":"nonpayable"},{"type":"function","name":"totalReserves","inputs":[],"outputs":[{"name":"","type":"uint256","internalType":"uint256"}],"stateMutability":"view"},{"type":"function","name":"totalSupply","inputs":[],"outputs":[{"name":"","type":"uint256","internalType":"uint256"}],"stateMutability":"view"},{"type":"function","name":"transfer","inputs":[{"name":"dst","type":"address","internalType":"address"},{"name":"amount","type":"uint256","internalType":"uint256"}],"outputs":[{"name":"","type":"bool","internalType":"bool"}],"stateMutability":"nonpayable"},{"type":"function","name":"transferFrom","inputs":[{"name":"src","type":"address","internalType":"address"},{"name":"dst","type":"address","internalType":"address"},{"name":"amount","type":"uint256","internalType":"uint256"}],"outputs":[{"name":"","type":"bool","internalType":"bool"}],"stateMutability":"nonpayable"},{"type":"function","name":"underlying","inputs":[],"outputs":[{"name":"","type":"address","internalType":"address"}],"stateMutability":"view"},{"type":"event","name":"AccrueInterest","inputs":[{"name":"cashPrior","type":"uint256","indexed":false,"internalType":"uint256"},{"name":"interestAccumulated","type":"uint256","indexed":false,"internalType":"uint256"},{"name":"borrowIndex","type":"uint256","indexed":false,"internalType":"uint256"},{"name":"totalBorrows","type":"uint256","indexed":false,"internalType":"uint256"}],"anonymous":false},{"type":"event","name":"Approval","inputs":[{"name":"owner","type":"address","indexed":true,"internalType":"address"},{"name":"spender","type":"address","indexed":true,"internalType":"address"},{"name":"amount","type":"uint256","indexed":false,"internalType":"uint256"}],"anonymous":false},{"type":"event","name":"Borrow","inputs":[{"name":"borrower","type":"address","indexed":false,"internalType":"address"},{"name":"borrowAmount","type":"uint256","indexed":false,"internalType":"uint256"},{"name":"accountBorrows","type":"uint256","indexed":false,"internalType":"uint256"},{"name":"totalBorrows","type":"uint256","indexed":false,"internalType":"uint256"}],"anonymous":false},{"type":"event","name":"FlashLoan","inputs":[{"name":"receiver","type":"address","indexed":true,"internalType":"address"},{"name":"token","type":"address","indexed":true,"internalType":"address"},{"name":"amount","type":"uint256","indexed":false,"internalType":"uint256"},{"name":"fee","type":"uint256","indexed":false,"internalType":"uint256"}],"anonymous":false},{"type":"event","name":"FlashLoansPaused","inputs":[{"name":"paused","type":"bool","indexed":false,"internalType":"bool"}],"anonymous":false},{"type":"event","name":"LiquidateBorrow","inputs":[{"name":"liquidator","type":"address","indexed":false,"internalType":"address"},{"name":"borrower","type":"address","indexed":false,"internalType":"address"},{"name":"repayAmount","type":"uint256","indexed":false,"internalType":"uint256"},{"name":"pTokenCollateral","type":"address","indexed":false,"internalType":"address"},{"name":"seizeTokens","type":"uint256","indexed":false,"internalType":"uint256"}],"anonymous":false},{"type":"event","name":"Mint","inputs":[{"name":"minter","type":"address","indexed":false,"internalType":"address"},{"name":"mintAmount","type":"uint256","indexed":false,"internalType":"uint256"},{"name":"mintTokens","type":"uint256","indexed":false,"internalType":"uint256"}],"anonymous":false},{"type":"event","name":"NewAdmin","inputs":[{"name":"oldAdmin","type":"address","indexed":false,"internalType":"address"},{"name":"newAdmin","type":"address","indexed":false,"internalType":"address"}],"anonymous":false},{"type":"event","name":"NewFlashLoanFee","inputs":[{"name":"oldFeeBps","type":"uint256","indexed":false,"internalType":"uint256"},{"name":"newFeeBps","type":"uint256","indexed":false,"internalType":"uint256"}],"anonymous":false},{"type":"event","name":"NewImplementation","inputs":[{"name":"oldImplementation","type":"address","indexed":false,"internalType":"address"},{"name":"newImplementation","type":"address","indexed":false,"internalType":"address"}],"anonymous":false},{"type":"event","name":"NewMarketInterestRateModel","inputs":[{"name":"oldInterestRateModel","type":"address","indexed":false,"internalType":"contract InterestRateModel"},{"name":"newInterestRateModel","type":"address","indexed":false,"internalType":"contract InterestRateModel"}],"anonymous":false},{"type":"event","name":"NewMaxFlashLoanRatio","inputs":[{"name":"oldMaxRatio","type":"uint256","indexed":false,"internalType":"uint256"},{"name":"newMaxRatio","type":"uint256","indexed":false,"internalType":"uint256"}],"anonymous":false},{"type":"event","name":"NewPendingAdmin","inputs":[{"name":"oldPendingAdmin","type":"address","indexed":false,"internalType":"address"},{"name":"newPendingAdmin","type":"address","indexed":false,"internalType":"address"}],"anonymous":false},{"type":"event","name":"NewPeridottroller","inputs":[{"name":"oldPeridottroller","type":"address","indexed":false,"internalType":"contract PeridottrollerInterface"},{"name":"newPeridottroller","type":"address","indexed":false,"internalType":"contract PeridottrollerInterface"}],"anonymous":false},{"type":"event","name":"NewReserveFactor","inputs":[{"name":"oldReserveFactorMantissa","type":"uint256","indexed":false,"internalType":"uint256"},{"name":"newReserveFactorMantissa","type":"uint256","indexed":false,"internalType":"uint256"}],"anonymous":false},{"type":"event","name":"Redeem","inputs":[{"name":"redeemer","type":"address","indexed":false,"internalType":"address"},{"name":"redeemAmount","type":"uint256","indexed":false,"internalType":"uint256"},{"name":"redeemTokens","type":"uint256","indexed":false,"internalType":"uint256"}],"anonymous":false},{"type":"event","name":"RepayBorrow","inputs":[{"name":"payer","type":"address","indexed":false,"internalType":"address"},{"name":"borrower","type":"address","indexed":false,"internalType":"address"},{"name":"repayAmount","type":"uint256","indexed":false,"internalType":"uint256"},{"name":"accountBorrows","type":"uint256","indexed":false,"internalType":"uint256"},{"name":"totalBorrows","type":"uint256","indexed":false,"internalType":"uint256"}],"anonymous":false},{"type":"event","name":"ReservesAdded","inputs":[{"name":"benefactor","type":"address","indexed":false,"internalType":"address"},{"name":"addAmount","type":"uint256","indexed":false,"internalType":"uint256"},{"name":"newTotalReserves","type":"uint256","indexed":false,"internalType":"uint256"}],"anonymous":false},{"type":"event","name":"ReservesReduced","inputs":[{"name":"admin","type":"address","indexed":false,"internalType":"address"},{"name":"reduceAmount","type":"uint256","indexed":false,"internalType":"uint256"},{"name":"newTotalReserves","type":"uint256","indexed":false,"internalType":"uint256"}],"anonymous":false},{"type":"event","name":"Transfer","inputs":[{"name":"from","type":"address","indexed":true,"internalType":"address"},{"name":"to","type":"address","indexed":true,"internalType":"address"},{"name":"amount","type":"uint256","indexed":false,"internalType":"uint256"}],"anonymous":false}],"bytecode":{"object":"0x6080604052346100e557611cf8803803809161001a826100fd565b6080396101408160800191126100e55761003261015c565b61003c60a061016b565b61004660c061016b565b60e051610100516001600160401b0381116100e5578561006891608001610191565b610120516001600160401b0381116100e5578661008791608001610191565b906100936101406101d5565b9261009f61016061016b565b946100ab61018061016b565b6101a0519097906001600160401b0381116100e5576100d69a6100d091608001610191565b98610207565b60405161187a908161047e8239f35b5f80fd5b634e487b7160e01b5f52604160045260245ffd5b6080601f91909101601f19168101906001600160401b0382119082101761012357604052565b6100e9565b601f909101601f19168101906001600160401b0382119082101761012357604052565b6001600160a01b038116036100e557565b608051906101698261014b565b565b51906101698261014b565b6001600160401b03811161012357601f01601f191660200190565b81601f820112156100e5576020815191016101ab82610176565b926101b96040519485610128565b828452828201116100e557815f926020928386015e8301015290565b519060ff821682036100e557565b805180835260209291819084018484015e5f828201840152601f01601f1916010190565b60038054610100600160a81b0319163360081b610100600160a81b0316179055604051631a31d46560e01b60208201526001600160a01b0391821660248201529181166044830152919091166064820152608481019190915260e060a48201526101699694956102c9959490936102c3936102bd928492909160ff916102a891610296906101048701906101e3565b8581036023190160c4870152906101e3565b911660e483015203601f198101835282610128565b826102f0565b50610351565b60038054610100600160a81b03191660089290921b610100600160a81b0316919091179055565b5f918291602082519201905af43d15610335573d9061030e82610176565b9161031c6040519384610128565b82523d5f602084013e5b1561032e5790565b60203d9101fd5b606090610326565b90602061034e9281815201906101e3565b90565b60035460081c6001600160a01b0316330361041257601480546001600160a01b039283166001600160a01b03198216179091557fd604de94d45953f9138079ec1b82d533cb2160c906d1076d1f7ed54befbca97a929116906103f0906103d1906103df90604051630adccee560e31b60208201529283916024830161033d565b03601f198101835282610128565b6014546001600160a01b03166102f0565b50601454604080516001600160a01b03938416815292909116602083015290a1565b60405162461bcd60e51b815260206004820152603960248201527f50457263323044656c656761746f723a3a5f736574496d706c656d656e74617460448201527f696f6e3a2043616c6c6572206d7573742062652061646d696e000000000000006064820152608490fdfe608060405260043610611776575f3560e01c806306fdde03146103ab5780630933c1ed146103a6578063095ea7b3146103a15780630e7527021461039c5780630ed14e6314610397578063173b99041461039257806317bfdfbc1461038d57806318160ddd14610388578063182df0f5146103835780631be195601461037e57806323b872dd146103795780632608f81814610374578063267822471461036f578063313ce5671461036a5780633af9e669146103655780633b1d21a2146103605780633e9410101461035b5780634487152f1461035657806347bd371814610351578063555bcc401461034c5780635a890c0e146103475780635c60da1b146103425780635cffe9de1461033d578063601a0bf114610338578063613255ab146103335780636752e7021461032e5780636c540baf146103295780636f307dc31461032457806370a082311461031f57806373acee981461031a578063852a12e3146103155780638f840ddd1461031057806395d89b411461030b57806395dd9193146103065780639b503bae14610301578063a0712d68146102fc578063a6afed95146102f7578063a9059cbb146102f2578063aa5af0fd146102ed578063ae9d70b0146102e8578063b2a02ff1146102e3578063b71d1a0c146102de578063bd6d894d146102d9578063c0c7347e146102d4578063c37f68e2146102cf578063c423fe29146102ca578063c5ebeaec146102c5578063d5c6d3bd146102c0578063d9d98ce4146102bb578063db006a75146102b6578063dd62ed3e146102b1578063e9c714f2146102ac578063f2b3abbd146102a7578063f3fdb15a146102a2578063f5e3c4621461029d578063f851a44014610298578063f8f9da28146102935763fca7820b0361177657611541565b61150b565b6114df565b61146a565b611442565b6113ee565b6113b8565b611353565b611314565b6112b9565b611265565b611226565b6111fe565b611164565b611147565b611111565b6110ba565b611067565b611031565b611014565b610fb9565b610f83565b610f44565b610f22565b610ecd565b610e18565b610dfb565b610dbc565b610d86565b610d31565b610d05565b610ce8565b610cc7565b610c72565b610c33565b610bb6565b610b8e565b610b73565b610a54565b610a2d565b610a19565b6109da565b6109a4565b61094d565b61092d565b610905565b6108aa565b61083f565b6107c1565b610770565b610753565b6106ec565b6106cf565b6106b2565b610659565b6105d3565b61059d565b610416565b634e487b7160e01b5f52604160045260245ffd5b90601f8019910116810190811067ffffffffffffffff8211176103e657604052565b6103b0565b90602080809381815201918051918291828552018484015e5f828201840152601f01601f1916010190565b34610509575f366003190112610509576040515f6001548060011c90600181169081156104ff575b6020831082146104eb5782855260208501919081156104d25750600114610480575b61047c84610470818603826103c4565b604051918291826103eb565b0390f35b60015f9081529250907fb10e2d527612073b26eecdfd717e6a320cf44b4afac2b0732d9fcbe2b7fa0cf65b8184106104be5750500161047082610460565b8054848401526020909301926001016104ab565b60ff191682525090151560051b01905061047082610460565b634e487b7160e01b5f52602260045260245ffd5b91607f169161043e565b5f80fd5b67ffffffffffffffff81116103e657601f01601f191660200190565b81601f82011215610509578035906105408261050d565b9261054e60405194856103c4565b8284526020838301011161050957815f926020809301838601378301015290565b6020600319820112610509576004359067ffffffffffffffff82116105095761059a91600401610529565b90565b346105095761047c6104706105b13661056f565b6014546001600160a01b0316611826565b6001600160a01b0381160361050957565b346105095760403660031901126105095761047c6106476106386004356105f9816105c2565b6105b160243560405163095ea7b360e01b60208201526001600160a01b039093166024840152604483015281606481015b03601f1981018352826103c4565b60208082518301019101611580565b60405190151581529081906020820190565b34610509576020366003190112610509576106a76106986004356040519063073a938160e11b60208301526024820152602481526105b16044826103c4565b60208082518301019101611595565b604051908152602090f35b34610509575f366003190112610509576020601254604051908152f35b34610509575f366003190112610509576020600854604051908152f35b346105095760203660031901126105095761047c610743610698600435610712816105c2565b6040516305eff7ef60e21b60208201526001600160a01b0390911660248083019190915281526105b16044826103c4565b6040519081529081906020820190565b34610509575f366003190112610509576020600d54604051908152f35b34610509575f3660031901126105095760206107b96107ab60405163182df0f560e01b84820152600481526107a66024826103c4565b6115d3565b828082518301019101611595565b604051908152f35b34610509576020366003190112610509576108116004356107e1816105c2565b60405162df0cab60e51b60208201526001600160a01b0390911660248083019190915281526105b16044826103c4565b005b60609060031901126105095760043561082b816105c2565b90602435610838816105c2565b9060443590565b346105095760206108a061089261062a6105b161085b36610813565b6040516323b872dd60e01b898201526001600160a01b03938416602482015292909116604483015260648201529182906084820190565b828082518301019101611580565b6040519015158152f35b346105095760403660031901126105095761047c6107436106986004356108d0816105c2565b6105b16024356040516304c11f0360e31b60208201526001600160a01b0390931660248401526044830152816064810161062a565b34610509575f366003190112610509576004546040516001600160a01b039091168152602090f35b34610509575f36600319011261050957602060ff60035416604051908152f35b346105095760203660031901126105095761047c610743610698600435610973816105c2565b604051633af9e66960e01b60208201526001600160a01b0390911660248083019190915281526105b16044826103c4565b34610509575f3660031901126105095760206107b96107ab604051631d8e90d160e11b84820152600481526107a66024826103c4565b34610509576020366003190112610509576106a7610698600435604051906303e9410160e41b60208301526024820152602481526105b16044826103c4565b346105095761047c6104706107a63661056f565b34610509575f366003190112610509576020600b54604051908152f35b8015150361050957565b3461050957606036600319011261050957600435610a71816105c2565b60243590610a7e82610a4a565b60443567ffffffffffffffff81116105095761062a6105b17fd604de94d45953f9138079ec1b82d533cb2160c906d1076d1f7ed54befbca97a94610ac9610b28943690600401610529565b600354909190610ae69060081c6001600160a01b03163314611684565b610b4a575b601480546001600160a01b039687166001600160a01b0319821617909155604051630adccee560e31b6020820152951694928391602483016103eb565b50601454604080516001600160a01b03938416815292909116602083015290a1005b60405163153ab50560e01b602082015260048152610b6d906105b16024826103c4565b50610aeb565b34610509575f36600319011261050957602060405160018152f35b34610509575f366003190112610509576014546040516001600160a01b039091168152602090f35b3461050957608036600319011261050957600435610bd3816105c2565b60243590610be0826105c2565b6044356064359167ffffffffffffffff831161050957366023840112156105095782600401359167ffffffffffffffff83116105095736602484860101116105095761047c9460246106479501926116f6565b34610509576020366003190112610509576106a76106986004356040519063601a0bf160e01b60208301526024820152602481526105b16044826103c4565b346105095760203660031901126105095760206107b96107ab600435610c97816105c2565b60405163613255ab60e01b858201526001600160a01b0390911660248083019190915281526107a66044826103c4565b34610509575f366003190112610509576020604051666379da05b600008152f35b34610509575f366003190112610509576020600954604051908152f35b34610509575f3660031901126105095760135460405160089190911c6001600160a01b03168152602090f35b346105095760203660031901126105095760206107b96107ab600435610d56816105c2565b6040516370a0823160e01b858201526001600160a01b0390911660248083019190915281526107a66044826103c4565b34610509575f3660031901126105095760206107b96107ab604051630e759dd360e31b84820152600481526105b16024826103c4565b34610509576020366003190112610509576106a76106986004356040519063852a12e360e01b60208301526024820152602481526105b16044826103c4565b34610509575f366003190112610509576020600c54604051908152f35b34610509575f366003190112610509576040515f6002548060011c9060018116908115610ec3575b6020831082146104eb5782855260208501919081156104d25750600114610e715761047c84610470818603826103c4565b60025f9081529250907f405787fa12a823e0f2b7631cc41b3ba8828b3321ca811111fa75cd3aa3bb5ace5b818410610eaf5750500161047082610460565b805484840152602090930192600101610e9c565b91607f1691610e40565b346105095760203660031901126105095760206107b96107ab600435610ef2816105c2565b6040516395dd919360e01b858201526001600160a01b0390911660248083019190915281526107a66044826103c4565b34610509575f36600319011261050957602060ff601354166040519015158152f35b34610509576020366003190112610509576106a76106986004356040519063140e25ad60e31b60208301526024820152602481526105b16044826103c4565b34610509575f3660031901126105095760206107b96107ab60405163a6afed9560e01b84820152600481526105b16024826103c4565b346105095760403660031901126105095761047c610647610638600435610fdf816105c2565b6105b160243560405163a9059cbb60e01b60208201526001600160a01b0390931660248401526044830152816064810161062a565b34610509575f366003190112610509576020600a54604051908152f35b34610509575f3660031901126105095760206107b96107ab604051630ae9d70b60e41b84820152600481526107a66024826103c4565b346105095760206107b96107ab61062a6105b161108336610813565b60405163b2a02ff160e01b898201526001600160a01b03938416602482015292909116604483015260648201529182906084820190565b346105095760203660031901126105095761047c6107436106986004356110e0816105c2565b604051632dc7468360e21b60208201526001600160a01b0390911660248083019190915281526105b16044826103c4565b34610509575f3660031901126105095760206107b96107ab60405163bd6d894d60e01b84820152600481526105b16024826103c4565b34610509575f366003190112610509576020601154604051908152f35b34610509576020366003190112610509576111b5600435611184816105c2565b6040516361bfb47160e11b60208201526001600160a01b0390911660248083019190915281526107a66044826103c4565b60808180518101031261050957602081015161047c6040830151926080606082015191015190604051948594859094939260609260808301968352602083015260408201520152565b34610509575f366003190112610509576005546040516001600160a01b039091168152602090f35b34610509576020366003190112610509576106a76106986004356040519063317afabb60e21b60208301526024820152602481526105b16044826103c4565b346105095760203660031901126105095760206107b96107ab61062a6105b1600435611290816105c2565b60405163d5c6d3bd60e01b878201526001600160a01b0390911660248201529182906044820190565b346105095760403660031901126105095760206107b96107ab6004356112de816105c2565b604051633676633960e21b858201526001600160a01b039091166024828101919091523560448201526107a6816064810161062a565b34610509576020366003190112610509576106a76106986004356040519063db006a7560e01b60208301526024820152602481526105b16044826103c4565b346105095760403660031901126105095760206107b96107ab600435611378816105c2565b6107a660243591611388836105c2565b604051636eb1769f60e11b878201526001600160a01b03918216602482015292166044830152816064810161062a565b34610509575f3660031901126105095760206107b96107ab6040516374e38a7960e11b84820152600481526105b16024826103c4565b346105095760203660031901126105095760206107b96107ab61062a6105b1600435611419816105c2565b60405163f2b3abbd60e01b878201526001600160a01b0390911660248201529182906044820190565b34610509575f366003190112610509576006546040516001600160a01b039091168152602090f35b346105095760603660031901126105095761047c610743610698600435611490816105c2565b60443560243561149f826105c2565b604051637af1e23160e11b60208201526001600160a01b0393841660248201526044810191909152911660648083019190915281526105b16084826103c4565b34610509575f3660031901126105095760035460405160089190911c6001600160a01b03168152602090f35b34610509575f3660031901126105095760206107b96107ab604051631f1f3b4560e31b84820152600481526107a66024826103c4565b34610509576020366003190112610509576106a76106986004356040519063fca7820b60e01b60208301526024820152602481526105b16044826103c4565b90816020910312610509575161059a81610a4a565b90816020910312610509575190565b3d156115ce573d906115b58261050d565b916115c360405193846103c4565b82523d5f602084013e565b606090565b5f80916040516115f88161062a6020820194630933c1ed60e01b8652602483016103eb565b5190305afa6116056115a4565b901561167d5780518101906020818184019303126105095760208101519067ffffffffffffffff8211610509570181603f820112156105095760208101519061164d8261050d565b9261165b60405194856103c4565b8284526040828401011161050957815f926040602093018386015e8301015290565b60203d9101fd5b1561168b57565b60405162461bcd60e51b815260206004820152603960248201527f50457263323044656c656761746f723a3a5f736574496d706c656d656e74617460448201527f696f6e3a2043616c6c6572206d7573742062652061646d696e000000000000006064820152608490fd5b604051632e7ff4ef60e11b60208201526001600160a01b0391821660248201529116604482015260648101919091526080608482015260a4810183905261059a92610638926105b19160c4918491908190838501375f838284010152601f801991011681010301601f1981018352826103c4565b90815f8237015f815290565b346117bb576014545f9081906001600160a01b031660405180611799813661176a565b03915af46117a56115a4565b50604051903d5f833e156117b7573d90f35b3d90fd5b60405162461bcd60e51b815260206004820152603760248201527f50457263323044656c656761746f723a66616c6c6261636b3a2063616e6e6f7460448201527f2073656e642076616c756520746f2066616c6c6261636b0000000000000000006064820152608490fd5b5f918291602082519201905af461183b6115a4565b901561167d579056fea26469706673582212203b6326205d2324c2b77493a61adf1e3061f6266115e8cbbc8c510eceea34f6aa64736f6c634300081c0033","linkReferences":{}},"methodIdentifiers":{"_acceptAdmin()":"e9c714f2","_addReserves(uint256)":"3e941010","_reduceReserves(uint256)":"601a0bf1","_setImplementation(address,bool,bytes)":"555bcc40","_setInterestRateModel(address)":"f2b3abbd","_setPendingAdmin(address)":"b71d1a0c","_setPeridottroller(address)":"d5c6d3bd","_setReserveFactor(uint256)":"fca7820b","accrualBlockNumber()":"6c540baf","accrueInterest()":"a6afed95","admin()":"f851a440","allowance(address,address)":"dd62ed3e","approve(address,uint256)":"095ea7b3","balanceOf(address)":"70a08231","balanceOfUnderlying(address)":"3af9e669","borrow(uint256)":"c5ebeaec","borrowBalanceCurrent(address)":"17bfdfbc","borrowBalanceStored(address)":"95dd9193","borrowIndex()":"aa5af0fd","borrowRatePerBlock()":"f8f9da28","decimals()":"313ce567","delegateToImplementation(bytes)":"0933c1ed","delegateToViewImplementation(bytes)":"4487152f","exchangeRateCurrent()":"bd6d894d","exchangeRateStored()":"182df0f5","flashFee(address,uint256)":"d9d98ce4","flashLoan(address,address,uint256,bytes)":"5cffe9de","flashLoanFeeBps()":"c0c7347e","flashLoansPaused()":"9b503bae","getAccountSnapshot(address)":"c37f68e2","getCash()":"3b1d21a2","implementation()":"5c60da1b","interestRateModel()":"f3fdb15a","isPToken()":"5a890c0e","liquidateBorrow(address,uint256,address)":"f5e3c462","maxFlashLoan(address)":"613255ab","maxFlashLoanRatio()":"0ed14e63","mint(uint256)":"a0712d68","name()":"06fdde03","pendingAdmin()":"26782247","peridottroller()":"c423fe29","protocolSeizeShareMantissa()":"6752e702","redeem(uint256)":"db006a75","redeemUnderlying(uint256)":"852a12e3","repayBorrow(uint256)":"0e752702","repayBorrowBehalf(address,uint256)":"2608f818","reserveFactorMantissa()":"173b9904","seize(address,address,uint256)":"b2a02ff1","supplyRatePerBlock()":"ae9d70b0","sweepToken(address)":"1be19560","symbol()":"95d89b41","totalBorrows()":"47bd3718","totalBorrowsCurrent()":"73acee98","totalReserves()":"8f840ddd","totalSupply()":"18160ddd","transfer(address,uint256)":"a9059cbb","transferFrom(address,address,uint256)":"23b872dd","underlying()":"6f307dc3"},"id":28}