{"abi":[{"type":"constructor","inputs":[{"name":"_defaultStaleThreshold","type":"uint256","internalType":"uint256"}],"stateMutability":"nonpayable"},{"type":"function","name":"_getFeedsPrice","inputs":[{"name":"feedsAccessAddress","type":"address","internalType":"address"},{"name":"asset","type":"address","internalType":"address"}],"outputs":[{"name":"","type":"uint256","internalType":"uint256"}],"stateMutability":"view"},{"type":"function","name":"admin","inputs":[{"name":"","type":"address","internalType":"address"}],"outputs":[{"name":"","type":"bool","internalType":"bool"}],"stateMutability":"view"},{"type":"function","name":"assetPrices","inputs":[{"name":"asset","type":"address","internalType":"address"}],"outputs":[{"name":"","type":"uint256","internalType":"uint256"}],"stateMutability":"view"},{"type":"function","name":"assetToFeedsAccess","inputs":[{"name":"","type":"address","internalType":"address"}],"outputs":[{"name":"","type":"address","internalType":"address"}],"stateMutability":"view"},{"type":"function","name":"defaultStaleThreshold","inputs":[],"outputs":[{"name":"","type":"uint256","internalType":"uint256"}],"stateMutability":"view"},{"type":"function","name":"deployFeedsAccess","inputs":[{"name":"feedAggregator","type":"address","internalType":"address"}],"outputs":[{"name":"","type":"address","internalType":"address"}],"stateMutability":"nonpayable"},{"type":"function","name":"feedsStaleThreshold","inputs":[{"name":"","type":"address","internalType":"address"}],"outputs":[{"name":"","type":"uint256","internalType":"uint256"}],"stateMutability":"view"},{"type":"function","name":"getOwner","inputs":[],"outputs":[{"name":"","type":"address","internalType":"address"}],"stateMutability":"view"},{"type":"function","name":"getUnderlyingPrice","inputs":[{"name":"pToken","type":"address","internalType":"contract PToken"}],"outputs":[{"name":"","type":"uint256","internalType":"uint256"}],"stateMutability":"view"},{"type":"function","name":"isPriceOracle","inputs":[],"outputs":[{"name":"","type":"bool","internalType":"bool"}],"stateMutability":"view"},{"type":"function","name":"lastValidFeedsPriceMantissa","inputs":[{"name":"","type":"address","internalType":"address"}],"outputs":[{"name":"","type":"uint256","internalType":"uint256"}],"stateMutability":"view"},{"type":"function","name":"registerFeed","inputs":[{"name":"asset","type":"address","internalType":"address"},{"name":"feedsAccessAddress","type":"address","internalType":"address"}],"outputs":[],"stateMutability":"nonpayable"},{"type":"function","name":"removeAdmin","inputs":[{"name":"_admin","type":"address","internalType":"address"}],"outputs":[],"stateMutability":"nonpayable"},{"type":"function","name":"setAdmin","inputs":[{"name":"_newAdmin","type":"address","internalType":"address"}],"outputs":[],"stateMutability":"nonpayable"},{"type":"function","name":"setAssetStaleThreshold","inputs":[{"name":"asset","type":"address","internalType":"address"},{"name":"threshold","type":"uint256","internalType":"uint256"}],"outputs":[],"stateMutability":"nonpayable"},{"type":"function","name":"setDefaultStaleThreshold","inputs":[{"name":"threshold","type":"uint256","internalType":"uint256"}],"outputs":[],"stateMutability":"nonpayable"},{"type":"function","name":"setDirectPrice","inputs":[{"name":"asset","type":"address","internalType":"address"},{"name":"price","type":"uint256","internalType":"uint256"}],"outputs":[],"stateMutability":"nonpayable"},{"type":"function","name":"setOwner","inputs":[{"name":"_newOwner","type":"address","internalType":"address"}],"outputs":[],"stateMutability":"nonpayable"},{"type":"function","name":"setUnderlyingPrice","inputs":[{"name":"pToken","type":"address","internalType":"contract PToken"},{"name":"underlyingPriceMantissa","type":"uint256","internalType":"uint256"}],"outputs":[],"stateMutability":"nonpayable"},{"type":"function","name":"updateCachedPrice","inputs":[{"name":"asset","type":"address","internalType":"address"}],"outputs":[],"stateMutability":"nonpayable"},{"type":"event","name":"FeedRegistered","inputs":[{"name":"asset","type":"address","indexed":false,"internalType":"address"},{"name":"feedsAccess","type":"address","indexed":false,"internalType":"address"}],"anonymous":false},{"type":"event","name":"LastFeedsPriceUpdated","inputs":[{"name":"asset","type":"address","indexed":true,"internalType":"address"},{"name":"priceMantissa","type":"uint256","indexed":false,"internalType":"uint256"}],"anonymous":false},{"type":"event","name":"PricePosted","inputs":[{"name":"asset","type":"address","indexed":false,"internalType":"address"},{"name":"previousPriceMantissa","type":"uint256","indexed":false,"internalType":"uint256"},{"name":"requestedPriceMantissa","type":"uint256","indexed":false,"internalType":"uint256"},{"name":"newPriceMantissa","type":"uint256","indexed":false,"internalType":"uint256"}],"anonymous":false},{"type":"event","name":"StaleThresholdUpdated","inputs":[{"name":"asset","type":"address","indexed":true,"internalType":"address"},{"name":"newThreshold","type":"uint256","indexed":false,"internalType":"uint256"}],"anonymous":false}],"bytecode":{"object":"0x608034607657601f6113d038819003918201601f19168301916001600160401b03831184841017607a57808492602094604052833981010312607657513360018060a01b03196005541617600555335f52600160205260405f20600160ff19825416179055600655604051611341908161008f8239f35b5f80fd5b634e487b7160e01b5f52604160045260245ffdfe60806040526004361015610011575f80fd5b5f3560e01c806309a8acb014610a7d578063127ffda0146109dc57806313af40351461098f5780631785f53c146109415780632d2742361461091357806331c1946c1461065d5780633744406a1461061d5780635e9a523c146105fa57806363a846f8146105bd57806366331bba146105a2578063704b6c021461054e578063751c7dae146104b15780637842c0a2146103c4578063893d20e81461039c578063b48fecee14610323578063c28bf663146102eb578063c37fac87146102ce578063dc57747414610296578063ebe48d8f146101245763fc57d4df146100f5575f80fd5b34610120576020366003190112610120576020610118610113610ab2565b610ceb565b604051908152f35b5f80fd5b346101205760203660031901126101205761013d610ab2565b6001600160a01b038181165f8181526002602052604090205490929116801561025157604051630c70651b60e21b81526001600160a01b03918216600482015291166024820152602081604481305afa5f918161021d575b506101df5760405162461bcd60e51b815260206004820152601d60248201527f4661696c656420746f20757064617465206361636865642070726963650000006044820152606490fd5b5f8281526004602090815260409182902083905590519182527fd2fe1b1b3d24b9d01f018e0ad7d70ff297a9dab637afa44aea0ca4af5d1e646291a2005b9091506020813d602011610249575b8161023960209383610b8a565b8101031261012057519083610195565b3d915061022c565b60405162461bcd60e51b815260206004820152601c60248201527f4e6f2066656564207265676973746572656420666f72206173736574000000006044820152606490fd5b34610120576020366003190112610120576001600160a01b036102b7610ab2565b165f526003602052602060405f2054604051908152f35b34610120575f366003190112610120576020600654604051908152f35b34610120576020366003190112610120576001600160a01b0361030c610ab2565b165f526004602052602060405f2054604051908152f35b346101205760403660031901126101205761033c610ab2565b7f99cffe576c70fdb30c6e4a145c47bf04080b1a0a108463238ff220a619694b1f602060243592335f526001825261037a60ff60405f205416610ade565b6001600160a01b03165f818152600383526040908190208590555193845292a2005b34610120575f366003190112610120576005546040516001600160a01b039091168152602090f35b34610120576020366003190112610120576103dd610ab2565b335f5260016020526103f560ff60405f205416610ade565b6001600160a01b0316801561046c576040519061045580830183811067ffffffffffffffff821117610458576020928492610eb7843981520301905ff0801561044d576040516001600160a01b039091168152602090f35b6040513d5f823e3d90fd5b634e487b7160e01b5f52604160045260245ffd5b60405162461bcd60e51b815260206004820152601f60248201527f496e76616c696420666565642061676772656761746f722061646472657373006044820152606490fd5b34610120576040366003190112610120577f73d979fd03c9000f253d6f57d67ddf5ed50ad2a67bc62c09b2feb7769f81131b6104eb610ab2565b6104f3610ac8565b90335f52600160205261050c60ff60405f205416610ade565b6001600160a01b039081165f8181526002602090815260409182902080546001600160a01b0319169590941694851790935580519182529181019290925290a1005b3461012057602036600319011261012057610567610ab2565b61057c60018060a01b03600554163314610b34565b6001600160a01b03165f908152600160208190526040909120805460ff19169091179055005b34610120575f36600319011261012057602060405160018152f35b34610120576020366003190112610120576001600160a01b036105de610ab2565b165f526001602052602060ff60405f2054166040519015158152f35b34610120576020366003190112610120576020610118610618610ab2565b610bd4565b34610120576020366003190112610120576001600160a01b0361063e610ab2565b165f526002602052602060018060a01b0360405f205416604051908152f35b3461012057604036600319011261012057610676610ab2565b61067e610ac8565b903033036108d557604051630a4ec2d760e31b81526001600160a01b03919091169160a082600481865afa90811561044d575f925f9261087f575b506001600160a01b03165f90815260036020526040902054908115610875575b4203428111610753571161083a5780156107f557602060049260405193848092633c05076160e21b82525afa91821561044d575f926107b7575b509060ff16816012821015610767575060120360ff81116107535761073790610bc3565b9081810291818304149015171561075357602090604051908152f35b634e487b7160e01b5f52601160045260245ffd5b91906012811161077c575b5060209150610118565b60111901905060ff81116107535761079390610bc3565b80156107a3576020910482610772565b634e487b7160e01b5f52601260045260245ffd5b9091506020813d6020116107ed575b816107d360209383610b8a565b81010312610120575160ff81168103610120579082610713565b3d91506107c6565b60405162461bcd60e51b815260206004820152601760248201527f496e76616c69642070726963652066726f6d20666565640000000000000000006044820152606490fd5b60405162461bcd60e51b815260206004820152601360248201527250726963652066656564206973207374616c6560681b6044820152606490fd5b60065491506106d9565b9250905060a0823d60a0116108cd575b8161089c60a09383610b8a565b81010312610120576108ad82610bac565b5060208201516108c4608060608501519401610bac565b509190846106b9565b3d915061088f565b60405162461bcd60e51b8152602060048201526016602482015275496e7465726e616c2066756e6374696f6e206f6e6c7960501b6044820152606490fd5b346101205760203660031901126101205761093960018060a01b03600554163314610b34565b600435600655005b346101205760203660031901126101205761095a610ab2565b61096f60018060a01b03600554163314610b34565b6001600160a01b03165f908152600160205260409020805460ff19169055005b34610120576020366003190112610120576109a8610ab2565b600554906109c0336001600160a01b03841614610b34565b6001600160a01b03166001600160a01b03199190911617600555005b34610120576040366003190112610120576109f5610ab2565b610a1960243591335f526001602052610a1460ff60405f205416610ade565b610cf0565b6001600160a01b03165f818152602081815260409182902054825184815291820152908101839052606081018390527fdd71a1d19fcba687442a1d5c58578f1e409af71a79d10fd95a4d66efd8fa9ae790608090a15f525f60205260405f20555f80f35b3461012057604036600319011261012057610a96610ab2565b60243590335f526001602052610a1960ff60405f205416610ade565b600435906001600160a01b038216820361012057565b602435906001600160a01b038216820361012057565b15610ae557565b60405162461bcd60e51b815260206004820152602160248201527f4f6e6c792061646d696e2063616e2063616c6c20746869732066756e6374696f6044820152603760f91b6064820152608490fd5b15610b3b57565b60405162461bcd60e51b815260206004820152602160248201527f4f6e6c79206f776e65722063616e2063616c6c20746869732066756e6374696f6044820152603760f91b6064820152608490fd5b90601f8019910116810190811067ffffffffffffffff82111761045857604052565b519069ffffffffffffffffffff8216820361012057565b60ff16604d811161075357600a0a90565b6001600160a01b038181165f818152600260205260409020549092911680610c51575b50505f525f60205260405f205480610c4e5760405162461bcd60e51b815260206004820152601860248201527f4e6f2076616c696420707269636520617661696c61626c6500000000000000006044820152606490fd5b90565b604051630c70651b60e21b81526001600160a01b03918216600482015291166024820152602081604481305afa5f9181610cb7575b50610cac5750805f52600460205260405f205480610ca757505b5f80610bf7565b905090565b80610ca75750610ca0565b9091506020813d602011610ce3575b81610cd360209383610b8a565b810103126101205751905f610c86565b3d9150610cc6565b610bd4905b6040516395d89b4160e01b8152906001600160a01b03165f82600481845afa91821561044d575f92610e2a575b506040918251610d2d8482610b8a565b600481526020810191630e08aa8960e31b83528451610d6b6020828180820195805191829101875e81015f838201520301601f198101835282610b8a565b51902091610d9760208651809382820195518091875e81015f838201520301601f198101835282610b8a565b51902003610db957505073eeeeeeeeeeeeeeeeeeeeeeeeeeeeeeeeeeeeeeee90565b6020600491835192838092636f307dc360e01b82525afa918215610e2157505f91610de2575090565b90506020813d602011610e19575b81610dfd60209383610b8a565b8101031261012057516001600160a01b03811681036101205790565b3d9150610df0565b513d5f823e3d90fd5b9091503d805f833e610e3c8183610b8a565b8101906020818303126101205780519067ffffffffffffffff8211610120570181601f820112156101205780519067ffffffffffffffff82116104585760405192610e91601f8401601f191660200185610b8a565b8284526020838301011161012057815f9260208093018386015e83010152905f610d1d56fe608034606f57601f61045538819003918201601f19168301916001600160401b03831184841017607357808492602094604052833981010312606f57516001600160a01b03811690819003606f575f80546001600160a01b0319169190911790556040516103cd90816100888239f35b5f80fd5b634e487b7160e01b5f52604160045260245ffdfe6080806040526004361015610012575f80fd5b5f3560e01c9081631a0925411461024e57508063527616b814610164578063a1951c24146100e45763f0141d8414610048575f80fd5b346100cd575f3660031901126100cd575f5460405163313ce56760e01b815290602090829060049082906001600160a01b03165afa80156100d9575f90610098575b60209060ff60405191168152f35b506020813d6020116100d1575b816100b26020938361035e565b810103126100cd575160ff811681036100cd5760209061008a565b5f80fd5b3d91506100a5565b6040513d5f823e3d90fd5b346100cd575f3660031901126100cd575f546040516350d25bcd60e01b815290602090829060049082906001600160a01b03165afa80156100d9575f90610131575b602090604051908152f35b506020813d60201161015c575b8161014b6020938361035e565b810103126100cd5760209051610126565b3d915061013e565b346100cd575f3660031901126100cd575f54604051633fabe5a360e21b81529060a090829060049082906001600160a01b03165afa9081156100d9575f905f5f905f925f956101df575b509160a0949169ffffffffffffffffffff938460405196168652602086015260408501526060840152166080820152f35b94505050505060a0813d60a011610246575b816101fe60a0938361035e565b810103126100cd578069ffffffffffffffffffff61021d60a093610380565b9160208101519260408201519161023b608060608301519201610380565b9550909390926101ae565b3d91506101f1565b346100cd575f3660031901126100cd575f8054633942720b60e11b8352829060049082906001600160a01b03165afa9081156100d9575f916102bc575b6020604083815192839181835280519182918282860152018484015e5f828201840152601f01601f19168101030190f35b90503d805f833e6102cd818361035e565b8101906020818303126100cd5780519067ffffffffffffffff82116100cd570181601f820112156100cd5780519167ffffffffffffffff831161034a5760405190610322601f8501601f19166020018361035e565b838252602084840101116100cd575f602084819582604096018386015e83010152915061028b565b634e487b7160e01b5f52604160045260245ffd5b90601f8019910116810190811067ffffffffffffffff82111761034a57604052565b519069ffffffffffffffffffff821682036100cd5756fea2646970667358221220f5d00e3640bf48a42dcbfb4cac8aed274ce0f9700017fa43d0f0b9f06be5262764736f6c634300081c0033a2646970667358221220247e856c6934e8447da661ee3e60354636018920de24511f8db08e7f5f1f58eb64736f6c634300081c0033","linkReferences":{}},"methodIdentifiers":{"_getFeedsPrice(address,address)":"31c1946c","admin(address)":"63a846f8","assetPrices(address)":"5e9a523c","assetToFeedsAccess(address)":"3744406a","defaultStaleThreshold()":"c37fac87","deployFeedsAccess(address)":"7842c0a2","feedsStaleThreshold(address)":"dc577474","getOwner()":"893d20e8","getUnderlyingPrice(address)":"fc57d4df","isPriceOracle()":"66331bba","lastValidFeedsPriceMantissa(address)":"c28bf663","registerFeed(address,address)":"751c7dae","removeAdmin(address)":"1785f53c","setAdmin(address)":"704b6c02","setAssetStaleThreshold(address,uint256)":"b48fecee","setDefaultStaleThreshold(uint256)":"2d274236","setDirectPrice(address,uint256)":"09a8acb0","setOwner(address)":"13af4035","setUnderlyingPrice(address,uint256)":"127ffda0","updateCachedPrice(address)":"ebe48d8f"},"id":4}