{"abi":[{"type":"constructor","inputs":[{"name":"_feedsAggregator","type":"address","internalType":"address"}],"stateMutability":"nonpayable"},{"type":"function","name":"fetchLatestAnswer","inputs":[],"outputs":[{"name":"","type":"uint256","internalType":"uint256"}],"stateMutability":"view"},{"type":"function","name":"fetchLatestRoundData","inputs":[],"outputs":[{"name":"","type":"uint80","internalType":"uint80"},{"name":"","type":"uint256","internalType":"uint256"},{"name":"","type":"uint256","internalType":"uint256"},{"name":"","type":"uint256","internalType":"uint256"},{"name":"","type":"uint80","internalType":"uint80"}],"stateMutability":"view"},{"type":"function","name":"getDecimals","inputs":[],"outputs":[{"name":"","type":"uint8","internalType":"uint8"}],"stateMutability":"view"},{"type":"function","name":"getDescription","inputs":[],"outputs":[{"name":"","type":"string","internalType":"string"}],"stateMutability":"view"}],"bytecode":{"object":"0x608034606f57601f61045538819003918201601f19168301916001600160401b03831184841017607357808492602094604052833981010312606f57516001600160a01b03811690819003606f575f80546001600160a01b0319169190911790556040516103cd90816100888239f35b5f80fd5b634e487b7160e01b5f52604160045260245ffdfe6080806040526004361015610012575f80fd5b5f3560e01c9081631a0925411461024e57508063527616b814610164578063a1951c24146100e45763f0141d8414610048575f80fd5b346100cd575f3660031901126100cd575f5460405163313ce56760e01b815290602090829060049082906001600160a01b03165afa80156100d9575f90610098575b60209060ff60405191168152f35b506020813d6020116100d1575b816100b26020938361035e565b810103126100cd575160ff811681036100cd5760209061008a565b5f80fd5b3d91506100a5565b6040513d5f823e3d90fd5b346100cd575f3660031901126100cd575f546040516350d25bcd60e01b815290602090829060049082906001600160a01b03165afa80156100d9575f90610131575b602090604051908152f35b506020813d60201161015c575b8161014b6020938361035e565b810103126100cd5760209051610126565b3d915061013e565b346100cd575f3660031901126100cd575f54604051633fabe5a360e21b81529060a090829060049082906001600160a01b03165afa9081156100d9575f905f5f905f925f956101df575b509160a0949169ffffffffffffffffffff938460405196168652602086015260408501526060840152166080820152f35b94505050505060a0813d60a011610246575b816101fe60a0938361035e565b810103126100cd578069ffffffffffffffffffff61021d60a093610380565b9160208101519260408201519161023b608060608301519201610380565b9550909390926101ae565b3d91506101f1565b346100cd575f3660031901126100cd575f8054633942720b60e11b8352829060049082906001600160a01b03165afa9081156100d9575f916102bc575b6020604083815192839181835280519182918282860152018484015e5f828201840152601f01601f19168101030190f35b90503d805f833e6102cd818361035e565b8101906020818303126100cd5780519067ffffffffffffffff82116100cd570181601f820112156100cd5780519167ffffffffffffffff831161034a5760405190610322601f8501601f19166020018361035e565b838252602084840101116100cd575f602084819582604096018386015e83010152915061028b565b634e487b7160e01b5f52604160045260245ffd5b90601f8019910116810190811067ffffffffffffffff82111761034a57604052565b519069ffffffffffffffffffff821682036100cd5756fea2646970667358221220df144817127be8a7501a780b2f2b9267dc1e32b276b05151574d2dc07c61232964736f6c634300081c0033","linkReferences":{}},"methodIdentifiers":{"fetchLatestAnswer()":"a1951c24","fetchLatestRoundData()":"527616b8","getDecimals()":"f0141d84","getDescription()":"1a092541"},"id":13}