{"abi":[{"type":"constructor","inputs":[{"name":"_staleThreshold","type":"uint256","internalType":"uint256"}],"stateMutability":"nonpayable"},{"type":"function","name":"admin","inputs":[{"name":"","type":"address","internalType":"address"}],"outputs":[{"name":"","type":"bool","internalType":"bool"}],"stateMutability":"view"},{"type":"function","name":"assetPrices","inputs":[{"name":"asset","type":"address","internalType":"address"}],"outputs":[{"name":"","type":"uint256","internalType":"uint256"}],"stateMutability":"view"},{"type":"function","name":"assetToAggregator","inputs":[{"name":"","type":"address","internalType":"address"}],"outputs":[{"name":"","type":"address","internalType":"contract AggregatorV3Interface"}],"stateMutability":"view"},{"type":"function","name":"chainlinkPriceStaleThreshold","inputs":[],"outputs":[{"name":"","type":"uint256","internalType":"uint256"}],"stateMutability":"view"},{"type":"function","name":"getAggregator","inputs":[{"name":"asset","type":"address","internalType":"address"}],"outputs":[{"name":"","type":"address","internalType":"address"}],"stateMutability":"view"},{"type":"function","name":"getLatestRoundData","inputs":[{"name":"asset","type":"address","internalType":"address"}],"outputs":[{"name":"roundId","type":"uint80","internalType":"uint80"},{"name":"price","type":"int256","internalType":"int256"},{"name":"startedAt","type":"uint256","internalType":"uint256"},{"name":"updatedAt","type":"uint256","internalType":"uint256"},{"name":"answeredInRound","type":"uint80","internalType":"uint80"}],"stateMutability":"view"},{"type":"function","name":"getUnderlyingPrice","inputs":[{"name":"pToken","type":"address","internalType":"contract PToken"}],"outputs":[{"name":"","type":"uint256","internalType":"uint256"}],"stateMutability":"view"},{"type":"function","name":"isPriceOracle","inputs":[],"outputs":[{"name":"","type":"bool","internalType":"bool"}],"stateMutability":"view"},{"type":"function","name":"isPriceStale","inputs":[{"name":"asset","type":"address","internalType":"address"}],"outputs":[{"name":"","type":"bool","internalType":"bool"}],"stateMutability":"view"},{"type":"function","name":"lastValidChainlinkPrice","inputs":[{"name":"","type":"address","internalType":"address"}],"outputs":[{"name":"","type":"uint256","internalType":"uint256"}],"stateMutability":"view"},{"type":"function","name":"registerChainlinkFeed","inputs":[{"name":"asset","type":"address","internalType":"address"},{"name":"aggregator","type":"address","internalType":"address"}],"outputs":[],"stateMutability":"nonpayable"},{"type":"function","name":"removeAdmin","inputs":[{"name":"_admin","type":"address","internalType":"address"}],"outputs":[],"stateMutability":"nonpayable"},{"type":"function","name":"setAdmin","inputs":[{"name":"_newAdmin","type":"address","internalType":"address"}],"outputs":[],"stateMutability":"nonpayable"},{"type":"function","name":"setChainlinkStaleThreshold","inputs":[{"name":"_newThreshold","type":"uint256","internalType":"uint256"}],"outputs":[],"stateMutability":"nonpayable"},{"type":"function","name":"setDirectPrice","inputs":[{"name":"asset","type":"address","internalType":"address"},{"name":"price","type":"uint256","internalType":"uint256"}],"outputs":[],"stateMutability":"nonpayable"},{"type":"function","name":"setOwner","inputs":[{"name":"_newOwner","type":"address","internalType":"address"}],"outputs":[],"stateMutability":"nonpayable"},{"type":"function","name":"setUnderlyingPrice","inputs":[{"name":"pToken","type":"address","internalType":"contract PToken"},{"name":"underlyingPriceMantissa","type":"uint256","internalType":"uint256"}],"outputs":[],"stateMutability":"nonpayable"},{"type":"function","name":"updateChainlinkPrices","inputs":[{"name":"assets","type":"address[]","internalType":"address[]"}],"outputs":[],"stateMutability":"nonpayable"},{"type":"event","name":"ChainlinkFeedRegistered","inputs":[{"name":"asset","type":"address","indexed":false,"internalType":"address"},{"name":"aggregator","type":"address","indexed":false,"internalType":"address"}],"anonymous":false},{"type":"event","name":"LastChainlinkPriceUpdated","inputs":[{"name":"asset","type":"address","indexed":true,"internalType":"address"},{"name":"priceMantissa","type":"uint256","indexed":false,"internalType":"uint256"}],"anonymous":false},{"type":"event","name":"PricePosted","inputs":[{"name":"asset","type":"address","indexed":false,"internalType":"address"},{"name":"previousPriceMantissa","type":"uint256","indexed":false,"internalType":"uint256"},{"name":"requestedPriceMantissa","type":"uint256","indexed":false,"internalType":"uint256"},{"name":"newPriceMantissa","type":"uint256","indexed":false,"internalType":"uint256"}],"anonymous":false}],"bytecode":{"object":"0x6080604052348015600e575f5ffd5b506040516114c03803806114c0833981016040819052602b916062565b600480546001600160a01b031916339081179091555f908152600160208190526040909120805460ff191690911790556005556078565b5f602082840312156071575f5ffd5b5051919050565b61143b806100855f395ff3fe608060405234801561000f575f5ffd5b5060043610610111575f3560e01c80635e9a523c1161009e578063725e6f0a1161006e578063725e6f0a14610271578063a9f991e0146102bb578063ddcc2763146102ce578063e7fa4d68146102f6578063fc57d4df146102ff575f5ffd5b80635e9a523c1461022157806363a846f81461023457806366331bba14610256578063704b6c021461025e575f5ffd5b806314cf46fa116100e457806314cf46fa146101825780631785f53c1461019557806317fdb62f146101a857806329a42d56146101cb578063416517481461020e575f5ffd5b806306a1f8f11461011557806309a8acb014610147578063127ffda01461015c57806313af40351461016f575b5f5ffd5b610134610123366004610f79565b60036020525f908152604090205481565b6040519081526020015b60405180910390f35b61015a610155366004610f9b565b610312565b005b61015a61016a366004610f9b565b6103c0565b61015a61017d366004610f79565b610471565b61015a610190366004610fc5565b6104bd565b61015a6101a3366004610f79565b6106c2565b6101bb6101b6366004610f79565b61070c565b604051901515815260200161013e565b6101f66101d9366004610f79565b6001600160a01b039081165f908152600260205260409020541690565b6040516001600160a01b03909116815260200161013e565b61015a61021c366004611036565b6107c2565b61013461022f366004610f79565b6107f1565b6101bb610242366004610f79565b60016020525f908152604090205460ff1681565b6101bb600181565b61015a61026c366004610f79565b6109db565b61028461027f366004610f79565b610a2b565b6040805169ffffffffffffffffffff968716815260208101959095528401929092526060830152909116608082015260a00161013e565b61015a6102c936600461104d565b610b0f565b6101f66102dc366004610f79565b60026020525f90815260409020546001600160a01b031681565b61013460055481565b61013461030d366004610f79565b610bfd565b335f9081526001602052604090205460ff166103495760405162461bcd60e51b815260040161034090611084565b60405180910390fd5b6001600160a01b0382165f8181526020818152604091829020548251938452908301528101829052606081018290527fdd71a1d19fcba687442a1d5c58578f1e409af71a79d10fd95a4d66efd8fa9ae79060800160405180910390a16001600160a01b039091165f90815260208190526040902055565b335f9081526001602052604090205460ff166103ee5760405162461bcd60e51b815260040161034090611084565b5f6103f883610df8565b6001600160a01b0381165f8181526020818152604091829020548251938452908301528101849052606081018490529091507fdd71a1d19fcba687442a1d5c58578f1e409af71a79d10fd95a4d66efd8fa9ae79060800160405180910390a16001600160a01b03165f9081526020819052604090205550565b6004546001600160a01b0316331461049b5760405162461bcd60e51b8152600401610340906110c5565b600480546001600160a01b0319166001600160a01b0392909216919091179055565b5f5b818110156106bd575f8383838181106104da576104da611106565b90506020020160208101906104ef9190610f79565b6001600160a01b038082165f908152600260205260409020549192501680156106b357806001600160a01b031663feaf968c6040518163ffffffff1660e01b815260040160a060405180830381865afa92505050801561056c575060408051601f3d908101601f1916820190925261056991810190611138565b60015b156106b35760055461057e834261119a565b1115801561058b57505f84135b156106ad575f866001600160a01b031663313ce5676040518163ffffffff1660e01b8152600401602060405180830381865afa1580156105cd573d5f5f3e3d5ffd5b505050506040513d601f19601f820116820180604052508101906105f191906111ad565b905084601260ff831610156106275761060b8260126111cd565b61061690600a6112c9565b61062090826112d7565b9050610656565b60128260ff1611156106565761063e6012836111cd565b61064990600a6112c9565b61065390826112ee565b90505b6001600160a01b0389165f8181526003602052604090819020839055517f23c94af363a1973efd406a592cd5904aaa5f2635b0d67d9d409d634a5b9315b0906106a29084815260200190565b60405180910390a250505b50505050505b50506001016104bf565b505050565b6004546001600160a01b031633146106ec5760405162461bcd60e51b8152600401610340906110c5565b6001600160a01b03165f908152600160205260409020805460ff19169055565b6001600160a01b038082165f90815260026020526040812054909116806107365750600192915050565b806001600160a01b031663feaf968c6040518163ffffffff1660e01b815260040160a060405180830381865afa925050508015610790575060408051601f3d908101601f1916820190925261078d91810190611138565b60015b61079d5750600192915050565b6005546107aa834261119a565b11806107b657505f8413155b98975050505050505050565b6004546001600160a01b031633146107ec5760405162461bcd60e51b8152600401610340906110c5565b600555565b6001600160a01b038082165f9081526002602052604081205490911680156109bf57806001600160a01b031663feaf968c6040518163ffffffff1660e01b815260040160a060405180830381865afa92505050801561086d575060408051601f3d908101601f1916820190925261086a91810190611138565b60015b61089c576001600160a01b0383165f908152600360205260409020548015610896579392505050565b506109bf565b6005546108a9834261119a565b111580156108b657505f84135b1561098e575f866001600160a01b031663313ce5676040518163ffffffff1660e01b8152600401602060405180830381865afa1580156108f8573d5f5f3e3d5ffd5b505050506040513d601f19601f8201168201806040525081019061091c91906111ad565b905084601260ff83161015610952576109368260126111cd565b61094190600a6112c9565b61094b90826112d7565b9050610981565b60128260ff161115610981576109696012836111cd565b61097490600a6112c9565b61097e90826112ee565b90505b9998505050505050505050565b6001600160a01b0388165f9081526003602052604090205480156109b85798975050505050505050565b5050505050505b50506001600160a01b03165f9081526020819052604090205490565b6004546001600160a01b03163314610a055760405162461bcd60e51b8152600401610340906110c5565b6001600160a01b03165f908152600160208190526040909120805460ff19169091179055565b6001600160a01b038082165f90815260026020526040812054909182918291829182911680610a9c5760405162461bcd60e51b815260206004820152601760248201527f4e6f2061676772656761746f7220666f722061737365740000000000000000006044820152606401610340565b806001600160a01b031663feaf968c6040518163ffffffff1660e01b815260040160a060405180830381865afa158015610ad8573d5f5f3e3d5ffd5b505050506040513d601f19601f82011682018060405250810190610afc9190611138565b939b929a50909850965090945092505050565b335f9081526001602052604090205460ff16610b3d5760405162461bcd60e51b815260040161034090611084565b6001600160a01b038116610b935760405162461bcd60e51b815260206004820152601a60248201527f496e76616c69642061676772656761746f7220616464726573730000000000006044820152606401610340565b6001600160a01b038281165f8181526002602090815260409182902080546001600160a01b031916948616948517905581519283528201929092527fd7b08529bc379b53ce108478b148454ebc52487e440738b0aa435b92eb9e2e83910160405180910390a15050565b5f5f610c0883610df8565b6001600160a01b038082165f90815260026020526040902054919250168015610dda57806001600160a01b031663feaf968c6040518163ffffffff1660e01b815260040160a060405180830381865afa925050508015610c85575060408051601f3d908101601f19168201909252610c8291810190611138565b60015b610cb5576001600160a01b0382165f908152600360205260409020548015610caf57949350505050565b50610dda565b600554610cc2834261119a565b11158015610ccf57505f84135b15610da8575f866001600160a01b031663313ce5676040518163ffffffff1660e01b8152600401602060405180830381865afa158015610d11573d5f5f3e3d5ffd5b505050506040513d601f19601f82011682018060405250810190610d3591906111ad565b905084601260ff83161015610d6b57610d4f8260126111cd565b610d5a90600a6112c9565b610d6490826112d7565b9050610d9a565b60128260ff161115610d9a57610d826012836111cd565b610d8d90600a6112c9565b610d9790826112ee565b90505b9a9950505050505050505050565b6001600160a01b0387165f908152600360205260409020548015610dd3579998505050505050505050565b5050505050505b506001600160a01b03165f9081526020819052604090205492915050565b5f5f610e81836001600160a01b03166395d89b416040518163ffffffff1660e01b81526004015f60405180830381865afa158015610e38573d5f5f3e3d5ffd5b505050506040513d5f823e601f3d908101601f19168201604052610e5f9190810190611321565b604051806040016040528060048152602001630e08aa8960e31b815250610f0a565b15610ea1575073eeeeeeeeeeeeeeeeeeeeeeeeeeeeeeeeeeeeeeee610f04565b826001600160a01b0316636f307dc36040518163ffffffff1660e01b8152600401602060405180830381865afa158015610edd573d5f5f3e3d5ffd5b505050506040513d601f19601f82011682018060405250810190610f0191906113d4565b90505b92915050565b5f81604051602001610f1c91906113ef565b6040516020818303038152906040528051906020012083604051602001610f4391906113ef565b6040516020818303038152906040528051906020012014905092915050565b6001600160a01b0381168114610f76575f5ffd5b50565b5f60208284031215610f89575f5ffd5b8135610f9481610f62565b9392505050565b5f5f60408385031215610fac575f5ffd5b8235610fb781610f62565b946020939093013593505050565b5f5f60208385031215610fd6575f5ffd5b823567ffffffffffffffff811115610fec575f5ffd5b8301601f81018513610ffc575f5ffd5b803567ffffffffffffffff811115611012575f5ffd5b8560208260051b8401011115611026575f5ffd5b6020919091019590945092505050565b5f60208284031215611046575f5ffd5b5035919050565b5f5f6040838503121561105e575f5ffd5b823561106981610f62565b9150602083013561107981610f62565b809150509250929050565b60208082526021908201527f4f6e6c792061646d696e2063616e2063616c6c20746869732066756e6374696f6040820152603760f91b606082015260800190565b60208082526021908201527f4f6e6c79206f776e65722063616e2063616c6c20746869732066756e6374696f6040820152603760f91b606082015260800190565b634e487b7160e01b5f52603260045260245ffd5b805169ffffffffffffffffffff81168114611133575f5ffd5b919050565b5f5f5f5f5f60a0868803121561114c575f5ffd5b6111558661111a565b6020870151604088015160608901519297509095509350915061117a6080870161111a565b90509295509295909350565b634e487b7160e01b5f52601160045260245ffd5b81810381811115610f0457610f04611186565b5f602082840312156111bd575f5ffd5b815160ff81168114610f94575f5ffd5b60ff8281168282160390811115610f0457610f04611186565b6001815b60018411156112215780850481111561120557611205611186565b600184161561121357908102905b60019390931c9280026111ea565b935093915050565b5f8261123757506001610f04565b8161124357505f610f04565b816001811461125957600281146112635761127f565b6001915050610f04565b60ff84111561127457611274611186565b50506001821b610f04565b5060208310610133831016604e8410600b84101617156112a2575081810a610f04565b6112ae5f1984846111e6565b805f19048211156112c1576112c1611186565b029392505050565b5f610f9460ff841683611229565b8082028115828204841417610f0457610f04611186565b5f8261130857634e487b7160e01b5f52601260045260245ffd5b500490565b634e487b7160e01b5f52604160045260245ffd5b5f60208284031215611331575f5ffd5b815167ffffffffffffffff811115611347575f5ffd5b8201601f81018413611357575f5ffd5b805167ffffffffffffffff8111156113715761137161130d565b604051601f8201601f19908116603f0116810167ffffffffffffffff811182821017156113a0576113a061130d565b6040528181528282016020018610156113b7575f5ffd5b8160208401602083015e5f91810160200191909152949350505050565b5f602082840312156113e4575f5ffd5b8151610f9481610f62565b5f82518060208501845e5f92019182525091905056fea2646970667358221220d6aeb2055d4d97557a0c104fc4aca76589f495813fb0c376b57095930067d21364736f6c634300081b0033","linkReferences":{}},"methodIdentifiers":{"admin(address)":"63a846f8","assetPrices(address)":"5e9a523c","assetToAggregator(address)":"ddcc2763","chainlinkPriceStaleThreshold()":"e7fa4d68","getAggregator(address)":"29a42d56","getLatestRoundData(address)":"725e6f0a","getUnderlyingPrice(address)":"fc57d4df","isPriceOracle()":"66331bba","isPriceStale(address)":"17fdb62f","lastValidChainlinkPrice(address)":"06a1f8f1","registerChainlinkFeed(address,address)":"a9f991e0","removeAdmin(address)":"1785f53c","setAdmin(address)":"704b6c02","setChainlinkStaleThreshold(uint256)":"41651748","setDirectPrice(address,uint256)":"09a8acb0","setOwner(address)":"13af4035","setUnderlyingPrice(address,uint256)":"127ffda0","updateChainlinkPrices(address[])":"14cf46fa"},"id":32}