{"abi":[{"type":"constructor","inputs":[{"name":"_staleThreshold","type":"uint256","internalType":"uint256"}],"stateMutability":"nonpayable"},{"type":"function","name":"admin","inputs":[{"name":"","type":"address","internalType":"address"}],"outputs":[{"name":"","type":"bool","internalType":"bool"}],"stateMutability":"view"},{"type":"function","name":"assetPrices","inputs":[{"name":"asset","type":"address","internalType":"address"}],"outputs":[{"name":"","type":"uint256","internalType":"uint256"}],"stateMutability":"view"},{"type":"function","name":"assetToAggregator","inputs":[{"name":"","type":"address","internalType":"address"}],"outputs":[{"name":"","type":"address","internalType":"contract AggregatorV3Interface"}],"stateMutability":"view"},{"type":"function","name":"chainlinkPriceStaleThreshold","inputs":[],"outputs":[{"name":"","type":"uint256","internalType":"uint256"}],"stateMutability":"view"},{"type":"function","name":"getAggregator","inputs":[{"name":"asset","type":"address","internalType":"address"}],"outputs":[{"name":"","type":"address","internalType":"address"}],"stateMutability":"view"},{"type":"function","name":"getLatestRoundData","inputs":[{"name":"asset","type":"address","internalType":"address"}],"outputs":[{"name":"roundId","type":"uint80","internalType":"uint80"},{"name":"price","type":"int256","internalType":"int256"},{"name":"startedAt","type":"uint256","internalType":"uint256"},{"name":"updatedAt","type":"uint256","internalType":"uint256"},{"name":"answeredInRound","type":"uint80","internalType":"uint80"}],"stateMutability":"view"},{"type":"function","name":"getUnderlyingPrice","inputs":[{"name":"pToken","type":"address","internalType":"contract PToken"}],"outputs":[{"name":"","type":"uint256","internalType":"uint256"}],"stateMutability":"view"},{"type":"function","name":"isPriceOracle","inputs":[],"outputs":[{"name":"","type":"bool","internalType":"bool"}],"stateMutability":"view"},{"type":"function","name":"isPriceStale","inputs":[{"name":"asset","type":"address","internalType":"address"}],"outputs":[{"name":"","type":"bool","internalType":"bool"}],"stateMutability":"view"},{"type":"function","name":"lastValidChainlinkPrice","inputs":[{"name":"","type":"address","internalType":"address"}],"outputs":[{"name":"","type":"uint256","internalType":"uint256"}],"stateMutability":"view"},{"type":"function","name":"registerChainlinkFeed","inputs":[{"name":"asset","type":"address","internalType":"address"},{"name":"aggregator","type":"address","internalType":"address"}],"outputs":[],"stateMutability":"nonpayable"},{"type":"function","name":"removeAdmin","inputs":[{"name":"_admin","type":"address","internalType":"address"}],"outputs":[],"stateMutability":"nonpayable"},{"type":"function","name":"setAdmin","inputs":[{"name":"_newAdmin","type":"address","internalType":"address"}],"outputs":[],"stateMutability":"nonpayable"},{"type":"function","name":"setChainlinkStaleThreshold","inputs":[{"name":"_newThreshold","type":"uint256","internalType":"uint256"}],"outputs":[],"stateMutability":"nonpayable"},{"type":"function","name":"setDirectPrice","inputs":[{"name":"asset","type":"address","internalType":"address"},{"name":"price","type":"uint256","internalType":"uint256"}],"outputs":[],"stateMutability":"nonpayable"},{"type":"function","name":"setOwner","inputs":[{"name":"_newOwner","type":"address","internalType":"address"}],"outputs":[],"stateMutability":"nonpayable"},{"type":"function","name":"setUnderlyingPrice","inputs":[{"name":"pToken","type":"address","internalType":"contract PToken"},{"name":"underlyingPriceMantissa","type":"uint256","internalType":"uint256"}],"outputs":[],"stateMutability":"nonpayable"},{"type":"function","name":"updateChainlinkPrices","inputs":[{"name":"assets","type":"address[]","internalType":"address[]"}],"outputs":[],"stateMutability":"nonpayable"},{"type":"event","name":"ChainlinkFeedRegistered","inputs":[{"name":"asset","type":"address","indexed":false,"internalType":"address"},{"name":"aggregator","type":"address","indexed":false,"internalType":"address"}],"anonymous":false},{"type":"event","name":"LastChainlinkPriceUpdated","inputs":[{"name":"asset","type":"address","indexed":true,"internalType":"address"},{"name":"priceMantissa","type":"uint256","indexed":false,"internalType":"uint256"}],"anonymous":false},{"type":"event","name":"PricePosted","inputs":[{"name":"asset","type":"address","indexed":false,"internalType":"address"},{"name":"previousPriceMantissa","type":"uint256","indexed":false,"internalType":"uint256"},{"name":"requestedPriceMantissa","type":"uint256","indexed":false,"internalType":"uint256"},{"name":"newPriceMantissa","type":"uint256","indexed":false,"internalType":"uint256"}],"anonymous":false}],"bytecode":{"object":"0x608034607657601f610f2738819003918201601f19168301916001600160401b03831184841017607a57808492602094604052833981010312607657513360018060a01b03196004541617600455335f52600160205260405f20600160ff19825416179055600555604051610e98908161008f8239f35b5f80fd5b634e487b7160e01b5f52604160045260245ffdfe6080806040526004361015610012575f80fd5b5f3560e01c90816306a1f8f11461083c5750806309a8acb014610807578063127ffda01461076657806313af40351461071957806314cf46fa146105025780631785f53c146104b457806317fdb62f1461048757806329a42d561461012e57806341651748146104595780635e9a523c1461043657806363a846f8146103f957806366331bba146103de578063704b6c021461038a578063725e6f0a1461025b578063a9f991e01461016e578063ddcc27631461012e578063e7fa4d68146101115763fc57d4df146100e2575f80fd5b3461010d57602036600319011261010d576020610105610100610870565b610c5e565b604051908152f35b5f80fd5b3461010d575f36600319011261010d576020600554604051908152f35b3461010d57602036600319011261010d576001600160a01b0361014f610870565b165f526002602052602060018060a01b0360405f205416604051908152f35b3461010d57604036600319011261010d57610187610870565b6024356001600160a01b038116919082900361010d57335f5260016020526101b560ff60405f205416610886565b8115610216576001600160a01b03165f8181526002602090815260409182902080546001600160a01b0319168517905581519283528201929092527fd7b08529bc379b53ce108478b148454ebc52487e440738b0aa435b92eb9e2e839190a1005b60405162461bcd60e51b815260206004820152601a60248201527f496e76616c69642061676772656761746f7220616464726573730000000000006044820152606490fd5b3461010d57602036600319011261010d576001600160a01b0361027c610870565b165f908152600260205260409020546001600160a01b031680156103455760a060049160405192838092633fabe5a360e21b82525afa90811561033a5760a0915f905f5f5f915f936102f6575b69ffffffffffffffffffff8095965060405196168652602086015260408501526060840152166080820152f35b505050505061032569ffffffffffffffffffff91833d8511610333575b61031d8183610932565b81019061097f565b9394508493929091906102c9565b503d610313565b6040513d5f823e3d90fd5b60405162461bcd60e51b815260206004820152601760248201527f4e6f2061676772656761746f7220666f722061737365740000000000000000006044820152606490fd5b3461010d57602036600319011261010d576103a3610870565b6103b860018060a01b036004541633146108dc565b6001600160a01b03165f908152600160208190526040909120805460ff19169091179055005b3461010d575f36600319011261010d57602060405160018152f35b3461010d57602036600319011261010d576001600160a01b0361041a610870565b165f526001602052602060ff60405f2054166040519015158152f35b3461010d57602036600319011261010d576020610105610454610870565b610af2565b3461010d57602036600319011261010d5761047f60018060a01b036004541633146108dc565b600435600555005b3461010d57602036600319011261010d5760206104aa6104a5610870565b610a54565b6040519015158152f35b3461010d57602036600319011261010d576104cd610870565b6104e260018060a01b036004541633146108dc565b6001600160a01b03165f908152600160205260409020805460ff19169055005b3461010d57602036600319011261010d5760043567ffffffffffffffff811161010d573660238201121561010d5780600401359067ffffffffffffffff821161010d573660248360051b8301011161010d575f5b82811015610717576024600582901b830101356001600160a01b038116919082900361010d575f828152600260205260409020546001600160a01b031691826105a5575b506001915001610556565b604051633fabe5a360e21b81529260a084600481845afa805f955f926106ef575b506105d3575b505061059a565b6105dd90426109b4565b6005541015806106e6575b6105f3575b806105cc565b60206004916040519283809263313ce56760e01b82525afa90811561033a576001947f23c94af363a1973efd406a592cd5904aaa5f2635b0d67d9d409d634a5b9315b0926020925f916106b9575b5060ff8116919081601284101561068a575061066f925061066461066991610a01565b610a12565b90610a41565b835f52600382528060405f2055604051908152a284806105ed565b919260121061069b575b505061066f565b6106b292506106646106ac916109ee565b90610a23565b8880610694565b6106d99150833d81116106df575b6106d18183610932565b8101906109d5565b89610641565b503d6106c7565b505f84136105e8565b90955061070a915060a03d81116103335761031d8183610932565b50969250509490886105c6565b005b3461010d57602036600319011261010d57610732610870565b6004549061074a336001600160a01b038416146108dc565b6001600160a01b03166001600160a01b03199190911617600455005b3461010d57604036600319011261010d5761077f610870565b6107a360243591335f52600160205261079e60ff60405f205416610886565b610c9c565b6001600160a01b03165f818152602081815260409182902054825184815291820152908101839052606081018390527fdd71a1d19fcba687442a1d5c58578f1e409af71a79d10fd95a4d66efd8fa9ae790608090a15f525f60205260405f20555f80f35b3461010d57604036600319011261010d57610820610870565b60243590335f5260016020526107a360ff60405f205416610886565b3461010d57602036600319011261010d576020906001600160a01b03610860610870565b165f526003825260405f20548152f35b600435906001600160a01b038216820361010d57565b1561088d57565b60405162461bcd60e51b815260206004820152602160248201527f4f6e6c792061646d696e2063616e2063616c6c20746869732066756e6374696f6044820152603760f91b6064820152608490fd5b156108e357565b60405162461bcd60e51b815260206004820152602160248201527f4f6e6c79206f776e65722063616e2063616c6c20746869732066756e6374696f6044820152603760f91b6064820152608490fd5b90601f8019910116810190811067ffffffffffffffff82111761095457604052565b634e487b7160e01b5f52604160045260245ffd5b519069ffffffffffffffffffff8216820361010d57565b908160a091031261010d5761099381610968565b916020820151916040810151916109b1608060608401519301610968565b90565b919082039182116109c157565b634e487b7160e01b5f52601160045260245ffd5b9081602091031261010d575160ff8116810361010d5790565b60ff6011199116019060ff82116109c157565b60ff166012039060ff82116109c157565b60ff16604d81116109c157600a0a90565b8115610a2d570490565b634e487b7160e01b5f52601260045260245ffd5b818102929181159184041417156109c157565b6001600160a01b039081165f90815260026020526040902054168015610aec5760a060049160405192838092633fabe5a360e21b82525afa805f925f92610ac3575b50610aa2575050600190565b610aac90426109b4565b60055410908115610abb575090565b5f9150131590565b909250610adf915060a03d60a0116103335761031d8183610932565b509392505091905f610a96565b50600190565b6001600160a01b039081165f8181526002602052604090205490911680610b23575b505f525f60205260405f205490565b604051633fabe5a360e21b81529060a082600481845afa805f935f92610c35575b50610b6b57505050805f52600360205260405f205480610b6657505b5f610b14565b905090565b610b799093919293426109b4565b600554101580610c2c575b15610c11575060206004916040519283809263313ce56760e01b82525afa90811561033a575f91610bf2575b5060ff81169190816012841015610bd357506109b1925061066461066991610a01565b9192601210610be157505090565b6109b192506106646106ac916109ee565b610c0b915060203d6020116106df576106d18183610932565b5f610bb0565b915050805f52600360205260405f205480610b665750610b60565b505f8313610b84565b909350610c51915060a03d60a0116103335761031d8183610932565b509492505092905f610b44565b6001600160a01b0390610c7090610c9c565b165f818152600260205260409020546001600160a01b031680610b2357505f525f60205260405f205490565b6040516395d89b4160e01b8152906001600160a01b03165f82600481845afa91821561033a575f92610dd6575b506040918251610cd98482610932565b600481526020810191630e08aa8960e31b83528451610d176020828180820195805191829101875e81015f838201520301601f198101835282610932565b51902091610d4360208651809382820195518091875e81015f838201520301601f198101835282610932565b51902003610d6557505073eeeeeeeeeeeeeeeeeeeeeeeeeeeeeeeeeeeeeeee90565b6020600491835192838092636f307dc360e01b82525afa918215610dcd57505f91610d8e575090565b90506020813d602011610dc5575b81610da960209383610932565b8101031261010d57516001600160a01b038116810361010d5790565b3d9150610d9c565b513d5f823e3d90fd5b9091503d805f833e610de88183610932565b81019060208183031261010d5780519067ffffffffffffffff821161010d570181601f8201121561010d5780519067ffffffffffffffff82116109545760405192610e3d601f8401601f191660200185610932565b8284526020838301011161010d57815f9260208093018386015e83010152905f610cc956fea2646970667358221220e420c345c7ddff3152c7307b4aaaad9dcb52c6ba0caeddf4e52904f2ef45786b64736f6c634300081b0033","linkReferences":{}},"methodIdentifiers":{"admin(address)":"63a846f8","assetPrices(address)":"5e9a523c","assetToAggregator(address)":"ddcc2763","chainlinkPriceStaleThreshold()":"e7fa4d68","getAggregator(address)":"29a42d56","getLatestRoundData(address)":"725e6f0a","getUnderlyingPrice(address)":"fc57d4df","isPriceOracle()":"66331bba","isPriceStale(address)":"17fdb62f","lastValidChainlinkPrice(address)":"06a1f8f1","registerChainlinkFeed(address,address)":"a9f991e0","removeAdmin(address)":"1785f53c","setAdmin(address)":"704b6c02","setChainlinkStaleThreshold(uint256)":"41651748","setDirectPrice(address,uint256)":"09a8acb0","setOwner(address)":"13af4035","setUnderlyingPrice(address,uint256)":"127ffda0","updateChainlinkPrices(address[])":"14cf46fa"},"id":35}