{"abi":[{"type":"constructor","inputs":[{"name":"_staleThreshold","type":"uint256","internalType":"uint256"}],"stateMutability":"nonpayable"},{"type":"function","name":"admin","inputs":[{"name":"","type":"address","internalType":"address"}],"outputs":[{"name":"","type":"bool","internalType":"bool"}],"stateMutability":"view"},{"type":"function","name":"assetPrices","inputs":[{"name":"asset","type":"address","internalType":"address"}],"outputs":[{"name":"","type":"uint256","internalType":"uint256"}],"stateMutability":"view"},{"type":"function","name":"assetToAggregator","inputs":[{"name":"","type":"address","internalType":"address"}],"outputs":[{"name":"","type":"address","internalType":"contract AggregatorV3Interface"}],"stateMutability":"view"},{"type":"function","name":"chainlinkPriceStaleThreshold","inputs":[],"outputs":[{"name":"","type":"uint256","internalType":"uint256"}],"stateMutability":"view"},{"type":"function","name":"getAggregator","inputs":[{"name":"asset","type":"address","internalType":"address"}],"outputs":[{"name":"","type":"address","internalType":"address"}],"stateMutability":"view"},{"type":"function","name":"getLINKBalance","inputs":[{"name":"linkToken","type":"address","internalType":"address"}],"outputs":[{"name":"","type":"uint256","internalType":"uint256"}],"stateMutability":"view"},{"type":"function","name":"getLatestRoundData","inputs":[{"name":"asset","type":"address","internalType":"address"}],"outputs":[{"name":"roundId","type":"uint80","internalType":"uint80"},{"name":"price","type":"int256","internalType":"int256"},{"name":"startedAt","type":"uint256","internalType":"uint256"},{"name":"updatedAt","type":"uint256","internalType":"uint256"},{"name":"answeredInRound","type":"uint80","internalType":"uint80"}],"stateMutability":"view"},{"type":"function","name":"getUnderlyingPrice","inputs":[{"name":"pToken","type":"address","internalType":"contract PToken"}],"outputs":[{"name":"","type":"uint256","internalType":"uint256"}],"stateMutability":"view"},{"type":"function","name":"isPriceOracle","inputs":[],"outputs":[{"name":"","type":"bool","internalType":"bool"}],"stateMutability":"view"},{"type":"function","name":"isPriceStale","inputs":[{"name":"asset","type":"address","internalType":"address"}],"outputs":[{"name":"","type":"bool","internalType":"bool"}],"stateMutability":"view"},{"type":"function","name":"lastValidChainlinkPrice","inputs":[{"name":"","type":"address","internalType":"address"}],"outputs":[{"name":"","type":"uint256","internalType":"uint256"}],"stateMutability":"view"},{"type":"function","name":"registerChainlinkFeed","inputs":[{"name":"asset","type":"address","internalType":"address"},{"name":"aggregator","type":"address","internalType":"address"}],"outputs":[],"stateMutability":"nonpayable"},{"type":"function","name":"removeAdmin","inputs":[{"name":"_admin","type":"address","internalType":"address"}],"outputs":[],"stateMutability":"nonpayable"},{"type":"function","name":"removeChainlinkFeed","inputs":[{"name":"asset","type":"address","internalType":"address"}],"outputs":[],"stateMutability":"nonpayable"},{"type":"function","name":"setAdmin","inputs":[{"name":"_newAdmin","type":"address","internalType":"address"}],"outputs":[],"stateMutability":"nonpayable"},{"type":"function","name":"setChainlinkStaleThreshold","inputs":[{"name":"_newThreshold","type":"uint256","internalType":"uint256"}],"outputs":[],"stateMutability":"nonpayable"},{"type":"function","name":"setDirectPrice","inputs":[{"name":"asset","type":"address","internalType":"address"},{"name":"price","type":"uint256","internalType":"uint256"}],"outputs":[],"stateMutability":"nonpayable"},{"type":"function","name":"setOwner","inputs":[{"name":"_newOwner","type":"address","internalType":"address"}],"outputs":[],"stateMutability":"nonpayable"},{"type":"function","name":"setUnderlyingPrice","inputs":[{"name":"pToken","type":"address","internalType":"contract PToken"},{"name":"underlyingPriceMantissa","type":"uint256","internalType":"uint256"}],"outputs":[],"stateMutability":"nonpayable"},{"type":"function","name":"updateChainlinkPrices","inputs":[{"name":"assets","type":"address[]","internalType":"address[]"}],"outputs":[],"stateMutability":"nonpayable"},{"type":"function","name":"withdrawLINK","inputs":[{"name":"linkToken","type":"address","internalType":"address"},{"name":"to","type":"address","internalType":"address"},{"name":"amount","type":"uint256","internalType":"uint256"}],"outputs":[],"stateMutability":"nonpayable"},{"type":"event","name":"ChainlinkFeedRegistered","inputs":[{"name":"asset","type":"address","indexed":false,"internalType":"address"},{"name":"aggregator","type":"address","indexed":false,"internalType":"address"}],"anonymous":false},{"type":"event","name":"LastChainlinkPriceUpdated","inputs":[{"name":"asset","type":"address","indexed":true,"internalType":"address"},{"name":"priceMantissa","type":"uint256","indexed":false,"internalType":"uint256"}],"anonymous":false},{"type":"event","name":"PricePosted","inputs":[{"name":"asset","type":"address","indexed":false,"internalType":"address"},{"name":"previousPriceMantissa","type":"uint256","indexed":false,"internalType":"uint256"},{"name":"requestedPriceMantissa","type":"uint256","indexed":false,"internalType":"uint256"},{"name":"newPriceMantissa","type":"uint256","indexed":false,"internalType":"uint256"}],"anonymous":false}],"bytecode":{"object":"0x608034607657601f61131e38819003918201601f19168301916001600160401b03831184841017607a57808492602094604052833981010312607657513360018060a01b03196004541617600455335f52600160205260405f20600160ff1982541617905560055560405161128f908161008f8239f35b5f80fd5b634e487b7160e01b5f52604160045260245ffdfe6080806040526004361015610012575f80fd5b5f3560e01c90816306a1f8f114610c1d5750806309a8acb014610be85780631063169414610af2578063127ffda014610a5157806313af403514610a0457806314cf46fa146107ed5780631785f53c1461079f57806317fdb62f146107725780632833a6831461052e57806329a42d561461014f57806341651748146105005780635e9a523c146104dd57806363a846f8146104a057806366331bba14610485578063704b6c0214610431578063725e6f0a1461030d5780638d36de2114610278578063a9f991e01461018f578063ddcc27631461014f578063e7fa4d68146101325763fc57d4df14610103575f80fd5b3461012e57602036600319011261012e576020610126610121610c51565b611055565b604051908152f35b5f80fd5b3461012e575f36600319011261012e576020600554604051908152f35b3461012e57602036600319011261012e576001600160a01b03610170610c51565b165f526002602052602060018060a01b0360405f205416604051908152f35b3461012e57604036600319011261012e576101a8610c51565b6101b0610c67565b335f5260016020526101c860ff60405f205416610c7d565b6001600160a01b0316908115610233576001600160a01b03165f8181526002602090815260409182902080546001600160a01b0319168517905581519283528201929092527fd7b08529bc379b53ce108478b148454ebc52487e440738b0aa435b92eb9e2e839190a1005b60405162461bcd60e51b815260206004820152601a60248201527f496e76616c69642061676772656761746f7220616464726573730000000000006044820152606490fd5b3461012e57602036600319011261012e57602460206001600160a01b0361029d610c51565b16604051928380926370a0823160e01b82523060048301525afa8015610302575f906102cf575b602090604051908152f35b506020813d6020116102fa575b816102e960209383610d29565b8101031261012e57602090516102c4565b3d91506102dc565b6040513d5f823e3d90fd5b3461012e57602036600319011261012e576001600160a01b0361032e610c51565b165f908152600260205260409020546001600160a01b031680156103ec5760a060049160405192838092633fabe5a360e21b82525afa9081156103025760a0915f905f5f5f915f936103a8575b69ffffffffffffffffffff8095965060405196168652602086015260408501526060840152166080820152f35b50505050506103d769ffffffffffffffffffff91833d85116103e5575b6103cf8183610d29565b810190610d76565b93945084939290919061037b565b503d6103c5565b60405162461bcd60e51b815260206004820152601760248201527f4e6f2061676772656761746f7220666f722061737365740000000000000000006044820152606490fd5b3461012e57602036600319011261012e5761044a610c51565b61045f60018060a01b03600454163314610cd3565b6001600160a01b03165f908152600160208190526040909120805460ff19169091179055005b3461012e575f36600319011261012e57602060405160018152f35b3461012e57602036600319011261012e576001600160a01b036104c1610c51565b165f526001602052602060ff60405f2054166040519015158152f35b3461012e57602036600319011261012e5760206101266104fb610c51565b610ee9565b3461012e57602036600319011261012e5761052660018060a01b03600454163314610cd3565b600435600555005b3461012e57606036600319011261012e57610547610c51565b61054f610c67565b906044359161056960018060a01b03600454163314610cd3565b6001600160a01b031690811561072d5782156106e9576040516370a0823160e01b81523060048201526001600160a01b03919091169290602081602481875afa80156103025782915f916106b4575b501061066f5760446020925f604051958694859363a9059cbb60e01b8552600485015260248401525af1908115610302575f91610634575b50156105f857005b60405162461bcd60e51b815260206004820152601460248201527313125392c81d1c985b9cd9995c8819985a5b195960621b6044820152606490fd5b90506020813d602011610667575b8161064f60209383610d29565b8101031261012e5751801515810361012e57816105f0565b3d9150610642565b60405162461bcd60e51b815260206004820152601960248201527f496e73756666696369656e74204c494e4b2062616c616e6365000000000000006044820152606490fd5b9150506020813d6020116106e1575b816106d060209383610d29565b8101031261012e57819051856105b8565b3d91506106c3565b606460405162461bcd60e51b815260206004820152602060248201527f416d6f756e74206d7573742062652067726561746572207468616e207a65726f6044820152fd5b60405162461bcd60e51b815260206004820152601f60248201527f43616e6e6f7420776974686472617720746f207a65726f2061646472657373006044820152606490fd5b3461012e57602036600319011261012e576020610795610790610c51565b610e4b565b6040519015158152f35b3461012e57602036600319011261012e576107b8610c51565b6107cd60018060a01b03600454163314610cd3565b6001600160a01b03165f908152600160205260409020805460ff19169055005b3461012e57602036600319011261012e5760043567ffffffffffffffff811161012e573660238201121561012e5780600401359067ffffffffffffffff821161012e573660248360051b8301011161012e575f5b82811015610a02576024600582901b830101356001600160a01b038116919082900361012e575f828152600260205260409020546001600160a01b03169182610890575b506001915001610841565b604051633fabe5a360e21b81529260a084600481845afa805f955f926109da575b506108be575b5050610885565b6108c89042610dab565b6005541015806109d1575b6108de575b806108b7565b60206004916040519283809263313ce56760e01b82525afa908115610302576001947f23c94af363a1973efd406a592cd5904aaa5f2635b0d67d9d409d634a5b9315b0926020925f916109a4575b5060ff81169190816012841015610975575061095a925061094f61095491610df8565b610e09565b90610e38565b835f52600382528060405f2055604051908152a284806108d8565b9192601210610986575b505061095a565b61099d925061094f61099791610de5565b90610e1a565b888061097f565b6109c49150833d81116109ca575b6109bc8183610d29565b810190610dcc565b8961092c565b503d6109b2565b505f84136108d3565b9095506109f5915060a03d81116103e5576103cf8183610d29565b50969250509490886108b1565b005b3461012e57602036600319011261012e57610a1d610c51565b60045490610a35336001600160a01b03841614610cd3565b6001600160a01b03166001600160a01b03199190911617600455005b3461012e57604036600319011261012e57610a6a610c51565b610a8e60243591335f526001602052610a8960ff60405f205416610c7d565b611093565b6001600160a01b03165f818152602081815260409182902054825184815291820152908101839052606081018390527fdd71a1d19fcba687442a1d5c58578f1e409af71a79d10fd95a4d66efd8fa9ae790608090a15f525f60205260405f20555f80f35b3461012e57602036600319011261012e57610b0b610c51565b335f526001602052610b2360ff60405f205416610c7d565b6001600160a01b039081165f8181526002602052604090205490911615610ba3576040817fd7b08529bc379b53ce108478b148454ebc52487e440738b0aa435b92eb9e2e83925f526002602052815f206bffffffffffffffffffffffff60a01b8154169055805f5260036020525f8281205581519081525f6020820152a1005b60405162461bcd60e51b815260206004820152601d60248201527f4e6f20666565642065786973747320666f7220746869732061737365740000006044820152606490fd5b3461012e57604036600319011261012e57610c01610c51565b60243590335f526001602052610a8e60ff60405f205416610c7d565b3461012e57602036600319011261012e576020906001600160a01b03610c41610c51565b165f526003825260405f20548152f35b600435906001600160a01b038216820361012e57565b602435906001600160a01b038216820361012e57565b15610c8457565b60405162461bcd60e51b815260206004820152602160248201527f4f6e6c792061646d696e2063616e2063616c6c20746869732066756e6374696f6044820152603760f91b6064820152608490fd5b15610cda57565b60405162461bcd60e51b815260206004820152602160248201527f4f6e6c79206f776e65722063616e2063616c6c20746869732066756e6374696f6044820152603760f91b6064820152608490fd5b90601f8019910116810190811067ffffffffffffffff821117610d4b57604052565b634e487b7160e01b5f52604160045260245ffd5b519069ffffffffffffffffffff8216820361012e57565b908160a091031261012e57610d8a81610d5f565b91602082015191604081015191610da8608060608401519301610d5f565b90565b91908203918211610db857565b634e487b7160e01b5f52601160045260245ffd5b9081602091031261012e575160ff8116810361012e5790565b60ff6011199116019060ff8211610db857565b60ff166012039060ff8211610db857565b60ff16604d8111610db857600a0a90565b8115610e24570490565b634e487b7160e01b5f52601260045260245ffd5b81810292918115918404141715610db857565b6001600160a01b039081165f90815260026020526040902054168015610ee35760a060049160405192838092633fabe5a360e21b82525afa805f925f92610eba575b50610e99575050600190565b610ea39042610dab565b60055410908115610eb2575090565b5f9150131590565b909250610ed6915060a03d60a0116103e5576103cf8183610d29565b509392505091905f610e8d565b50600190565b6001600160a01b039081165f8181526002602052604090205490911680610f1a575b505f525f60205260405f205490565b604051633fabe5a360e21b81529060a082600481845afa805f935f9261102c575b50610f6257505050805f52600360205260405f205480610f5d57505b5f610f0b565b905090565b610f70909391929342610dab565b600554101580611023575b15611008575060206004916040519283809263313ce56760e01b82525afa908115610302575f91610fe9575b5060ff81169190816012841015610fca5750610da8925061094f61095491610df8565b9192601210610fd857505090565b610da8925061094f61099791610de5565b611002915060203d6020116109ca576109bc8183610d29565b5f610fa7565b915050805f52600360205260405f205480610f5d5750610f57565b505f8313610f7b565b909350611048915060a03d60a0116103e5576103cf8183610d29565b509492505092905f610f3b565b6001600160a01b039061106790611093565b165f818152600260205260409020546001600160a01b031680610f1a57505f525f60205260405f205490565b6040516395d89b4160e01b8152906001600160a01b03165f82600481845afa918215610302575f926111cd575b5060409182516110d08482610d29565b600481526020810191630e08aa8960e31b8352845161110e6020828180820195805191829101875e81015f838201520301601f198101835282610d29565b5190209161113a60208651809382820195518091875e81015f838201520301601f198101835282610d29565b5190200361115c57505073eeeeeeeeeeeeeeeeeeeeeeeeeeeeeeeeeeeeeeee90565b6020600491835192838092636f307dc360e01b82525afa9182156111c457505f91611185575090565b90506020813d6020116111bc575b816111a060209383610d29565b8101031261012e57516001600160a01b038116810361012e5790565b3d9150611193565b513d5f823e3d90fd5b9091503d805f833e6111df8183610d29565b81019060208183031261012e5780519067ffffffffffffffff821161012e570181601f8201121561012e5780519067ffffffffffffffff8211610d4b5760405192611234601f8401601f191660200185610d29565b8284526020838301011161012e57815f9260208093018386015e83010152905f6110c056fea264697066735822122031dd9a6f08ef8fea5fa6fb927e2c770c928c5d9ba50a86cbe1261b3d84e348be64736f6c634300081c0033","linkReferences":{}},"methodIdentifiers":{"admin(address)":"63a846f8","assetPrices(address)":"5e9a523c","assetToAggregator(address)":"ddcc2763","chainlinkPriceStaleThreshold()":"e7fa4d68","getAggregator(address)":"29a42d56","getLINKBalance(address)":"8d36de21","getLatestRoundData(address)":"725e6f0a","getUnderlyingPrice(address)":"fc57d4df","isPriceOracle()":"66331bba","isPriceStale(address)":"17fdb62f","lastValidChainlinkPrice(address)":"06a1f8f1","registerChainlinkFeed(address,address)":"a9f991e0","removeAdmin(address)":"1785f53c","removeChainlinkFeed(address)":"10631694","setAdmin(address)":"704b6c02","setChainlinkStaleThreshold(uint256)":"41651748","setDirectPrice(address,uint256)":"09a8acb0","setOwner(address)":"13af4035","setUnderlyingPrice(address,uint256)":"127ffda0","updateChainlinkPrices(address[])":"14cf46fa","withdrawLINK(address,address,uint256)":"2833a683"},"id":46}